{
    "_format": "hh-sol-artifact-1",
    "contractName": "UserStateTransitionVerifier",
    "sourceName": "contracts/UserStateTransitionVerifier.sol",
    "abi": [
        {
            "inputs": [
                {
                    "internalType": "uint256[2]",
                    "name": "a",
                    "type": "uint256[2]"
                },
                {
                    "internalType": "uint256[2][2]",
                    "name": "b",
                    "type": "uint256[2][2]"
                },
                {
                    "internalType": "uint256[2]",
                    "name": "c",
                    "type": "uint256[2]"
                },
                {
                    "internalType": "uint256[]",
                    "name": "input",
                    "type": "uint256[]"
                }
            ],
            "name": "verifyProof",
            "outputs": [
                {
                    "internalType": "bool",
                    "name": "",
                    "type": "bool"
                }
            ],
            "stateMutability": "view",
            "type": "function"
        }
    ],
    "bytecode": "0x608060405234801561001057600080fd5b5061165a806100206000396000f3fe608060405234801561001057600080fd5b506004361061002b5760003560e01c8063c32e370e14610030575b600080fd5b61004361003e3660046111ba565b610059565b6040516100509190611283565b60405180910390f35b6000610063610f6a565b6040805180820182528751815260208089015181830152908352815160808101835287515181840190815288518301516060830152815282518084018452888301805151825251830151818401528183015283820152815180830183528651815286820151918101919091529082015260006100dd6103e2565b6040805180820190915260008082526020820152835151919250906000805160206116058339815191521161012d5760405162461bcd60e51b8152600401610124906112c5565b60405180910390fd5b8251602001516000805160206116058339815191521161015f5760405162461bcd60e51b81526004016101249061143b565b60208301515151600080516020611605833981519152116101925760405162461bcd60e51b81526004016101249061128e565b602083810151015151600080516020611605833981519152116101c75760405162461bcd60e51b815260040161012490611404565b602083810151510151600080516020611605833981519152116101fc5760405162461bcd60e51b815260040161012490611333565b6020838101518101510151600080516020611605833981519152116102335760405162461bcd60e51b8152600401610124906112fc565b604083015151600080516020611605833981519152116102655760405162461bcd60e51b81526004016101249061149e565b6000805160206116058339815191528360400151602001511061029a5760405162461bcd60e51b815260040161012490611396565b60005b600d81101561038e577f30644e72e131a029b85045b68181585d2833e84879b9709143e1f593f00000018682815181106102e757634e487b7160e01b600052603260045260246000fd5b60200260200101511061030c5760405162461bcd60e51b8152600401610124906113cd565b61037a826103758560800151846001610325919061154f565b600e811061034357634e487b7160e01b600052603260045260246000fd5b602002015189858151811061036857634e487b7160e01b600052603260045260246000fd5b6020026020010151610a99565b610b04565b9150806103868161159d565b91505061029d565b506080820151516103a0908290610b04565b90506103d66103b28460000151610b6b565b84602001518460000151856020015185876040015189604001518960600151610bf8565b98975050505050505050565b6103ea610f9c565b6040805180820182527f2d4d9aa7e302d9df41749d5507949d05dbea33fbb16c643b22f599a2be6df2e281527f14bedd503c37ceb061d8ec60209fe345ce89830a19230301f076caff004d19266020808301919091529083528151608080820184527f0967032fcbf776d1afc985f88877f182d38480a653f2decaa9794cbc3bf3060c8285019081527f0e187847ad4c798374d0d6732bf501847dd68bc0e071241e0213bc7fc13db7ab606080850191909152908352845180860186527f304cfbd1e08a704a99f5e847d93f8c3caafddec46b7a0d379da69a4d112346a781527f1739c1b1a457a8c7313123d24d2f9192f896b7c63eea05a9d57f06547ad0cec8818601528385015285840192909252835180820185527f198e9393920d483a7260bfb731fb5d25f1aa493335a9e71297e485b7aef312c28186018181527f1800deef121f1e76426a00665e5c4479674322d4f75edadd46debd5cd992f6ed838601819052908352865180880188527f090689d0585ff075ec9e99ad690c3395bc4b313370b38ef355acdadcd122975b8082527f12c85ea5db8c6deb4aab71808dcb408fe3d1e7690c43d37b4ce6cc0166fa7daa8289018190528589019290925289890194909452875180860189528089019384528087019290925291815286518088018852928352828601919091528085019190915282860152835180850185527f1be6e4410a518069c37ff25642a086a19b96bbc92a68e087e1267f6992121af781527f0beb60f5626e9384ce38ba8593c395afa50ddf073a07975db12616af42397aa881850152818601805191909152845180860186527e7c45db7c08949cd7fb0d3b25e003a2838367463e248a980789f37397ee88b981527f0ff306d370da44e699f2806454fecc2677f318949c54c150fbabdf48c2997c06818601528151850152845180860186527f2d02532559283257eb628b8ae30cc9751fcf2fc9404660cb44f5801ff1c50a9f81527f0af3a51a942de90c8a73b4795f7f24e34a08b514ba84fbd5d2b430098f7e94a7818601528151860152845180860186527f15790455ca0d9ac36934775091097462acd1c01eeb5dc3c400751feb82f4ab0381527f2a7fec5ef8d0f540590988b956cfb2c512ebf440bebdfbbd066e2930c6ba42de81860152815190930192909252835180850185527f2717de73cd65f3ebe4be1a99234cab9db7f91d2d197a51b9e22cbf53ff30191781527f080ef6d66658eab1b5251387a973d852890eaec1c1f21d1bed7278f637ce407681850152825190910152825180840184527f26ab027421d4104aae0896c3e3587bdd44f161ddb39db20beb5226e9709c51be81527f25fd4a4417fe505ba935dfb355f90b5412ec013c23de09ae2b20a21e54f8ca2681840152815160a00152825180840184527f303a9fc3299dbb54d8f485ca62549c823ef63e59ac97b29275c241e7df0d578281527f282ba096e89fef13be6750e8fd2efe2b2919174faa60a31114faa694d13b6fac81840152815160c00152825180840184527f0e448119026f9b996e34085b808be258754c71a9a778c22e855238251dffd79381527f2f5f7af4aa1c7c021c2b4a9fa69ba158a5fde9a70c259a4e75c8eb5168951f2681840152815160e00152825180840184527f288f6db6a8e2b0083eda7ea6ef963da5d671c81b81aabaa0934f12d06ef936a781527f12a6491fefd159d250b193deac29759179f8054fe26248dc4ae6dc7e333670408184015281516101000152825180840184527f0bd6f4dff652f5f82922a7d8a77e96b8c7683698d1cae441d9ca59403455618a81527f019ed92348c02c237c2d7fdf10feb7c946df4b0e768a728aa4f7c871cc1dcddd8184015281516101200152825180840184527f03aeb512b59d83508a2a61233ae9400835738b67db4a68b6291b93341bcc650681527f26c020eed07be999dababe6cb57b5a4645c96e8c95a78b7af69bc22ef179be628184015281516101400152825180840184527f04cf62bb6bd23c80f5dd4147fd10cdb8ce16e02f75848531595f1f4ce55df14c81527f0dff2f6f04f969a56f1238affe00e0c0c8f77e5fcea5bb1c6ba0c317eb2498c48184015281516101600152825180840184527f29f9bc26aceb82a1489c41959df711211bf31e11ff3dbbd9b200f4d5e9ef510981527f1c6c86369f899321cf8a1fc6e2e6bc5a8de10e470a39877261f444f234d9a8ff818401528151610180015282518084019093527f0fec0d75481f22d359febd3cc167dbc45a1e96fc54819caa972335aa43fd300c83527edfcbe11da770e51efd1aa04f1b6fb1e4684b8a74be973baf8d73f6b71266a291830191909152516101a0015290565b610aa1610fe3565b610aa9610ffd565b835181526020808501519082015260408101839052600060608360808460076107d05a03fa9050808015610adc57610ade565bfe5b5080610afc5760405162461bcd60e51b81526004016101249061136a565b505092915050565b610b0c610fe3565b610b1461101b565b8351815260208085015181830152835160408301528301516060808301919091526000908360c08460066107d05a03fa9050808015610adc575080610afc5760405162461bcd60e51b815260040161012490611472565b610b73610fe3565b8151158015610b8457506020820151155b15610ba357506040805180820190915260008082526020820152610bf3565b6040518060400160405280836000015181526020016000805160206116058339815191528460200151610bd691906115b8565b610bee90600080516020611605833981519152611586565b905290505b919050565b60408051608080820183528a825260208083018a90528284018890526060808401879052845192830185528b83528282018a9052828501889052820185905283516018808252610320820190955260009491859190839082016103008036833701905050905060005b6004811015610f10576000610c77826006611567565b9050858260048110610c9957634e487b7160e01b600052603260045260246000fd5b60200201515183610cab83600061154f565b81518110610cc957634e487b7160e01b600052603260045260246000fd5b602002602001018181525050858260048110610cf557634e487b7160e01b600052603260045260246000fd5b60200201516020015183826001610d0c919061154f565b81518110610d2a57634e487b7160e01b600052603260045260246000fd5b602002602001018181525050848260048110610d5657634e487b7160e01b600052603260045260246000fd5b6020020151515183610d6983600261154f565b81518110610d8757634e487b7160e01b600052603260045260246000fd5b602002602001018181525050848260048110610db357634e487b7160e01b600052603260045260246000fd5b6020020151516001602002015183610dcc83600361154f565b81518110610dea57634e487b7160e01b600052603260045260246000fd5b602002602001018181525050848260048110610e1657634e487b7160e01b600052603260045260246000fd5b602002015160200151600060028110610e3f57634e487b7160e01b600052603260045260246000fd5b602002015183610e5083600461154f565b81518110610e6e57634e487b7160e01b600052603260045260246000fd5b602002602001018181525050848260048110610e9a57634e487b7160e01b600052603260045260246000fd5b602002015160200151600160028110610ec357634e487b7160e01b600052603260045260246000fd5b602002015183610ed483600561154f565b81518110610ef257634e487b7160e01b600052603260045260246000fd5b60209081029190910101525080610f088161159d565b915050610c61565b50610f19611039565b6000602082602086026020860160086107d05a03fa9050808015610adc575080610f555760405162461bcd60e51b8152600401610124906114d5565b505115159d9c50505050505050505050505050565b6040518060600160405280610f7d610fe3565b8152602001610f8a611057565b8152602001610f97610fe3565b905290565b6040518060a00160405280610faf610fe3565b8152602001610fbc611057565b8152602001610fc9611057565b8152602001610fd6611057565b8152602001610f97611077565b604051806040016040528060008152602001600081525090565b60405180606001604052806003906020820280368337509192915050565b60405180608001604052806004906020820280368337509192915050565b60405180602001604052806001906020820280368337509192915050565b604051806040016040528061106a6110a5565b8152602001610f976110a5565b604051806101c00160405280600e905b61108f610fe3565b8152602001906001900390816110875790505090565b60405180604001604052806002906020820280368337509192915050565b600082601f8301126110d3578081fd5b6040516040810181811067ffffffffffffffff821117156110f6576110f66115ee565b806040525080838560408601111561110c578384fd5b835b600281101561112d57813583526020928301929091019060010161110e565b509195945050505050565b600082601f830112611148578081fd5b8135602067ffffffffffffffff821115611164576111646115ee565b808202611172828201611504565b83815282810190868401838801850189101561118c578687fd5b8693505b858410156111ae578035835260019390930192918401918401611190565b50979650505050505050565b60008060008061012085870312156111d0578384fd5b6111da86866110c3565b9350604086605f8701126111ec578384fd5b60026111ff6111fa8261152e565b611504565b8083890160c08a018b811115611213578889fd5b885b8581101561123b576112278d846110c3565b855260209094019391860191600101611215565b508298506112498c826110c3565b975050505050505061010085013567ffffffffffffffff81111561126b578182fd5b61127787828801611138565b91505092959194509250565b901515815260200190565b60208082526018908201527f76657269666965722d6258302d6774652d7072696d652d710000000000000000604082015260600190565b60208082526017908201527f76657269666965722d61582d6774652d7072696d652d71000000000000000000604082015260600190565b60208082526018908201527f76657269666965722d6259312d6774652d7072696d652d710000000000000000604082015260600190565b60208082526018908201527f76657269666965722d6258312d6774652d7072696d652d710000000000000000604082015260600190565b6020808252601290820152711c185a5c9a5b99cb5b5d5b0b59985a5b195960721b604082015260600190565b60208082526017908201527f76657269666965722d63592d6774652d7072696d652d71000000000000000000604082015260600190565b6020808252601f908201527f76657269666965722d6774652d736e61726b2d7363616c61722d6669656c6400604082015260600190565b60208082526018908201527f76657269666965722d6259302d6774652d7072696d652d710000000000000000604082015260600190565b60208082526017908201527f76657269666965722d61592d6774652d7072696d652d71000000000000000000604082015260600190565b6020808252601290820152711c185a5c9a5b99cb5859190b59985a5b195960721b604082015260600190565b60208082526017908201527f76657269666965722d63582d6774652d7072696d652d71000000000000000000604082015260600190565b6020808252601590820152741c185a5c9a5b99cb5bdc18dbd9194b59985a5b1959605a1b604082015260600190565b60405181810167ffffffffffffffff81118282101715611526576115266115ee565b604052919050565b600067ffffffffffffffff821115611548576115486115ee565b5060200290565b60008219821115611562576115626115d8565b500190565b6000816000190483118215151615611581576115816115d8565b500290565b600082821015611598576115986115d8565b500390565b60006000198214156115b1576115b16115d8565b5060010190565b6000826115d357634e487b7160e01b81526012600452602481fd5b500690565b634e487b7160e01b600052601160045260246000fd5b634e487b7160e01b600052604160045260246000fdfe30644e72e131a029b85045b68181585d97816a916871ca8d3c208c16d87cfd47a2646970667358221220015c9177956b0a7069fd3a5fc263bd5755ab1a3e5abf92a16cf516db7422c3b664736f6c63430008000033",
    "linkReferences": {},
    "deployedLinkReferences": {}
}