{
  "_format": "hh-sol-artifact-1",
  "contractName": "Hasher",
  "sourceName": "contracts/Hasher.sol",
  "abi": [
    {
      "inputs": [
        {
          "components": [
            {
              "internalType": "uint256",
              "name": "globalStateTree",
              "type": "uint256"
            },
            {
              "internalType": "uint256",
              "name": "epoch",
              "type": "uint256"
            },
            {
              "internalType": "uint256",
              "name": "epochKey",
              "type": "uint256"
            },
            {
              "internalType": "uint256[8]",
              "name": "proof",
              "type": "uint256[8]"
            }
          ],
          "internalType": "struct UnirepObjs.EpochKeyProof",
          "name": "_input",
          "type": "tuple"
        }
      ],
      "name": "hashEpochKeyProof",
      "outputs": [
        {
          "internalType": "bytes32",
          "name": "",
          "type": "bytes32"
        }
      ],
      "stateMutability": "pure",
      "type": "function"
    },
    {
      "inputs": [
        {
          "internalType": "uint256",
          "name": "_outputBlindedUserState",
          "type": "uint256"
        },
        {
          "internalType": "uint256",
          "name": "_outputBlindedHashChain",
          "type": "uint256"
        },
        {
          "internalType": "uint256",
          "name": "_inputBlindedUserState",
          "type": "uint256"
        },
        {
          "internalType": "uint256[8]",
          "name": "_proof",
          "type": "uint256[8]"
        }
      ],
      "name": "hashProcessAttestationsProof",
      "outputs": [
        {
          "internalType": "bytes32",
          "name": "",
          "type": "bytes32"
        }
      ],
      "stateMutability": "pure",
      "type": "function"
    },
    {
      "inputs": [
        {
          "components": [
            {
              "internalType": "uint256[]",
              "name": "repNullifiers",
              "type": "uint256[]"
            },
            {
              "internalType": "uint256",
              "name": "epoch",
              "type": "uint256"
            },
            {
              "internalType": "uint256",
              "name": "epochKey",
              "type": "uint256"
            },
            {
              "internalType": "uint256",
              "name": "globalStateTree",
              "type": "uint256"
            },
            {
              "internalType": "uint256",
              "name": "attesterId",
              "type": "uint256"
            },
            {
              "internalType": "uint256",
              "name": "proveReputationAmount",
              "type": "uint256"
            },
            {
              "internalType": "uint256",
              "name": "minRep",
              "type": "uint256"
            },
            {
              "internalType": "uint256",
              "name": "proveGraffiti",
              "type": "uint256"
            },
            {
              "internalType": "uint256",
              "name": "graffitiPreImage",
              "type": "uint256"
            },
            {
              "internalType": "uint256[8]",
              "name": "proof",
              "type": "uint256[8]"
            }
          ],
          "internalType": "struct UnirepObjs.ReputationProof",
          "name": "_input",
          "type": "tuple"
        }
      ],
      "name": "hashReputationProof",
      "outputs": [
        {
          "internalType": "bytes32",
          "name": "",
          "type": "bytes32"
        }
      ],
      "stateMutability": "pure",
      "type": "function"
    },
    {
      "inputs": [
        {
          "components": [
            {
              "internalType": "uint256",
              "name": "epoch",
              "type": "uint256"
            },
            {
              "internalType": "uint256",
              "name": "epochKey",
              "type": "uint256"
            },
            {
              "internalType": "uint256",
              "name": "globalStateTree",
              "type": "uint256"
            },
            {
              "internalType": "uint256",
              "name": "attesterId",
              "type": "uint256"
            },
            {
              "internalType": "uint256",
              "name": "userHasSignedUp",
              "type": "uint256"
            },
            {
              "internalType": "uint256[8]",
              "name": "proof",
              "type": "uint256[8]"
            }
          ],
          "internalType": "struct UnirepObjs.SignUpProof",
          "name": "_input",
          "type": "tuple"
        }
      ],
      "name": "hashSignUpProof",
      "outputs": [
        {
          "internalType": "bytes32",
          "name": "",
          "type": "bytes32"
        }
      ],
      "stateMutability": "pure",
      "type": "function"
    },
    {
      "inputs": [
        {
          "internalType": "uint256",
          "name": "_blindedUserState",
          "type": "uint256"
        },
        {
          "internalType": "uint256",
          "name": "_blindedHashChain",
          "type": "uint256"
        },
        {
          "internalType": "uint256",
          "name": "_globalStateTree",
          "type": "uint256"
        },
        {
          "internalType": "uint256[8]",
          "name": "_proof",
          "type": "uint256[8]"
        }
      ],
      "name": "hashStartTransitionProof",
      "outputs": [
        {
          "internalType": "bytes32",
          "name": "",
          "type": "bytes32"
        }
      ],
      "stateMutability": "pure",
      "type": "function"
    },
    {
      "inputs": [
        {
          "components": [
            {
              "internalType": "uint256",
              "name": "newGlobalStateTreeLeaf",
              "type": "uint256"
            },
            {
              "internalType": "uint256[]",
              "name": "epkNullifiers",
              "type": "uint256[]"
            },
            {
              "internalType": "uint256",
              "name": "transitionFromEpoch",
              "type": "uint256"
            },
            {
              "internalType": "uint256[]",
              "name": "blindedUserStates",
              "type": "uint256[]"
            },
            {
              "internalType": "uint256",
              "name": "fromGlobalStateTree",
              "type": "uint256"
            },
            {
              "internalType": "uint256[]",
              "name": "blindedHashChains",
              "type": "uint256[]"
            },
            {
              "internalType": "uint256",
              "name": "fromEpochTree",
              "type": "uint256"
            },
            {
              "internalType": "uint256[8]",
              "name": "proof",
              "type": "uint256[8]"
            }
          ],
          "internalType": "struct UnirepObjs.UserTransitionProof",
          "name": "_input",
          "type": "tuple"
        }
      ],
      "name": "hashUserStateTransitionProof",
      "outputs": [
        {
          "internalType": "bytes32",
          "name": "",
          "type": "bytes32"
        }
      ],
      "stateMutability": "pure",
      "type": "function"
    }
  ],
  "bytecode": "0x608060405234801561001057600080fd5b50610874806100206000396000f3fe608060405234801561001057600080fd5b50600436106100625760003560e01c806305d9ab82146100675780639e2e79dc14610090578063a14a9fe2146100a3578063ad944e47146100b6578063cd5032e2146100c9578063e79e23e9146100dc575b600080fd5b61007a61007536600461032b565b6100ef565b60405161008791906107f5565b60405180910390f35b61007a61009e36600461061e565b610135565b61007a6100b13660046104ec565b61016e565b61007a6100c4366004610396565b6101a8565b61007a6100d736600461046d565b6101ee565b61007a6100ea3660046105d9565b610219565b600081600001518260200151836040015184606001516040516020016101189493929190610798565b604051602081830303815290604052805190602001209050919050565b60008484848460405160200161014e9493929190610798565b604051602081830303815290604052805190602001209050949350505050565b80516020808301516040808501516060860151608087015160a088015160c089015160e08a01519551600099610118999098979101610714565b80516020808301516040808501516060860151608087015160a088015160c089015160e08a01516101008b01516101208c0151975160009b6101189b909a9991016106b9565b8051602080830151604080850151606086015160a087015192516000966101189690959491016107c3565b60008484848460405160200161014e949392919061076c565b600082601f830112610242578081fd5b61010060405181810181811067ffffffffffffffff8211171561026757610267610828565b604052808483810187101561027a578485fd5b8493505b600884101561029e5780358252600193909301926020918201910161027e565b509095945050505050565b600082601f8301126102b9578081fd5b8135602067ffffffffffffffff8211156102d5576102d5610828565b8082026102e38282016107fe565b8381528281019086840183880185018910156102fd578687fd5b8693505b8584101561031f578035835260019390930192918401918401610301565b50979650505050505050565b6000610160828403121561033d578081fd5b6040516080810181811067ffffffffffffffff8211171561036057610360610828565b806040525082358152602083013560208201526040830135604082015261038a8460608501610232565b60608201529392505050565b6000602082840312156103a7578081fd5b813567ffffffffffffffff808211156103be578283fd5b9083019061022082860312156103d2578283fd5b6103dd6101406107fe565b8235828111156103eb578485fd5b6103f7878286016102a9565b8252506020830135602082015260408301356040820152606083013560608201526080830135608082015260a083013560a082015260c083013560c082015260e083013560e082015261010091508183013582820152610120915061045e86838501610232565b91810191909152949350505050565b60006101a0828403121561047f578081fd5b60405160c0810181811067ffffffffffffffff821117156104a2576104a2610828565b806040525082358152602083013560208201526040830135604082015260608301356060820152608083013560808201526104e08460a08501610232565b60a08201529392505050565b6000602082840312156104fd578081fd5b813567ffffffffffffffff80821115610514578283fd5b908301906101e08286031215610528578283fd5b6105336101006107fe565b82358152602083013582811115610548578485fd5b610554878286016102a9565b60208301525060408301356040820152606083013582811115610575578485fd5b610581878286016102a9565b6060830152506080830135608082015260a0830135828111156105a2578485fd5b6105ae878286016102a9565b60a08301525060c083013560c08201526105cb8660e08501610232565b60e082015295945050505050565b6000806000806101608086880312156105f0578384fd5b853594506020860135935060408601359250868187011115610610578182fd5b509295919450926060019150565b6000806000806101608587031215610634578384fd5b8435935060208501359250604085013591506106538660608701610232565b905092959194509250565b8060005b6008811015610681578151845260209384019390910190600101610662565b50505050565b600081516020808401835b838110156106ae57815187529582019590820190600101610692565b509495945050505050565b60006106c5828d610687565b8b81528a60208201528960408201528860608201528760808201528660a08201528560c08201528460e082015261070061010082018561065e565b610200019c9b505050505050505050505050565b6000898252610726602083018a610687565b8881526107366020820189610687565b90508681526107486020820187610687565b905084815261075a602082018561065e565b610120019a9950505050505050505050565b600085825284602083015283604083015261010083606084013761016091909101908152949350505050565b60008582528460208301528360408301526107b6606083018461065e565b5061016001949350505050565b60008682528560208301528460408301528360608301526107e7608083018461065e565b506101800195945050505050565b90815260200190565b60405181810167ffffffffffffffff8111828210171561082057610820610828565b604052919050565b634e487b7160e01b600052604160045260246000fdfea2646970667358221220c8a68c606c07c233cee95015bf68cfe20de875a57d8f042b2c79f76e0824427764736f6c63430008000033",
  "linkReferences": {},
  "deployedLinkReferences": {}
}