{
  "_format": "hh-sol-artifact-1",
  "contractName": "Unirep",
  "sourceName": "contracts/Unirep.sol",
  "abi": [
    {
      "inputs": [
        {
          "components": [
            {
              "internalType": "uint8",
              "name": "globalStateTreeDepth",
              "type": "uint8"
            },
            {
              "internalType": "uint8",
              "name": "userStateTreeDepth",
              "type": "uint8"
            },
            {
              "internalType": "uint8",
              "name": "nullifierTreeDepth",
              "type": "uint8"
            },
            {
              "internalType": "uint8",
              "name": "epochTreeDepth",
              "type": "uint8"
            }
          ],
          "internalType": "struct UnirepParameters.TreeDepths",
          "name": "_treeDepths",
          "type": "tuple"
        },
        {
          "components": [
            {
              "internalType": "uint256",
              "name": "maxUsers",
              "type": "uint256"
            }
          ],
          "internalType": "struct UnirepParameters.MaxValues",
          "name": "_maxValues",
          "type": "tuple"
        },
        {
          "internalType": "contract EpochKeyValidityVerifier",
          "name": "_epkValidityVerifier",
          "type": "address"
        },
        {
          "internalType": "contract StartTransitionVerifier",
          "name": "_startTransitionVerifier",
          "type": "address"
        },
        {
          "internalType": "contract ProcessAttestationsVerifier",
          "name": "_processAttestationsVerifier",
          "type": "address"
        },
        {
          "internalType": "contract UserStateTransitionVerifier",
          "name": "_userStateTransitionVerifier",
          "type": "address"
        },
        {
          "internalType": "contract ReputationVerifier",
          "name": "_reputationVerifier",
          "type": "address"
        },
        {
          "internalType": "contract UserSignUpVerifier",
          "name": "_userSignUpVerifier",
          "type": "address"
        },
        {
          "internalType": "uint8",
          "name": "_numEpochKeyNoncePerEpoch",
          "type": "uint8"
        },
        {
          "internalType": "uint8",
          "name": "_maxReputationBudget",
          "type": "uint8"
        },
        {
          "internalType": "uint256",
          "name": "_epochLength",
          "type": "uint256"
        },
        {
          "internalType": "uint256",
          "name": "_attestingFee",
          "type": "uint256"
        }
      ],
      "stateMutability": "nonpayable",
      "type": "constructor"
    },
    {
      "anonymous": false,
      "inputs": [
        {
          "indexed": true,
          "internalType": "uint256",
          "name": "_epoch",
          "type": "uint256"
        },
        {
          "indexed": true,
          "internalType": "uint256",
          "name": "_epochKey",
          "type": "uint256"
        },
        {
          "indexed": true,
          "internalType": "address",
          "name": "_attester",
          "type": "address"
        },
        {
          "components": [
            {
              "internalType": "uint256",
              "name": "attesterId",
              "type": "uint256"
            },
            {
              "internalType": "uint256",
              "name": "posRep",
              "type": "uint256"
            },
            {
              "internalType": "uint256",
              "name": "negRep",
              "type": "uint256"
            },
            {
              "internalType": "uint256",
              "name": "graffiti",
              "type": "uint256"
            },
            {
              "internalType": "uint256",
              "name": "signUp",
              "type": "uint256"
            }
          ],
          "indexed": false,
          "internalType": "struct DomainObjs.Attestation",
          "name": "attestation",
          "type": "tuple"
        }
      ],
      "name": "AttestationSubmitted",
      "type": "event"
    },
    {
      "anonymous": false,
      "inputs": [
        {
          "indexed": true,
          "internalType": "uint256",
          "name": "_epoch",
          "type": "uint256"
        }
      ],
      "name": "EpochEnded",
      "type": "event"
    },
    {
      "anonymous": false,
      "inputs": [
        {
          "indexed": true,
          "internalType": "uint256",
          "name": "_epoch",
          "type": "uint256"
        },
        {
          "indexed": false,
          "internalType": "uint256",
          "name": "_leafIndex",
          "type": "uint256"
        },
        {
          "indexed": false,
          "internalType": "uint256",
          "name": "_hashedLeaf",
          "type": "uint256"
        },
        {
          "indexed": false,
          "internalType": "uint256",
          "name": "_attesterId",
          "type": "uint256"
        },
        {
          "indexed": false,
          "internalType": "uint256",
          "name": "_airdropAmount",
          "type": "uint256"
        }
      ],
      "name": "NewGSTLeafInserted",
      "type": "event"
    },
    {
      "anonymous": false,
      "inputs": [
        {
          "indexed": true,
          "internalType": "uint256",
          "name": "_outputBlindedUserState",
          "type": "uint256"
        },
        {
          "indexed": true,
          "internalType": "uint256",
          "name": "_outputBlindedHashChain",
          "type": "uint256"
        },
        {
          "indexed": false,
          "internalType": "uint256",
          "name": "_inputBlindedUserState",
          "type": "uint256"
        },
        {
          "indexed": false,
          "internalType": "uint256[8]",
          "name": "_proof",
          "type": "uint256[8]"
        }
      ],
      "name": "ProcessedAttestations",
      "type": "event"
    },
    {
      "anonymous": false,
      "inputs": [
        {
          "indexed": true,
          "internalType": "uint256",
          "name": "_epoch",
          "type": "uint256"
        },
        {
          "components": [
            {
              "internalType": "uint256",
              "name": "epochKey",
              "type": "uint256"
            },
            {
              "internalType": "uint256",
              "name": "globalStateTree",
              "type": "uint256"
            },
            {
              "internalType": "uint256",
              "name": "attesterId",
              "type": "uint256"
            },
            {
              "internalType": "uint256",
              "name": "proveReputationAmount",
              "type": "uint256"
            },
            {
              "internalType": "uint256",
              "name": "minRep",
              "type": "uint256"
            },
            {
              "internalType": "uint256",
              "name": "proveGraffiti",
              "type": "uint256"
            },
            {
              "internalType": "uint256",
              "name": "graffitiPreImage",
              "type": "uint256"
            },
            {
              "internalType": "uint256[8]",
              "name": "proof",
              "type": "uint256[8]"
            }
          ],
          "indexed": false,
          "internalType": "struct UnirepParameters.ReputationProofRelated",
          "name": "reputationProofData",
          "type": "tuple"
        },
        {
          "indexed": false,
          "internalType": "uint256[]",
          "name": "reputationNullifiers",
          "type": "uint256[]"
        }
      ],
      "name": "ReputationNullifierSubmitted",
      "type": "event"
    },
    {
      "anonymous": false,
      "inputs": [
        {
          "indexed": false,
          "internalType": "string",
          "name": "_event",
          "type": "string"
        }
      ],
      "name": "Sequencer",
      "type": "event"
    },
    {
      "anonymous": false,
      "inputs": [
        {
          "indexed": true,
          "internalType": "uint256",
          "name": "_blindedUserState",
          "type": "uint256"
        },
        {
          "indexed": true,
          "internalType": "uint256",
          "name": "_blindedHashChain",
          "type": "uint256"
        },
        {
          "indexed": true,
          "internalType": "uint256",
          "name": "_GSTRoot",
          "type": "uint256"
        },
        {
          "indexed": false,
          "internalType": "uint256[8]",
          "name": "_proof",
          "type": "uint256[8]"
        }
      ],
      "name": "StartedTransition",
      "type": "event"
    },
    {
      "anonymous": false,
      "inputs": [
        {
          "indexed": true,
          "internalType": "uint256",
          "name": "_toEpoch",
          "type": "uint256"
        },
        {
          "indexed": false,
          "internalType": "uint256",
          "name": "_leafIndex",
          "type": "uint256"
        },
        {
          "components": [
            {
              "internalType": "uint256",
              "name": "fromEpoch",
              "type": "uint256"
            },
            {
              "internalType": "uint256",
              "name": "fromGlobalStateTree",
              "type": "uint256"
            },
            {
              "internalType": "uint256",
              "name": "fromEpochTree",
              "type": "uint256"
            },
            {
              "internalType": "uint256",
              "name": "newGlobalStateTreeLeaf",
              "type": "uint256"
            },
            {
              "internalType": "uint256[8]",
              "name": "proof",
              "type": "uint256[8]"
            },
            {
              "internalType": "uint256[]",
              "name": "blindedUserStates",
              "type": "uint256[]"
            },
            {
              "internalType": "uint256[]",
              "name": "blindedHashChains",
              "type": "uint256[]"
            },
            {
              "internalType": "uint256[]",
              "name": "epkNullifiers",
              "type": "uint256[]"
            }
          ],
          "indexed": false,
          "internalType": "struct UnirepParameters.UserTransitionedRelated",
          "name": "userTransitionedData",
          "type": "tuple"
        }
      ],
      "name": "UserStateTransitioned",
      "type": "event"
    },
    {
      "inputs": [
        {
          "internalType": "address",
          "name": "",
          "type": "address"
        }
      ],
      "name": "airdropAmount",
      "outputs": [
        {
          "internalType": "uint256",
          "name": "",
          "type": "uint256"
        }
      ],
      "stateMutability": "view",
      "type": "function"
    },
    {
      "inputs": [],
      "name": "attesterSignUp",
      "outputs": [],
      "stateMutability": "nonpayable",
      "type": "function"
    },
    {
      "inputs": [
        {
          "internalType": "address",
          "name": "attester",
          "type": "address"
        },
        {
          "internalType": "bytes",
          "name": "signature",
          "type": "bytes"
        }
      ],
      "name": "attesterSignUpViaRelayer",
      "outputs": [],
      "stateMutability": "nonpayable",
      "type": "function"
    },
    {
      "inputs": [
        {
          "internalType": "address",
          "name": "",
          "type": "address"
        }
      ],
      "name": "attesters",
      "outputs": [
        {
          "internalType": "uint256",
          "name": "",
          "type": "uint256"
        }
      ],
      "stateMutability": "view",
      "type": "function"
    },
    {
      "inputs": [],
      "name": "attestingFee",
      "outputs": [
        {
          "internalType": "uint256",
          "name": "",
          "type": "uint256"
        }
      ],
      "stateMutability": "view",
      "type": "function"
    },
    {
      "inputs": [
        {
          "internalType": "uint256",
          "name": "numEpochKeysToSeal",
          "type": "uint256"
        }
      ],
      "name": "beginEpochTransition",
      "outputs": [],
      "stateMutability": "nonpayable",
      "type": "function"
    },
    {
      "inputs": [],
      "name": "burnAttestingFee",
      "outputs": [],
      "stateMutability": "nonpayable",
      "type": "function"
    },
    {
      "inputs": [
        {
          "internalType": "uint256",
          "name": "_leafIndex",
          "type": "uint256"
        },
        {
          "internalType": "uint256",
          "name": "_leafValue",
          "type": "uint256"
        }
      ],
      "name": "calcAirdropUSTRoot",
      "outputs": [
        {
          "internalType": "uint256",
          "name": "",
          "type": "uint256"
        }
      ],
      "stateMutability": "view",
      "type": "function"
    },
    {
      "inputs": [],
      "name": "collectEpochTransitionCompensation",
      "outputs": [],
      "stateMutability": "nonpayable",
      "type": "function"
    },
    {
      "inputs": [],
      "name": "collectedAttestingFee",
      "outputs": [
        {
          "internalType": "uint256",
          "name": "",
          "type": "uint256"
        }
      ],
      "stateMutability": "view",
      "type": "function"
    },
    {
      "inputs": [
        {
          "internalType": "uint8",
          "name": "_treeLevels",
          "type": "uint8"
        },
        {
          "internalType": "uint256",
          "name": "_zeroValue",
          "type": "uint256"
        }
      ],
      "name": "computeEmptyRoot",
      "outputs": [
        {
          "internalType": "uint256",
          "name": "",
          "type": "uint256"
        }
      ],
      "stateMutability": "pure",
      "type": "function"
    },
    {
      "inputs": [
        {
          "internalType": "uint8",
          "name": "_treeLevels",
          "type": "uint8"
        },
        {
          "internalType": "uint256",
          "name": "_leafIndex",
          "type": "uint256"
        },
        {
          "internalType": "uint256",
          "name": "_leafValue",
          "type": "uint256"
        },
        {
          "internalType": "uint256",
          "name": "_zeroValue",
          "type": "uint256"
        }
      ],
      "name": "computeOneNonZeroLeafRoot",
      "outputs": [
        {
          "internalType": "uint256",
          "name": "",
          "type": "uint256"
        }
      ],
      "stateMutability": "pure",
      "type": "function"
    },
    {
      "inputs": [],
      "name": "currentEpoch",
      "outputs": [
        {
          "internalType": "uint256",
          "name": "",
          "type": "uint256"
        }
      ],
      "stateMutability": "view",
      "type": "function"
    },
    {
      "inputs": [],
      "name": "emptyGlobalStateTreeRoot",
      "outputs": [
        {
          "internalType": "uint256",
          "name": "",
          "type": "uint256"
        }
      ],
      "stateMutability": "view",
      "type": "function"
    },
    {
      "inputs": [],
      "name": "emptyUserStateRoot",
      "outputs": [
        {
          "internalType": "uint256",
          "name": "",
          "type": "uint256"
        }
      ],
      "stateMutability": "view",
      "type": "function"
    },
    {
      "inputs": [
        {
          "internalType": "uint256",
          "name": "",
          "type": "uint256"
        }
      ],
      "name": "epochKeyHashchain",
      "outputs": [
        {
          "internalType": "uint256",
          "name": "",
          "type": "uint256"
        }
      ],
      "stateMutability": "view",
      "type": "function"
    },
    {
      "inputs": [],
      "name": "epochLength",
      "outputs": [
        {
          "internalType": "uint256",
          "name": "",
          "type": "uint256"
        }
      ],
      "stateMutability": "view",
      "type": "function"
    },
    {
      "inputs": [
        {
          "internalType": "address",
          "name": "",
          "type": "address"
        }
      ],
      "name": "epochTransitionCompensation",
      "outputs": [
        {
          "internalType": "uint256",
          "name": "",
          "type": "uint256"
        }
      ],
      "stateMutability": "view",
      "type": "function"
    },
    {
      "inputs": [
        {
          "internalType": "uint256",
          "name": "epoch",
          "type": "uint256"
        },
        {
          "internalType": "uint256",
          "name": "index",
          "type": "uint256"
        }
      ],
      "name": "getEpochKey",
      "outputs": [
        {
          "internalType": "uint256",
          "name": "",
          "type": "uint256"
        }
      ],
      "stateMutability": "view",
      "type": "function"
    },
    {
      "inputs": [
        {
          "internalType": "uint256",
          "name": "epoch",
          "type": "uint256"
        }
      ],
      "name": "getEpochTreeLeaves",
      "outputs": [
        {
          "internalType": "uint256[]",
          "name": "epochKeyList",
          "type": "uint256[]"
        },
        {
          "internalType": "uint256[]",
          "name": "epochKeyHashChainList",
          "type": "uint256[]"
        }
      ],
      "stateMutability": "view",
      "type": "function"
    },
    {
      "inputs": [
        {
          "internalType": "uint256",
          "name": "epoch",
          "type": "uint256"
        }
      ],
      "name": "getNumEpochKey",
      "outputs": [
        {
          "internalType": "uint256",
          "name": "",
          "type": "uint256"
        }
      ],
      "stateMutability": "view",
      "type": "function"
    },
    {
      "inputs": [
        {
          "internalType": "uint256",
          "name": "epoch",
          "type": "uint256"
        }
      ],
      "name": "getNumSealedEpochKey",
      "outputs": [
        {
          "internalType": "uint256",
          "name": "",
          "type": "uint256"
        }
      ],
      "stateMutability": "view",
      "type": "function"
    },
    {
      "inputs": [
        {
          "internalType": "uint256",
          "name": "",
          "type": "uint256"
        }
      ],
      "name": "hasUserSignedUp",
      "outputs": [
        {
          "internalType": "bool",
          "name": "",
          "type": "bool"
        }
      ],
      "stateMutability": "view",
      "type": "function"
    },
    {
      "inputs": [
        {
          "internalType": "uint256[5]",
          "name": "array",
          "type": "uint256[5]"
        }
      ],
      "name": "hash5",
      "outputs": [
        {
          "internalType": "uint256",
          "name": "",
          "type": "uint256"
        }
      ],
      "stateMutability": "pure",
      "type": "function"
    },
    {
      "inputs": [
        {
          "internalType": "uint256",
          "name": "airdropPosRep",
          "type": "uint256"
        }
      ],
      "name": "hashAirdroppedLeaf",
      "outputs": [
        {
          "internalType": "uint256",
          "name": "",
          "type": "uint256"
        }
      ],
      "stateMutability": "pure",
      "type": "function"
    },
    {
      "inputs": [
        {
          "internalType": "uint256",
          "name": "_left",
          "type": "uint256"
        },
        {
          "internalType": "uint256",
          "name": "_right",
          "type": "uint256"
        }
      ],
      "name": "hashLeftRight",
      "outputs": [
        {
          "internalType": "uint256",
          "name": "",
          "type": "uint256"
        }
      ],
      "stateMutability": "pure",
      "type": "function"
    },
    {
      "inputs": [
        {
          "components": [
            {
              "internalType": "uint256",
              "name": "identityCommitment",
              "type": "uint256"
            },
            {
              "internalType": "uint256",
              "name": "userStateRoot",
              "type": "uint256"
            }
          ],
          "internalType": "struct DomainObjs.StateLeaf",
          "name": "_stateLeaf",
          "type": "tuple"
        }
      ],
      "name": "hashStateLeaf",
      "outputs": [
        {
          "internalType": "uint256",
          "name": "",
          "type": "uint256"
        }
      ],
      "stateMutability": "pure",
      "type": "function"
    },
    {
      "inputs": [],
      "name": "hashedBlankStateLeaf",
      "outputs": [
        {
          "internalType": "uint256",
          "name": "",
          "type": "uint256"
        }
      ],
      "stateMutability": "view",
      "type": "function"
    },
    {
      "inputs": [
        {
          "internalType": "uint256",
          "name": "",
          "type": "uint256"
        }
      ],
      "name": "isEpochKeyHashChainSealed",
      "outputs": [
        {
          "internalType": "bool",
          "name": "",
          "type": "bool"
        }
      ],
      "stateMutability": "view",
      "type": "function"
    },
    {
      "inputs": [],
      "name": "latestEpochTransitionTime",
      "outputs": [
        {
          "internalType": "uint256",
          "name": "",
          "type": "uint256"
        }
      ],
      "stateMutability": "view",
      "type": "function"
    },
    {
      "inputs": [],
      "name": "maxReputationBudget",
      "outputs": [
        {
          "internalType": "uint8",
          "name": "",
          "type": "uint8"
        }
      ],
      "stateMutability": "view",
      "type": "function"
    },
    {
      "inputs": [],
      "name": "maxUsers",
      "outputs": [
        {
          "internalType": "uint256",
          "name": "",
          "type": "uint256"
        }
      ],
      "stateMutability": "view",
      "type": "function"
    },
    {
      "inputs": [],
      "name": "nextAttesterId",
      "outputs": [
        {
          "internalType": "uint256",
          "name": "",
          "type": "uint256"
        }
      ],
      "stateMutability": "view",
      "type": "function"
    },
    {
      "inputs": [],
      "name": "numEpochKeyNoncePerEpoch",
      "outputs": [
        {
          "internalType": "uint8",
          "name": "",
          "type": "uint8"
        }
      ],
      "stateMutability": "view",
      "type": "function"
    },
    {
      "inputs": [],
      "name": "numUserSignUps",
      "outputs": [
        {
          "internalType": "uint256",
          "name": "",
          "type": "uint256"
        }
      ],
      "stateMutability": "view",
      "type": "function"
    },
    {
      "inputs": [
        {
          "internalType": "uint256",
          "name": "_outputBlindedUserState",
          "type": "uint256"
        },
        {
          "internalType": "uint256",
          "name": "_outputBlindedHashChain",
          "type": "uint256"
        },
        {
          "internalType": "uint256",
          "name": "_inputBlindedUserState",
          "type": "uint256"
        },
        {
          "internalType": "uint256[8]",
          "name": "_proof",
          "type": "uint256[8]"
        }
      ],
      "name": "processAttestations",
      "outputs": [],
      "stateMutability": "nonpayable",
      "type": "function"
    },
    {
      "inputs": [
        {
          "internalType": "uint256",
          "name": "_airdropAmount",
          "type": "uint256"
        }
      ],
      "name": "setAirdropAmount",
      "outputs": [],
      "stateMutability": "nonpayable",
      "type": "function"
    },
    {
      "inputs": [
        {
          "internalType": "uint256",
          "name": "_blindedUserState",
          "type": "uint256"
        },
        {
          "internalType": "uint256",
          "name": "_blindedHashChain",
          "type": "uint256"
        },
        {
          "internalType": "uint256",
          "name": "_GSTRoot",
          "type": "uint256"
        },
        {
          "internalType": "uint256[8]",
          "name": "_proof",
          "type": "uint256[8]"
        }
      ],
      "name": "startUserStateTransition",
      "outputs": [],
      "stateMutability": "nonpayable",
      "type": "function"
    },
    {
      "inputs": [
        {
          "components": [
            {
              "internalType": "uint256",
              "name": "attesterId",
              "type": "uint256"
            },
            {
              "internalType": "uint256",
              "name": "posRep",
              "type": "uint256"
            },
            {
              "internalType": "uint256",
              "name": "negRep",
              "type": "uint256"
            },
            {
              "internalType": "uint256",
              "name": "graffiti",
              "type": "uint256"
            },
            {
              "internalType": "uint256",
              "name": "signUp",
              "type": "uint256"
            }
          ],
          "internalType": "struct DomainObjs.Attestation",
          "name": "attestation",
          "type": "tuple"
        },
        {
          "internalType": "uint256",
          "name": "epochKey",
          "type": "uint256"
        }
      ],
      "name": "submitAttestation",
      "outputs": [],
      "stateMutability": "payable",
      "type": "function"
    },
    {
      "inputs": [
        {
          "internalType": "address",
          "name": "attester",
          "type": "address"
        },
        {
          "internalType": "bytes",
          "name": "signature",
          "type": "bytes"
        },
        {
          "components": [
            {
              "internalType": "uint256",
              "name": "attesterId",
              "type": "uint256"
            },
            {
              "internalType": "uint256",
              "name": "posRep",
              "type": "uint256"
            },
            {
              "internalType": "uint256",
              "name": "negRep",
              "type": "uint256"
            },
            {
              "internalType": "uint256",
              "name": "graffiti",
              "type": "uint256"
            },
            {
              "internalType": "uint256",
              "name": "signUp",
              "type": "uint256"
            }
          ],
          "internalType": "struct DomainObjs.Attestation",
          "name": "attestation",
          "type": "tuple"
        },
        {
          "internalType": "uint256",
          "name": "epochKey",
          "type": "uint256"
        }
      ],
      "name": "submitAttestationViaRelayer",
      "outputs": [],
      "stateMutability": "payable",
      "type": "function"
    },
    {
      "inputs": [
        {
          "internalType": "uint256[]",
          "name": "_repNullifiers",
          "type": "uint256[]"
        },
        {
          "internalType": "uint256",
          "name": "_epoch",
          "type": "uint256"
        },
        {
          "internalType": "uint256",
          "name": "_epochKey",
          "type": "uint256"
        },
        {
          "internalType": "uint256",
          "name": "_globalStateTree",
          "type": "uint256"
        },
        {
          "internalType": "uint256",
          "name": "_attesterId",
          "type": "uint256"
        },
        {
          "internalType": "uint256",
          "name": "_proveReputationAmount",
          "type": "uint256"
        },
        {
          "internalType": "uint256",
          "name": "_minRep",
          "type": "uint256"
        },
        {
          "internalType": "uint256",
          "name": "_proveGraffiti",
          "type": "uint256"
        },
        {
          "internalType": "uint256",
          "name": "_graffitiPreImage",
          "type": "uint256"
        },
        {
          "internalType": "uint256[8]",
          "name": "_proof",
          "type": "uint256[8]"
        }
      ],
      "name": "submitReputaionNullifiers",
      "outputs": [],
      "stateMutability": "nonpayable",
      "type": "function"
    },
    {
      "inputs": [],
      "name": "treeDepths",
      "outputs": [
        {
          "internalType": "uint8",
          "name": "globalStateTreeDepth",
          "type": "uint8"
        },
        {
          "internalType": "uint8",
          "name": "userStateTreeDepth",
          "type": "uint8"
        },
        {
          "internalType": "uint8",
          "name": "nullifierTreeDepth",
          "type": "uint8"
        },
        {
          "internalType": "uint8",
          "name": "epochTreeDepth",
          "type": "uint8"
        }
      ],
      "stateMutability": "view",
      "type": "function"
    },
    {
      "inputs": [
        {
          "internalType": "uint256[8]",
          "name": "_proof",
          "type": "uint256[8]"
        }
      ],
      "name": "unpackProof",
      "outputs": [
        {
          "internalType": "uint256[2]",
          "name": "",
          "type": "uint256[2]"
        },
        {
          "internalType": "uint256[2][2]",
          "name": "",
          "type": "uint256[2][2]"
        },
        {
          "internalType": "uint256[2]",
          "name": "",
          "type": "uint256[2]"
        }
      ],
      "stateMutability": "pure",
      "type": "function"
    },
    {
      "inputs": [
        {
          "internalType": "uint256",
          "name": "_newGlobalStateTreeLeaf",
          "type": "uint256"
        },
        {
          "internalType": "uint256[]",
          "name": "_epkNullifiers",
          "type": "uint256[]"
        },
        {
          "internalType": "uint256[]",
          "name": "_blindedUserStates",
          "type": "uint256[]"
        },
        {
          "internalType": "uint256[]",
          "name": "_blindedHashChains",
          "type": "uint256[]"
        },
        {
          "internalType": "uint256",
          "name": "_transitionFromEpoch",
          "type": "uint256"
        },
        {
          "internalType": "uint256",
          "name": "_fromGlobalStateTree",
          "type": "uint256"
        },
        {
          "internalType": "uint256",
          "name": "_fromEpochTree",
          "type": "uint256"
        },
        {
          "internalType": "uint256[8]",
          "name": "_proof",
          "type": "uint256[8]"
        }
      ],
      "name": "updateUserStateRoot",
      "outputs": [],
      "stateMutability": "nonpayable",
      "type": "function"
    },
    {
      "inputs": [
        {
          "internalType": "uint256",
          "name": "_identityCommitment",
          "type": "uint256"
        }
      ],
      "name": "userSignUp",
      "outputs": [],
      "stateMutability": "nonpayable",
      "type": "function"
    },
    {
      "inputs": [
        {
          "internalType": "uint256",
          "name": "_globalStateTree",
          "type": "uint256"
        },
        {
          "internalType": "uint256",
          "name": "_epoch",
          "type": "uint256"
        },
        {
          "internalType": "uint256",
          "name": "_epochKey",
          "type": "uint256"
        },
        {
          "internalType": "uint256[8]",
          "name": "_proof",
          "type": "uint256[8]"
        }
      ],
      "name": "verifyEpochKeyValidity",
      "outputs": [
        {
          "internalType": "bool",
          "name": "",
          "type": "bool"
        }
      ],
      "stateMutability": "view",
      "type": "function"
    },
    {
      "inputs": [
        {
          "internalType": "uint256",
          "name": "_outputBlindedUserState",
          "type": "uint256"
        },
        {
          "internalType": "uint256",
          "name": "_outputBlindedHashChain",
          "type": "uint256"
        },
        {
          "internalType": "uint256",
          "name": "_inputBlindedUserState",
          "type": "uint256"
        },
        {
          "internalType": "uint256[8]",
          "name": "_proof",
          "type": "uint256[8]"
        }
      ],
      "name": "verifyProcessAttestationProof",
      "outputs": [
        {
          "internalType": "bool",
          "name": "",
          "type": "bool"
        }
      ],
      "stateMutability": "view",
      "type": "function"
    },
    {
      "inputs": [
        {
          "internalType": "uint256[]",
          "name": "_repNullifiers",
          "type": "uint256[]"
        },
        {
          "internalType": "uint256",
          "name": "_epoch",
          "type": "uint256"
        },
        {
          "internalType": "uint256",
          "name": "_epochKey",
          "type": "uint256"
        },
        {
          "internalType": "uint256",
          "name": "_globalStateTree",
          "type": "uint256"
        },
        {
          "internalType": "uint256",
          "name": "_attesterId",
          "type": "uint256"
        },
        {
          "internalType": "uint256",
          "name": "_proveReputationAmount",
          "type": "uint256"
        },
        {
          "internalType": "uint256",
          "name": "_minRep",
          "type": "uint256"
        },
        {
          "internalType": "uint256",
          "name": "_proveGraffiti",
          "type": "uint256"
        },
        {
          "internalType": "uint256",
          "name": "_graffitiPreImage",
          "type": "uint256"
        },
        {
          "internalType": "uint256[8]",
          "name": "_proof",
          "type": "uint256[8]"
        }
      ],
      "name": "verifyReputation",
      "outputs": [
        {
          "internalType": "bool",
          "name": "",
          "type": "bool"
        }
      ],
      "stateMutability": "view",
      "type": "function"
    },
    {
      "inputs": [
        {
          "internalType": "uint256",
          "name": "_blindedUserState",
          "type": "uint256"
        },
        {
          "internalType": "uint256",
          "name": "_blindedHashChain",
          "type": "uint256"
        },
        {
          "internalType": "uint256",
          "name": "_GSTRoot",
          "type": "uint256"
        },
        {
          "internalType": "uint256[8]",
          "name": "_proof",
          "type": "uint256[8]"
        }
      ],
      "name": "verifyStartTransitionProof",
      "outputs": [
        {
          "internalType": "bool",
          "name": "",
          "type": "bool"
        }
      ],
      "stateMutability": "view",
      "type": "function"
    },
    {
      "inputs": [
        {
          "internalType": "uint256",
          "name": "_epoch",
          "type": "uint256"
        },
        {
          "internalType": "uint256",
          "name": "_epochKey",
          "type": "uint256"
        },
        {
          "internalType": "uint256",
          "name": "_globalStateTree",
          "type": "uint256"
        },
        {
          "internalType": "uint256",
          "name": "_attesterId",
          "type": "uint256"
        },
        {
          "internalType": "uint256[8]",
          "name": "_proof",
          "type": "uint256[8]"
        }
      ],
      "name": "verifyUserSignUp",
      "outputs": [
        {
          "internalType": "bool",
          "name": "",
          "type": "bool"
        }
      ],
      "stateMutability": "view",
      "type": "function"
    },
    {
      "inputs": [
        {
          "internalType": "uint256",
          "name": "_newGlobalStateTreeLeaf",
          "type": "uint256"
        },
        {
          "internalType": "uint256[]",
          "name": "_epkNullifiers",
          "type": "uint256[]"
        },
        {
          "internalType": "uint256",
          "name": "_transitionFromEpoch",
          "type": "uint256"
        },
        {
          "internalType": "uint256[]",
          "name": "_blindedUserStates",
          "type": "uint256[]"
        },
        {
          "internalType": "uint256",
          "name": "_fromGlobalStateTree",
          "type": "uint256"
        },
        {
          "internalType": "uint256[]",
          "name": "_blindedHashChains",
          "type": "uint256[]"
        },
        {
          "internalType": "uint256",
          "name": "_fromEpochTree",
          "type": "uint256"
        },
        {
          "internalType": "uint256[8]",
          "name": "_proof",
          "type": "uint256[8]"
        }
      ],
      "name": "verifyUserStateTransition",
      "outputs": [
        {
          "internalType": "bool",
          "name": "",
          "type": "bool"
        }
      ],
      "stateMutability": "view",
      "type": "function"
    },
    {
      "inputs": [],
      "name": "zeroNullifier",
      "outputs": [
        {
          "internalType": "uint256",
          "name": "",
          "type": "uint256"
        }
      ],
      "stateMutability": "view",
      "type": "function"
    }
  ],
  "bytecode": "0x6101606040527f30644e72e131a029b85045b68181585d2833e84879b9709143e1f593f0000001620000336101806200076f565b6040516020818303038152906040528051906020012060001c62000058919062000a21565b60005560016007556000600a556000600b5560016010553480156200007c57600080fd5b5060405162005629380380620056298339810160408190526200009f9162000619565b8b601560008201518160000160006101000a81548160ff021916908360ff16021790555060208201518160000160016101000a81548160ff021916908360ff16021790555060408201518160000160026101000a81548160ff021916908360ff16021790555060608201518160000160036101000a81548160ff021916908360ff16021790555090505089600160006101000a8154816001600160a01b0302191690836001600160a01b0316021790555088600260006101000a8154816001600160a01b0302191690836001600160a01b0316021790555087600360006101000a8154816001600160a01b0302191690836001600160a01b0316021790555086600460006101000a8154816001600160a01b0302191690836001600160a01b0316021790555085600560006101000a8154816001600160a01b0302191690836001600160a01b0316021790555084600660006101000a8154816001600160a01b0302191690836001600160a01b031602179055508360ff1660c08160ff1660f81b815250508260ff1660e08160ff1660f81b81525050816080818152505042600881905550600060018d6000015160026200025b9190620008ec565b620002679190620009e4565b9050808c600001511115620002995760405162461bcd60e51b8152600401620002909062000830565b60405180910390fd5b8b516101005260208d0151620002af9062000314565b6009558c51620002bf9062000396565b60a0908152610140839052604080519182018152600080835260208301819052908201819052606082018190526080820152620002fc90620003ba565b610120525062000a589b505050505050505050505050565b6000620003206200058b565b60005b60058160ff16101562000370576000828260ff16600581106200035657634e487b7160e01b600052603260045260246000fd5b6020020152806200036781620009fe565b91505062000323565b5060006200037e82620003ba565b90506200038c848262000450565b925050505b919050565b604080518082019091526000808252600954602083015290816200037e82620004d8565b604051630926f44b60e31b815260009073__$223301b175b06473d424a7afc957d4e96c$__90634937a25890620003f6908590600401620007b4565b60206040518083038186803b1580156200040f57600080fd5b505af415801562000424573d6000803e3d6000fd5b505050506040513d601f19601f820116820180604052508101906200044a919062000756565b92915050565b6000808360ff161180156200046a57506101008360ff1611155b620004895760405162461bcd60e51b81526004016200029090620007de565b8160015b8460ff168160ff161015620004c3576000620004aa8380620004e8565b9250819050620004ba81620009fe565b9150506200048d565b50620004d08180620004e8565b949350505050565b805160208201516000916200044a915b6000620004f4620005a9565b838152602081018390526040516314d2f97b60e11b815273__$86e0c54df1042e28bf2dd20ccf184dc428$__906329a5f2f6906200053790849060040162000781565b60206040518083038186803b1580156200055057600080fd5b505af415801562000565573d6000803e3d6000fd5b505050506040513d601f19601f82011682018060405250810190620004d0919062000756565b6040518060a001604052806005906020820280368337509192915050565b60405180604001604052806002906020820280368337509192915050565b80516001600160a01b03811681146200039157600080fd5b600060208284031215620005f1578081fd5b620005fd602062000867565b9151825250919050565b805160ff811681146200039157600080fd5b6000806000806000806000806000806000808c8e036101e08112156200063d578889fd5b60808112156200064b578889fd5b5062000658608062000867565b620006638e62000607565b81526200067360208f0162000607565b60208201526200068660408f0162000607565b60408201526200069960608f0162000607565b60608201529b50620006af8e60808f01620005df565b9a50620006bf60a08e01620005c7565b9950620006cf60c08e01620005c7565b9850620006df60e08e01620005c7565b9750620006f06101008e01620005c7565b9650620007016101208e01620005c7565b9550620007126101408e01620005c7565b9450620007236101608e0162000607565b9350620007346101808e0162000607565b92506101a08d015191506101c08d015190509295989b509295989b509295989b565b60006020828403121562000768578081fd5b5051919050565b650556e697265760d41b815260060190565b60408101818360005b6002811015620007ab5781518352602092830192909101906001016200078a565b50505092915050565b60a08101818360005b6005811015620007ab578151835260209283019290910190600101620007bd565b60208082526032908201527f436f6d70757465526f6f743a205f747265654c6576656c73206d757374206265604082015271103132ba3bb2b2b710181030b73210191a9b60711b606082015260800190565b6020808252601e908201527f556e697265703a20696e76616c6964206d617855736572732076616c75650000604082015260600190565b6040518181016001600160401b03811182821017156200089757634e487b7160e01b600052604160045260246000fd5b604052919050565b80825b6001808611620008b35750620008e3565b818704821115620008c857620008c862000a42565b80861615620008d657918102915b9490941c938002620008a2565b94509492505050565b60006200090060001960ff85168462000907565b9392505050565b600082620009185750600162000900565b81620009275750600062000900565b81600181146200094057600281146200094b576200097f565b600191505062000900565b60ff8411156200095f576200095f62000a42565b6001841b91508482111562000978576200097862000a42565b5062000900565b5060208310610133831016604e8410600b8410161715620009b7575081810a83811115620009b157620009b162000a42565b62000900565b620009c684848460016200089f565b808604821115620009db57620009db62000a42565b02949350505050565b600082821015620009f957620009f962000a42565b500390565b600060ff821660ff81141562000a185762000a1862000a42565b60010192915050565b60008262000a3d57634e487b7160e01b81526012600452602481fd5b500690565b634e487b7160e01b600052601160045260246000fd5b60805160a05160c05160f81c60e05160f81c610100516101205161014051614ac162000b6860003960008181610bb801528181611e810152612c90015260006123910152600081816111e901526123f1015260008181610c7a01528181610d1501528181610d6701528181610dc001528181610e1901528181610e7201528181610ecb01528181610f2401528181610f7d0152818161178b015281816117cb01526123b50152600081816115a5015281816122be01528181612421015281816124d901528181612583015281816125db01528181612635015281816126b0015281816127130152818161276d01526127f3015260006120c701526000818161092801526119c60152614ac16000f3fe6080604052600436106102ff5760003560e01c806383e168ad11610190578063b530dc8c116100dc578063e1b0e80211610095578063f5ab0dd61161006f578063f5ab0dd614610881578063f73c8ebb146108b0578063fc14478a146108d0578063fd551331146108f0576102ff565b8063e1b0e80214610837578063e87101b11461084c578063f20ca7ff14610861576102ff565b8063b530dc8c14610798578063b876ed71146107b8578063bc9bf145146107d8578063c2639673146107ed578063c6e0123214610802578063d3aa645b14610817576102ff565b8063a3836b2011610149578063a710d60f11610123578063a710d60f1461071c578063a7c264ca1461073c578063a7ebaa751461075e578063ac98e5df14610773576102ff565b8063a3836b20146106c7578063a4ecf469146106dc578063a5500c30146106fc576102ff565b806383e168ad146106285780639109d1eb14610648578063918f0c161461065d57806398588c1f146106725780639cfced9714610692578063a27e572a146106b2576102ff565b80634d6f77a71161024f5780635bb939951161020857806376671808116101e257806376671808146105b0578063777a296e146105c55780637aeb103f146105e5578063839beeb814610613576102ff565b80635bb939951461055b578063705edd391461057b5780637341ead914610590576102ff565b80634d6f77a7146104b15780634ded429f146104d15780634edc9ace146104f157806356df46341461051157806357d775f8146105265780635b3745b51461053b576102ff565b80632b95f97e116102bc5780633acce985116102965780633acce98514610431578063417b16e314610451578063436b32d8146104715780634cce1a9a14610491576102ff565b80632b95f97e146103d15780632fa6773b146103f15780633334dc5b14610411576102ff565b806307d8330814610304578063083789d31461032f57806309663b291461034f578063131a91ad146103715780631c89e8e814610391578063258da4db146103be575b600080fd5b34801561031057600080fd5b50610319610903565b60405161032691906147ef565b60405180910390f35b34801561033b57600080fd5b5061031961034a3660046138d6565b610909565b34801561035b57600080fd5b5061036f61036a3660046138d6565b610921565b005b34801561037d57600080fd5b5061031961038c3660046135c8565b610b05565b34801561039d57600080fd5b506103b16103ac3660046138d6565b610b17565b6040516103269190613de1565b61036f6103cc3660046137f1565b610b2c565b3480156103dd57600080fd5b506103196103ec3660046138d6565b610c14565b3480156103fd57600080fd5b5061031961040c3660046138d6565b610c3b565b34801561041d57600080fd5b506103b161042c366004613730565b610c4d565b34801561043d57600080fd5b5061031961044c366004613a84565b611132565b34801561045d57600080fd5b5061036f61046c3660046138d6565b6111b8565b34801561047d57600080fd5b506103b161048c366004613b1a565b611346565b34801561049d57600080fd5b5061036f6104ac366004613906565b611580565b3480156104bd57600080fd5b506103196104cc3660046138d6565b611754565b3480156104dd57600080fd5b5061036f6104ec366004613730565b611766565b3480156104fd57600080fd5b5061031961050c366004613b64565b6118fa565b34801561051d57600080fd5b5061036f61196e565b34801561053257600080fd5b506103196119c4565b34801561054757600080fd5b506103b1610556366004613ae5565b6119e8565b34801561056757600080fd5b50610319610576366004613a84565b611bcd565b34801561058757600080fd5b50610319611c68565b34801561059c57600080fd5b506103196105ab366004613889565b611c8f565b3480156105bc57600080fd5b50610319611ca3565b3480156105d157600080fd5b506103196105e0366004613a84565b611ca9565b3480156105f157600080fd5b506106056106003660046138d6565b611cf8565b604051610326929190613db3565b34801561061f57600080fd5b50610319611e7f565b34801561063457600080fd5b50610319610643366004613b8d565b611ea3565b34801561065457600080fd5b50610319611f62565b34801561066957600080fd5b50610319611f68565b34801561067e57600080fd5b5061036f61068d3660046135e2565b611f6e565b34801561069e57600080fd5b506103196106ad36600461369e565b612019565b3480156106be57600080fd5b5061036f6120a3565b3480156106d357600080fd5b506103196120c5565b3480156106e857600080fd5b506103b16106f73660046138d6565b6120e9565b34801561070857600080fd5b5061036f6107173660046138d6565b6120fe565b34801561072857600080fd5b506103b1610737366004613ae5565b61213c565b34801561074857600080fd5b506107516122bc565b60405161032691906148d7565b34801561076a57600080fd5b5061036f6122e0565b34801561077f57600080fd5b506107886122f5565b60405161032694939291906148e5565b3480156107a457600080fd5b506103196107b33660046135c8565b61231a565b3480156107c457600080fd5b5061036f6107d3366004613aa5565b61232c565b3480156107e457600080fd5b5061031961238f565b3480156107f957600080fd5b506107516123b3565b34801561080e57600080fd5b506103196123d7565b34801561082357600080fd5b506103196108323660046135c8565b6123dd565b34801561084357600080fd5b506103196123ef565b34801561085857600080fd5b50610319612413565b34801561086d57600080fd5b506103b161087c3660046139c5565b612419565b34801561088d57600080fd5b506108a161089c366004613714565b612945565b60405161032693929190613d05565b3480156108bc57600080fd5b5061036f6108cb366004613aa5565b6129ce565b3480156108dc57600080fd5b506103b16108eb366004613ae5565b612a32565b61036f6108fe366004613632565b612bb2565b600d5481565b6000818152601360205260409020600201545b919050565b60005a90507f00000000000000000000000000000000000000000000000000000000000000006008544261095591906149a3565b101561097c5760405162461bcd60e51b815260040161097390614011565b60405180910390fd5b60075460009081526013602052604081206002810154905482906109a9906109a48488612cef565b612d02565b9050815b81811015610a26576007546000908152601360209081526040808320848452600190810183528184205480855260129093529220549095506109ef9190611bcd565b6000858152601260209081526040808320939093556011905220805460ff1916600117905580610a1e816149ba565b9150506109ad565b5060078054600090815260136020526040808220600201849055915481522054811415610abb57600080516020614a6c833981519152604051610a68906140e6565b60405180910390a16007546040517f751bb1ba7b27b3979a32844d4d05aa16a46a771b751593704834a80311e3a9b990600090a24260085560078054906000610ab0836149ba565b90915550506000600b555b6000610ac85a8690612d1a565b9050610aed610ad7823a612d26565b336000908152600e602052604090205490612cef565b336000908152600e6020526040902055505050505050565b600f6020526000908152604090205481565b600c6020526000908152604090205460ff1681565b336000908152600f6020526040902054610b585760405162461bcd60e51b815260040161097390613fcb565b336000908152600f6020526040902054823514610b875760405162461bcd60e51b8152600401610973906145dd565b60008181526011602052604090205460ff1615610bb65760405162461bcd60e51b815260040161097390614273565b7f00000000000000000000000000000000000000000000000000000000000000003414610bf55760405162461bcd60e51b81526004016109739061409a565b600d54610c029034612cef565b600d55610c10338383612d32565b5050565b6000610c1e61332a565b828152600160608201819052610c3382612019565b949350505050565b60126020526000908152604090205481565b6040805160128082526102608201909252600091829190602082016102408036833701905050905060005b7f000000000000000000000000000000000000000000000000000000000000000060ff168160ff161015610d10578d8d8260ff16818110610cc957634e487b7160e01b600052603260045260246000fd5b90506020020135828260ff1681518110610cf357634e487b7160e01b600052603260045260246000fd5b602090810291909101015280610d08816149d5565b915050610c78565b508a817f000000000000000000000000000000000000000000000000000000000000000060ff1681518110610d5557634e487b7160e01b600052603260045260246000fd5b60209081029190910101528981610d8d7f00000000000000000000000000000000000000000000000000000000000000006001614922565b60ff1681518110610dae57634e487b7160e01b600052603260045260246000fd5b60209081029190910101528881610de67f00000000000000000000000000000000000000000000000000000000000000006002614922565b60ff1681518110610e0757634e487b7160e01b600052603260045260246000fd5b60209081029190910101528781610e3f7f00000000000000000000000000000000000000000000000000000000000000006003614922565b60ff1681518110610e6057634e487b7160e01b600052603260045260246000fd5b60209081029190910101528681610e987f00000000000000000000000000000000000000000000000000000000000000006004614922565b60ff1681518110610eb957634e487b7160e01b600052603260045260246000fd5b60209081029190910101528581610ef17f00000000000000000000000000000000000000000000000000000000000000006005614922565b60ff1681518110610f1257634e487b7160e01b600052603260045260246000fd5b60209081029190910101528481610f4a7f00000000000000000000000000000000000000000000000000000000000000006006614922565b60ff1681518110610f6b57634e487b7160e01b600052603260045260246000fd5b60209081029190910101528381610fa37f00000000000000000000000000000000000000000000000000000000000000006007614922565b60ff1681518110610fc457634e487b7160e01b600052603260045260246000fd5b60200260200101818152505060005b81518160ff16101561104857600080516020614a4c833981519152828260ff168151811061101157634e487b7160e01b600052603260045260246000fd5b6020026020010151106110365760405162461bcd60e51b815260040161097390614614565b80611040816149d5565b915050610fd3565b50611051613348565b604080516101008181019092526110809186906008908390839080828437600092019190915250612945915050565b60408085018290526020850183905283855260055490516361971b8760e11b81526001600160a01b039091169363c32e370e936110c69391929091908890600401613d2e565b60206040518083038186803b1580156110de57600080fd5b505afa1580156110f2573d6000803e3d6000fd5b505050506040513d601f19601f8201168201806040525081019061111691906137d1565b151560609091018190529150509b9a5050505050505050505050565b600061113c61332a565b60005b60058160ff161015611187576000828260ff166005811061117057634e487b7160e01b600052603260045260246000fd5b60200201528061117f816149d5565b91505061113f565b50600061119382612019565b6015549091506111ad90610100900460ff16868684611ea3565b925050505b92915050565b6000818152600c602052604090205460ff16156111e75760405162461bcd60e51b8152600401610973906143b7565b7f0000000000000000000000000000000000000000000000000000000000000000600a54106112285760405162461bcd60e51b81526004016109739061422a565b600954336000908152600f602090815260408083205460149092529091205481158015906112565750600081115b1561127657600061126682610c14565b90506112728382611132565b9350505b6040805180820190915284815260208101849052600061129582611c8f565b6000878152600c60205260408120805460ff19166001179055600a8054929350906112bf836149ba565b9190505550600080516020614a6c8339815191526040516112df906146b9565b60405180910390a16007547f9a965b974adcc5af3e5c811827630ad09160710bebb1621ec72cb1cbf0050cb7600b5483878760405161132194939291906148bc565b60405180910390a2600b8054906000611339836149ba565b9190505550505050505050565b60408051600480825260a0820190925260009182919060208201608080368337019050509050868160008151811061138e57634e487b7160e01b600052603260045260246000fd5b60200260200101818152505085816001815181106113bc57634e487b7160e01b600052603260045260246000fd5b60200260200101818152505084816002815181106113ea57634e487b7160e01b600052603260045260246000fd5b602002602001018181525050838160038151811061141857634e487b7160e01b600052603260045260246000fd5b60200260200101818152505060005b81518160ff16101561149c57600080516020614a4c833981519152828260ff168151811061146557634e487b7160e01b600052603260045260246000fd5b60200260200101511061148a5760405162461bcd60e51b815260040161097390614614565b80611494816149d5565b915050611427565b506114a5613348565b604080516101008181019092526114d49186906008908390839080828437600092019190915250612945915050565b60408085018290526020850183905283855260065490516361971b8760e11b81526001600160a01b039091169363c32e370e9361151a9391929091908890600401613d2e565b60206040518083038186803b15801561153257600080fd5b505afa158015611546573d6000803e3d6000fd5b505050506040513d601f19601f8201168201806040525081019061156a91906137d1565b1515606090910181905291505095945050505050565b60075484106115a15760405162461bcd60e51b8152600401610973906142c7565b60ff7f00000000000000000000000000000000000000000000000000000000000000001689146115e35760405162461bcd60e51b815260040161097390614671565b6115eb613382565b848152602081018490526040808201849052606082018d90528051610100818101909252908390600890839083908082843760009201919091525050506080820152604080516020808b0282810182019093528a825290918b918b91829185019084908082843760009201919091525050505060a08201526040805160208089028281018201909352888252909189918991829185019084908082843760009201919091525050505060c0820152604080516020808d0282810182019093528c825290918d918d91829185019084908082843760009201919091525050505060e0820152604051600080516020614a6c833981519152906116eb906143fd565b60405180910390a16007547fe4d3d9968cbe83e3f78ff28e3ec13aed2d63400dbdd05b7f5fcb01a9459a74a2600b5483604051611729929190614814565b60405180910390a2600b8054906000611741836149ba565b9190505550505050505050505050505050565b60009081526013602052604090205490565b60075489146117875760405162461bcd60e51b8152600401610973906144d9565b60ff7f0000000000000000000000000000000000000000000000000000000000000000168a146117c95760405162461bcd60e51b815260040161097390613ebe565b7f000000000000000000000000000000000000000000000000000000000000000060ff1685111561180c5760405162461bcd60e51b81526004016109739061445b565b601054861061182d5760405162461bcd60e51b815260040161097390614536565b6118356133cd565b888152602081018890526040808201889052606082018790526080820186905260a0820185905260c0820184905280516101008181019092529083906008908390839080828437600092019190915250505060e0820152604051600080516020614a6c833981519152906118a890613e41565b60405180910390a1897f5579a3088d5a8627c8147da49ee4be1a9074dc1996d6e3d19d0ebe3475265231828e8e6040516118e493929190614759565b60405180910390a2505050505050505050505050565b6000808360ff1611801561191357506101008360ff1611155b61192f5760405162461bcd60e51b815260040161097390614048565b8160015b8460ff168160ff16101561196357600061194d8384611bcd565b925081905061195b816149d5565b915050611933565b50610c338182611bcd565b336000908152600f60205260409020541561199b5760405162461bcd60e51b815260040161097390613e78565b60108054336000908152600f602052604081208290559091906119bd836149ba565b9190505550565b7f000000000000000000000000000000000000000000000000000000000000000081565b60408051600480825260a08201909252600091829190602082016080803683370190505090508581600081518110611a3057634e487b7160e01b600052603260045260246000fd5b6020026020010181815250508481600181518110611a5e57634e487b7160e01b600052603260045260246000fd5b6020026020010181815250508381600281518110611a8c57634e487b7160e01b600052603260045260246000fd5b60200260200101818152505060005b81518160ff161015611b1057600080516020614a4c833981519152828260ff1681518110611ad957634e487b7160e01b600052603260045260246000fd5b602002602001015110611afe5760405162461bcd60e51b815260040161097390614614565b80611b08816149d5565b915050611a9b565b50611b19613348565b611b2284612945565b60408085018290526020850183905283855260025490516361971b8760e11b81526001600160a01b039091169363c32e370e93611b689391929091908890600401613d2e565b60206040518083038186803b158015611b8057600080fd5b505afa158015611b94573d6000803e3d6000fd5b505050506040513d601f19601f82011682018060405250810190611bb891906137d1565b15156060909101819052915050949350505050565b6000611bd7613417565b838152602081018390526040516314d2f97b60e11b815273__$86e0c54df1042e28bf2dd20ccf184dc428$__906329a5f2f690611c18908490600401613cd4565b60206040518083038186803b158015611c3057600080fd5b505af4158015611c44573d6000803e3d6000fd5b505050506040513d601f19601f82011682018060405250810190610c3391906138ee565b604080518082019091526000808252600954602083015290611c8981611c8f565b91505090565b60006111b282600001518360200151611bcd565b60075481565b6000828152601360205260408120548210611cd65760405162461bcd60e51b81526004016109739061410a565b5060009182526013602090815260408084209284526001909201905290205490565b60008181526013602052604081205460609182916001600160401b03811115611d3157634e487b7160e01b600052604160045260246000fd5b604051908082528060200260200182016040528015611d5a578160200160208202803683370190505b506000858152601360205260409020549093506001600160401b03811115611d9257634e487b7160e01b600052604160045260246000fd5b604051908082528060200260200182016040528015611dbb578160200160208202803683370190505b50915060005b600085815260136020526040902054811015611e7857600085815260136020908152604080832084845260010190915290205484519092508290859083908110611e1b57634e487b7160e01b600052603260045260246000fd5b6020026020010181815250506012600083815260200190815260200160002054838281518110611e5b57634e487b7160e01b600052603260045260246000fd5b602090810291909101015280611e70816149ba565b915050611dc1565b5050915091565b7f000000000000000000000000000000000000000000000000000000000000000081565b6000808560ff16118015611ebc57506101008560ff1611155b611ed85760405162461bcd60e51b815260040161097390614048565b82828560015b611ee9896001614922565b60ff168160ff161015611f55576000611f028485611bcd565b9050611f0f6002846149f5565b611f2457611f1d8585611bcd565b9450611f31565b611f2e8486611bcd565b94505b925082611f3f600284614947565b9250508080611f4d906149d5565b915050611ede565b5091979650505050505050565b60105481565b600a5481565b6001600160a01b0383166000908152600f602052604090205415611fa45760405162461bcd60e51b815260040161097390613e78565b611fe48383838080601f016020809104026020016040519081016040528093929190818152602001838380828437600092019190915250612eed92505050565b601080546001600160a01b0385166000908152600f6020526040812082905590919061200f836149ba565b9190505550505050565b604051630926f44b60e31b815260009073__$223301b175b06473d424a7afc957d4e96c$__90634937a25890612053908590600401613d75565b60206040518083038186803b15801561206b57600080fd5b505af415801561207f573d6000803e3d6000fd5b505050506040513d601f19601f820116820180604052508101906111b291906138ee565b336000818152600e602052604081208054919055906120c29082612f7f565b50565b7f000000000000000000000000000000000000000000000000000000000000000081565b60116020526000908152604090205460ff1681565b336000908152600f602052604090205461212a5760405162461bcd60e51b815260040161097390613fcb565b33600090815260146020526040902055565b60408051600480825260a0820190925260009182919060208201608080368337019050509050858160008151811061218457634e487b7160e01b600052603260045260246000fd5b60200260200101818152505084816001815181106121b257634e487b7160e01b600052603260045260246000fd5b60200260200101818152505083816002815181106121e057634e487b7160e01b600052603260045260246000fd5b60200260200101818152505060005b81518160ff16101561226457600080516020614a4c833981519152828260ff168151811061222d57634e487b7160e01b600052603260045260246000fd5b6020026020010151106122525760405162461bcd60e51b815260040161097390614614565b8061225c816149d5565b9150506121ef565b5061226d613348565b61227684612945565b60408085018290526020850183905283855260035490516361971b8760e11b81526001600160a01b039091169363c32e370e93611b689391929091908890600401613d2e565b7f000000000000000000000000000000000000000000000000000000000000000081565b600d8054600091829055906120c29082612f7f565b60155460ff808216916101008104821691620100008204811691630100000090041684565b60146020526000908152604090205481565b600080516020614a6c833981519152604051612347906144ae565b60405180910390a18183857f8c931646c751bc03b19a78d2726e212e11ed65ed0815b00e9d4407eb9e579f96846040516123819190613d9d565b60405180910390a450505050565b7f000000000000000000000000000000000000000000000000000000000000000081565b7f000000000000000000000000000000000000000000000000000000000000000081565b60095481565b600e6020526000908152604090205481565b7f000000000000000000000000000000000000000000000000000000000000000081565b60085481565b6000806124477f0000000000000000000000000000000000000000000000000000000000000000600361497a565b612452906004614922565b60ff166001600160401b0381111561247a57634e487b7160e01b600052604160045260246000fd5b6040519080825280602002602001820160405280156124a3578160200160208202803683370190505b5090508c816000815181106124c857634e487b7160e01b600052603260045260246000fd5b60200260200101818152505060005b7f000000000000000000000000000000000000000000000000000000000000000060ff168160ff16101561257b578c8c8260ff1681811061252857634e487b7160e01b600052603260045260246000fd5b905060200201358282600161253d9190614922565b60ff168151811061255e57634e487b7160e01b600052603260045260246000fd5b602090810291909101015280612573816149d5565b9150506124d7565b5089816125a97f00000000000000000000000000000000000000000000000000000000000000006001614922565b60ff16815181106125ca57634e487b7160e01b600052603260045260246000fd5b60200260200101818152505060005b7f000000000000000000000000000000000000000000000000000000000000000060ff168160ff1610156126a85789898260ff1681811061262a57634e487b7160e01b600052603260045260246000fd5b9050602002013582827f000000000000000000000000000000000000000000000000000000000000000060026126609190614922565b61266a9190614922565b60ff168151811061268b57634e487b7160e01b600052603260045260246000fd5b6020908102919091010152806126a0816149d5565b9150506125d9565b5086816126d67f0000000000000000000000000000000000000000000000000000000000000000600261497a565b6126e1906002614922565b60ff168151811061270257634e487b7160e01b600052603260045260246000fd5b60200260200101818152505060005b7f000000000000000000000000000000000000000000000000000000000000000060ff168160ff1610156127eb5786868260ff1681811061276257634e487b7160e01b600052603260045260246000fd5b9050602002013582827f00000000000000000000000000000000000000000000000000000000000000006002612798919061497a565b6127a3906003614922565b6127ad9190614922565b60ff16815181106127ce57634e487b7160e01b600052603260045260246000fd5b6020908102919091010152806127e3816149d5565b915050612711565b5083816128197f0000000000000000000000000000000000000000000000000000000000000000600361497a565b612824906003614922565b60ff168151811061284557634e487b7160e01b600052603260045260246000fd5b60200260200101818152505060005b81518160ff1610156128c957600080516020614a4c833981519152828260ff168151811061289257634e487b7160e01b600052603260045260246000fd5b6020026020010151106128b75760405162461bcd60e51b815260040161097390614614565b806128c1816149d5565b915050612854565b506128d2613348565b604080516101008181019092526129019186906008908390839080828437600092019190915250612945915050565b6040808501829052602085018390528385526004805491516361971b8760e11b81526001600160a01b039092169463c32e370e946110c69491939092899101613d2e565b61294d613417565b612955613435565b61295d613417565b50506040805180820182528351815260208085015181830152825160808082018552868501518286019081526060808901519084015282528451808601865290870151815260a08701518184015281830152835180850190945260c0860151845260e0909501519083015293909150565b600080516020614a6c8339815191526040516129e99061442c565b60405180910390a182847fb91edc6d40651acb63b84259617d123737d66e253044b4f6f60bcfd6972661ea8484604051612a249291906147f8565b60405180910390a350505050565b60408051600380825260808201909252600091829190602082016060803683370190505090508581600081518110612a7a57634e487b7160e01b600052603260045260246000fd5b6020026020010181815250508481600181518110612aa857634e487b7160e01b600052603260045260246000fd5b6020026020010181815250508381600281518110612ad657634e487b7160e01b600052603260045260246000fd5b60200260200101818152505060005b81518160ff161015612b5a57600080516020614a4c833981519152828260ff1681518110612b2357634e487b7160e01b600052603260045260246000fd5b602002602001015110612b485760405162461bcd60e51b815260040161097390614614565b80612b52816149d5565b915050612ae5565b50612b63613348565b612b6c84612945565b60408085018290526020850183905283855260015490516361971b8760e11b81526001600160a01b039091169363c32e370e93611b689391929091908890600401613d2e565b612bf28585858080601f016020809104026020016040519081016040528093929190818152602001838380828437600092019190915250612eed92505050565b6001600160a01b0385166000908152600f6020526040902054612c275760405162461bcd60e51b815260040161097390613fcb565b6001600160a01b0385166000908152600f6020526040902054823514612c5f5760405162461bcd60e51b8152600401610973906145dd565b60008181526011602052604090205460ff1615612c8e5760405162461bcd60e51b815260040161097390614273565b7f00000000000000000000000000000000000000000000000000000000000000003414612ccd5760405162461bcd60e51b81526004016109739061409a565b600d54612cda9034612cef565b600d55612ce8858383612d32565b5050505050565b6000612cfb828461490a565b9392505050565b600081831115612d135750806111b2565b50816111b2565b6000612cfb82846149a3565b6000612cfb828461495b565b600081815260126020526040812054612d885750600780546000908152601360208181526040808420805480865260019091018352818520879055945484529190528120805491612d82836149ba565b91905055505b600080516020614a4c833981519152836020013510612db95760405162461bcd60e51b815260040161097390614333565b600080516020614a4c833981519152836040013510612dea5760405162461bcd60e51b81526004016109739061459b565b600080516020614a4c833981519152836060013510612e1b5760405162461bcd60e51b815260040161097390613f3d565b826080013560011480612e3057506080830135155b612e4c5760405162461bcd60e51b8152600401610973906146dd565b612e7a612e66612e613686900386018661381b565b61301b565b600084815260126020526040902054611bcd565b600083815260126020526040908190209190915551600080516020614a6c83398151915290612ea89061456d565b60405180910390a1836001600160a01b0316826007547f45dd8e7adcda0ec776335bbed91fbf1ad3a3b08079de3b4a8ea59c50935e9ec086604051612381919061471f565b60008230604051602001612f02929190613c79565b60405160208183030381529060405280519060200120604051602001612f289190613ca0565b604051602081830303815290604052805190602001209050826001600160a01b0316612f54828461305a565b6001600160a01b031614612f7a5760405162461bcd60e51b815260040161097390613f81565b505050565b80471015612f9f5760405162461bcd60e51b8152600401610973906141f3565b6000826001600160a01b031682604051612fb890613cd1565b60006040518083038185875af1925050503d8060008114612ff5576040519150601f19603f3d011682016040523d82523d6000602084013e612ffa565b606091505b5050905080612f7a5760405162461bcd60e51b815260040161097390614154565b600061302561332a565b8251815260208084015190820152604080840151908201526060808401519082015260808084015190820152612cfb81612019565b6000806000613069858561307e565b91509150613076816130ee565b509392505050565b6000808251604114156130b55760208301516040840151606085015160001a6130a98782858561321b565b945094505050506130e7565b8251604014156130df57602083015160408401516130d48683836132fb565b9350935050506130e7565b506000905060025b9250929050565b600081600481111561311057634e487b7160e01b600052602160045260246000fd5b141561311b576120c2565b600181600481111561313d57634e487b7160e01b600052602160045260246000fd5b141561315b5760405162461bcd60e51b815260040161097390613e0a565b600281600481111561317d57634e487b7160e01b600052602160045260246000fd5b141561319b5760405162461bcd60e51b815260040161097390613f06565b60038160048111156131bd57634e487b7160e01b600052602160045260246000fd5b14156131db5760405162461bcd60e51b8152600401610973906141b1565b60048160048111156131fd57634e487b7160e01b600052602160045260246000fd5b14156120c25760405162461bcd60e51b815260040161097390614375565b6000807f7fffffffffffffffffffffffffffffff5d576e7357a4501ddfe92f46681b20a083111561325257506000905060036132f2565b8460ff16601b1415801561326a57508460ff16601c14155b1561327b57506000905060046132f2565b6000600187878787604051600081526020016040526040516132a09493929190613dec565b6020604051602081039080840390855afa1580156132c2573d6000803e3d6000fd5b5050604051601f1901519150506001600160a01b0381166132eb576000600192509250506132f2565b9150600090505b94509492505050565b6000806001600160ff1b03831660ff84901c601b0161331c8782888561321b565b935093505050935093915050565b6040518060a001604052806005906020820280368337509192915050565b604051806080016040528061335b613417565b8152602001613368613435565b8152602001613375613417565b8152600060209091015290565b604051806101000160405280600081526020016000815260200160008152602001600081526020016133b2613462565b81526020016060815260200160608152602001606081525090565b60405180610100016040528060008152602001600081526020016000815260200160008152602001600081526020016000815260200160008152602001613412613462565b905290565b60405180604001604052806002906020820280368337509192915050565b60405180604001604052806002905b61344c613417565b8152602001906001900390816134445790505090565b6040518061010001604052806008906020820280368337509192915050565b80356001600160a01b038116811461091c57600080fd5b8061010081018310156111b257600080fd5b600082601f8301126134ba578081fd5b6040516101008082018281106001600160401b03821117156134de576134de614a35565b60405281848281018710156134f1578485fd5b8492505b6008831015613515578035825260019290920191602091820191016134f5565b509195945050505050565b60008083601f840112613531578182fd5b5081356001600160401b03811115613547578182fd5b60208301915083602080830285010111156130e757600080fd5b60008083601f840112613572578182fd5b5081356001600160401b03811115613588578182fd5b6020830191508360208285010111156130e757600080fd5b600060a082840312156135b1578081fd5b50919050565b803560ff8116811461091c57600080fd5b6000602082840312156135d9578081fd5b612cfb82613481565b6000806000604084860312156135f6578182fd5b6135ff84613481565b925060208401356001600160401b03811115613619578283fd5b61362586828701613561565b9497909650939450505050565b6000806000806000610100868803121561364a578081fd5b61365386613481565b945060208601356001600160401b0381111561366d578182fd5b61367988828901613561565b909550935061368d905087604088016135a0565b9497939650919460e0013592915050565b600060a082840312156136af578081fd5b82601f8301126136bd578081fd5b60405160a081018181106001600160401b03821117156136df576136df614a35565b604052808360a081018610156136f3578384fd5b835b60058110156135155781358352602092830192909101906001016136f5565b60006101008284031215613726578081fd5b612cfb83836134aa565b60008060008060008060008060008060006102208c8e031215613751578586fd5b8b356001600160401b03811115613766578687fd5b6137728e828f01613520565b909c509a505060208c0135985060408c0135975060608c0135965060808c0135955060a08c0135945060c08c0135935060e08c013592506101008c013591506137bf8d6101208e01613498565b90509295989b509295989b9093969950565b6000602082840312156137e2578081fd5b81518015158114612cfb578182fd5b60008060c08385031215613803578182fd5b61380d84846135a0565b9460a0939093013593505050565b600060a0828403121561382c578081fd5b60405160a081018181106001600160401b038211171561384e5761384e614a35565b806040525082358152602083013560208201526040830135604082015260608301356060820152608083013560808201528091505092915050565b60006040828403121561389a578081fd5b604051604081018181106001600160401b03821117156138bc576138bc614a35565b604052823581526020928301359281019290925250919050565b6000602082840312156138e7578081fd5b5035919050565b6000602082840312156138ff578081fd5b5051919050565b60008060008060008060008060008060006101e08c8e031215613927578485fd5b8b359a506001600160401b038060208e01351115613943578586fd5b6139538e60208f01358f01613520565b909b50995060408d0135811015613968578586fd5b6139788e60408f01358f01613520565b909950975060608d013581101561398d578586fd5b5061399e8d60608e01358e01613520565b909650945060808c0135935060a08c0135925060c08c013591506137bf8d60e08e01613498565b60008060008060008060008060008060006101e08c8e0312156139e6578485fd5b8b359a506001600160401b038060208e01351115613a02578586fd5b613a128e60208f01358f01613520565b909b50995060408d0135985060608d0135811015613a2e578586fd5b613a3e8e60608f01358f01613520565b909850965060808d0135955060a08d0135811015613a5a578485fd5b50613a6b8d60a08e01358e01613520565b909450925060c08c013591506137bf8d60e08e01613498565b60008060408385031215613a96578182fd5b50508035926020909101359150565b6000806000806101608587031215613abb578182fd5b843593506020850135925060408501359150613ada8660608701613498565b905092959194509250565b6000806000806101608587031215613afb578182fd5b843593506020850135925060408501359150613ada86606087016134aa565b60008060008060006101808688031215613b32578283fd5b85359450602086013593506040860135925060608601359150613b588760808801613498565b90509295509295909350565b60008060408385031215613b76578182fd5b613b7f836135b7565b946020939093013593505050565b60008060008060808587031215613ba2578182fd5b613bab856135b7565b966020860135965060408601359560600135945092505050565b8060005b6002811015613bf357613bdd848351613bf9565b6040939093019260209190910190600101613bc9565b50505050565b8060005b6002811015613bf3578151845260209384019390910190600101613bfd565b8060005b6008811015613bf3578151845260209384019390910190600101613c20565b6000815180845260208085019450808401835b83811015613c6e57815187529582019590820190600101613c52565b509495945050505050565b6bffffffffffffffffffffffff19606093841b811682529190921b16601482015260280190565b7f19457468657265756d205369676e6564204d6573736167653a0a3332000000008152601c810191909152603c0190565b90565b60408101818360005b6002811015613cfc578151835260209283019290910190600101613cdd565b50505092915050565b6101008101613d148286613bf9565b613d216040830185613bc5565b610c3360c0830184613bf9565b6000610120613d3d8388613bf9565b613d4a6040840187613bc5565b613d5760c0840186613bf9565b80610100840152613d6a81840185613c3f565b979650505050505050565b60a08101818360005b6005811015613cfc578151835260209283019290910190600101613d7e565b6101008181019080848437506000815292915050565b600060408252613dc66040830185613c3f565b8281036020840152613dd88185613c3f565b95945050505050565b901515815260200190565b93845260ff9290921660208401526040830152606082015260800190565b60208082526018908201527f45434453413a20696e76616c6964207369676e61747572650000000000000000604082015260600190565b6020808252601c908201527f52657075746174696f6e4e756c6c69666965725375626d697474656400000000604082015260600190565b60208082526026908201527f556e697265703a2061747465737465722068617320616c72656164792073696760408201526506e65642075760d41b606082015260800190565b60208082526028908201527f556e697265703a20696e76616c6964206e756d626572206f6620726570206e756040820152676c6c69666965727360c01b606082015260800190565b6020808252601f908201527f45434453413a20696e76616c6964207369676e6174757265206c656e67746800604082015260600190565b60208082526024908201527f556e697265703a20696e76616c6964206174746573746174696f6e20677261666040820152636669746960e01b606082015260800190565b6020808252602a908201527f556e697265703a20696e76616c6964206174746573746572207369676e207570604082015269207369676e617475726560b01b606082015260800190565b60208082526026908201527f556e697265703a20617474657374657220686173206e6f74207369676e6564206040820152651d5c081e595d60d21b606082015260800190565b6020808252601b908201527f556e697265703a2065706f6368206e6f742079657420656e6465640000000000604082015260600190565b60208082526032908201527f436f6d70757465526f6f743a205f747265654c6576656c73206d757374206265604082015271103132ba3bb2b2b710181030b73210191a9b60711b606082015260800190565b6020808252602c908201527f556e697265703a206e6f20617474657374696e6720666565206f7220696e636f60408201526b1c9c9958dd08185b5bdd5b9d60a21b606082015260800190565b6020808252600a9082015269115c1bd8da115b99195960b21b604082015260600190565b6020808252602a908201527f556e697265703a2065706f6368206b6579206c69737420616363657373206f756040820152691d081bd988189bdd5b9960b21b606082015260800190565b6020808252603a908201527f416464726573733a20756e61626c6520746f2073656e642076616c75652c207260408201527f6563697069656e74206d61792068617665207265766572746564000000000000606082015260800190565b60208082526022908201527f45434453413a20696e76616c6964207369676e6174757265202773272076616c604082015261756560f01b606082015260800190565b6020808252601d908201527f416464726573733a20696e73756666696369656e742062616c616e6365000000604082015260600190565b60208082526029908201527f556e697265703a206d6178696d756d206e756d626572206f66207369676e75706040820152681cc81c995858da195960ba1b606082015260800190565b60208082526034908201527f556e697265703a206861736820636861696e206f6620746869732065706f6368604082015273081ad95e481a185cc81899595b881cd9585b195960621b606082015260800190565b60208082526046908201527f43616e206e6f74207472616e736974696f6e2066726f6d2065706f636820746860408201527f617427732067726561746572206f7220657175616c20746f2063757272656e74606082015265040cae0dec6d60d31b608082015260a00190565b60208082526022908201527f556e697265703a20696e76616c6964206174746573746174696f6e20706f7352604082015261065760f41b606082015260800190565b60208082526022908201527f45434453413a20696e76616c6964207369676e6174757265202776272076616c604082015261756560f01b606082015260800190565b60208082526026908201527f556e697265703a2074686520757365722068617320616c72656164792073696760408201526506e65642075760d41b606082015260800190565b602080825260159082015274155cd95c94dd185d19551c985b9cda5d1a5bdb9959605a1b604082015260600190565b60208082526015908201527450726f6365737365644174746573746174696f6e7360581b604082015260600190565b60208082526033908201527f556e697265703a20696e76616c6964206e756d626572206f662070726f76696e60408201527219c81c995c1d5d185d1a5bdb88185b5bdd5b9d606a1b606082015260800190565b60208082526011908201527029ba30b93a32b22a3930b739b4ba34b7b760791b604082015260600190565b60208082526039908201527f556e697265703a2073686f756c64207375626d697420612070726f6f6620776860408201527f696368206d6174636865732063757272656e742065706f636800000000000000606082015260800190565b6020808252601a908201527f556e697265703a20696e76616c69642061747465737465724964000000000000604082015260600190565b602080825260149082015273105d1d195cdd185d1a5bdb94dd589b5a5d1d195960621b604082015260600190565b60208082526022908201527f556e697265703a20696e76616c6964206174746573746174696f6e206e656752604082015261065760f41b606082015260800190565b6020808252601d908201527f556e697265703a206d69736d6174636865642061747465737465724964000000604082015260600190565b6020808252603c908201527f556e697265703a2065616368207075626c6963207369676e616c206d7573742060408201527f6265206c742074686520736e61726b207363616c6172206669656c6400000000606082015260800190565b60208082526028908201527f556e697265703a20696e76616c6964206e756d626572206f662065706b206e756040820152676c6c69666965727360c01b606082015260800190565b6020808252600a90820152690557365725369676e55760b41b604082015260600190565b60208082526022908201527f556e697265703a20696e76616c6964206174746573746174696f6e207369676e604082015261055760f41b606082015260800190565b600060a082019050823582526020830135602083015260408301356040830152606083013560608301526080830135608083015292915050565b6000610200855183526020860151602084015260408601516040840152606086015160608401526080860151608084015260a086015160a084015260c086015160c084015260e08601516147b060e0850182613c1c565b506101e0830181905282018390526102206001600160fb1b038411156147d4578182fd5b60208402808683860137929092019091019081529392505050565b90815260200190565b8281526101208101610100836020840137600081529392505050565b600083825260406020830152825160408301526020830151606083015260408301516080830152606083015160a0830152608083015161485760c0840182613c1c565b5060a08301516101e0806101c0850152614875610220850183613c3f565b915060c0850151603f198086850301838701526148928483613c3f565b935060e08701519250808685030161020087015250506148b28282613c3f565b9695505050505050565b93845260208401929092526040830152606082015260800190565b60ff91909116815260200190565b60ff948516815292841660208401529083166040830152909116606082015260800190565b6000821982111561491d5761491d614a09565b500190565b600060ff821660ff84168060ff0382111561493f5761493f614a09565b019392505050565b60008261495657614956614a1f565b500490565b600081600019048311821515161561497557614975614a09565b500290565b600060ff821660ff84168160ff048111821515161561499b5761499b614a09565b029392505050565b6000828210156149b5576149b5614a09565b500390565b60006000198214156149ce576149ce614a09565b5060010190565b600060ff821660ff8114156149ec576149ec614a09565b60010192915050565b600082614a0457614a04614a1f565b500690565b634e487b7160e01b600052601160045260246000fd5b634e487b7160e01b600052601260045260246000fd5b634e487b7160e01b600052604160045260246000fdfe30644e72e131a029b85045b68181585d2833e84879b9709143e1f593f00000010dcdd84eeab9fd262751c1bd37b2a03e271f2666bf2525092aab5f34fd72202ba264697066735822122015141ce48e6dad68c1ac92cdc2dcd8ae767352544a91c371560ba91b4f2f349964736f6c63430008000033",
  "linkReferences": {
    "contracts/Poseidon.sol": {
      "PoseidonT3": [
        {
          "length": 20,
          "start": 1293
        },
        {
          "length": 20,
          "start": 10072
        }
      ],
      "PoseidonT6": [
        {
          "length": 20,
          "start": 972
        },
        {
          "length": 20,
          "start": 11155
        }
      ]
    }
  },
  "deployedLinkReferences": {
    "contracts/Poseidon.sol": {
      "PoseidonT3": [
        {
          "length": 20,
          "start": 7152
        }
      ],
      "PoseidonT6": [
        {
          "length": 20,
          "start": 8235
        }
      ]
    }
  }
}