{
  "_format": "hh-sol-artifact-1",
  "contractName": "Unirep",
  "sourceName": "contracts/Unirep.sol",
  "abi": [
    {
      "inputs": [
        {
          "components": [
            {
              "internalType": "uint8",
              "name": "globalStateTreeDepth",
              "type": "uint8"
            },
            {
              "internalType": "uint8",
              "name": "userStateTreeDepth",
              "type": "uint8"
            },
            {
              "internalType": "uint8",
              "name": "epochTreeDepth",
              "type": "uint8"
            }
          ],
          "internalType": "struct UnirepParameters.TreeDepths",
          "name": "_treeDepths",
          "type": "tuple"
        },
        {
          "components": [
            {
              "internalType": "uint256",
              "name": "maxUsers",
              "type": "uint256"
            },
            {
              "internalType": "uint256",
              "name": "maxAttesters",
              "type": "uint256"
            }
          ],
          "internalType": "struct UnirepParameters.MaxValues",
          "name": "_maxValues",
          "type": "tuple"
        },
        {
          "internalType": "contract EpochKeyValidityVerifier",
          "name": "_epkValidityVerifier",
          "type": "address"
        },
        {
          "internalType": "contract StartTransitionVerifier",
          "name": "_startTransitionVerifier",
          "type": "address"
        },
        {
          "internalType": "contract ProcessAttestationsVerifier",
          "name": "_processAttestationsVerifier",
          "type": "address"
        },
        {
          "internalType": "contract UserStateTransitionVerifier",
          "name": "_userStateTransitionVerifier",
          "type": "address"
        },
        {
          "internalType": "contract ReputationVerifier",
          "name": "_reputationVerifier",
          "type": "address"
        },
        {
          "internalType": "contract UserSignUpVerifier",
          "name": "_userSignUpVerifier",
          "type": "address"
        },
        {
          "internalType": "uint8",
          "name": "_numEpochKeyNoncePerEpoch",
          "type": "uint8"
        },
        {
          "internalType": "uint8",
          "name": "_maxReputationBudget",
          "type": "uint8"
        },
        {
          "internalType": "uint256",
          "name": "_epochLength",
          "type": "uint256"
        },
        {
          "internalType": "uint256",
          "name": "_attestingFee",
          "type": "uint256"
        }
      ],
      "stateMutability": "nonpayable",
      "type": "constructor"
    },
    {
      "anonymous": false,
      "inputs": [
        {
          "indexed": true,
          "internalType": "uint256",
          "name": "_epoch",
          "type": "uint256"
        },
        {
          "indexed": true,
          "internalType": "uint256",
          "name": "_epochKey",
          "type": "uint256"
        },
        {
          "indexed": true,
          "internalType": "address",
          "name": "_attester",
          "type": "address"
        },
        {
          "indexed": false,
          "internalType": "string",
          "name": "_event",
          "type": "string"
        },
        {
          "components": [
            {
              "internalType": "uint256",
              "name": "attesterId",
              "type": "uint256"
            },
            {
              "internalType": "uint256",
              "name": "posRep",
              "type": "uint256"
            },
            {
              "internalType": "uint256",
              "name": "negRep",
              "type": "uint256"
            },
            {
              "internalType": "uint256",
              "name": "graffiti",
              "type": "uint256"
            },
            {
              "internalType": "uint256",
              "name": "signUp",
              "type": "uint256"
            }
          ],
          "indexed": false,
          "internalType": "struct DomainObjs.Attestation",
          "name": "attestation",
          "type": "tuple"
        },
        {
          "indexed": false,
          "internalType": "uint256",
          "name": "_proofIndex",
          "type": "uint256"
        }
      ],
      "name": "AttestationSubmitted",
      "type": "event"
    },
    {
      "anonymous": false,
      "inputs": [
        {
          "indexed": true,
          "internalType": "uint256",
          "name": "_epoch",
          "type": "uint256"
        }
      ],
      "name": "EpochEnded",
      "type": "event"
    },
    {
      "anonymous": false,
      "inputs": [
        {
          "indexed": true,
          "internalType": "uint256",
          "name": "_proofIndex",
          "type": "uint256"
        },
        {
          "indexed": true,
          "internalType": "uint256",
          "name": "_epoch",
          "type": "uint256"
        },
        {
          "indexed": true,
          "internalType": "uint256",
          "name": "_epochKey",
          "type": "uint256"
        },
        {
          "components": [
            {
              "internalType": "uint256",
              "name": "globalStateTree",
              "type": "uint256"
            },
            {
              "internalType": "uint256",
              "name": "epoch",
              "type": "uint256"
            },
            {
              "internalType": "uint256",
              "name": "epochKey",
              "type": "uint256"
            },
            {
              "internalType": "uint256[8]",
              "name": "proof",
              "type": "uint256[8]"
            }
          ],
          "indexed": false,
          "internalType": "struct UnirepParameters.EpochKeyProofRelated",
          "name": "epochKeyProofData",
          "type": "tuple"
        }
      ],
      "name": "EpochKeyProof",
      "type": "event"
    },
    {
      "anonymous": false,
      "inputs": [
        {
          "indexed": true,
          "internalType": "uint256",
          "name": "_epoch",
          "type": "uint256"
        },
        {
          "indexed": false,
          "internalType": "uint256",
          "name": "_hashedLeaf",
          "type": "uint256"
        },
        {
          "indexed": false,
          "internalType": "uint256",
          "name": "_proofIndex",
          "type": "uint256"
        }
      ],
      "name": "NewGSTLeafInserted",
      "type": "event"
    },
    {
      "anonymous": false,
      "inputs": [
        {
          "indexed": true,
          "internalType": "uint256",
          "name": "_proofIndex",
          "type": "uint256"
        },
        {
          "indexed": true,
          "internalType": "uint256",
          "name": "_inputBlindedUserState",
          "type": "uint256"
        },
        {
          "indexed": false,
          "internalType": "uint256",
          "name": "_outputBlindedUserState",
          "type": "uint256"
        },
        {
          "indexed": false,
          "internalType": "uint256",
          "name": "_outputBlindedHashChain",
          "type": "uint256"
        },
        {
          "indexed": false,
          "internalType": "uint256[8]",
          "name": "_proof",
          "type": "uint256[8]"
        }
      ],
      "name": "ProcessedAttestationsProof",
      "type": "event"
    },
    {
      "anonymous": false,
      "inputs": [
        {
          "indexed": true,
          "internalType": "uint256",
          "name": "_proofIndex",
          "type": "uint256"
        },
        {
          "indexed": true,
          "internalType": "uint256",
          "name": "_epoch",
          "type": "uint256"
        },
        {
          "indexed": true,
          "internalType": "uint256",
          "name": "_epochKey",
          "type": "uint256"
        },
        {
          "components": [
            {
              "internalType": "uint256[]",
              "name": "repNullifiers",
              "type": "uint256[]"
            },
            {
              "internalType": "uint256",
              "name": "epoch",
              "type": "uint256"
            },
            {
              "internalType": "uint256",
              "name": "epochKey",
              "type": "uint256"
            },
            {
              "internalType": "uint256",
              "name": "globalStateTree",
              "type": "uint256"
            },
            {
              "internalType": "uint256",
              "name": "attesterId",
              "type": "uint256"
            },
            {
              "internalType": "uint256",
              "name": "proveReputationAmount",
              "type": "uint256"
            },
            {
              "internalType": "uint256",
              "name": "minRep",
              "type": "uint256"
            },
            {
              "internalType": "uint256",
              "name": "proveGraffiti",
              "type": "uint256"
            },
            {
              "internalType": "uint256",
              "name": "graffitiPreImage",
              "type": "uint256"
            },
            {
              "internalType": "uint256[8]",
              "name": "proof",
              "type": "uint256[8]"
            }
          ],
          "indexed": false,
          "internalType": "struct UnirepParameters.ReputationProofRelated",
          "name": "reputationProofData",
          "type": "tuple"
        }
      ],
      "name": "ReputationNullifierProof",
      "type": "event"
    },
    {
      "anonymous": false,
      "inputs": [
        {
          "indexed": true,
          "internalType": "uint256",
          "name": "_epoch",
          "type": "uint256"
        },
        {
          "indexed": false,
          "internalType": "string",
          "name": "_event",
          "type": "string"
        }
      ],
      "name": "Sequencer",
      "type": "event"
    },
    {
      "anonymous": false,
      "inputs": [
        {
          "indexed": true,
          "internalType": "uint256",
          "name": "_proofIndex",
          "type": "uint256"
        },
        {
          "indexed": true,
          "internalType": "uint256",
          "name": "_blindedUserState",
          "type": "uint256"
        },
        {
          "indexed": true,
          "internalType": "uint256",
          "name": "_globalStateTree",
          "type": "uint256"
        },
        {
          "indexed": false,
          "internalType": "uint256",
          "name": "_blindedHashChain",
          "type": "uint256"
        },
        {
          "indexed": false,
          "internalType": "uint256[8]",
          "name": "_proof",
          "type": "uint256[8]"
        }
      ],
      "name": "StartedTransitionProof",
      "type": "event"
    },
    {
      "anonymous": false,
      "inputs": [
        {
          "indexed": true,
          "internalType": "uint256",
          "name": "_proofIndex",
          "type": "uint256"
        },
        {
          "indexed": false,
          "internalType": "uint256",
          "name": "_identityCommitment",
          "type": "uint256"
        },
        {
          "indexed": false,
          "internalType": "uint256",
          "name": "_attesterId",
          "type": "uint256"
        },
        {
          "indexed": false,
          "internalType": "uint256",
          "name": "_airdropAmount",
          "type": "uint256"
        }
      ],
      "name": "UserSignUp",
      "type": "event"
    },
    {
      "anonymous": false,
      "inputs": [
        {
          "indexed": true,
          "internalType": "uint256",
          "name": "_proofIndex",
          "type": "uint256"
        },
        {
          "indexed": true,
          "internalType": "uint256",
          "name": "_epoch",
          "type": "uint256"
        },
        {
          "indexed": true,
          "internalType": "uint256",
          "name": "_epochKey",
          "type": "uint256"
        },
        {
          "components": [
            {
              "internalType": "uint256",
              "name": "epoch",
              "type": "uint256"
            },
            {
              "internalType": "uint256",
              "name": "epochKey",
              "type": "uint256"
            },
            {
              "internalType": "uint256",
              "name": "globalStateTree",
              "type": "uint256"
            },
            {
              "internalType": "uint256",
              "name": "attesterId",
              "type": "uint256"
            },
            {
              "internalType": "uint256",
              "name": "userHasSignedUp",
              "type": "uint256"
            },
            {
              "internalType": "uint256[8]",
              "name": "proof",
              "type": "uint256[8]"
            }
          ],
          "indexed": false,
          "internalType": "struct UnirepParameters.SignUpProofRelated",
          "name": "signUpProofData",
          "type": "tuple"
        }
      ],
      "name": "UserSignedUpProof",
      "type": "event"
    },
    {
      "anonymous": false,
      "inputs": [
        {
          "indexed": true,
          "internalType": "uint256",
          "name": "_proofIndex",
          "type": "uint256"
        },
        {
          "components": [
            {
              "internalType": "uint256",
              "name": "newGlobalStateTreeLeaf",
              "type": "uint256"
            },
            {
              "internalType": "uint256[]",
              "name": "epkNullifiers",
              "type": "uint256[]"
            },
            {
              "internalType": "uint256",
              "name": "transitionFromEpoch",
              "type": "uint256"
            },
            {
              "internalType": "uint256[]",
              "name": "blindedUserStates",
              "type": "uint256[]"
            },
            {
              "internalType": "uint256",
              "name": "fromGlobalStateTree",
              "type": "uint256"
            },
            {
              "internalType": "uint256[]",
              "name": "blindedHashChains",
              "type": "uint256[]"
            },
            {
              "internalType": "uint256",
              "name": "fromEpochTree",
              "type": "uint256"
            },
            {
              "internalType": "uint256[8]",
              "name": "proof",
              "type": "uint256[8]"
            }
          ],
          "indexed": false,
          "internalType": "struct UnirepParameters.UserTransitionedRelated",
          "name": "userTransitionedData",
          "type": "tuple"
        },
        {
          "indexed": false,
          "internalType": "uint256[]",
          "name": "_proofIndexRecords",
          "type": "uint256[]"
        }
      ],
      "name": "UserStateTransitionProof",
      "type": "event"
    },
    {
      "inputs": [
        {
          "internalType": "address",
          "name": "",
          "type": "address"
        }
      ],
      "name": "airdropAmount",
      "outputs": [
        {
          "internalType": "uint256",
          "name": "",
          "type": "uint256"
        }
      ],
      "stateMutability": "view",
      "type": "function"
    },
    {
      "inputs": [
        {
          "components": [
            {
              "internalType": "uint256",
              "name": "epoch",
              "type": "uint256"
            },
            {
              "internalType": "uint256",
              "name": "epochKey",
              "type": "uint256"
            },
            {
              "internalType": "uint256",
              "name": "globalStateTree",
              "type": "uint256"
            },
            {
              "internalType": "uint256",
              "name": "attesterId",
              "type": "uint256"
            },
            {
              "internalType": "uint256",
              "name": "userHasSignedUp",
              "type": "uint256"
            },
            {
              "internalType": "uint256[8]",
              "name": "proof",
              "type": "uint256[8]"
            }
          ],
          "internalType": "struct UnirepParameters.SignUpProofRelated",
          "name": "signUpProofData",
          "type": "tuple"
        }
      ],
      "name": "airdropEpochKey",
      "outputs": [],
      "stateMutability": "payable",
      "type": "function"
    },
    {
      "inputs": [],
      "name": "attesterSignUp",
      "outputs": [],
      "stateMutability": "nonpayable",
      "type": "function"
    },
    {
      "inputs": [
        {
          "internalType": "address",
          "name": "attester",
          "type": "address"
        },
        {
          "internalType": "bytes",
          "name": "signature",
          "type": "bytes"
        }
      ],
      "name": "attesterSignUpViaRelayer",
      "outputs": [],
      "stateMutability": "nonpayable",
      "type": "function"
    },
    {
      "inputs": [
        {
          "internalType": "address",
          "name": "",
          "type": "address"
        }
      ],
      "name": "attesters",
      "outputs": [
        {
          "internalType": "uint256",
          "name": "",
          "type": "uint256"
        }
      ],
      "stateMutability": "view",
      "type": "function"
    },
    {
      "inputs": [],
      "name": "attestingFee",
      "outputs": [
        {
          "internalType": "uint256",
          "name": "",
          "type": "uint256"
        }
      ],
      "stateMutability": "view",
      "type": "function"
    },
    {
      "inputs": [],
      "name": "beginEpochTransition",
      "outputs": [],
      "stateMutability": "nonpayable",
      "type": "function"
    },
    {
      "inputs": [],
      "name": "burnAttestingFee",
      "outputs": [],
      "stateMutability": "nonpayable",
      "type": "function"
    },
    {
      "inputs": [
        {
          "internalType": "uint256",
          "name": "_leafIndex",
          "type": "uint256"
        },
        {
          "internalType": "uint256",
          "name": "_leafValue",
          "type": "uint256"
        }
      ],
      "name": "calcAirdropUSTRoot",
      "outputs": [
        {
          "internalType": "uint256",
          "name": "",
          "type": "uint256"
        }
      ],
      "stateMutability": "view",
      "type": "function"
    },
    {
      "inputs": [],
      "name": "collectEpochTransitionCompensation",
      "outputs": [],
      "stateMutability": "nonpayable",
      "type": "function"
    },
    {
      "inputs": [],
      "name": "collectedAttestingFee",
      "outputs": [
        {
          "internalType": "uint256",
          "name": "",
          "type": "uint256"
        }
      ],
      "stateMutability": "view",
      "type": "function"
    },
    {
      "inputs": [
        {
          "internalType": "uint8",
          "name": "_treeLevels",
          "type": "uint8"
        },
        {
          "internalType": "uint256",
          "name": "_zeroValue",
          "type": "uint256"
        }
      ],
      "name": "computeEmptyRoot",
      "outputs": [
        {
          "internalType": "uint256",
          "name": "",
          "type": "uint256"
        }
      ],
      "stateMutability": "pure",
      "type": "function"
    },
    {
      "inputs": [
        {
          "internalType": "uint8",
          "name": "_treeLevels",
          "type": "uint8"
        },
        {
          "internalType": "uint256",
          "name": "_leafIndex",
          "type": "uint256"
        },
        {
          "internalType": "uint256",
          "name": "_leafValue",
          "type": "uint256"
        },
        {
          "internalType": "uint256",
          "name": "_zeroValue",
          "type": "uint256"
        }
      ],
      "name": "computeOneNonZeroLeafRoot",
      "outputs": [
        {
          "internalType": "uint256",
          "name": "",
          "type": "uint256"
        }
      ],
      "stateMutability": "pure",
      "type": "function"
    },
    {
      "inputs": [],
      "name": "currentEpoch",
      "outputs": [
        {
          "internalType": "uint256",
          "name": "",
          "type": "uint256"
        }
      ],
      "stateMutability": "view",
      "type": "function"
    },
    {
      "inputs": [],
      "name": "emptyGlobalStateTreeRoot",
      "outputs": [
        {
          "internalType": "uint256",
          "name": "",
          "type": "uint256"
        }
      ],
      "stateMutability": "view",
      "type": "function"
    },
    {
      "inputs": [],
      "name": "emptyUserStateRoot",
      "outputs": [
        {
          "internalType": "uint256",
          "name": "",
          "type": "uint256"
        }
      ],
      "stateMutability": "view",
      "type": "function"
    },
    {
      "inputs": [],
      "name": "epochLength",
      "outputs": [
        {
          "internalType": "uint256",
          "name": "",
          "type": "uint256"
        }
      ],
      "stateMutability": "view",
      "type": "function"
    },
    {
      "inputs": [
        {
          "internalType": "address",
          "name": "",
          "type": "address"
        }
      ],
      "name": "epochTransitionCompensation",
      "outputs": [
        {
          "internalType": "uint256",
          "name": "",
          "type": "uint256"
        }
      ],
      "stateMutability": "view",
      "type": "function"
    },
    {
      "inputs": [
        {
          "internalType": "bytes32",
          "name": "",
          "type": "bytes32"
        }
      ],
      "name": "getProofIndex",
      "outputs": [
        {
          "internalType": "uint256",
          "name": "",
          "type": "uint256"
        }
      ],
      "stateMutability": "view",
      "type": "function"
    },
    {
      "inputs": [
        {
          "internalType": "uint256",
          "name": "",
          "type": "uint256"
        }
      ],
      "name": "hasUserSignedUp",
      "outputs": [
        {
          "internalType": "bool",
          "name": "",
          "type": "bool"
        }
      ],
      "stateMutability": "view",
      "type": "function"
    },
    {
      "inputs": [
        {
          "internalType": "uint256[5]",
          "name": "array",
          "type": "uint256[5]"
        }
      ],
      "name": "hash5",
      "outputs": [
        {
          "internalType": "uint256",
          "name": "",
          "type": "uint256"
        }
      ],
      "stateMutability": "pure",
      "type": "function"
    },
    {
      "inputs": [
        {
          "internalType": "uint256",
          "name": "airdropPosRep",
          "type": "uint256"
        }
      ],
      "name": "hashAirdroppedLeaf",
      "outputs": [
        {
          "internalType": "uint256",
          "name": "",
          "type": "uint256"
        }
      ],
      "stateMutability": "pure",
      "type": "function"
    },
    {
      "inputs": [
        {
          "components": [
            {
              "internalType": "uint256",
              "name": "globalStateTree",
              "type": "uint256"
            },
            {
              "internalType": "uint256",
              "name": "epoch",
              "type": "uint256"
            },
            {
              "internalType": "uint256",
              "name": "epochKey",
              "type": "uint256"
            },
            {
              "internalType": "uint256[8]",
              "name": "proof",
              "type": "uint256[8]"
            }
          ],
          "internalType": "struct UnirepParameters.EpochKeyProofRelated",
          "name": "epochKeyProofData",
          "type": "tuple"
        }
      ],
      "name": "hashEpochKeyProof",
      "outputs": [
        {
          "internalType": "bytes32",
          "name": "",
          "type": "bytes32"
        }
      ],
      "stateMutability": "pure",
      "type": "function"
    },
    {
      "inputs": [
        {
          "internalType": "uint256",
          "name": "_left",
          "type": "uint256"
        },
        {
          "internalType": "uint256",
          "name": "_right",
          "type": "uint256"
        }
      ],
      "name": "hashLeftRight",
      "outputs": [
        {
          "internalType": "uint256",
          "name": "",
          "type": "uint256"
        }
      ],
      "stateMutability": "pure",
      "type": "function"
    },
    {
      "inputs": [
        {
          "internalType": "uint256",
          "name": "_outputBlindedUserState",
          "type": "uint256"
        },
        {
          "internalType": "uint256",
          "name": "_outputBlindedHashChain",
          "type": "uint256"
        },
        {
          "internalType": "uint256",
          "name": "_inputBlindedUserState",
          "type": "uint256"
        },
        {
          "internalType": "uint256[8]",
          "name": "_proof",
          "type": "uint256[8]"
        }
      ],
      "name": "hashProcessAttestationsProof",
      "outputs": [
        {
          "internalType": "bytes32",
          "name": "",
          "type": "bytes32"
        }
      ],
      "stateMutability": "pure",
      "type": "function"
    },
    {
      "inputs": [
        {
          "components": [
            {
              "internalType": "uint256[]",
              "name": "repNullifiers",
              "type": "uint256[]"
            },
            {
              "internalType": "uint256",
              "name": "epoch",
              "type": "uint256"
            },
            {
              "internalType": "uint256",
              "name": "epochKey",
              "type": "uint256"
            },
            {
              "internalType": "uint256",
              "name": "globalStateTree",
              "type": "uint256"
            },
            {
              "internalType": "uint256",
              "name": "attesterId",
              "type": "uint256"
            },
            {
              "internalType": "uint256",
              "name": "proveReputationAmount",
              "type": "uint256"
            },
            {
              "internalType": "uint256",
              "name": "minRep",
              "type": "uint256"
            },
            {
              "internalType": "uint256",
              "name": "proveGraffiti",
              "type": "uint256"
            },
            {
              "internalType": "uint256",
              "name": "graffitiPreImage",
              "type": "uint256"
            },
            {
              "internalType": "uint256[8]",
              "name": "proof",
              "type": "uint256[8]"
            }
          ],
          "internalType": "struct UnirepParameters.ReputationProofRelated",
          "name": "reputationProofData",
          "type": "tuple"
        }
      ],
      "name": "hashReputationProof",
      "outputs": [
        {
          "internalType": "bytes32",
          "name": "",
          "type": "bytes32"
        }
      ],
      "stateMutability": "pure",
      "type": "function"
    },
    {
      "inputs": [
        {
          "components": [
            {
              "internalType": "uint256",
              "name": "epoch",
              "type": "uint256"
            },
            {
              "internalType": "uint256",
              "name": "epochKey",
              "type": "uint256"
            },
            {
              "internalType": "uint256",
              "name": "globalStateTree",
              "type": "uint256"
            },
            {
              "internalType": "uint256",
              "name": "attesterId",
              "type": "uint256"
            },
            {
              "internalType": "uint256",
              "name": "userHasSignedUp",
              "type": "uint256"
            },
            {
              "internalType": "uint256[8]",
              "name": "proof",
              "type": "uint256[8]"
            }
          ],
          "internalType": "struct UnirepParameters.SignUpProofRelated",
          "name": "signUpProofData",
          "type": "tuple"
        }
      ],
      "name": "hashSignUpProof",
      "outputs": [
        {
          "internalType": "bytes32",
          "name": "",
          "type": "bytes32"
        }
      ],
      "stateMutability": "pure",
      "type": "function"
    },
    {
      "inputs": [
        {
          "internalType": "uint256",
          "name": "_blindedUserState",
          "type": "uint256"
        },
        {
          "internalType": "uint256",
          "name": "_blindedHashChain",
          "type": "uint256"
        },
        {
          "internalType": "uint256",
          "name": "_globalStateTree",
          "type": "uint256"
        },
        {
          "internalType": "uint256[8]",
          "name": "_proof",
          "type": "uint256[8]"
        }
      ],
      "name": "hashStartTransitionProof",
      "outputs": [
        {
          "internalType": "bytes32",
          "name": "",
          "type": "bytes32"
        }
      ],
      "stateMutability": "pure",
      "type": "function"
    },
    {
      "inputs": [
        {
          "components": [
            {
              "internalType": "uint256",
              "name": "identityCommitment",
              "type": "uint256"
            },
            {
              "internalType": "uint256",
              "name": "userStateRoot",
              "type": "uint256"
            }
          ],
          "internalType": "struct DomainObjs.StateLeaf",
          "name": "_stateLeaf",
          "type": "tuple"
        }
      ],
      "name": "hashStateLeaf",
      "outputs": [
        {
          "internalType": "uint256",
          "name": "",
          "type": "uint256"
        }
      ],
      "stateMutability": "pure",
      "type": "function"
    },
    {
      "inputs": [
        {
          "components": [
            {
              "internalType": "uint256",
              "name": "newGlobalStateTreeLeaf",
              "type": "uint256"
            },
            {
              "internalType": "uint256[]",
              "name": "epkNullifiers",
              "type": "uint256[]"
            },
            {
              "internalType": "uint256",
              "name": "transitionFromEpoch",
              "type": "uint256"
            },
            {
              "internalType": "uint256[]",
              "name": "blindedUserStates",
              "type": "uint256[]"
            },
            {
              "internalType": "uint256",
              "name": "fromGlobalStateTree",
              "type": "uint256"
            },
            {
              "internalType": "uint256[]",
              "name": "blindedHashChains",
              "type": "uint256[]"
            },
            {
              "internalType": "uint256",
              "name": "fromEpochTree",
              "type": "uint256"
            },
            {
              "internalType": "uint256[8]",
              "name": "proof",
              "type": "uint256[8]"
            }
          ],
          "internalType": "struct UnirepParameters.UserTransitionedRelated",
          "name": "userTransitionedData",
          "type": "tuple"
        }
      ],
      "name": "hashUserStateTransitionProof",
      "outputs": [
        {
          "internalType": "bytes32",
          "name": "",
          "type": "bytes32"
        }
      ],
      "stateMutability": "pure",
      "type": "function"
    },
    {
      "inputs": [],
      "name": "hashedBlankStateLeaf",
      "outputs": [
        {
          "internalType": "uint256",
          "name": "",
          "type": "uint256"
        }
      ],
      "stateMutability": "view",
      "type": "function"
    },
    {
      "inputs": [],
      "name": "latestEpochTransitionTime",
      "outputs": [
        {
          "internalType": "uint256",
          "name": "",
          "type": "uint256"
        }
      ],
      "stateMutability": "view",
      "type": "function"
    },
    {
      "inputs": [],
      "name": "maxAttesters",
      "outputs": [
        {
          "internalType": "uint256",
          "name": "",
          "type": "uint256"
        }
      ],
      "stateMutability": "view",
      "type": "function"
    },
    {
      "inputs": [],
      "name": "maxReputationBudget",
      "outputs": [
        {
          "internalType": "uint8",
          "name": "",
          "type": "uint8"
        }
      ],
      "stateMutability": "view",
      "type": "function"
    },
    {
      "inputs": [],
      "name": "maxUsers",
      "outputs": [
        {
          "internalType": "uint256",
          "name": "",
          "type": "uint256"
        }
      ],
      "stateMutability": "view",
      "type": "function"
    },
    {
      "inputs": [],
      "name": "nextAttesterId",
      "outputs": [
        {
          "internalType": "uint256",
          "name": "",
          "type": "uint256"
        }
      ],
      "stateMutability": "view",
      "type": "function"
    },
    {
      "inputs": [],
      "name": "numEpochKeyNoncePerEpoch",
      "outputs": [
        {
          "internalType": "uint8",
          "name": "",
          "type": "uint8"
        }
      ],
      "stateMutability": "view",
      "type": "function"
    },
    {
      "inputs": [],
      "name": "numUserSignUps",
      "outputs": [
        {
          "internalType": "uint256",
          "name": "",
          "type": "uint256"
        }
      ],
      "stateMutability": "view",
      "type": "function"
    },
    {
      "inputs": [
        {
          "internalType": "uint256",
          "name": "_outputBlindedUserState",
          "type": "uint256"
        },
        {
          "internalType": "uint256",
          "name": "_outputBlindedHashChain",
          "type": "uint256"
        },
        {
          "internalType": "uint256",
          "name": "_inputBlindedUserState",
          "type": "uint256"
        },
        {
          "internalType": "uint256[8]",
          "name": "_proof",
          "type": "uint256[8]"
        }
      ],
      "name": "processAttestations",
      "outputs": [],
      "stateMutability": "nonpayable",
      "type": "function"
    },
    {
      "inputs": [
        {
          "internalType": "uint256",
          "name": "_airdropAmount",
          "type": "uint256"
        }
      ],
      "name": "setAirdropAmount",
      "outputs": [],
      "stateMutability": "nonpayable",
      "type": "function"
    },
    {
      "inputs": [
        {
          "components": [
            {
              "internalType": "uint256[]",
              "name": "repNullifiers",
              "type": "uint256[]"
            },
            {
              "internalType": "uint256",
              "name": "epoch",
              "type": "uint256"
            },
            {
              "internalType": "uint256",
              "name": "epochKey",
              "type": "uint256"
            },
            {
              "internalType": "uint256",
              "name": "globalStateTree",
              "type": "uint256"
            },
            {
              "internalType": "uint256",
              "name": "attesterId",
              "type": "uint256"
            },
            {
              "internalType": "uint256",
              "name": "proveReputationAmount",
              "type": "uint256"
            },
            {
              "internalType": "uint256",
              "name": "minRep",
              "type": "uint256"
            },
            {
              "internalType": "uint256",
              "name": "proveGraffiti",
              "type": "uint256"
            },
            {
              "internalType": "uint256",
              "name": "graffitiPreImage",
              "type": "uint256"
            },
            {
              "internalType": "uint256[8]",
              "name": "proof",
              "type": "uint256[8]"
            }
          ],
          "internalType": "struct UnirepParameters.ReputationProofRelated",
          "name": "reputationProofData",
          "type": "tuple"
        }
      ],
      "name": "spendReputation",
      "outputs": [],
      "stateMutability": "payable",
      "type": "function"
    },
    {
      "inputs": [
        {
          "internalType": "uint256",
          "name": "_blindedUserState",
          "type": "uint256"
        },
        {
          "internalType": "uint256",
          "name": "_blindedHashChain",
          "type": "uint256"
        },
        {
          "internalType": "uint256",
          "name": "_globalStateTree",
          "type": "uint256"
        },
        {
          "internalType": "uint256[8]",
          "name": "_proof",
          "type": "uint256[8]"
        }
      ],
      "name": "startUserStateTransition",
      "outputs": [],
      "stateMutability": "nonpayable",
      "type": "function"
    },
    {
      "inputs": [
        {
          "components": [
            {
              "internalType": "uint256",
              "name": "attesterId",
              "type": "uint256"
            },
            {
              "internalType": "uint256",
              "name": "posRep",
              "type": "uint256"
            },
            {
              "internalType": "uint256",
              "name": "negRep",
              "type": "uint256"
            },
            {
              "internalType": "uint256",
              "name": "graffiti",
              "type": "uint256"
            },
            {
              "internalType": "uint256",
              "name": "signUp",
              "type": "uint256"
            }
          ],
          "internalType": "struct DomainObjs.Attestation",
          "name": "attestation",
          "type": "tuple"
        },
        {
          "internalType": "uint256",
          "name": "epochKey",
          "type": "uint256"
        },
        {
          "internalType": "uint256",
          "name": "_proofIndex",
          "type": "uint256"
        }
      ],
      "name": "submitAttestation",
      "outputs": [],
      "stateMutability": "payable",
      "type": "function"
    },
    {
      "inputs": [
        {
          "internalType": "address",
          "name": "attester",
          "type": "address"
        },
        {
          "internalType": "bytes",
          "name": "signature",
          "type": "bytes"
        },
        {
          "components": [
            {
              "internalType": "uint256",
              "name": "attesterId",
              "type": "uint256"
            },
            {
              "internalType": "uint256",
              "name": "posRep",
              "type": "uint256"
            },
            {
              "internalType": "uint256",
              "name": "negRep",
              "type": "uint256"
            },
            {
              "internalType": "uint256",
              "name": "graffiti",
              "type": "uint256"
            },
            {
              "internalType": "uint256",
              "name": "signUp",
              "type": "uint256"
            }
          ],
          "internalType": "struct DomainObjs.Attestation",
          "name": "attestation",
          "type": "tuple"
        },
        {
          "internalType": "uint256",
          "name": "epochKey",
          "type": "uint256"
        },
        {
          "internalType": "uint256",
          "name": "_proofIndex",
          "type": "uint256"
        }
      ],
      "name": "submitAttestationViaRelayer",
      "outputs": [],
      "stateMutability": "payable",
      "type": "function"
    },
    {
      "inputs": [
        {
          "components": [
            {
              "internalType": "uint256",
              "name": "globalStateTree",
              "type": "uint256"
            },
            {
              "internalType": "uint256",
              "name": "epoch",
              "type": "uint256"
            },
            {
              "internalType": "uint256",
              "name": "epochKey",
              "type": "uint256"
            },
            {
              "internalType": "uint256[8]",
              "name": "proof",
              "type": "uint256[8]"
            }
          ],
          "internalType": "struct UnirepParameters.EpochKeyProofRelated",
          "name": "epochKeyProofData",
          "type": "tuple"
        }
      ],
      "name": "submitEpochKeyProof",
      "outputs": [],
      "stateMutability": "nonpayable",
      "type": "function"
    },
    {
      "inputs": [],
      "name": "treeDepths",
      "outputs": [
        {
          "internalType": "uint8",
          "name": "globalStateTreeDepth",
          "type": "uint8"
        },
        {
          "internalType": "uint8",
          "name": "userStateTreeDepth",
          "type": "uint8"
        },
        {
          "internalType": "uint8",
          "name": "epochTreeDepth",
          "type": "uint8"
        }
      ],
      "stateMutability": "view",
      "type": "function"
    },
    {
      "inputs": [
        {
          "internalType": "uint256[8]",
          "name": "_proof",
          "type": "uint256[8]"
        }
      ],
      "name": "unpackProof",
      "outputs": [
        {
          "internalType": "uint256[2]",
          "name": "",
          "type": "uint256[2]"
        },
        {
          "internalType": "uint256[2][2]",
          "name": "",
          "type": "uint256[2][2]"
        },
        {
          "internalType": "uint256[2]",
          "name": "",
          "type": "uint256[2]"
        }
      ],
      "stateMutability": "pure",
      "type": "function"
    },
    {
      "inputs": [
        {
          "components": [
            {
              "internalType": "uint256",
              "name": "newGlobalStateTreeLeaf",
              "type": "uint256"
            },
            {
              "internalType": "uint256[]",
              "name": "epkNullifiers",
              "type": "uint256[]"
            },
            {
              "internalType": "uint256",
              "name": "transitionFromEpoch",
              "type": "uint256"
            },
            {
              "internalType": "uint256[]",
              "name": "blindedUserStates",
              "type": "uint256[]"
            },
            {
              "internalType": "uint256",
              "name": "fromGlobalStateTree",
              "type": "uint256"
            },
            {
              "internalType": "uint256[]",
              "name": "blindedHashChains",
              "type": "uint256[]"
            },
            {
              "internalType": "uint256",
              "name": "fromEpochTree",
              "type": "uint256"
            },
            {
              "internalType": "uint256[8]",
              "name": "proof",
              "type": "uint256[8]"
            }
          ],
          "internalType": "struct UnirepParameters.UserTransitionedRelated",
          "name": "userTransitionedData",
          "type": "tuple"
        },
        {
          "internalType": "uint256[]",
          "name": "proofIndexRecords",
          "type": "uint256[]"
        }
      ],
      "name": "updateUserStateRoot",
      "outputs": [],
      "stateMutability": "nonpayable",
      "type": "function"
    },
    {
      "inputs": [
        {
          "internalType": "uint256",
          "name": "_identityCommitment",
          "type": "uint256"
        }
      ],
      "name": "userSignUp",
      "outputs": [],
      "stateMutability": "nonpayable",
      "type": "function"
    },
    {
      "inputs": [
        {
          "internalType": "uint256",
          "name": "_globalStateTree",
          "type": "uint256"
        },
        {
          "internalType": "uint256",
          "name": "_epoch",
          "type": "uint256"
        },
        {
          "internalType": "uint256",
          "name": "_epochKey",
          "type": "uint256"
        },
        {
          "internalType": "uint256[8]",
          "name": "_proof",
          "type": "uint256[8]"
        }
      ],
      "name": "verifyEpochKeyValidity",
      "outputs": [
        {
          "internalType": "bool",
          "name": "",
          "type": "bool"
        }
      ],
      "stateMutability": "view",
      "type": "function"
    },
    {
      "inputs": [
        {
          "internalType": "uint256",
          "name": "_outputBlindedUserState",
          "type": "uint256"
        },
        {
          "internalType": "uint256",
          "name": "_outputBlindedHashChain",
          "type": "uint256"
        },
        {
          "internalType": "uint256",
          "name": "_inputBlindedUserState",
          "type": "uint256"
        },
        {
          "internalType": "uint256[8]",
          "name": "_proof",
          "type": "uint256[8]"
        }
      ],
      "name": "verifyProcessAttestationProof",
      "outputs": [
        {
          "internalType": "bool",
          "name": "",
          "type": "bool"
        }
      ],
      "stateMutability": "view",
      "type": "function"
    },
    {
      "inputs": [
        {
          "internalType": "uint256[]",
          "name": "_repNullifiers",
          "type": "uint256[]"
        },
        {
          "internalType": "uint256",
          "name": "_epoch",
          "type": "uint256"
        },
        {
          "internalType": "uint256",
          "name": "_epochKey",
          "type": "uint256"
        },
        {
          "internalType": "uint256",
          "name": "_globalStateTree",
          "type": "uint256"
        },
        {
          "internalType": "uint256",
          "name": "_attesterId",
          "type": "uint256"
        },
        {
          "internalType": "uint256",
          "name": "_proveReputationAmount",
          "type": "uint256"
        },
        {
          "internalType": "uint256",
          "name": "_minRep",
          "type": "uint256"
        },
        {
          "internalType": "uint256",
          "name": "_proveGraffiti",
          "type": "uint256"
        },
        {
          "internalType": "uint256",
          "name": "_graffitiPreImage",
          "type": "uint256"
        },
        {
          "internalType": "uint256[8]",
          "name": "_proof",
          "type": "uint256[8]"
        }
      ],
      "name": "verifyReputation",
      "outputs": [
        {
          "internalType": "bool",
          "name": "",
          "type": "bool"
        }
      ],
      "stateMutability": "view",
      "type": "function"
    },
    {
      "inputs": [
        {
          "internalType": "uint256",
          "name": "_blindedUserState",
          "type": "uint256"
        },
        {
          "internalType": "uint256",
          "name": "_blindedHashChain",
          "type": "uint256"
        },
        {
          "internalType": "uint256",
          "name": "_GSTRoot",
          "type": "uint256"
        },
        {
          "internalType": "uint256[8]",
          "name": "_proof",
          "type": "uint256[8]"
        }
      ],
      "name": "verifyStartTransitionProof",
      "outputs": [
        {
          "internalType": "bool",
          "name": "",
          "type": "bool"
        }
      ],
      "stateMutability": "view",
      "type": "function"
    },
    {
      "inputs": [
        {
          "internalType": "uint256",
          "name": "_epoch",
          "type": "uint256"
        },
        {
          "internalType": "uint256",
          "name": "_epochKey",
          "type": "uint256"
        },
        {
          "internalType": "uint256",
          "name": "_globalStateTree",
          "type": "uint256"
        },
        {
          "internalType": "uint256",
          "name": "_attesterId",
          "type": "uint256"
        },
        {
          "internalType": "uint256",
          "name": "_userHasSignedUp",
          "type": "uint256"
        },
        {
          "internalType": "uint256[8]",
          "name": "_proof",
          "type": "uint256[8]"
        }
      ],
      "name": "verifyUserSignUp",
      "outputs": [
        {
          "internalType": "bool",
          "name": "",
          "type": "bool"
        }
      ],
      "stateMutability": "view",
      "type": "function"
    },
    {
      "inputs": [
        {
          "internalType": "uint256",
          "name": "_newGlobalStateTreeLeaf",
          "type": "uint256"
        },
        {
          "internalType": "uint256[]",
          "name": "_epkNullifiers",
          "type": "uint256[]"
        },
        {
          "internalType": "uint256",
          "name": "_transitionFromEpoch",
          "type": "uint256"
        },
        {
          "internalType": "uint256[]",
          "name": "_blindedUserStates",
          "type": "uint256[]"
        },
        {
          "internalType": "uint256",
          "name": "_fromGlobalStateTree",
          "type": "uint256"
        },
        {
          "internalType": "uint256[]",
          "name": "_blindedHashChains",
          "type": "uint256[]"
        },
        {
          "internalType": "uint256",
          "name": "_fromEpochTree",
          "type": "uint256"
        },
        {
          "internalType": "uint256[8]",
          "name": "_proof",
          "type": "uint256[8]"
        }
      ],
      "name": "verifyUserStateTransition",
      "outputs": [
        {
          "internalType": "bool",
          "name": "",
          "type": "bool"
        }
      ],
      "stateMutability": "view",
      "type": "function"
    }
  ],
  "bytecode": "0x6101606040527f30644e72e131a029b85045b68181585d2833e84879b9709143e1f593f00000016200003361018062000789565b6040516020818303038152906040528051906020012060001c62000058919062000a7d565b60005560016007556000600a556001600b5560016012553480156200007c57600080fd5b50604051620060a7380380620060a78339810160408190526200009f9162000646565b8b601460008201518160000160006101000a81548160ff021916908360ff16021790555060208201518160000160016101000a81548160ff021916908360ff16021790555060408201518160000160026101000a81548160ff021916908360ff16021790555090505089600160006101000a8154816001600160a01b0302191690836001600160a01b0316021790555088600260006101000a8154816001600160a01b0302191690836001600160a01b0316021790555087600360006101000a8154816001600160a01b0302191690836001600160a01b0316021790555086600460006101000a8154816001600160a01b0302191690836001600160a01b0316021790555085600560006101000a8154816001600160a01b0302191690836001600160a01b0316021790555084600660006101000a8154816001600160a01b0302191690836001600160a01b031602179055508360ff1660c08160ff1660f81b815250508260ff1660e08160ff1660f81b8152505081608081815250504260088190555033600c60006101000a8154816001600160a01b0302191690836001600160a01b03160217905550600060018d60000151600262000261919062000948565b6200026d919062000a40565b9050808c6000015111156200029f5760405162461bcd60e51b815260040162000296906200084a565b60405180910390fd5b8b516101005260208d0151600090600190620002bd90600262000948565b620002c9919062000a40565b9050808d602001511115620002f25760405162461bcd60e51b8152600401620002969062000881565b6020808e0151610120528e01516200030a9062000335565b6009558d516200031a90620003b7565b60a0525050610140525062000ab49950505050505050505050565b600062000341620005ac565b60005b60058160ff16101562000391576000828260ff16600581106200037757634e487b7160e01b600052603260045260246000fd5b602002015280620003888162000a5a565b91505062000344565b5060006200039f82620003db565b9050620003ad848262000471565b925050505b919050565b604080518082019091526000808252600954602083015290816200039f82620004f9565b604051630926f44b60e31b815260009073__$223301b175b06473d424a7afc957d4e96c$__90634937a2589062000417908590600401620007ce565b60206040518083038186803b1580156200043057600080fd5b505af415801562000445573d6000803e3d6000fd5b505050506040513d601f19601f820116820180604052508101906200046b919062000770565b92915050565b6000808360ff161180156200048b57506101008360ff1611155b620004aa5760405162461bcd60e51b81526004016200029690620007f8565b8160015b8460ff168160ff161015620004e4576000620004cb838062000509565b9250819050620004db8162000a5a565b915050620004ae565b50620004f1818062000509565b949350505050565b805160208201516000916200046b915b600062000515620005ca565b838152602081018390526040516314d2f97b60e11b815273__$86e0c54df1042e28bf2dd20ccf184dc428$__906329a5f2f690620005589084906004016200079b565b60206040518083038186803b1580156200057157600080fd5b505af415801562000586573d6000803e3d6000fd5b505050506040513d601f19601f82011682018060405250810190620004f1919062000770565b6040518060a001604052806005906020820280368337509192915050565b60405180604001604052806002906020820280368337509192915050565b80516001600160a01b0381168114620003b257600080fd5b60006040828403121562000612578081fd5b6200061e6040620008c3565b9050815181526020820151602082015292915050565b805160ff81168114620003b257600080fd5b6000806000806000806000806000806000808c8e036101e08112156200066a578889fd5b606081121562000678578889fd5b50620006856060620008c3565b620006908e62000634565b8152620006a060208f0162000634565b6020820152620006b360408f0162000634565b60408201529b50620006c98e60608f0162000600565b9a50620006d960a08e01620005e8565b9950620006e960c08e01620005e8565b9850620006f960e08e01620005e8565b97506200070a6101008e01620005e8565b96506200071b6101208e01620005e8565b95506200072c6101408e01620005e8565b94506200073d6101608e0162000634565b93506200074e6101808e0162000634565b92506101a08d015191506101c08d015190509295989b509295989b509295989b565b60006020828403121562000782578081fd5b5051919050565b650556e697265760d41b815260060190565b60408101818360005b6002811015620007c5578151835260209283019290910190600101620007a4565b50505092915050565b60a08101818360005b6005811015620007c5578151835260209283019290910190600101620007d7565b60208082526032908201527f436f6d70757465526f6f743a205f747265654c6576656c73206d757374206265604082015271103132ba3bb2b2b710181030b73210191a9b60711b606082015260800190565b6020808252601e908201527f556e697265703a20696e76616c6964206d617855736572732076616c75650000604082015260600190565b60208082526022908201527f556e697265703a20696e76616c6964206d61784174746573746572732076616c604082015261756560f01b606082015260800190565b6040518181016001600160401b0381118282101715620008f357634e487b7160e01b600052604160045260246000fd5b604052919050565b80825b60018086116200090f57506200093f565b81870482111562000924576200092462000a9e565b808616156200093257918102915b9490941c938002620008fe565b94509492505050565b60006200095c60001960ff85168462000963565b9392505050565b60008262000974575060016200095c565b8162000983575060006200095c565b81600181146200099c5760028114620009a757620009db565b60019150506200095c565b60ff841115620009bb57620009bb62000a9e565b6001841b915084821115620009d457620009d462000a9e565b506200095c565b5060208310610133831016604e8410600b841016171562000a13575081810a8381111562000a0d5762000a0d62000a9e565b6200095c565b62000a228484846001620008fb565b80860482111562000a375762000a3762000a9e565b02949350505050565b60008282101562000a555762000a5562000a9e565b500390565b600060ff821660ff81141562000a745762000a7462000a9e565b60010192915050565b60008262000a9957634e487b7160e01b81526012600452602481fd5b500690565b634e487b7160e01b600052601160045260246000fd5b60805160a05160c05160f81c60e05160f81c6101005161012051610140516154c762000be060003960008181610a3701528181611a0901528181611cc601528181611e04015261272201526000818161163d01528181611ed9015261306401526000818161118801526129b0015260008181610bd601528181610c7101528181610cc301528181610d1c01528181610d7501528181610dce01528181610e2701528181610e8001528181610ed901528181611a4d0152612846015260008181611383015281816113ef015281816122ac015281816129f901528181612ab101528181612b5b01528181612bd901528181612c5c01528181612cba01528181612d1201528181612d6c0152612de7015260006120a40152600081816116a701526128b201526154c76000f3fe60806040526004361061034f5760003560e01c80639cfced97116101c6578063bff3df41116100f7578063e79e23e911610095578063f5ab0dd61161006f578063f5ab0dd6146108fb578063f73c8ebb1461092a578063fadd942d1461094a578063fc14478a1461095f5761034f565b8063e79e23e9146108a6578063e87101b1146108c6578063f20ca7ff146108db5761034f565b8063cd5032e2116100d1578063cd5032e21461083c578063d3aa645b1461085c578063de7238861461087c578063e1b0e802146108915761034f565b8063bff3df41146107ff578063c263967314610812578063c6e01232146108275761034f565b8063a7c264ca11610164578063ad944e471161013e578063ad944e471461077f578063b530dc8c1461079f578063b876ed71146107bf578063be997571146107df5761034f565b8063a7c264ca14610724578063a7ebaa7514610746578063ac98e5df1461075b5761034f565b8063a27e572a116101a0578063a27e572a146106ba578063a3836b20146106cf578063a5500c30146106e4578063a710d60f146107045761034f565b80639cfced971461065a5780639e2e79dc1461067a578063a14a9fe21461069a5761034f565b806357d775f8116102a0578063766718081161023e57806385c053ae1161021857806385c053ae146105fd5780639109d1eb14610610578063918f0c161461062557806398588c1f1461063a5761034f565b806376671808146105b3578063839beeb8146105c857806383e168ad146105dd5761034f565b8063606736fb1161027a578063606736fb1461054b57806366c0f31f1461055e578063705edd391461057e5780637341ead9146105935761034f565b806357d775f8146104f65780635b3745b51461050b5780635bb939951461052b5761034f565b80632b95f97e1161030d578063417b16e3116102e7578063417b16e314610481578063494e2171146104a15780634edc9ace146104c157806356df4634146104e15761034f565b80632b95f97e146104215780633334dc5b146104415780633acce985146104615761034f565b806292ad661461035457806305d9ab821461036957806307d833081461039f578063131a91ad146103b4578063132331f2146103d45780631c89e8e8146103f4575b600080fd5b610367610362366004613b5e565b61097f565b005b34801561037557600080fd5b50610389610384366004613de1565b610afc565b60405161039691906145e2565b60405180910390f35b3480156103ab57600080fd5b50610389610b43565b3480156103c057600080fd5b506103896103cf366004613af4565b610b49565b3480156103e057600080fd5b506103896103ef366004613d28565b610b5b565b34801561040057600080fd5b5061041461040f366004613d28565b610b6d565b60405161039691906145d7565b34801561042d57600080fd5b5061038961043c366004613d28565b610b82565b34801561044d57600080fd5b5061041461045c366004613c67565b610ba9565b34801561046d57600080fd5b5061038961047c366004614155565b61108e565b34801561048d57600080fd5b5061036761049c366004613d28565b611114565b3480156104ad57600080fd5b506103676104bc36600461401e565b611322565b3480156104cd57600080fd5b506103896104dc36600461423d565b61159a565b3480156104ed57600080fd5b5061036761160e565b34801561050257600080fd5b506103896116a5565b34801561051757600080fd5b50610414610526366004614176565b6116c9565b34801561053757600080fd5b50610389610546366004614155565b6118d4565b610367610559366004613e4b565b61196f565b34801561056a57600080fd5b50610367610579366004613de1565b611bb4565b34801561058a57600080fd5b50610389611c83565b34801561059f57600080fd5b506103896105ae366004613f9f565b611caa565b3480156105bf57600080fd5b50610389611cbe565b3480156105d457600080fd5b50610389611cc4565b3480156105e957600080fd5b506103896105f8366004614266565b611ce8565b61036761060b366004613d40565b611da7565b34801561061c57600080fd5b50610389611e95565b34801561063157600080fd5b50610389611e9b565b34801561064657600080fd5b50610367610655366004613b0e565b611ea1565b34801561066657600080fd5b50610389610675366004613bd5565b611f83565b34801561068657600080fd5b506103896106953660046141b6565b61200d565b3480156106a657600080fd5b506103896106b5366004613fec565b612046565b3480156106c657600080fd5b50610367612080565b3480156106db57600080fd5b506103896120a2565b3480156106f057600080fd5b506103676106ff366004613d28565b6120c6565b34801561071057600080fd5b5061041461071f366004614176565b612104565b34801561073057600080fd5b506107396122aa565b60405161039691906152bc565b34801561075257600080fd5b506103676122ce565b34801561076757600080fd5b506107706122e3565b604051610396939291906152ca565b34801561078b57600080fd5b5061038961079a366004613e4b565b6122ff565b3480156107ab57600080fd5b506103896107ba366004613af4565b612345565b3480156107cb57600080fd5b506103676107da366004614176565b612357565b3480156107eb57600080fd5b506104146107fa3660046141eb565b61241f565b61036761080d366004613f21565b612688565b34801561081e57600080fd5b50610739612844565b34801561083357600080fd5b50610389612868565b34801561084857600080fd5b50610389610857366004613f21565b61286e565b34801561086857600080fd5b50610389610877366004613af4565b612899565b34801561088857600080fd5b506103676128ab565b34801561089d57600080fd5b506103896129ae565b3480156108b257600080fd5b506103896108c1366004614176565b6129d2565b3480156108d257600080fd5b506103896129eb565b3480156108e757600080fd5b506104146108f6366004614096565b6129f1565b34801561090757600080fd5b5061091b610916366004613c4b565b612f39565b6040516103969392919061453f565b34801561093657600080fd5b50610367610945366004614176565b612fc2565b34801561095657600080fd5b50610389613062565b34801561096b57600080fd5b5061041461097a366004614176565b613086565b6109bf8686868080601f01602080910402602001604051908101604052809392919081815260200183838082843760009201919091525061322c92505050565b6001600160a01b0386166000908152601160205260409020546109fd5760405162461bcd60e51b81526004016109f4906148c6565b60405180910390fd5b6001600160a01b038616600090815260116020526040902054833514610a355760405162461bcd60e51b81526004016109f490614f22565b7f00000000000000000000000000000000000000000000000000000000000000003414610a745760405162461bcd60e51b81526004016109f490614995565b8015801590610a845750600b5481105b610aa05760405162461bcd60e51b81526004016109f490614e25565b600f54610aad90346132b9565b600f55610af486610ac336869003860186613d73565b84846040518060400160405280601181526020017039bab136b4ba20ba3a32b9ba30ba34b7b760791b8152506132cc565b505050505050565b60008160000151826020015183604001518460600151604051602001610b2594939291906144b1565b6040516020818303038152906040528051906020012090505b919050565b600f5481565b60116020526000908152604090205481565b600d6020526000908152604090205481565b600e6020526000908152604090205460ff1681565b6000610b8c61378a565b828152600160608201819052610ba182611f83565b949350505050565b6040805160128082526102608201909252600091829190602082016102408036833701905050905060005b7f000000000000000000000000000000000000000000000000000000000000000060ff168160ff161015610c6c578d8d8260ff16818110610c2557634e487b7160e01b600052603260045260246000fd5b90506020020135828260ff1681518110610c4f57634e487b7160e01b600052603260045260246000fd5b602090810291909101015280610c64816153db565b915050610bd4565b508a817f000000000000000000000000000000000000000000000000000000000000000060ff1681518110610cb157634e487b7160e01b600052603260045260246000fd5b60209081029190910101528981610ce97f00000000000000000000000000000000000000000000000000000000000000006001615328565b60ff1681518110610d0a57634e487b7160e01b600052603260045260246000fd5b60209081029190910101528881610d427f00000000000000000000000000000000000000000000000000000000000000006002615328565b60ff1681518110610d6357634e487b7160e01b600052603260045260246000fd5b60209081029190910101528781610d9b7f00000000000000000000000000000000000000000000000000000000000000006003615328565b60ff1681518110610dbc57634e487b7160e01b600052603260045260246000fd5b60209081029190910101528681610df47f00000000000000000000000000000000000000000000000000000000000000006004615328565b60ff1681518110610e1557634e487b7160e01b600052603260045260246000fd5b60209081029190910101528581610e4d7f00000000000000000000000000000000000000000000000000000000000000006005615328565b60ff1681518110610e6e57634e487b7160e01b600052603260045260246000fd5b60209081029190910101528481610ea67f00000000000000000000000000000000000000000000000000000000000000006006615328565b60ff1681518110610ec757634e487b7160e01b600052603260045260246000fd5b60209081029190910101528381610eff7f00000000000000000000000000000000000000000000000000000000000000006007615328565b60ff1681518110610f2057634e487b7160e01b600052603260045260246000fd5b60200260200101818152505060005b81518160ff161015610fa457600080516020615452833981519152828260ff1681518110610f6d57634e487b7160e01b600052603260045260246000fd5b602002602001015110610f925760405162461bcd60e51b81526004016109f490614f59565b80610f9c816153db565b915050610f2f565b50610fad6137a8565b60408051610100818101909252610fdc9186906008908390839080828437600092019190915250612f39915050565b60408085018290526020850183905283855260055490516361971b8760e11b81526001600160a01b039091169363c32e370e936110229391929091908890600401614568565b60206040518083038186803b15801561103a57600080fd5b505afa15801561104e573d6000803e3d6000fd5b505050506040513d601f19601f820116820180604052508101906110729190613d08565b151560609091018190529150509b9a5050505050505050505050565b600061109861378a565b60005b60058160ff1610156110e3576000828260ff16600581106110cc57634e487b7160e01b600052603260045260246000fd5b6020020152806110db816153db565b91505061109b565b5060006110ef82611f83565b60145490915061110990610100900460ff16868684611ce8565b925050505b92915050565b600c546001600160a01b031633148061113b57503360009081526011602052604090205415155b6111575760405162461bcd60e51b81526004016109f490614e5c565b6000818152600e602052604090205460ff16156111865760405162461bcd60e51b81526004016109f490614d91565b7f0000000000000000000000000000000000000000000000000000000000000000600a54106111c75760405162461bcd60e51b81526004016109f490614dd7565b6009543360009081526011602090815260408083205460139092529091205481158015906111f55750600081115b1561121557600061120582610b82565b9050611211838261108e565b9350505b6040805180820190915284815260208101849052600061123482611caa565b6000878152600e60205260408120805460ff19166001179055600a80549293509061125e836153c0565b919050555060075460008051602061547283398151915260405161128190614b31565b60405180910390a2600b547fbdcb306569af4b00571f0633c2439c458084e1beac220a28ea9678a2f01ca1e28786866040516112bf939291906152a6565b60405180910390a26007547f9d6db97120dc5c5f0a16903f507cbe1b12cb72d2c8d70511a607e36c407f357082600b546040516112fd929190615274565b60405180910390a2600b8054906000611315836153c0565b9190505550505050505050565b600061132d83612046565b6000818152600d60205260409020549091501561135c5760405162461bcd60e51b81526004016109f490614715565b6007548360400151106113815760405162461bcd60e51b81526004016109f490614c02565b7f000000000000000000000000000000000000000000000000000000000000000060ff16836020015151146113c85760405162461bcd60e51b81526004016109f490614fb6565b8260600151516002146113ed5760405162461bcd60e51b81526004016109f49061482f565b7f000000000000000000000000000000000000000000000000000000000000000060ff168360a0015151146114345760405162461bcd60e51b81526004016109f490614cc0565b60005b82518110156114ce5782818151811061146057634e487b7160e01b600052603260045260246000fd5b60200260200101516000141580156114a05750600b5483828151811061149657634e487b7160e01b600052603260045260246000fd5b6020026020010151105b6114bc5760405162461bcd60e51b81526004016109f490614e25565b806114c6816153c0565b915050611437565b50600b54600754604051600080516020615472833981519152906114f190614b31565b60405180910390a2807fa3d7129bf8db65e6f71041b8077847055075a4ea01972b05cd7a2794b812fd59858560405161152b9291906151a3565b60405180910390a260075484516040517f9d6db97120dc5c5f0a16903f507cbe1b12cb72d2c8d70511a607e36c407f357091611568918590615274565b60405180910390a26000828152600d60205260408120829055600b80549161158f836153c0565b919050555050505050565b6000808360ff161180156115b357506101008360ff1611155b6115cf5760405162461bcd60e51b81526004016109f490614943565b8160015b8460ff168160ff1610156116035760006115ed83846118d4565b92508190506115fb816153db565b9150506115d3565b50610ba181826118d4565b336000908152601160205260409020541561163b5760405162461bcd60e51b81526004016109f4906146cf565b7f00000000000000000000000000000000000000000000000000000000000000006012541061167c5760405162461bcd60e51b81526004016109f490614c6e565b6012805433600090815260116020526040812082905590919061169e836153c0565b9190505550565b7f000000000000000000000000000000000000000000000000000000000000000081565b6040805160038082526080820190925260009182919060208201606080368337019050509050858160008151811061171157634e487b7160e01b600052603260045260246000fd5b602002602001018181525050848160018151811061173f57634e487b7160e01b600052603260045260246000fd5b602002602001018181525050838160028151811061176d57634e487b7160e01b600052603260045260246000fd5b60200260200101818152505060005b81518160ff1610156117f157600080516020615452833981519152828260ff16815181106117ba57634e487b7160e01b600052603260045260246000fd5b6020026020010151106117df5760405162461bcd60e51b81526004016109f490614f59565b806117e9816153db565b91505061177c565b506117fa6137a8565b604080516101008181019092526118299186906008908390839080828437600092019190915250612f39915050565b60408085018290526020850183905283855260025490516361971b8760e11b81526001600160a01b039091169363c32e370e9361186f9391929091908890600401614568565b60206040518083038186803b15801561188757600080fd5b505afa15801561189b573d6000803e3d6000fd5b505050506040513d601f19601f820116820180604052508101906118bf9190613d08565b15156060909101819052915050949350505050565b60006118de6137e2565b838152602081018390526040516314d2f97b60e11b815273__$86e0c54df1042e28bf2dd20ccf184dc428$__906329a5f2f69061191f90849060040161450e565b60206040518083038186803b15801561193757600080fd5b505af415801561194b573d6000803e3d6000fd5b505050506040513d601f19601f82011682018060405250810190610ba1919061407e565b600061197a826122ff565b6000818152600d6020526040902054909150156119a95760405162461bcd60e51b81526004016109f490614715565b336000908152601160205260409020546119d55760405162461bcd60e51b81526004016109f4906148c6565b60808201513360009081526011602052604090205414611a075760405162461bcd60e51b81526004016109f490614f22565b7f00000000000000000000000000000000000000000000000000000000000000003414611a465760405162461bcd60e51b81526004016109f490614995565b81515160ff7f00000000000000000000000000000000000000000000000000000000000000001614611a8a5760405162461bcd60e51b81526004016109f490614b5d565b600754826020015114611aaf5760405162461bcd60e51b81526004016109f490614a05565b60808201513360009081526011602052604090205414611ae15760405162461bcd60e51b81526004016109f490614ffe565b600f54611aee90346132b9565b600f55611af9613800565b336000908152601160205260409081902054825260a084015182820152600b548482015160075492519192909183907f6f4fad105d3b85f479e2759c478e3421a03542bca611355cc4fe1c05f2e709fd90611b559089906150cf565b60405180910390a4611b9533838660400151846040518060400160405280600f81526020016e39b832b7322932b83aba30ba34b7b760891b8152506132cc565b6000838152600d60205260408120829055600b80549161158f836153c0565b6000611bbf82610afc565b6000818152600d602052604090205490915015611bee5760405162461bcd60e51b81526004016109f490614715565b600754826020015114611c135760405162461bcd60e51b81526004016109f490614bac565b6000600b5490508260400151600754827f95ee0c01db4292223c6ea48c378c571eb2c446947033fa510deed7b124621ca286604051611c529190615095565b60405180910390a46000828152600d60205260408120829055600b805491611c79836153c0565b9190505550505050565b604080518082019091526000808252600954602083015290611ca481611caa565b91505090565b600061110e826000015183602001516118d4565b60075481565b7f000000000000000000000000000000000000000000000000000000000000000081565b6000808560ff16118015611d0157506101008560ff1611155b611d1d5760405162461bcd60e51b81526004016109f490614943565b82828560015b611d2e896001615328565b60ff168160ff161015611d9a576000611d4784856118d4565b9050611d546002846153fb565b611d6957611d6285856118d4565b9450611d76565b611d7384866118d4565b94505b925082611d8460028461534d565b9250508080611d92906153db565b915050611d23565b5091979650505050505050565b33600090815260116020526040902054611dd35760405162461bcd60e51b81526004016109f4906148c6565b33600090815260116020526040902054833514611e025760405162461bcd60e51b81526004016109f490614f22565b7f00000000000000000000000000000000000000000000000000000000000000003414611e415760405162461bcd60e51b81526004016109f490614995565b8015801590611e515750600b5481105b611e6d5760405162461bcd60e51b81526004016109f490614e25565b600f54611e7a90346132b9565b600f55611e9033610ac336869003860186613d73565b505050565b60125481565b600a5481565b6001600160a01b03831660009081526011602052604090205415611ed75760405162461bcd60e51b81526004016109f4906146cf565b7f000000000000000000000000000000000000000000000000000000000000000060125410611f185760405162461bcd60e51b81526004016109f490614c6e565b611f588383838080601f01602080910402602001604051908101604052809392919081815260200183838082843760009201919091525061322c92505050565b601280546001600160a01b0385166000908152601160205260408120829055909190611c79836153c0565b604051630926f44b60e31b815260009073__$223301b175b06473d424a7afc957d4e96c$__90634937a25890611fbd9085906004016145af565b60206040518083038186803b158015611fd557600080fd5b505af4158015611fe9573d6000803e3d6000fd5b505050506040513d601f19601f8201168201806040525081019061110e919061407e565b60008484848460405160200161202694939291906144b1565b604051602081830303815290604052805190602001209050949350505050565b80516020808301516040808501516060860151608087015160a088015160c089015160e08a01519551600099610b2599909897910161442d565b33600081815260106020526040812080549190559061209f9082613406565b50565b7f000000000000000000000000000000000000000000000000000000000000000081565b336000908152601160205260409020546120f25760405162461bcd60e51b81526004016109f4906148c6565b33600090815260136020526040902055565b6040805160038082526080820190925260009182919060208201606080368337019050509050858160008151811061214c57634e487b7160e01b600052603260045260246000fd5b602002602001018181525050848160018151811061217a57634e487b7160e01b600052603260045260246000fd5b60200260200101818152505083816002815181106121a857634e487b7160e01b600052603260045260246000fd5b60200260200101818152505060005b81518160ff16101561222c57600080516020615452833981519152828260ff16815181106121f557634e487b7160e01b600052603260045260246000fd5b60200260200101511061221a5760405162461bcd60e51b81526004016109f490614f59565b80612224816153db565b9150506121b7565b506122356137a8565b604080516101008181019092526122649186906008908390839080828437600092019190915250612f39915050565b60408085018290526020850183905283855260035490516361971b8760e11b81526001600160a01b039091169363c32e370e9361186f9391929091908890600401614568565b7f000000000000000000000000000000000000000000000000000000000000000081565b600f80546000918290559061209f9082613406565b60145460ff808216916101008104821691620100009091041683565b80516020808301516040808501516060860151608087015160a088015160c089015160e08a01516101008b01516101208c0151975160009b610b259b909a99910161439e565b60136020526000908152604090205481565b600061238e85858585600880602002604051908101604052809291908260086020028082843760009201919091525061200d915050565b6000818152600d6020526040902054909150156123bd5760405162461bcd60e51b81526004016109f490614715565b6000600b5490508386827f803e193545a0bbe98aa31b4b343e2d224f05453a10cef7f58c6d2408512a5e3b88876040516123f8929190615258565b60405180910390a46000828152600d60205260408120829055600b805491611315836153c0565b60408051600580825260c082019092526000918291906020820160a080368337019050509050878160008151811061246757634e487b7160e01b600052603260045260246000fd5b602002602001018181525050868160018151811061249557634e487b7160e01b600052603260045260246000fd5b60200260200101818152505085816002815181106124c357634e487b7160e01b600052603260045260246000fd5b60200260200101818152505084816003815181106124f157634e487b7160e01b600052603260045260246000fd5b602002602001018181525050838160048151811061251f57634e487b7160e01b600052603260045260246000fd5b60200260200101818152505060005b81518160ff1610156125a357600080516020615452833981519152828260ff168151811061256c57634e487b7160e01b600052603260045260246000fd5b6020026020010151106125915760405162461bcd60e51b81526004016109f490614f59565b8061259b816153db565b91505061252e565b506125ac6137a8565b604080516101008181019092526125db9186906008908390839080828437600092019190915250612f39915050565b60408085018290526020850183905283855260065490516361971b8760e11b81526001600160a01b039091169363c32e370e936126219391929091908890600401614568565b60206040518083038186803b15801561263957600080fd5b505afa15801561264d573d6000803e3d6000fd5b505050506040513d601f19601f820116820180604052508101906126719190613d08565b151560609091018190529150509695505050505050565b60006126938261286e565b6000818152600d6020526040902054909150156126c25760405162461bcd60e51b81526004016109f490614715565b336000908152601160205260409020546126ee5760405162461bcd60e51b81526004016109f4906148c6565b606082015133600090815260116020526040902054146127205760405162461bcd60e51b81526004016109f490614f22565b7f0000000000000000000000000000000000000000000000000000000000000000341461275f5760405162461bcd60e51b81526004016109f490614995565b6007548251146127815760405162461bcd60e51b81526004016109f4906147db565b600f5461278e90346132b9565b600f55612799613800565b3360008181526011602090815260408083205485529282526013815290829020548382015260016080840152600b549085015160075492519192909183907ff6eb42feca5dff9206113f623b335c7d25abc5130a5f021469108d62c391fd1c9061280490899061515c565b60405180910390a4611b9533838660200151846040518060400160405280600f81526020016e61697264726f7045706f63684b657960881b8152506132cc565b7f000000000000000000000000000000000000000000000000000000000000000081565b60095481565b8051602080830151604080850151606086015160a08701519251600096610b259690959491016144dc565b60106020526000908152604090205481565b60005a90507f0000000000000000000000000000000000000000000000000000000000000000600854426128df91906153a9565b10156128fd5760405162461bcd60e51b81526004016109f49061490c565b60075460008051602061547283398151915260405161291b906149e1565b60405180910390a26007546040517f751bb1ba7b27b3979a32844d4d05aa16a46a771b751593704834a80311e3a9b990600090a24260085560078054906000612963836153c0565b919050555060006129755a83906134a2565b905061299a612984823a6134ae565b33600090815260106020526040902054906132b9565b336000908152601060205260409020555050565b7f000000000000000000000000000000000000000000000000000000000000000081565b6000848484846040516020016120269493929190614485565b60085481565b600080612a1f7f00000000000000000000000000000000000000000000000000000000000000006002615380565b612a2a906006615328565b60ff166001600160401b03811115612a5257634e487b7160e01b600052604160045260246000fd5b604051908082528060200260200182016040528015612a7b578160200160208202803683370190505b5090508c81600081518110612aa057634e487b7160e01b600052603260045260246000fd5b60200260200101818152505060005b7f000000000000000000000000000000000000000000000000000000000000000060ff168160ff161015612b53578c8c8260ff16818110612b0057634e487b7160e01b600052603260045260246000fd5b9050602002013582826001612b159190615328565b60ff1681518110612b3657634e487b7160e01b600052603260045260246000fd5b602090810291909101015280612b4b816153db565b915050612aaf565b508981612b817f00000000000000000000000000000000000000000000000000000000000000006001615328565b60ff1681518110612ba257634e487b7160e01b600052603260045260246000fd5b60200260200101818152505088886000818110612bcf57634e487b7160e01b600052603260045260246000fd5b90506020020135817f00000000000000000000000000000000000000000000000000000000000000006002612c049190615328565b60ff1681518110612c2557634e487b7160e01b600052603260045260246000fd5b60200260200101818152505088886001818110612c5257634e487b7160e01b600052603260045260246000fd5b90506020020135817f00000000000000000000000000000000000000000000000000000000000000006003612c879190615328565b60ff1681518110612ca857634e487b7160e01b600052603260045260246000fd5b60209081029190910101528681612ce07f00000000000000000000000000000000000000000000000000000000000000006004615328565b60ff1681518110612d0157634e487b7160e01b600052603260045260246000fd5b60200260200101818152505060005b7f000000000000000000000000000000000000000000000000000000000000000060ff168160ff161015612ddf5786868260ff16818110612d6157634e487b7160e01b600052603260045260246000fd5b9050602002013582827f00000000000000000000000000000000000000000000000000000000000000006005612d979190615328565b612da19190615328565b60ff1681518110612dc257634e487b7160e01b600052603260045260246000fd5b602090810291909101015280612dd7816153db565b915050612d10565b508381612e0d7f00000000000000000000000000000000000000000000000000000000000000006002615380565b612e18906005615328565b60ff1681518110612e3957634e487b7160e01b600052603260045260246000fd5b60200260200101818152505060005b81518160ff161015612ebd57600080516020615452833981519152828260ff1681518110612e8657634e487b7160e01b600052603260045260246000fd5b602002602001015110612eab5760405162461bcd60e51b81526004016109f490614f59565b80612eb5816153db565b915050612e48565b50612ec66137a8565b60408051610100818101909252612ef59186906008908390839080828437600092019190915250612f39915050565b6040808501829052602085018390528385526004805491516361971b8760e11b81526001600160a01b039092169463c32e370e946110229491939092899101614568565b612f416137e2565b612f4961382f565b612f516137e2565b50506040805180820182528351815260208085015181830152825160808082018552868501518286019081526060808901519084015282528451808601865290870151815260a08701518184015281830152835180850190945260c0860151845260e0909501519083015293909150565b6000612fd0858585856129d2565b6000818152600d602052604090205490915015612fff5760405162461bcd60e51b81526004016109f490614715565b6000600b54905083817ffe2e4029d257513b42218bbe50c55666829722b6f10335bfb0ba2d7cc792fa8c88888760405161303b93929190615282565b60405180910390a36000828152600d60205260408120829055600b805491611315836153c0565b7f000000000000000000000000000000000000000000000000000000000000000081565b604080516003808252608082019092526000918291906020820160608036833701905050905085816000815181106130ce57634e487b7160e01b600052603260045260246000fd5b60200260200101818152505084816001815181106130fc57634e487b7160e01b600052603260045260246000fd5b602002602001018181525050838160028151811061312a57634e487b7160e01b600052603260045260246000fd5b60200260200101818152505060005b81518160ff1610156131ae57600080516020615452833981519152828260ff168151811061317757634e487b7160e01b600052603260045260246000fd5b60200260200101511061319c5760405162461bcd60e51b81526004016109f490614f59565b806131a6816153db565b915050613139565b506131b76137a8565b604080516101008181019092526131e69186906008908390839080828437600092019190915250612f39915050565b60408085018290526020850183905283855260015490516361971b8760e11b81526001600160a01b039091169363c32e370e9361186f9391929091908890600401614568565b60008230604051602001613241929190614377565b6040516020818303038152906040528051906020012060405160200161326791906143f9565b604051602081830303815290604052805190602001209050826001600160a01b031661329382846134ba565b6001600160a01b031614611e905760405162461bcd60e51b81526004016109f49061487c565b60006132c58284615310565b9392505050565b6000805160206154528339815191528460200151106132fd5760405162461bcd60e51b81526004016109f490614d0d565b60008051602061545283398151915284604001511061332e5760405162461bcd60e51b81526004016109f490614ee0565b60008051602061545283398151915284606001511061335f5760405162461bcd60e51b81526004016109f490614797565b83608001516001148061337457506080840151155b6133905760405162461bcd60e51b81526004016109f490615053565b6007546000805160206154728339815191526040516133ae90614eb2565b60405180910390a2846001600160a01b0316836007547f56e4381873134418db6b4b8819233607063df79c3e5f93378b45919e8ce3d4778488876040516133f793929190614609565b60405180910390a45050505050565b804710156134265760405162461bcd60e51b81526004016109f490614afa565b6000826001600160a01b03168260405161343f9061442a565b60006040518083038185875af1925050503d806000811461347c576040519150601f19603f3d011682016040523d82523d6000602084013e613481565b606091505b5050905080611e905760405162461bcd60e51b81526004016109f490614a5b565b60006132c582846153a9565b60006132c58284615361565b60008060006134c985856134de565b915091506134d68161354e565b509392505050565b6000808251604114156135155760208301516040840151606085015160001a6135098782858561367b565b94509450505050613547565b82516040141561353f576020830151604084015161353486838361375b565b935093505050613547565b506000905060025b9250929050565b600081600481111561357057634e487b7160e01b600052602160045260246000fd5b141561357b5761209f565b600181600481111561359d57634e487b7160e01b600052602160045260246000fd5b14156135bb5760405162461bcd60e51b81526004016109f490614698565b60028160048111156135dd57634e487b7160e01b600052602160045260246000fd5b14156135fb5760405162461bcd60e51b81526004016109f490614760565b600381600481111561361d57634e487b7160e01b600052602160045260246000fd5b141561363b5760405162461bcd60e51b81526004016109f490614ab8565b600481600481111561365d57634e487b7160e01b600052602160045260246000fd5b141561209f5760405162461bcd60e51b81526004016109f490614d4f565b6000807f7fffffffffffffffffffffffffffffff5d576e7357a4501ddfe92f46681b20a08311156136b25750600090506003613752565b8460ff16601b141580156136ca57508460ff16601c14155b156136db5750600090506004613752565b60006001878787876040516000815260200160405260405161370094939291906145eb565b6020604051602081039080840390855afa158015613722573d6000803e3d6000fd5b5050604051601f1901519150506001600160a01b03811661374b57600060019250925050613752565b9150600090505b94509492505050565b6000806001600160ff1b03831660ff84901c601b0161377c8782888561367b565b935093505050935093915050565b6040518060a001604052806005906020820280368337509192915050565b60405180608001604052806137bb6137e2565b81526020016137c861382f565b81526020016137d56137e2565b8152600060209091015290565b60405180604001604052806002906020820280368337509192915050565b6040518060a0016040528060008152602001600081526020016000815260200160008152602001600081525090565b60405180604001604052806002905b6138466137e2565b81526020019060019003908161383e5790505090565b80356001600160a01b0381168114610b3e57600080fd5b80610100810183101561110e57600080fd5b600082601f830112613895578081fd5b6040516101008082018281106001600160401b03821117156138b9576138b961543b565b60405281848281018710156138cc578485fd5b8492505b60088310156138f0578035825260019290920191602091820191016138d0565b509195945050505050565b60008083601f84011261390c578182fd5b5081356001600160401b03811115613922578182fd5b602083019150836020808302850101111561354757600080fd5b600082601f83011261394c578081fd5b813560206001600160401b038211156139675761396761543b565b8082026139758282016152e7565b83815282810190868401838801850189101561398f578687fd5b8693505b858410156139b1578035835260019390930192918401918401613993565b50979650505050505050565b60008083601f8401126139ce578182fd5b5081356001600160401b038111156139e4578182fd5b60208301915083602082850101111561354757600080fd5b600060a08284031215613a0d578081fd5b50919050565b60006101e08284031215613a25578081fd5b613a306101006152e7565b90508135815260208201356001600160401b0380821115613a5057600080fd5b613a5c8583860161393c565b6020840152604084013560408401526060840135915080821115613a7f57600080fd5b613a8b8583860161393c565b60608401526080840135608084015260a0840135915080821115613aae57600080fd5b50613abb8482850161393c565b60a08301525060c082013560c0820152613ad88360e08401613885565b60e082015292915050565b803560ff81168114610b3e57600080fd5b600060208284031215613b05578081fd5b6132c58261385c565b600080600060408486031215613b22578182fd5b613b2b8461385c565b925060208401356001600160401b03811115613b45578283fd5b613b51868287016139bd565b9497909650939450505050565b6000806000806000806101208789031215613b77578384fd5b613b808761385c565b955060208701356001600160401b03811115613b9a578485fd5b613ba689828a016139bd565b9096509450613bba905088604089016139fc565b925060e0870135915061010087013590509295509295509295565b600060a08284031215613be6578081fd5b82601f830112613bf4578081fd5b60405160a081018181106001600160401b0382111715613c1657613c1661543b565b604052808360a08101861015613c2a578384fd5b835b60058110156138f0578135835260209283019290910190600101613c2c565b60006101008284031215613c5d578081fd5b6132c58383613885565b60008060008060008060008060008060006102208c8e031215613c88578889fd5b8b356001600160401b03811115613c9d57898afd5b613ca98e828f016138fb565b909c509a505060208c0135985060408c0135975060608c0135965060808c0135955060a08c0135945060c08c0135935060e08c013592506101008c01359150613cf68d6101208e01613873565b90509295989b509295989b9093969950565b600060208284031215613d19578081fd5b815180151581146132c5578182fd5b600060208284031215613d39578081fd5b5035919050565b600080600060e08486031215613d54578081fd5b613d5e85856139fc565b9560a0850135955060c0909401359392505050565b600060a08284031215613d84578081fd5b60405160a081018181106001600160401b0382111715613da657613da661543b565b806040525082358152602083013560208201526040830135604082015260608301356060820152608083013560808201528091505092915050565b60006101608284031215613df3578081fd5b604051608081018181106001600160401b0382111715613e1557613e1561543b565b8060405250823581526020830135602082015260408301356040820152613e3f8460608501613885565b60608201529392505050565b600060208284031215613e5c578081fd5b81356001600160401b0380821115613e72578283fd5b908301906102208286031215613e86578283fd5b613e916101406152e7565b823582811115613e9f578485fd5b613eab8782860161393c565b8252506020830135602082015260408301356040820152606083013560608201526080830135608082015260a083013560a082015260c083013560c082015260e083013560e0820152610100915081830135828201526101209150613f1286838501613885565b91810191909152949350505050565b60006101a08284031215613f33578081fd5b60405160c081018181106001600160401b0382111715613f5557613f5561543b565b80604052508235815260208301356020820152604083013560408201526060830135606082015260808301356080820152613f938460a08501613885565b60a08201529392505050565b600060408284031215613fb0578081fd5b604051604081018181106001600160401b0382111715613fd257613fd261543b565b604052823581526020928301359281019290925250919050565b600060208284031215613ffd578081fd5b81356001600160401b03811115614012578182fd5b610ba184828501613a13565b60008060408385031215614030578182fd5b82356001600160401b0380821115614046578384fd5b61405286838701613a13565b93506020850135915080821115614067578283fd5b506140748582860161393c565b9150509250929050565b60006020828403121561408f578081fd5b5051919050565b60008060008060008060008060008060006101e08c8e0312156140b7578485fd5b8b359a506001600160401b038060208e013511156140d3578586fd5b6140e38e60208f01358f016138fb565b909b50995060408d0135985060608d01358110156140ff578586fd5b61410f8e60608f01358f016138fb565b909850965060808d0135955060a08d013581101561412b578485fd5b5061413c8d60a08e01358e016138fb565b909450925060c08c01359150613cf68d60e08e01613873565b60008060408385031215614167578182fd5b50508035926020909101359150565b600080600080610160858703121561418c578182fd5b8435935060208501359250604085013591506141ab8660608701613873565b905092959194509250565b60008060008061016085870312156141cc578182fd5b8435935060208501359250604085013591506141ab8660608701613885565b6000806000806000806101a08789031215614204578384fd5b86359550602087013594506040870135935060608701359250608087013591506142318860a08901613873565b90509295509295509295565b6000806040838503121561424f578182fd5b61425883613ae3565b946020939093013593505050565b6000806000806080858703121561427b578182fd5b61428485613ae3565b966020860135965060408601359560600135945092505050565b8060005b60028110156142cc576142b68483516142d2565b60409390930192602091909101906001016142a2565b50505050565b8060005b60028110156142cc5781518452602093840193909101906001016142d6565b8060005b60088110156142cc5781518452602093840193909101906001016142f9565b6000815180845260208085019450808401835b838110156143475781518752958201959082019060010161432b565b509495945050505050565b805160009060208084018383156143475781518752958201959082019060010161432b565b6bffffffffffffffffffffffff19606093841b811682529190921b16601482015260280190565b60006143aa828d614352565b8b81528a60208201528960408201528860608201528760808201528660a08201528560c08201528460e08201526143e56101008201856142f5565b610200019c9b505050505050505050505050565b7f19457468657265756d205369676e6564204d6573736167653a0a3332000000008152601c810191909152603c0190565b90565b600089825261443f602083018a614352565b88815261444f6020820189614352565b90508681526144616020820187614352565b905084815261447360208201856142f5565b610120019a9950505050505050505050565b600085825284602083015283604083015261010083606084013761016091909101908152949350505050565b60008582528460208301528360408301526144cf60608301846142f5565b5061016001949350505050565b600086825285602083015284604083015283606083015261450060808301846142f5565b506101800195945050505050565b60408101818360005b6002811015614536578151835260209283019290910190600101614517565b50505092915050565b610100810161454e82866142d2565b61455b604083018561429e565b610ba160c08301846142d2565b600061012061457783886142d2565b614584604084018761429e565b61459160c08401866142d2565b806101008401526145a481840185614318565b979650505050505050565b60a08101818360005b60058110156145365781518352602092830192909101906001016145b8565b901515815260200190565b90815260200190565b93845260ff9290921660208401526040830152606082015260800190565b600060e0825284518060e0840152815b81811015614637576020818801810151610100868401015201614619565b81811115614649578261010083860101525b50610100601f19601f83011684010191505083516020830152602084015160408301526040840151606083015260608401516080830152608084015160a08301528260c0830152949350505050565b60208082526018908201527f45434453413a20696e76616c6964207369676e61747572650000000000000000604082015260600190565b60208082526026908201527f556e697265703a2061747465737465722068617320616c72656164792073696760408201526506e65642075760d41b606082015260800190565b6020808252602b908201527f556e697265703a207468652070726f6f6620686173206265656e207375626d6960408201526a74746564206265666f726560a81b606082015260800190565b6020808252601f908201527f45434453413a20696e76616c6964207369676e6174757265206c656e67746800604082015260600190565b60208082526024908201527f556e697265703a20696e76616c6964206174746573746174696f6e20677261666040820152636669746960e01b606082015260800190565b60208082526034908201527f556e697265703a207375626d697420616e2061697264726f702070726f6f66206040820152730eed2e8d040d2dcc6dee4e4cac6e840cae0dec6d60631b606082015260800190565b6020808252602d908201527f556e697265703a20696e76616c6964206e756d626572206f6620626c696e646560408201526c6420757365722073746174657360981b606082015260800190565b6020808252602a908201527f556e697265703a20696e76616c6964206174746573746572207369676e207570604082015269207369676e617475726560b01b606082015260800190565b60208082526026908201527f556e697265703a20617474657374657220686173206e6f74207369676e6564206040820152651d5c081e595d60d21b606082015260800190565b6020808252601b908201527f556e697265703a2065706f6368206e6f742079657420656e6465640000000000604082015260600190565b60208082526032908201527f436f6d70757465526f6f743a205f747265654c6576656c73206d757374206265604082015271103132ba3bb2b2b710181030b73210191a9b60711b606082015260800190565b6020808252602c908201527f556e697265703a206e6f20617474657374696e6720666565206f7220696e636f60408201526b1c9c9958dd08185b5bdd5b9d60a21b606082015260800190565b6020808252600a9082015269115c1bd8da115b99195960b21b604082015260600190565b60208082526036908201527f556e697265703a207375626d697420612072657075746174696f6e2070726f6f6040820152750cc40eed2e8d040d2dcc6dee4e4cac6e840cae0dec6d60531b606082015260800190565b6020808252603a908201527f416464726573733a20756e61626c6520746f2073656e642076616c75652c207260408201527f6563697069656e74206d61792068617665207265766572746564000000000000606082015260800190565b60208082526022908201527f45434453413a20696e76616c6964207369676e6174757265202773272076616c604082015261756560f01b606082015260800190565b6020808252601d908201527f416464726573733a20696e73756666696369656e742062616c616e6365000000604082015260600190565b60208082526012908201527113995dd1d4d513195859925b9cd95c9d195960721b604082015260600190565b6020808252602f908201527f556e697265703a20696e76616c6964206e756d626572206f662072657075746160408201526e74696f6e206e756c6c69666965727360881b606082015260800190565b60208082526036908201527f556e697265703a207375626d697420616e2065706f6368206b65792070726f6f6040820152750cc40eed2e8d040d2dcc6dee4e4cac6e840cae0dec6d60531b606082015260800190565b60208082526046908201527f43616e206e6f74207472616e736974696f6e2066726f6d2065706f636820746860408201527f617427732067726561746572206f7220657175616c20746f2063757272656e74606082015265040cae0dec6d60d31b608082015260a00190565b60208082526032908201527f556e697265703a206d6178696d756d206e756d626572206f6620617474657374604082015271195c881cda59db9d5c1cc81c995858da195960721b606082015260800190565b6020808252602d908201527f556e697265703a20696e76616c6964206e756d626572206f6620626c696e646560408201526c64206861736820636861696e7360981b606082015260800190565b60208082526022908201527f556e697265703a20696e76616c6964206174746573746174696f6e20706f7352604082015261065760f41b606082015260800190565b60208082526022908201527f45434453413a20696e76616c6964207369676e6174757265202776272076616c604082015261756560f01b606082015260800190565b60208082526026908201527f556e697265703a2074686520757365722068617320616c72656164792073696760408201526506e65642075760d41b606082015260800190565b6020808252602e908201527f556e697265703a206d6178696d756d206e756d626572206f662075736572207360408201526d1a59db9d5c1cc81c995858da195960921b606082015260800190565b6020808252601b908201527f556e697265703a20696e76616c69642070726f6f6620696e6465780000000000604082015260600190565b60208082526036908201527f556e697265703a207369676e2075702073686f756c64207468726f7567682061604082015275371030b236b4b71037b91030b71030ba3a32b9ba32b960511b606082015260800190565b602080825260149082015273105d1d195cdd185d1a5bdb94dd589b5a5d1d195960621b604082015260600190565b60208082526022908201527f556e697265703a20696e76616c6964206174746573746174696f6e206e656752604082015261065760f41b606082015260800190565b6020808252601d908201527f556e697265703a206d69736d6174636865642061747465737465724964000000604082015260600190565b6020808252603c908201527f556e697265703a2065616368207075626c6963207369676e616c206d7573742060408201527f6265206c742074686520736e61726b207363616c6172206669656c6400000000606082015260800190565b60208082526028908201527f556e697265703a20696e76616c6964206e756d626572206f662065706b206e756040820152676c6c69666965727360c01b606082015260800190565b60208082526035908201527f556e697265703a20696e636f727265637420617474657374657220494420696e604082015274103a3432903932b83aba30ba34b7b710383937b7b360591b606082015260800190565b60208082526022908201527f556e697265703a20696e76616c6964206174746573746174696f6e207369676e604082015261055760f41b606082015260800190565b60006101608201905082518252602083015160208301526040830151604083015260608301516150c860608401826142f5565b5092915050565b600060208252825161022060208401526150ed610240840182614318565b9050602084015160408401526040840151606084015260608401516080840152608084015160a084015260a084015160c084015260c084015160e084015260e08401516101008181860152808601519150506101208181860152808601519150506134d66101408501826142f5565b60006101a082019050825182526020830151602083015260408301516040830152606083015160608301526080830151608083015260a08301516150c860a08401826142f5565b6000604082528351604083015260208401516101e060608401526151cb610220840182614318565b9050604085015160808401526060850151603f19808584030160a08601526151f38383614318565b9250608087015160c086015260a08701519150808584030160e08601525061521b8282614318565b91505060c085015161010084015260e085015161523c6101208501826142f5565b50828103602084015261524f8185614318565b95945050505050565b8281526101208101610100836020840137600081529392505050565b918252602082015260400190565b83815260208101839052610140810161010083604084013760008152949350505050565b9283526020830191909152604082015260600190565b60ff91909116815260200190565b60ff93841681529183166020830152909116604082015260600190565b6040518181016001600160401b03811182821017156153085761530861543b565b604052919050565b600082198211156153235761532361540f565b500190565b600060ff821660ff84168060ff038211156153455761534561540f565b019392505050565b60008261535c5761535c615425565b500490565b600081600019048311821515161561537b5761537b61540f565b500290565b600060ff821660ff84168160ff04811182151516156153a1576153a161540f565b029392505050565b6000828210156153bb576153bb61540f565b500390565b60006000198214156153d4576153d461540f565b5060010190565b600060ff821660ff8114156153f2576153f261540f565b60010192915050565b60008261540a5761540a615425565b500690565b634e487b7160e01b600052601160045260246000fd5b634e487b7160e01b600052601260045260246000fd5b634e487b7160e01b600052604160045260246000fdfe30644e72e131a029b85045b68181585d2833e84879b9709143e1f593f0000001d520dc8edfe278d8221eb9bc1010dbafcff0b692cd5b1a0f7333dc9f228ca660a264697066735822122054b0d2890e15dbc32c17005350967c4abf0e20f00e27528832b5ab8f77435ff164736f6c63430008000033",
  "linkReferences": {
    "contracts/Poseidon.sol": {
      "PoseidonT3": [
        {
          "length": 20,
          "start": 1326
        },
        {
          "length": 20,
          "start": 9431
        }
      ],
      "PoseidonT6": [
        {
          "length": 20,
          "start": 1005
        },
        {
          "length": 20,
          "start": 11125
        }
      ]
    }
  },
  "deployedLinkReferences": {
    "contracts/Poseidon.sol": {
      "PoseidonT3": [
        {
          "length": 20,
          "start": 6391
        }
      ],
      "PoseidonT6": [
        {
          "length": 20,
          "start": 8085
        }
      ]
    }
  }
}