{
  "_format": "hh-sol-artifact-1",
  "contractName": "Unirep",
  "sourceName": "contracts/Unirep.sol",
  "abi": [
    {
      "inputs": [
        {
          "components": [
            {
              "internalType": "uint8",
              "name": "globalStateTreeDepth",
              "type": "uint8"
            },
            {
              "internalType": "uint8",
              "name": "userStateTreeDepth",
              "type": "uint8"
            },
            {
              "internalType": "uint8",
              "name": "epochTreeDepth",
              "type": "uint8"
            }
          ],
          "internalType": "struct UnirepParameters.TreeDepths",
          "name": "_treeDepths",
          "type": "tuple"
        },
        {
          "components": [
            {
              "internalType": "uint256",
              "name": "maxUsers",
              "type": "uint256"
            }
          ],
          "internalType": "struct UnirepParameters.MaxValues",
          "name": "_maxValues",
          "type": "tuple"
        },
        {
          "internalType": "contract EpochKeyValidityVerifier",
          "name": "_epkValidityVerifier",
          "type": "address"
        },
        {
          "internalType": "contract StartTransitionVerifier",
          "name": "_startTransitionVerifier",
          "type": "address"
        },
        {
          "internalType": "contract ProcessAttestationsVerifier",
          "name": "_processAttestationsVerifier",
          "type": "address"
        },
        {
          "internalType": "contract UserStateTransitionVerifier",
          "name": "_userStateTransitionVerifier",
          "type": "address"
        },
        {
          "internalType": "contract ReputationVerifier",
          "name": "_reputationVerifier",
          "type": "address"
        },
        {
          "internalType": "contract UserSignUpVerifier",
          "name": "_userSignUpVerifier",
          "type": "address"
        },
        {
          "internalType": "uint8",
          "name": "_numEpochKeyNoncePerEpoch",
          "type": "uint8"
        },
        {
          "internalType": "uint8",
          "name": "_maxReputationBudget",
          "type": "uint8"
        },
        {
          "internalType": "uint256",
          "name": "_epochLength",
          "type": "uint256"
        },
        {
          "internalType": "uint256",
          "name": "_attestingFee",
          "type": "uint256"
        }
      ],
      "stateMutability": "nonpayable",
      "type": "constructor"
    },
    {
      "anonymous": false,
      "inputs": [
        {
          "indexed": true,
          "internalType": "uint256",
          "name": "_epoch",
          "type": "uint256"
        },
        {
          "indexed": true,
          "internalType": "uint256",
          "name": "_epochKey",
          "type": "uint256"
        },
        {
          "indexed": true,
          "internalType": "address",
          "name": "_attester",
          "type": "address"
        },
        {
          "components": [
            {
              "internalType": "uint256",
              "name": "attesterId",
              "type": "uint256"
            },
            {
              "internalType": "uint256",
              "name": "posRep",
              "type": "uint256"
            },
            {
              "internalType": "uint256",
              "name": "negRep",
              "type": "uint256"
            },
            {
              "internalType": "uint256",
              "name": "graffiti",
              "type": "uint256"
            },
            {
              "internalType": "uint256",
              "name": "signUp",
              "type": "uint256"
            }
          ],
          "indexed": false,
          "internalType": "struct DomainObjs.Attestation",
          "name": "attestation",
          "type": "tuple"
        }
      ],
      "name": "AttestationSubmitted",
      "type": "event"
    },
    {
      "anonymous": false,
      "inputs": [
        {
          "indexed": true,
          "internalType": "uint256",
          "name": "_epoch",
          "type": "uint256"
        }
      ],
      "name": "EpochEnded",
      "type": "event"
    },
    {
      "anonymous": false,
      "inputs": [
        {
          "indexed": true,
          "internalType": "uint256",
          "name": "_epoch",
          "type": "uint256"
        },
        {
          "indexed": false,
          "internalType": "uint256",
          "name": "_leafIndex",
          "type": "uint256"
        },
        {
          "indexed": false,
          "internalType": "uint256",
          "name": "_hashedLeaf",
          "type": "uint256"
        },
        {
          "indexed": false,
          "internalType": "uint256",
          "name": "_attesterId",
          "type": "uint256"
        },
        {
          "indexed": false,
          "internalType": "uint256",
          "name": "_airdropAmount",
          "type": "uint256"
        }
      ],
      "name": "NewGSTLeafInserted",
      "type": "event"
    },
    {
      "anonymous": false,
      "inputs": [
        {
          "indexed": true,
          "internalType": "uint256",
          "name": "_outputBlindedUserState",
          "type": "uint256"
        },
        {
          "indexed": true,
          "internalType": "uint256",
          "name": "_outputBlindedHashChain",
          "type": "uint256"
        },
        {
          "indexed": false,
          "internalType": "uint256",
          "name": "_inputBlindedUserState",
          "type": "uint256"
        },
        {
          "indexed": false,
          "internalType": "uint256[8]",
          "name": "_proof",
          "type": "uint256[8]"
        }
      ],
      "name": "ProcessedAttestations",
      "type": "event"
    },
    {
      "anonymous": false,
      "inputs": [
        {
          "indexed": true,
          "internalType": "uint256",
          "name": "_epoch",
          "type": "uint256"
        },
        {
          "components": [
            {
              "internalType": "uint256",
              "name": "epochKey",
              "type": "uint256"
            },
            {
              "internalType": "uint256",
              "name": "globalStateTree",
              "type": "uint256"
            },
            {
              "internalType": "uint256",
              "name": "attesterId",
              "type": "uint256"
            },
            {
              "internalType": "uint256",
              "name": "proveReputationAmount",
              "type": "uint256"
            },
            {
              "internalType": "uint256",
              "name": "minRep",
              "type": "uint256"
            },
            {
              "internalType": "uint256",
              "name": "proveGraffiti",
              "type": "uint256"
            },
            {
              "internalType": "uint256",
              "name": "graffitiPreImage",
              "type": "uint256"
            },
            {
              "internalType": "uint256[8]",
              "name": "proof",
              "type": "uint256[8]"
            }
          ],
          "indexed": false,
          "internalType": "struct UnirepParameters.ReputationProofRelated",
          "name": "reputationProofData",
          "type": "tuple"
        },
        {
          "indexed": false,
          "internalType": "uint256[]",
          "name": "reputationNullifiers",
          "type": "uint256[]"
        }
      ],
      "name": "ReputationNullifierSubmitted",
      "type": "event"
    },
    {
      "anonymous": false,
      "inputs": [
        {
          "indexed": false,
          "internalType": "string",
          "name": "_event",
          "type": "string"
        }
      ],
      "name": "Sequencer",
      "type": "event"
    },
    {
      "anonymous": false,
      "inputs": [
        {
          "indexed": true,
          "internalType": "uint256",
          "name": "_blindedUserState",
          "type": "uint256"
        },
        {
          "indexed": true,
          "internalType": "uint256",
          "name": "_blindedHashChain",
          "type": "uint256"
        },
        {
          "indexed": true,
          "internalType": "uint256",
          "name": "_GSTRoot",
          "type": "uint256"
        },
        {
          "indexed": false,
          "internalType": "uint256[8]",
          "name": "_proof",
          "type": "uint256[8]"
        }
      ],
      "name": "StartedTransition",
      "type": "event"
    },
    {
      "anonymous": false,
      "inputs": [
        {
          "indexed": true,
          "internalType": "uint256",
          "name": "_toEpoch",
          "type": "uint256"
        },
        {
          "indexed": false,
          "internalType": "uint256",
          "name": "_leafIndex",
          "type": "uint256"
        },
        {
          "components": [
            {
              "internalType": "uint256",
              "name": "fromEpoch",
              "type": "uint256"
            },
            {
              "internalType": "uint256",
              "name": "fromGlobalStateTree",
              "type": "uint256"
            },
            {
              "internalType": "uint256",
              "name": "fromEpochTree",
              "type": "uint256"
            },
            {
              "internalType": "uint256",
              "name": "newGlobalStateTreeLeaf",
              "type": "uint256"
            },
            {
              "internalType": "uint256[8]",
              "name": "proof",
              "type": "uint256[8]"
            },
            {
              "internalType": "uint256[]",
              "name": "blindedUserStates",
              "type": "uint256[]"
            },
            {
              "internalType": "uint256[]",
              "name": "blindedHashChains",
              "type": "uint256[]"
            },
            {
              "internalType": "uint256[]",
              "name": "epkNullifiers",
              "type": "uint256[]"
            }
          ],
          "indexed": false,
          "internalType": "struct UnirepParameters.UserTransitionedRelated",
          "name": "userTransitionedData",
          "type": "tuple"
        }
      ],
      "name": "UserStateTransitioned",
      "type": "event"
    },
    {
      "inputs": [
        {
          "internalType": "address",
          "name": "",
          "type": "address"
        }
      ],
      "name": "airdropAmount",
      "outputs": [
        {
          "internalType": "uint256",
          "name": "",
          "type": "uint256"
        }
      ],
      "stateMutability": "view",
      "type": "function"
    },
    {
      "inputs": [],
      "name": "attesterSignUp",
      "outputs": [],
      "stateMutability": "nonpayable",
      "type": "function"
    },
    {
      "inputs": [
        {
          "internalType": "address",
          "name": "attester",
          "type": "address"
        },
        {
          "internalType": "bytes",
          "name": "signature",
          "type": "bytes"
        }
      ],
      "name": "attesterSignUpViaRelayer",
      "outputs": [],
      "stateMutability": "nonpayable",
      "type": "function"
    },
    {
      "inputs": [
        {
          "internalType": "address",
          "name": "",
          "type": "address"
        }
      ],
      "name": "attesters",
      "outputs": [
        {
          "internalType": "uint256",
          "name": "",
          "type": "uint256"
        }
      ],
      "stateMutability": "view",
      "type": "function"
    },
    {
      "inputs": [],
      "name": "attestingFee",
      "outputs": [
        {
          "internalType": "uint256",
          "name": "",
          "type": "uint256"
        }
      ],
      "stateMutability": "view",
      "type": "function"
    },
    {
      "inputs": [
        {
          "internalType": "uint256",
          "name": "numEpochKeysToSeal",
          "type": "uint256"
        }
      ],
      "name": "beginEpochTransition",
      "outputs": [],
      "stateMutability": "nonpayable",
      "type": "function"
    },
    {
      "inputs": [],
      "name": "burnAttestingFee",
      "outputs": [],
      "stateMutability": "nonpayable",
      "type": "function"
    },
    {
      "inputs": [
        {
          "internalType": "uint256",
          "name": "_leafIndex",
          "type": "uint256"
        },
        {
          "internalType": "uint256",
          "name": "_leafValue",
          "type": "uint256"
        }
      ],
      "name": "calcAirdropUSTRoot",
      "outputs": [
        {
          "internalType": "uint256",
          "name": "",
          "type": "uint256"
        }
      ],
      "stateMutability": "view",
      "type": "function"
    },
    {
      "inputs": [],
      "name": "collectEpochTransitionCompensation",
      "outputs": [],
      "stateMutability": "nonpayable",
      "type": "function"
    },
    {
      "inputs": [],
      "name": "collectedAttestingFee",
      "outputs": [
        {
          "internalType": "uint256",
          "name": "",
          "type": "uint256"
        }
      ],
      "stateMutability": "view",
      "type": "function"
    },
    {
      "inputs": [
        {
          "internalType": "uint8",
          "name": "_treeLevels",
          "type": "uint8"
        },
        {
          "internalType": "uint256",
          "name": "_zeroValue",
          "type": "uint256"
        }
      ],
      "name": "computeEmptyRoot",
      "outputs": [
        {
          "internalType": "uint256",
          "name": "",
          "type": "uint256"
        }
      ],
      "stateMutability": "pure",
      "type": "function"
    },
    {
      "inputs": [
        {
          "internalType": "uint8",
          "name": "_treeLevels",
          "type": "uint8"
        },
        {
          "internalType": "uint256",
          "name": "_leafIndex",
          "type": "uint256"
        },
        {
          "internalType": "uint256",
          "name": "_leafValue",
          "type": "uint256"
        },
        {
          "internalType": "uint256",
          "name": "_zeroValue",
          "type": "uint256"
        }
      ],
      "name": "computeOneNonZeroLeafRoot",
      "outputs": [
        {
          "internalType": "uint256",
          "name": "",
          "type": "uint256"
        }
      ],
      "stateMutability": "pure",
      "type": "function"
    },
    {
      "inputs": [],
      "name": "currentEpoch",
      "outputs": [
        {
          "internalType": "uint256",
          "name": "",
          "type": "uint256"
        }
      ],
      "stateMutability": "view",
      "type": "function"
    },
    {
      "inputs": [],
      "name": "emptyGlobalStateTreeRoot",
      "outputs": [
        {
          "internalType": "uint256",
          "name": "",
          "type": "uint256"
        }
      ],
      "stateMutability": "view",
      "type": "function"
    },
    {
      "inputs": [],
      "name": "emptyUserStateRoot",
      "outputs": [
        {
          "internalType": "uint256",
          "name": "",
          "type": "uint256"
        }
      ],
      "stateMutability": "view",
      "type": "function"
    },
    {
      "inputs": [
        {
          "internalType": "uint256",
          "name": "",
          "type": "uint256"
        }
      ],
      "name": "epochKeyHashchain",
      "outputs": [
        {
          "internalType": "uint256",
          "name": "",
          "type": "uint256"
        }
      ],
      "stateMutability": "view",
      "type": "function"
    },
    {
      "inputs": [],
      "name": "epochLength",
      "outputs": [
        {
          "internalType": "uint256",
          "name": "",
          "type": "uint256"
        }
      ],
      "stateMutability": "view",
      "type": "function"
    },
    {
      "inputs": [
        {
          "internalType": "address",
          "name": "",
          "type": "address"
        }
      ],
      "name": "epochTransitionCompensation",
      "outputs": [
        {
          "internalType": "uint256",
          "name": "",
          "type": "uint256"
        }
      ],
      "stateMutability": "view",
      "type": "function"
    },
    {
      "inputs": [
        {
          "internalType": "uint256",
          "name": "epoch",
          "type": "uint256"
        },
        {
          "internalType": "uint256",
          "name": "index",
          "type": "uint256"
        }
      ],
      "name": "getEpochKey",
      "outputs": [
        {
          "internalType": "uint256",
          "name": "",
          "type": "uint256"
        }
      ],
      "stateMutability": "view",
      "type": "function"
    },
    {
      "inputs": [
        {
          "internalType": "uint256",
          "name": "epoch",
          "type": "uint256"
        }
      ],
      "name": "getEpochTreeLeaves",
      "outputs": [
        {
          "internalType": "uint256[]",
          "name": "epochKeyList",
          "type": "uint256[]"
        },
        {
          "internalType": "uint256[]",
          "name": "epochKeyHashChainList",
          "type": "uint256[]"
        }
      ],
      "stateMutability": "view",
      "type": "function"
    },
    {
      "inputs": [
        {
          "internalType": "uint256",
          "name": "epoch",
          "type": "uint256"
        }
      ],
      "name": "getNumEpochKey",
      "outputs": [
        {
          "internalType": "uint256",
          "name": "",
          "type": "uint256"
        }
      ],
      "stateMutability": "view",
      "type": "function"
    },
    {
      "inputs": [
        {
          "internalType": "uint256",
          "name": "epoch",
          "type": "uint256"
        }
      ],
      "name": "getNumSealedEpochKey",
      "outputs": [
        {
          "internalType": "uint256",
          "name": "",
          "type": "uint256"
        }
      ],
      "stateMutability": "view",
      "type": "function"
    },
    {
      "inputs": [
        {
          "internalType": "uint256",
          "name": "",
          "type": "uint256"
        }
      ],
      "name": "hasUserSignedUp",
      "outputs": [
        {
          "internalType": "bool",
          "name": "",
          "type": "bool"
        }
      ],
      "stateMutability": "view",
      "type": "function"
    },
    {
      "inputs": [
        {
          "internalType": "uint256[5]",
          "name": "array",
          "type": "uint256[5]"
        }
      ],
      "name": "hash5",
      "outputs": [
        {
          "internalType": "uint256",
          "name": "",
          "type": "uint256"
        }
      ],
      "stateMutability": "pure",
      "type": "function"
    },
    {
      "inputs": [
        {
          "internalType": "uint256",
          "name": "airdropPosRep",
          "type": "uint256"
        }
      ],
      "name": "hashAirdroppedLeaf",
      "outputs": [
        {
          "internalType": "uint256",
          "name": "",
          "type": "uint256"
        }
      ],
      "stateMutability": "pure",
      "type": "function"
    },
    {
      "inputs": [
        {
          "internalType": "uint256",
          "name": "_left",
          "type": "uint256"
        },
        {
          "internalType": "uint256",
          "name": "_right",
          "type": "uint256"
        }
      ],
      "name": "hashLeftRight",
      "outputs": [
        {
          "internalType": "uint256",
          "name": "",
          "type": "uint256"
        }
      ],
      "stateMutability": "pure",
      "type": "function"
    },
    {
      "inputs": [
        {
          "components": [
            {
              "internalType": "uint256",
              "name": "identityCommitment",
              "type": "uint256"
            },
            {
              "internalType": "uint256",
              "name": "userStateRoot",
              "type": "uint256"
            }
          ],
          "internalType": "struct DomainObjs.StateLeaf",
          "name": "_stateLeaf",
          "type": "tuple"
        }
      ],
      "name": "hashStateLeaf",
      "outputs": [
        {
          "internalType": "uint256",
          "name": "",
          "type": "uint256"
        }
      ],
      "stateMutability": "pure",
      "type": "function"
    },
    {
      "inputs": [],
      "name": "hashedBlankStateLeaf",
      "outputs": [
        {
          "internalType": "uint256",
          "name": "",
          "type": "uint256"
        }
      ],
      "stateMutability": "view",
      "type": "function"
    },
    {
      "inputs": [
        {
          "internalType": "uint256",
          "name": "",
          "type": "uint256"
        }
      ],
      "name": "isEpochKeyHashChainSealed",
      "outputs": [
        {
          "internalType": "bool",
          "name": "",
          "type": "bool"
        }
      ],
      "stateMutability": "view",
      "type": "function"
    },
    {
      "inputs": [],
      "name": "latestEpochTransitionTime",
      "outputs": [
        {
          "internalType": "uint256",
          "name": "",
          "type": "uint256"
        }
      ],
      "stateMutability": "view",
      "type": "function"
    },
    {
      "inputs": [],
      "name": "maxReputationBudget",
      "outputs": [
        {
          "internalType": "uint8",
          "name": "",
          "type": "uint8"
        }
      ],
      "stateMutability": "view",
      "type": "function"
    },
    {
      "inputs": [],
      "name": "maxUsers",
      "outputs": [
        {
          "internalType": "uint256",
          "name": "",
          "type": "uint256"
        }
      ],
      "stateMutability": "view",
      "type": "function"
    },
    {
      "inputs": [],
      "name": "nextAttesterId",
      "outputs": [
        {
          "internalType": "uint256",
          "name": "",
          "type": "uint256"
        }
      ],
      "stateMutability": "view",
      "type": "function"
    },
    {
      "inputs": [],
      "name": "numEpochKeyNoncePerEpoch",
      "outputs": [
        {
          "internalType": "uint8",
          "name": "",
          "type": "uint8"
        }
      ],
      "stateMutability": "view",
      "type": "function"
    },
    {
      "inputs": [],
      "name": "numUserSignUps",
      "outputs": [
        {
          "internalType": "uint256",
          "name": "",
          "type": "uint256"
        }
      ],
      "stateMutability": "view",
      "type": "function"
    },
    {
      "inputs": [
        {
          "internalType": "uint256",
          "name": "_outputBlindedUserState",
          "type": "uint256"
        },
        {
          "internalType": "uint256",
          "name": "_outputBlindedHashChain",
          "type": "uint256"
        },
        {
          "internalType": "uint256",
          "name": "_inputBlindedUserState",
          "type": "uint256"
        },
        {
          "internalType": "uint256[8]",
          "name": "_proof",
          "type": "uint256[8]"
        }
      ],
      "name": "processAttestations",
      "outputs": [],
      "stateMutability": "nonpayable",
      "type": "function"
    },
    {
      "inputs": [
        {
          "internalType": "uint256",
          "name": "_airdropAmount",
          "type": "uint256"
        }
      ],
      "name": "setAirdropAmount",
      "outputs": [],
      "stateMutability": "nonpayable",
      "type": "function"
    },
    {
      "inputs": [
        {
          "internalType": "uint256",
          "name": "_blindedUserState",
          "type": "uint256"
        },
        {
          "internalType": "uint256",
          "name": "_blindedHashChain",
          "type": "uint256"
        },
        {
          "internalType": "uint256",
          "name": "_GSTRoot",
          "type": "uint256"
        },
        {
          "internalType": "uint256[8]",
          "name": "_proof",
          "type": "uint256[8]"
        }
      ],
      "name": "startUserStateTransition",
      "outputs": [],
      "stateMutability": "nonpayable",
      "type": "function"
    },
    {
      "inputs": [
        {
          "components": [
            {
              "internalType": "uint256",
              "name": "attesterId",
              "type": "uint256"
            },
            {
              "internalType": "uint256",
              "name": "posRep",
              "type": "uint256"
            },
            {
              "internalType": "uint256",
              "name": "negRep",
              "type": "uint256"
            },
            {
              "internalType": "uint256",
              "name": "graffiti",
              "type": "uint256"
            },
            {
              "internalType": "uint256",
              "name": "signUp",
              "type": "uint256"
            }
          ],
          "internalType": "struct DomainObjs.Attestation",
          "name": "attestation",
          "type": "tuple"
        },
        {
          "internalType": "uint256",
          "name": "epochKey",
          "type": "uint256"
        }
      ],
      "name": "submitAttestation",
      "outputs": [],
      "stateMutability": "payable",
      "type": "function"
    },
    {
      "inputs": [
        {
          "internalType": "address",
          "name": "attester",
          "type": "address"
        },
        {
          "internalType": "bytes",
          "name": "signature",
          "type": "bytes"
        },
        {
          "components": [
            {
              "internalType": "uint256",
              "name": "attesterId",
              "type": "uint256"
            },
            {
              "internalType": "uint256",
              "name": "posRep",
              "type": "uint256"
            },
            {
              "internalType": "uint256",
              "name": "negRep",
              "type": "uint256"
            },
            {
              "internalType": "uint256",
              "name": "graffiti",
              "type": "uint256"
            },
            {
              "internalType": "uint256",
              "name": "signUp",
              "type": "uint256"
            }
          ],
          "internalType": "struct DomainObjs.Attestation",
          "name": "attestation",
          "type": "tuple"
        },
        {
          "internalType": "uint256",
          "name": "epochKey",
          "type": "uint256"
        }
      ],
      "name": "submitAttestationViaRelayer",
      "outputs": [],
      "stateMutability": "payable",
      "type": "function"
    },
    {
      "inputs": [
        {
          "internalType": "uint256[]",
          "name": "_repNullifiers",
          "type": "uint256[]"
        },
        {
          "internalType": "uint256",
          "name": "_epoch",
          "type": "uint256"
        },
        {
          "internalType": "uint256",
          "name": "_epochKey",
          "type": "uint256"
        },
        {
          "internalType": "uint256",
          "name": "_globalStateTree",
          "type": "uint256"
        },
        {
          "internalType": "uint256",
          "name": "_attesterId",
          "type": "uint256"
        },
        {
          "internalType": "uint256",
          "name": "_proveReputationAmount",
          "type": "uint256"
        },
        {
          "internalType": "uint256",
          "name": "_minRep",
          "type": "uint256"
        },
        {
          "internalType": "uint256",
          "name": "_proveGraffiti",
          "type": "uint256"
        },
        {
          "internalType": "uint256",
          "name": "_graffitiPreImage",
          "type": "uint256"
        },
        {
          "internalType": "uint256[8]",
          "name": "_proof",
          "type": "uint256[8]"
        }
      ],
      "name": "submitReputationNullifiers",
      "outputs": [],
      "stateMutability": "nonpayable",
      "type": "function"
    },
    {
      "inputs": [],
      "name": "treeDepths",
      "outputs": [
        {
          "internalType": "uint8",
          "name": "globalStateTreeDepth",
          "type": "uint8"
        },
        {
          "internalType": "uint8",
          "name": "userStateTreeDepth",
          "type": "uint8"
        },
        {
          "internalType": "uint8",
          "name": "epochTreeDepth",
          "type": "uint8"
        }
      ],
      "stateMutability": "view",
      "type": "function"
    },
    {
      "inputs": [
        {
          "internalType": "uint256[8]",
          "name": "_proof",
          "type": "uint256[8]"
        }
      ],
      "name": "unpackProof",
      "outputs": [
        {
          "internalType": "uint256[2]",
          "name": "",
          "type": "uint256[2]"
        },
        {
          "internalType": "uint256[2][2]",
          "name": "",
          "type": "uint256[2][2]"
        },
        {
          "internalType": "uint256[2]",
          "name": "",
          "type": "uint256[2]"
        }
      ],
      "stateMutability": "pure",
      "type": "function"
    },
    {
      "inputs": [
        {
          "internalType": "uint256",
          "name": "_newGlobalStateTreeLeaf",
          "type": "uint256"
        },
        {
          "internalType": "uint256[]",
          "name": "_epkNullifiers",
          "type": "uint256[]"
        },
        {
          "internalType": "uint256[]",
          "name": "_blindedUserStates",
          "type": "uint256[]"
        },
        {
          "internalType": "uint256[]",
          "name": "_blindedHashChains",
          "type": "uint256[]"
        },
        {
          "internalType": "uint256",
          "name": "_transitionFromEpoch",
          "type": "uint256"
        },
        {
          "internalType": "uint256",
          "name": "_fromGlobalStateTree",
          "type": "uint256"
        },
        {
          "internalType": "uint256",
          "name": "_fromEpochTree",
          "type": "uint256"
        },
        {
          "internalType": "uint256[8]",
          "name": "_proof",
          "type": "uint256[8]"
        }
      ],
      "name": "updateUserStateRoot",
      "outputs": [],
      "stateMutability": "nonpayable",
      "type": "function"
    },
    {
      "inputs": [
        {
          "internalType": "uint256",
          "name": "_identityCommitment",
          "type": "uint256"
        }
      ],
      "name": "userSignUp",
      "outputs": [],
      "stateMutability": "nonpayable",
      "type": "function"
    },
    {
      "inputs": [
        {
          "internalType": "uint256",
          "name": "_globalStateTree",
          "type": "uint256"
        },
        {
          "internalType": "uint256",
          "name": "_epoch",
          "type": "uint256"
        },
        {
          "internalType": "uint256",
          "name": "_epochKey",
          "type": "uint256"
        },
        {
          "internalType": "uint256[8]",
          "name": "_proof",
          "type": "uint256[8]"
        }
      ],
      "name": "verifyEpochKeyValidity",
      "outputs": [
        {
          "internalType": "bool",
          "name": "",
          "type": "bool"
        }
      ],
      "stateMutability": "view",
      "type": "function"
    },
    {
      "inputs": [
        {
          "internalType": "uint256",
          "name": "_outputBlindedUserState",
          "type": "uint256"
        },
        {
          "internalType": "uint256",
          "name": "_outputBlindedHashChain",
          "type": "uint256"
        },
        {
          "internalType": "uint256",
          "name": "_inputBlindedUserState",
          "type": "uint256"
        },
        {
          "internalType": "uint256[8]",
          "name": "_proof",
          "type": "uint256[8]"
        }
      ],
      "name": "verifyProcessAttestationProof",
      "outputs": [
        {
          "internalType": "bool",
          "name": "",
          "type": "bool"
        }
      ],
      "stateMutability": "view",
      "type": "function"
    },
    {
      "inputs": [
        {
          "internalType": "uint256[]",
          "name": "_repNullifiers",
          "type": "uint256[]"
        },
        {
          "internalType": "uint256",
          "name": "_epoch",
          "type": "uint256"
        },
        {
          "internalType": "uint256",
          "name": "_epochKey",
          "type": "uint256"
        },
        {
          "internalType": "uint256",
          "name": "_globalStateTree",
          "type": "uint256"
        },
        {
          "internalType": "uint256",
          "name": "_attesterId",
          "type": "uint256"
        },
        {
          "internalType": "uint256",
          "name": "_proveReputationAmount",
          "type": "uint256"
        },
        {
          "internalType": "uint256",
          "name": "_minRep",
          "type": "uint256"
        },
        {
          "internalType": "uint256",
          "name": "_proveGraffiti",
          "type": "uint256"
        },
        {
          "internalType": "uint256",
          "name": "_graffitiPreImage",
          "type": "uint256"
        },
        {
          "internalType": "uint256[8]",
          "name": "_proof",
          "type": "uint256[8]"
        }
      ],
      "name": "verifyReputation",
      "outputs": [
        {
          "internalType": "bool",
          "name": "",
          "type": "bool"
        }
      ],
      "stateMutability": "view",
      "type": "function"
    },
    {
      "inputs": [
        {
          "internalType": "uint256",
          "name": "_blindedUserState",
          "type": "uint256"
        },
        {
          "internalType": "uint256",
          "name": "_blindedHashChain",
          "type": "uint256"
        },
        {
          "internalType": "uint256",
          "name": "_GSTRoot",
          "type": "uint256"
        },
        {
          "internalType": "uint256[8]",
          "name": "_proof",
          "type": "uint256[8]"
        }
      ],
      "name": "verifyStartTransitionProof",
      "outputs": [
        {
          "internalType": "bool",
          "name": "",
          "type": "bool"
        }
      ],
      "stateMutability": "view",
      "type": "function"
    },
    {
      "inputs": [
        {
          "internalType": "uint256",
          "name": "_epoch",
          "type": "uint256"
        },
        {
          "internalType": "uint256",
          "name": "_epochKey",
          "type": "uint256"
        },
        {
          "internalType": "uint256",
          "name": "_globalStateTree",
          "type": "uint256"
        },
        {
          "internalType": "uint256",
          "name": "_attesterId",
          "type": "uint256"
        },
        {
          "internalType": "uint256[8]",
          "name": "_proof",
          "type": "uint256[8]"
        }
      ],
      "name": "verifyUserSignUp",
      "outputs": [
        {
          "internalType": "bool",
          "name": "",
          "type": "bool"
        }
      ],
      "stateMutability": "view",
      "type": "function"
    },
    {
      "inputs": [
        {
          "internalType": "uint256",
          "name": "_newGlobalStateTreeLeaf",
          "type": "uint256"
        },
        {
          "internalType": "uint256[]",
          "name": "_epkNullifiers",
          "type": "uint256[]"
        },
        {
          "internalType": "uint256",
          "name": "_transitionFromEpoch",
          "type": "uint256"
        },
        {
          "internalType": "uint256[]",
          "name": "_blindedUserStates",
          "type": "uint256[]"
        },
        {
          "internalType": "uint256",
          "name": "_fromGlobalStateTree",
          "type": "uint256"
        },
        {
          "internalType": "uint256[]",
          "name": "_blindedHashChains",
          "type": "uint256[]"
        },
        {
          "internalType": "uint256",
          "name": "_fromEpochTree",
          "type": "uint256"
        },
        {
          "internalType": "uint256[8]",
          "name": "_proof",
          "type": "uint256[8]"
        }
      ],
      "name": "verifyUserStateTransition",
      "outputs": [
        {
          "internalType": "bool",
          "name": "",
          "type": "bool"
        }
      ],
      "stateMutability": "view",
      "type": "function"
    },
    {
      "inputs": [],
      "name": "zeroNullifier",
      "outputs": [
        {
          "internalType": "uint256",
          "name": "",
          "type": "uint256"
        }
      ],
      "stateMutability": "view",
      "type": "function"
    }
  ],
  "bytecode": "0x6101606040527f30644e72e131a029b85045b68181585d2833e84879b9709143e1f593f0000001620000336101806200073a565b6040516020818303038152906040528051906020012060001c620000589190620009ec565b60005560016007556000600a556000600b5560016010553480156200007c57600080fd5b50604051620055fe380380620055fe8339810160408190526200009f91620005f8565b8b601560008201518160000160006101000a81548160ff021916908360ff16021790555060208201518160000160016101000a81548160ff021916908360ff16021790555060408201518160000160026101000a81548160ff021916908360ff16021790555090505089600160006101000a8154816001600160a01b0302191690836001600160a01b0316021790555088600260006101000a8154816001600160a01b0302191690836001600160a01b0316021790555087600360006101000a8154816001600160a01b0302191690836001600160a01b0316021790555086600460006101000a8154816001600160a01b0302191690836001600160a01b0316021790555085600560006101000a8154816001600160a01b0302191690836001600160a01b0316021790555084600660006101000a8154816001600160a01b0302191690836001600160a01b031602179055508360ff1660c08160ff1660f81b815250508260ff1660e08160ff1660f81b81525050816080818152505042600881905550600060018d6000015160026200023a9190620008b7565b620002469190620009af565b9050808c600001511115620002785760405162461bcd60e51b81526004016200026f90620007fb565b60405180910390fd5b8b516101005260208d01516200028e90620002f3565b6009558c516200029e9062000375565b60a0908152610140839052604080519182018152600080835260208301819052908201819052606082018190526080820152620002db9062000399565b610120525062000a239b505050505050505050505050565b6000620002ff6200056a565b60005b60058160ff1610156200034f576000828260ff16600581106200033557634e487b7160e01b600052603260045260246000fd5b6020020152806200034681620009c9565b91505062000302565b5060006200035d8262000399565b90506200036b84826200042f565b925050505b919050565b604080518082019091526000808252600954602083015290816200035d82620004b7565b604051630926f44b60e31b815260009073__$223301b175b06473d424a7afc957d4e96c$__90634937a25890620003d59085906004016200077f565b60206040518083038186803b158015620003ee57600080fd5b505af415801562000403573d6000803e3d6000fd5b505050506040513d601f19601f8201168201806040525081019062000429919062000721565b92915050565b6000808360ff161180156200044957506101008360ff1611155b620004685760405162461bcd60e51b81526004016200026f90620007a9565b8160015b8460ff168160ff161015620004a2576000620004898380620004c7565b92508190506200049981620009c9565b9150506200046c565b50620004af8180620004c7565b949350505050565b8051602082015160009162000429915b6000620004d362000588565b838152602081018390526040516314d2f97b60e11b815273__$86e0c54df1042e28bf2dd20ccf184dc428$__906329a5f2f690620005169084906004016200074c565b60206040518083038186803b1580156200052f57600080fd5b505af415801562000544573d6000803e3d6000fd5b505050506040513d601f19601f82011682018060405250810190620004af919062000721565b6040518060a001604052806005906020820280368337509192915050565b60405180604001604052806002906020820280368337509192915050565b80516001600160a01b03811681146200037057600080fd5b600060208284031215620005d0578081fd5b620005dc602062000832565b9151825250919050565b805160ff811681146200037057600080fd5b6000806000806000806000806000806000808c8e036101c08112156200061c578889fd5b60608112156200062a578889fd5b5062000637606062000832565b620006428e620005e6565b81526200065260208f01620005e6565b60208201526200066560408f01620005e6565b60408201529b506200067b8e60608f01620005be565b9a506200068b60808e01620005a6565b99506200069b60a08e01620005a6565b9850620006ab60c08e01620005a6565b9750620006bb60e08e01620005a6565b9650620006cc6101008e01620005a6565b9550620006dd6101208e01620005a6565b9450620006ee6101408e01620005e6565b9350620006ff6101608e01620005e6565b92506101808d015191506101a08d015190509295989b509295989b509295989b565b60006020828403121562000733578081fd5b5051919050565b650556e697265760d41b815260060190565b60408101818360005b60028110156200077657815183526020928301929091019060010162000755565b50505092915050565b60a08101818360005b60058110156200077657815183526020928301929091019060010162000788565b60208082526032908201527f436f6d70757465526f6f743a205f747265654c6576656c73206d757374206265604082015271103132ba3bb2b2b710181030b73210191a9b60711b606082015260800190565b6020808252601e908201527f556e697265703a20696e76616c6964206d617855736572732076616c75650000604082015260600190565b6040518181016001600160401b03811182821017156200086257634e487b7160e01b600052604160045260246000fd5b604052919050565b80825b60018086116200087e5750620008ae565b81870482111562000893576200089362000a0d565b80861615620008a157918102915b9490941c9380026200086d565b94509492505050565b6000620008cb60001960ff851684620008d2565b9392505050565b600082620008e357506001620008cb565b81620008f257506000620008cb565b81600181146200090b576002811462000916576200094a565b6001915050620008cb565b60ff8411156200092a576200092a62000a0d565b6001841b91508482111562000943576200094362000a0d565b50620008cb565b5060208310610133831016604e8410600b841016171562000982575081810a838111156200097c576200097c62000a0d565b620008cb565b6200099184848460016200086a565b808604821115620009a657620009a662000a0d565b02949350505050565b600082821015620009c457620009c462000a0d565b500390565b600060ff821660ff811415620009e357620009e362000a0d565b60010192915050565b60008262000a0857634e487b7160e01b81526012600452602481fd5b500690565b634e487b7160e01b600052601160045260246000fd5b60805160a05160c05160f81c60e05160f81c610100516101205161014051614acb62000b3360003960008181610bb701528181611cec0152612ca2015260006121f30152600081816111e801526123e7015260008181610c7901528181610d1401528181610d6601528181610dbf01528181610e1801528181610e7101528181610eca01528181610f2301528181610f7c015281816122170152818161227601526122b60152600081816115a40152818161212901528181612417015281816124cf01528181612579015281816125f70152818161267a015281816126d8015281816127300152818161278a015261280501526000611f3201526000818161092701526118310152614acb6000f3fe6080604052600436106102ff5760003560e01c80639109d1eb11610190578063b876ed71116100dc578063e1b0e80211610095578063f5ab0dd61161006f578063f5ab0dd614610880578063f73c8ebb146108af578063fc14478a146108cf578063fd551331146108ef576102ff565b8063e1b0e80214610836578063e87101b11461084b578063f20ca7ff14610860576102ff565b8063b876ed7114610797578063bc9bf145146107b7578063c2639673146107cc578063c6e01232146107e1578063d3aa645b146107f6578063da25e81914610816576102ff565b8063a4ecf46911610149578063a7c264ca11610123578063a7c264ca1461071c578063a7ebaa751461073e578063ac98e5df14610753578063b530dc8c14610777576102ff565b8063a4ecf469146106bc578063a5500c30146106dc578063a710d60f146106fc576102ff565b80639109d1eb14610628578063918f0c161461063d57806398588c1f146106525780639cfced9714610672578063a27e572a14610692578063a3836b20146106a7576102ff565b80634d6f77a71161024f578063705edd3911610208578063777a296e116101e2578063777a296e146105a55780637aeb103f146105c5578063839beeb8146105f357806383e168ad14610608576102ff565b8063705edd391461055b5780637341ead9146105705780637667180814610590576102ff565b80634d6f77a7146104b15780634edc9ace146104d157806356df4634146104f157806357d775f8146105065780635b3745b51461051b5780635bb939951461053b576102ff565b80632b95f97e116102bc5780633acce985116102965780633acce98514610431578063417b16e314610451578063436b32d8146104715780634cce1a9a14610491576102ff565b80632b95f97e146103d15780632fa6773b146103f15780633334dc5b14610411576102ff565b806307d8330814610304578063083789d31461032f57806309663b291461034f578063131a91ad146103715780631c89e8e814610391578063258da4db146103be575b600080fd5b34801561031057600080fd5b50610319610902565b6040516103269190614801565b60405180910390f35b34801561033b57600080fd5b5061031961034a3660046138e8565b610908565b34801561035b57600080fd5b5061036f61036a3660046138e8565b610920565b005b34801561037d57600080fd5b5061031961038c3660046135da565b610b04565b34801561039d57600080fd5b506103b16103ac3660046138e8565b610b16565b6040516103269190613df3565b61036f6103cc366004613803565b610b2b565b3480156103dd57600080fd5b506103196103ec3660046138e8565b610c13565b3480156103fd57600080fd5b5061031961040c3660046138e8565b610c3a565b34801561041d57600080fd5b506103b161042c366004613742565b610c4c565b34801561043d57600080fd5b5061031961044c366004613a96565b611131565b34801561045d57600080fd5b5061036f61046c3660046138e8565b6111b7565b34801561047d57600080fd5b506103b161048c366004613b2c565b611345565b34801561049d57600080fd5b5061036f6104ac366004613918565b61157f565b3480156104bd57600080fd5b506103196104cc3660046138e8565b611753565b3480156104dd57600080fd5b506103196104ec366004613b76565b611765565b3480156104fd57600080fd5b5061036f6117d9565b34801561051257600080fd5b5061031961182f565b34801561052757600080fd5b506103b1610536366004613af7565b611853565b34801561054757600080fd5b50610319610556366004613a96565b611a38565b34801561056757600080fd5b50610319611ad3565b34801561057c57600080fd5b5061031961058b36600461389b565b611afa565b34801561059c57600080fd5b50610319611b0e565b3480156105b157600080fd5b506103196105c0366004613a96565b611b14565b3480156105d157600080fd5b506105e56105e03660046138e8565b611b63565b604051610326929190613dc5565b3480156105ff57600080fd5b50610319611cea565b34801561061457600080fd5b50610319610623366004613b9f565b611d0e565b34801561063457600080fd5b50610319611dcd565b34801561064957600080fd5b50610319611dd3565b34801561065e57600080fd5b5061036f61066d3660046135f4565b611dd9565b34801561067e57600080fd5b5061031961068d3660046136b0565b611e84565b34801561069e57600080fd5b5061036f611f0e565b3480156106b357600080fd5b50610319611f30565b3480156106c857600080fd5b506103b16106d73660046138e8565b611f54565b3480156106e857600080fd5b5061036f6106f73660046138e8565b611f69565b34801561070857600080fd5b506103b1610717366004613af7565b611fa7565b34801561072857600080fd5b50610731612127565b60405161032691906148e9565b34801561074a57600080fd5b5061036f61214b565b34801561075f57600080fd5b50610768612160565b604051610326939291906148f7565b34801561078357600080fd5b506103196107923660046135da565b61217c565b3480156107a357600080fd5b5061036f6107b2366004613ab7565b61218e565b3480156107c357600080fd5b506103196121f1565b3480156107d857600080fd5b50610731612215565b3480156107ed57600080fd5b50610319612239565b34801561080257600080fd5b506103196108113660046135da565b61223f565b34801561082257600080fd5b5061036f610831366004613742565b612251565b34801561084257600080fd5b506103196123e5565b34801561085757600080fd5b50610319612409565b34801561086c57600080fd5b506103b161087b3660046139d7565b61240f565b34801561088c57600080fd5b506108a061089b366004613726565b612957565b60405161032693929190613d17565b3480156108bb57600080fd5b5061036f6108ca366004613ab7565b6129e0565b3480156108db57600080fd5b506103b16108ea366004613af7565b612a44565b61036f6108fd366004613644565b612bc4565b600d5481565b6000818152601360205260409020600201545b919050565b60005a90507f00000000000000000000000000000000000000000000000000000000000000006008544261095491906149ad565b101561097b5760405162461bcd60e51b815260040161097290614023565b60405180910390fd5b60075460009081526013602052604081206002810154905482906109a8906109a38488612d01565b612d14565b9050815b81811015610a25576007546000908152601360209081526040808320848452600190810183528184205480855260129093529220549095506109ee9190611a38565b6000858152601260209081526040808320939093556011905220805460ff1916600117905580610a1d816149c4565b9150506109ac565b5060078054600090815260136020526040808220600201849055915481522054811415610aba57600080516020614a76833981519152604051610a67906140f8565b60405180910390a16007546040517f751bb1ba7b27b3979a32844d4d05aa16a46a771b751593704834a80311e3a9b990600090a24260085560078054906000610aaf836149c4565b90915550506000600b555b6000610ac75a8690612d2c565b9050610aec610ad6823a612d38565b336000908152600e602052604090205490612d01565b336000908152600e6020526040902055505050505050565b600f6020526000908152604090205481565b600c6020526000908152604090205460ff1681565b336000908152600f6020526040902054610b575760405162461bcd60e51b815260040161097290613fdd565b336000908152600f6020526040902054823514610b865760405162461bcd60e51b8152600401610972906145ef565b60008181526011602052604090205460ff1615610bb55760405162461bcd60e51b815260040161097290614285565b7f00000000000000000000000000000000000000000000000000000000000000003414610bf45760405162461bcd60e51b8152600401610972906140ac565b600d54610c019034612d01565b600d55610c0f338383612d44565b5050565b6000610c1d61333c565b828152600160608201819052610c3282611e84565b949350505050565b60126020526000908152604090205481565b6040805160128082526102608201909252600091829190602082016102408036833701905050905060005b7f000000000000000000000000000000000000000000000000000000000000000060ff168160ff161015610d0f578d8d8260ff16818110610cc857634e487b7160e01b600052603260045260246000fd5b90506020020135828260ff1681518110610cf257634e487b7160e01b600052603260045260246000fd5b602090810291909101015280610d07816149df565b915050610c77565b508a817f000000000000000000000000000000000000000000000000000000000000000060ff1681518110610d5457634e487b7160e01b600052603260045260246000fd5b60209081029190910101528981610d8c7f0000000000000000000000000000000000000000000000000000000000000000600161492c565b60ff1681518110610dad57634e487b7160e01b600052603260045260246000fd5b60209081029190910101528881610de57f0000000000000000000000000000000000000000000000000000000000000000600261492c565b60ff1681518110610e0657634e487b7160e01b600052603260045260246000fd5b60209081029190910101528781610e3e7f0000000000000000000000000000000000000000000000000000000000000000600361492c565b60ff1681518110610e5f57634e487b7160e01b600052603260045260246000fd5b60209081029190910101528681610e977f0000000000000000000000000000000000000000000000000000000000000000600461492c565b60ff1681518110610eb857634e487b7160e01b600052603260045260246000fd5b60209081029190910101528581610ef07f0000000000000000000000000000000000000000000000000000000000000000600561492c565b60ff1681518110610f1157634e487b7160e01b600052603260045260246000fd5b60209081029190910101528481610f497f0000000000000000000000000000000000000000000000000000000000000000600661492c565b60ff1681518110610f6a57634e487b7160e01b600052603260045260246000fd5b60209081029190910101528381610fa27f0000000000000000000000000000000000000000000000000000000000000000600761492c565b60ff1681518110610fc357634e487b7160e01b600052603260045260246000fd5b60200260200101818152505060005b81518160ff16101561104757600080516020614a56833981519152828260ff168151811061101057634e487b7160e01b600052603260045260246000fd5b6020026020010151106110355760405162461bcd60e51b815260040161097290614626565b8061103f816149df565b915050610fd2565b5061105061335a565b6040805161010081810190925261107f9186906008908390839080828437600092019190915250612957915050565b60408085018290526020850183905283855260055490516361971b8760e11b81526001600160a01b039091169363c32e370e936110c59391929091908890600401613d40565b60206040518083038186803b1580156110dd57600080fd5b505afa1580156110f1573d6000803e3d6000fd5b505050506040513d601f19601f8201168201806040525081019061111591906137e3565b151560609091018190529150509b9a5050505050505050505050565b600061113b61333c565b60005b60058160ff161015611186576000828260ff166005811061116f57634e487b7160e01b600052603260045260246000fd5b60200201528061117e816149df565b91505061113e565b50600061119282611e84565b6015549091506111ac90610100900460ff16868684611d0e565b925050505b92915050565b6000818152600c602052604090205460ff16156111e65760405162461bcd60e51b8152600401610972906143c9565b7f0000000000000000000000000000000000000000000000000000000000000000600a54106112275760405162461bcd60e51b81526004016109729061423c565b600954336000908152600f602090815260408083205460149092529091205481158015906112555750600081115b1561127557600061126582610c13565b90506112718382611131565b9350505b6040805180820190915284815260208101849052600061129482611afa565b6000878152600c60205260408120805460ff19166001179055600a8054929350906112be836149c4565b9190505550600080516020614a768339815191526040516112de906146cb565b60405180910390a16007547f9a965b974adcc5af3e5c811827630ad09160710bebb1621ec72cb1cbf0050cb7600b5483878760405161132094939291906148ce565b60405180910390a2600b8054906000611338836149c4565b9190505550505050505050565b60408051600480825260a0820190925260009182919060208201608080368337019050509050868160008151811061138d57634e487b7160e01b600052603260045260246000fd5b60200260200101818152505085816001815181106113bb57634e487b7160e01b600052603260045260246000fd5b60200260200101818152505084816002815181106113e957634e487b7160e01b600052603260045260246000fd5b602002602001018181525050838160038151811061141757634e487b7160e01b600052603260045260246000fd5b60200260200101818152505060005b81518160ff16101561149b57600080516020614a56833981519152828260ff168151811061146457634e487b7160e01b600052603260045260246000fd5b6020026020010151106114895760405162461bcd60e51b815260040161097290614626565b80611493816149df565b915050611426565b506114a461335a565b604080516101008181019092526114d39186906008908390839080828437600092019190915250612957915050565b60408085018290526020850183905283855260065490516361971b8760e11b81526001600160a01b039091169363c32e370e936115199391929091908890600401613d40565b60206040518083038186803b15801561153157600080fd5b505afa158015611545573d6000803e3d6000fd5b505050506040513d601f19601f8201168201806040525081019061156991906137e3565b1515606090910181905291505095945050505050565b60075484106115a05760405162461bcd60e51b8152600401610972906142d9565b60ff7f00000000000000000000000000000000000000000000000000000000000000001689146115e25760405162461bcd60e51b815260040161097290614683565b6115ea613394565b848152602081018490526040808201849052606082018d90528051610100818101909252908390600890839083908082843760009201919091525050506080820152604080516020808b0282810182019093528a825290918b918b91829185019084908082843760009201919091525050505060a08201526040805160208089028281018201909352888252909189918991829185019084908082843760009201919091525050505060c0820152604080516020808d0282810182019093528c825290918d918d91829185019084908082843760009201919091525050505060e0820152604051600080516020614a76833981519152906116ea9061440f565b60405180910390a16007547fe4d3d9968cbe83e3f78ff28e3ec13aed2d63400dbdd05b7f5fcb01a9459a74a2600b5483604051611728929190614826565b60405180910390a2600b8054906000611740836149c4565b9190505550505050505050505050505050565b60009081526013602052604090205490565b6000808360ff1611801561177e57506101008360ff1611155b61179a5760405162461bcd60e51b81526004016109729061405a565b8160015b8460ff168160ff1610156117ce5760006117b88384611a38565b92508190506117c6816149df565b91505061179e565b50610c328182611a38565b336000908152600f6020526040902054156118065760405162461bcd60e51b815260040161097290613e8a565b60108054336000908152600f60205260408120829055909190611828836149c4565b9190505550565b7f000000000000000000000000000000000000000000000000000000000000000081565b60408051600480825260a0820190925260009182919060208201608080368337019050509050858160008151811061189b57634e487b7160e01b600052603260045260246000fd5b60200260200101818152505084816001815181106118c957634e487b7160e01b600052603260045260246000fd5b60200260200101818152505083816002815181106118f757634e487b7160e01b600052603260045260246000fd5b60200260200101818152505060005b81518160ff16101561197b57600080516020614a56833981519152828260ff168151811061194457634e487b7160e01b600052603260045260246000fd5b6020026020010151106119695760405162461bcd60e51b815260040161097290614626565b80611973816149df565b915050611906565b5061198461335a565b61198d84612957565b60408085018290526020850183905283855260025490516361971b8760e11b81526001600160a01b039091169363c32e370e936119d39391929091908890600401613d40565b60206040518083038186803b1580156119eb57600080fd5b505afa1580156119ff573d6000803e3d6000fd5b505050506040513d601f19601f82011682018060405250810190611a2391906137e3565b15156060909101819052915050949350505050565b6000611a426133df565b838152602081018390526040516314d2f97b60e11b815273__$86e0c54df1042e28bf2dd20ccf184dc428$__906329a5f2f690611a83908490600401613ce6565b60206040518083038186803b158015611a9b57600080fd5b505af4158015611aaf573d6000803e3d6000fd5b505050506040513d601f19601f82011682018060405250810190610c329190613900565b604080518082019091526000808252600954602083015290611af481611afa565b91505090565b60006111b182600001518360200151611a38565b60075481565b6000828152601360205260408120548210611b415760405162461bcd60e51b81526004016109729061411c565b5060009182526013602090815260408084209284526001909201905290205490565b60008181526013602052604081205460609182916001600160401b03811115611b9c57634e487b7160e01b600052604160045260246000fd5b604051908082528060200260200182016040528015611bc5578160200160208202803683370190505b506000858152601360205260409020549093506001600160401b03811115611bfd57634e487b7160e01b600052604160045260246000fd5b604051908082528060200260200182016040528015611c26578160200160208202803683370190505b50915060005b600085815260136020526040902054811015611ce357600085815260136020908152604080832084845260010190915290205484519092508290859083908110611c8657634e487b7160e01b600052603260045260246000fd5b6020026020010181815250506012600083815260200190815260200160002054838281518110611cc657634e487b7160e01b600052603260045260246000fd5b602090810291909101015280611cdb816149c4565b915050611c2c565b5050915091565b7f000000000000000000000000000000000000000000000000000000000000000081565b6000808560ff16118015611d2757506101008560ff1611155b611d435760405162461bcd60e51b81526004016109729061405a565b82828560015b611d5489600161492c565b60ff168160ff161015611dc0576000611d6d8485611a38565b9050611d7a6002846149ff565b611d8f57611d888585611a38565b9450611d9c565b611d998486611a38565b94505b925082611daa600284614951565b9250508080611db8906149df565b915050611d49565b5091979650505050505050565b60105481565b600a5481565b6001600160a01b0383166000908152600f602052604090205415611e0f5760405162461bcd60e51b815260040161097290613e8a565b611e4f8383838080601f016020809104026020016040519081016040528093929190818152602001838380828437600092019190915250612eff92505050565b601080546001600160a01b0385166000908152600f60205260408120829055909190611e7a836149c4565b9190505550505050565b604051630926f44b60e31b815260009073__$223301b175b06473d424a7afc957d4e96c$__90634937a25890611ebe908590600401613d87565b60206040518083038186803b158015611ed657600080fd5b505af4158015611eea573d6000803e3d6000fd5b505050506040513d601f19601f820116820180604052508101906111b19190613900565b336000818152600e60205260408120805491905590611f2d9082612f91565b50565b7f000000000000000000000000000000000000000000000000000000000000000081565b60116020526000908152604090205460ff1681565b336000908152600f6020526040902054611f955760405162461bcd60e51b815260040161097290613fdd565b33600090815260146020526040902055565b60408051600480825260a08201909252600091829190602082016080803683370190505090508581600081518110611fef57634e487b7160e01b600052603260045260246000fd5b602002602001018181525050848160018151811061201d57634e487b7160e01b600052603260045260246000fd5b602002602001018181525050838160028151811061204b57634e487b7160e01b600052603260045260246000fd5b60200260200101818152505060005b81518160ff1610156120cf57600080516020614a56833981519152828260ff168151811061209857634e487b7160e01b600052603260045260246000fd5b6020026020010151106120bd5760405162461bcd60e51b815260040161097290614626565b806120c7816149df565b91505061205a565b506120d861335a565b6120e184612957565b60408085018290526020850183905283855260035490516361971b8760e11b81526001600160a01b039091169363c32e370e936119d39391929091908890600401613d40565b7f000000000000000000000000000000000000000000000000000000000000000081565b600d805460009182905590611f2d9082612f91565b60155460ff808216916101008104821691620100009091041683565b60146020526000908152604090205481565b600080516020614a768339815191526040516121a9906144c0565b60405180910390a18183857f8c931646c751bc03b19a78d2726e212e11ed65ed0815b00e9d4407eb9e579f96846040516121e39190613daf565b60405180910390a450505050565b7f000000000000000000000000000000000000000000000000000000000000000081565b7f000000000000000000000000000000000000000000000000000000000000000081565b60095481565b600e6020526000908152604090205481565b60075489146122725760405162461bcd60e51b8152600401610972906144eb565b60ff7f0000000000000000000000000000000000000000000000000000000000000000168a146122b45760405162461bcd60e51b815260040161097290613ed0565b7f000000000000000000000000000000000000000000000000000000000000000060ff168511156122f75760405162461bcd60e51b81526004016109729061446d565b60105486106123185760405162461bcd60e51b815260040161097290614548565b6123206133fd565b888152602081018890526040808201889052606082018790526080820186905260a0820185905260c0820184905280516101008181019092529083906008908390839080828437600092019190915250505060e0820152604051600080516020614a768339815191529061239390613e53565b60405180910390a1897f5579a3088d5a8627c8147da49ee4be1a9074dc1996d6e3d19d0ebe3475265231828e8e6040516123cf9392919061476b565b60405180910390a2505050505050505050505050565b7f000000000000000000000000000000000000000000000000000000000000000081565b60085481565b60008061243d7f00000000000000000000000000000000000000000000000000000000000000006002614984565b61244890600661492c565b60ff166001600160401b0381111561247057634e487b7160e01b600052604160045260246000fd5b604051908082528060200260200182016040528015612499578160200160208202803683370190505b5090508c816000815181106124be57634e487b7160e01b600052603260045260246000fd5b60200260200101818152505060005b7f000000000000000000000000000000000000000000000000000000000000000060ff168160ff161015612571578c8c8260ff1681811061251e57634e487b7160e01b600052603260045260246000fd5b9050602002013582826001612533919061492c565b60ff168151811061255457634e487b7160e01b600052603260045260246000fd5b602090810291909101015280612569816149df565b9150506124cd565b50898161259f7f0000000000000000000000000000000000000000000000000000000000000000600161492c565b60ff16815181106125c057634e487b7160e01b600052603260045260246000fd5b602002602001018181525050888860008181106125ed57634e487b7160e01b600052603260045260246000fd5b90506020020135817f00000000000000000000000000000000000000000000000000000000000000006002612622919061492c565b60ff168151811061264357634e487b7160e01b600052603260045260246000fd5b6020026020010181815250508888600181811061267057634e487b7160e01b600052603260045260246000fd5b90506020020135817f000000000000000000000000000000000000000000000000000000000000000060036126a5919061492c565b60ff16815181106126c657634e487b7160e01b600052603260045260246000fd5b602090810291909101015286816126fe7f0000000000000000000000000000000000000000000000000000000000000000600461492c565b60ff168151811061271f57634e487b7160e01b600052603260045260246000fd5b60200260200101818152505060005b7f000000000000000000000000000000000000000000000000000000000000000060ff168160ff1610156127fd5786868260ff1681811061277f57634e487b7160e01b600052603260045260246000fd5b9050602002013582827f000000000000000000000000000000000000000000000000000000000000000060056127b5919061492c565b6127bf919061492c565b60ff16815181106127e057634e487b7160e01b600052603260045260246000fd5b6020908102919091010152806127f5816149df565b91505061272e565b50838161282b7f00000000000000000000000000000000000000000000000000000000000000006002614984565b61283690600561492c565b60ff168151811061285757634e487b7160e01b600052603260045260246000fd5b60200260200101818152505060005b81518160ff1610156128db57600080516020614a56833981519152828260ff16815181106128a457634e487b7160e01b600052603260045260246000fd5b6020026020010151106128c95760405162461bcd60e51b815260040161097290614626565b806128d3816149df565b915050612866565b506128e461335a565b604080516101008181019092526129139186906008908390839080828437600092019190915250612957915050565b6040808501829052602085018390528385526004805491516361971b8760e11b81526001600160a01b039092169463c32e370e946110c59491939092899101613d40565b61295f6133df565b612967613447565b61296f6133df565b50506040805180820182528351815260208085015181830152825160808082018552868501518286019081526060808901519084015282528451808601865290870151815260a08701518184015281830152835180850190945260c0860151845260e0909501519083015293909150565b600080516020614a768339815191526040516129fb9061443e565b60405180910390a182847fb91edc6d40651acb63b84259617d123737d66e253044b4f6f60bcfd6972661ea8484604051612a3692919061480a565b60405180910390a350505050565b60408051600380825260808201909252600091829190602082016060803683370190505090508581600081518110612a8c57634e487b7160e01b600052603260045260246000fd5b6020026020010181815250508481600181518110612aba57634e487b7160e01b600052603260045260246000fd5b6020026020010181815250508381600281518110612ae857634e487b7160e01b600052603260045260246000fd5b60200260200101818152505060005b81518160ff161015612b6c57600080516020614a56833981519152828260ff1681518110612b3557634e487b7160e01b600052603260045260246000fd5b602002602001015110612b5a5760405162461bcd60e51b815260040161097290614626565b80612b64816149df565b915050612af7565b50612b7561335a565b612b7e84612957565b60408085018290526020850183905283855260015490516361971b8760e11b81526001600160a01b039091169363c32e370e936119d39391929091908890600401613d40565b612c048585858080601f016020809104026020016040519081016040528093929190818152602001838380828437600092019190915250612eff92505050565b6001600160a01b0385166000908152600f6020526040902054612c395760405162461bcd60e51b815260040161097290613fdd565b6001600160a01b0385166000908152600f6020526040902054823514612c715760405162461bcd60e51b8152600401610972906145ef565b60008181526011602052604090205460ff1615612ca05760405162461bcd60e51b815260040161097290614285565b7f00000000000000000000000000000000000000000000000000000000000000003414612cdf5760405162461bcd60e51b8152600401610972906140ac565b600d54612cec9034612d01565b600d55612cfa858383612d44565b5050505050565b6000612d0d8284614914565b9392505050565b600081831115612d255750806111b1565b50816111b1565b6000612d0d82846149ad565b6000612d0d8284614965565b600081815260126020526040812054612d9a5750600780546000908152601360208181526040808420805480865260019091018352818520879055945484529190528120805491612d94836149c4565b91905055505b600080516020614a56833981519152836020013510612dcb5760405162461bcd60e51b815260040161097290614345565b600080516020614a56833981519152836040013510612dfc5760405162461bcd60e51b8152600401610972906145ad565b600080516020614a56833981519152836060013510612e2d5760405162461bcd60e51b815260040161097290613f4f565b826080013560011480612e4257506080830135155b612e5e5760405162461bcd60e51b8152600401610972906146ef565b612e8c612e78612e733686900386018661382d565b61302d565b600084815260126020526040902054611a38565b600083815260126020526040908190209190915551600080516020614a7683398151915290612eba9061457f565b60405180910390a1836001600160a01b0316826007547f45dd8e7adcda0ec776335bbed91fbf1ad3a3b08079de3b4a8ea59c50935e9ec0866040516121e39190614731565b60008230604051602001612f14929190613c8b565b60405160208183030381529060405280519060200120604051602001612f3a9190613cb2565b604051602081830303815290604052805190602001209050826001600160a01b0316612f66828461306c565b6001600160a01b031614612f8c5760405162461bcd60e51b815260040161097290613f93565b505050565b80471015612fb15760405162461bcd60e51b815260040161097290614205565b6000826001600160a01b031682604051612fca90613ce3565b60006040518083038185875af1925050503d8060008114613007576040519150601f19603f3d011682016040523d82523d6000602084013e61300c565b606091505b5050905080612f8c5760405162461bcd60e51b815260040161097290614166565b600061303761333c565b8251815260208084015190820152604080840151908201526060808401519082015260808084015190820152612d0d81611e84565b600080600061307b8585613090565b9150915061308881613100565b509392505050565b6000808251604114156130c75760208301516040840151606085015160001a6130bb8782858561322d565b945094505050506130f9565b8251604014156130f157602083015160408401516130e686838361330d565b9350935050506130f9565b506000905060025b9250929050565b600081600481111561312257634e487b7160e01b600052602160045260246000fd5b141561312d57611f2d565b600181600481111561314f57634e487b7160e01b600052602160045260246000fd5b141561316d5760405162461bcd60e51b815260040161097290613e1c565b600281600481111561318f57634e487b7160e01b600052602160045260246000fd5b14156131ad5760405162461bcd60e51b815260040161097290613f18565b60038160048111156131cf57634e487b7160e01b600052602160045260246000fd5b14156131ed5760405162461bcd60e51b8152600401610972906141c3565b600481600481111561320f57634e487b7160e01b600052602160045260246000fd5b1415611f2d5760405162461bcd60e51b815260040161097290614387565b6000807f7fffffffffffffffffffffffffffffff5d576e7357a4501ddfe92f46681b20a08311156132645750600090506003613304565b8460ff16601b1415801561327c57508460ff16601c14155b1561328d5750600090506004613304565b6000600187878787604051600081526020016040526040516132b29493929190613dfe565b6020604051602081039080840390855afa1580156132d4573d6000803e3d6000fd5b5050604051601f1901519150506001600160a01b0381166132fd57600060019250925050613304565b9150600090505b94509492505050565b6000806001600160ff1b03831660ff84901c601b0161332e8782888561322d565b935093505050935093915050565b6040518060a001604052806005906020820280368337509192915050565b604051806080016040528061336d6133df565b815260200161337a613447565b81526020016133876133df565b8152600060209091015290565b604051806101000160405280600081526020016000815260200160008152602001600081526020016133c4613474565b81526020016060815260200160608152602001606081525090565b60405180604001604052806002906020820280368337509192915050565b60405180610100016040528060008152602001600081526020016000815260200160008152602001600081526020016000815260200160008152602001613442613474565b905290565b60405180604001604052806002905b61345e6133df565b8152602001906001900390816134565790505090565b6040518061010001604052806008906020820280368337509192915050565b80356001600160a01b038116811461091b57600080fd5b8061010081018310156111b157600080fd5b600082601f8301126134cc578081fd5b6040516101008082018281106001600160401b03821117156134f0576134f0614a3f565b6040528184828101871015613503578485fd5b8492505b600883101561352757803582526001929092019160209182019101613507565b509195945050505050565b60008083601f840112613543578182fd5b5081356001600160401b03811115613559578182fd5b60208301915083602080830285010111156130f957600080fd5b60008083601f840112613584578182fd5b5081356001600160401b0381111561359a578182fd5b6020830191508360208285010111156130f957600080fd5b600060a082840312156135c3578081fd5b50919050565b803560ff8116811461091b57600080fd5b6000602082840312156135eb578081fd5b612d0d82613493565b600080600060408486031215613608578182fd5b61361184613493565b925060208401356001600160401b0381111561362b578283fd5b61363786828701613573565b9497909650939450505050565b6000806000806000610100868803121561365c578081fd5b61366586613493565b945060208601356001600160401b0381111561367f578182fd5b61368b88828901613573565b909550935061369f905087604088016135b2565b9497939650919460e0013592915050565b600060a082840312156136c1578081fd5b82601f8301126136cf578081fd5b60405160a081018181106001600160401b03821117156136f1576136f1614a3f565b604052808360a08101861015613705578384fd5b835b6005811015613527578135835260209283019290910190600101613707565b60006101008284031215613738578081fd5b612d0d83836134bc565b60008060008060008060008060008060006102208c8e031215613763578586fd5b8b356001600160401b03811115613778578687fd5b6137848e828f01613532565b909c509a505060208c0135985060408c0135975060608c0135965060808c0135955060a08c0135945060c08c0135935060e08c013592506101008c013591506137d18d6101208e016134aa565b90509295989b509295989b9093969950565b6000602082840312156137f4578081fd5b81518015158114612d0d578182fd5b60008060c08385031215613815578182fd5b61381f84846135b2565b9460a0939093013593505050565b600060a0828403121561383e578081fd5b60405160a081018181106001600160401b038211171561386057613860614a3f565b806040525082358152602083013560208201526040830135604082015260608301356060820152608083013560808201528091505092915050565b6000604082840312156138ac578081fd5b604051604081018181106001600160401b03821117156138ce576138ce614a3f565b604052823581526020928301359281019290925250919050565b6000602082840312156138f9578081fd5b5035919050565b600060208284031215613911578081fd5b5051919050565b60008060008060008060008060008060006101e08c8e031215613939578485fd5b8b359a506001600160401b038060208e01351115613955578586fd5b6139658e60208f01358f01613532565b909b50995060408d013581101561397a578586fd5b61398a8e60408f01358f01613532565b909950975060608d013581101561399f578586fd5b506139b08d60608e01358e01613532565b909650945060808c0135935060a08c0135925060c08c013591506137d18d60e08e016134aa565b60008060008060008060008060008060006101e08c8e0312156139f8578485fd5b8b359a506001600160401b038060208e01351115613a14578586fd5b613a248e60208f01358f01613532565b909b50995060408d0135985060608d0135811015613a40578586fd5b613a508e60608f01358f01613532565b909850965060808d0135955060a08d0135811015613a6c578485fd5b50613a7d8d60a08e01358e01613532565b909450925060c08c013591506137d18d60e08e016134aa565b60008060408385031215613aa8578182fd5b50508035926020909101359150565b6000806000806101608587031215613acd578182fd5b843593506020850135925060408501359150613aec86606087016134aa565b905092959194509250565b6000806000806101608587031215613b0d578182fd5b843593506020850135925060408501359150613aec86606087016134bc565b60008060008060006101808688031215613b44578283fd5b85359450602086013593506040860135925060608601359150613b6a87608088016134aa565b90509295509295909350565b60008060408385031215613b88578182fd5b613b91836135c9565b946020939093013593505050565b60008060008060808587031215613bb4578182fd5b613bbd856135c9565b966020860135965060408601359560600135945092505050565b8060005b6002811015613c0557613bef848351613c0b565b6040939093019260209190910190600101613bdb565b50505050565b8060005b6002811015613c05578151845260209384019390910190600101613c0f565b8060005b6008811015613c05578151845260209384019390910190600101613c32565b6000815180845260208085019450808401835b83811015613c8057815187529582019590820190600101613c64565b509495945050505050565b6bffffffffffffffffffffffff19606093841b811682529190921b16601482015260280190565b7f19457468657265756d205369676e6564204d6573736167653a0a3332000000008152601c810191909152603c0190565b90565b60408101818360005b6002811015613d0e578151835260209283019290910190600101613cef565b50505092915050565b6101008101613d268286613c0b565b613d336040830185613bd7565b610c3260c0830184613c0b565b6000610120613d4f8388613c0b565b613d5c6040840187613bd7565b613d6960c0840186613c0b565b80610100840152613d7c81840185613c51565b979650505050505050565b60a08101818360005b6005811015613d0e578151835260209283019290910190600101613d90565b6101008181019080848437506000815292915050565b600060408252613dd86040830185613c51565b8281036020840152613dea8185613c51565b95945050505050565b901515815260200190565b93845260ff9290921660208401526040830152606082015260800190565b60208082526018908201527f45434453413a20696e76616c6964207369676e61747572650000000000000000604082015260600190565b6020808252601c908201527f52657075746174696f6e4e756c6c69666965725375626d697474656400000000604082015260600190565b60208082526026908201527f556e697265703a2061747465737465722068617320616c72656164792073696760408201526506e65642075760d41b606082015260800190565b60208082526028908201527f556e697265703a20696e76616c6964206e756d626572206f6620726570206e756040820152676c6c69666965727360c01b606082015260800190565b6020808252601f908201527f45434453413a20696e76616c6964207369676e6174757265206c656e67746800604082015260600190565b60208082526024908201527f556e697265703a20696e76616c6964206174746573746174696f6e20677261666040820152636669746960e01b606082015260800190565b6020808252602a908201527f556e697265703a20696e76616c6964206174746573746572207369676e207570604082015269207369676e617475726560b01b606082015260800190565b60208082526026908201527f556e697265703a20617474657374657220686173206e6f74207369676e6564206040820152651d5c081e595d60d21b606082015260800190565b6020808252601b908201527f556e697265703a2065706f6368206e6f742079657420656e6465640000000000604082015260600190565b60208082526032908201527f436f6d70757465526f6f743a205f747265654c6576656c73206d757374206265604082015271103132ba3bb2b2b710181030b73210191a9b60711b606082015260800190565b6020808252602c908201527f556e697265703a206e6f20617474657374696e6720666565206f7220696e636f60408201526b1c9c9958dd08185b5bdd5b9d60a21b606082015260800190565b6020808252600a9082015269115c1bd8da115b99195960b21b604082015260600190565b6020808252602a908201527f556e697265703a2065706f6368206b6579206c69737420616363657373206f756040820152691d081bd988189bdd5b9960b21b606082015260800190565b6020808252603a908201527f416464726573733a20756e61626c6520746f2073656e642076616c75652c207260408201527f6563697069656e74206d61792068617665207265766572746564000000000000606082015260800190565b60208082526022908201527f45434453413a20696e76616c6964207369676e6174757265202773272076616c604082015261756560f01b606082015260800190565b6020808252601d908201527f416464726573733a20696e73756666696369656e742062616c616e6365000000604082015260600190565b60208082526029908201527f556e697265703a206d6178696d756d206e756d626572206f66207369676e75706040820152681cc81c995858da195960ba1b606082015260800190565b60208082526034908201527f556e697265703a206861736820636861696e206f6620746869732065706f6368604082015273081ad95e481a185cc81899595b881cd9585b195960621b606082015260800190565b60208082526046908201527f43616e206e6f74207472616e736974696f6e2066726f6d2065706f636820746860408201527f617427732067726561746572206f7220657175616c20746f2063757272656e74606082015265040cae0dec6d60d31b608082015260a00190565b60208082526022908201527f556e697265703a20696e76616c6964206174746573746174696f6e20706f7352604082015261065760f41b606082015260800190565b60208082526022908201527f45434453413a20696e76616c6964207369676e6174757265202776272076616c604082015261756560f01b606082015260800190565b60208082526026908201527f556e697265703a2074686520757365722068617320616c72656164792073696760408201526506e65642075760d41b606082015260800190565b602080825260159082015274155cd95c94dd185d19551c985b9cda5d1a5bdb9959605a1b604082015260600190565b60208082526015908201527450726f6365737365644174746573746174696f6e7360581b604082015260600190565b60208082526033908201527f556e697265703a20696e76616c6964206e756d626572206f662070726f76696e60408201527219c81c995c1d5d185d1a5bdb88185b5bdd5b9d606a1b606082015260800190565b60208082526011908201527029ba30b93a32b22a3930b739b4ba34b7b760791b604082015260600190565b60208082526039908201527f556e697265703a2073686f756c64207375626d697420612070726f6f6620776860408201527f696368206d6174636865732063757272656e742065706f636800000000000000606082015260800190565b6020808252601a908201527f556e697265703a20696e76616c69642061747465737465724964000000000000604082015260600190565b602080825260149082015273105d1d195cdd185d1a5bdb94dd589b5a5d1d195960621b604082015260600190565b60208082526022908201527f556e697265703a20696e76616c6964206174746573746174696f6e206e656752604082015261065760f41b606082015260800190565b6020808252601d908201527f556e697265703a206d69736d6174636865642061747465737465724964000000604082015260600190565b6020808252603c908201527f556e697265703a2065616368207075626c6963207369676e616c206d7573742060408201527f6265206c742074686520736e61726b207363616c6172206669656c6400000000606082015260800190565b60208082526028908201527f556e697265703a20696e76616c6964206e756d626572206f662065706b206e756040820152676c6c69666965727360c01b606082015260800190565b6020808252600a90820152690557365725369676e55760b41b604082015260600190565b60208082526022908201527f556e697265703a20696e76616c6964206174746573746174696f6e207369676e604082015261055760f41b606082015260800190565b600060a082019050823582526020830135602083015260408301356040830152606083013560608301526080830135608083015292915050565b6000610200855183526020860151602084015260408601516040840152606086015160608401526080860151608084015260a086015160a084015260c086015160c084015260e08601516147c260e0850182613c2e565b506101e0830181905282018390526102206001600160fb1b038411156147e6578182fd5b60208402808683860137929092019091019081529392505050565b90815260200190565b8281526101208101610100836020840137600081529392505050565b600083825260406020830152825160408301526020830151606083015260408301516080830152606083015160a0830152608083015161486960c0840182613c2e565b5060a08301516101e0806101c0850152614887610220850183613c51565b915060c0850151603f198086850301838701526148a48483613c51565b935060e08701519250808685030161020087015250506148c48282613c51565b9695505050505050565b93845260208401929092526040830152606082015260800190565b60ff91909116815260200190565b60ff93841681529183166020830152909116604082015260600190565b6000821982111561492757614927614a13565b500190565b600060ff821660ff84168060ff0382111561494957614949614a13565b019392505050565b60008261496057614960614a29565b500490565b600081600019048311821515161561497f5761497f614a13565b500290565b600060ff821660ff84168160ff04811182151516156149a5576149a5614a13565b029392505050565b6000828210156149bf576149bf614a13565b500390565b60006000198214156149d8576149d8614a13565b5060010190565b600060ff821660ff8114156149f6576149f6614a13565b60010192915050565b600082614a0e57614a0e614a29565b500690565b634e487b7160e01b600052601160045260246000fd5b634e487b7160e01b600052601260045260246000fd5b634e487b7160e01b600052604160045260246000fdfe30644e72e131a029b85045b68181585d2833e84879b9709143e1f593f00000010dcdd84eeab9fd262751c1bd37b2a03e271f2666bf2525092aab5f34fd72202ba2646970667358221220473e336cfe959f4de56e6ea80dda6a6579153985c7c89d9bec789814aa120ded64736f6c63430008000033",
  "linkReferences": {
    "contracts/Poseidon.sol": {
      "PoseidonT3": [
        {
          "length": 20,
          "start": 1260
        },
        {
          "length": 20,
          "start": 9614
        }
      ],
      "PoseidonT6": [
        {
          "length": 20,
          "start": 939
        },
        {
          "length": 20,
          "start": 10697
        }
      ]
    }
  },
  "deployedLinkReferences": {
    "contracts/Poseidon.sol": {
      "PoseidonT3": [
        {
          "length": 20,
          "start": 6747
        }
      ],
      "PoseidonT6": [
        {
          "length": 20,
          "start": 7830
        }
      ]
    }
  }
}