{
  "_format": "hh-sol-artifact-1",
  "contractName": "Unirep",
  "sourceName": "contracts/Unirep.sol",
  "abi": [
    {
      "inputs": [
        {
          "components": [
            {
              "internalType": "uint8",
              "name": "globalStateTreeDepth",
              "type": "uint8"
            },
            {
              "internalType": "uint8",
              "name": "userStateTreeDepth",
              "type": "uint8"
            },
            {
              "internalType": "uint8",
              "name": "nullifierTreeDepth",
              "type": "uint8"
            },
            {
              "internalType": "uint8",
              "name": "epochTreeDepth",
              "type": "uint8"
            }
          ],
          "internalType": "struct UnirepParameters.TreeDepths",
          "name": "_treeDepths",
          "type": "tuple"
        },
        {
          "components": [
            {
              "internalType": "uint256",
              "name": "maxUsers",
              "type": "uint256"
            }
          ],
          "internalType": "struct UnirepParameters.MaxValues",
          "name": "_maxValues",
          "type": "tuple"
        },
        {
          "internalType": "contract EpochKeyValidityVerifier",
          "name": "_epkValidityVerifier",
          "type": "address"
        },
        {
          "internalType": "contract StartTransitionVerifier",
          "name": "_startTransitionVerifier",
          "type": "address"
        },
        {
          "internalType": "contract ProcessAttestationsVerifier",
          "name": "_processAttestationsVerifier",
          "type": "address"
        },
        {
          "internalType": "contract UserStateTransitionVerifier",
          "name": "_userStateTransitionVerifier",
          "type": "address"
        },
        {
          "internalType": "contract ReputationVerifier",
          "name": "_reputationVerifier",
          "type": "address"
        },
        {
          "internalType": "contract UserSignUpVerifier",
          "name": "_userSignUpVerifier",
          "type": "address"
        },
        {
          "internalType": "uint8",
          "name": "_numEpochKeyNoncePerEpoch",
          "type": "uint8"
        },
        {
          "internalType": "uint8",
          "name": "_maxReputationBudget",
          "type": "uint8"
        },
        {
          "internalType": "uint256",
          "name": "_epochLength",
          "type": "uint256"
        },
        {
          "internalType": "uint256",
          "name": "_attestingFee",
          "type": "uint256"
        }
      ],
      "stateMutability": "nonpayable",
      "type": "constructor"
    },
    {
      "anonymous": false,
      "inputs": [
        {
          "indexed": true,
          "internalType": "uint256",
          "name": "_epoch",
          "type": "uint256"
        },
        {
          "indexed": true,
          "internalType": "uint256",
          "name": "_epochKey",
          "type": "uint256"
        },
        {
          "indexed": true,
          "internalType": "address",
          "name": "_attester",
          "type": "address"
        },
        {
          "components": [
            {
              "internalType": "uint256",
              "name": "attesterId",
              "type": "uint256"
            },
            {
              "internalType": "uint256",
              "name": "posRep",
              "type": "uint256"
            },
            {
              "internalType": "uint256",
              "name": "negRep",
              "type": "uint256"
            },
            {
              "internalType": "uint256",
              "name": "graffiti",
              "type": "uint256"
            },
            {
              "internalType": "uint256",
              "name": "signUp",
              "type": "uint256"
            }
          ],
          "indexed": false,
          "internalType": "struct DomainObjs.Attestation",
          "name": "attestation",
          "type": "tuple"
        }
      ],
      "name": "AttestationSubmitted",
      "type": "event"
    },
    {
      "anonymous": false,
      "inputs": [
        {
          "indexed": true,
          "internalType": "uint256",
          "name": "_epoch",
          "type": "uint256"
        }
      ],
      "name": "EpochEnded",
      "type": "event"
    },
    {
      "anonymous": false,
      "inputs": [
        {
          "indexed": true,
          "internalType": "uint256",
          "name": "_epoch",
          "type": "uint256"
        },
        {
          "indexed": false,
          "internalType": "uint256",
          "name": "_leafIndex",
          "type": "uint256"
        },
        {
          "indexed": false,
          "internalType": "uint256",
          "name": "_hashedLeaf",
          "type": "uint256"
        },
        {
          "indexed": false,
          "internalType": "uint256",
          "name": "_attesterId",
          "type": "uint256"
        },
        {
          "indexed": false,
          "internalType": "uint256",
          "name": "_airdropAmount",
          "type": "uint256"
        }
      ],
      "name": "NewGSTLeafInserted",
      "type": "event"
    },
    {
      "anonymous": false,
      "inputs": [
        {
          "indexed": true,
          "internalType": "uint256",
          "name": "_outputBlindedUserState",
          "type": "uint256"
        },
        {
          "indexed": true,
          "internalType": "uint256",
          "name": "_outputBlindedHashChain",
          "type": "uint256"
        },
        {
          "indexed": false,
          "internalType": "uint256",
          "name": "_inputBlindedUserState",
          "type": "uint256"
        },
        {
          "indexed": false,
          "internalType": "uint256[8]",
          "name": "_proof",
          "type": "uint256[8]"
        }
      ],
      "name": "ProcessedAttestations",
      "type": "event"
    },
    {
      "anonymous": false,
      "inputs": [
        {
          "indexed": true,
          "internalType": "uint256",
          "name": "_epoch",
          "type": "uint256"
        },
        {
          "components": [
            {
              "internalType": "uint256",
              "name": "epochKey",
              "type": "uint256"
            },
            {
              "internalType": "uint256",
              "name": "globalStateTree",
              "type": "uint256"
            },
            {
              "internalType": "uint256",
              "name": "attesterId",
              "type": "uint256"
            },
            {
              "internalType": "uint256",
              "name": "proveReputationAmount",
              "type": "uint256"
            },
            {
              "internalType": "uint256",
              "name": "minRep",
              "type": "uint256"
            },
            {
              "internalType": "uint256",
              "name": "proveGraffiti",
              "type": "uint256"
            },
            {
              "internalType": "uint256",
              "name": "graffitiPreImage",
              "type": "uint256"
            },
            {
              "internalType": "uint256[8]",
              "name": "proof",
              "type": "uint256[8]"
            }
          ],
          "indexed": false,
          "internalType": "struct UnirepParameters.ReputationProofRelated",
          "name": "reputationProofData",
          "type": "tuple"
        },
        {
          "indexed": false,
          "internalType": "uint256[]",
          "name": "reputationNullifiers",
          "type": "uint256[]"
        }
      ],
      "name": "ReputationNullifierSubmitted",
      "type": "event"
    },
    {
      "anonymous": false,
      "inputs": [
        {
          "indexed": false,
          "internalType": "string",
          "name": "_event",
          "type": "string"
        }
      ],
      "name": "Sequencer",
      "type": "event"
    },
    {
      "anonymous": false,
      "inputs": [
        {
          "indexed": true,
          "internalType": "uint256",
          "name": "_blindedUserState",
          "type": "uint256"
        },
        {
          "indexed": true,
          "internalType": "uint256",
          "name": "_blindedHashChain",
          "type": "uint256"
        },
        {
          "indexed": false,
          "internalType": "uint256",
          "name": "_GSTRoot",
          "type": "uint256"
        },
        {
          "indexed": false,
          "internalType": "uint256[8]",
          "name": "_proof",
          "type": "uint256[8]"
        }
      ],
      "name": "StartTransitioned",
      "type": "event"
    },
    {
      "anonymous": false,
      "inputs": [
        {
          "indexed": true,
          "internalType": "uint256",
          "name": "_toEpoch",
          "type": "uint256"
        },
        {
          "indexed": false,
          "internalType": "uint256",
          "name": "_leafIndex",
          "type": "uint256"
        },
        {
          "components": [
            {
              "internalType": "uint256",
              "name": "fromEpoch",
              "type": "uint256"
            },
            {
              "internalType": "uint256",
              "name": "fromGlobalStateTree",
              "type": "uint256"
            },
            {
              "internalType": "uint256",
              "name": "fromEpochTree",
              "type": "uint256"
            },
            {
              "internalType": "uint256",
              "name": "newGlobalStateTreeLeaf",
              "type": "uint256"
            },
            {
              "internalType": "uint256[8]",
              "name": "proof",
              "type": "uint256[8]"
            },
            {
              "internalType": "uint256[]",
              "name": "blindedUserStates",
              "type": "uint256[]"
            },
            {
              "internalType": "uint256[]",
              "name": "blindedHashChains",
              "type": "uint256[]"
            },
            {
              "internalType": "uint256[]",
              "name": "epkNullifiers",
              "type": "uint256[]"
            }
          ],
          "indexed": false,
          "internalType": "struct UnirepParameters.UserTransitionedRelated",
          "name": "userTransitionedData",
          "type": "tuple"
        }
      ],
      "name": "UserStateTransitioned",
      "type": "event"
    },
    {
      "inputs": [
        {
          "internalType": "address",
          "name": "",
          "type": "address"
        }
      ],
      "name": "airdropAmount",
      "outputs": [
        {
          "internalType": "uint256",
          "name": "",
          "type": "uint256"
        }
      ],
      "stateMutability": "view",
      "type": "function"
    },
    {
      "inputs": [],
      "name": "attesterSignUp",
      "outputs": [],
      "stateMutability": "nonpayable",
      "type": "function"
    },
    {
      "inputs": [
        {
          "internalType": "address",
          "name": "attester",
          "type": "address"
        },
        {
          "internalType": "bytes",
          "name": "signature",
          "type": "bytes"
        }
      ],
      "name": "attesterSignUpViaRelayer",
      "outputs": [],
      "stateMutability": "nonpayable",
      "type": "function"
    },
    {
      "inputs": [
        {
          "internalType": "address",
          "name": "",
          "type": "address"
        }
      ],
      "name": "attesters",
      "outputs": [
        {
          "internalType": "uint256",
          "name": "",
          "type": "uint256"
        }
      ],
      "stateMutability": "view",
      "type": "function"
    },
    {
      "inputs": [],
      "name": "attestingFee",
      "outputs": [
        {
          "internalType": "uint256",
          "name": "",
          "type": "uint256"
        }
      ],
      "stateMutability": "view",
      "type": "function"
    },
    {
      "inputs": [
        {
          "internalType": "uint256",
          "name": "numEpochKeysToSeal",
          "type": "uint256"
        }
      ],
      "name": "beginEpochTransition",
      "outputs": [],
      "stateMutability": "nonpayable",
      "type": "function"
    },
    {
      "inputs": [],
      "name": "burnAttestingFee",
      "outputs": [],
      "stateMutability": "nonpayable",
      "type": "function"
    },
    {
      "inputs": [
        {
          "internalType": "uint256",
          "name": "_leafIndex",
          "type": "uint256"
        },
        {
          "internalType": "uint256",
          "name": "_leafValue",
          "type": "uint256"
        }
      ],
      "name": "calcAirdropUSTRoot",
      "outputs": [
        {
          "internalType": "uint256",
          "name": "",
          "type": "uint256"
        }
      ],
      "stateMutability": "view",
      "type": "function"
    },
    {
      "inputs": [],
      "name": "collectEpochTransitionCompensation",
      "outputs": [],
      "stateMutability": "nonpayable",
      "type": "function"
    },
    {
      "inputs": [],
      "name": "collectedAttestingFee",
      "outputs": [
        {
          "internalType": "uint256",
          "name": "",
          "type": "uint256"
        }
      ],
      "stateMutability": "view",
      "type": "function"
    },
    {
      "inputs": [
        {
          "internalType": "uint8",
          "name": "_treeLevels",
          "type": "uint8"
        },
        {
          "internalType": "uint256",
          "name": "_zeroValue",
          "type": "uint256"
        }
      ],
      "name": "computeEmptyRoot",
      "outputs": [
        {
          "internalType": "uint256",
          "name": "",
          "type": "uint256"
        }
      ],
      "stateMutability": "pure",
      "type": "function"
    },
    {
      "inputs": [
        {
          "internalType": "uint8",
          "name": "_treeLevels",
          "type": "uint8"
        },
        {
          "internalType": "uint256",
          "name": "_leafIndex",
          "type": "uint256"
        },
        {
          "internalType": "uint256",
          "name": "_leafValue",
          "type": "uint256"
        },
        {
          "internalType": "uint256",
          "name": "_zeroValue",
          "type": "uint256"
        }
      ],
      "name": "computeOneNonZeroLeafRoot",
      "outputs": [
        {
          "internalType": "uint256",
          "name": "",
          "type": "uint256"
        }
      ],
      "stateMutability": "pure",
      "type": "function"
    },
    {
      "inputs": [],
      "name": "currentEpoch",
      "outputs": [
        {
          "internalType": "uint256",
          "name": "",
          "type": "uint256"
        }
      ],
      "stateMutability": "view",
      "type": "function"
    },
    {
      "inputs": [],
      "name": "emptyGlobalStateTreeRoot",
      "outputs": [
        {
          "internalType": "uint256",
          "name": "",
          "type": "uint256"
        }
      ],
      "stateMutability": "view",
      "type": "function"
    },
    {
      "inputs": [],
      "name": "emptyUserStateRoot",
      "outputs": [
        {
          "internalType": "uint256",
          "name": "",
          "type": "uint256"
        }
      ],
      "stateMutability": "view",
      "type": "function"
    },
    {
      "inputs": [
        {
          "internalType": "uint256",
          "name": "",
          "type": "uint256"
        }
      ],
      "name": "epochKeyHashchain",
      "outputs": [
        {
          "internalType": "uint256",
          "name": "",
          "type": "uint256"
        }
      ],
      "stateMutability": "view",
      "type": "function"
    },
    {
      "inputs": [],
      "name": "epochLength",
      "outputs": [
        {
          "internalType": "uint256",
          "name": "",
          "type": "uint256"
        }
      ],
      "stateMutability": "view",
      "type": "function"
    },
    {
      "inputs": [
        {
          "internalType": "address",
          "name": "",
          "type": "address"
        }
      ],
      "name": "epochTransitionCompensation",
      "outputs": [
        {
          "internalType": "uint256",
          "name": "",
          "type": "uint256"
        }
      ],
      "stateMutability": "view",
      "type": "function"
    },
    {
      "inputs": [
        {
          "internalType": "uint256",
          "name": "epoch",
          "type": "uint256"
        },
        {
          "internalType": "uint256",
          "name": "index",
          "type": "uint256"
        }
      ],
      "name": "getEpochKey",
      "outputs": [
        {
          "internalType": "uint256",
          "name": "",
          "type": "uint256"
        }
      ],
      "stateMutability": "view",
      "type": "function"
    },
    {
      "inputs": [
        {
          "internalType": "uint256",
          "name": "epoch",
          "type": "uint256"
        }
      ],
      "name": "getEpochTreeLeaves",
      "outputs": [
        {
          "internalType": "uint256[]",
          "name": "epochKeyList",
          "type": "uint256[]"
        },
        {
          "internalType": "uint256[]",
          "name": "epochKeyHashChainList",
          "type": "uint256[]"
        }
      ],
      "stateMutability": "view",
      "type": "function"
    },
    {
      "inputs": [
        {
          "internalType": "uint256",
          "name": "epoch",
          "type": "uint256"
        }
      ],
      "name": "getNumEpochKey",
      "outputs": [
        {
          "internalType": "uint256",
          "name": "",
          "type": "uint256"
        }
      ],
      "stateMutability": "view",
      "type": "function"
    },
    {
      "inputs": [
        {
          "internalType": "uint256",
          "name": "epoch",
          "type": "uint256"
        }
      ],
      "name": "getNumSealedEpochKey",
      "outputs": [
        {
          "internalType": "uint256",
          "name": "",
          "type": "uint256"
        }
      ],
      "stateMutability": "view",
      "type": "function"
    },
    {
      "inputs": [
        {
          "internalType": "uint256",
          "name": "",
          "type": "uint256"
        }
      ],
      "name": "hasUserSignedUp",
      "outputs": [
        {
          "internalType": "bool",
          "name": "",
          "type": "bool"
        }
      ],
      "stateMutability": "view",
      "type": "function"
    },
    {
      "inputs": [
        {
          "internalType": "uint256[5]",
          "name": "array",
          "type": "uint256[5]"
        }
      ],
      "name": "hash5",
      "outputs": [
        {
          "internalType": "uint256",
          "name": "",
          "type": "uint256"
        }
      ],
      "stateMutability": "pure",
      "type": "function"
    },
    {
      "inputs": [
        {
          "internalType": "uint256",
          "name": "airdropPosRep",
          "type": "uint256"
        }
      ],
      "name": "hashAirdroppedLeaf",
      "outputs": [
        {
          "internalType": "uint256",
          "name": "",
          "type": "uint256"
        }
      ],
      "stateMutability": "pure",
      "type": "function"
    },
    {
      "inputs": [
        {
          "internalType": "uint256",
          "name": "_left",
          "type": "uint256"
        },
        {
          "internalType": "uint256",
          "name": "_right",
          "type": "uint256"
        }
      ],
      "name": "hashLeftRight",
      "outputs": [
        {
          "internalType": "uint256",
          "name": "",
          "type": "uint256"
        }
      ],
      "stateMutability": "pure",
      "type": "function"
    },
    {
      "inputs": [
        {
          "components": [
            {
              "internalType": "uint256",
              "name": "identityCommitment",
              "type": "uint256"
            },
            {
              "internalType": "uint256",
              "name": "userStateRoot",
              "type": "uint256"
            }
          ],
          "internalType": "struct DomainObjs.StateLeaf",
          "name": "_stateLeaf",
          "type": "tuple"
        }
      ],
      "name": "hashStateLeaf",
      "outputs": [
        {
          "internalType": "uint256",
          "name": "",
          "type": "uint256"
        }
      ],
      "stateMutability": "pure",
      "type": "function"
    },
    {
      "inputs": [],
      "name": "hashedBlankStateLeaf",
      "outputs": [
        {
          "internalType": "uint256",
          "name": "",
          "type": "uint256"
        }
      ],
      "stateMutability": "view",
      "type": "function"
    },
    {
      "inputs": [
        {
          "internalType": "uint256",
          "name": "",
          "type": "uint256"
        }
      ],
      "name": "isEpochKeyHashChainSealed",
      "outputs": [
        {
          "internalType": "bool",
          "name": "",
          "type": "bool"
        }
      ],
      "stateMutability": "view",
      "type": "function"
    },
    {
      "inputs": [],
      "name": "latestEpochTransitionTime",
      "outputs": [
        {
          "internalType": "uint256",
          "name": "",
          "type": "uint256"
        }
      ],
      "stateMutability": "view",
      "type": "function"
    },
    {
      "inputs": [],
      "name": "maxReputationBudget",
      "outputs": [
        {
          "internalType": "uint8",
          "name": "",
          "type": "uint8"
        }
      ],
      "stateMutability": "view",
      "type": "function"
    },
    {
      "inputs": [],
      "name": "maxUsers",
      "outputs": [
        {
          "internalType": "uint256",
          "name": "",
          "type": "uint256"
        }
      ],
      "stateMutability": "view",
      "type": "function"
    },
    {
      "inputs": [],
      "name": "nextAttesterId",
      "outputs": [
        {
          "internalType": "uint256",
          "name": "",
          "type": "uint256"
        }
      ],
      "stateMutability": "view",
      "type": "function"
    },
    {
      "inputs": [],
      "name": "numEpochKeyNoncePerEpoch",
      "outputs": [
        {
          "internalType": "uint8",
          "name": "",
          "type": "uint8"
        }
      ],
      "stateMutability": "view",
      "type": "function"
    },
    {
      "inputs": [],
      "name": "numUserSignUps",
      "outputs": [
        {
          "internalType": "uint256",
          "name": "",
          "type": "uint256"
        }
      ],
      "stateMutability": "view",
      "type": "function"
    },
    {
      "inputs": [
        {
          "internalType": "uint256",
          "name": "_outputBlindedUserState",
          "type": "uint256"
        },
        {
          "internalType": "uint256",
          "name": "_outputBlindedHashChain",
          "type": "uint256"
        },
        {
          "internalType": "uint256",
          "name": "_inputBlindedUserState",
          "type": "uint256"
        },
        {
          "internalType": "uint256[8]",
          "name": "_proof",
          "type": "uint256[8]"
        }
      ],
      "name": "processAttestations",
      "outputs": [],
      "stateMutability": "nonpayable",
      "type": "function"
    },
    {
      "inputs": [
        {
          "internalType": "uint256",
          "name": "_airdropAmount",
          "type": "uint256"
        }
      ],
      "name": "setAirdropAmount",
      "outputs": [],
      "stateMutability": "nonpayable",
      "type": "function"
    },
    {
      "inputs": [
        {
          "internalType": "uint256",
          "name": "_blindedUserState",
          "type": "uint256"
        },
        {
          "internalType": "uint256",
          "name": "_blindedHashChain",
          "type": "uint256"
        },
        {
          "internalType": "uint256",
          "name": "_GSTRoot",
          "type": "uint256"
        },
        {
          "internalType": "uint256[8]",
          "name": "_proof",
          "type": "uint256[8]"
        }
      ],
      "name": "startUserStateTransition",
      "outputs": [],
      "stateMutability": "nonpayable",
      "type": "function"
    },
    {
      "inputs": [
        {
          "components": [
            {
              "internalType": "uint256",
              "name": "attesterId",
              "type": "uint256"
            },
            {
              "internalType": "uint256",
              "name": "posRep",
              "type": "uint256"
            },
            {
              "internalType": "uint256",
              "name": "negRep",
              "type": "uint256"
            },
            {
              "internalType": "uint256",
              "name": "graffiti",
              "type": "uint256"
            },
            {
              "internalType": "uint256",
              "name": "signUp",
              "type": "uint256"
            }
          ],
          "internalType": "struct DomainObjs.Attestation",
          "name": "attestation",
          "type": "tuple"
        },
        {
          "internalType": "uint256",
          "name": "epochKey",
          "type": "uint256"
        }
      ],
      "name": "submitAttestation",
      "outputs": [],
      "stateMutability": "payable",
      "type": "function"
    },
    {
      "inputs": [
        {
          "internalType": "address",
          "name": "attester",
          "type": "address"
        },
        {
          "internalType": "bytes",
          "name": "signature",
          "type": "bytes"
        },
        {
          "components": [
            {
              "internalType": "uint256",
              "name": "attesterId",
              "type": "uint256"
            },
            {
              "internalType": "uint256",
              "name": "posRep",
              "type": "uint256"
            },
            {
              "internalType": "uint256",
              "name": "negRep",
              "type": "uint256"
            },
            {
              "internalType": "uint256",
              "name": "graffiti",
              "type": "uint256"
            },
            {
              "internalType": "uint256",
              "name": "signUp",
              "type": "uint256"
            }
          ],
          "internalType": "struct DomainObjs.Attestation",
          "name": "attestation",
          "type": "tuple"
        },
        {
          "internalType": "uint256",
          "name": "epochKey",
          "type": "uint256"
        }
      ],
      "name": "submitAttestationViaRelayer",
      "outputs": [],
      "stateMutability": "payable",
      "type": "function"
    },
    {
      "inputs": [
        {
          "internalType": "uint256[]",
          "name": "_repNullifiers",
          "type": "uint256[]"
        },
        {
          "internalType": "uint256",
          "name": "_epoch",
          "type": "uint256"
        },
        {
          "internalType": "uint256",
          "name": "_epochKey",
          "type": "uint256"
        },
        {
          "internalType": "uint256",
          "name": "_globalStateTree",
          "type": "uint256"
        },
        {
          "internalType": "uint256",
          "name": "_attesterId",
          "type": "uint256"
        },
        {
          "internalType": "uint256",
          "name": "_proveReputationAmount",
          "type": "uint256"
        },
        {
          "internalType": "uint256",
          "name": "_minRep",
          "type": "uint256"
        },
        {
          "internalType": "uint256",
          "name": "_proveGraffiti",
          "type": "uint256"
        },
        {
          "internalType": "uint256",
          "name": "_graffitiPreImage",
          "type": "uint256"
        },
        {
          "internalType": "uint256[8]",
          "name": "_proof",
          "type": "uint256[8]"
        }
      ],
      "name": "submitReputaionNullifiers",
      "outputs": [],
      "stateMutability": "nonpayable",
      "type": "function"
    },
    {
      "inputs": [],
      "name": "treeDepths",
      "outputs": [
        {
          "internalType": "uint8",
          "name": "globalStateTreeDepth",
          "type": "uint8"
        },
        {
          "internalType": "uint8",
          "name": "userStateTreeDepth",
          "type": "uint8"
        },
        {
          "internalType": "uint8",
          "name": "nullifierTreeDepth",
          "type": "uint8"
        },
        {
          "internalType": "uint8",
          "name": "epochTreeDepth",
          "type": "uint8"
        }
      ],
      "stateMutability": "view",
      "type": "function"
    },
    {
      "inputs": [
        {
          "internalType": "uint256[8]",
          "name": "_proof",
          "type": "uint256[8]"
        }
      ],
      "name": "unpackProof",
      "outputs": [
        {
          "internalType": "uint256[2]",
          "name": "",
          "type": "uint256[2]"
        },
        {
          "internalType": "uint256[2][2]",
          "name": "",
          "type": "uint256[2][2]"
        },
        {
          "internalType": "uint256[2]",
          "name": "",
          "type": "uint256[2]"
        }
      ],
      "stateMutability": "pure",
      "type": "function"
    },
    {
      "inputs": [
        {
          "internalType": "uint256",
          "name": "_newGlobalStateTreeLeaf",
          "type": "uint256"
        },
        {
          "internalType": "uint256[]",
          "name": "_epkNullifiers",
          "type": "uint256[]"
        },
        {
          "internalType": "uint256[]",
          "name": "_blindedUserStates",
          "type": "uint256[]"
        },
        {
          "internalType": "uint256[]",
          "name": "_blindedHashChains",
          "type": "uint256[]"
        },
        {
          "internalType": "uint256",
          "name": "_transitionFromEpoch",
          "type": "uint256"
        },
        {
          "internalType": "uint256",
          "name": "_fromGlobalStateTree",
          "type": "uint256"
        },
        {
          "internalType": "uint256",
          "name": "_fromEpochTree",
          "type": "uint256"
        },
        {
          "internalType": "uint256[8]",
          "name": "_proof",
          "type": "uint256[8]"
        }
      ],
      "name": "updateUserStateRoot",
      "outputs": [],
      "stateMutability": "nonpayable",
      "type": "function"
    },
    {
      "inputs": [
        {
          "internalType": "uint256",
          "name": "_identityCommitment",
          "type": "uint256"
        }
      ],
      "name": "userSignUp",
      "outputs": [],
      "stateMutability": "nonpayable",
      "type": "function"
    },
    {
      "inputs": [
        {
          "internalType": "uint256",
          "name": "_globalStateTree",
          "type": "uint256"
        },
        {
          "internalType": "uint256",
          "name": "_epoch",
          "type": "uint256"
        },
        {
          "internalType": "uint256",
          "name": "_epochKey",
          "type": "uint256"
        },
        {
          "internalType": "uint256[8]",
          "name": "_proof",
          "type": "uint256[8]"
        }
      ],
      "name": "verifyEpochKeyValidity",
      "outputs": [
        {
          "internalType": "bool",
          "name": "",
          "type": "bool"
        }
      ],
      "stateMutability": "view",
      "type": "function"
    },
    {
      "inputs": [
        {
          "internalType": "uint256",
          "name": "_outputBlindedUserState",
          "type": "uint256"
        },
        {
          "internalType": "uint256",
          "name": "_outputBlindedHashChain",
          "type": "uint256"
        },
        {
          "internalType": "uint256",
          "name": "_inputBlindedUserState",
          "type": "uint256"
        },
        {
          "internalType": "uint256[8]",
          "name": "_proof",
          "type": "uint256[8]"
        }
      ],
      "name": "verifyProcessAttestationProof",
      "outputs": [
        {
          "internalType": "bool",
          "name": "",
          "type": "bool"
        }
      ],
      "stateMutability": "view",
      "type": "function"
    },
    {
      "inputs": [
        {
          "internalType": "uint256[]",
          "name": "_repNullifiers",
          "type": "uint256[]"
        },
        {
          "internalType": "uint256",
          "name": "_epoch",
          "type": "uint256"
        },
        {
          "internalType": "uint256",
          "name": "_epochKey",
          "type": "uint256"
        },
        {
          "internalType": "uint256",
          "name": "_globalStateTree",
          "type": "uint256"
        },
        {
          "internalType": "uint256",
          "name": "_attesterId",
          "type": "uint256"
        },
        {
          "internalType": "uint256",
          "name": "_proveReputationAmount",
          "type": "uint256"
        },
        {
          "internalType": "uint256",
          "name": "_minRep",
          "type": "uint256"
        },
        {
          "internalType": "uint256",
          "name": "_proveGraffiti",
          "type": "uint256"
        },
        {
          "internalType": "uint256",
          "name": "_graffitiPreImage",
          "type": "uint256"
        },
        {
          "internalType": "uint256[8]",
          "name": "_proof",
          "type": "uint256[8]"
        }
      ],
      "name": "verifyReputation",
      "outputs": [
        {
          "internalType": "bool",
          "name": "",
          "type": "bool"
        }
      ],
      "stateMutability": "view",
      "type": "function"
    },
    {
      "inputs": [
        {
          "internalType": "uint256",
          "name": "_blindedUserState",
          "type": "uint256"
        },
        {
          "internalType": "uint256",
          "name": "_blindedHashChain",
          "type": "uint256"
        },
        {
          "internalType": "uint256",
          "name": "_GSTRoot",
          "type": "uint256"
        },
        {
          "internalType": "uint256[8]",
          "name": "_proof",
          "type": "uint256[8]"
        }
      ],
      "name": "verifyStartTransitionProof",
      "outputs": [
        {
          "internalType": "bool",
          "name": "",
          "type": "bool"
        }
      ],
      "stateMutability": "view",
      "type": "function"
    },
    {
      "inputs": [
        {
          "internalType": "uint256",
          "name": "_epoch",
          "type": "uint256"
        },
        {
          "internalType": "uint256",
          "name": "_epochKey",
          "type": "uint256"
        },
        {
          "internalType": "uint256",
          "name": "_globalStateTree",
          "type": "uint256"
        },
        {
          "internalType": "uint256",
          "name": "_attesterId",
          "type": "uint256"
        },
        {
          "internalType": "uint256[8]",
          "name": "_proof",
          "type": "uint256[8]"
        }
      ],
      "name": "verifyUserSignUp",
      "outputs": [
        {
          "internalType": "bool",
          "name": "",
          "type": "bool"
        }
      ],
      "stateMutability": "view",
      "type": "function"
    },
    {
      "inputs": [
        {
          "internalType": "uint256",
          "name": "_newGlobalStateTreeLeaf",
          "type": "uint256"
        },
        {
          "internalType": "uint256[]",
          "name": "_epkNullifiers",
          "type": "uint256[]"
        },
        {
          "internalType": "uint256",
          "name": "_transitionFromEpoch",
          "type": "uint256"
        },
        {
          "internalType": "uint256[]",
          "name": "_blindedUserStates",
          "type": "uint256[]"
        },
        {
          "internalType": "uint256",
          "name": "_fromGlobalStateTree",
          "type": "uint256"
        },
        {
          "internalType": "uint256[]",
          "name": "_blindedHashChains",
          "type": "uint256[]"
        },
        {
          "internalType": "uint256",
          "name": "_fromEpochTree",
          "type": "uint256"
        },
        {
          "internalType": "uint256[8]",
          "name": "_proof",
          "type": "uint256[8]"
        }
      ],
      "name": "verifyUserStateTransition",
      "outputs": [
        {
          "internalType": "bool",
          "name": "",
          "type": "bool"
        }
      ],
      "stateMutability": "view",
      "type": "function"
    },
    {
      "inputs": [],
      "name": "zeroNullifier",
      "outputs": [
        {
          "internalType": "uint256",
          "name": "",
          "type": "uint256"
        }
      ],
      "stateMutability": "view",
      "type": "function"
    }
  ],
  "bytecode": "0x6101606040527f30644e72e131a029b85045b68181585d2833e84879b9709143e1f593f0000001620000336101806200076f565b6040516020818303038152906040528051906020012060001c62000058919062000a21565b60005560016007556000600a556000600b5560016010553480156200007c57600080fd5b5060405162005410380380620054108339810160408190526200009f9162000619565b8b601560008201518160000160006101000a81548160ff021916908360ff16021790555060208201518160000160016101000a81548160ff021916908360ff16021790555060408201518160000160026101000a81548160ff021916908360ff16021790555060608201518160000160036101000a81548160ff021916908360ff16021790555090505089600160006101000a8154816001600160a01b0302191690836001600160a01b0316021790555088600260006101000a8154816001600160a01b0302191690836001600160a01b0316021790555087600360006101000a8154816001600160a01b0302191690836001600160a01b0316021790555086600460006101000a8154816001600160a01b0302191690836001600160a01b0316021790555085600560006101000a8154816001600160a01b0302191690836001600160a01b0316021790555084600660006101000a8154816001600160a01b0302191690836001600160a01b031602179055508360ff1660c08160ff1660f81b815250508260ff1660e08160ff1660f81b81525050816080818152505042600881905550600060018d6000015160026200025b9190620008ec565b620002679190620009e4565b9050808c600001511115620002995760405162461bcd60e51b8152600401620002909062000830565b60405180910390fd5b8b516101005260208d0151620002af9062000314565b6009558c51620002bf9062000396565b60a0908152610140839052604080519182018152600080835260208301819052908201819052606082018190526080820152620002fc90620003ba565b610120525062000a589b505050505050505050505050565b6000620003206200058b565b60005b60058160ff16101562000370576000828260ff16600581106200035657634e487b7160e01b600052603260045260246000fd5b6020020152806200036781620009fe565b91505062000323565b5060006200037e82620003ba565b90506200038c848262000450565b925050505b919050565b604080518082019091526000808252600954602083015290816200037e82620004d8565b604051630926f44b60e31b815260009073__$223301b175b06473d424a7afc957d4e96c$__90634937a25890620003f6908590600401620007b4565b60206040518083038186803b1580156200040f57600080fd5b505af415801562000424573d6000803e3d6000fd5b505050506040513d601f19601f820116820180604052508101906200044a919062000756565b92915050565b6000808360ff161180156200046a57506101008360ff1611155b620004895760405162461bcd60e51b81526004016200029090620007de565b8160015b8460ff168160ff161015620004c3576000620004aa8380620004e8565b9250819050620004ba81620009fe565b9150506200048d565b50620004d08180620004e8565b949350505050565b805160208201516000916200044a915b6000620004f4620005a9565b838152602081018390526040516314d2f97b60e11b815273__$86e0c54df1042e28bf2dd20ccf184dc428$__906329a5f2f6906200053790849060040162000781565b60206040518083038186803b1580156200055057600080fd5b505af415801562000565573d6000803e3d6000fd5b505050506040513d601f19601f82011682018060405250810190620004d0919062000756565b6040518060a001604052806005906020820280368337509192915050565b60405180604001604052806002906020820280368337509192915050565b80516001600160a01b03811681146200039157600080fd5b600060208284031215620005f1578081fd5b620005fd602062000867565b9151825250919050565b805160ff811681146200039157600080fd5b6000806000806000806000806000806000808c8e036101e08112156200063d578889fd5b60808112156200064b578889fd5b5062000658608062000867565b620006638e62000607565b81526200067360208f0162000607565b60208201526200068660408f0162000607565b60408201526200069960608f0162000607565b60608201529b50620006af8e60808f01620005df565b9a50620006bf60a08e01620005c7565b9950620006cf60c08e01620005c7565b9850620006df60e08e01620005c7565b9750620006f06101008e01620005c7565b9650620007016101208e01620005c7565b9550620007126101408e01620005c7565b9450620007236101608e0162000607565b9350620007346101808e0162000607565b92506101a08d015191506101c08d015190509295989b509295989b509295989b565b60006020828403121562000768578081fd5b5051919050565b650556e697265760d41b815260060190565b60408101818360005b6002811015620007ab5781518352602092830192909101906001016200078a565b50505092915050565b60a08101818360005b6005811015620007ab578151835260209283019290910190600101620007bd565b60208082526032908201527f436f6d70757465526f6f743a205f747265654c6576656c73206d757374206265604082015271103132ba3bb2b2b710181030b73210191a9b60711b606082015260800190565b6020808252601e908201527f556e697265703a20696e76616c6964206d617855736572732076616c75650000604082015260600190565b6040518181016001600160401b03811182821017156200089757634e487b7160e01b600052604160045260246000fd5b604052919050565b80825b6001808611620008b35750620008e3565b818704821115620008c857620008c862000a42565b80861615620008d657918102915b9490941c938002620008a2565b94509492505050565b60006200090060001960ff85168462000907565b9392505050565b600082620009185750600162000900565b81620009275750600062000900565b81600181146200094057600281146200094b576200097f565b600191505062000900565b60ff8411156200095f576200095f62000a42565b6001841b91508482111562000978576200097862000a42565b5062000900565b5060208310610133831016604e8410600b8410161715620009b7575081810a83811115620009b157620009b162000a42565b62000900565b620009c684848460016200089f565b808604821115620009db57620009db62000a42565b02949350505050565b600082821015620009f957620009f962000a42565b500390565b600060ff821660ff81141562000a185762000a1862000a42565b60010192915050565b60008262000a3d57634e487b7160e01b81526012600452602481fd5b500690565b634e487b7160e01b600052601160045260246000fd5b60805160a05160c05160f81c60e05160f81c6101005161012051610140516148b662000b5a60003960008181610bb801528181611dba0152612bbc015260006122cb0152600081816111e9015261232b015260008181610c7a01528181610d1501528181610d6701528181610dc001528181610e1901528181610e7201528181610ecb01528181610f2401528181610f7d01526122ef0152600081816115a5015281816121f70152818161235b01528181612413015281816124bd015281816125150152818161256f015281816125ea0152818161264d015281816126a7015261272d0152600061200001526000818161092801526118ff01526148b66000f3fe6080604052600436106102ff5760003560e01c806383e168ad11610190578063b530dc8c116100dc578063e1b0e80211610095578063f5ab0dd61161006f578063f5ab0dd614610881578063f73c8ebb146108b0578063fc14478a146108d0578063fd551331146108f0576102ff565b8063e1b0e80214610837578063e87101b11461084c578063f20ca7ff14610861576102ff565b8063b530dc8c14610798578063b876ed71146107b8578063bc9bf145146107d8578063c2639673146107ed578063c6e0123214610802578063d3aa645b14610817576102ff565b8063a3836b2011610149578063a710d60f11610123578063a710d60f1461071c578063a7c264ca1461073c578063a7ebaa751461075e578063ac98e5df14610773576102ff565b8063a3836b20146106c7578063a4ecf469146106dc578063a5500c30146106fc576102ff565b806383e168ad146106285780639109d1eb14610648578063918f0c161461065d57806398588c1f146106725780639cfced9714610692578063a27e572a146106b2576102ff565b80634d6f77a71161024f5780635bb939951161020857806376671808116101e257806376671808146105b0578063777a296e146105c55780637aeb103f146105e5578063839beeb814610613576102ff565b80635bb939951461055b578063705edd391461057b5780637341ead914610590576102ff565b80634d6f77a7146104b15780634ded429f146104d15780634edc9ace146104f157806356df46341461051157806357d775f8146105265780635b3745b51461053b576102ff565b80632b95f97e116102bc5780633acce985116102965780633acce98514610431578063417b16e314610451578063436b32d8146104715780634cce1a9a14610491576102ff565b80632b95f97e146103d15780632fa6773b146103f15780633334dc5b14610411576102ff565b806307d8330814610304578063083789d31461032f57806309663b291461034f578063131a91ad146103715780631c89e8e814610391578063258da4db146103be575b600080fd5b34801561031057600080fd5b50610319610903565b60405161032691906145e4565b60405180910390f35b34801561033b57600080fd5b5061031961034a366004613810565b610909565b34801561035b57600080fd5b5061036f61036a366004613810565b610921565b005b34801561037d57600080fd5b5061031961038c366004613502565b610b05565b34801561039d57600080fd5b506103b16103ac366004613810565b610b17565b6040516103269190613d05565b61036f6103cc36600461372b565b610b2c565b3480156103dd57600080fd5b506103196103ec366004613810565b610c14565b3480156103fd57600080fd5b5061031961040c366004613810565b610c3b565b34801561041d57600080fd5b506103b161042c36600461366a565b610c4d565b34801561043d57600080fd5b5061031961044c3660046139be565b611132565b34801561045d57600080fd5b5061036f61046c366004613810565b6111b8565b34801561047d57600080fd5b506103b161048c366004613a54565b611346565b34801561049d57600080fd5b5061036f6104ac366004613840565b611580565b3480156104bd57600080fd5b506103196104cc366004613810565b611754565b3480156104dd57600080fd5b5061036f6104ec36600461366a565b611766565b3480156104fd57600080fd5b5061031961050c366004613a9e565b611833565b34801561051d57600080fd5b5061036f6118a7565b34801561053257600080fd5b506103196118fd565b34801561054757600080fd5b506103b1610556366004613a1f565b611921565b34801561056757600080fd5b506103196105763660046139be565b611b06565b34801561058757600080fd5b50610319611ba1565b34801561059c57600080fd5b506103196105ab3660046137c3565b611bc8565b3480156105bc57600080fd5b50610319611bdc565b3480156105d157600080fd5b506103196105e03660046139be565b611be2565b3480156105f157600080fd5b50610605610600366004613810565b611c31565b604051610326929190613cd7565b34801561061f57600080fd5b50610319611db8565b34801561063457600080fd5b50610319610643366004613ac7565b611ddc565b34801561065457600080fd5b50610319611e9b565b34801561066957600080fd5b50610319611ea1565b34801561067e57600080fd5b5061036f61068d36600461351c565b611ea7565b34801561069e57600080fd5b506103196106ad3660046135d8565b611f52565b3480156106be57600080fd5b5061036f611fdc565b3480156106d357600080fd5b50610319611ffe565b3480156106e857600080fd5b506103b16106f7366004613810565b612022565b34801561070857600080fd5b5061036f610717366004613810565b612037565b34801561072857600080fd5b506103b1610737366004613a1f565b612075565b34801561074857600080fd5b506107516121f5565b60405161032691906146cc565b34801561076a57600080fd5b5061036f612219565b34801561077f57600080fd5b5061078861222e565b60405161032694939291906146da565b3480156107a457600080fd5b506103196107b3366004613502565b612253565b3480156107c457600080fd5b5061036f6107d33660046139df565b612265565b3480156107e457600080fd5b506103196122c9565b3480156107f957600080fd5b506107516122ed565b34801561080e57600080fd5b50610319612311565b34801561082357600080fd5b50610319610832366004613502565b612317565b34801561084357600080fd5b50610319612329565b34801561085857600080fd5b5061031961234d565b34801561086d57600080fd5b506103b161087c3660046138ff565b612353565b34801561088d57600080fd5b506108a161089c36600461364e565b61287f565b60405161032693929190613c3f565b3480156108bc57600080fd5b5061036f6108cb3660046139df565b612908565b3480156108dc57600080fd5b506103b16108eb366004613a1f565b61295e565b61036f6108fe36600461356c565b612ade565b600d5481565b6000818152601360205260409020600201545b919050565b60005a90507f0000000000000000000000000000000000000000000000000000000000000000600854426109559190614798565b101561097c5760405162461bcd60e51b815260040161097390613eed565b60405180910390fd5b60075460009081526013602052604081206002810154905482906109a9906109a48488612c1b565b612c2e565b9050815b81811015610a26576007546000908152601360209081526040808320848452600190810183528184205480855260129093529220549095506109ef9190611b06565b6000858152601260209081526040808320939093556011905220805460ff1916600117905580610a1e816147af565b9150506109ad565b5060078054600090815260136020526040808220600201849055915481522054811415610abb57600080516020614861833981519152604051610a6890613fc2565b60405180910390a16007546040517f751bb1ba7b27b3979a32844d4d05aa16a46a771b751593704834a80311e3a9b990600090a24260085560078054906000610ab0836147af565b90915550506000600b555b6000610ac85a8690612c46565b9050610aed610ad7823a612c52565b336000908152600e602052604090205490612c1b565b336000908152600e6020526040902055505050505050565b600f6020526000908152604090205481565b600c6020526000908152604090205460ff1681565b336000908152600f6020526040902054610b585760405162461bcd60e51b815260040161097390613ea7565b336000908152600f6020526040902054823514610b875760405162461bcd60e51b8152600401610973906143d2565b60008181526011602052604090205460ff1615610bb65760405162461bcd60e51b81526004016109739061417a565b7f00000000000000000000000000000000000000000000000000000000000000003414610bf55760405162461bcd60e51b815260040161097390613f76565b600d54610c029034612c1b565b600d55610c10338383612c5e565b5050565b6000610c1e613264565b828152600160608201819052610c3382611f52565b949350505050565b60126020526000908152604090205481565b6040805160128082526102608201909252600091829190602082016102408036833701905050905060005b7f000000000000000000000000000000000000000000000000000000000000000060ff168160ff161015610d10578d8d8260ff16818110610cc957634e487b7160e01b600052603260045260246000fd5b90506020020135828260ff1681518110610cf357634e487b7160e01b600052603260045260246000fd5b602090810291909101015280610d08816147ca565b915050610c78565b508a817f000000000000000000000000000000000000000000000000000000000000000060ff1681518110610d5557634e487b7160e01b600052603260045260246000fd5b60209081029190910101528981610d8d7f00000000000000000000000000000000000000000000000000000000000000006001614717565b60ff1681518110610dae57634e487b7160e01b600052603260045260246000fd5b60209081029190910101528881610de67f00000000000000000000000000000000000000000000000000000000000000006002614717565b60ff1681518110610e0757634e487b7160e01b600052603260045260246000fd5b60209081029190910101528781610e3f7f00000000000000000000000000000000000000000000000000000000000000006003614717565b60ff1681518110610e6057634e487b7160e01b600052603260045260246000fd5b60209081029190910101528681610e987f00000000000000000000000000000000000000000000000000000000000000006004614717565b60ff1681518110610eb957634e487b7160e01b600052603260045260246000fd5b60209081029190910101528581610ef17f00000000000000000000000000000000000000000000000000000000000000006005614717565b60ff1681518110610f1257634e487b7160e01b600052603260045260246000fd5b60209081029190910101528481610f4a7f00000000000000000000000000000000000000000000000000000000000000006006614717565b60ff1681518110610f6b57634e487b7160e01b600052603260045260246000fd5b60209081029190910101528381610fa37f00000000000000000000000000000000000000000000000000000000000000006007614717565b60ff1681518110610fc457634e487b7160e01b600052603260045260246000fd5b60200260200101818152505060005b81518160ff16101561104857600080516020614841833981519152828260ff168151811061101157634e487b7160e01b600052603260045260246000fd5b6020026020010151106110365760405162461bcd60e51b815260040161097390614409565b80611040816147ca565b915050610fd3565b50611051613282565b60408051610100818101909252611080918690600890839083908082843760009201919091525061287f915050565b60408085018290526020850183905283855260055490516361971b8760e11b81526001600160a01b039091169363c32e370e936110c69391929091908890600401613c68565b60206040518083038186803b1580156110de57600080fd5b505afa1580156110f2573d6000803e3d6000fd5b505050506040513d601f19601f82011682018060405250810190611116919061370b565b151560609091018190529150509b9a5050505050505050505050565b600061113c613264565b60005b60058160ff161015611187576000828260ff166005811061117057634e487b7160e01b600052603260045260246000fd5b60200201528061117f816147ca565b91505061113f565b50600061119382611f52565b6015549091506111ad90610100900460ff16868684611ddc565b925050505b92915050565b6000818152600c602052604090205460ff16156111e75760405162461bcd60e51b8152600401610973906142be565b7f0000000000000000000000000000000000000000000000000000000000000000600a54106112285760405162461bcd60e51b815260040161097390614106565b600954336000908152600f602090815260408083205460149092529091205481158015906112565750600081115b1561127657600061126682610c14565b90506112728382611132565b9350505b6040805180820190915284815260208101849052600061129582611bc8565b6000878152600c60205260408120805460ff19166001179055600a8054929350906112bf836147af565b91905055506000805160206148618339815191526040516112df906144ae565b60405180910390a16007547f9a965b974adcc5af3e5c811827630ad09160710bebb1621ec72cb1cbf0050cb7600b5483878760405161132194939291906146b1565b60405180910390a2600b8054906000611339836147af565b9190505550505050505050565b60408051600480825260a0820190925260009182919060208201608080368337019050509050868160008151811061138e57634e487b7160e01b600052603260045260246000fd5b60200260200101818152505085816001815181106113bc57634e487b7160e01b600052603260045260246000fd5b60200260200101818152505084816002815181106113ea57634e487b7160e01b600052603260045260246000fd5b602002602001018181525050838160038151811061141857634e487b7160e01b600052603260045260246000fd5b60200260200101818152505060005b81518160ff16101561149c57600080516020614841833981519152828260ff168151811061146557634e487b7160e01b600052603260045260246000fd5b60200260200101511061148a5760405162461bcd60e51b815260040161097390614409565b80611494816147ca565b915050611427565b506114a5613282565b604080516101008181019092526114d4918690600890839083908082843760009201919091525061287f915050565b60408085018290526020850183905283855260065490516361971b8760e11b81526001600160a01b039091169363c32e370e9361151a9391929091908890600401613c68565b60206040518083038186803b15801561153257600080fd5b505afa158015611546573d6000803e3d6000fd5b505050506040513d601f19601f8201168201806040525081019061156a919061370b565b1515606090910181905291505095945050505050565b60075484106115a15760405162461bcd60e51b8152600401610973906141ce565b60ff7f00000000000000000000000000000000000000000000000000000000000000001689146115e35760405162461bcd60e51b815260040161097390614466565b6115eb6132bc565b848152602081018490526040808201849052606082018d90528051610100818101909252908390600890839083908082843760009201919091525050506080820152604080516020808b0282810182019093528a825290918b918b91829185019084908082843760009201919091525050505060a08201526040805160208089028281018201909352888252909189918991829185019084908082843760009201919091525050505060c0820152604080516020808d0282810182019093528c825290918d918d91829185019084908082843760009201919091525050505060e0820152604051600080516020614861833981519152906116eb90614304565b60405180910390a16007547fe4d3d9968cbe83e3f78ff28e3ec13aed2d63400dbdd05b7f5fcb01a9459a74a2600b5483604051611729929190614609565b60405180910390a2600b8054906000611741836147af565b9190505550505050505050505050505050565b60009081526013602052604090205490565b61176e613307565b888152602081018890526040808201889052606082018790526080820186905260a0820185905260c0820184905280516101008181019092529083906008908390839080828437600092019190915250505060e0820152604051600080516020614861833981519152906117e190613d65565b60405180910390a1897f5579a3088d5a8627c8147da49ee4be1a9074dc1996d6e3d19d0ebe3475265231828e8e60405161181d9392919061454e565b60405180910390a2505050505050505050505050565b6000808360ff1611801561184c57506101008360ff1611155b6118685760405162461bcd60e51b815260040161097390613f24565b8160015b8460ff168160ff16101561189c5760006118868384611b06565b9250819050611894816147ca565b91505061186c565b50610c338182611b06565b336000908152600f6020526040902054156118d45760405162461bcd60e51b815260040161097390613d9c565b60108054336000908152600f602052604081208290559091906118f6836147af565b9190505550565b7f000000000000000000000000000000000000000000000000000000000000000081565b60408051600480825260a0820190925260009182919060208201608080368337019050509050858160008151811061196957634e487b7160e01b600052603260045260246000fd5b602002602001018181525050848160018151811061199757634e487b7160e01b600052603260045260246000fd5b60200260200101818152505083816002815181106119c557634e487b7160e01b600052603260045260246000fd5b60200260200101818152505060005b81518160ff161015611a4957600080516020614841833981519152828260ff1681518110611a1257634e487b7160e01b600052603260045260246000fd5b602002602001015110611a375760405162461bcd60e51b815260040161097390614409565b80611a41816147ca565b9150506119d4565b50611a52613282565b611a5b8461287f565b60408085018290526020850183905283855260025490516361971b8760e11b81526001600160a01b039091169363c32e370e93611aa19391929091908890600401613c68565b60206040518083038186803b158015611ab957600080fd5b505afa158015611acd573d6000803e3d6000fd5b505050506040513d601f19601f82011682018060405250810190611af1919061370b565b15156060909101819052915050949350505050565b6000611b10613351565b838152602081018390526040516314d2f97b60e11b815273__$86e0c54df1042e28bf2dd20ccf184dc428$__906329a5f2f690611b51908490600401613c0e565b60206040518083038186803b158015611b6957600080fd5b505af4158015611b7d573d6000803e3d6000fd5b505050506040513d601f19601f82011682018060405250810190610c339190613828565b604080518082019091526000808252600954602083015290611bc281611bc8565b91505090565b60006111b282600001518360200151611b06565b60075481565b6000828152601360205260408120548210611c0f5760405162461bcd60e51b815260040161097390613fe6565b5060009182526013602090815260408084209284526001909201905290205490565b60008181526013602052604081205460609182916001600160401b03811115611c6a57634e487b7160e01b600052604160045260246000fd5b604051908082528060200260200182016040528015611c93578160200160208202803683370190505b506000858152601360205260409020549093506001600160401b03811115611ccb57634e487b7160e01b600052604160045260246000fd5b604051908082528060200260200182016040528015611cf4578160200160208202803683370190505b50915060005b600085815260136020526040902054811015611db157600085815260136020908152604080832084845260010190915290205484519092508290859083908110611d5457634e487b7160e01b600052603260045260246000fd5b6020026020010181815250506012600083815260200190815260200160002054838281518110611d9457634e487b7160e01b600052603260045260246000fd5b602090810291909101015280611da9816147af565b915050611cfa565b5050915091565b7f000000000000000000000000000000000000000000000000000000000000000081565b6000808560ff16118015611df557506101008560ff1611155b611e115760405162461bcd60e51b815260040161097390613f24565b82828560015b611e22896001614717565b60ff168160ff161015611e8e576000611e3b8485611b06565b9050611e486002846147ea565b611e5d57611e568585611b06565b9450611e6a565b611e678486611b06565b94505b925082611e7860028461473c565b9250508080611e86906147ca565b915050611e17565b5091979650505050505050565b60105481565b600a5481565b6001600160a01b0383166000908152600f602052604090205415611edd5760405162461bcd60e51b815260040161097390613d9c565b611f1d8383838080601f016020809104026020016040519081016040528093929190818152602001838380828437600092019190915250612e2792505050565b601080546001600160a01b0385166000908152600f60205260408120829055909190611f48836147af565b9190505550505050565b604051630926f44b60e31b815260009073__$223301b175b06473d424a7afc957d4e96c$__90634937a25890611f8c908590600401613caf565b60206040518083038186803b158015611fa457600080fd5b505af4158015611fb8573d6000803e3d6000fd5b505050506040513d601f19601f820116820180604052508101906111b29190613828565b336000818152600e60205260408120805491905590611ffb9082612eb9565b50565b7f000000000000000000000000000000000000000000000000000000000000000081565b60116020526000908152604090205460ff1681565b336000908152600f60205260409020546120635760405162461bcd60e51b815260040161097390613ea7565b33600090815260146020526040902055565b60408051600480825260a082019092526000918291906020820160808036833701905050905085816000815181106120bd57634e487b7160e01b600052603260045260246000fd5b60200260200101818152505084816001815181106120eb57634e487b7160e01b600052603260045260246000fd5b602002602001018181525050838160028151811061211957634e487b7160e01b600052603260045260246000fd5b60200260200101818152505060005b81518160ff16101561219d57600080516020614841833981519152828260ff168151811061216657634e487b7160e01b600052603260045260246000fd5b60200260200101511061218b5760405162461bcd60e51b815260040161097390614409565b80612195816147ca565b915050612128565b506121a6613282565b6121af8461287f565b60408085018290526020850183905283855260035490516361971b8760e11b81526001600160a01b039091169363c32e370e93611aa19391929091908890600401613c68565b7f000000000000000000000000000000000000000000000000000000000000000081565b600d805460009182905590611ffb9082612eb9565b60155460ff808216916101008104821691620100008204811691630100000090041684565b60146020526000908152604090205481565b6000805160206148618339815191526040516122809061414f565b60405180910390a182847f9a16049a123ddc0a74b7ac4e9c3ec8e62c2f43a2499483538ab1706737b8ab2184846040516122bb9291906145ed565b60405180910390a350505050565b7f000000000000000000000000000000000000000000000000000000000000000081565b7f000000000000000000000000000000000000000000000000000000000000000081565b60095481565b600e6020526000908152604090205481565b7f000000000000000000000000000000000000000000000000000000000000000081565b60085481565b6000806123817f0000000000000000000000000000000000000000000000000000000000000000600361476f565b61238c906004614717565b60ff166001600160401b038111156123b457634e487b7160e01b600052604160045260246000fd5b6040519080825280602002602001820160405280156123dd578160200160208202803683370190505b5090508c8160008151811061240257634e487b7160e01b600052603260045260246000fd5b60200260200101818152505060005b7f000000000000000000000000000000000000000000000000000000000000000060ff168160ff1610156124b5578c8c8260ff1681811061246257634e487b7160e01b600052603260045260246000fd5b90506020020135828260016124779190614717565b60ff168151811061249857634e487b7160e01b600052603260045260246000fd5b6020908102919091010152806124ad816147ca565b915050612411565b5089816124e37f00000000000000000000000000000000000000000000000000000000000000006001614717565b60ff168151811061250457634e487b7160e01b600052603260045260246000fd5b60200260200101818152505060005b7f000000000000000000000000000000000000000000000000000000000000000060ff168160ff1610156125e25789898260ff1681811061256457634e487b7160e01b600052603260045260246000fd5b9050602002013582827f0000000000000000000000000000000000000000000000000000000000000000600261259a9190614717565b6125a49190614717565b60ff16815181106125c557634e487b7160e01b600052603260045260246000fd5b6020908102919091010152806125da816147ca565b915050612513565b5086816126107f0000000000000000000000000000000000000000000000000000000000000000600261476f565b61261b906002614717565b60ff168151811061263c57634e487b7160e01b600052603260045260246000fd5b60200260200101818152505060005b7f000000000000000000000000000000000000000000000000000000000000000060ff168160ff1610156127255786868260ff1681811061269c57634e487b7160e01b600052603260045260246000fd5b9050602002013582827f000000000000000000000000000000000000000000000000000000000000000060026126d2919061476f565b6126dd906003614717565b6126e79190614717565b60ff168151811061270857634e487b7160e01b600052603260045260246000fd5b60209081029190910101528061271d816147ca565b91505061264b565b5083816127537f0000000000000000000000000000000000000000000000000000000000000000600361476f565b61275e906003614717565b60ff168151811061277f57634e487b7160e01b600052603260045260246000fd5b60200260200101818152505060005b81518160ff16101561280357600080516020614841833981519152828260ff16815181106127cc57634e487b7160e01b600052603260045260246000fd5b6020026020010151106127f15760405162461bcd60e51b815260040161097390614409565b806127fb816147ca565b91505061278e565b5061280c613282565b6040805161010081810190925261283b918690600890839083908082843760009201919091525061287f915050565b6040808501829052602085018390528385526004805491516361971b8760e11b81526001600160a01b039092169463c32e370e946110c69491939092899101613c68565b612887613351565b61288f61336f565b612897613351565b50506040805180820182528351815260208085015181830152825160808082018552868501518286019081526060808901519084015282528451808601865290870151815260a08701518184015281830152835180850190945260c0860151845260e0909501519083015293909150565b60008051602061486183398151915260405161292390614333565b60405180910390a182847fb91edc6d40651acb63b84259617d123737d66e253044b4f6f60bcfd6972661ea84846040516122bb9291906145ed565b604080516003808252608082019092526000918291906020820160608036833701905050905085816000815181106129a657634e487b7160e01b600052603260045260246000fd5b60200260200101818152505084816001815181106129d457634e487b7160e01b600052603260045260246000fd5b6020026020010181815250508381600281518110612a0257634e487b7160e01b600052603260045260246000fd5b60200260200101818152505060005b81518160ff161015612a8657600080516020614841833981519152828260ff1681518110612a4f57634e487b7160e01b600052603260045260246000fd5b602002602001015110612a745760405162461bcd60e51b815260040161097390614409565b80612a7e816147ca565b915050612a11565b50612a8f613282565b612a988461287f565b60408085018290526020850183905283855260015490516361971b8760e11b81526001600160a01b039091169363c32e370e93611aa19391929091908890600401613c68565b612b1e8585858080601f016020809104026020016040519081016040528093929190818152602001838380828437600092019190915250612e2792505050565b6001600160a01b0385166000908152600f6020526040902054612b535760405162461bcd60e51b815260040161097390613ea7565b6001600160a01b0385166000908152600f6020526040902054823514612b8b5760405162461bcd60e51b8152600401610973906143d2565b60008181526011602052604090205460ff1615612bba5760405162461bcd60e51b81526004016109739061417a565b7f00000000000000000000000000000000000000000000000000000000000000003414612bf95760405162461bcd60e51b815260040161097390613f76565b600d54612c069034612c1b565b600d55612c14858383612c5e565b5050505050565b6000612c2782846146ff565b9392505050565b600081831115612c3f5750806111b2565b50816111b2565b6000612c278284614798565b6000612c278284614750565b600081815260126020526040812054612cb45750600780546000908152601360208181526040808420805480865260019091018352818520879055945484529190528120805491612cae836147af565b91905055505b600080516020614841833981519152836020013510612ce55760405162461bcd60e51b81526004016109739061423a565b600080516020614841833981519152836040013510612d165760405162461bcd60e51b815260040161097390614390565b600080516020614841833981519152836060013510612d475760405162461bcd60e51b815260040161097390613e19565b826080013560011480612d5c57506080830135155b612d785760405162461bcd60e51b8152600401610973906144d2565b612da6612d92612d8d36869003860186613755565b612f55565b600084815260126020526040902054611b06565b60008381526012602052604090819020919091555160008051602061486183398151915290612dd490614362565b60405180910390a1836001600160a01b0316826007547f45dd8e7adcda0ec776335bbed91fbf1ad3a3b08079de3b4a8ea59c50935e9ec086604051612e199190614514565b60405180910390a450505050565b60008230604051602001612e3c929190613bb3565b60405160208183030381529060405280519060200120604051602001612e629190613bda565b604051602081830303815290604052805190602001209050826001600160a01b0316612e8e8284612f94565b6001600160a01b031614612eb45760405162461bcd60e51b815260040161097390613e5d565b505050565b80471015612ed95760405162461bcd60e51b8152600401610973906140cf565b6000826001600160a01b031682604051612ef290613c0b565b60006040518083038185875af1925050503d8060008114612f2f576040519150601f19603f3d011682016040523d82523d6000602084013e612f34565b606091505b5050905080612eb45760405162461bcd60e51b815260040161097390614030565b6000612f5f613264565b8251815260208084015190820152604080840151908201526060808401519082015260808084015190820152612c2781611f52565b6000806000612fa38585612fb8565b91509150612fb081613028565b509392505050565b600080825160411415612fef5760208301516040840151606085015160001a612fe387828585613155565b94509450505050613021565b825160401415613019576020830151604084015161300e868383613235565b935093505050613021565b506000905060025b9250929050565b600081600481111561304a57634e487b7160e01b600052602160045260246000fd5b141561305557611ffb565b600181600481111561307757634e487b7160e01b600052602160045260246000fd5b14156130955760405162461bcd60e51b815260040161097390613d2e565b60028160048111156130b757634e487b7160e01b600052602160045260246000fd5b14156130d55760405162461bcd60e51b815260040161097390613de2565b60038160048111156130f757634e487b7160e01b600052602160045260246000fd5b14156131155760405162461bcd60e51b81526004016109739061408d565b600481600481111561313757634e487b7160e01b600052602160045260246000fd5b1415611ffb5760405162461bcd60e51b81526004016109739061427c565b6000807f7fffffffffffffffffffffffffffffff5d576e7357a4501ddfe92f46681b20a083111561318c575060009050600361322c565b8460ff16601b141580156131a457508460ff16601c14155b156131b5575060009050600461322c565b6000600187878787604051600081526020016040526040516131da9493929190613d10565b6020604051602081039080840390855afa1580156131fc573d6000803e3d6000fd5b5050604051601f1901519150506001600160a01b0381166132255760006001925092505061322c565b9150600090505b94509492505050565b6000806001600160ff1b03831660ff84901c601b0161325687828885613155565b935093505050935093915050565b6040518060a001604052806005906020820280368337509192915050565b6040518060800160405280613295613351565b81526020016132a261336f565b81526020016132af613351565b8152600060209091015290565b604051806101000160405280600081526020016000815260200160008152602001600081526020016132ec61339c565b81526020016060815260200160608152602001606081525090565b6040518061010001604052806000815260200160008152602001600081526020016000815260200160008152602001600081526020016000815260200161334c61339c565b905290565b60405180604001604052806002906020820280368337509192915050565b60405180604001604052806002905b613386613351565b81526020019060019003908161337e5790505090565b6040518061010001604052806008906020820280368337509192915050565b80356001600160a01b038116811461091c57600080fd5b8061010081018310156111b257600080fd5b600082601f8301126133f4578081fd5b6040516101008082018281106001600160401b03821117156134185761341861482a565b604052818482810187101561342b578485fd5b8492505b600883101561344f5780358252600192909201916020918201910161342f565b509195945050505050565b60008083601f84011261346b578182fd5b5081356001600160401b03811115613481578182fd5b602083019150836020808302850101111561302157600080fd5b60008083601f8401126134ac578182fd5b5081356001600160401b038111156134c2578182fd5b60208301915083602082850101111561302157600080fd5b600060a082840312156134eb578081fd5b50919050565b803560ff8116811461091c57600080fd5b600060208284031215613513578081fd5b612c27826133bb565b600080600060408486031215613530578182fd5b613539846133bb565b925060208401356001600160401b03811115613553578283fd5b61355f8682870161349b565b9497909650939450505050565b60008060008060006101008688031215613584578081fd5b61358d866133bb565b945060208601356001600160401b038111156135a7578182fd5b6135b38882890161349b565b90955093506135c7905087604088016134da565b9497939650919460e0013592915050565b600060a082840312156135e9578081fd5b82601f8301126135f7578081fd5b60405160a081018181106001600160401b03821117156136195761361961482a565b604052808360a0810186101561362d578384fd5b835b600581101561344f57813583526020928301929091019060010161362f565b60006101008284031215613660578081fd5b612c2783836133e4565b60008060008060008060008060008060006102208c8e03121561368b578586fd5b8b356001600160401b038111156136a0578687fd5b6136ac8e828f0161345a565b909c509a505060208c0135985060408c0135975060608c0135965060808c0135955060a08c0135945060c08c0135935060e08c013592506101008c013591506136f98d6101208e016133d2565b90509295989b509295989b9093969950565b60006020828403121561371c578081fd5b81518015158114612c27578182fd5b60008060c0838503121561373d578182fd5b61374784846134da565b9460a0939093013593505050565b600060a08284031215613766578081fd5b60405160a081018181106001600160401b03821117156137885761378861482a565b806040525082358152602083013560208201526040830135604082015260608301356060820152608083013560808201528091505092915050565b6000604082840312156137d4578081fd5b604051604081018181106001600160401b03821117156137f6576137f661482a565b604052823581526020928301359281019290925250919050565b600060208284031215613821578081fd5b5035919050565b600060208284031215613839578081fd5b5051919050565b60008060008060008060008060008060006101e08c8e031215613861578485fd5b8b359a506001600160401b038060208e0135111561387d578586fd5b61388d8e60208f01358f0161345a565b909b50995060408d01358110156138a2578586fd5b6138b28e60408f01358f0161345a565b909950975060608d01358110156138c7578586fd5b506138d88d60608e01358e0161345a565b909650945060808c0135935060a08c0135925060c08c013591506136f98d60e08e016133d2565b60008060008060008060008060008060006101e08c8e031215613920578485fd5b8b359a506001600160401b038060208e0135111561393c578586fd5b61394c8e60208f01358f0161345a565b909b50995060408d0135985060608d0135811015613968578586fd5b6139788e60608f01358f0161345a565b909850965060808d0135955060a08d0135811015613994578485fd5b506139a58d60a08e01358e0161345a565b909450925060c08c013591506136f98d60e08e016133d2565b600080604083850312156139d0578182fd5b50508035926020909101359150565b60008060008061016085870312156139f5578182fd5b843593506020850135925060408501359150613a1486606087016133d2565b905092959194509250565b6000806000806101608587031215613a35578182fd5b843593506020850135925060408501359150613a1486606087016133e4565b60008060008060006101808688031215613a6c578283fd5b85359450602086013593506040860135925060608601359150613a9287608088016133d2565b90509295509295909350565b60008060408385031215613ab0578182fd5b613ab9836134f1565b946020939093013593505050565b60008060008060808587031215613adc578182fd5b613ae5856134f1565b966020860135965060408601359560600135945092505050565b8060005b6002811015613b2d57613b17848351613b33565b6040939093019260209190910190600101613b03565b50505050565b8060005b6002811015613b2d578151845260209384019390910190600101613b37565b8060005b6008811015613b2d578151845260209384019390910190600101613b5a565b6000815180845260208085019450808401835b83811015613ba857815187529582019590820190600101613b8c565b509495945050505050565b6bffffffffffffffffffffffff19606093841b811682529190921b16601482015260280190565b7f19457468657265756d205369676e6564204d6573736167653a0a3332000000008152601c810191909152603c0190565b90565b60408101818360005b6002811015613c36578151835260209283019290910190600101613c17565b50505092915050565b6101008101613c4e8286613b33565b613c5b6040830185613aff565b610c3360c0830184613b33565b6000610120613c778388613b33565b613c846040840187613aff565b613c9160c0840186613b33565b80610100840152613ca481840185613b79565b979650505050505050565b60a08101818360005b6005811015613c36578151835260209283019290910190600101613cb8565b600060408252613cea6040830185613b79565b8281036020840152613cfc8185613b79565b95945050505050565b901515815260200190565b93845260ff9290921660208401526040830152606082015260800190565b60208082526018908201527f45434453413a20696e76616c6964207369676e61747572650000000000000000604082015260600190565b6020808252601c908201527f52657075746174696f6e4e756c6c69666965725375626d697474656400000000604082015260600190565b60208082526026908201527f556e697265703a2061747465737465722068617320616c72656164792073696760408201526506e65642075760d41b606082015260800190565b6020808252601f908201527f45434453413a20696e76616c6964207369676e6174757265206c656e67746800604082015260600190565b60208082526024908201527f556e697265703a20696e76616c6964206174746573746174696f6e20677261666040820152636669746960e01b606082015260800190565b6020808252602a908201527f556e697265703a20696e76616c6964206174746573746572207369676e207570604082015269207369676e617475726560b01b606082015260800190565b60208082526026908201527f556e697265703a20617474657374657220686173206e6f74207369676e6564206040820152651d5c081e595d60d21b606082015260800190565b6020808252601b908201527f556e697265703a2065706f6368206e6f742079657420656e6465640000000000604082015260600190565b60208082526032908201527f436f6d70757465526f6f743a205f747265654c6576656c73206d757374206265604082015271103132ba3bb2b2b710181030b73210191a9b60711b606082015260800190565b6020808252602c908201527f556e697265703a206e6f20617474657374696e6720666565206f7220696e636f60408201526b1c9c9958dd08185b5bdd5b9d60a21b606082015260800190565b6020808252600a9082015269115c1bd8da115b99195960b21b604082015260600190565b6020808252602a908201527f556e697265703a2065706f6368206b6579206c69737420616363657373206f756040820152691d081bd988189bdd5b9960b21b606082015260800190565b6020808252603a908201527f416464726573733a20756e61626c6520746f2073656e642076616c75652c207260408201527f6563697069656e74206d61792068617665207265766572746564000000000000606082015260800190565b60208082526022908201527f45434453413a20696e76616c6964207369676e6174757265202773272076616c604082015261756560f01b606082015260800190565b6020808252601d908201527f416464726573733a20696e73756666696369656e742062616c616e6365000000604082015260600190565b60208082526029908201527f556e697265703a206d6178696d756d206e756d626572206f66207369676e75706040820152681cc81c995858da195960ba1b606082015260800190565b60208082526011908201527014dd185c9d151c985b9cda5d1a5bdb9959607a1b604082015260600190565b60208082526034908201527f556e697265703a206861736820636861696e206f6620746869732065706f6368604082015273081ad95e481a185cc81899595b881cd9585b195960621b606082015260800190565b60208082526046908201527f43616e206e6f74207472616e736974696f6e2066726f6d2065706f636820746860408201527f617427732067726561746572206f7220657175616c20746f2063757272656e74606082015265040cae0dec6d60d31b608082015260a00190565b60208082526022908201527f556e697265703a20696e76616c6964206174746573746174696f6e20706f7352604082015261065760f41b606082015260800190565b60208082526022908201527f45434453413a20696e76616c6964207369676e6174757265202776272076616c604082015261756560f01b606082015260800190565b60208082526026908201527f556e697265703a2074686520757365722068617320616c72656164792073696760408201526506e65642075760d41b606082015260800190565b602080825260159082015274155cd95c94dd185d19551c985b9cda5d1a5bdb9959605a1b604082015260600190565b60208082526015908201527450726f6365737365644174746573746174696f6e7360581b604082015260600190565b602080825260149082015273105d1d195cdd185d1a5bdb94dd589b5a5d1d195960621b604082015260600190565b60208082526022908201527f556e697265703a20696e76616c6964206174746573746174696f6e206e656752604082015261065760f41b606082015260800190565b6020808252601d908201527f556e697265703a206d69736d6174636865642061747465737465724964000000604082015260600190565b6020808252603c908201527f556e697265703a2065616368207075626c6963207369676e616c206d7573742060408201527f6265206c742074686520736e61726b207363616c6172206669656c6400000000606082015260800190565b60208082526028908201527f556e697265703a20696e76616c6964206e756d626572206f662065706b206e756040820152676c6c69666965727360c01b606082015260800190565b6020808252600a90820152690557365725369676e55760b41b604082015260600190565b60208082526022908201527f556e697265703a20696e76616c6964206174746573746174696f6e207369676e604082015261055760f41b606082015260800190565b600060a082019050823582526020830135602083015260408301356040830152606083013560608301526080830135608083015292915050565b6000610200855183526020860151602084015260408601516040840152606086015160608401526080860151608084015260a086015160a084015260c086015160c084015260e08601516145a560e0850182613b56565b506101e0830181905282018390526102206001600160fb1b038411156145c9578182fd5b60208402808683860137929092019091019081529392505050565b90815260200190565b8281526101208101610100836020840137600081529392505050565b600083825260406020830152825160408301526020830151606083015260408301516080830152606083015160a0830152608083015161464c60c0840182613b56565b5060a08301516101e0806101c085015261466a610220850183613b79565b915060c0850151603f198086850301838701526146878483613b79565b935060e08701519250808685030161020087015250506146a78282613b79565b9695505050505050565b93845260208401929092526040830152606082015260800190565b60ff91909116815260200190565b60ff948516815292841660208401529083166040830152909116606082015260800190565b60008219821115614712576147126147fe565b500190565b600060ff821660ff84168060ff03821115614734576147346147fe565b019392505050565b60008261474b5761474b614814565b500490565b600081600019048311821515161561476a5761476a6147fe565b500290565b600060ff821660ff84168160ff0481118215151615614790576147906147fe565b029392505050565b6000828210156147aa576147aa6147fe565b500390565b60006000198214156147c3576147c36147fe565b5060010190565b600060ff821660ff8114156147e1576147e16147fe565b60010192915050565b6000826147f9576147f9614814565b500690565b634e487b7160e01b600052601160045260246000fd5b634e487b7160e01b600052601260045260246000fd5b634e487b7160e01b600052604160045260246000fdfe30644e72e131a029b85045b68181585d2833e84879b9709143e1f593f00000010dcdd84eeab9fd262751c1bd37b2a03e271f2666bf2525092aab5f34fd72202ba26469706673582212204e22df6b7434da4a335cf3fcc852d9d50e6a42ae607a304fa7bcec5a6fccc57c64736f6c63430008000033",
  "linkReferences": {
    "contracts/Poseidon.sol": {
      "PoseidonT3": [
        {
          "length": 20,
          "start": 1293
        },
        {
          "length": 20,
          "start": 9859
        }
      ],
      "PoseidonT6": [
        {
          "length": 20,
          "start": 972
        },
        {
          "length": 20,
          "start": 10942
        }
      ]
    }
  },
  "deployedLinkReferences": {
    "contracts/Poseidon.sol": {
      "PoseidonT3": [
        {
          "length": 20,
          "start": 6953
        }
      ],
      "PoseidonT6": [
        {
          "length": 20,
          "start": 8036
        }
      ]
    }
  }
}