{
  "_format": "hh-sol-artifact-1",
  "contractName": "Unirep",
  "sourceName": "contracts/Unirep.sol",
  "abi": [
    {
      "inputs": [
        {
          "components": [
            {
              "internalType": "uint8",
              "name": "globalStateTreeDepth",
              "type": "uint8"
            },
            {
              "internalType": "uint8",
              "name": "userStateTreeDepth",
              "type": "uint8"
            },
            {
              "internalType": "uint8",
              "name": "epochTreeDepth",
              "type": "uint8"
            }
          ],
          "internalType": "struct UnirepParameters.TreeDepths",
          "name": "_treeDepths",
          "type": "tuple"
        },
        {
          "components": [
            {
              "internalType": "uint256",
              "name": "maxUsers",
              "type": "uint256"
            },
            {
              "internalType": "uint256",
              "name": "maxAttesters",
              "type": "uint256"
            }
          ],
          "internalType": "struct UnirepParameters.MaxValues",
          "name": "_maxValues",
          "type": "tuple"
        },
        {
          "internalType": "contract EpochKeyValidityVerifier",
          "name": "_epkValidityVerifier",
          "type": "address"
        },
        {
          "internalType": "contract StartTransitionVerifier",
          "name": "_startTransitionVerifier",
          "type": "address"
        },
        {
          "internalType": "contract ProcessAttestationsVerifier",
          "name": "_processAttestationsVerifier",
          "type": "address"
        },
        {
          "internalType": "contract UserStateTransitionVerifier",
          "name": "_userStateTransitionVerifier",
          "type": "address"
        },
        {
          "internalType": "contract ReputationVerifier",
          "name": "_reputationVerifier",
          "type": "address"
        },
        {
          "internalType": "contract UserSignUpVerifier",
          "name": "_userSignUpVerifier",
          "type": "address"
        },
        {
          "internalType": "uint8",
          "name": "_numEpochKeyNoncePerEpoch",
          "type": "uint8"
        },
        {
          "internalType": "uint8",
          "name": "_maxReputationBudget",
          "type": "uint8"
        },
        {
          "internalType": "uint256",
          "name": "_epochLength",
          "type": "uint256"
        },
        {
          "internalType": "uint256",
          "name": "_attestingFee",
          "type": "uint256"
        }
      ],
      "stateMutability": "nonpayable",
      "type": "constructor"
    },
    {
      "anonymous": false,
      "inputs": [
        {
          "indexed": true,
          "internalType": "uint256",
          "name": "_epoch",
          "type": "uint256"
        },
        {
          "indexed": true,
          "internalType": "uint256",
          "name": "_epochKey",
          "type": "uint256"
        },
        {
          "indexed": true,
          "internalType": "address",
          "name": "_attester",
          "type": "address"
        },
        {
          "indexed": false,
          "internalType": "string",
          "name": "_event",
          "type": "string"
        },
        {
          "components": [
            {
              "internalType": "uint256",
              "name": "attesterId",
              "type": "uint256"
            },
            {
              "internalType": "uint256",
              "name": "posRep",
              "type": "uint256"
            },
            {
              "internalType": "uint256",
              "name": "negRep",
              "type": "uint256"
            },
            {
              "internalType": "uint256",
              "name": "graffiti",
              "type": "uint256"
            },
            {
              "internalType": "uint256",
              "name": "signUp",
              "type": "uint256"
            }
          ],
          "indexed": false,
          "internalType": "struct DomainObjs.Attestation",
          "name": "attestation",
          "type": "tuple"
        },
        {
          "indexed": false,
          "internalType": "uint256",
          "name": "_proofIndex",
          "type": "uint256"
        }
      ],
      "name": "AttestationSubmitted",
      "type": "event"
    },
    {
      "anonymous": false,
      "inputs": [
        {
          "indexed": true,
          "internalType": "uint256",
          "name": "_epoch",
          "type": "uint256"
        }
      ],
      "name": "EpochEnded",
      "type": "event"
    },
    {
      "anonymous": false,
      "inputs": [
        {
          "indexed": true,
          "internalType": "uint256",
          "name": "_proofIndex",
          "type": "uint256"
        },
        {
          "indexed": true,
          "internalType": "uint256",
          "name": "_epoch",
          "type": "uint256"
        },
        {
          "indexed": true,
          "internalType": "uint256",
          "name": "_epochKey",
          "type": "uint256"
        },
        {
          "components": [
            {
              "internalType": "uint256",
              "name": "globalStateTree",
              "type": "uint256"
            },
            {
              "internalType": "uint256",
              "name": "epoch",
              "type": "uint256"
            },
            {
              "internalType": "uint256",
              "name": "epochKey",
              "type": "uint256"
            },
            {
              "internalType": "uint256[8]",
              "name": "proof",
              "type": "uint256[8]"
            }
          ],
          "indexed": false,
          "internalType": "struct UnirepParameters.EpochKeyProofRelated",
          "name": "epochKeyProofData",
          "type": "tuple"
        }
      ],
      "name": "EpochKeyProof",
      "type": "event"
    },
    {
      "anonymous": false,
      "inputs": [
        {
          "indexed": true,
          "internalType": "uint256",
          "name": "_epoch",
          "type": "uint256"
        },
        {
          "indexed": false,
          "internalType": "uint256",
          "name": "_hashedLeaf",
          "type": "uint256"
        },
        {
          "indexed": false,
          "internalType": "uint256",
          "name": "_proofIndex",
          "type": "uint256"
        }
      ],
      "name": "NewGSTLeafInserted",
      "type": "event"
    },
    {
      "anonymous": false,
      "inputs": [
        {
          "indexed": true,
          "internalType": "uint256",
          "name": "_proofIndex",
          "type": "uint256"
        },
        {
          "indexed": true,
          "internalType": "uint256",
          "name": "_inputBlindedUserState",
          "type": "uint256"
        },
        {
          "indexed": false,
          "internalType": "uint256",
          "name": "_outputBlindedUserState",
          "type": "uint256"
        },
        {
          "indexed": false,
          "internalType": "uint256",
          "name": "_outputBlindedHashChain",
          "type": "uint256"
        },
        {
          "indexed": false,
          "internalType": "uint256[8]",
          "name": "_proof",
          "type": "uint256[8]"
        }
      ],
      "name": "ProcessedAttestationsProof",
      "type": "event"
    },
    {
      "anonymous": false,
      "inputs": [
        {
          "indexed": true,
          "internalType": "uint256",
          "name": "_proofIndex",
          "type": "uint256"
        },
        {
          "indexed": true,
          "internalType": "uint256",
          "name": "_epoch",
          "type": "uint256"
        },
        {
          "indexed": true,
          "internalType": "uint256",
          "name": "_epochKey",
          "type": "uint256"
        },
        {
          "components": [
            {
              "internalType": "uint256[]",
              "name": "repNullifiers",
              "type": "uint256[]"
            },
            {
              "internalType": "uint256",
              "name": "epoch",
              "type": "uint256"
            },
            {
              "internalType": "uint256",
              "name": "epochKey",
              "type": "uint256"
            },
            {
              "internalType": "uint256",
              "name": "globalStateTree",
              "type": "uint256"
            },
            {
              "internalType": "uint256",
              "name": "attesterId",
              "type": "uint256"
            },
            {
              "internalType": "uint256",
              "name": "proveReputationAmount",
              "type": "uint256"
            },
            {
              "internalType": "uint256",
              "name": "minRep",
              "type": "uint256"
            },
            {
              "internalType": "uint256",
              "name": "proveGraffiti",
              "type": "uint256"
            },
            {
              "internalType": "uint256",
              "name": "graffitiPreImage",
              "type": "uint256"
            },
            {
              "internalType": "uint256[8]",
              "name": "proof",
              "type": "uint256[8]"
            }
          ],
          "indexed": false,
          "internalType": "struct UnirepParameters.ReputationProofRelated",
          "name": "reputationProofData",
          "type": "tuple"
        }
      ],
      "name": "ReputationNullifierProof",
      "type": "event"
    },
    {
      "anonymous": false,
      "inputs": [
        {
          "indexed": true,
          "internalType": "uint256",
          "name": "_epoch",
          "type": "uint256"
        },
        {
          "indexed": false,
          "internalType": "string",
          "name": "_event",
          "type": "string"
        }
      ],
      "name": "Sequencer",
      "type": "event"
    },
    {
      "anonymous": false,
      "inputs": [
        {
          "indexed": true,
          "internalType": "uint256",
          "name": "_proofIndex",
          "type": "uint256"
        },
        {
          "indexed": true,
          "internalType": "uint256",
          "name": "_blindedUserState",
          "type": "uint256"
        },
        {
          "indexed": true,
          "internalType": "uint256",
          "name": "_globalStateTree",
          "type": "uint256"
        },
        {
          "indexed": false,
          "internalType": "uint256",
          "name": "_blindedHashChain",
          "type": "uint256"
        },
        {
          "indexed": false,
          "internalType": "uint256[8]",
          "name": "_proof",
          "type": "uint256[8]"
        }
      ],
      "name": "StartedTransitionProof",
      "type": "event"
    },
    {
      "anonymous": false,
      "inputs": [
        {
          "indexed": true,
          "internalType": "uint256",
          "name": "_proofIndex",
          "type": "uint256"
        },
        {
          "indexed": false,
          "internalType": "uint256",
          "name": "_identityCommitment",
          "type": "uint256"
        },
        {
          "indexed": false,
          "internalType": "uint256",
          "name": "_attesterId",
          "type": "uint256"
        },
        {
          "indexed": false,
          "internalType": "uint256",
          "name": "_airdropAmount",
          "type": "uint256"
        }
      ],
      "name": "UserSignUp",
      "type": "event"
    },
    {
      "anonymous": false,
      "inputs": [
        {
          "indexed": true,
          "internalType": "uint256",
          "name": "_proofIndex",
          "type": "uint256"
        },
        {
          "indexed": true,
          "internalType": "uint256",
          "name": "_epoch",
          "type": "uint256"
        },
        {
          "indexed": true,
          "internalType": "uint256",
          "name": "_epochKey",
          "type": "uint256"
        },
        {
          "components": [
            {
              "internalType": "uint256",
              "name": "epoch",
              "type": "uint256"
            },
            {
              "internalType": "uint256",
              "name": "epochKey",
              "type": "uint256"
            },
            {
              "internalType": "uint256",
              "name": "globalStateTree",
              "type": "uint256"
            },
            {
              "internalType": "uint256",
              "name": "attesterId",
              "type": "uint256"
            },
            {
              "internalType": "uint256[8]",
              "name": "proof",
              "type": "uint256[8]"
            }
          ],
          "indexed": false,
          "internalType": "struct UnirepParameters.SignUpProofRelated",
          "name": "signUpProofData",
          "type": "tuple"
        }
      ],
      "name": "UserSignedUpProof",
      "type": "event"
    },
    {
      "anonymous": false,
      "inputs": [
        {
          "indexed": true,
          "internalType": "uint256",
          "name": "_proofIndex",
          "type": "uint256"
        },
        {
          "components": [
            {
              "internalType": "uint256",
              "name": "newGlobalStateTreeLeaf",
              "type": "uint256"
            },
            {
              "internalType": "uint256[]",
              "name": "epkNullifiers",
              "type": "uint256[]"
            },
            {
              "internalType": "uint256",
              "name": "transitionFromEpoch",
              "type": "uint256"
            },
            {
              "internalType": "uint256[]",
              "name": "blindedUserStates",
              "type": "uint256[]"
            },
            {
              "internalType": "uint256",
              "name": "fromGlobalStateTree",
              "type": "uint256"
            },
            {
              "internalType": "uint256[]",
              "name": "blindedHashChains",
              "type": "uint256[]"
            },
            {
              "internalType": "uint256",
              "name": "fromEpochTree",
              "type": "uint256"
            },
            {
              "internalType": "uint256[8]",
              "name": "proof",
              "type": "uint256[8]"
            }
          ],
          "indexed": false,
          "internalType": "struct UnirepParameters.UserTransitionedRelated",
          "name": "userTransitionedData",
          "type": "tuple"
        },
        {
          "indexed": false,
          "internalType": "uint256[]",
          "name": "_proofIndexRecords",
          "type": "uint256[]"
        }
      ],
      "name": "UserStateTransitionProof",
      "type": "event"
    },
    {
      "inputs": [
        {
          "internalType": "address",
          "name": "",
          "type": "address"
        }
      ],
      "name": "airdropAmount",
      "outputs": [
        {
          "internalType": "uint256",
          "name": "",
          "type": "uint256"
        }
      ],
      "stateMutability": "view",
      "type": "function"
    },
    {
      "inputs": [
        {
          "components": [
            {
              "internalType": "uint256",
              "name": "epoch",
              "type": "uint256"
            },
            {
              "internalType": "uint256",
              "name": "epochKey",
              "type": "uint256"
            },
            {
              "internalType": "uint256",
              "name": "globalStateTree",
              "type": "uint256"
            },
            {
              "internalType": "uint256",
              "name": "attesterId",
              "type": "uint256"
            },
            {
              "internalType": "uint256[8]",
              "name": "proof",
              "type": "uint256[8]"
            }
          ],
          "internalType": "struct UnirepParameters.SignUpProofRelated",
          "name": "signUpProofData",
          "type": "tuple"
        }
      ],
      "name": "airdropEpochKey",
      "outputs": [],
      "stateMutability": "payable",
      "type": "function"
    },
    {
      "inputs": [],
      "name": "attesterSignUp",
      "outputs": [],
      "stateMutability": "nonpayable",
      "type": "function"
    },
    {
      "inputs": [
        {
          "internalType": "address",
          "name": "attester",
          "type": "address"
        },
        {
          "internalType": "bytes",
          "name": "signature",
          "type": "bytes"
        }
      ],
      "name": "attesterSignUpViaRelayer",
      "outputs": [],
      "stateMutability": "nonpayable",
      "type": "function"
    },
    {
      "inputs": [
        {
          "internalType": "address",
          "name": "",
          "type": "address"
        }
      ],
      "name": "attesters",
      "outputs": [
        {
          "internalType": "uint256",
          "name": "",
          "type": "uint256"
        }
      ],
      "stateMutability": "view",
      "type": "function"
    },
    {
      "inputs": [],
      "name": "attestingFee",
      "outputs": [
        {
          "internalType": "uint256",
          "name": "",
          "type": "uint256"
        }
      ],
      "stateMutability": "view",
      "type": "function"
    },
    {
      "inputs": [],
      "name": "beginEpochTransition",
      "outputs": [],
      "stateMutability": "nonpayable",
      "type": "function"
    },
    {
      "inputs": [],
      "name": "burnAttestingFee",
      "outputs": [],
      "stateMutability": "nonpayable",
      "type": "function"
    },
    {
      "inputs": [
        {
          "internalType": "uint256",
          "name": "_leafIndex",
          "type": "uint256"
        },
        {
          "internalType": "uint256",
          "name": "_leafValue",
          "type": "uint256"
        }
      ],
      "name": "calcAirdropUSTRoot",
      "outputs": [
        {
          "internalType": "uint256",
          "name": "",
          "type": "uint256"
        }
      ],
      "stateMutability": "view",
      "type": "function"
    },
    {
      "inputs": [],
      "name": "collectEpochTransitionCompensation",
      "outputs": [],
      "stateMutability": "nonpayable",
      "type": "function"
    },
    {
      "inputs": [],
      "name": "collectedAttestingFee",
      "outputs": [
        {
          "internalType": "uint256",
          "name": "",
          "type": "uint256"
        }
      ],
      "stateMutability": "view",
      "type": "function"
    },
    {
      "inputs": [
        {
          "internalType": "uint8",
          "name": "_treeLevels",
          "type": "uint8"
        },
        {
          "internalType": "uint256",
          "name": "_zeroValue",
          "type": "uint256"
        }
      ],
      "name": "computeEmptyRoot",
      "outputs": [
        {
          "internalType": "uint256",
          "name": "",
          "type": "uint256"
        }
      ],
      "stateMutability": "pure",
      "type": "function"
    },
    {
      "inputs": [
        {
          "internalType": "uint8",
          "name": "_treeLevels",
          "type": "uint8"
        },
        {
          "internalType": "uint256",
          "name": "_leafIndex",
          "type": "uint256"
        },
        {
          "internalType": "uint256",
          "name": "_leafValue",
          "type": "uint256"
        },
        {
          "internalType": "uint256",
          "name": "_zeroValue",
          "type": "uint256"
        }
      ],
      "name": "computeOneNonZeroLeafRoot",
      "outputs": [
        {
          "internalType": "uint256",
          "name": "",
          "type": "uint256"
        }
      ],
      "stateMutability": "pure",
      "type": "function"
    },
    {
      "inputs": [],
      "name": "currentEpoch",
      "outputs": [
        {
          "internalType": "uint256",
          "name": "",
          "type": "uint256"
        }
      ],
      "stateMutability": "view",
      "type": "function"
    },
    {
      "inputs": [],
      "name": "emptyGlobalStateTreeRoot",
      "outputs": [
        {
          "internalType": "uint256",
          "name": "",
          "type": "uint256"
        }
      ],
      "stateMutability": "view",
      "type": "function"
    },
    {
      "inputs": [],
      "name": "emptyUserStateRoot",
      "outputs": [
        {
          "internalType": "uint256",
          "name": "",
          "type": "uint256"
        }
      ],
      "stateMutability": "view",
      "type": "function"
    },
    {
      "inputs": [],
      "name": "epochLength",
      "outputs": [
        {
          "internalType": "uint256",
          "name": "",
          "type": "uint256"
        }
      ],
      "stateMutability": "view",
      "type": "function"
    },
    {
      "inputs": [
        {
          "internalType": "address",
          "name": "",
          "type": "address"
        }
      ],
      "name": "epochTransitionCompensation",
      "outputs": [
        {
          "internalType": "uint256",
          "name": "",
          "type": "uint256"
        }
      ],
      "stateMutability": "view",
      "type": "function"
    },
    {
      "inputs": [
        {
          "internalType": "bytes32",
          "name": "",
          "type": "bytes32"
        }
      ],
      "name": "getProofIndex",
      "outputs": [
        {
          "internalType": "uint256",
          "name": "",
          "type": "uint256"
        }
      ],
      "stateMutability": "view",
      "type": "function"
    },
    {
      "inputs": [
        {
          "internalType": "uint256",
          "name": "",
          "type": "uint256"
        }
      ],
      "name": "hasUserSignedUp",
      "outputs": [
        {
          "internalType": "bool",
          "name": "",
          "type": "bool"
        }
      ],
      "stateMutability": "view",
      "type": "function"
    },
    {
      "inputs": [
        {
          "internalType": "uint256[5]",
          "name": "array",
          "type": "uint256[5]"
        }
      ],
      "name": "hash5",
      "outputs": [
        {
          "internalType": "uint256",
          "name": "",
          "type": "uint256"
        }
      ],
      "stateMutability": "pure",
      "type": "function"
    },
    {
      "inputs": [
        {
          "internalType": "uint256",
          "name": "airdropPosRep",
          "type": "uint256"
        }
      ],
      "name": "hashAirdroppedLeaf",
      "outputs": [
        {
          "internalType": "uint256",
          "name": "",
          "type": "uint256"
        }
      ],
      "stateMutability": "pure",
      "type": "function"
    },
    {
      "inputs": [
        {
          "components": [
            {
              "internalType": "uint256",
              "name": "globalStateTree",
              "type": "uint256"
            },
            {
              "internalType": "uint256",
              "name": "epoch",
              "type": "uint256"
            },
            {
              "internalType": "uint256",
              "name": "epochKey",
              "type": "uint256"
            },
            {
              "internalType": "uint256[8]",
              "name": "proof",
              "type": "uint256[8]"
            }
          ],
          "internalType": "struct UnirepParameters.EpochKeyProofRelated",
          "name": "epochKeyProofData",
          "type": "tuple"
        }
      ],
      "name": "hashEpochKeyProof",
      "outputs": [
        {
          "internalType": "bytes32",
          "name": "",
          "type": "bytes32"
        }
      ],
      "stateMutability": "pure",
      "type": "function"
    },
    {
      "inputs": [
        {
          "internalType": "uint256",
          "name": "_left",
          "type": "uint256"
        },
        {
          "internalType": "uint256",
          "name": "_right",
          "type": "uint256"
        }
      ],
      "name": "hashLeftRight",
      "outputs": [
        {
          "internalType": "uint256",
          "name": "",
          "type": "uint256"
        }
      ],
      "stateMutability": "pure",
      "type": "function"
    },
    {
      "inputs": [
        {
          "internalType": "uint256",
          "name": "_outputBlindedUserState",
          "type": "uint256"
        },
        {
          "internalType": "uint256",
          "name": "_outputBlindedHashChain",
          "type": "uint256"
        },
        {
          "internalType": "uint256",
          "name": "_inputBlindedUserState",
          "type": "uint256"
        },
        {
          "internalType": "uint256[8]",
          "name": "_proof",
          "type": "uint256[8]"
        }
      ],
      "name": "hashProcessAttestationsProof",
      "outputs": [
        {
          "internalType": "bytes32",
          "name": "",
          "type": "bytes32"
        }
      ],
      "stateMutability": "pure",
      "type": "function"
    },
    {
      "inputs": [
        {
          "components": [
            {
              "internalType": "uint256[]",
              "name": "repNullifiers",
              "type": "uint256[]"
            },
            {
              "internalType": "uint256",
              "name": "epoch",
              "type": "uint256"
            },
            {
              "internalType": "uint256",
              "name": "epochKey",
              "type": "uint256"
            },
            {
              "internalType": "uint256",
              "name": "globalStateTree",
              "type": "uint256"
            },
            {
              "internalType": "uint256",
              "name": "attesterId",
              "type": "uint256"
            },
            {
              "internalType": "uint256",
              "name": "proveReputationAmount",
              "type": "uint256"
            },
            {
              "internalType": "uint256",
              "name": "minRep",
              "type": "uint256"
            },
            {
              "internalType": "uint256",
              "name": "proveGraffiti",
              "type": "uint256"
            },
            {
              "internalType": "uint256",
              "name": "graffitiPreImage",
              "type": "uint256"
            },
            {
              "internalType": "uint256[8]",
              "name": "proof",
              "type": "uint256[8]"
            }
          ],
          "internalType": "struct UnirepParameters.ReputationProofRelated",
          "name": "reputationProofData",
          "type": "tuple"
        }
      ],
      "name": "hashReputationProof",
      "outputs": [
        {
          "internalType": "bytes32",
          "name": "",
          "type": "bytes32"
        }
      ],
      "stateMutability": "pure",
      "type": "function"
    },
    {
      "inputs": [
        {
          "components": [
            {
              "internalType": "uint256",
              "name": "epoch",
              "type": "uint256"
            },
            {
              "internalType": "uint256",
              "name": "epochKey",
              "type": "uint256"
            },
            {
              "internalType": "uint256",
              "name": "globalStateTree",
              "type": "uint256"
            },
            {
              "internalType": "uint256",
              "name": "attesterId",
              "type": "uint256"
            },
            {
              "internalType": "uint256[8]",
              "name": "proof",
              "type": "uint256[8]"
            }
          ],
          "internalType": "struct UnirepParameters.SignUpProofRelated",
          "name": "signUpProofData",
          "type": "tuple"
        }
      ],
      "name": "hashSignUpProof",
      "outputs": [
        {
          "internalType": "bytes32",
          "name": "",
          "type": "bytes32"
        }
      ],
      "stateMutability": "pure",
      "type": "function"
    },
    {
      "inputs": [
        {
          "internalType": "uint256",
          "name": "_blindedUserState",
          "type": "uint256"
        },
        {
          "internalType": "uint256",
          "name": "_blindedHashChain",
          "type": "uint256"
        },
        {
          "internalType": "uint256",
          "name": "_globalStateTree",
          "type": "uint256"
        },
        {
          "internalType": "uint256[8]",
          "name": "_proof",
          "type": "uint256[8]"
        }
      ],
      "name": "hashStartTransitionProof",
      "outputs": [
        {
          "internalType": "bytes32",
          "name": "",
          "type": "bytes32"
        }
      ],
      "stateMutability": "pure",
      "type": "function"
    },
    {
      "inputs": [
        {
          "components": [
            {
              "internalType": "uint256",
              "name": "identityCommitment",
              "type": "uint256"
            },
            {
              "internalType": "uint256",
              "name": "userStateRoot",
              "type": "uint256"
            }
          ],
          "internalType": "struct DomainObjs.StateLeaf",
          "name": "_stateLeaf",
          "type": "tuple"
        }
      ],
      "name": "hashStateLeaf",
      "outputs": [
        {
          "internalType": "uint256",
          "name": "",
          "type": "uint256"
        }
      ],
      "stateMutability": "pure",
      "type": "function"
    },
    {
      "inputs": [
        {
          "components": [
            {
              "internalType": "uint256",
              "name": "newGlobalStateTreeLeaf",
              "type": "uint256"
            },
            {
              "internalType": "uint256[]",
              "name": "epkNullifiers",
              "type": "uint256[]"
            },
            {
              "internalType": "uint256",
              "name": "transitionFromEpoch",
              "type": "uint256"
            },
            {
              "internalType": "uint256[]",
              "name": "blindedUserStates",
              "type": "uint256[]"
            },
            {
              "internalType": "uint256",
              "name": "fromGlobalStateTree",
              "type": "uint256"
            },
            {
              "internalType": "uint256[]",
              "name": "blindedHashChains",
              "type": "uint256[]"
            },
            {
              "internalType": "uint256",
              "name": "fromEpochTree",
              "type": "uint256"
            },
            {
              "internalType": "uint256[8]",
              "name": "proof",
              "type": "uint256[8]"
            }
          ],
          "internalType": "struct UnirepParameters.UserTransitionedRelated",
          "name": "userTransitionedData",
          "type": "tuple"
        }
      ],
      "name": "hashUserStateTransitionProof",
      "outputs": [
        {
          "internalType": "bytes32",
          "name": "",
          "type": "bytes32"
        }
      ],
      "stateMutability": "pure",
      "type": "function"
    },
    {
      "inputs": [],
      "name": "hashedBlankStateLeaf",
      "outputs": [
        {
          "internalType": "uint256",
          "name": "",
          "type": "uint256"
        }
      ],
      "stateMutability": "view",
      "type": "function"
    },
    {
      "inputs": [],
      "name": "latestEpochTransitionTime",
      "outputs": [
        {
          "internalType": "uint256",
          "name": "",
          "type": "uint256"
        }
      ],
      "stateMutability": "view",
      "type": "function"
    },
    {
      "inputs": [],
      "name": "maxAttesters",
      "outputs": [
        {
          "internalType": "uint256",
          "name": "",
          "type": "uint256"
        }
      ],
      "stateMutability": "view",
      "type": "function"
    },
    {
      "inputs": [],
      "name": "maxReputationBudget",
      "outputs": [
        {
          "internalType": "uint8",
          "name": "",
          "type": "uint8"
        }
      ],
      "stateMutability": "view",
      "type": "function"
    },
    {
      "inputs": [],
      "name": "maxUsers",
      "outputs": [
        {
          "internalType": "uint256",
          "name": "",
          "type": "uint256"
        }
      ],
      "stateMutability": "view",
      "type": "function"
    },
    {
      "inputs": [],
      "name": "nextAttesterId",
      "outputs": [
        {
          "internalType": "uint256",
          "name": "",
          "type": "uint256"
        }
      ],
      "stateMutability": "view",
      "type": "function"
    },
    {
      "inputs": [],
      "name": "numEpochKeyNoncePerEpoch",
      "outputs": [
        {
          "internalType": "uint8",
          "name": "",
          "type": "uint8"
        }
      ],
      "stateMutability": "view",
      "type": "function"
    },
    {
      "inputs": [],
      "name": "numUserSignUps",
      "outputs": [
        {
          "internalType": "uint256",
          "name": "",
          "type": "uint256"
        }
      ],
      "stateMutability": "view",
      "type": "function"
    },
    {
      "inputs": [
        {
          "internalType": "uint256",
          "name": "_outputBlindedUserState",
          "type": "uint256"
        },
        {
          "internalType": "uint256",
          "name": "_outputBlindedHashChain",
          "type": "uint256"
        },
        {
          "internalType": "uint256",
          "name": "_inputBlindedUserState",
          "type": "uint256"
        },
        {
          "internalType": "uint256[8]",
          "name": "_proof",
          "type": "uint256[8]"
        }
      ],
      "name": "processAttestations",
      "outputs": [],
      "stateMutability": "nonpayable",
      "type": "function"
    },
    {
      "inputs": [
        {
          "internalType": "uint256",
          "name": "_airdropAmount",
          "type": "uint256"
        }
      ],
      "name": "setAirdropAmount",
      "outputs": [],
      "stateMutability": "nonpayable",
      "type": "function"
    },
    {
      "inputs": [
        {
          "components": [
            {
              "internalType": "uint256[]",
              "name": "repNullifiers",
              "type": "uint256[]"
            },
            {
              "internalType": "uint256",
              "name": "epoch",
              "type": "uint256"
            },
            {
              "internalType": "uint256",
              "name": "epochKey",
              "type": "uint256"
            },
            {
              "internalType": "uint256",
              "name": "globalStateTree",
              "type": "uint256"
            },
            {
              "internalType": "uint256",
              "name": "attesterId",
              "type": "uint256"
            },
            {
              "internalType": "uint256",
              "name": "proveReputationAmount",
              "type": "uint256"
            },
            {
              "internalType": "uint256",
              "name": "minRep",
              "type": "uint256"
            },
            {
              "internalType": "uint256",
              "name": "proveGraffiti",
              "type": "uint256"
            },
            {
              "internalType": "uint256",
              "name": "graffitiPreImage",
              "type": "uint256"
            },
            {
              "internalType": "uint256[8]",
              "name": "proof",
              "type": "uint256[8]"
            }
          ],
          "internalType": "struct UnirepParameters.ReputationProofRelated",
          "name": "reputationProofData",
          "type": "tuple"
        }
      ],
      "name": "spendReputation",
      "outputs": [],
      "stateMutability": "payable",
      "type": "function"
    },
    {
      "inputs": [
        {
          "internalType": "uint256",
          "name": "_blindedUserState",
          "type": "uint256"
        },
        {
          "internalType": "uint256",
          "name": "_blindedHashChain",
          "type": "uint256"
        },
        {
          "internalType": "uint256",
          "name": "_globalStateTree",
          "type": "uint256"
        },
        {
          "internalType": "uint256[8]",
          "name": "_proof",
          "type": "uint256[8]"
        }
      ],
      "name": "startUserStateTransition",
      "outputs": [],
      "stateMutability": "nonpayable",
      "type": "function"
    },
    {
      "inputs": [
        {
          "components": [
            {
              "internalType": "uint256",
              "name": "attesterId",
              "type": "uint256"
            },
            {
              "internalType": "uint256",
              "name": "posRep",
              "type": "uint256"
            },
            {
              "internalType": "uint256",
              "name": "negRep",
              "type": "uint256"
            },
            {
              "internalType": "uint256",
              "name": "graffiti",
              "type": "uint256"
            },
            {
              "internalType": "uint256",
              "name": "signUp",
              "type": "uint256"
            }
          ],
          "internalType": "struct DomainObjs.Attestation",
          "name": "attestation",
          "type": "tuple"
        },
        {
          "internalType": "uint256",
          "name": "epochKey",
          "type": "uint256"
        },
        {
          "internalType": "uint256",
          "name": "_proofIndex",
          "type": "uint256"
        }
      ],
      "name": "submitAttestation",
      "outputs": [],
      "stateMutability": "payable",
      "type": "function"
    },
    {
      "inputs": [
        {
          "internalType": "address",
          "name": "attester",
          "type": "address"
        },
        {
          "internalType": "bytes",
          "name": "signature",
          "type": "bytes"
        },
        {
          "components": [
            {
              "internalType": "uint256",
              "name": "attesterId",
              "type": "uint256"
            },
            {
              "internalType": "uint256",
              "name": "posRep",
              "type": "uint256"
            },
            {
              "internalType": "uint256",
              "name": "negRep",
              "type": "uint256"
            },
            {
              "internalType": "uint256",
              "name": "graffiti",
              "type": "uint256"
            },
            {
              "internalType": "uint256",
              "name": "signUp",
              "type": "uint256"
            }
          ],
          "internalType": "struct DomainObjs.Attestation",
          "name": "attestation",
          "type": "tuple"
        },
        {
          "internalType": "uint256",
          "name": "epochKey",
          "type": "uint256"
        },
        {
          "internalType": "uint256",
          "name": "_proofIndex",
          "type": "uint256"
        }
      ],
      "name": "submitAttestationViaRelayer",
      "outputs": [],
      "stateMutability": "payable",
      "type": "function"
    },
    {
      "inputs": [
        {
          "components": [
            {
              "internalType": "uint256",
              "name": "globalStateTree",
              "type": "uint256"
            },
            {
              "internalType": "uint256",
              "name": "epoch",
              "type": "uint256"
            },
            {
              "internalType": "uint256",
              "name": "epochKey",
              "type": "uint256"
            },
            {
              "internalType": "uint256[8]",
              "name": "proof",
              "type": "uint256[8]"
            }
          ],
          "internalType": "struct UnirepParameters.EpochKeyProofRelated",
          "name": "epochKeyProofData",
          "type": "tuple"
        }
      ],
      "name": "submitEpochKeyProof",
      "outputs": [],
      "stateMutability": "nonpayable",
      "type": "function"
    },
    {
      "inputs": [],
      "name": "treeDepths",
      "outputs": [
        {
          "internalType": "uint8",
          "name": "globalStateTreeDepth",
          "type": "uint8"
        },
        {
          "internalType": "uint8",
          "name": "userStateTreeDepth",
          "type": "uint8"
        },
        {
          "internalType": "uint8",
          "name": "epochTreeDepth",
          "type": "uint8"
        }
      ],
      "stateMutability": "view",
      "type": "function"
    },
    {
      "inputs": [
        {
          "internalType": "uint256[8]",
          "name": "_proof",
          "type": "uint256[8]"
        }
      ],
      "name": "unpackProof",
      "outputs": [
        {
          "internalType": "uint256[2]",
          "name": "",
          "type": "uint256[2]"
        },
        {
          "internalType": "uint256[2][2]",
          "name": "",
          "type": "uint256[2][2]"
        },
        {
          "internalType": "uint256[2]",
          "name": "",
          "type": "uint256[2]"
        }
      ],
      "stateMutability": "pure",
      "type": "function"
    },
    {
      "inputs": [
        {
          "components": [
            {
              "internalType": "uint256",
              "name": "newGlobalStateTreeLeaf",
              "type": "uint256"
            },
            {
              "internalType": "uint256[]",
              "name": "epkNullifiers",
              "type": "uint256[]"
            },
            {
              "internalType": "uint256",
              "name": "transitionFromEpoch",
              "type": "uint256"
            },
            {
              "internalType": "uint256[]",
              "name": "blindedUserStates",
              "type": "uint256[]"
            },
            {
              "internalType": "uint256",
              "name": "fromGlobalStateTree",
              "type": "uint256"
            },
            {
              "internalType": "uint256[]",
              "name": "blindedHashChains",
              "type": "uint256[]"
            },
            {
              "internalType": "uint256",
              "name": "fromEpochTree",
              "type": "uint256"
            },
            {
              "internalType": "uint256[8]",
              "name": "proof",
              "type": "uint256[8]"
            }
          ],
          "internalType": "struct UnirepParameters.UserTransitionedRelated",
          "name": "userTransitionedData",
          "type": "tuple"
        },
        {
          "internalType": "uint256[]",
          "name": "proofIndexRecords",
          "type": "uint256[]"
        }
      ],
      "name": "updateUserStateRoot",
      "outputs": [],
      "stateMutability": "nonpayable",
      "type": "function"
    },
    {
      "inputs": [
        {
          "internalType": "uint256",
          "name": "_identityCommitment",
          "type": "uint256"
        }
      ],
      "name": "userSignUp",
      "outputs": [],
      "stateMutability": "nonpayable",
      "type": "function"
    },
    {
      "inputs": [
        {
          "internalType": "uint256",
          "name": "_globalStateTree",
          "type": "uint256"
        },
        {
          "internalType": "uint256",
          "name": "_epoch",
          "type": "uint256"
        },
        {
          "internalType": "uint256",
          "name": "_epochKey",
          "type": "uint256"
        },
        {
          "internalType": "uint256[8]",
          "name": "_proof",
          "type": "uint256[8]"
        }
      ],
      "name": "verifyEpochKeyValidity",
      "outputs": [
        {
          "internalType": "bool",
          "name": "",
          "type": "bool"
        }
      ],
      "stateMutability": "view",
      "type": "function"
    },
    {
      "inputs": [
        {
          "internalType": "uint256",
          "name": "_outputBlindedUserState",
          "type": "uint256"
        },
        {
          "internalType": "uint256",
          "name": "_outputBlindedHashChain",
          "type": "uint256"
        },
        {
          "internalType": "uint256",
          "name": "_inputBlindedUserState",
          "type": "uint256"
        },
        {
          "internalType": "uint256[8]",
          "name": "_proof",
          "type": "uint256[8]"
        }
      ],
      "name": "verifyProcessAttestationProof",
      "outputs": [
        {
          "internalType": "bool",
          "name": "",
          "type": "bool"
        }
      ],
      "stateMutability": "view",
      "type": "function"
    },
    {
      "inputs": [
        {
          "internalType": "uint256[]",
          "name": "_repNullifiers",
          "type": "uint256[]"
        },
        {
          "internalType": "uint256",
          "name": "_epoch",
          "type": "uint256"
        },
        {
          "internalType": "uint256",
          "name": "_epochKey",
          "type": "uint256"
        },
        {
          "internalType": "uint256",
          "name": "_globalStateTree",
          "type": "uint256"
        },
        {
          "internalType": "uint256",
          "name": "_attesterId",
          "type": "uint256"
        },
        {
          "internalType": "uint256",
          "name": "_proveReputationAmount",
          "type": "uint256"
        },
        {
          "internalType": "uint256",
          "name": "_minRep",
          "type": "uint256"
        },
        {
          "internalType": "uint256",
          "name": "_proveGraffiti",
          "type": "uint256"
        },
        {
          "internalType": "uint256",
          "name": "_graffitiPreImage",
          "type": "uint256"
        },
        {
          "internalType": "uint256[8]",
          "name": "_proof",
          "type": "uint256[8]"
        }
      ],
      "name": "verifyReputation",
      "outputs": [
        {
          "internalType": "bool",
          "name": "",
          "type": "bool"
        }
      ],
      "stateMutability": "view",
      "type": "function"
    },
    {
      "inputs": [
        {
          "internalType": "uint256",
          "name": "_blindedUserState",
          "type": "uint256"
        },
        {
          "internalType": "uint256",
          "name": "_blindedHashChain",
          "type": "uint256"
        },
        {
          "internalType": "uint256",
          "name": "_GSTRoot",
          "type": "uint256"
        },
        {
          "internalType": "uint256[8]",
          "name": "_proof",
          "type": "uint256[8]"
        }
      ],
      "name": "verifyStartTransitionProof",
      "outputs": [
        {
          "internalType": "bool",
          "name": "",
          "type": "bool"
        }
      ],
      "stateMutability": "view",
      "type": "function"
    },
    {
      "inputs": [
        {
          "internalType": "uint256",
          "name": "_epoch",
          "type": "uint256"
        },
        {
          "internalType": "uint256",
          "name": "_epochKey",
          "type": "uint256"
        },
        {
          "internalType": "uint256",
          "name": "_globalStateTree",
          "type": "uint256"
        },
        {
          "internalType": "uint256",
          "name": "_attesterId",
          "type": "uint256"
        },
        {
          "internalType": "uint256[8]",
          "name": "_proof",
          "type": "uint256[8]"
        }
      ],
      "name": "verifyUserSignUp",
      "outputs": [
        {
          "internalType": "bool",
          "name": "",
          "type": "bool"
        }
      ],
      "stateMutability": "view",
      "type": "function"
    },
    {
      "inputs": [
        {
          "internalType": "uint256",
          "name": "_newGlobalStateTreeLeaf",
          "type": "uint256"
        },
        {
          "internalType": "uint256[]",
          "name": "_epkNullifiers",
          "type": "uint256[]"
        },
        {
          "internalType": "uint256",
          "name": "_transitionFromEpoch",
          "type": "uint256"
        },
        {
          "internalType": "uint256[]",
          "name": "_blindedUserStates",
          "type": "uint256[]"
        },
        {
          "internalType": "uint256",
          "name": "_fromGlobalStateTree",
          "type": "uint256"
        },
        {
          "internalType": "uint256[]",
          "name": "_blindedHashChains",
          "type": "uint256[]"
        },
        {
          "internalType": "uint256",
          "name": "_fromEpochTree",
          "type": "uint256"
        },
        {
          "internalType": "uint256[8]",
          "name": "_proof",
          "type": "uint256[8]"
        }
      ],
      "name": "verifyUserStateTransition",
      "outputs": [
        {
          "internalType": "bool",
          "name": "",
          "type": "bool"
        }
      ],
      "stateMutability": "view",
      "type": "function"
    }
  ],
  "bytecode": "0x6101606040527f30644e72e131a029b85045b68181585d2833e84879b9709143e1f593f00000016200003361018062000762565b6040516020818303038152906040528051906020012060001c62000058919062000a56565b60005560016007556000600a556001600b5560016011553480156200007c57600080fd5b5060405162005eeb38038062005eeb8339810160408190526200009f916200061f565b8b601360008201518160000160006101000a81548160ff021916908360ff16021790555060208201518160000160016101000a81548160ff021916908360ff16021790555060408201518160000160026101000a81548160ff021916908360ff16021790555090505089600160006101000a8154816001600160a01b0302191690836001600160a01b0316021790555088600260006101000a8154816001600160a01b0302191690836001600160a01b0316021790555087600360006101000a8154816001600160a01b0302191690836001600160a01b0316021790555086600460006101000a8154816001600160a01b0302191690836001600160a01b0316021790555085600560006101000a8154816001600160a01b0302191690836001600160a01b0316021790555084600660006101000a8154816001600160a01b0302191690836001600160a01b031602179055508360ff1660c08160ff1660f81b815250508260ff1660e08160ff1660f81b81525050816080818152505042600881905550600060018d6000015160026200023a919062000921565b62000246919062000a19565b9050808c600001511115620002785760405162461bcd60e51b81526004016200026f9062000823565b60405180910390fd5b8b516101005260208d01516000906001906200029690600262000921565b620002a2919062000a19565b9050808d602001511115620002cb5760405162461bcd60e51b81526004016200026f906200085a565b6020808e0151610120528e0151620002e3906200030e565b6009558d51620002f39062000390565b60a0525050610140525062000a8d9950505050505050505050565b60006200031a62000585565b60005b60058160ff1610156200036a576000828260ff16600581106200035057634e487b7160e01b600052603260045260246000fd5b602002015280620003618162000a33565b9150506200031d565b5060006200037882620003b4565b90506200038684826200044a565b925050505b919050565b604080518082019091526000808252600954602083015290816200037882620004d2565b604051630926f44b60e31b815260009073__$223301b175b06473d424a7afc957d4e96c$__90634937a25890620003f0908590600401620007a7565b60206040518083038186803b1580156200040957600080fd5b505af41580156200041e573d6000803e3d6000fd5b505050506040513d601f19601f8201168201806040525081019062000444919062000749565b92915050565b6000808360ff161180156200046457506101008360ff1611155b620004835760405162461bcd60e51b81526004016200026f90620007d1565b8160015b8460ff168160ff161015620004bd576000620004a48380620004e2565b9250819050620004b48162000a33565b91505062000487565b50620004ca8180620004e2565b949350505050565b8051602082015160009162000444915b6000620004ee620005a3565b838152602081018390526040516314d2f97b60e11b815273__$86e0c54df1042e28bf2dd20ccf184dc428$__906329a5f2f6906200053190849060040162000774565b60206040518083038186803b1580156200054a57600080fd5b505af41580156200055f573d6000803e3d6000fd5b505050506040513d601f19601f82011682018060405250810190620004ca919062000749565b6040518060a001604052806005906020820280368337509192915050565b60405180604001604052806002906020820280368337509192915050565b80516001600160a01b03811681146200038b57600080fd5b600060408284031215620005eb578081fd5b620005f760406200089c565b9050815181526020820151602082015292915050565b805160ff811681146200038b57600080fd5b6000806000806000806000806000806000808c8e036101e081121562000643578889fd5b606081121562000651578889fd5b506200065e60606200089c565b620006698e6200060d565b81526200067960208f016200060d565b60208201526200068c60408f016200060d565b60408201529b50620006a28e60608f01620005d9565b9a50620006b260a08e01620005c1565b9950620006c260c08e01620005c1565b9850620006d260e08e01620005c1565b9750620006e36101008e01620005c1565b9650620006f46101208e01620005c1565b9550620007056101408e01620005c1565b9450620007166101608e016200060d565b9350620007276101808e016200060d565b92506101a08d015191506101c08d015190509295989b509295989b509295989b565b6000602082840312156200075b578081fd5b5051919050565b650556e697265760d41b815260060190565b60408101818360005b60028110156200079e5781518352602092830192909101906001016200077d565b50505092915050565b60a08101818360005b60058110156200079e578151835260209283019290910190600101620007b0565b60208082526032908201527f436f6d70757465526f6f743a205f747265654c6576656c73206d757374206265604082015271103132ba3bb2b2b710181030b73210191a9b60711b606082015260800190565b6020808252601e908201527f556e697265703a20696e76616c6964206d617855736572732076616c75650000604082015260600190565b60208082526022908201527f556e697265703a20696e76616c6964206d61784174746573746572732076616c604082015261756560f01b606082015260800190565b6040518181016001600160401b0381118282101715620008cc57634e487b7160e01b600052604160045260246000fd5b604052919050565b80825b6001808611620008e8575062000918565b818704821115620008fd57620008fd62000a77565b808616156200090b57918102915b9490941c938002620008d7565b94509492505050565b60006200093560001960ff8516846200093c565b9392505050565b6000826200094d5750600162000935565b816200095c5750600062000935565b81600181146200097557600281146200098057620009b4565b600191505062000935565b60ff84111562000994576200099462000a77565b6001841b915084821115620009ad57620009ad62000a77565b5062000935565b5060208310610133831016604e8410600b8410161715620009ec575081810a83811115620009e657620009e662000a77565b62000935565b620009fb8484846001620008d4565b80860482111562000a105762000a1062000a77565b02949350505050565b60008282101562000a2e5762000a2e62000a77565b500390565b600060ff821660ff81141562000a4d5762000a4d62000a77565b60010192915050565b60008262000a7257634e487b7160e01b81526012600452602481fd5b500690565b634e487b7160e01b600052601160045260246000fd5b60805160a05160c05160f81c60e05160f81c61010051610120516101405161533262000bb960003960008181610a3701528181610c3801528181611d6001528181611ffe015261213c015260008181611994015281816122060152612f41015260008181611320015261288d015260008181610db101528181610e4c01528181610e9e01528181610ef701528181610f5001528181610fa9015281816110020152818161105b015281816110b401528181611da4015261274e015260008181611780015281816117ec015281816125d9015281816128d60152818161298e01528181612a3801528181612ab601528181612b3901528181612b9701528181612bef01528181612c490152612cc4015260006123d10152600081816119fe015261278f01526153326000f3fe60806040526004361061034f5760003560e01c80639109d1eb116101c6578063b530dc8c116100f7578063e79e23e911610095578063f5ab0dd61161006f578063f5ab0dd6146108fb578063f73c8ebb1461092a578063fadd942d1461094a578063fc14478a1461095f5761034f565b8063e79e23e9146108a6578063e87101b1146108c6578063f20ca7ff146108db5761034f565b8063c6e01232116100d1578063c6e0123214610847578063d3aa645b1461085c578063de7238861461087c578063e1b0e802146108915761034f565b8063b530dc8c146107f2578063b876ed7114610812578063c2639673146108325761034f565b8063a3836b2011610164578063a7c264ca1161013e578063a7c264ca14610777578063a7ebaa7514610799578063ac98e5df146107ae578063ad944e47146107d25761034f565b8063a3836b2014610722578063a5500c3014610737578063a710d60f146107575761034f565b80639cfced97116101a05780639cfced97146106ad5780639e2e79dc146106cd578063a14a9fe2146106ed578063a27e572a1461070d5761034f565b80639109d1eb14610663578063918f0c161461067857806398588c1f1461068d5761034f565b8063494e2171116102a057806366c0f31f1161023e57806376671808116102185780637667180814610606578063839beeb81461061b57806383e168ad1461063057806385c053ae146106505761034f565b806366c0f31f146105b1578063705edd39146105d15780637341ead9146105e65761034f565b806357d775f81161027a57806357d775f8146105495780635b3745b51461055e5780635bb939951461057e578063606736fb1461059e5761034f565b8063494e2171146104f45780634edc9ace1461051457806356df4634146105345761034f565b80632b95f97e1161030d5780633acce985116102e75780633acce98514610474578063417b16e31461049457806343193437146104b4578063436b32d8146104d45761034f565b80632b95f97e146104215780632c6eb17f146104415780633334dc5b146104545761034f565b806292ad661461035457806305d9ab821461036957806307d833081461039f578063131a91ad146103b4578063132331f2146103d45780631c89e8e8146103f4575b600080fd5b610367610362366004613a3b565b61097f565b005b34801561037557600080fd5b50610389610384366004613cbe565b610af1565b60405161039691906144ad565b60405180910390f35b3480156103ab57600080fd5b50610389610b38565b3480156103c057600080fd5b506103896103cf3660046139d1565b610b3e565b3480156103e057600080fd5b506103896103ef366004613c05565b610b50565b34801561040057600080fd5b5061041461040f366004613c05565b610b62565b60405161039691906144a2565b34801561042d57600080fd5b5061038961043c366004613c05565b610b77565b61036761044f366004613dfe565b610b9e565b34801561046057600080fd5b5061041461046f366004613b44565b610d84565b34801561048057600080fd5b5061038961048f366004614028565b611269565b3480156104a057600080fd5b506103676104af366004613c05565b6112ef565b3480156104c057600080fd5b506103896104cf366004613dfe565b6114ba565b3480156104e057600080fd5b506104146104ef3660046140be565b6114e5565b34801561050057600080fd5b5061036761050f366004613ef1565b61171f565b34801561052057600080fd5b5061038961052f366004614108565b6118f1565b34801561054057600080fd5b50610367611965565b34801561055557600080fd5b506103896119fc565b34801561056a57600080fd5b50610414610579366004614049565b611a20565b34801561058a57600080fd5b50610389610599366004614028565b611c2b565b6103676105ac366004613d28565b611cc6565b3480156105bd57600080fd5b506103676105cc366004613cbe565b611eec565b3480156105dd57600080fd5b50610389611fbb565b3480156105f257600080fd5b50610389610601366004613e72565b611fe2565b34801561061257600080fd5b50610389611ff6565b34801561062757600080fd5b50610389611ffc565b34801561063c57600080fd5b5061038961064b366004614131565b612020565b61036761065e366004613c1d565b6120df565b34801561066f57600080fd5b506103896121c2565b34801561068457600080fd5b506103896121c8565b34801561069957600080fd5b506103676106a83660046139eb565b6121ce565b3480156106b957600080fd5b506103896106c8366004613ab2565b6122b0565b3480156106d957600080fd5b506103896106e8366004614089565b61233a565b3480156106f957600080fd5b50610389610708366004613ebf565b612373565b34801561071957600080fd5b506103676123ad565b34801561072e57600080fd5b506103896123cf565b34801561074357600080fd5b50610367610752366004613c05565b6123f3565b34801561076357600080fd5b50610414610772366004614049565b612431565b34801561078357600080fd5b5061078c6125d7565b6040516103969190615127565b3480156107a557600080fd5b506103676125fb565b3480156107ba57600080fd5b506107c3612610565b60405161039693929190615135565b3480156107de57600080fd5b506103896107ed366004613d28565b61262c565b3480156107fe57600080fd5b5061038961080d3660046139d1565b612672565b34801561081e57600080fd5b5061036761082d366004614049565b612684565b34801561083e57600080fd5b5061078c61274c565b34801561085357600080fd5b50610389612770565b34801561086857600080fd5b506103896108773660046139d1565b612776565b34801561088857600080fd5b50610367612788565b34801561089d57600080fd5b5061038961288b565b3480156108b257600080fd5b506103896108c1366004614049565b6128af565b3480156108d257600080fd5b506103896128c8565b3480156108e757600080fd5b506104146108f6366004613f69565b6128ce565b34801561090757600080fd5b5061091b610916366004613b28565b612e16565b6040516103969392919061440a565b34801561093657600080fd5b50610367610945366004614049565b612e9f565b34801561095657600080fd5b50610389612f3f565b34801561096b57600080fd5b5061041461097a366004614049565b612f63565b6109bf8686868080601f01602080910402602001604051908101604052809392919081815260200183838082843760009201919091525061310992505050565b6001600160a01b0386166000908152601060205260409020546109fd5760405162461bcd60e51b81526004016109f490614791565b60405180910390fd5b6001600160a01b038616600090815260106020526040902054833514610a355760405162461bcd60e51b81526004016109f490614d97565b7f00000000000000000000000000000000000000000000000000000000000000003414610a745760405162461bcd60e51b81526004016109f490614860565b600b548110610a955760405162461bcd60e51b81526004016109f490614cf0565b600e54610aa29034613196565b600e55610ae986610ab836869003860186613c50565b84846040518060400160405280601181526020017039bab136b4ba20ba3a32b9ba30ba34b7b760791b8152506131a9565b505050505050565b60008160000151826020015183604001518460600151604051602001610b1a949392919061437c565b6040516020818303038152906040528051906020012090505b919050565b600e5481565b60106020526000908152604090205481565b600c6020526000908152604090205481565b600d6020526000908152604090205460ff1681565b6000610b81613667565b828152600160608201819052610b96826122b0565b949350505050565b6000610ba9826114ba565b6000818152600c602052604090205490915015610bd85760405162461bcd60e51b81526004016109f4906145e0565b33600090815260106020526040902054610c045760405162461bcd60e51b81526004016109f490614791565b60608201513360009081526010602052604090205414610c365760405162461bcd60e51b81526004016109f490614d97565b7f00000000000000000000000000000000000000000000000000000000000000003414610c755760405162461bcd60e51b81526004016109f490614860565b600754825114610c975760405162461bcd60e51b81526004016109f4906146a6565b600e54610ca49034613196565b600e55610caf613685565b3360008181526010602090815260408083205485529282526012815290829020548382015260016080840152600b549085015160075492519192909183907f5f26e605daad5b18d4eda34ec286075f09d71741dd2d0edfe54bd3a13501b0c490610d1a908990614fd1565b60405180910390a4610d5a33838660200151846040518060400160405280600f81526020016e61697264726f7045706f63684b657960881b8152506131a9565b6000838152600c60205260408120829055600b805491610d798361522b565b919050555050505050565b6040805160128082526102608201909252600091829190602082016102408036833701905050905060005b7f000000000000000000000000000000000000000000000000000000000000000060ff168160ff161015610e47578d8d8260ff16818110610e0057634e487b7160e01b600052603260045260246000fd5b90506020020135828260ff1681518110610e2a57634e487b7160e01b600052603260045260246000fd5b602090810291909101015280610e3f81615246565b915050610daf565b508a817f000000000000000000000000000000000000000000000000000000000000000060ff1681518110610e8c57634e487b7160e01b600052603260045260246000fd5b60209081029190910101528981610ec47f00000000000000000000000000000000000000000000000000000000000000006001615193565b60ff1681518110610ee557634e487b7160e01b600052603260045260246000fd5b60209081029190910101528881610f1d7f00000000000000000000000000000000000000000000000000000000000000006002615193565b60ff1681518110610f3e57634e487b7160e01b600052603260045260246000fd5b60209081029190910101528781610f767f00000000000000000000000000000000000000000000000000000000000000006003615193565b60ff1681518110610f9757634e487b7160e01b600052603260045260246000fd5b60209081029190910101528681610fcf7f00000000000000000000000000000000000000000000000000000000000000006004615193565b60ff1681518110610ff057634e487b7160e01b600052603260045260246000fd5b602090810291909101015285816110287f00000000000000000000000000000000000000000000000000000000000000006005615193565b60ff168151811061104957634e487b7160e01b600052603260045260246000fd5b602090810291909101015284816110817f00000000000000000000000000000000000000000000000000000000000000006006615193565b60ff16815181106110a257634e487b7160e01b600052603260045260246000fd5b602090810291909101015283816110da7f00000000000000000000000000000000000000000000000000000000000000006007615193565b60ff16815181106110fb57634e487b7160e01b600052603260045260246000fd5b60200260200101818152505060005b81518160ff16101561117f576000805160206152bd833981519152828260ff168151811061114857634e487b7160e01b600052603260045260246000fd5b60200260200101511061116d5760405162461bcd60e51b81526004016109f490614dce565b8061117781615246565b91505061110a565b506111886136b4565b604080516101008181019092526111b79186906008908390839080828437600092019190915250612e16915050565b60408085018290526020850183905283855260055490516361971b8760e11b81526001600160a01b039091169363c32e370e936111fd9391929091908890600401614433565b60206040518083038186803b15801561121557600080fd5b505afa158015611229573d6000803e3d6000fd5b505050506040513d601f19601f8201168201806040525081019061124d9190613be5565b151560609091018190529150509b9a5050505050505050505050565b6000611273613667565b60005b60058160ff1610156112be576000828260ff16600581106112a757634e487b7160e01b600052603260045260246000fd5b6020020152806112b681615246565b915050611276565b5060006112ca826122b0565b6013549091506112e490610100900460ff16868684612020565b925050505b92915050565b6000818152600d602052604090205460ff161561131e5760405162461bcd60e51b81526004016109f490614c5c565b7f0000000000000000000000000000000000000000000000000000000000000000600a541061135f5760405162461bcd60e51b81526004016109f490614ca2565b60095433600090815260106020908152604080832054601290925290912054811580159061138d5750600081115b156113ad57600061139d82610b77565b90506113a98382611269565b9350505b604080518082019091528481526020810184905260006113cc82611fe2565b6000878152600d60205260408120805460ff19166001179055600a8054929350906113f68361522b565b91905055506007546000805160206152dd833981519152604051611419906149fc565b60405180910390a2600b547fbdcb306569af4b00571f0633c2439c458084e1beac220a28ea9678a2f01ca1e287868660405161145793929190615111565b60405180910390a26007547f9d6db97120dc5c5f0a16903f507cbe1b12cb72d2c8d70511a607e36c407f357082600b546040516114959291906150df565b60405180910390a2600b80549060006114ad8361522b565b9190505550505050505050565b8051602080830151604080850151606086015160808701519251600096610b1a9690959491016143a7565b60408051600480825260a0820190925260009182919060208201608080368337019050509050868160008151811061152d57634e487b7160e01b600052603260045260246000fd5b602002602001018181525050858160018151811061155b57634e487b7160e01b600052603260045260246000fd5b602002602001018181525050848160028151811061158957634e487b7160e01b600052603260045260246000fd5b60200260200101818152505083816003815181106115b757634e487b7160e01b600052603260045260246000fd5b60200260200101818152505060005b81518160ff16101561163b576000805160206152bd833981519152828260ff168151811061160457634e487b7160e01b600052603260045260246000fd5b6020026020010151106116295760405162461bcd60e51b81526004016109f490614dce565b8061163381615246565b9150506115c6565b506116446136b4565b604080516101008181019092526116739186906008908390839080828437600092019190915250612e16915050565b60408085018290526020850183905283855260065490516361971b8760e11b81526001600160a01b039091169363c32e370e936116b99391929091908890600401614433565b60206040518083038186803b1580156116d157600080fd5b505afa1580156116e5573d6000803e3d6000fd5b505050506040513d601f19601f820116820180604052508101906117099190613be5565b1515606090910181905291505095945050505050565b600061172a83612373565b6000818152600c6020526040902054909150156117595760405162461bcd60e51b81526004016109f4906145e0565b60075483604001511061177e5760405162461bcd60e51b81526004016109f490614acd565b7f000000000000000000000000000000000000000000000000000000000000000060ff16836020015151146117c55760405162461bcd60e51b81526004016109f490614e2b565b8260600151516002146117ea5760405162461bcd60e51b81526004016109f4906146fa565b7f000000000000000000000000000000000000000000000000000000000000000060ff168360a0015151146118315760405162461bcd60e51b81526004016109f490614b8b565b600b546007546040516000805160206152dd83398151915290611853906149fc565b60405180910390a2807fa3d7129bf8db65e6f71041b8077847055075a4ea01972b05cd7a2794b812fd59858560405161188d92919061500e565b60405180910390a260075484516040517f9d6db97120dc5c5f0a16903f507cbe1b12cb72d2c8d70511a607e36c407f3570916118ca9185906150df565b60405180910390a26000828152600c60205260408120829055600b805491610d798361522b565b6000808360ff1611801561190a57506101008360ff1611155b6119265760405162461bcd60e51b81526004016109f49061480e565b8160015b8460ff168160ff16101561195a5760006119448384611c2b565b925081905061195281615246565b91505061192a565b50610b968182611c2b565b33600090815260106020526040902054156119925760405162461bcd60e51b81526004016109f49061459a565b7f0000000000000000000000000000000000000000000000000000000000000000601154106119d35760405162461bcd60e51b81526004016109f490614b39565b601180543360009081526010602052604081208290559091906119f58361522b565b9190505550565b7f000000000000000000000000000000000000000000000000000000000000000081565b60408051600380825260808201909252600091829190602082016060803683370190505090508581600081518110611a6857634e487b7160e01b600052603260045260246000fd5b6020026020010181815250508481600181518110611a9657634e487b7160e01b600052603260045260246000fd5b6020026020010181815250508381600281518110611ac457634e487b7160e01b600052603260045260246000fd5b60200260200101818152505060005b81518160ff161015611b48576000805160206152bd833981519152828260ff1681518110611b1157634e487b7160e01b600052603260045260246000fd5b602002602001015110611b365760405162461bcd60e51b81526004016109f490614dce565b80611b4081615246565b915050611ad3565b50611b516136b4565b60408051610100818101909252611b809186906008908390839080828437600092019190915250612e16915050565b60408085018290526020850183905283855260025490516361971b8760e11b81526001600160a01b039091169363c32e370e93611bc69391929091908890600401614433565b60206040518083038186803b158015611bde57600080fd5b505afa158015611bf2573d6000803e3d6000fd5b505050506040513d601f19601f82011682018060405250810190611c169190613be5565b15156060909101819052915050949350505050565b6000611c356136ee565b838152602081018390526040516314d2f97b60e11b815273__$86e0c54df1042e28bf2dd20ccf184dc428$__906329a5f2f690611c769084906004016143d9565b60206040518083038186803b158015611c8e57600080fd5b505af4158015611ca2573d6000803e3d6000fd5b505050506040513d601f19601f82011682018060405250810190610b969190613f51565b6000611cd18261262c565b6000818152600c602052604090205490915015611d005760405162461bcd60e51b81526004016109f4906145e0565b33600090815260106020526040902054611d2c5760405162461bcd60e51b81526004016109f490614791565b60808201513360009081526010602052604090205414611d5e5760405162461bcd60e51b81526004016109f490614d97565b7f00000000000000000000000000000000000000000000000000000000000000003414611d9d5760405162461bcd60e51b81526004016109f490614860565b81515160ff7f00000000000000000000000000000000000000000000000000000000000000001614611de15760405162461bcd60e51b81526004016109f490614a28565b600754826020015114611e065760405162461bcd60e51b81526004016109f4906148d0565b60808201513360009081526010602052604090205414611e385760405162461bcd60e51b81526004016109f490614e73565b600e54611e459034613196565b600e55611e50613685565b336000908152601060205260409081902054825260a084015182820152600b548482015160075492519192909183907f6f4fad105d3b85f479e2759c478e3421a03542bca611355cc4fe1c05f2e709fd90611eac908990614f44565b60405180910390a4610d5a33838660400151846040518060400160405280600f81526020016e39b832b7322932b83aba30ba34b7b760891b8152506131a9565b6000611ef782610af1565b6000818152600c602052604090205490915015611f265760405162461bcd60e51b81526004016109f4906145e0565b600754826020015114611f4b5760405162461bcd60e51b81526004016109f490614a77565b6000600b5490508260400151600754827f95ee0c01db4292223c6ea48c378c571eb2c446947033fa510deed7b124621ca286604051611f8a9190614f0a565b60405180910390a46000828152600c60205260408120829055600b805491611fb18361522b565b9190505550505050565b604080518082019091526000808252600954602083015290611fdc81611fe2565b91505090565b60006112e982600001518360200151611c2b565b60075481565b7f000000000000000000000000000000000000000000000000000000000000000081565b6000808560ff1611801561203957506101008560ff1611155b6120555760405162461bcd60e51b81526004016109f49061480e565b82828560015b612066896001615193565b60ff168160ff1610156120d257600061207f8485611c2b565b905061208c600284615266565b6120a15761209a8585611c2b565b94506120ae565b6120ab8486611c2b565b94505b9250826120bc6002846151b8565b92505080806120ca90615246565b91505061205b565b5091979650505050505050565b3360009081526010602052604090205461210b5760405162461bcd60e51b81526004016109f490614791565b3360009081526010602052604090205483351461213a5760405162461bcd60e51b81526004016109f490614d97565b7f000000000000000000000000000000000000000000000000000000000000000034146121795760405162461bcd60e51b81526004016109f490614860565b600b54811061219a5760405162461bcd60e51b81526004016109f490614cf0565b600e546121a79034613196565b600e556121bd33610ab836869003860186613c50565b505050565b60115481565b600a5481565b6001600160a01b038316600090815260106020526040902054156122045760405162461bcd60e51b81526004016109f49061459a565b7f0000000000000000000000000000000000000000000000000000000000000000601154106122455760405162461bcd60e51b81526004016109f490614b39565b6122858383838080601f01602080910402602001604051908101604052809392919081815260200183838082843760009201919091525061310992505050565b601180546001600160a01b0385166000908152601060205260408120829055909190611fb18361522b565b604051630926f44b60e31b815260009073__$223301b175b06473d424a7afc957d4e96c$__90634937a258906122ea90859060040161447a565b60206040518083038186803b15801561230257600080fd5b505af4158015612316573d6000803e3d6000fd5b505050506040513d601f19601f820116820180604052508101906112e99190613f51565b600084848484604051602001612353949392919061437c565b604051602081830303815290604052805190602001209050949350505050565b80516020808301516040808501516060860151608087015160a088015160c089015160e08a01519551600099610b1a9990989791016142f8565b336000818152600f602052604081208054919055906123cc90826132e3565b50565b7f000000000000000000000000000000000000000000000000000000000000000081565b3360009081526010602052604090205461241f5760405162461bcd60e51b81526004016109f490614791565b33600090815260126020526040902055565b6040805160038082526080820190925260009182919060208201606080368337019050509050858160008151811061247957634e487b7160e01b600052603260045260246000fd5b60200260200101818152505084816001815181106124a757634e487b7160e01b600052603260045260246000fd5b60200260200101818152505083816002815181106124d557634e487b7160e01b600052603260045260246000fd5b60200260200101818152505060005b81518160ff161015612559576000805160206152bd833981519152828260ff168151811061252257634e487b7160e01b600052603260045260246000fd5b6020026020010151106125475760405162461bcd60e51b81526004016109f490614dce565b8061255181615246565b9150506124e4565b506125626136b4565b604080516101008181019092526125919186906008908390839080828437600092019190915250612e16915050565b60408085018290526020850183905283855260035490516361971b8760e11b81526001600160a01b039091169363c32e370e93611bc69391929091908890600401614433565b7f000000000000000000000000000000000000000000000000000000000000000081565b600e8054600091829055906123cc90826132e3565b60135460ff808216916101008104821691620100009091041683565b80516020808301516040808501516060860151608087015160a088015160c089015160e08a01516101008b01516101208c0151975160009b610b1a9b909a999101614269565b60126020526000908152604090205481565b60006126bb85858585600880602002604051908101604052809291908260086020028082843760009201919091525061233a915050565b6000818152600c6020526040902054909150156126ea5760405162461bcd60e51b81526004016109f4906145e0565b6000600b5490508386827f803e193545a0bbe98aa31b4b343e2d224f05453a10cef7f58c6d2408512a5e3b88876040516127259291906150c3565b60405180910390a46000828152600c60205260408120829055600b8054916114ad8361522b565b7f000000000000000000000000000000000000000000000000000000000000000081565b60095481565b600f6020526000908152604090205481565b60005a90507f0000000000000000000000000000000000000000000000000000000000000000600854426127bc9190615214565b10156127da5760405162461bcd60e51b81526004016109f4906147d7565b6007546000805160206152dd8339815191526040516127f8906148ac565b60405180910390a26007546040517f751bb1ba7b27b3979a32844d4d05aa16a46a771b751593704834a80311e3a9b990600090a242600855600780549060006128408361522b565b919050555060006128525a839061337f565b9050612877612861823a61338b565b336000908152600f602052604090205490613196565b336000908152600f60205260409020555050565b7f000000000000000000000000000000000000000000000000000000000000000081565b6000848484846040516020016123539493929190614350565b60085481565b6000806128fc7f000000000000000000000000000000000000000000000000000000000000000060026151eb565b612907906006615193565b60ff166001600160401b0381111561292f57634e487b7160e01b600052604160045260246000fd5b604051908082528060200260200182016040528015612958578160200160208202803683370190505b5090508c8160008151811061297d57634e487b7160e01b600052603260045260246000fd5b60200260200101818152505060005b7f000000000000000000000000000000000000000000000000000000000000000060ff168160ff161015612a30578c8c8260ff168181106129dd57634e487b7160e01b600052603260045260246000fd5b90506020020135828260016129f29190615193565b60ff1681518110612a1357634e487b7160e01b600052603260045260246000fd5b602090810291909101015280612a2881615246565b91505061298c565b508981612a5e7f00000000000000000000000000000000000000000000000000000000000000006001615193565b60ff1681518110612a7f57634e487b7160e01b600052603260045260246000fd5b60200260200101818152505088886000818110612aac57634e487b7160e01b600052603260045260246000fd5b90506020020135817f00000000000000000000000000000000000000000000000000000000000000006002612ae19190615193565b60ff1681518110612b0257634e487b7160e01b600052603260045260246000fd5b60200260200101818152505088886001818110612b2f57634e487b7160e01b600052603260045260246000fd5b90506020020135817f00000000000000000000000000000000000000000000000000000000000000006003612b649190615193565b60ff1681518110612b8557634e487b7160e01b600052603260045260246000fd5b60209081029190910101528681612bbd7f00000000000000000000000000000000000000000000000000000000000000006004615193565b60ff1681518110612bde57634e487b7160e01b600052603260045260246000fd5b60200260200101818152505060005b7f000000000000000000000000000000000000000000000000000000000000000060ff168160ff161015612cbc5786868260ff16818110612c3e57634e487b7160e01b600052603260045260246000fd5b9050602002013582827f00000000000000000000000000000000000000000000000000000000000000006005612c749190615193565b612c7e9190615193565b60ff1681518110612c9f57634e487b7160e01b600052603260045260246000fd5b602090810291909101015280612cb481615246565b915050612bed565b508381612cea7f000000000000000000000000000000000000000000000000000000000000000060026151eb565b612cf5906005615193565b60ff1681518110612d1657634e487b7160e01b600052603260045260246000fd5b60200260200101818152505060005b81518160ff161015612d9a576000805160206152bd833981519152828260ff1681518110612d6357634e487b7160e01b600052603260045260246000fd5b602002602001015110612d885760405162461bcd60e51b81526004016109f490614dce565b80612d9281615246565b915050612d25565b50612da36136b4565b60408051610100818101909252612dd29186906008908390839080828437600092019190915250612e16915050565b6040808501829052602085018390528385526004805491516361971b8760e11b81526001600160a01b039092169463c32e370e946111fd9491939092899101614433565b612e1e6136ee565b612e2661370c565b612e2e6136ee565b50506040805180820182528351815260208085015181830152825160808082018552868501518286019081526060808901519084015282528451808601865290870151815260a08701518184015281830152835180850190945260c0860151845260e0909501519083015293909150565b6000612ead858585856128af565b6000818152600c602052604090205490915015612edc5760405162461bcd60e51b81526004016109f4906145e0565b6000600b54905083817ffe2e4029d257513b42218bbe50c55666829722b6f10335bfb0ba2d7cc792fa8c888887604051612f18939291906150ed565b60405180910390a36000828152600c60205260408120829055600b8054916114ad8361522b565b7f000000000000000000000000000000000000000000000000000000000000000081565b60408051600380825260808201909252600091829190602082016060803683370190505090508581600081518110612fab57634e487b7160e01b600052603260045260246000fd5b6020026020010181815250508481600181518110612fd957634e487b7160e01b600052603260045260246000fd5b602002602001018181525050838160028151811061300757634e487b7160e01b600052603260045260246000fd5b60200260200101818152505060005b81518160ff16101561308b576000805160206152bd833981519152828260ff168151811061305457634e487b7160e01b600052603260045260246000fd5b6020026020010151106130795760405162461bcd60e51b81526004016109f490614dce565b8061308381615246565b915050613016565b506130946136b4565b604080516101008181019092526130c39186906008908390839080828437600092019190915250612e16915050565b60408085018290526020850183905283855260015490516361971b8760e11b81526001600160a01b039091169363c32e370e93611bc69391929091908890600401614433565b6000823060405160200161311e929190614242565b6040516020818303038152906040528051906020012060405160200161314491906142c4565b604051602081830303815290604052805190602001209050826001600160a01b03166131708284613397565b6001600160a01b0316146121bd5760405162461bcd60e51b81526004016109f490614747565b60006131a2828461517b565b9392505050565b6000805160206152bd8339815191528460200151106131da5760405162461bcd60e51b81526004016109f490614bd8565b6000805160206152bd83398151915284604001511061320b5760405162461bcd60e51b81526004016109f490614d55565b6000805160206152bd83398151915284606001511061323c5760405162461bcd60e51b81526004016109f490614662565b83608001516001148061325157506080840151155b61326d5760405162461bcd60e51b81526004016109f490614ec8565b6007546000805160206152dd83398151915260405161328b90614d27565b60405180910390a2846001600160a01b0316836007547f56e4381873134418db6b4b8819233607063df79c3e5f93378b45919e8ce3d4778488876040516132d4939291906144d4565b60405180910390a45050505050565b804710156133035760405162461bcd60e51b81526004016109f4906149c5565b6000826001600160a01b03168260405161331c906142f5565b60006040518083038185875af1925050503d8060008114613359576040519150601f19603f3d011682016040523d82523d6000602084013e61335e565b606091505b50509050806121bd5760405162461bcd60e51b81526004016109f490614926565b60006131a28284615214565b60006131a282846151cc565b60008060006133a685856133bb565b915091506133b38161342b565b509392505050565b6000808251604114156133f25760208301516040840151606085015160001a6133e687828585613558565b94509450505050613424565b82516040141561341c5760208301516040840151613411868383613638565b935093505050613424565b506000905060025b9250929050565b600081600481111561344d57634e487b7160e01b600052602160045260246000fd5b1415613458576123cc565b600181600481111561347a57634e487b7160e01b600052602160045260246000fd5b14156134985760405162461bcd60e51b81526004016109f490614563565b60028160048111156134ba57634e487b7160e01b600052602160045260246000fd5b14156134d85760405162461bcd60e51b81526004016109f49061462b565b60038160048111156134fa57634e487b7160e01b600052602160045260246000fd5b14156135185760405162461bcd60e51b81526004016109f490614983565b600481600481111561353a57634e487b7160e01b600052602160045260246000fd5b14156123cc5760405162461bcd60e51b81526004016109f490614c1a565b6000807f7fffffffffffffffffffffffffffffff5d576e7357a4501ddfe92f46681b20a083111561358f575060009050600361362f565b8460ff16601b141580156135a757508460ff16601c14155b156135b8575060009050600461362f565b6000600187878787604051600081526020016040526040516135dd94939291906144b6565b6020604051602081039080840390855afa1580156135ff573d6000803e3d6000fd5b5050604051601f1901519150506001600160a01b0381166136285760006001925092505061362f565b9150600090505b94509492505050565b6000806001600160ff1b03831660ff84901c601b0161365987828885613558565b935093505050935093915050565b6040518060a001604052806005906020820280368337509192915050565b6040518060a0016040528060008152602001600081526020016000815260200160008152602001600081525090565b60405180608001604052806136c76136ee565b81526020016136d461370c565b81526020016136e16136ee565b8152600060209091015290565b60405180604001604052806002906020820280368337509192915050565b60405180604001604052806002905b6137236136ee565b81526020019060019003908161371b5790505090565b80356001600160a01b0381168114610b3357600080fd5b8061010081018310156112e957600080fd5b600082601f830112613772578081fd5b6040516101008082018281106001600160401b0382111715613796576137966152a6565b60405281848281018710156137a9578485fd5b8492505b60088310156137cd578035825260019290920191602091820191016137ad565b509195945050505050565b60008083601f8401126137e9578182fd5b5081356001600160401b038111156137ff578182fd5b602083019150836020808302850101111561342457600080fd5b600082601f830112613829578081fd5b813560206001600160401b03821115613844576138446152a6565b808202613852828201615152565b83815282810190868401838801850189101561386c578687fd5b8693505b8584101561388e578035835260019390930192918401918401613870565b50979650505050505050565b60008083601f8401126138ab578182fd5b5081356001600160401b038111156138c1578182fd5b60208301915083602082850101111561342457600080fd5b600060a082840312156138ea578081fd5b50919050565b60006101e08284031215613902578081fd5b61390d610100615152565b90508135815260208201356001600160401b038082111561392d57600080fd5b61393985838601613819565b602084015260408401356040840152606084013591508082111561395c57600080fd5b61396885838601613819565b60608401526080840135608084015260a084013591508082111561398b57600080fd5b5061399884828501613819565b60a08301525060c082013560c08201526139b58360e08401613762565b60e082015292915050565b803560ff81168114610b3357600080fd5b6000602082840312156139e2578081fd5b6131a282613739565b6000806000604084860312156139ff578182fd5b613a0884613739565b925060208401356001600160401b03811115613a22578283fd5b613a2e8682870161389a565b9497909650939450505050565b6000806000806000806101208789031215613a54578384fd5b613a5d87613739565b955060208701356001600160401b03811115613a77578485fd5b613a8389828a0161389a565b9096509450613a97905088604089016138d9565b925060e0870135915061010087013590509295509295509295565b600060a08284031215613ac3578081fd5b82601f830112613ad1578081fd5b60405160a081018181106001600160401b0382111715613af357613af36152a6565b604052808360a08101861015613b07578384fd5b835b60058110156137cd578135835260209283019290910190600101613b09565b60006101008284031215613b3a578081fd5b6131a28383613762565b60008060008060008060008060008060006102208c8e031215613b65578889fd5b8b356001600160401b03811115613b7a57898afd5b613b868e828f016137d8565b909c509a505060208c0135985060408c0135975060608c0135965060808c0135955060a08c0135945060c08c0135935060e08c013592506101008c01359150613bd38d6101208e01613750565b90509295989b509295989b9093969950565b600060208284031215613bf6578081fd5b815180151581146131a2578182fd5b600060208284031215613c16578081fd5b5035919050565b600080600060e08486031215613c31578081fd5b613c3b85856138d9565b9560a0850135955060c0909401359392505050565b600060a08284031215613c61578081fd5b60405160a081018181106001600160401b0382111715613c8357613c836152a6565b806040525082358152602083013560208201526040830135604082015260608301356060820152608083013560808201528091505092915050565b60006101608284031215613cd0578081fd5b604051608081018181106001600160401b0382111715613cf257613cf26152a6565b8060405250823581526020830135602082015260408301356040820152613d1c8460608501613762565b60608201529392505050565b600060208284031215613d39578081fd5b81356001600160401b0380821115613d4f578283fd5b908301906102208286031215613d63578283fd5b613d6e610140615152565b823582811115613d7c578485fd5b613d8887828601613819565b8252506020830135602082015260408301356040820152606083013560608201526080830135608082015260a083013560a082015260c083013560c082015260e083013560e0820152610100915081830135828201526101209150613def86838501613762565b91810191909152949350505050565b60006101808284031215613e10578081fd5b60405160a081018181106001600160401b0382111715613e3257613e326152a6565b806040525082358152602083013560208201526040830135604082015260608301356060820152613e668460808501613762565b60808201529392505050565b600060408284031215613e83578081fd5b604051604081018181106001600160401b0382111715613ea557613ea56152a6565b604052823581526020928301359281019290925250919050565b600060208284031215613ed0578081fd5b81356001600160401b03811115613ee5578182fd5b610b96848285016138f0565b60008060408385031215613f03578182fd5b82356001600160401b0380821115613f19578384fd5b613f25868387016138f0565b93506020850135915080821115613f3a578283fd5b50613f4785828601613819565b9150509250929050565b600060208284031215613f62578081fd5b5051919050565b60008060008060008060008060008060006101e08c8e031215613f8a578485fd5b8b359a506001600160401b038060208e01351115613fa6578586fd5b613fb68e60208f01358f016137d8565b909b50995060408d0135985060608d0135811015613fd2578586fd5b613fe28e60608f01358f016137d8565b909850965060808d0135955060a08d0135811015613ffe578485fd5b5061400f8d60a08e01358e016137d8565b909450925060c08c01359150613bd38d60e08e01613750565b6000806040838503121561403a578182fd5b50508035926020909101359150565b600080600080610160858703121561405f578182fd5b84359350602085013592506040850135915061407e8660608701613750565b905092959194509250565b600080600080610160858703121561409f578182fd5b84359350602085013592506040850135915061407e8660608701613762565b600080600080600061018086880312156140d6578283fd5b853594506020860135935060408601359250606086013591506140fc8760808801613750565b90509295509295909350565b6000806040838503121561411a578182fd5b614123836139c0565b946020939093013593505050565b60008060008060808587031215614146578182fd5b61414f856139c0565b966020860135965060408601359560600135945092505050565b8060005b60028110156141975761418184835161419d565b604093909301926020919091019060010161416d565b50505050565b8060005b60028110156141975781518452602093840193909101906001016141a1565b8060005b60088110156141975781518452602093840193909101906001016141c4565b6000815180845260208085019450808401835b83811015614212578151875295820195908201906001016141f6565b509495945050505050565b80516000906020808401838315614212578151875295820195908201906001016141f6565b6bffffffffffffffffffffffff19606093841b811682529190921b16601482015260280190565b6000614275828d61421d565b8b81528a60208201528960408201528860608201528760808201528660a08201528560c08201528460e08201526142b06101008201856141c0565b610200019c9b505050505050505050505050565b7f19457468657265756d205369676e6564204d6573736167653a0a3332000000008152601c810191909152603c0190565b90565b600089825261430a602083018a61421d565b88815261431a602082018961421d565b905086815261432c602082018761421d565b905084815261433e60208201856141c0565b610120019a9950505050505050505050565b600085825284602083015283604083015261010083606084013761016091909101908152949350505050565b600085825284602083015283604083015261439a60608301846141c0565b5061016001949350505050565b60008682528560208301528460408301528360608301526143cb60808301846141c0565b506101800195945050505050565b60408101818360005b60028110156144015781518352602092830192909101906001016143e2565b50505092915050565b6101008101614419828661419d565b6144266040830185614169565b610b9660c083018461419d565b6000610120614442838861419d565b61444f6040840187614169565b61445c60c084018661419d565b8061010084015261446f818401856141e3565b979650505050505050565b60a08101818360005b6005811015614401578151835260209283019290910190600101614483565b901515815260200190565b90815260200190565b93845260ff9290921660208401526040830152606082015260800190565b600060e0825284518060e0840152815b818110156145025760208188018101516101008684010152016144e4565b81811115614514578261010083860101525b50610100601f19601f83011684010191505083516020830152602084015160408301526040840151606083015260608401516080830152608084015160a08301528260c0830152949350505050565b60208082526018908201527f45434453413a20696e76616c6964207369676e61747572650000000000000000604082015260600190565b60208082526026908201527f556e697265703a2061747465737465722068617320616c72656164792073696760408201526506e65642075760d41b606082015260800190565b6020808252602b908201527f556e697265703a207468652070726f6f6620686173206265656e207375626d6960408201526a74746564206265666f726560a81b606082015260800190565b6020808252601f908201527f45434453413a20696e76616c6964207369676e6174757265206c656e67746800604082015260600190565b60208082526024908201527f556e697265703a20696e76616c6964206174746573746174696f6e20677261666040820152636669746960e01b606082015260800190565b60208082526034908201527f556e697265703a207375626d697420616e2061697264726f702070726f6f66206040820152730eed2e8d040d2dcc6dee4e4cac6e840cae0dec6d60631b606082015260800190565b6020808252602d908201527f556e697265703a20696e76616c6964206e756d626572206f6620626c696e646560408201526c6420757365722073746174657360981b606082015260800190565b6020808252602a908201527f556e697265703a20696e76616c6964206174746573746572207369676e207570604082015269207369676e617475726560b01b606082015260800190565b60208082526026908201527f556e697265703a20617474657374657220686173206e6f74207369676e6564206040820152651d5c081e595d60d21b606082015260800190565b6020808252601b908201527f556e697265703a2065706f6368206e6f742079657420656e6465640000000000604082015260600190565b60208082526032908201527f436f6d70757465526f6f743a205f747265654c6576656c73206d757374206265604082015271103132ba3bb2b2b710181030b73210191a9b60711b606082015260800190565b6020808252602c908201527f556e697265703a206e6f20617474657374696e6720666565206f7220696e636f60408201526b1c9c9958dd08185b5bdd5b9d60a21b606082015260800190565b6020808252600a9082015269115c1bd8da115b99195960b21b604082015260600190565b60208082526036908201527f556e697265703a207375626d697420612072657075746174696f6e2070726f6f6040820152750cc40eed2e8d040d2dcc6dee4e4cac6e840cae0dec6d60531b606082015260800190565b6020808252603a908201527f416464726573733a20756e61626c6520746f2073656e642076616c75652c207260408201527f6563697069656e74206d61792068617665207265766572746564000000000000606082015260800190565b60208082526022908201527f45434453413a20696e76616c6964207369676e6174757265202773272076616c604082015261756560f01b606082015260800190565b6020808252601d908201527f416464726573733a20696e73756666696369656e742062616c616e6365000000604082015260600190565b60208082526012908201527113995dd1d4d513195859925b9cd95c9d195960721b604082015260600190565b6020808252602f908201527f556e697265703a20696e76616c6964206e756d626572206f662072657075746160408201526e74696f6e206e756c6c69666965727360881b606082015260800190565b60208082526036908201527f556e697265703a207375626d697420616e2065706f6368206b65792070726f6f6040820152750cc40eed2e8d040d2dcc6dee4e4cac6e840cae0dec6d60531b606082015260800190565b60208082526046908201527f43616e206e6f74207472616e736974696f6e2066726f6d2065706f636820746860408201527f617427732067726561746572206f7220657175616c20746f2063757272656e74606082015265040cae0dec6d60d31b608082015260a00190565b60208082526032908201527f556e697265703a206d6178696d756d206e756d626572206f6620617474657374604082015271195c881cda59db9d5c1cc81c995858da195960721b606082015260800190565b6020808252602d908201527f556e697265703a20696e76616c6964206e756d626572206f6620626c696e646560408201526c64206861736820636861696e7360981b606082015260800190565b60208082526022908201527f556e697265703a20696e76616c6964206174746573746174696f6e20706f7352604082015261065760f41b606082015260800190565b60208082526022908201527f45434453413a20696e76616c6964207369676e6174757265202776272076616c604082015261756560f01b606082015260800190565b60208082526026908201527f556e697265703a2074686520757365722068617320616c72656164792073696760408201526506e65642075760d41b606082015260800190565b6020808252602e908201527f556e697265703a206d6178696d756d206e756d626572206f662075736572207360408201526d1a59db9d5c1cc81c995858da195960921b606082015260800190565b6020808252601b908201527f556e697265703a20696e76616c69642070726f6f6620696e6465780000000000604082015260600190565b602080825260149082015273105d1d195cdd185d1a5bdb94dd589b5a5d1d195960621b604082015260600190565b60208082526022908201527f556e697265703a20696e76616c6964206174746573746174696f6e206e656752604082015261065760f41b606082015260800190565b6020808252601d908201527f556e697265703a206d69736d6174636865642061747465737465724964000000604082015260600190565b6020808252603c908201527f556e697265703a2065616368207075626c6963207369676e616c206d7573742060408201527f6265206c742074686520736e61726b207363616c6172206669656c6400000000606082015260800190565b60208082526028908201527f556e697265703a20696e76616c6964206e756d626572206f662065706b206e756040820152676c6c69666965727360c01b606082015260800190565b60208082526035908201527f556e697265703a20696e636f727265637420617474657374657220494420696e604082015274103a3432903932b83aba30ba34b7b710383937b7b360591b606082015260800190565b60208082526022908201527f556e697265703a20696e76616c6964206174746573746174696f6e207369676e604082015261055760f41b606082015260800190565b6000610160820190508251825260208301516020830152604083015160408301526060830151614f3d60608401826141c0565b5092915050565b60006020825282516102206020840152614f626102408401826141e3565b9050602084015160408401526040840151606084015260608401516080840152608084015160a084015260a084015160c084015260c084015160e084015260e08401516101008181860152808601519150506101208181860152808601519150506133b36101408501826141c0565b600061018082019050825182526020830151602083015260408301516040830152606083015160608301526080830151614f3d60808401826141c0565b6000604082528351604083015260208401516101e060608401526150366102208401826141e3565b9050604085015160808401526060850151603f19808584030160a086015261505e83836141e3565b9250608087015160c086015260a08701519150808584030160e08601525061508682826141e3565b91505060c085015161010084015260e08501516150a76101208501826141c0565b5082810360208401526150ba81856141e3565b95945050505050565b8281526101208101610100836020840137600081529392505050565b918252602082015260400190565b83815260208101839052610140810161010083604084013760008152949350505050565b9283526020830191909152604082015260600190565b60ff91909116815260200190565b60ff93841681529183166020830152909116604082015260600190565b6040518181016001600160401b0381118282101715615173576151736152a6565b604052919050565b6000821982111561518e5761518e61527a565b500190565b600060ff821660ff84168060ff038211156151b0576151b061527a565b019392505050565b6000826151c7576151c7615290565b500490565b60008160001904831182151516156151e6576151e661527a565b500290565b600060ff821660ff84168160ff048111821515161561520c5761520c61527a565b029392505050565b6000828210156152265761522661527a565b500390565b600060001982141561523f5761523f61527a565b5060010190565b600060ff821660ff81141561525d5761525d61527a565b60010192915050565b60008261527557615275615290565b500690565b634e487b7160e01b600052601160045260246000fd5b634e487b7160e01b600052601260045260246000fd5b634e487b7160e01b600052604160045260246000fdfe30644e72e131a029b85045b68181585d2833e84879b9709143e1f593f0000001d520dc8edfe278d8221eb9bc1010dbafcff0b692cd5b1a0f7333dc9f228ca660a2646970667358221220591db310ba1d526b21d735db53f0cc4462e7268ffb0c24f494d446e6eea0fe6264736f6c63430008000033",
  "linkReferences": {
    "contracts/Poseidon.sol": {
      "PoseidonT3": [
        {
          "length": 20,
          "start": 1287
        },
        {
          "length": 20,
          "start": 10247
        }
      ],
      "PoseidonT6": [
        {
          "length": 20,
          "start": 966
        },
        {
          "length": 20,
          "start": 11899
        }
      ]
    }
  },
  "deployedLinkReferences": {
    "contracts/Poseidon.sol": {
      "PoseidonT3": [
        {
          "length": 20,
          "start": 7246
        }
      ],
      "PoseidonT6": [
        {
          "length": 20,
          "start": 8898
        }
      ]
    }
  }
}