{
  "_format": "hh-sol-artifact-1",
  "contractName": "Unirep",
  "sourceName": "contracts/Unirep.sol",
  "abi": [
    {
      "inputs": [
        {
          "components": [
            {
              "internalType": "uint8",
              "name": "globalStateTreeDepth",
              "type": "uint8"
            },
            {
              "internalType": "uint8",
              "name": "userStateTreeDepth",
              "type": "uint8"
            },
            {
              "internalType": "uint8",
              "name": "nullifierTreeDepth",
              "type": "uint8"
            },
            {
              "internalType": "uint8",
              "name": "epochTreeDepth",
              "type": "uint8"
            }
          ],
          "internalType": "struct UnirepParameters.TreeDepths",
          "name": "_treeDepths",
          "type": "tuple"
        },
        {
          "components": [
            {
              "internalType": "uint256",
              "name": "maxUsers",
              "type": "uint256"
            }
          ],
          "internalType": "struct UnirepParameters.MaxValues",
          "name": "_maxValues",
          "type": "tuple"
        },
        {
          "internalType": "contract EpochKeyValidityVerifier",
          "name": "_epkValidityVerifier",
          "type": "address"
        },
        {
          "internalType": "contract StartTransitionVerifier",
          "name": "_startTransitionVerifier",
          "type": "address"
        },
        {
          "internalType": "contract ProcessAttestationsVerifier",
          "name": "_processAttestationsVerifier",
          "type": "address"
        },
        {
          "internalType": "contract UserStateTransitionVerifier",
          "name": "_userStateTransitionVerifier",
          "type": "address"
        },
        {
          "internalType": "contract ReputationVerifier",
          "name": "_reputationVerifier",
          "type": "address"
        },
        {
          "internalType": "contract UserSignUpVerifier",
          "name": "_userSignUpVerifier",
          "type": "address"
        },
        {
          "internalType": "uint8",
          "name": "_numEpochKeyNoncePerEpoch",
          "type": "uint8"
        },
        {
          "internalType": "uint8",
          "name": "_maxReputationBudget",
          "type": "uint8"
        },
        {
          "internalType": "uint256",
          "name": "_epochLength",
          "type": "uint256"
        },
        {
          "internalType": "uint256",
          "name": "_attestingFee",
          "type": "uint256"
        }
      ],
      "stateMutability": "nonpayable",
      "type": "constructor"
    },
    {
      "anonymous": false,
      "inputs": [
        {
          "indexed": true,
          "internalType": "uint256",
          "name": "_epoch",
          "type": "uint256"
        },
        {
          "indexed": true,
          "internalType": "uint256",
          "name": "_epochKey",
          "type": "uint256"
        },
        {
          "indexed": true,
          "internalType": "address",
          "name": "_attester",
          "type": "address"
        },
        {
          "components": [
            {
              "internalType": "uint256",
              "name": "attesterId",
              "type": "uint256"
            },
            {
              "internalType": "uint256",
              "name": "posRep",
              "type": "uint256"
            },
            {
              "internalType": "uint256",
              "name": "negRep",
              "type": "uint256"
            },
            {
              "internalType": "uint256",
              "name": "graffiti",
              "type": "uint256"
            },
            {
              "internalType": "uint256",
              "name": "signUp",
              "type": "uint256"
            }
          ],
          "indexed": false,
          "internalType": "struct DomainObjs.Attestation",
          "name": "attestation",
          "type": "tuple"
        }
      ],
      "name": "AttestationSubmitted",
      "type": "event"
    },
    {
      "anonymous": false,
      "inputs": [
        {
          "indexed": true,
          "internalType": "uint256",
          "name": "_epoch",
          "type": "uint256"
        }
      ],
      "name": "EpochEnded",
      "type": "event"
    },
    {
      "anonymous": false,
      "inputs": [
        {
          "indexed": true,
          "internalType": "uint256",
          "name": "_epoch",
          "type": "uint256"
        },
        {
          "indexed": false,
          "internalType": "uint256",
          "name": "_leafIndex",
          "type": "uint256"
        },
        {
          "indexed": false,
          "internalType": "uint256",
          "name": "_hashedLeaf",
          "type": "uint256"
        },
        {
          "indexed": false,
          "internalType": "uint256",
          "name": "_attesterId",
          "type": "uint256"
        },
        {
          "indexed": false,
          "internalType": "uint256",
          "name": "_airdropAmount",
          "type": "uint256"
        }
      ],
      "name": "NewGSTLeafInserted",
      "type": "event"
    },
    {
      "anonymous": false,
      "inputs": [
        {
          "indexed": false,
          "internalType": "string",
          "name": "_event",
          "type": "string"
        }
      ],
      "name": "Sequencer",
      "type": "event"
    },
    {
      "anonymous": false,
      "inputs": [
        {
          "indexed": true,
          "internalType": "uint256",
          "name": "_toEpoch",
          "type": "uint256"
        },
        {
          "indexed": false,
          "internalType": "uint256",
          "name": "_leafIndex",
          "type": "uint256"
        },
        {
          "components": [
            {
              "internalType": "uint256",
              "name": "fromEpoch",
              "type": "uint256"
            },
            {
              "internalType": "uint256",
              "name": "fromGlobalStateTree",
              "type": "uint256"
            },
            {
              "internalType": "uint256",
              "name": "fromEpochTree",
              "type": "uint256"
            },
            {
              "internalType": "uint256",
              "name": "newGlobalStateTreeLeaf",
              "type": "uint256"
            },
            {
              "internalType": "uint256[8]",
              "name": "proof",
              "type": "uint256[8]"
            },
            {
              "internalType": "uint256[]",
              "name": "blindedUserStates",
              "type": "uint256[]"
            },
            {
              "internalType": "uint256[]",
              "name": "blindedHashChains",
              "type": "uint256[]"
            },
            {
              "internalType": "uint256[]",
              "name": "epkNullifiers",
              "type": "uint256[]"
            }
          ],
          "indexed": false,
          "internalType": "struct UnirepParameters.UserTransitionedRelated",
          "name": "userTransitionedData",
          "type": "tuple"
        }
      ],
      "name": "UserStateTransitioned",
      "type": "event"
    },
    {
      "inputs": [
        {
          "internalType": "address",
          "name": "",
          "type": "address"
        }
      ],
      "name": "airdropAmount",
      "outputs": [
        {
          "internalType": "uint256",
          "name": "",
          "type": "uint256"
        }
      ],
      "stateMutability": "view",
      "type": "function"
    },
    {
      "inputs": [],
      "name": "attesterSignUp",
      "outputs": [],
      "stateMutability": "nonpayable",
      "type": "function"
    },
    {
      "inputs": [
        {
          "internalType": "address",
          "name": "attester",
          "type": "address"
        },
        {
          "internalType": "bytes",
          "name": "signature",
          "type": "bytes"
        }
      ],
      "name": "attesterSignUpViaRelayer",
      "outputs": [],
      "stateMutability": "nonpayable",
      "type": "function"
    },
    {
      "inputs": [
        {
          "internalType": "address",
          "name": "",
          "type": "address"
        }
      ],
      "name": "attesters",
      "outputs": [
        {
          "internalType": "uint256",
          "name": "",
          "type": "uint256"
        }
      ],
      "stateMutability": "view",
      "type": "function"
    },
    {
      "inputs": [],
      "name": "attestingFee",
      "outputs": [
        {
          "internalType": "uint256",
          "name": "",
          "type": "uint256"
        }
      ],
      "stateMutability": "view",
      "type": "function"
    },
    {
      "inputs": [
        {
          "internalType": "uint256",
          "name": "numEpochKeysToSeal",
          "type": "uint256"
        }
      ],
      "name": "beginEpochTransition",
      "outputs": [],
      "stateMutability": "nonpayable",
      "type": "function"
    },
    {
      "inputs": [],
      "name": "burnAttestingFee",
      "outputs": [],
      "stateMutability": "nonpayable",
      "type": "function"
    },
    {
      "inputs": [
        {
          "internalType": "uint256",
          "name": "_leafIndex",
          "type": "uint256"
        },
        {
          "internalType": "uint256",
          "name": "_leafValue",
          "type": "uint256"
        }
      ],
      "name": "calcAirdropUSTRoot",
      "outputs": [
        {
          "internalType": "uint256",
          "name": "",
          "type": "uint256"
        }
      ],
      "stateMutability": "view",
      "type": "function"
    },
    {
      "inputs": [],
      "name": "collectEpochTransitionCompensation",
      "outputs": [],
      "stateMutability": "nonpayable",
      "type": "function"
    },
    {
      "inputs": [],
      "name": "collectedAttestingFee",
      "outputs": [
        {
          "internalType": "uint256",
          "name": "",
          "type": "uint256"
        }
      ],
      "stateMutability": "view",
      "type": "function"
    },
    {
      "inputs": [
        {
          "internalType": "uint8",
          "name": "_treeLevels",
          "type": "uint8"
        },
        {
          "internalType": "uint256",
          "name": "_zeroValue",
          "type": "uint256"
        }
      ],
      "name": "computeEmptyRoot",
      "outputs": [
        {
          "internalType": "uint256",
          "name": "",
          "type": "uint256"
        }
      ],
      "stateMutability": "pure",
      "type": "function"
    },
    {
      "inputs": [
        {
          "internalType": "uint8",
          "name": "_treeLevels",
          "type": "uint8"
        },
        {
          "internalType": "uint256",
          "name": "_leafIndex",
          "type": "uint256"
        },
        {
          "internalType": "uint256",
          "name": "_leafValue",
          "type": "uint256"
        },
        {
          "internalType": "uint256",
          "name": "_zeroValue",
          "type": "uint256"
        }
      ],
      "name": "computeOneNonZeroLeafRoot",
      "outputs": [
        {
          "internalType": "uint256",
          "name": "",
          "type": "uint256"
        }
      ],
      "stateMutability": "pure",
      "type": "function"
    },
    {
      "inputs": [],
      "name": "currentEpoch",
      "outputs": [
        {
          "internalType": "uint256",
          "name": "",
          "type": "uint256"
        }
      ],
      "stateMutability": "view",
      "type": "function"
    },
    {
      "inputs": [],
      "name": "emptyGlobalStateTreeRoot",
      "outputs": [
        {
          "internalType": "uint256",
          "name": "",
          "type": "uint256"
        }
      ],
      "stateMutability": "view",
      "type": "function"
    },
    {
      "inputs": [],
      "name": "emptyUserStateRoot",
      "outputs": [
        {
          "internalType": "uint256",
          "name": "",
          "type": "uint256"
        }
      ],
      "stateMutability": "view",
      "type": "function"
    },
    {
      "inputs": [
        {
          "internalType": "uint256",
          "name": "",
          "type": "uint256"
        }
      ],
      "name": "epochKeyHashchain",
      "outputs": [
        {
          "internalType": "uint256",
          "name": "",
          "type": "uint256"
        }
      ],
      "stateMutability": "view",
      "type": "function"
    },
    {
      "inputs": [],
      "name": "epochLength",
      "outputs": [
        {
          "internalType": "uint256",
          "name": "",
          "type": "uint256"
        }
      ],
      "stateMutability": "view",
      "type": "function"
    },
    {
      "inputs": [
        {
          "internalType": "address",
          "name": "",
          "type": "address"
        }
      ],
      "name": "epochTransitionCompensation",
      "outputs": [
        {
          "internalType": "uint256",
          "name": "",
          "type": "uint256"
        }
      ],
      "stateMutability": "view",
      "type": "function"
    },
    {
      "inputs": [
        {
          "internalType": "uint256",
          "name": "epoch",
          "type": "uint256"
        },
        {
          "internalType": "uint256",
          "name": "index",
          "type": "uint256"
        }
      ],
      "name": "getEpochKey",
      "outputs": [
        {
          "internalType": "uint256",
          "name": "",
          "type": "uint256"
        }
      ],
      "stateMutability": "view",
      "type": "function"
    },
    {
      "inputs": [
        {
          "internalType": "uint256",
          "name": "epoch",
          "type": "uint256"
        }
      ],
      "name": "getEpochTreeLeaves",
      "outputs": [
        {
          "internalType": "uint256[]",
          "name": "epochKeyList",
          "type": "uint256[]"
        },
        {
          "internalType": "uint256[]",
          "name": "epochKeyHashChainList",
          "type": "uint256[]"
        }
      ],
      "stateMutability": "view",
      "type": "function"
    },
    {
      "inputs": [
        {
          "internalType": "uint256",
          "name": "epoch",
          "type": "uint256"
        }
      ],
      "name": "getNumEpochKey",
      "outputs": [
        {
          "internalType": "uint256",
          "name": "",
          "type": "uint256"
        }
      ],
      "stateMutability": "view",
      "type": "function"
    },
    {
      "inputs": [
        {
          "internalType": "uint256",
          "name": "epoch",
          "type": "uint256"
        }
      ],
      "name": "getNumSealedEpochKey",
      "outputs": [
        {
          "internalType": "uint256",
          "name": "",
          "type": "uint256"
        }
      ],
      "stateMutability": "view",
      "type": "function"
    },
    {
      "inputs": [
        {
          "internalType": "uint256",
          "name": "",
          "type": "uint256"
        }
      ],
      "name": "hasUserSignedUp",
      "outputs": [
        {
          "internalType": "bool",
          "name": "",
          "type": "bool"
        }
      ],
      "stateMutability": "view",
      "type": "function"
    },
    {
      "inputs": [
        {
          "internalType": "uint256[5]",
          "name": "array",
          "type": "uint256[5]"
        }
      ],
      "name": "hash5",
      "outputs": [
        {
          "internalType": "uint256",
          "name": "",
          "type": "uint256"
        }
      ],
      "stateMutability": "pure",
      "type": "function"
    },
    {
      "inputs": [
        {
          "internalType": "uint256",
          "name": "airdropPosRep",
          "type": "uint256"
        }
      ],
      "name": "hashAirdroppedLeaf",
      "outputs": [
        {
          "internalType": "uint256",
          "name": "",
          "type": "uint256"
        }
      ],
      "stateMutability": "pure",
      "type": "function"
    },
    {
      "inputs": [
        {
          "internalType": "uint256",
          "name": "_left",
          "type": "uint256"
        },
        {
          "internalType": "uint256",
          "name": "_right",
          "type": "uint256"
        }
      ],
      "name": "hashLeftRight",
      "outputs": [
        {
          "internalType": "uint256",
          "name": "",
          "type": "uint256"
        }
      ],
      "stateMutability": "pure",
      "type": "function"
    },
    {
      "inputs": [
        {
          "components": [
            {
              "internalType": "uint256",
              "name": "identityCommitment",
              "type": "uint256"
            },
            {
              "internalType": "uint256",
              "name": "userStateRoot",
              "type": "uint256"
            }
          ],
          "internalType": "struct DomainObjs.StateLeaf",
          "name": "_stateLeaf",
          "type": "tuple"
        }
      ],
      "name": "hashStateLeaf",
      "outputs": [
        {
          "internalType": "uint256",
          "name": "",
          "type": "uint256"
        }
      ],
      "stateMutability": "pure",
      "type": "function"
    },
    {
      "inputs": [],
      "name": "hashedBlankStateLeaf",
      "outputs": [
        {
          "internalType": "uint256",
          "name": "",
          "type": "uint256"
        }
      ],
      "stateMutability": "view",
      "type": "function"
    },
    {
      "inputs": [
        {
          "internalType": "uint256",
          "name": "",
          "type": "uint256"
        }
      ],
      "name": "isEpochKeyHashChainSealed",
      "outputs": [
        {
          "internalType": "bool",
          "name": "",
          "type": "bool"
        }
      ],
      "stateMutability": "view",
      "type": "function"
    },
    {
      "inputs": [],
      "name": "latestEpochTransitionTime",
      "outputs": [
        {
          "internalType": "uint256",
          "name": "",
          "type": "uint256"
        }
      ],
      "stateMutability": "view",
      "type": "function"
    },
    {
      "inputs": [],
      "name": "maxReputationBudget",
      "outputs": [
        {
          "internalType": "uint8",
          "name": "",
          "type": "uint8"
        }
      ],
      "stateMutability": "view",
      "type": "function"
    },
    {
      "inputs": [],
      "name": "maxUsers",
      "outputs": [
        {
          "internalType": "uint256",
          "name": "",
          "type": "uint256"
        }
      ],
      "stateMutability": "view",
      "type": "function"
    },
    {
      "inputs": [],
      "name": "nextAttesterId",
      "outputs": [
        {
          "internalType": "uint256",
          "name": "",
          "type": "uint256"
        }
      ],
      "stateMutability": "view",
      "type": "function"
    },
    {
      "inputs": [
        {
          "internalType": "uint256",
          "name": "",
          "type": "uint256"
        }
      ],
      "name": "numAttestationsToEpochKey",
      "outputs": [
        {
          "internalType": "uint8",
          "name": "",
          "type": "uint8"
        }
      ],
      "stateMutability": "view",
      "type": "function"
    },
    {
      "inputs": [],
      "name": "numEpochKeyNoncePerEpoch",
      "outputs": [
        {
          "internalType": "uint8",
          "name": "",
          "type": "uint8"
        }
      ],
      "stateMutability": "view",
      "type": "function"
    },
    {
      "inputs": [],
      "name": "numUserSignUps",
      "outputs": [
        {
          "internalType": "uint256",
          "name": "",
          "type": "uint256"
        }
      ],
      "stateMutability": "view",
      "type": "function"
    },
    {
      "inputs": [
        {
          "internalType": "uint256",
          "name": "_outputBlindedUserState",
          "type": "uint256"
        },
        {
          "internalType": "uint256",
          "name": "_outputBlindedHashChain",
          "type": "uint256"
        },
        {
          "internalType": "uint256",
          "name": "_inputBlindedUserState",
          "type": "uint256"
        },
        {
          "internalType": "uint256[8]",
          "name": "_proof",
          "type": "uint256[8]"
        }
      ],
      "name": "processAttestations",
      "outputs": [],
      "stateMutability": "nonpayable",
      "type": "function"
    },
    {
      "inputs": [
        {
          "internalType": "uint256",
          "name": "_airdropAmount",
          "type": "uint256"
        }
      ],
      "name": "setAirdropAmount",
      "outputs": [],
      "stateMutability": "nonpayable",
      "type": "function"
    },
    {
      "inputs": [
        {
          "internalType": "uint256",
          "name": "_blindedUserState",
          "type": "uint256"
        },
        {
          "internalType": "uint256",
          "name": "_blindedHashChain",
          "type": "uint256"
        },
        {
          "internalType": "uint256",
          "name": "_GSTRoot",
          "type": "uint256"
        },
        {
          "internalType": "uint256[8]",
          "name": "_proof",
          "type": "uint256[8]"
        }
      ],
      "name": "startUserStateTransition",
      "outputs": [],
      "stateMutability": "nonpayable",
      "type": "function"
    },
    {
      "inputs": [
        {
          "components": [
            {
              "internalType": "uint256",
              "name": "attesterId",
              "type": "uint256"
            },
            {
              "internalType": "uint256",
              "name": "posRep",
              "type": "uint256"
            },
            {
              "internalType": "uint256",
              "name": "negRep",
              "type": "uint256"
            },
            {
              "internalType": "uint256",
              "name": "graffiti",
              "type": "uint256"
            },
            {
              "internalType": "uint256",
              "name": "signUp",
              "type": "uint256"
            }
          ],
          "internalType": "struct DomainObjs.Attestation",
          "name": "attestation",
          "type": "tuple"
        },
        {
          "internalType": "uint256",
          "name": "epochKey",
          "type": "uint256"
        }
      ],
      "name": "submitAttestation",
      "outputs": [],
      "stateMutability": "payable",
      "type": "function"
    },
    {
      "inputs": [
        {
          "internalType": "address",
          "name": "attester",
          "type": "address"
        },
        {
          "internalType": "bytes",
          "name": "signature",
          "type": "bytes"
        },
        {
          "components": [
            {
              "internalType": "uint256",
              "name": "attesterId",
              "type": "uint256"
            },
            {
              "internalType": "uint256",
              "name": "posRep",
              "type": "uint256"
            },
            {
              "internalType": "uint256",
              "name": "negRep",
              "type": "uint256"
            },
            {
              "internalType": "uint256",
              "name": "graffiti",
              "type": "uint256"
            },
            {
              "internalType": "uint256",
              "name": "signUp",
              "type": "uint256"
            }
          ],
          "internalType": "struct DomainObjs.Attestation",
          "name": "attestation",
          "type": "tuple"
        },
        {
          "internalType": "uint256",
          "name": "epochKey",
          "type": "uint256"
        }
      ],
      "name": "submitAttestationViaRelayer",
      "outputs": [],
      "stateMutability": "payable",
      "type": "function"
    },
    {
      "inputs": [],
      "name": "treeDepths",
      "outputs": [
        {
          "internalType": "uint8",
          "name": "globalStateTreeDepth",
          "type": "uint8"
        },
        {
          "internalType": "uint8",
          "name": "userStateTreeDepth",
          "type": "uint8"
        },
        {
          "internalType": "uint8",
          "name": "nullifierTreeDepth",
          "type": "uint8"
        },
        {
          "internalType": "uint8",
          "name": "epochTreeDepth",
          "type": "uint8"
        }
      ],
      "stateMutability": "view",
      "type": "function"
    },
    {
      "inputs": [
        {
          "internalType": "uint256[8]",
          "name": "_proof",
          "type": "uint256[8]"
        }
      ],
      "name": "unpackProof",
      "outputs": [
        {
          "internalType": "uint256[2]",
          "name": "",
          "type": "uint256[2]"
        },
        {
          "internalType": "uint256[2][2]",
          "name": "",
          "type": "uint256[2][2]"
        },
        {
          "internalType": "uint256[2]",
          "name": "",
          "type": "uint256[2]"
        }
      ],
      "stateMutability": "pure",
      "type": "function"
    },
    {
      "inputs": [
        {
          "internalType": "uint256",
          "name": "_newGlobalStateTreeLeaf",
          "type": "uint256"
        },
        {
          "internalType": "uint256[]",
          "name": "_epkNullifiers",
          "type": "uint256[]"
        },
        {
          "internalType": "uint256[]",
          "name": "_blindedUserStates",
          "type": "uint256[]"
        },
        {
          "internalType": "uint256[]",
          "name": "_blindedHashChains",
          "type": "uint256[]"
        },
        {
          "internalType": "uint256",
          "name": "_transitionFromEpoch",
          "type": "uint256"
        },
        {
          "internalType": "uint256",
          "name": "_fromGlobalStateTree",
          "type": "uint256"
        },
        {
          "internalType": "uint256",
          "name": "_fromEpochTree",
          "type": "uint256"
        },
        {
          "internalType": "uint256[8]",
          "name": "_proof",
          "type": "uint256[8]"
        }
      ],
      "name": "updateUserStateRoot",
      "outputs": [],
      "stateMutability": "nonpayable",
      "type": "function"
    },
    {
      "inputs": [
        {
          "internalType": "uint256",
          "name": "_identityCommitment",
          "type": "uint256"
        }
      ],
      "name": "userSignUp",
      "outputs": [],
      "stateMutability": "nonpayable",
      "type": "function"
    },
    {
      "inputs": [
        {
          "internalType": "uint256",
          "name": "_globalStateTree",
          "type": "uint256"
        },
        {
          "internalType": "uint256",
          "name": "_epoch",
          "type": "uint256"
        },
        {
          "internalType": "uint256",
          "name": "_epochKey",
          "type": "uint256"
        },
        {
          "internalType": "uint256[8]",
          "name": "_proof",
          "type": "uint256[8]"
        }
      ],
      "name": "verifyEpochKeyValidity",
      "outputs": [
        {
          "internalType": "bool",
          "name": "",
          "type": "bool"
        }
      ],
      "stateMutability": "view",
      "type": "function"
    },
    {
      "inputs": [
        {
          "internalType": "uint256",
          "name": "_outputBlindedUserState",
          "type": "uint256"
        },
        {
          "internalType": "uint256",
          "name": "_outputBlindedHashChain",
          "type": "uint256"
        },
        {
          "internalType": "uint256",
          "name": "_inputBlindedUserState",
          "type": "uint256"
        },
        {
          "internalType": "uint256[8]",
          "name": "_proof",
          "type": "uint256[8]"
        }
      ],
      "name": "verifyProcessAttestationProof",
      "outputs": [
        {
          "internalType": "bool",
          "name": "",
          "type": "bool"
        }
      ],
      "stateMutability": "view",
      "type": "function"
    },
    {
      "inputs": [
        {
          "internalType": "uint256[]",
          "name": "_repNullifiers",
          "type": "uint256[]"
        },
        {
          "internalType": "uint256",
          "name": "_epoch",
          "type": "uint256"
        },
        {
          "internalType": "uint256",
          "name": "_epochKey",
          "type": "uint256"
        },
        {
          "internalType": "uint256",
          "name": "_globalStateTree",
          "type": "uint256"
        },
        {
          "internalType": "uint256",
          "name": "_attesterId",
          "type": "uint256"
        },
        {
          "internalType": "uint256",
          "name": "_proveReputationAmount",
          "type": "uint256"
        },
        {
          "internalType": "uint256",
          "name": "_minRep",
          "type": "uint256"
        },
        {
          "internalType": "uint256",
          "name": "_proveGraffiti",
          "type": "uint256"
        },
        {
          "internalType": "uint256",
          "name": "_graffitiPreImage",
          "type": "uint256"
        },
        {
          "internalType": "uint256[8]",
          "name": "_proof",
          "type": "uint256[8]"
        }
      ],
      "name": "verifyReputation",
      "outputs": [
        {
          "internalType": "bool",
          "name": "",
          "type": "bool"
        }
      ],
      "stateMutability": "view",
      "type": "function"
    },
    {
      "inputs": [
        {
          "internalType": "uint256",
          "name": "_blindedUserState",
          "type": "uint256"
        },
        {
          "internalType": "uint256",
          "name": "_blindedHashChain",
          "type": "uint256"
        },
        {
          "internalType": "uint256",
          "name": "_GSTRoot",
          "type": "uint256"
        },
        {
          "internalType": "uint256[8]",
          "name": "_proof",
          "type": "uint256[8]"
        }
      ],
      "name": "verifyStartTransitionProof",
      "outputs": [
        {
          "internalType": "bool",
          "name": "",
          "type": "bool"
        }
      ],
      "stateMutability": "view",
      "type": "function"
    },
    {
      "inputs": [
        {
          "internalType": "uint256",
          "name": "_epoch",
          "type": "uint256"
        },
        {
          "internalType": "uint256",
          "name": "_epochKey",
          "type": "uint256"
        },
        {
          "internalType": "uint256",
          "name": "_globalStateTree",
          "type": "uint256"
        },
        {
          "internalType": "uint256",
          "name": "_attesterId",
          "type": "uint256"
        },
        {
          "internalType": "uint256[8]",
          "name": "_proof",
          "type": "uint256[8]"
        }
      ],
      "name": "verifyUserSignUp",
      "outputs": [
        {
          "internalType": "bool",
          "name": "",
          "type": "bool"
        }
      ],
      "stateMutability": "view",
      "type": "function"
    },
    {
      "inputs": [
        {
          "internalType": "uint256",
          "name": "_newGlobalStateTreeLeaf",
          "type": "uint256"
        },
        {
          "internalType": "uint256[]",
          "name": "_epkNullifiers",
          "type": "uint256[]"
        },
        {
          "internalType": "uint256",
          "name": "_transitionFromEpoch",
          "type": "uint256"
        },
        {
          "internalType": "uint256[]",
          "name": "_blindedUserStates",
          "type": "uint256[]"
        },
        {
          "internalType": "uint256",
          "name": "_fromGlobalStateTree",
          "type": "uint256"
        },
        {
          "internalType": "uint256[]",
          "name": "_blindedHashChains",
          "type": "uint256[]"
        },
        {
          "internalType": "uint256",
          "name": "_fromEpochTree",
          "type": "uint256"
        },
        {
          "internalType": "uint256[8]",
          "name": "_proof",
          "type": "uint256[8]"
        }
      ],
      "name": "verifyUserStateTransition",
      "outputs": [
        {
          "internalType": "bool",
          "name": "",
          "type": "bool"
        }
      ],
      "stateMutability": "view",
      "type": "function"
    }
  ],
  "bytecode": "0x6101406040527f30644e72e131a029b85045b68181585d2833e84879b9709143e1f593f00000016200003361016062000734565b6040516020818303038152906040528051906020012060001c620000589190620009e6565b60005560016007556000600a556000600b5560016010553480156200007c57600080fd5b5060405162005442380380620054428339810160408190526200009f91620005de565b8b601860008201518160000160006101000a81548160ff021916908360ff16021790555060208201518160000160016101000a81548160ff021916908360ff16021790555060408201518160000160026101000a81548160ff021916908360ff16021790555060608201518160000160036101000a81548160ff021916908360ff16021790555090505089600160006101000a8154816001600160a01b0302191690836001600160a01b0316021790555088600260006101000a8154816001600160a01b0302191690836001600160a01b0316021790555087600360006101000a8154816001600160a01b0302191690836001600160a01b0316021790555086600460006101000a8154816001600160a01b0302191690836001600160a01b0316021790555085600560006101000a8154816001600160a01b0302191690836001600160a01b0316021790555084600660006101000a8154816001600160a01b0302191690836001600160a01b031602179055508360ff1660c08160ff1660f81b815250508260ff1660e08160ff1660f81b81525050816080818152505042600881905550600060018d6000015160026200025b9190620008b1565b620002679190620009a9565b9050808c600001511115620002995760405162461bcd60e51b81526004016200029090620007f5565b60405180910390fd5b8b516101005260208d0151620002af90620002d9565b6009558c51620002bf906200035b565b60a05250610120525062000a1d9950505050505050505050565b6000620002e562000550565b60005b60058160ff16101562000335576000828260ff16600581106200031b57634e487b7160e01b600052603260045260246000fd5b6020020152806200032c81620009c3565b915050620002e8565b50600062000343826200037f565b905062000351848262000415565b925050505b919050565b6040805180820190915260008082526009546020830152908162000343826200049d565b604051630926f44b60e31b815260009073__$223301b175b06473d424a7afc957d4e96c$__90634937a25890620003bb90859060040162000779565b60206040518083038186803b158015620003d457600080fd5b505af4158015620003e9573d6000803e3d6000fd5b505050506040513d601f19601f820116820180604052508101906200040f91906200071b565b92915050565b6000808360ff161180156200042f57506101008360ff1611155b6200044e5760405162461bcd60e51b81526004016200029090620007a3565b8160015b8460ff168160ff161015620004885760006200046f8380620004ad565b92508190506200047f81620009c3565b91505062000452565b50620004958180620004ad565b949350505050565b805160208201516000916200040f915b6000620004b96200056e565b838152602081018390526040516314d2f97b60e11b815273__$86e0c54df1042e28bf2dd20ccf184dc428$__906329a5f2f690620004fc90849060040162000746565b60206040518083038186803b1580156200051557600080fd5b505af41580156200052a573d6000803e3d6000fd5b505050506040513d601f19601f820116820180604052508101906200049591906200071b565b6040518060a001604052806005906020820280368337509192915050565b60405180604001604052806002906020820280368337509192915050565b80516001600160a01b03811681146200035657600080fd5b600060208284031215620005b6578081fd5b620005c260206200082c565b9151825250919050565b805160ff811681146200035657600080fd5b6000806000806000806000806000806000808c8e036101e081121562000602578889fd5b608081121562000610578889fd5b506200061d60806200082c565b620006288e620005cc565b81526200063860208f01620005cc565b60208201526200064b60408f01620005cc565b60408201526200065e60608f01620005cc565b60608201529b50620006748e60808f01620005a4565b9a506200068460a08e016200058c565b99506200069460c08e016200058c565b9850620006a460e08e016200058c565b9750620006b56101008e016200058c565b9650620006c66101208e016200058c565b9550620006d76101408e016200058c565b9450620006e86101608e01620005cc565b9350620006f96101808e01620005cc565b92506101a08d015191506101c08d015190509295989b509295989b509295989b565b6000602082840312156200072d578081fd5b5051919050565b650556e697265760d41b815260060190565b60408101818360005b6002811015620007705781518352602092830192909101906001016200074f565b50505092915050565b60a08101818360005b60058110156200077057815183526020928301929091019060010162000782565b60208082526032908201527f436f6d70757465526f6f743a205f747265654c6576656c73206d757374206265604082015271103132ba3bb2b2b710181030b73210191a9b60711b606082015260800190565b6020808252601e908201527f556e697265703a20696e76616c6964206d617855736572732076616c75650000604082015260600190565b6040518181016001600160401b03811182821017156200085c57634e487b7160e01b600052604160045260246000fd5b604052919050565b80825b6001808611620008785750620008a8565b8187048211156200088d576200088d62000a07565b808616156200089b57918102915b9490941c93800262000867565b94509492505050565b6000620008c560001960ff851684620008cc565b9392505050565b600082620008dd57506001620008c5565b81620008ec57506000620008c5565b8160018114620009055760028114620009105762000944565b6001915050620008c5565b60ff84111562000924576200092462000a07565b6001841b9150848211156200093d576200093d62000a07565b50620008c5565b5060208310610133831016604e8410600b84101617156200097c575081810a8381111562000976576200097662000a07565b620008c5565b6200098b848484600162000864565b808604821115620009a057620009a062000a07565b02949350505050565b600082821015620009be57620009be62000a07565b500390565b600060ff821660ff811415620009dd57620009dd62000a07565b60010192915050565b60008262000a0257634e487b7160e01b81526012600452602481fd5b500690565b634e487b7160e01b600052601160045260246000fd5b60805160a05160c05160f81c60e05160f81c610100516101205161492762000b1b60003960008181610b9d01528181611dd70152612c240152600081816111ce015261237f015260008181610c5f01528181610cfa01528181610d4c01528181610da501528181610dfe01528181610e5701528181610eb001528181610f0901528181610f62015261234301526000818161158a015281816115cd01528181612214015281816123af015281816124670152818161251101528181612569015281816125c30152818161263e015281816126a1015281816126fb01526127810152600061201d0152600081816108f8015261191c01526149276000f3fe6080604052600436106102e45760003560e01c8063839beeb811610190578063ac98e5df116100dc578063e1b0e80211610095578063f5ab0dd61161006f578063f5ab0dd614610851578063f73c8ebb14610880578063fc14478a146108a0578063fd551331146108c0576102e4565b8063e1b0e80214610807578063e87101b11461081c578063f20ca7ff14610831576102e4565b8063ac98e5df14610758578063b530dc8c1461077d578063b876ed711461079d578063c2639673146107bd578063c6e01232146107d2578063d3aa645b146107e7576102e4565b8063a27e572a11610149578063a5500c3011610123578063a5500c30146106ee578063a710d60f1461070e578063a7c264ca1461072e578063a7ebaa7514610743576102e4565b8063a27e572a146106a4578063a3836b20146106b9578063a4ecf469146106ce576102e4565b8063839beeb81461060557806383e168ad1461061a5780639109d1eb1461063a578063918f0c161461064f57806398588c1f146106645780639cfced9714610684576102e4565b8063436b32d81161024f5780635b3745b5116102085780637341ead9116101e25780637341ead91461058257806376671808146105a2578063777a296e146105b75780637aeb103f146105d7576102e4565b80635b3745b51461052d5780635bb939951461054d578063705edd391461056d576102e4565b8063436b32d8146104835780634cce1a9a146104a35780634d6f77a7146104c35780634edc9ace146104e357806356df46341461050357806357d775f814610518576102e4565b8063258da4db116102a1578063258da4db146103d05780632b95f97e146103e35780632fa6773b146104035780633334dc5b146104235780633acce98514610443578063417b16e314610463576102e4565b806307d83308146102e9578063083789d31461031457806309663b29146103345780631135f0cf14610356578063131a91ad146103835780631c89e8e8146103a3575b600080fd5b3480156102f557600080fd5b506102fe6108d3565b60405161030b9190614671565b60405180910390f35b34801561032057600080fd5b506102fe61032f366004613863565b6108d9565b34801561034057600080fd5b5061035461034f366004613863565b6108f1565b005b34801561036257600080fd5b50610376610371366004613863565b610ad5565b60405161030b919061473d565b34801561038f57600080fd5b506102fe61039e366004613555565b610aea565b3480156103af57600080fd5b506103c36103be366004613863565b610afc565b60405161030b9190613d58565b6103546103de36600461377e565b610b11565b3480156103ef57600080fd5b506102fe6103fe366004613863565b610bf9565b34801561040f57600080fd5b506102fe61041e366004613863565b610c20565b34801561042f57600080fd5b506103c361043e3660046136bd565b610c32565b34801561044f57600080fd5b506102fe61045e366004613a11565b611117565b34801561046f57600080fd5b5061035461047e366004613863565b61119d565b34801561048f57600080fd5b506103c361049e366004613aa7565b61132b565b3480156104af57600080fd5b506103546104be366004613893565b611565565b3480156104cf57600080fd5b506102fe6104de366004613863565b61183e565b3480156104ef57600080fd5b506102fe6104fe366004613af1565b611850565b34801561050f57600080fd5b506103546118c4565b34801561052457600080fd5b506102fe61191a565b34801561053957600080fd5b506103c3610548366004613a72565b61193e565b34801561055957600080fd5b506102fe610568366004613a11565b611b23565b34801561057957600080fd5b506102fe611bbe565b34801561058e57600080fd5b506102fe61059d366004613816565b611be5565b3480156105ae57600080fd5b506102fe611bf9565b3480156105c357600080fd5b506102fe6105d2366004613a11565b611bff565b3480156105e357600080fd5b506105f76105f2366004613863565b611c4e565b60405161030b929190613d2a565b34801561061157600080fd5b506102fe611dd5565b34801561062657600080fd5b506102fe610635366004613b1a565b611df9565b34801561064657600080fd5b506102fe611eb8565b34801561065b57600080fd5b506102fe611ebe565b34801561067057600080fd5b5061035461067f36600461356f565b611ec4565b34801561069057600080fd5b506102fe61069f36600461362b565b611f6f565b3480156106b057600080fd5b50610354611ff9565b3480156106c557600080fd5b506102fe61201b565b3480156106da57600080fd5b506103c36106e9366004613863565b61203f565b3480156106fa57600080fd5b50610354610709366004613863565b612054565b34801561071a57600080fd5b506103c3610729366004613a72565b612092565b34801561073a57600080fd5b50610376612212565b34801561074f57600080fd5b50610354612236565b34801561076457600080fd5b5061076d61224b565b60405161030b949392919061474b565b34801561078957600080fd5b506102fe610798366004613555565b612270565b3480156107a957600080fd5b506103546107b8366004613a32565b612282565b3480156107c957600080fd5b50610376612341565b3480156107de57600080fd5b506102fe612365565b3480156107f357600080fd5b506102fe610802366004613555565b61236b565b34801561081357600080fd5b506102fe61237d565b34801561082857600080fd5b506102fe6123a1565b34801561083d57600080fd5b506103c361084c366004613952565b6123a7565b34801561085d57600080fd5b5061087161086c3660046136a1565b6128d3565b60405161030b93929190613c92565b34801561088c57600080fd5b5061035461089b366004613a32565b61295c565b3480156108ac57600080fd5b506103c36108bb366004613a72565b6129c6565b6103546108ce3660046135bf565b612b46565b600d5481565b6000818152601460205260409020600201545b919050565b60005a90507f0000000000000000000000000000000000000000000000000000000000000000600854426109259190614809565b101561094c5760405162461bcd60e51b815260040161094390613f77565b60405180910390fd5b6007546000908152601460205260408120600281015490548290610979906109748488612c83565b612c96565b9050815b818110156109f6576007546000908152601460209081526040808320848452600190810183528184205480855260129093529220549095506109bf9190611b23565b6000858152601260209081526040808320939093556011905220805460ff19166001179055806109ee81614820565b91505061097d565b5060078054600090815260146020526040808220600201849055915481522054811415610a8b576000805160206148d2833981519152604051610a389061404c565b60405180910390a16007546040517f751bb1ba7b27b3979a32844d4d05aa16a46a771b751593704834a80311e3a9b990600090a24260085560078054906000610a8083614820565b90915550506000600b555b6000610a985a8690612cae565b9050610abd610aa7823a612cba565b336000908152600e602052604090205490612c83565b336000908152600e6020526040902055505050505050565b60136020526000908152604090205460ff1681565b600f6020526000908152604090205481565b600c6020526000908152604090205460ff1681565b336000908152600f6020526040902054610b3d5760405162461bcd60e51b815260040161094390613f31565b336000908152600f6020526040902054823514610b6c5760405162461bcd60e51b81526004016109439061448d565b60008181526011602052604090205460ff1615610b9b5760405162461bcd60e51b8152600401610943906141d9565b7f00000000000000000000000000000000000000000000000000000000000000003414610bda5760405162461bcd60e51b815260040161094390614000565b600d54610be79034612c83565b600d55610bf5338383612cc6565b5050565b6000610c03613301565b828152600160608201819052610c1882611f6f565b949350505050565b60126020526000908152604090205481565b6040805160128082526102608201909252600091829190602082016102408036833701905050905060005b7f000000000000000000000000000000000000000000000000000000000000000060ff168160ff161015610cf5578d8d8260ff16818110610cae57634e487b7160e01b600052603260045260246000fd5b90506020020135828260ff1681518110610cd857634e487b7160e01b600052603260045260246000fd5b602090810291909101015280610ced8161483b565b915050610c5d565b508a817f000000000000000000000000000000000000000000000000000000000000000060ff1681518110610d3a57634e487b7160e01b600052603260045260246000fd5b60209081029190910101528981610d727f00000000000000000000000000000000000000000000000000000000000000006001614788565b60ff1681518110610d9357634e487b7160e01b600052603260045260246000fd5b60209081029190910101528881610dcb7f00000000000000000000000000000000000000000000000000000000000000006002614788565b60ff1681518110610dec57634e487b7160e01b600052603260045260246000fd5b60209081029190910101528781610e247f00000000000000000000000000000000000000000000000000000000000000006003614788565b60ff1681518110610e4557634e487b7160e01b600052603260045260246000fd5b60209081029190910101528681610e7d7f00000000000000000000000000000000000000000000000000000000000000006004614788565b60ff1681518110610e9e57634e487b7160e01b600052603260045260246000fd5b60209081029190910101528581610ed67f00000000000000000000000000000000000000000000000000000000000000006005614788565b60ff1681518110610ef757634e487b7160e01b600052603260045260246000fd5b60209081029190910101528481610f2f7f00000000000000000000000000000000000000000000000000000000000000006006614788565b60ff1681518110610f5057634e487b7160e01b600052603260045260246000fd5b60209081029190910101528381610f887f00000000000000000000000000000000000000000000000000000000000000006007614788565b60ff1681518110610fa957634e487b7160e01b600052603260045260246000fd5b60200260200101818152505060005b81518160ff16101561102d576000805160206148b2833981519152828260ff1681518110610ff657634e487b7160e01b600052603260045260246000fd5b60200260200101511061101b5760405162461bcd60e51b8152600401610943906144c4565b806110258161483b565b915050610fb8565b5061103661331f565b6040805161010081810190925261106591869060089083908390808284376000920191909152506128d3915050565b60408085018290526020850183905283855260055490516361971b8760e11b81526001600160a01b039091169363c32e370e936110ab9391929091908890600401613cbb565b60206040518083038186803b1580156110c357600080fd5b505afa1580156110d7573d6000803e3d6000fd5b505050506040513d601f19601f820116820180604052508101906110fb919061375e565b151560609091018190529150509b9a5050505050505050505050565b6000611121613301565b60005b60058160ff16101561116c576000828260ff166005811061115557634e487b7160e01b600052603260045260246000fd5b6020020152806111648161483b565b915050611124565b50600061117882611f6f565b60185490915061119290610100900460ff16868684611df9565b925050505b92915050565b6000818152600c602052604090205460ff16156111cc5760405162461bcd60e51b815260040161094390614371565b7f0000000000000000000000000000000000000000000000000000000000000000600a541061120d5760405162461bcd60e51b815260040161094390614190565b600954336000908152600f6020908152604080832054601790925290912054811580159061123b5750600081115b1561125b57600061124b82610bf9565b90506112578382611117565b9350505b6040805180820190915284815260208101849052600061127a82611be5565b6000878152600c60205260408120805460ff19166001179055600a8054929350906112a483614820565b91905055506000805160206148d28339815191526040516112c490614569565b60405180910390a16007547f9a965b974adcc5af3e5c811827630ad09160710bebb1621ec72cb1cbf0050cb7600b548387876040516113069493929190614722565b60405180910390a2600b805490600061131e83614820565b9190505550505050505050565b60408051600480825260a0820190925260009182919060208201608080368337019050509050868160008151811061137357634e487b7160e01b600052603260045260246000fd5b60200260200101818152505085816001815181106113a157634e487b7160e01b600052603260045260246000fd5b60200260200101818152505084816002815181106113cf57634e487b7160e01b600052603260045260246000fd5b60200260200101818152505083816003815181106113fd57634e487b7160e01b600052603260045260246000fd5b60200260200101818152505060005b81518160ff161015611481576000805160206148b2833981519152828260ff168151811061144a57634e487b7160e01b600052603260045260246000fd5b60200260200101511061146f5760405162461bcd60e51b8152600401610943906144c4565b806114798161483b565b91505061140c565b5061148a61331f565b604080516101008181019092526114b991869060089083908390808284376000920191909152506128d3915050565b60408085018290526020850183905283855260065490516361971b8760e11b81526001600160a01b039091169363c32e370e936114ff9391929091908890600401613cbb565b60206040518083038186803b15801561151757600080fd5b505afa15801561152b573d6000803e3d6000fd5b505050506040513d601f19601f8201168201806040525081019061154f919061375e565b1515606090910181905291505095945050505050565b60075484106115865760405162461bcd60e51b815260040161094390614281565b60ff7f00000000000000000000000000000000000000000000000000000000000000001689146115c85760405162461bcd60e51b815260040161094390614521565b60005b7f000000000000000000000000000000000000000000000000000000000000000060ff168110156116cc57601560008a8a8481811061161a57634e487b7160e01b600052603260045260246000fd5b602090810292909201358352508101919091526040016000205460ff1615156001146116585760405162461bcd60e51b815260040161094390613eb0565b6016600088888481811061167c57634e487b7160e01b600052603260045260246000fd5b602090810292909201358352508101919091526040016000205460ff1615156001146116ba5760405162461bcd60e51b8152600401610943906143e6565b806116c481614820565b9150506115cb565b506116d5613359565b848152602081018490526040808201849052606082018d90528051610100818101909252908390600890839083908082843760009201919091525050506080820152604080516020808b0282810182019093528a825290918b918b91829185019084908082843760009201919091525050505060a08201526040805160208089028281018201909352888252909189918991829185019084908082843760009201919091525050505060c0820152604080516020808d0282810182019093528c825290918d918d91829185019084908082843760009201919091525050505060e08201526040516000805160206148d2833981519152906117d5906143b7565b60405180910390a16007547fe4d3d9968cbe83e3f78ff28e3ec13aed2d63400dbdd05b7f5fcb01a9459a74a2600b548360405161181392919061467a565b60405180910390a2600b805490600061182b83614820565b9190505550505050505050505050505050565b60009081526014602052604090205490565b6000808360ff1611801561186957506101008360ff1611155b6118855760405162461bcd60e51b815260040161094390613fae565b8160015b8460ff168160ff1610156118b95760006118a38384611b23565b92508190506118b18161483b565b915050611889565b50610c188182611b23565b336000908152600f6020526040902054156118f15760405162461bcd60e51b815260040161094390613db8565b60108054336000908152600f6020526040812082905590919061191383614820565b9190505550565b7f000000000000000000000000000000000000000000000000000000000000000081565b60408051600480825260a0820190925260009182919060208201608080368337019050509050858160008151811061198657634e487b7160e01b600052603260045260246000fd5b60200260200101818152505084816001815181106119b457634e487b7160e01b600052603260045260246000fd5b60200260200101818152505083816002815181106119e257634e487b7160e01b600052603260045260246000fd5b60200260200101818152505060005b81518160ff161015611a66576000805160206148b2833981519152828260ff1681518110611a2f57634e487b7160e01b600052603260045260246000fd5b602002602001015110611a545760405162461bcd60e51b8152600401610943906144c4565b80611a5e8161483b565b9150506119f1565b50611a6f61331f565b611a78846128d3565b60408085018290526020850183905283855260025490516361971b8760e11b81526001600160a01b039091169363c32e370e93611abe9391929091908890600401613cbb565b60206040518083038186803b158015611ad657600080fd5b505afa158015611aea573d6000803e3d6000fd5b505050506040513d601f19601f82011682018060405250810190611b0e919061375e565b15156060909101819052915050949350505050565b6000611b2d6133a4565b838152602081018390526040516314d2f97b60e11b815273__$86e0c54df1042e28bf2dd20ccf184dc428$__906329a5f2f690611b6e908490600401613c61565b60206040518083038186803b158015611b8657600080fd5b505af4158015611b9a573d6000803e3d6000fd5b505050506040513d601f19601f82011682018060405250810190610c18919061387b565b604080518082019091526000808252600954602083015290611bdf81611be5565b91505090565b600061119782600001518360200151611b23565b60075481565b6000828152601460205260408120548210611c2c5760405162461bcd60e51b815260040161094390614070565b5060009182526014602090815260408084209284526001909201905290205490565b60008181526014602052604081205460609182916001600160401b03811115611c8757634e487b7160e01b600052604160045260246000fd5b604051908082528060200260200182016040528015611cb0578160200160208202803683370190505b506000858152601460205260409020549093506001600160401b03811115611ce857634e487b7160e01b600052604160045260246000fd5b604051908082528060200260200182016040528015611d11578160200160208202803683370190505b50915060005b600085815260146020526040902054811015611dce57600085815260146020908152604080832084845260010190915290205484519092508290859083908110611d7157634e487b7160e01b600052603260045260246000fd5b6020026020010181815250506012600083815260200190815260200160002054838281518110611db157634e487b7160e01b600052603260045260246000fd5b602090810291909101015280611dc681614820565b915050611d17565b5050915091565b7f000000000000000000000000000000000000000000000000000000000000000081565b6000808560ff16118015611e1257506101008560ff1611155b611e2e5760405162461bcd60e51b815260040161094390613fae565b82828560015b611e3f896001614788565b60ff168160ff161015611eab576000611e588485611b23565b9050611e6560028461485b565b611e7a57611e738585611b23565b9450611e87565b611e848486611b23565b94505b925082611e956002846147ad565b9250508080611ea39061483b565b915050611e34565b5091979650505050505050565b60105481565b600a5481565b6001600160a01b0383166000908152600f602052604090205415611efa5760405162461bcd60e51b815260040161094390613db8565b611f3a8383838080601f016020809104026020016040519081016040528093929190818152602001838380828437600092019190915250612ec492505050565b601080546001600160a01b0385166000908152600f60205260408120829055909190611f6583614820565b9190505550505050565b604051630926f44b60e31b815260009073__$223301b175b06473d424a7afc957d4e96c$__90634937a25890611fa9908590600401613d02565b60206040518083038186803b158015611fc157600080fd5b505af4158015611fd5573d6000803e3d6000fd5b505050506040513d601f19601f82011682018060405250810190611197919061387b565b336000818152600e602052604081208054919055906120189082612f56565b50565b7f000000000000000000000000000000000000000000000000000000000000000081565b60116020526000908152604090205460ff1681565b336000908152600f60205260409020546120805760405162461bcd60e51b815260040161094390613f31565b33600090815260176020526040902055565b60408051600480825260a082019092526000918291906020820160808036833701905050905085816000815181106120da57634e487b7160e01b600052603260045260246000fd5b602002602001018181525050848160018151811061210857634e487b7160e01b600052603260045260246000fd5b602002602001018181525050838160028151811061213657634e487b7160e01b600052603260045260246000fd5b60200260200101818152505060005b81518160ff1610156121ba576000805160206148b2833981519152828260ff168151811061218357634e487b7160e01b600052603260045260246000fd5b6020026020010151106121a85760405162461bcd60e51b8152600401610943906144c4565b806121b28161483b565b915050612145565b506121c361331f565b6121cc846128d3565b60408085018290526020850183905283855260035490516361971b8760e11b81526001600160a01b039091169363c32e370e93611abe9391929091908890600401613cbb565b7f000000000000000000000000000000000000000000000000000000000000000081565b600d8054600091829055906120189082612f56565b60185460ff808216916101008104821691620100008204811691630100000090041684565b60176020526000908152604090205481565b60008481526015602052604090205460ff16156122b15760405162461bcd60e51b81526004016109439061422d565b60006122e885858585600880602002604051908101604052809291908260086020028082843760009201919091525061193e915050565b9050806123075760405162461bcd60e51b815260040161094390613dfe565b50505060009182526015602090815260408084208054600160ff199182168117909255938552601690925290922080549091169091179055565b7f000000000000000000000000000000000000000000000000000000000000000081565b60095481565b600e6020526000908152604090205481565b7f000000000000000000000000000000000000000000000000000000000000000081565b60085481565b6000806123d57f000000000000000000000000000000000000000000000000000000000000000060036147e0565b6123e0906004614788565b60ff166001600160401b0381111561240857634e487b7160e01b600052604160045260246000fd5b604051908082528060200260200182016040528015612431578160200160208202803683370190505b5090508c8160008151811061245657634e487b7160e01b600052603260045260246000fd5b60200260200101818152505060005b7f000000000000000000000000000000000000000000000000000000000000000060ff168160ff161015612509578c8c8260ff168181106124b657634e487b7160e01b600052603260045260246000fd5b90506020020135828260016124cb9190614788565b60ff16815181106124ec57634e487b7160e01b600052603260045260246000fd5b6020908102919091010152806125018161483b565b915050612465565b5089816125377f00000000000000000000000000000000000000000000000000000000000000006001614788565b60ff168151811061255857634e487b7160e01b600052603260045260246000fd5b60200260200101818152505060005b7f000000000000000000000000000000000000000000000000000000000000000060ff168160ff1610156126365789898260ff168181106125b857634e487b7160e01b600052603260045260246000fd5b9050602002013582827f000000000000000000000000000000000000000000000000000000000000000060026125ee9190614788565b6125f89190614788565b60ff168151811061261957634e487b7160e01b600052603260045260246000fd5b60209081029190910101528061262e8161483b565b915050612567565b5086816126647f000000000000000000000000000000000000000000000000000000000000000060026147e0565b61266f906002614788565b60ff168151811061269057634e487b7160e01b600052603260045260246000fd5b60200260200101818152505060005b7f000000000000000000000000000000000000000000000000000000000000000060ff168160ff1610156127795786868260ff168181106126f057634e487b7160e01b600052603260045260246000fd5b9050602002013582827f0000000000000000000000000000000000000000000000000000000000000000600261272691906147e0565b612731906003614788565b61273b9190614788565b60ff168151811061275c57634e487b7160e01b600052603260045260246000fd5b6020908102919091010152806127718161483b565b91505061269f565b5083816127a77f000000000000000000000000000000000000000000000000000000000000000060036147e0565b6127b2906003614788565b60ff16815181106127d357634e487b7160e01b600052603260045260246000fd5b60200260200101818152505060005b81518160ff161015612857576000805160206148b2833981519152828260ff168151811061282057634e487b7160e01b600052603260045260246000fd5b6020026020010151106128455760405162461bcd60e51b8152600401610943906144c4565b8061284f8161483b565b9150506127e2565b5061286061331f565b6040805161010081810190925261288f91869060089083908390808284376000920191909152506128d3915050565b6040808501829052602085018390528385526004805491516361971b8760e11b81526001600160a01b039092169463c32e370e946110ab9491939092899101613cbb565b6128db6133a4565b6128e36133c2565b6128eb6133a4565b50506040805180820182528351815260208085015181830152825160808082018552868501518286019081526060808901519084015282528451808601865290870151815260a08701518184015281830152835180850190945260c0860151845260e0909501519083015293909150565b60008281526015602052604090205460ff16151560011461298f5760405162461bcd60e51b81526004016109439061458d565b60006122e8858585856008806020026040519081016040528092919082600860200280828437600092019190915250612092915050565b60408051600380825260808201909252600091829190602082016060803683370190505090508581600081518110612a0e57634e487b7160e01b600052603260045260246000fd5b6020026020010181815250508481600181518110612a3c57634e487b7160e01b600052603260045260246000fd5b6020026020010181815250508381600281518110612a6a57634e487b7160e01b600052603260045260246000fd5b60200260200101818152505060005b81518160ff161015612aee576000805160206148b2833981519152828260ff1681518110612ab757634e487b7160e01b600052603260045260246000fd5b602002602001015110612adc5760405162461bcd60e51b8152600401610943906144c4565b80612ae68161483b565b915050612a79565b50612af761331f565b612b00846128d3565b60408085018290526020850183905283855260015490516361971b8760e11b81526001600160a01b039091169363c32e370e93611abe9391929091908890600401613cbb565b612b868585858080601f016020809104026020016040519081016040528093929190818152602001838380828437600092019190915250612ec492505050565b6001600160a01b0385166000908152600f6020526040902054612bbb5760405162461bcd60e51b815260040161094390613f31565b6001600160a01b0385166000908152600f6020526040902054823514612bf35760405162461bcd60e51b81526004016109439061448d565b60008181526011602052604090205460ff1615612c225760405162461bcd60e51b8152600401610943906141d9565b7f00000000000000000000000000000000000000000000000000000000000000003414612c615760405162461bcd60e51b815260040161094390614000565b600d54612c6e9034612c83565b600d55612c7c858383612cc6565b5050505050565b6000612c8f8284614770565b9392505050565b600081831115612ca7575080611197565b5081611197565b6000612c8f8284614809565b6000612c8f82846147c1565b600081815260126020526040812054612d1c5750600780546000908152601460208181526040808420805480865260019091018352818520879055945484529190528120805491612d1683614820565b91905055505b6000805160206148b2833981519152836020013510612d4d5760405162461bcd60e51b8152600401610943906142ed565b6000805160206148b2833981519152836040013510612d7e5760405162461bcd60e51b81526004016109439061444b565b6000805160206148b2833981519152836060013510612daf5760405162461bcd60e51b815260040161094390613e6c565b826080013560011480612dc457506080830135155b612de05760405162461bcd60e51b8152600401610943906145f5565b612e0e612dfa612df5368690038601866137a8565b612ff2565b600084815260126020526040902054611b23565b60008381526012602090815260408083209390935560139052908120805460019290612e3e90849060ff16614788565b92506101000a81548160ff021916908360ff1602179055506000805160206148d2833981519152604051612e719061441d565b60405180910390a1836001600160a01b0316826007547f45dd8e7adcda0ec776335bbed91fbf1ad3a3b08079de3b4a8ea59c50935e9ec086604051612eb69190614637565b60405180910390a450505050565b60008230604051602001612ed9929190613c06565b60405160208183030381529060405280519060200120604051602001612eff9190613c2d565b604051602081830303815290604052805190602001209050826001600160a01b0316612f2b8284613031565b6001600160a01b031614612f515760405162461bcd60e51b815260040161094390613ee7565b505050565b80471015612f765760405162461bcd60e51b815260040161094390614159565b6000826001600160a01b031682604051612f8f90613c5e565b60006040518083038185875af1925050503d8060008114612fcc576040519150601f19603f3d011682016040523d82523d6000602084013e612fd1565b606091505b5050905080612f515760405162461bcd60e51b8152600401610943906140ba565b6000612ffc613301565b8251815260208084015190820152604080840151908201526060808401519082015260808084015190820152612c8f81611f6f565b60008060006130408585613055565b9150915061304d816130c5565b509392505050565b60008082516041141561308c5760208301516040840151606085015160001a613080878285856131f2565b945094505050506130be565b8251604014156130b657602083015160408401516130ab8683836132d2565b9350935050506130be565b506000905060025b9250929050565b60008160048111156130e757634e487b7160e01b600052602160045260246000fd5b14156130f257612018565b600181600481111561311457634e487b7160e01b600052602160045260246000fd5b14156131325760405162461bcd60e51b815260040161094390613d81565b600281600481111561315457634e487b7160e01b600052602160045260246000fd5b14156131725760405162461bcd60e51b815260040161094390613e35565b600381600481111561319457634e487b7160e01b600052602160045260246000fd5b14156131b25760405162461bcd60e51b815260040161094390614117565b60048160048111156131d457634e487b7160e01b600052602160045260246000fd5b14156120185760405162461bcd60e51b81526004016109439061432f565b6000807f7fffffffffffffffffffffffffffffff5d576e7357a4501ddfe92f46681b20a083111561322957506000905060036132c9565b8460ff16601b1415801561324157508460ff16601c14155b1561325257506000905060046132c9565b6000600187878787604051600081526020016040526040516132779493929190613d63565b6020604051602081039080840390855afa158015613299573d6000803e3d6000fd5b5050604051601f1901519150506001600160a01b0381166132c2576000600192509250506132c9565b9150600090505b94509492505050565b6000806001600160ff1b03831660ff84901c601b016132f3878288856131f2565b935093505050935093915050565b6040518060a001604052806005906020820280368337509192915050565b60405180608001604052806133326133a4565b815260200161333f6133c2565b815260200161334c6133a4565b8152600060209091015290565b604051806101000160405280600081526020016000815260200160008152602001600081526020016133896133ef565b81526020016060815260200160608152602001606081525090565b60405180604001604052806002906020820280368337509192915050565b60405180604001604052806002905b6133d96133a4565b8152602001906001900390816133d15790505090565b6040518061010001604052806008906020820280368337509192915050565b80356001600160a01b03811681146108ec57600080fd5b80610100810183101561119757600080fd5b600082601f830112613447578081fd5b6040516101008082018281106001600160401b038211171561346b5761346b61489b565b604052818482810187101561347e578485fd5b8492505b60088310156134a257803582526001929092019160209182019101613482565b509195945050505050565b60008083601f8401126134be578182fd5b5081356001600160401b038111156134d4578182fd5b60208301915083602080830285010111156130be57600080fd5b60008083601f8401126134ff578182fd5b5081356001600160401b03811115613515578182fd5b6020830191508360208285010111156130be57600080fd5b600060a0828403121561353e578081fd5b50919050565b803560ff811681146108ec57600080fd5b600060208284031215613566578081fd5b612c8f8261340e565b600080600060408486031215613583578182fd5b61358c8461340e565b925060208401356001600160401b038111156135a6578283fd5b6135b2868287016134ee565b9497909650939450505050565b600080600080600061010086880312156135d7578081fd5b6135e08661340e565b945060208601356001600160401b038111156135fa578182fd5b613606888289016134ee565b909550935061361a9050876040880161352d565b9497939650919460e0013592915050565b600060a0828403121561363c578081fd5b82601f83011261364a578081fd5b60405160a081018181106001600160401b038211171561366c5761366c61489b565b604052808360a08101861015613680578384fd5b835b60058110156134a2578135835260209283019290910190600101613682565b600061010082840312156136b3578081fd5b612c8f8383613437565b60008060008060008060008060008060006102208c8e0312156136de578586fd5b8b356001600160401b038111156136f3578687fd5b6136ff8e828f016134ad565b909c509a505060208c0135985060408c0135975060608c0135965060808c0135955060a08c0135945060c08c0135935060e08c013592506101008c0135915061374c8d6101208e01613425565b90509295989b509295989b9093969950565b60006020828403121561376f578081fd5b81518015158114612c8f578182fd5b60008060c08385031215613790578182fd5b61379a848461352d565b9460a0939093013593505050565b600060a082840312156137b9578081fd5b60405160a081018181106001600160401b03821117156137db576137db61489b565b806040525082358152602083013560208201526040830135604082015260608301356060820152608083013560808201528091505092915050565b600060408284031215613827578081fd5b604051604081018181106001600160401b03821117156138495761384961489b565b604052823581526020928301359281019290925250919050565b600060208284031215613874578081fd5b5035919050565b60006020828403121561388c578081fd5b5051919050565b60008060008060008060008060008060006101e08c8e0312156138b4578485fd5b8b359a506001600160401b038060208e013511156138d0578586fd5b6138e08e60208f01358f016134ad565b909b50995060408d01358110156138f5578586fd5b6139058e60408f01358f016134ad565b909950975060608d013581101561391a578586fd5b5061392b8d60608e01358e016134ad565b909650945060808c0135935060a08c0135925060c08c0135915061374c8d60e08e01613425565b60008060008060008060008060008060006101e08c8e031215613973578485fd5b8b359a506001600160401b038060208e0135111561398f578586fd5b61399f8e60208f01358f016134ad565b909b50995060408d0135985060608d01358110156139bb578586fd5b6139cb8e60608f01358f016134ad565b909850965060808d0135955060a08d01358110156139e7578485fd5b506139f88d60a08e01358e016134ad565b909450925060c08c0135915061374c8d60e08e01613425565b60008060408385031215613a23578182fd5b50508035926020909101359150565b6000806000806101608587031215613a48578182fd5b843593506020850135925060408501359150613a678660608701613425565b905092959194509250565b6000806000806101608587031215613a88578182fd5b843593506020850135925060408501359150613a678660608701613437565b60008060008060006101808688031215613abf578283fd5b85359450602086013593506040860135925060608601359150613ae58760808801613425565b90509295509295909350565b60008060408385031215613b03578182fd5b613b0c83613544565b946020939093013593505050565b60008060008060808587031215613b2f578182fd5b613b3885613544565b966020860135965060408601359560600135945092505050565b8060005b6002811015613b8057613b6a848351613b86565b6040939093019260209190910190600101613b56565b50505050565b8060005b6002811015613b80578151845260209384019390910190600101613b8a565b8060005b6008811015613b80578151845260209384019390910190600101613bad565b6000815180845260208085019450808401835b83811015613bfb57815187529582019590820190600101613bdf565b509495945050505050565b6bffffffffffffffffffffffff19606093841b811682529190921b16601482015260280190565b7f19457468657265756d205369676e6564204d6573736167653a0a3332000000008152601c810191909152603c0190565b90565b60408101818360005b6002811015613c89578151835260209283019290910190600101613c6a565b50505092915050565b6101008101613ca18286613b86565b613cae6040830185613b52565b610c1860c0830184613b86565b6000610120613cca8388613b86565b613cd76040840187613b52565b613ce460c0840186613b86565b80610100840152613cf781840185613bcc565b979650505050505050565b60a08101818360005b6005811015613c89578151835260209283019290910190600101613d0b565b600060408252613d3d6040830185613bcc565b8281036020840152613d4f8185613bcc565b95945050505050565b901515815260200190565b93845260ff9290921660208401526040830152606082015260800190565b60208082526018908201527f45434453413a20696e76616c6964207369676e61747572650000000000000000604082015260600190565b60208082526026908201527f556e697265703a2061747465737465722068617320616c72656164792073696760408201526506e65642075760d41b606082015260800190565b6020808252601e908201527f556e697265703a207468652070726f6f66206973206e6f742076616c69640000604082015260600190565b6020808252601f908201527f45434453413a20696e76616c6964207369676e6174757265206c656e67746800604082015260600190565b60208082526024908201527f556e697265703a20696e76616c6964206174746573746174696f6e20677261666040820152636669746960e01b606082015260800190565b6020808252601e908201527f556e697265703a20756e70726f63657373656420757365722073746174650000604082015260600190565b6020808252602a908201527f556e697265703a20696e76616c6964206174746573746572207369676e207570604082015269207369676e617475726560b01b606082015260800190565b60208082526026908201527f556e697265703a20617474657374657220686173206e6f74207369676e6564206040820152651d5c081e595d60d21b606082015260800190565b6020808252601b908201527f556e697265703a2065706f6368206e6f742079657420656e6465640000000000604082015260600190565b60208082526032908201527f436f6d70757465526f6f743a205f747265654c6576656c73206d757374206265604082015271103132ba3bb2b2b710181030b73210191a9b60711b606082015260800190565b6020808252602c908201527f556e697265703a206e6f20617474657374696e6720666565206f7220696e636f60408201526b1c9c9958dd08185b5bdd5b9d60a21b606082015260800190565b6020808252600a9082015269115c1bd8da115b99195960b21b604082015260600190565b6020808252602a908201527f556e697265703a2065706f6368206b6579206c69737420616363657373206f756040820152691d081bd988189bdd5b9960b21b606082015260800190565b6020808252603a908201527f416464726573733a20756e61626c6520746f2073656e642076616c75652c207260408201527f6563697069656e74206d61792068617665207265766572746564000000000000606082015260800190565b60208082526022908201527f45434453413a20696e76616c6964207369676e6174757265202773272076616c604082015261756560f01b606082015260800190565b6020808252601d908201527f416464726573733a20696e73756666696369656e742062616c616e6365000000604082015260600190565b60208082526029908201527f556e697265703a206d6178696d756d206e756d626572206f66207369676e75706040820152681cc81c995858da195960ba1b606082015260800190565b60208082526034908201527f556e697265703a206861736820636861696e206f6620746869732065706f6368604082015273081ad95e481a185cc81899595b881cd9585b195960621b606082015260800190565b60208082526034908201527f556e697265703a20626c696e646564207573657220737461746520686173206260408201527365656e207375626d6974746564206265666f726560601b606082015260800190565b60208082526046908201527f43616e206e6f74207472616e736974696f6e2066726f6d2065706f636820746860408201527f617427732067726561746572206f7220657175616c20746f2063757272656e74606082015265040cae0dec6d60d31b608082015260a00190565b60208082526022908201527f556e697265703a20696e76616c6964206174746573746174696f6e20706f7352604082015261065760f41b606082015260800190565b60208082526022908201527f45434453413a20696e76616c6964207369676e6174757265202776272076616c604082015261756560f01b606082015260800190565b60208082526026908201527f556e697265703a2074686520757365722068617320616c72656164792073696760408201526506e65642075760d41b606082015260800190565b602080825260159082015274155cd95c94dd185d19551c985b9cda5d1a5bdb9959605a1b604082015260600190565b6020808252601e908201527f556e697265703a20756e70726f636573736564206861736820636861696e0000604082015260600190565b602080825260149082015273105d1d195cdd185d1a5bdb94dd589b5a5d1d195960621b604082015260600190565b60208082526022908201527f556e697265703a20696e76616c6964206174746573746174696f6e206e656752604082015261065760f41b606082015260800190565b6020808252601d908201527f556e697265703a206d69736d6174636865642061747465737465724964000000604082015260600190565b6020808252603c908201527f556e697265703a2065616368207075626c6963207369676e616c206d7573742060408201527f6265206c742074686520736e61726b207363616c6172206669656c6400000000606082015260800190565b60208082526028908201527f556e697265703a20696e76616c6964206e756d626572206f662065706b206e756040820152676c6c69666965727360c01b606082015260800190565b6020808252600a90820152690557365725369676e55760b41b604082015260600190565b60208082526042908201527f556e697265703a2070726f63657373696e67206174746573746174696f6e732060408201527f7769746820616e20696e76616c696420626c696e646564207573657220737461606082015261746560f01b608082015260a00190565b60208082526022908201527f556e697265703a20696e76616c6964206174746573746174696f6e207369676e604082015261055760f41b606082015260800190565b600060a082019050823582526020830135602083015260408301356040830152606083013560608301526080830135608083015292915050565b90815260200190565b600083825260406020830152825160408301526020830151606083015260408301516080830152606083015160a083015260808301516146bd60c0840182613ba9565b5060a08301516101e0806101c08501526146db610220850183613bcc565b915060c0850151603f198086850301838701526146f88483613bcc565b935060e08701519250808685030161020087015250506147188282613bcc565b9695505050505050565b93845260208401929092526040830152606082015260800190565b60ff91909116815260200190565b60ff948516815292841660208401529083166040830152909116606082015260800190565b600082198211156147835761478361486f565b500190565b600060ff821660ff84168060ff038211156147a5576147a561486f565b019392505050565b6000826147bc576147bc614885565b500490565b60008160001904831182151516156147db576147db61486f565b500290565b600060ff821660ff84168160ff04811182151516156148015761480161486f565b029392505050565b60008282101561481b5761481b61486f565b500390565b60006000198214156148345761483461486f565b5060010190565b600060ff821660ff8114156148525761485261486f565b60010192915050565b60008261486a5761486a614885565b500690565b634e487b7160e01b600052601160045260246000fd5b634e487b7160e01b600052601260045260246000fd5b634e487b7160e01b600052604160045260246000fdfe30644e72e131a029b85045b68181585d2833e84879b9709143e1f593f00000010dcdd84eeab9fd262751c1bd37b2a03e271f2666bf2525092aab5f34fd72202ba26469706673582212206af8d4f1f4b46df5428b3aa8f9e19f0de278c55fbf3f7d7f960cf8a398d2896a64736f6c63430008000033",
  "linkReferences": {
    "contracts/Poseidon.sol": {
      "PoseidonT3": [
        {
          "length": 20,
          "start": 1234
        },
        {
          "length": 20,
          "start": 9825
        }
      ],
      "PoseidonT6": [
        {
          "length": 20,
          "start": 913
        },
        {
          "length": 20,
          "start": 10908
        }
      ]
    }
  },
  "deployedLinkReferences": {
    "contracts/Poseidon.sol": {
      "PoseidonT3": [
        {
          "length": 20,
          "start": 6982
        }
      ],
      "PoseidonT6": [
        {
          "length": 20,
          "start": 8065
        }
      ]
    }
  }
}