{
  "_format": "hh-sol-artifact-1",
  "contractName": "Unirep",
  "sourceName": "contracts/Unirep.sol",
  "abi": [
    {
      "inputs": [
        {
          "components": [
            {
              "internalType": "uint8",
              "name": "globalStateTreeDepth",
              "type": "uint8"
            },
            {
              "internalType": "uint8",
              "name": "userStateTreeDepth",
              "type": "uint8"
            },
            {
              "internalType": "uint8",
              "name": "epochTreeDepth",
              "type": "uint8"
            }
          ],
          "internalType": "struct UnirepParameters.TreeDepths",
          "name": "_treeDepths",
          "type": "tuple"
        },
        {
          "components": [
            {
              "internalType": "uint256",
              "name": "maxUsers",
              "type": "uint256"
            },
            {
              "internalType": "uint256",
              "name": "maxAttesters",
              "type": "uint256"
            }
          ],
          "internalType": "struct UnirepParameters.MaxValues",
          "name": "_maxValues",
          "type": "tuple"
        },
        {
          "internalType": "contract EpochKeyValidityVerifier",
          "name": "_epkValidityVerifier",
          "type": "address"
        },
        {
          "internalType": "contract StartTransitionVerifier",
          "name": "_startTransitionVerifier",
          "type": "address"
        },
        {
          "internalType": "contract ProcessAttestationsVerifier",
          "name": "_processAttestationsVerifier",
          "type": "address"
        },
        {
          "internalType": "contract UserStateTransitionVerifier",
          "name": "_userStateTransitionVerifier",
          "type": "address"
        },
        {
          "internalType": "contract ReputationVerifier",
          "name": "_reputationVerifier",
          "type": "address"
        },
        {
          "internalType": "contract UserSignUpVerifier",
          "name": "_userSignUpVerifier",
          "type": "address"
        },
        {
          "internalType": "uint8",
          "name": "_numEpochKeyNoncePerEpoch",
          "type": "uint8"
        },
        {
          "internalType": "uint8",
          "name": "_maxReputationBudget",
          "type": "uint8"
        },
        {
          "internalType": "uint256",
          "name": "_epochLength",
          "type": "uint256"
        },
        {
          "internalType": "uint256",
          "name": "_attestingFee",
          "type": "uint256"
        }
      ],
      "stateMutability": "nonpayable",
      "type": "constructor"
    },
    {
      "anonymous": false,
      "inputs": [
        {
          "indexed": true,
          "internalType": "uint256",
          "name": "_epoch",
          "type": "uint256"
        },
        {
          "indexed": true,
          "internalType": "uint256",
          "name": "_epochKey",
          "type": "uint256"
        },
        {
          "indexed": true,
          "internalType": "address",
          "name": "_attester",
          "type": "address"
        },
        {
          "components": [
            {
              "internalType": "uint256",
              "name": "attesterId",
              "type": "uint256"
            },
            {
              "internalType": "uint256",
              "name": "posRep",
              "type": "uint256"
            },
            {
              "internalType": "uint256",
              "name": "negRep",
              "type": "uint256"
            },
            {
              "internalType": "uint256",
              "name": "graffiti",
              "type": "uint256"
            },
            {
              "internalType": "uint256",
              "name": "signUp",
              "type": "uint256"
            }
          ],
          "indexed": false,
          "internalType": "struct DomainObjs.Attestation",
          "name": "attestation",
          "type": "tuple"
        },
        {
          "indexed": false,
          "internalType": "uint256",
          "name": "_proofIndex",
          "type": "uint256"
        }
      ],
      "name": "AttestationSubmitted",
      "type": "event"
    },
    {
      "anonymous": false,
      "inputs": [
        {
          "indexed": true,
          "internalType": "uint256",
          "name": "_epoch",
          "type": "uint256"
        }
      ],
      "name": "EpochEnded",
      "type": "event"
    },
    {
      "anonymous": false,
      "inputs": [
        {
          "indexed": true,
          "internalType": "uint256",
          "name": "_proofIndex",
          "type": "uint256"
        },
        {
          "components": [
            {
              "internalType": "uint256",
              "name": "fromGlobalStateTree",
              "type": "uint256"
            },
            {
              "internalType": "uint256",
              "name": "epoch",
              "type": "uint256"
            },
            {
              "internalType": "uint256",
              "name": "epochKey",
              "type": "uint256"
            },
            {
              "internalType": "uint256[8]",
              "name": "proof",
              "type": "uint256[8]"
            }
          ],
          "indexed": false,
          "internalType": "struct UnirepParameters.EpochKeyProofRelated",
          "name": "epochKeyProofData",
          "type": "tuple"
        }
      ],
      "name": "EpochKeyProof",
      "type": "event"
    },
    {
      "anonymous": false,
      "inputs": [
        {
          "indexed": true,
          "internalType": "uint256",
          "name": "_epoch",
          "type": "uint256"
        },
        {
          "indexed": false,
          "internalType": "uint256",
          "name": "_hashedLeaf",
          "type": "uint256"
        },
        {
          "indexed": false,
          "internalType": "uint256",
          "name": "_proofIndex",
          "type": "uint256"
        }
      ],
      "name": "NewGSTLeafInserted",
      "type": "event"
    },
    {
      "anonymous": false,
      "inputs": [
        {
          "indexed": true,
          "internalType": "uint256",
          "name": "_outputBlindedUserState",
          "type": "uint256"
        },
        {
          "indexed": true,
          "internalType": "uint256",
          "name": "_outputBlindedHashChain",
          "type": "uint256"
        },
        {
          "indexed": false,
          "internalType": "uint256",
          "name": "_inputBlindedUserState",
          "type": "uint256"
        },
        {
          "indexed": false,
          "internalType": "uint256[8]",
          "name": "_proof",
          "type": "uint256[8]"
        }
      ],
      "name": "ProcessedAttestationsProof",
      "type": "event"
    },
    {
      "anonymous": false,
      "inputs": [
        {
          "indexed": true,
          "internalType": "uint256",
          "name": "_proofIndex",
          "type": "uint256"
        },
        {
          "components": [
            {
              "internalType": "uint256[]",
              "name": "repNullifiers",
              "type": "uint256[]"
            },
            {
              "internalType": "uint256",
              "name": "epoch",
              "type": "uint256"
            },
            {
              "internalType": "uint256",
              "name": "epochKey",
              "type": "uint256"
            },
            {
              "internalType": "uint256",
              "name": "globalStateTree",
              "type": "uint256"
            },
            {
              "internalType": "uint256",
              "name": "attesterId",
              "type": "uint256"
            },
            {
              "internalType": "uint256",
              "name": "proveReputationAmount",
              "type": "uint256"
            },
            {
              "internalType": "uint256",
              "name": "minRep",
              "type": "uint256"
            },
            {
              "internalType": "uint256",
              "name": "proveGraffiti",
              "type": "uint256"
            },
            {
              "internalType": "uint256",
              "name": "graffitiPreImage",
              "type": "uint256"
            },
            {
              "internalType": "uint256[8]",
              "name": "proof",
              "type": "uint256[8]"
            }
          ],
          "indexed": false,
          "internalType": "struct UnirepParameters.ReputationProofRelated",
          "name": "reputationProofData",
          "type": "tuple"
        }
      ],
      "name": "ReputationNullifierProof",
      "type": "event"
    },
    {
      "anonymous": false,
      "inputs": [
        {
          "indexed": true,
          "internalType": "uint256",
          "name": "_epoch",
          "type": "uint256"
        },
        {
          "indexed": false,
          "internalType": "string",
          "name": "_event",
          "type": "string"
        }
      ],
      "name": "Sequencer",
      "type": "event"
    },
    {
      "anonymous": false,
      "inputs": [
        {
          "indexed": true,
          "internalType": "uint256",
          "name": "_blindedUserState",
          "type": "uint256"
        },
        {
          "indexed": true,
          "internalType": "uint256",
          "name": "_blindedHashChain",
          "type": "uint256"
        },
        {
          "indexed": true,
          "internalType": "uint256",
          "name": "_GSTRoot",
          "type": "uint256"
        },
        {
          "indexed": false,
          "internalType": "uint256[8]",
          "name": "_proof",
          "type": "uint256[8]"
        }
      ],
      "name": "StartedTransitionProof",
      "type": "event"
    },
    {
      "anonymous": false,
      "inputs": [
        {
          "indexed": true,
          "internalType": "uint256",
          "name": "_proofIndex",
          "type": "uint256"
        },
        {
          "indexed": false,
          "internalType": "uint256",
          "name": "_hashedLeaf",
          "type": "uint256"
        },
        {
          "indexed": false,
          "internalType": "uint256",
          "name": "_attesterId",
          "type": "uint256"
        },
        {
          "indexed": false,
          "internalType": "uint256",
          "name": "_airdropAmount",
          "type": "uint256"
        }
      ],
      "name": "UserSignUp",
      "type": "event"
    },
    {
      "anonymous": false,
      "inputs": [
        {
          "indexed": true,
          "internalType": "uint256",
          "name": "_proofIndex",
          "type": "uint256"
        },
        {
          "components": [
            {
              "internalType": "uint256",
              "name": "epoch",
              "type": "uint256"
            },
            {
              "internalType": "uint256",
              "name": "epochKey",
              "type": "uint256"
            },
            {
              "internalType": "uint256",
              "name": "globalStateTree",
              "type": "uint256"
            },
            {
              "internalType": "uint256",
              "name": "attesterId",
              "type": "uint256"
            },
            {
              "internalType": "uint256[8]",
              "name": "proof",
              "type": "uint256[8]"
            }
          ],
          "indexed": false,
          "internalType": "struct UnirepParameters.SignUpProofRelated",
          "name": "signUpProofData",
          "type": "tuple"
        }
      ],
      "name": "UserSignedUpProof",
      "type": "event"
    },
    {
      "anonymous": false,
      "inputs": [
        {
          "indexed": true,
          "internalType": "uint256",
          "name": "_proofIndex",
          "type": "uint256"
        },
        {
          "components": [
            {
              "internalType": "uint256",
              "name": "newGlobalStateTreeLeaf",
              "type": "uint256"
            },
            {
              "internalType": "uint256[]",
              "name": "epkNullifiers",
              "type": "uint256[]"
            },
            {
              "internalType": "uint256",
              "name": "transitionFromEpoch",
              "type": "uint256"
            },
            {
              "internalType": "uint256[]",
              "name": "blindedUserStates",
              "type": "uint256[]"
            },
            {
              "internalType": "uint256",
              "name": "fromGlobalStateTree",
              "type": "uint256"
            },
            {
              "internalType": "uint256[]",
              "name": "blindedHashChains",
              "type": "uint256[]"
            },
            {
              "internalType": "uint256",
              "name": "fromEpochTree",
              "type": "uint256"
            },
            {
              "internalType": "uint256[8]",
              "name": "proof",
              "type": "uint256[8]"
            }
          ],
          "indexed": false,
          "internalType": "struct UnirepParameters.UserTransitionedRelated",
          "name": "userTransitionedData",
          "type": "tuple"
        }
      ],
      "name": "UserStateTransitionProof",
      "type": "event"
    },
    {
      "inputs": [
        {
          "internalType": "address",
          "name": "",
          "type": "address"
        }
      ],
      "name": "airdropAmount",
      "outputs": [
        {
          "internalType": "uint256",
          "name": "",
          "type": "uint256"
        }
      ],
      "stateMutability": "view",
      "type": "function"
    },
    {
      "inputs": [
        {
          "components": [
            {
              "internalType": "uint256",
              "name": "epoch",
              "type": "uint256"
            },
            {
              "internalType": "uint256",
              "name": "epochKey",
              "type": "uint256"
            },
            {
              "internalType": "uint256",
              "name": "globalStateTree",
              "type": "uint256"
            },
            {
              "internalType": "uint256",
              "name": "attesterId",
              "type": "uint256"
            },
            {
              "internalType": "uint256[8]",
              "name": "proof",
              "type": "uint256[8]"
            }
          ],
          "internalType": "struct UnirepParameters.SignUpProofRelated",
          "name": "signUpProofData",
          "type": "tuple"
        }
      ],
      "name": "airdropEpochKey",
      "outputs": [],
      "stateMutability": "payable",
      "type": "function"
    },
    {
      "inputs": [],
      "name": "attesterSignUp",
      "outputs": [],
      "stateMutability": "nonpayable",
      "type": "function"
    },
    {
      "inputs": [
        {
          "internalType": "address",
          "name": "attester",
          "type": "address"
        },
        {
          "internalType": "bytes",
          "name": "signature",
          "type": "bytes"
        }
      ],
      "name": "attesterSignUpViaRelayer",
      "outputs": [],
      "stateMutability": "nonpayable",
      "type": "function"
    },
    {
      "inputs": [
        {
          "internalType": "address",
          "name": "",
          "type": "address"
        }
      ],
      "name": "attesters",
      "outputs": [
        {
          "internalType": "uint256",
          "name": "",
          "type": "uint256"
        }
      ],
      "stateMutability": "view",
      "type": "function"
    },
    {
      "inputs": [],
      "name": "attestingFee",
      "outputs": [
        {
          "internalType": "uint256",
          "name": "",
          "type": "uint256"
        }
      ],
      "stateMutability": "view",
      "type": "function"
    },
    {
      "inputs": [],
      "name": "beginEpochTransition",
      "outputs": [],
      "stateMutability": "nonpayable",
      "type": "function"
    },
    {
      "inputs": [],
      "name": "burnAttestingFee",
      "outputs": [],
      "stateMutability": "nonpayable",
      "type": "function"
    },
    {
      "inputs": [
        {
          "internalType": "uint256",
          "name": "_leafIndex",
          "type": "uint256"
        },
        {
          "internalType": "uint256",
          "name": "_leafValue",
          "type": "uint256"
        }
      ],
      "name": "calcAirdropUSTRoot",
      "outputs": [
        {
          "internalType": "uint256",
          "name": "",
          "type": "uint256"
        }
      ],
      "stateMutability": "view",
      "type": "function"
    },
    {
      "inputs": [],
      "name": "collectEpochTransitionCompensation",
      "outputs": [],
      "stateMutability": "nonpayable",
      "type": "function"
    },
    {
      "inputs": [],
      "name": "collectedAttestingFee",
      "outputs": [
        {
          "internalType": "uint256",
          "name": "",
          "type": "uint256"
        }
      ],
      "stateMutability": "view",
      "type": "function"
    },
    {
      "inputs": [
        {
          "internalType": "uint8",
          "name": "_treeLevels",
          "type": "uint8"
        },
        {
          "internalType": "uint256",
          "name": "_zeroValue",
          "type": "uint256"
        }
      ],
      "name": "computeEmptyRoot",
      "outputs": [
        {
          "internalType": "uint256",
          "name": "",
          "type": "uint256"
        }
      ],
      "stateMutability": "pure",
      "type": "function"
    },
    {
      "inputs": [
        {
          "internalType": "uint8",
          "name": "_treeLevels",
          "type": "uint8"
        },
        {
          "internalType": "uint256",
          "name": "_leafIndex",
          "type": "uint256"
        },
        {
          "internalType": "uint256",
          "name": "_leafValue",
          "type": "uint256"
        },
        {
          "internalType": "uint256",
          "name": "_zeroValue",
          "type": "uint256"
        }
      ],
      "name": "computeOneNonZeroLeafRoot",
      "outputs": [
        {
          "internalType": "uint256",
          "name": "",
          "type": "uint256"
        }
      ],
      "stateMutability": "pure",
      "type": "function"
    },
    {
      "inputs": [],
      "name": "currentEpoch",
      "outputs": [
        {
          "internalType": "uint256",
          "name": "",
          "type": "uint256"
        }
      ],
      "stateMutability": "view",
      "type": "function"
    },
    {
      "inputs": [],
      "name": "emptyGlobalStateTreeRoot",
      "outputs": [
        {
          "internalType": "uint256",
          "name": "",
          "type": "uint256"
        }
      ],
      "stateMutability": "view",
      "type": "function"
    },
    {
      "inputs": [],
      "name": "emptyUserStateRoot",
      "outputs": [
        {
          "internalType": "uint256",
          "name": "",
          "type": "uint256"
        }
      ],
      "stateMutability": "view",
      "type": "function"
    },
    {
      "inputs": [],
      "name": "epochLength",
      "outputs": [
        {
          "internalType": "uint256",
          "name": "",
          "type": "uint256"
        }
      ],
      "stateMutability": "view",
      "type": "function"
    },
    {
      "inputs": [
        {
          "internalType": "address",
          "name": "",
          "type": "address"
        }
      ],
      "name": "epochTransitionCompensation",
      "outputs": [
        {
          "internalType": "uint256",
          "name": "",
          "type": "uint256"
        }
      ],
      "stateMutability": "view",
      "type": "function"
    },
    {
      "inputs": [
        {
          "internalType": "uint256",
          "name": "",
          "type": "uint256"
        }
      ],
      "name": "hasUserSignedUp",
      "outputs": [
        {
          "internalType": "bool",
          "name": "",
          "type": "bool"
        }
      ],
      "stateMutability": "view",
      "type": "function"
    },
    {
      "inputs": [
        {
          "internalType": "uint256[5]",
          "name": "array",
          "type": "uint256[5]"
        }
      ],
      "name": "hash5",
      "outputs": [
        {
          "internalType": "uint256",
          "name": "",
          "type": "uint256"
        }
      ],
      "stateMutability": "pure",
      "type": "function"
    },
    {
      "inputs": [
        {
          "internalType": "uint256",
          "name": "airdropPosRep",
          "type": "uint256"
        }
      ],
      "name": "hashAirdroppedLeaf",
      "outputs": [
        {
          "internalType": "uint256",
          "name": "",
          "type": "uint256"
        }
      ],
      "stateMutability": "pure",
      "type": "function"
    },
    {
      "inputs": [
        {
          "internalType": "uint256",
          "name": "_left",
          "type": "uint256"
        },
        {
          "internalType": "uint256",
          "name": "_right",
          "type": "uint256"
        }
      ],
      "name": "hashLeftRight",
      "outputs": [
        {
          "internalType": "uint256",
          "name": "",
          "type": "uint256"
        }
      ],
      "stateMutability": "pure",
      "type": "function"
    },
    {
      "inputs": [
        {
          "components": [
            {
              "internalType": "uint256",
              "name": "identityCommitment",
              "type": "uint256"
            },
            {
              "internalType": "uint256",
              "name": "userStateRoot",
              "type": "uint256"
            }
          ],
          "internalType": "struct DomainObjs.StateLeaf",
          "name": "_stateLeaf",
          "type": "tuple"
        }
      ],
      "name": "hashStateLeaf",
      "outputs": [
        {
          "internalType": "uint256",
          "name": "",
          "type": "uint256"
        }
      ],
      "stateMutability": "pure",
      "type": "function"
    },
    {
      "inputs": [],
      "name": "hashedBlankStateLeaf",
      "outputs": [
        {
          "internalType": "uint256",
          "name": "",
          "type": "uint256"
        }
      ],
      "stateMutability": "view",
      "type": "function"
    },
    {
      "inputs": [],
      "name": "latestEpochTransitionTime",
      "outputs": [
        {
          "internalType": "uint256",
          "name": "",
          "type": "uint256"
        }
      ],
      "stateMutability": "view",
      "type": "function"
    },
    {
      "inputs": [],
      "name": "maxAttesters",
      "outputs": [
        {
          "internalType": "uint256",
          "name": "",
          "type": "uint256"
        }
      ],
      "stateMutability": "view",
      "type": "function"
    },
    {
      "inputs": [],
      "name": "maxReputationBudget",
      "outputs": [
        {
          "internalType": "uint8",
          "name": "",
          "type": "uint8"
        }
      ],
      "stateMutability": "view",
      "type": "function"
    },
    {
      "inputs": [],
      "name": "maxUsers",
      "outputs": [
        {
          "internalType": "uint256",
          "name": "",
          "type": "uint256"
        }
      ],
      "stateMutability": "view",
      "type": "function"
    },
    {
      "inputs": [],
      "name": "nextAttesterId",
      "outputs": [
        {
          "internalType": "uint256",
          "name": "",
          "type": "uint256"
        }
      ],
      "stateMutability": "view",
      "type": "function"
    },
    {
      "inputs": [],
      "name": "numEpochKeyNoncePerEpoch",
      "outputs": [
        {
          "internalType": "uint8",
          "name": "",
          "type": "uint8"
        }
      ],
      "stateMutability": "view",
      "type": "function"
    },
    {
      "inputs": [],
      "name": "numUserSignUps",
      "outputs": [
        {
          "internalType": "uint256",
          "name": "",
          "type": "uint256"
        }
      ],
      "stateMutability": "view",
      "type": "function"
    },
    {
      "inputs": [
        {
          "internalType": "uint256",
          "name": "_outputBlindedUserState",
          "type": "uint256"
        },
        {
          "internalType": "uint256",
          "name": "_outputBlindedHashChain",
          "type": "uint256"
        },
        {
          "internalType": "uint256",
          "name": "_inputBlindedUserState",
          "type": "uint256"
        },
        {
          "internalType": "uint256[8]",
          "name": "_proof",
          "type": "uint256[8]"
        }
      ],
      "name": "processAttestations",
      "outputs": [],
      "stateMutability": "nonpayable",
      "type": "function"
    },
    {
      "inputs": [
        {
          "internalType": "uint256",
          "name": "_airdropAmount",
          "type": "uint256"
        }
      ],
      "name": "setAirdropAmount",
      "outputs": [],
      "stateMutability": "nonpayable",
      "type": "function"
    },
    {
      "inputs": [
        {
          "components": [
            {
              "internalType": "uint256[]",
              "name": "repNullifiers",
              "type": "uint256[]"
            },
            {
              "internalType": "uint256",
              "name": "epoch",
              "type": "uint256"
            },
            {
              "internalType": "uint256",
              "name": "epochKey",
              "type": "uint256"
            },
            {
              "internalType": "uint256",
              "name": "globalStateTree",
              "type": "uint256"
            },
            {
              "internalType": "uint256",
              "name": "attesterId",
              "type": "uint256"
            },
            {
              "internalType": "uint256",
              "name": "proveReputationAmount",
              "type": "uint256"
            },
            {
              "internalType": "uint256",
              "name": "minRep",
              "type": "uint256"
            },
            {
              "internalType": "uint256",
              "name": "proveGraffiti",
              "type": "uint256"
            },
            {
              "internalType": "uint256",
              "name": "graffitiPreImage",
              "type": "uint256"
            },
            {
              "internalType": "uint256[8]",
              "name": "proof",
              "type": "uint256[8]"
            }
          ],
          "internalType": "struct UnirepParameters.ReputationProofRelated",
          "name": "reputationProofData",
          "type": "tuple"
        }
      ],
      "name": "spendReputation",
      "outputs": [],
      "stateMutability": "payable",
      "type": "function"
    },
    {
      "inputs": [
        {
          "internalType": "uint256",
          "name": "_blindedUserState",
          "type": "uint256"
        },
        {
          "internalType": "uint256",
          "name": "_blindedHashChain",
          "type": "uint256"
        },
        {
          "internalType": "uint256",
          "name": "_GSTRoot",
          "type": "uint256"
        },
        {
          "internalType": "uint256[8]",
          "name": "_proof",
          "type": "uint256[8]"
        }
      ],
      "name": "startUserStateTransition",
      "outputs": [],
      "stateMutability": "nonpayable",
      "type": "function"
    },
    {
      "inputs": [
        {
          "components": [
            {
              "internalType": "uint256",
              "name": "attesterId",
              "type": "uint256"
            },
            {
              "internalType": "uint256",
              "name": "posRep",
              "type": "uint256"
            },
            {
              "internalType": "uint256",
              "name": "negRep",
              "type": "uint256"
            },
            {
              "internalType": "uint256",
              "name": "graffiti",
              "type": "uint256"
            },
            {
              "internalType": "uint256",
              "name": "signUp",
              "type": "uint256"
            }
          ],
          "internalType": "struct DomainObjs.Attestation",
          "name": "attestation",
          "type": "tuple"
        },
        {
          "components": [
            {
              "internalType": "uint256",
              "name": "fromGlobalStateTree",
              "type": "uint256"
            },
            {
              "internalType": "uint256",
              "name": "epoch",
              "type": "uint256"
            },
            {
              "internalType": "uint256",
              "name": "epochKey",
              "type": "uint256"
            },
            {
              "internalType": "uint256[8]",
              "name": "proof",
              "type": "uint256[8]"
            }
          ],
          "internalType": "struct UnirepParameters.EpochKeyProofRelated",
          "name": "epochKeyProofData",
          "type": "tuple"
        }
      ],
      "name": "submitAttestation",
      "outputs": [],
      "stateMutability": "payable",
      "type": "function"
    },
    {
      "inputs": [
        {
          "internalType": "address",
          "name": "attester",
          "type": "address"
        },
        {
          "internalType": "bytes",
          "name": "signature",
          "type": "bytes"
        },
        {
          "components": [
            {
              "internalType": "uint256",
              "name": "attesterId",
              "type": "uint256"
            },
            {
              "internalType": "uint256",
              "name": "posRep",
              "type": "uint256"
            },
            {
              "internalType": "uint256",
              "name": "negRep",
              "type": "uint256"
            },
            {
              "internalType": "uint256",
              "name": "graffiti",
              "type": "uint256"
            },
            {
              "internalType": "uint256",
              "name": "signUp",
              "type": "uint256"
            }
          ],
          "internalType": "struct DomainObjs.Attestation",
          "name": "attestation",
          "type": "tuple"
        },
        {
          "components": [
            {
              "internalType": "uint256",
              "name": "fromGlobalStateTree",
              "type": "uint256"
            },
            {
              "internalType": "uint256",
              "name": "epoch",
              "type": "uint256"
            },
            {
              "internalType": "uint256",
              "name": "epochKey",
              "type": "uint256"
            },
            {
              "internalType": "uint256[8]",
              "name": "proof",
              "type": "uint256[8]"
            }
          ],
          "internalType": "struct UnirepParameters.EpochKeyProofRelated",
          "name": "epochKeyProofData",
          "type": "tuple"
        }
      ],
      "name": "submitAttestationViaRelayer",
      "outputs": [],
      "stateMutability": "payable",
      "type": "function"
    },
    {
      "inputs": [],
      "name": "treeDepths",
      "outputs": [
        {
          "internalType": "uint8",
          "name": "globalStateTreeDepth",
          "type": "uint8"
        },
        {
          "internalType": "uint8",
          "name": "userStateTreeDepth",
          "type": "uint8"
        },
        {
          "internalType": "uint8",
          "name": "epochTreeDepth",
          "type": "uint8"
        }
      ],
      "stateMutability": "view",
      "type": "function"
    },
    {
      "inputs": [
        {
          "internalType": "uint256[8]",
          "name": "_proof",
          "type": "uint256[8]"
        }
      ],
      "name": "unpackProof",
      "outputs": [
        {
          "internalType": "uint256[2]",
          "name": "",
          "type": "uint256[2]"
        },
        {
          "internalType": "uint256[2][2]",
          "name": "",
          "type": "uint256[2][2]"
        },
        {
          "internalType": "uint256[2]",
          "name": "",
          "type": "uint256[2]"
        }
      ],
      "stateMutability": "pure",
      "type": "function"
    },
    {
      "inputs": [
        {
          "components": [
            {
              "internalType": "uint256",
              "name": "newGlobalStateTreeLeaf",
              "type": "uint256"
            },
            {
              "internalType": "uint256[]",
              "name": "epkNullifiers",
              "type": "uint256[]"
            },
            {
              "internalType": "uint256",
              "name": "transitionFromEpoch",
              "type": "uint256"
            },
            {
              "internalType": "uint256[]",
              "name": "blindedUserStates",
              "type": "uint256[]"
            },
            {
              "internalType": "uint256",
              "name": "fromGlobalStateTree",
              "type": "uint256"
            },
            {
              "internalType": "uint256[]",
              "name": "blindedHashChains",
              "type": "uint256[]"
            },
            {
              "internalType": "uint256",
              "name": "fromEpochTree",
              "type": "uint256"
            },
            {
              "internalType": "uint256[8]",
              "name": "proof",
              "type": "uint256[8]"
            }
          ],
          "internalType": "struct UnirepParameters.UserTransitionedRelated",
          "name": "userTransitionedData",
          "type": "tuple"
        }
      ],
      "name": "updateUserStateRoot",
      "outputs": [],
      "stateMutability": "nonpayable",
      "type": "function"
    },
    {
      "inputs": [
        {
          "internalType": "uint256",
          "name": "_identityCommitment",
          "type": "uint256"
        }
      ],
      "name": "userSignUp",
      "outputs": [],
      "stateMutability": "nonpayable",
      "type": "function"
    },
    {
      "inputs": [
        {
          "internalType": "uint256",
          "name": "_globalStateTree",
          "type": "uint256"
        },
        {
          "internalType": "uint256",
          "name": "_epoch",
          "type": "uint256"
        },
        {
          "internalType": "uint256",
          "name": "_epochKey",
          "type": "uint256"
        },
        {
          "internalType": "uint256[8]",
          "name": "_proof",
          "type": "uint256[8]"
        }
      ],
      "name": "verifyEpochKeyValidity",
      "outputs": [
        {
          "internalType": "bool",
          "name": "",
          "type": "bool"
        }
      ],
      "stateMutability": "view",
      "type": "function"
    },
    {
      "inputs": [
        {
          "internalType": "uint256",
          "name": "_outputBlindedUserState",
          "type": "uint256"
        },
        {
          "internalType": "uint256",
          "name": "_outputBlindedHashChain",
          "type": "uint256"
        },
        {
          "internalType": "uint256",
          "name": "_inputBlindedUserState",
          "type": "uint256"
        },
        {
          "internalType": "uint256[8]",
          "name": "_proof",
          "type": "uint256[8]"
        }
      ],
      "name": "verifyProcessAttestationProof",
      "outputs": [
        {
          "internalType": "bool",
          "name": "",
          "type": "bool"
        }
      ],
      "stateMutability": "view",
      "type": "function"
    },
    {
      "inputs": [
        {
          "internalType": "uint256[]",
          "name": "_repNullifiers",
          "type": "uint256[]"
        },
        {
          "internalType": "uint256",
          "name": "_epoch",
          "type": "uint256"
        },
        {
          "internalType": "uint256",
          "name": "_epochKey",
          "type": "uint256"
        },
        {
          "internalType": "uint256",
          "name": "_globalStateTree",
          "type": "uint256"
        },
        {
          "internalType": "uint256",
          "name": "_attesterId",
          "type": "uint256"
        },
        {
          "internalType": "uint256",
          "name": "_proveReputationAmount",
          "type": "uint256"
        },
        {
          "internalType": "uint256",
          "name": "_minRep",
          "type": "uint256"
        },
        {
          "internalType": "uint256",
          "name": "_proveGraffiti",
          "type": "uint256"
        },
        {
          "internalType": "uint256",
          "name": "_graffitiPreImage",
          "type": "uint256"
        },
        {
          "internalType": "uint256[8]",
          "name": "_proof",
          "type": "uint256[8]"
        }
      ],
      "name": "verifyReputation",
      "outputs": [
        {
          "internalType": "bool",
          "name": "",
          "type": "bool"
        }
      ],
      "stateMutability": "view",
      "type": "function"
    },
    {
      "inputs": [
        {
          "internalType": "uint256",
          "name": "_blindedUserState",
          "type": "uint256"
        },
        {
          "internalType": "uint256",
          "name": "_blindedHashChain",
          "type": "uint256"
        },
        {
          "internalType": "uint256",
          "name": "_GSTRoot",
          "type": "uint256"
        },
        {
          "internalType": "uint256[8]",
          "name": "_proof",
          "type": "uint256[8]"
        }
      ],
      "name": "verifyStartTransitionProof",
      "outputs": [
        {
          "internalType": "bool",
          "name": "",
          "type": "bool"
        }
      ],
      "stateMutability": "view",
      "type": "function"
    },
    {
      "inputs": [
        {
          "internalType": "uint256",
          "name": "_epoch",
          "type": "uint256"
        },
        {
          "internalType": "uint256",
          "name": "_epochKey",
          "type": "uint256"
        },
        {
          "internalType": "uint256",
          "name": "_globalStateTree",
          "type": "uint256"
        },
        {
          "internalType": "uint256",
          "name": "_attesterId",
          "type": "uint256"
        },
        {
          "internalType": "uint256[8]",
          "name": "_proof",
          "type": "uint256[8]"
        }
      ],
      "name": "verifyUserSignUp",
      "outputs": [
        {
          "internalType": "bool",
          "name": "",
          "type": "bool"
        }
      ],
      "stateMutability": "view",
      "type": "function"
    },
    {
      "inputs": [
        {
          "internalType": "uint256",
          "name": "_newGlobalStateTreeLeaf",
          "type": "uint256"
        },
        {
          "internalType": "uint256[]",
          "name": "_epkNullifiers",
          "type": "uint256[]"
        },
        {
          "internalType": "uint256",
          "name": "_transitionFromEpoch",
          "type": "uint256"
        },
        {
          "internalType": "uint256[]",
          "name": "_blindedUserStates",
          "type": "uint256[]"
        },
        {
          "internalType": "uint256",
          "name": "_fromGlobalStateTree",
          "type": "uint256"
        },
        {
          "internalType": "uint256[]",
          "name": "_blindedHashChains",
          "type": "uint256[]"
        },
        {
          "internalType": "uint256",
          "name": "_fromEpochTree",
          "type": "uint256"
        },
        {
          "internalType": "uint256[8]",
          "name": "_proof",
          "type": "uint256[8]"
        }
      ],
      "name": "verifyUserStateTransition",
      "outputs": [
        {
          "internalType": "bool",
          "name": "",
          "type": "bool"
        }
      ],
      "stateMutability": "view",
      "type": "function"
    }
  ],
  "bytecode": "0x6101606040527f30644e72e131a029b85045b68181585d2833e84879b9709143e1f593f00000016200003361018062000762565b6040516020818303038152906040528051906020012060001c62000058919062000a56565b60005560016007556000600a556000600b5560016010553480156200007c57600080fd5b5060405162005439380380620054398339810160408190526200009f916200061f565b8b601260008201518160000160006101000a81548160ff021916908360ff16021790555060208201518160000160016101000a81548160ff021916908360ff16021790555060408201518160000160026101000a81548160ff021916908360ff16021790555090505089600160006101000a8154816001600160a01b0302191690836001600160a01b0316021790555088600260006101000a8154816001600160a01b0302191690836001600160a01b0316021790555087600360006101000a8154816001600160a01b0302191690836001600160a01b0316021790555086600460006101000a8154816001600160a01b0302191690836001600160a01b0316021790555085600560006101000a8154816001600160a01b0302191690836001600160a01b0316021790555084600660006101000a8154816001600160a01b0302191690836001600160a01b031602179055508360ff1660c08160ff1660f81b815250508260ff1660e08160ff1660f81b81525050816080818152505042600881905550600060018d6000015160026200023a919062000921565b62000246919062000a19565b9050808c600001511115620002785760405162461bcd60e51b81526004016200026f9062000823565b60405180910390fd5b8b516101005260208d01516000906001906200029690600262000921565b620002a2919062000a19565b9050808d602001511115620002cb5760405162461bcd60e51b81526004016200026f906200085a565b6020808e0151610120528e0151620002e3906200030e565b6009558d51620002f39062000390565b60a0525050610140525062000a8d9950505050505050505050565b60006200031a62000585565b60005b60058160ff1610156200036a576000828260ff16600581106200035057634e487b7160e01b600052603260045260246000fd5b602002015280620003618162000a33565b9150506200031d565b5060006200037882620003b4565b90506200038684826200044a565b925050505b919050565b604080518082019091526000808252600954602083015290816200037882620004d2565b604051630926f44b60e31b815260009073__$223301b175b06473d424a7afc957d4e96c$__90634937a25890620003f0908590600401620007a7565b60206040518083038186803b1580156200040957600080fd5b505af41580156200041e573d6000803e3d6000fd5b505050506040513d601f19601f8201168201806040525081019062000444919062000749565b92915050565b6000808360ff161180156200046457506101008360ff1611155b620004835760405162461bcd60e51b81526004016200026f90620007d1565b8160015b8460ff168160ff161015620004bd576000620004a48380620004e2565b9250819050620004b48162000a33565b91505062000487565b50620004ca8180620004e2565b949350505050565b8051602082015160009162000444915b6000620004ee620005a3565b838152602081018390526040516314d2f97b60e11b815273__$86e0c54df1042e28bf2dd20ccf184dc428$__906329a5f2f6906200053190849060040162000774565b60206040518083038186803b1580156200054a57600080fd5b505af41580156200055f573d6000803e3d6000fd5b505050506040513d601f19601f82011682018060405250810190620004ca919062000749565b6040518060a001604052806005906020820280368337509192915050565b60405180604001604052806002906020820280368337509192915050565b80516001600160a01b03811681146200038b57600080fd5b600060408284031215620005eb578081fd5b620005f760406200089c565b9050815181526020820151602082015292915050565b805160ff811681146200038b57600080fd5b6000806000806000806000806000806000808c8e036101e081121562000643578889fd5b606081121562000651578889fd5b506200065e60606200089c565b620006698e6200060d565b81526200067960208f016200060d565b60208201526200068c60408f016200060d565b60408201529b50620006a28e60608f01620005d9565b9a50620006b260a08e01620005c1565b9950620006c260c08e01620005c1565b9850620006d260e08e01620005c1565b9750620006e36101008e01620005c1565b9650620006f46101208e01620005c1565b9550620007056101408e01620005c1565b9450620007166101608e016200060d565b9350620007276101808e016200060d565b92506101a08d015191506101c08d015190509295989b509295989b509295989b565b6000602082840312156200075b578081fd5b5051919050565b650556e697265760d41b815260060190565b60408101818360005b60028110156200079e5781518352602092830192909101906001016200077d565b50505092915050565b60a08101818360005b60058110156200079e578151835260209283019290910190600101620007b0565b60208082526032908201527f436f6d70757465526f6f743a205f747265654c6576656c73206d757374206265604082015271103132ba3bb2b2b710181030b73210191a9b60711b606082015260800190565b6020808252601e908201527f556e697265703a20696e76616c6964206d617855736572732076616c75650000604082015260600190565b60208082526022908201527f556e697265703a20696e76616c6964206d61784174746573746572732076616c604082015261756560f01b606082015260800190565b6040518181016001600160401b0381118282101715620008cc57634e487b7160e01b600052604160045260246000fd5b604052919050565b80825b6001808611620008e8575062000918565b818704821115620008fd57620008fd62000a77565b808616156200090b57918102915b9490941c938002620008d7565b94509492505050565b60006200093560001960ff8516846200093c565b9392505050565b6000826200094d5750600162000935565b816200095c5750600062000935565b81600181146200097557600281146200098057620009b4565b600191505062000935565b60ff84111562000994576200099462000a77565b6001841b915084821115620009ad57620009ad62000a77565b5062000935565b5060208310610133831016604e8410600b8410161715620009ec575081810a83811115620009e657620009e662000a77565b62000935565b620009fb8484846001620008d4565b80860482111562000a105762000a1062000a77565b02949350505050565b60008282101562000a2e5762000a2e62000a77565b500390565b600060ff821660ff81141562000a4d5762000a4d62000a77565b60010192915050565b60008262000a7257634e487b7160e01b81526012600452602481fd5b500690565b634e487b7160e01b600052601160045260246000fd5b60805160a05160c05160f81c60e05160f81c61010051610120516101405161488062000bb9600039600081816108770152818161139e0152818161189b015281816119bb0152611d0b01526000818161153201528181611e300152612996015260008181610f1b015261235a0152600081816109ac01528181610a4701528181610a9901528181610af201528181610b4b01528181610ba401528181610bfd01528181610c5601528181610caf015281816119fc015261221b015260008181611b8701528181611c05015281816121740152818161238a01528181612442015281816124ec0152818161256a015281816125ed0152818161264b015281816126a3015281816126fd015261277801526000611f9201526000818161159c015261225c01526148806000f3fe6080604052600436106102885760003560e01c80639109d1eb1161015a578063b876ed71116100c1578063e87101b11161007a578063e87101b1146106ff578063f20ca7ff14610714578063f5ab0dd614610734578063f73c8ebb14610763578063fadd942d14610783578063fc14478a1461079857610288565b8063b876ed711461066b578063c26396731461068b578063c6e01232146106a0578063d3aa645b146106b5578063de723886146106d5578063e1b0e802146106ea57610288565b8063a5500c3011610113578063a5500c30146105b0578063a710d60f146105d0578063a7c264ca146105f0578063a7ebaa7514610612578063ac98e5df14610627578063b530dc8c1461064b57610288565b80639109d1eb1461051c578063918f0c161461053157806398588c1f146105465780639cfced9714610566578063a27e572a14610586578063a3836b201461059b57610288565b806356df4634116101fe578063705edd39116101b7578063705edd391461047d5780637341ead91461049257806376671808146104b257806381f2ab76146104c7578063839beeb8146104e757806383e168ad146104fc57610288565b806356df4634146103ed57806357d775f8146104025780635b3745b5146104175780635bb93995146104375780635e2f8d1914610457578063606736fb1461046a57610288565b80633334dc5b116102505780633334dc5b1461033a5780633acce9851461035a578063417b16e31461037a578063436b32d81461039a57806348b90f0b146103ba5780634edc9ace146103cd57610288565b806307d833081461028d578063131a91ad146102b85780631c89e8e8146102d85780632b95f97e146103055780632c6eb17f14610325575b600080fd5b34801561029957600080fd5b506102a26107b8565b6040516102af91906145c8565b60405180910390f35b3480156102c457600080fd5b506102a26102d33660046132b5565b6107be565b3480156102e457600080fd5b506102f86102f336600461365a565b6107d0565b6040516102af9190613a82565b34801561031157600080fd5b506102a261032036600461365a565b6107e5565b6103386103333660046135c3565b61080e565b005b34801561034657600080fd5b506102f8610355366004613427565b61097f565b34801561036657600080fd5b506102a2610375366004613749565b610e64565b34801561038657600080fd5b5061033861039536600461365a565b610eea565b3480156103a657600080fd5b506102f86103b53660046137df565b6110b5565b6103386103c836600461331f565b6112ef565b3480156103d957600080fd5b506102a26103e836600461381d565b611487565b3480156103f957600080fd5b50610338611503565b34801561040e57600080fd5b506102a261159a565b34801561042357600080fd5b506102f86104323660046137aa565b6115be565b34801561044357600080fd5b506102a2610452366004613749565b6117a3565b6103386104653660046134e8565b61183e565b61033861047836600461358b565b61195b565b34801561048957600080fd5b506102a2611b1d565b34801561049e57600080fd5b506102a26104ad3660046135d5565b611b44565b3480156104be57600080fd5b506102a2611b58565b3480156104d357600080fd5b506103386104e2366004613622565b611b5e565b3480156104f357600080fd5b506102a2611d09565b34801561050857600080fd5b506102a2610517366004613846565b611d2d565b34801561052857600080fd5b506102a2611dec565b34801561053d57600080fd5b506102a2611df2565b34801561055257600080fd5b506103386105613660046132cf565b611df8565b34801561057257600080fd5b506102a2610581366004613395565b611ee4565b34801561059257600080fd5b50610338611f6e565b3480156105a757600080fd5b506102a2611f90565b3480156105bc57600080fd5b506103386105cb36600461365a565b611fb4565b3480156105dc57600080fd5b506102f86105eb3660046137aa565b611ff2565b3480156105fc57600080fd5b50610605612172565b6040516102af9190614611565b34801561061e57600080fd5b50610338612196565b34801561063357600080fd5b5061063c6121ab565b6040516102af9392919061461f565b34801561065757600080fd5b506102a26106663660046132b5565b6121c7565b34801561067757600080fd5b5061033861068636600461376a565b6121d9565b34801561069757600080fd5b50610605612219565b3480156106ac57600080fd5b506102a261223d565b3480156106c157600080fd5b506102a26106d03660046132b5565b612243565b3480156106e157600080fd5b50610338612255565b3480156106f657600080fd5b506102a2612358565b34801561070b57600080fd5b506102a261237c565b34801561072057600080fd5b506102f861072f36600461368a565b612382565b34801561074057600080fd5b5061075461074f36600461340b565b6128ca565b6040516102af939291906139a7565b34801561076f57600080fd5b5061033861077e36600461376a565b612953565b34801561078f57600080fd5b506102a2612994565b3480156107a457600080fd5b506102f86107b33660046137aa565b6129b8565b600d5481565b600f6020526000908152604090205481565b600c6020526000908152604090205460ff1681565b60006107ef61308a565b82815260016060820181905261080482611ee4565b925050505b919050565b336000908152600f60205260409020546108435760405162461bcd60e51b815260040161083a90613cde565b60405180910390fd5b336000908152600f60205260409020546060820135146108755760405162461bcd60e51b815260040161083a90614257565b7f000000000000000000000000000000000000000000000000000000000000000034146108b45760405162461bcd60e51b815260040161083a90613dad565b6007548135146108d65760405162461bcd60e51b815260040161083a90613ba3565b600d546108e39034612b38565b600d556108ee6130a8565b336000818152600f602090815260408083205485529282526011815290829020549083015260016080830152600b5490517fb71278964a7bd2df69f6e08b0080e7d1fb1ecd8264eb401956a12ee68adb56469061094c9085906144d2565b60405180910390a261096633828460200135600b54612b4b565b600b805490600061097683614779565b91905055505050565b6040805160128082526102608201909252600091829190602082016102408036833701905050905060005b7f000000000000000000000000000000000000000000000000000000000000000060ff168160ff161015610a42578d8d8260ff168181106109fb57634e487b7160e01b600052603260045260246000fd5b90506020020135828260ff1681518110610a2557634e487b7160e01b600052603260045260246000fd5b602090810291909101015280610a3a81614794565b9150506109aa565b508a817f000000000000000000000000000000000000000000000000000000000000000060ff1681518110610a8757634e487b7160e01b600052603260045260246000fd5b60209081029190910101528981610abf7f000000000000000000000000000000000000000000000000000000000000000060016146e1565b60ff1681518110610ae057634e487b7160e01b600052603260045260246000fd5b60209081029190910101528881610b187f000000000000000000000000000000000000000000000000000000000000000060026146e1565b60ff1681518110610b3957634e487b7160e01b600052603260045260246000fd5b60209081029190910101528781610b717f000000000000000000000000000000000000000000000000000000000000000060036146e1565b60ff1681518110610b9257634e487b7160e01b600052603260045260246000fd5b60209081029190910101528681610bca7f000000000000000000000000000000000000000000000000000000000000000060046146e1565b60ff1681518110610beb57634e487b7160e01b600052603260045260246000fd5b60209081029190910101528581610c237f000000000000000000000000000000000000000000000000000000000000000060056146e1565b60ff1681518110610c4457634e487b7160e01b600052603260045260246000fd5b60209081029190910101528481610c7c7f000000000000000000000000000000000000000000000000000000000000000060066146e1565b60ff1681518110610c9d57634e487b7160e01b600052603260045260246000fd5b60209081029190910101528381610cd57f000000000000000000000000000000000000000000000000000000000000000060076146e1565b60ff1681518110610cf657634e487b7160e01b600052603260045260246000fd5b60200260200101818152505060005b81518160ff161015610d7a5760008051602061480b833981519152828260ff1681518110610d4357634e487b7160e01b600052603260045260246000fd5b602002602001015110610d685760405162461bcd60e51b815260040161083a9061428e565b80610d7281614794565b915050610d05565b50610d836130d7565b60408051610100818101909252610db291869060089083908390808284376000920191909152506128ca915050565b60408085018290526020850183905283855260055490516361971b8760e11b81526001600160a01b039091169363c32e370e93610df893919290919088906004016139d0565b60206040518083038186803b158015610e1057600080fd5b505afa158015610e24573d6000803e3d6000fd5b505050506040513d601f19601f82011682018060405250810190610e4891906134c8565b151560609091018190529150509b9a5050505050505050505050565b6000610e6e61308a565b60005b60058160ff161015610eb9576000828260ff1660058110610ea257634e487b7160e01b600052603260045260246000fd5b602002015280610eb181614794565b915050610e71565b506000610ec582611ee4565b601254909150610edf90610100900460ff16868684611d2d565b925050505b92915050565b6000818152600c602052604090205460ff1615610f195760405162461bcd60e51b815260040161083a90614153565b7f0000000000000000000000000000000000000000000000000000000000000000600a5410610f5a5760405162461bcd60e51b815260040161083a90614199565b600954336000908152600f60209081526040808320546011909252909120548115801590610f885750600081115b15610fa8576000610f98826107e5565b9050610fa48382610e64565b9350505b60408051808201909152848152602081018490526000610fc782611b44565b6000878152600c60205260408120805460ff19166001179055600a805492935090610ff183614779565b919050555060075460008051602061482b83398151915260405161101490613f49565b60405180910390a2600b547fbdcb306569af4b00571f0633c2439c458084e1beac220a28ea9678a2f01ca1e2878686604051611052939291906145fb565b60405180910390a26007547f9d6db97120dc5c5f0a16903f507cbe1b12cb72d2c8d70511a607e36c407f357082600b546040516110909291906145ed565b60405180910390a2600b80549060006110a883614779565b9190505550505050505050565b60408051600480825260a082019092526000918291906020820160808036833701905050905086816000815181106110fd57634e487b7160e01b600052603260045260246000fd5b602002602001018181525050858160018151811061112b57634e487b7160e01b600052603260045260246000fd5b602002602001018181525050848160028151811061115957634e487b7160e01b600052603260045260246000fd5b602002602001018181525050838160038151811061118757634e487b7160e01b600052603260045260246000fd5b60200260200101818152505060005b81518160ff16101561120b5760008051602061480b833981519152828260ff16815181106111d457634e487b7160e01b600052603260045260246000fd5b6020026020010151106111f95760405162461bcd60e51b815260040161083a9061428e565b8061120381614794565b915050611196565b506112146130d7565b6040805161010081810190925261124391869060089083908390808284376000920191909152506128ca915050565b60408085018290526020850183905283855260065490516361971b8760e11b81526001600160a01b039091169363c32e370e9361128993919290919088906004016139d0565b60206040518083038186803b1580156112a157600080fd5b505afa1580156112b5573d6000803e3d6000fd5b505050506040513d601f19601f820116820180604052508101906112d991906134c8565b1515606090910181905291505095945050505050565b61132f8585858080601f016020809104026020016040519081016040528093929190818152602001838380828437600092019190915250612c7492505050565b6001600160a01b0385166000908152600f60205260409020546113645760405162461bcd60e51b815260040161083a90613cde565b6001600160a01b0385166000908152600f602052604090205482351461139c5760405162461bcd60e51b815260040161083a90614257565b7f000000000000000000000000000000000000000000000000000000000000000034146113db5760405162461bcd60e51b815260040161083a90613dad565b6007548160200135146114005760405162461bcd60e51b815260040161083a90613c44565b600d5461140d9034612b38565b600d55600b546040517f6bbb38e702dc19391dcbc5ba8d341c2b508170654cffac0c5e308136238c735490611443908490614404565b60405180910390a261146b8561145e3685900385018561351d565b8360400135600b54612b4b565b600b805490600061147b83614779565b91905055505050505050565b6000808360ff161180156114a057506101008360ff1611155b6114bc5760405162461bcd60e51b815260040161083a90613d5b565b8160015b8460ff168160ff1610156114f05760006114da83846117a3565b92508190506114e881614794565b9150506114c0565b506114fb81826117a3565b949350505050565b336000908152600f6020526040902054156115305760405162461bcd60e51b815260040161083a90613ae2565b7f0000000000000000000000000000000000000000000000000000000000000000601054106115715760405162461bcd60e51b815260040161083a90614030565b60108054336000908152600f6020526040812082905590919061159383614779565b9190505550565b7f000000000000000000000000000000000000000000000000000000000000000081565b60408051600480825260a0820190925260009182919060208201608080368337019050509050858160008151811061160657634e487b7160e01b600052603260045260246000fd5b602002602001018181525050848160018151811061163457634e487b7160e01b600052603260045260246000fd5b602002602001018181525050838160028151811061166257634e487b7160e01b600052603260045260246000fd5b60200260200101818152505060005b81518160ff1610156116e65760008051602061480b833981519152828260ff16815181106116af57634e487b7160e01b600052603260045260246000fd5b6020026020010151106116d45760405162461bcd60e51b815260040161083a9061428e565b806116de81614794565b915050611671565b506116ef6130d7565b6116f8846128ca565b60408085018290526020850183905283855260025490516361971b8760e11b81526001600160a01b039091169363c32e370e9361173e93919290919088906004016139d0565b60206040518083038186803b15801561175657600080fd5b505afa15801561176a573d6000803e3d6000fd5b505050506040513d601f19601f8201168201806040525081019061178e91906134c8565b15156060909101819052915050949350505050565b60006117ad613111565b838152602081018390526040516314d2f97b60e11b815273__$86e0c54df1042e28bf2dd20ccf184dc428$__906329a5f2f6906117ee908490600401613976565b60206040518083038186803b15801561180657600080fd5b505af415801561181a573d6000803e3d6000fd5b505050506040513d601f19601f820116820180604052508101906114fb9190613672565b336000908152600f602052604090205461186a5760405162461bcd60e51b815260040161083a90613cde565b336000908152600f60205260409020548235146118995760405162461bcd60e51b815260040161083a90614257565b7f000000000000000000000000000000000000000000000000000000000000000034146118d85760405162461bcd60e51b815260040161083a90613dad565b6007548160200135146118fd5760405162461bcd60e51b815260040161083a90613c44565b600d5461190a9034612b38565b600d55600b546040517f6bbb38e702dc19391dcbc5ba8d341c2b508170654cffac0c5e308136238c735490611940908490614404565b60405180910390a26109663361145e3685900385018561351d565b336000908152600f60205260409020546119875760405162461bcd60e51b815260040161083a90613cde565b336000908152600f60205260409020546080820135146119b95760405162461bcd60e51b815260040161083a90614257565b7f000000000000000000000000000000000000000000000000000000000000000034146119f85760405162461bcd60e51b815260040161083a90613dad565b60ff7f000000000000000000000000000000000000000000000000000000000000000016611a26828061463c565b905014611a455760405162461bcd60e51b815260040161083a90613f75565b600754816020013514611a6a5760405162461bcd60e51b815260040161083a90613e1d565b336000908152600f6020526040902054608082013514611a9c5760405162461bcd60e51b815260040161083a90614333565b600d54611aa99034612b38565b600d55611ab46130a8565b336000908152600f60205260409081902054825260a083013582820152600b5490517f4e4847661de054ecb3b675d85b52c1efe6a9097020ad433f51256dc0eb4b224e90611b0390859061443b565b60405180910390a261096633828460400135600b54612b4b565b604080518082019091526000808252600954602083015290611b3e81611b44565b91505090565b6000610ee4826000015183602001516117a3565b60075481565b600754816040013510611b835760405162461bcd60e51b815260040161083a90613fc4565b60ff7f000000000000000000000000000000000000000000000000000000000000000016611bb4602083018361463c565b905014611bd35760405162461bcd60e51b815260040161083a906142eb565b611be0606082018261463c565b9050600214611c015760405162461bcd60e51b815260040161083a90613bf7565b60ff7f000000000000000000000000000000000000000000000000000000000000000016611c3260a083018361463c565b905014611c515760405162461bcd60e51b815260040161083a90614082565b60075460008051602061482b833981519152604051611c6f90613f49565b60405180910390a2600b547f835353653994da5dad164ee81aa8f0bcefcdcef41d3133115abf89a62adaa02f82604051611ca99190614513565b60405180910390a2600754600b546040517f9d6db97120dc5c5f0a16903f507cbe1b12cb72d2c8d70511a607e36c407f357091611ce991853591906145ed565b60405180910390a2600b8054906000611d0183614779565b919050555050565b7f000000000000000000000000000000000000000000000000000000000000000081565b6000808560ff16118015611d4657506101008560ff1611155b611d625760405162461bcd60e51b815260040161083a90613d5b565b82828560015b611d738960016146e1565b60ff168160ff161015611ddf576000611d8c84856117a3565b9050611d996002846147b4565b611dae57611da785856117a3565b9450611dbb565b611db884866117a3565b94505b925082611dc9600284614706565b9250508080611dd790614794565b915050611d68565b5091979650505050505050565b60105481565b600a5481565b6001600160a01b0383166000908152600f602052604090205415611e2e5760405162461bcd60e51b815260040161083a90613ae2565b7f000000000000000000000000000000000000000000000000000000000000000060105410611e6f5760405162461bcd60e51b815260040161083a90614030565b611eaf8383838080601f016020809104026020016040519081016040528093929190818152602001838380828437600092019190915250612c7492505050565b601080546001600160a01b0385166000908152600f60205260408120829055909190611eda83614779565b9190505550505050565b604051630926f44b60e31b815260009073__$223301b175b06473d424a7afc957d4e96c$__90634937a25890611f1e908590600401613a44565b60206040518083038186803b158015611f3657600080fd5b505af4158015611f4a573d6000803e3d6000fd5b505050506040513d601f19601f82011682018060405250810190610ee49190613672565b336000818152600e60205260408120805491905590611f8d9082612d06565b50565b7f000000000000000000000000000000000000000000000000000000000000000081565b336000908152600f6020526040902054611fe05760405162461bcd60e51b815260040161083a90613cde565b33600090815260116020526040902055565b60408051600480825260a0820190925260009182919060208201608080368337019050509050858160008151811061203a57634e487b7160e01b600052603260045260246000fd5b602002602001018181525050848160018151811061206857634e487b7160e01b600052603260045260246000fd5b602002602001018181525050838160028151811061209657634e487b7160e01b600052603260045260246000fd5b60200260200101818152505060005b81518160ff16101561211a5760008051602061480b833981519152828260ff16815181106120e357634e487b7160e01b600052603260045260246000fd5b6020026020010151106121085760405162461bcd60e51b815260040161083a9061428e565b8061211281614794565b9150506120a5565b506121236130d7565b61212c846128ca565b60408085018290526020850183905283855260035490516361971b8760e11b81526001600160a01b039091169363c32e370e9361173e93919290919088906004016139d0565b7f000000000000000000000000000000000000000000000000000000000000000081565b600d805460009182905590611f8d9082612d06565b60125460ff808216916101008104821691620100009091041683565b60116020526000908152604090205481565b8183857f8d55c695efbdbee802c50677f36018d0cf99c01a559c28900b7b3a766ff68e4f8460405161220b9190613a6c565b60405180910390a450505050565b7f000000000000000000000000000000000000000000000000000000000000000081565b60095481565b600e6020526000908152604090205481565b60005a90507f0000000000000000000000000000000000000000000000000000000000000000600854426122899190614762565b10156122a75760405162461bcd60e51b815260040161083a90613d24565b60075460008051602061482b8339815191526040516122c590613df9565b60405180910390a26007546040517f751bb1ba7b27b3979a32844d4d05aa16a46a771b751593704834a80311e3a9b990600090a2426008556007805490600061230d83614779565b9190505550600061231f5a8390612da2565b905061234461232e823a612dae565b336000908152600e602052604090205490612b38565b336000908152600e60205260409020555050565b7f000000000000000000000000000000000000000000000000000000000000000081565b60085481565b6000806123b07f00000000000000000000000000000000000000000000000000000000000000006002614739565b6123bb9060066146e1565b60ff166001600160401b038111156123e357634e487b7160e01b600052604160045260246000fd5b60405190808252806020026020018201604052801561240c578160200160208202803683370190505b5090508c8160008151811061243157634e487b7160e01b600052603260045260246000fd5b60200260200101818152505060005b7f000000000000000000000000000000000000000000000000000000000000000060ff168160ff1610156124e4578c8c8260ff1681811061249157634e487b7160e01b600052603260045260246000fd5b90506020020135828260016124a691906146e1565b60ff16815181106124c757634e487b7160e01b600052603260045260246000fd5b6020908102919091010152806124dc81614794565b915050612440565b5089816125127f000000000000000000000000000000000000000000000000000000000000000060016146e1565b60ff168151811061253357634e487b7160e01b600052603260045260246000fd5b6020026020010181815250508888600081811061256057634e487b7160e01b600052603260045260246000fd5b90506020020135817f0000000000000000000000000000000000000000000000000000000000000000600261259591906146e1565b60ff16815181106125b657634e487b7160e01b600052603260045260246000fd5b602002602001018181525050888860018181106125e357634e487b7160e01b600052603260045260246000fd5b90506020020135817f0000000000000000000000000000000000000000000000000000000000000000600361261891906146e1565b60ff168151811061263957634e487b7160e01b600052603260045260246000fd5b602090810291909101015286816126717f000000000000000000000000000000000000000000000000000000000000000060046146e1565b60ff168151811061269257634e487b7160e01b600052603260045260246000fd5b60200260200101818152505060005b7f000000000000000000000000000000000000000000000000000000000000000060ff168160ff1610156127705786868260ff168181106126f257634e487b7160e01b600052603260045260246000fd5b9050602002013582827f0000000000000000000000000000000000000000000000000000000000000000600561272891906146e1565b61273291906146e1565b60ff168151811061275357634e487b7160e01b600052603260045260246000fd5b60209081029190910101528061276881614794565b9150506126a1565b50838161279e7f00000000000000000000000000000000000000000000000000000000000000006002614739565b6127a99060056146e1565b60ff16815181106127ca57634e487b7160e01b600052603260045260246000fd5b60200260200101818152505060005b81518160ff16101561284e5760008051602061480b833981519152828260ff168151811061281757634e487b7160e01b600052603260045260246000fd5b60200260200101511061283c5760405162461bcd60e51b815260040161083a9061428e565b8061284681614794565b9150506127d9565b506128576130d7565b6040805161010081810190925261288691869060089083908390808284376000920191909152506128ca915050565b6040808501829052602085018390528385526004805491516361971b8760e11b81526001600160a01b039092169463c32e370e94610df894919390928991016139d0565b6128d2613111565b6128da61312f565b6128e2613111565b50506040805180820182528351815260208085015181830152825160808082018552868501518286019081526060808901519084015282528451808601865290870151815260a08701518184015281830152835180850190945260c0860151845260e0909501519083015293909150565b82847fb9b5938bf90c04e72fb17dd0efd5f260e8fc50bbc1c458912d5228b91bc45df384846040516129869291906145d1565b60405180910390a350505050565b7f000000000000000000000000000000000000000000000000000000000000000081565b60408051600380825260808201909252600091829190602082016060803683370190505090508581600081518110612a0057634e487b7160e01b600052603260045260246000fd5b6020026020010181815250508481600181518110612a2e57634e487b7160e01b600052603260045260246000fd5b6020026020010181815250508381600281518110612a5c57634e487b7160e01b600052603260045260246000fd5b60200260200101818152505060005b81518160ff161015612ae05760008051602061480b833981519152828260ff1681518110612aa957634e487b7160e01b600052603260045260246000fd5b602002602001015110612ace5760405162461bcd60e51b815260040161083a9061428e565b80612ad881614794565b915050612a6b565b50612ae96130d7565b612af2846128ca565b60408085018290526020850183905283855260015490516361971b8760e11b81526001600160a01b039091169363c32e370e9361173e93919290919088906004016139d0565b6000612b4482846146c9565b9392505050565b60008051602061480b833981519152836020015110612b7c5760405162461bcd60e51b815260040161083a906140cf565b60008051602061480b833981519152836040015110612bad5760405162461bcd60e51b815260040161083a90614215565b60008051602061480b833981519152836060015110612bde5760405162461bcd60e51b815260040161083a90613b5f565b826080015160011480612bf357506080830151155b612c0f5760405162461bcd60e51b815260040161083a90614388565b60075460008051602061482b833981519152604051612c2d906141e7565b60405180910390a2836001600160a01b0316826007547f6f842da370f6ba302f71b743e4e98494d7a025f1ceceeb9d604ea3e63d42e170868560405161220b9291906143ca565b60008230604051602001612c8992919061391b565b60405160208183030381529060405280519060200120604051602001612caf9190613942565b604051602081830303815290604052805190602001209050826001600160a01b0316612cdb8284612dba565b6001600160a01b031614612d015760405162461bcd60e51b815260040161083a90613c94565b505050565b80471015612d265760405162461bcd60e51b815260040161083a90613f12565b6000826001600160a01b031682604051612d3f90613973565b60006040518083038185875af1925050503d8060008114612d7c576040519150601f19603f3d011682016040523d82523d6000602084013e612d81565b606091505b5050905080612d015760405162461bcd60e51b815260040161083a90613e73565b6000612b448284614762565b6000612b44828461471a565b6000806000612dc98585612dde565b91509150612dd681612e4e565b509392505050565b600080825160411415612e155760208301516040840151606085015160001a612e0987828585612f7b565b94509450505050612e47565b825160401415612e3f5760208301516040840151612e3486838361305b565b935093505050612e47565b506000905060025b9250929050565b6000816004811115612e7057634e487b7160e01b600052602160045260246000fd5b1415612e7b57611f8d565b6001816004811115612e9d57634e487b7160e01b600052602160045260246000fd5b1415612ebb5760405162461bcd60e51b815260040161083a90613aab565b6002816004811115612edd57634e487b7160e01b600052602160045260246000fd5b1415612efb5760405162461bcd60e51b815260040161083a90613b28565b6003816004811115612f1d57634e487b7160e01b600052602160045260246000fd5b1415612f3b5760405162461bcd60e51b815260040161083a90613ed0565b6004816004811115612f5d57634e487b7160e01b600052602160045260246000fd5b1415611f8d5760405162461bcd60e51b815260040161083a90614111565b6000807f7fffffffffffffffffffffffffffffff5d576e7357a4501ddfe92f46681b20a0831115612fb25750600090506003613052565b8460ff16601b14158015612fca57508460ff16601c14155b15612fdb5750600090506004613052565b6000600187878787604051600081526020016040526040516130009493929190613a8d565b6020604051602081039080840390855afa158015613022573d6000803e3d6000fd5b5050604051601f1901519150506001600160a01b03811661304b57600060019250925050613052565b9150600090505b94509492505050565b6000806001600160ff1b03831660ff84901c601b0161307c87828885612f7b565b935093505050935093915050565b6040518060a001604052806005906020820280368337509192915050565b6040518060a0016040528060008152602001600081526020016000815260200160008152602001600081525090565b60405180608001604052806130ea613111565b81526020016130f761312f565b8152602001613104613111565b8152600060209091015290565b60405180604001604052806002906020820280368337509192915050565b60405180604001604052806002905b613146613111565b81526020019060019003908161313e5790505090565b80356001600160a01b038116811461080957600080fd5b806101008101831015610ee457600080fd5b600082601f830112613195578081fd5b6040516101008082018281106001600160401b03821117156131b9576131b96147f4565b60405281848281018710156131cc578485fd5b8492505b60088310156131f0578035825260019290920191602091820191016131d0565b509195945050505050565b60008083601f84011261320c578182fd5b5081356001600160401b03811115613222578182fd5b6020830191508360208083028501011115612e4757600080fd5b60008083601f84011261324d578182fd5b5081356001600160401b03811115613263578182fd5b602083019150836020828501011115612e4757600080fd5b600060a0828403121561328c578081fd5b50919050565b6000610160828403121561328c578081fd5b803560ff8116811461080957600080fd5b6000602082840312156132c6578081fd5b612b448261315c565b6000806000604084860312156132e3578182fd5b6132ec8461315c565b925060208401356001600160401b03811115613306578283fd5b6133128682870161323c565b9497909650939450505050565b60008060008060006102408688031215613337578081fd5b6133408661315c565b945060208601356001600160401b0381111561335a578182fd5b6133668882890161323c565b909550935061337a9050876040880161327b565b91506133898760e08801613292565b90509295509295909350565b600060a082840312156133a6578081fd5b82601f8301126133b4578081fd5b60405160a081018181106001600160401b03821117156133d6576133d66147f4565b604052808360a081018610156133ea578384fd5b835b60058110156131f05781358352602092830192909101906001016133ec565b6000610100828403121561341d578081fd5b612b448383613185565b60008060008060008060008060008060006102208c8e031215613448578586fd5b8b356001600160401b0381111561345d578687fd5b6134698e828f016131fb565b909c509a505060208c0135985060408c0135975060608c0135965060808c0135955060a08c0135945060c08c0135935060e08c013592506101008c013591506134b68d6101208e01613173565b90509295989b509295989b9093969950565b6000602082840312156134d9578081fd5b81518015158114612b44578182fd5b60008061020083850312156134fb578182fd5b613505848461327b565b91506135148460a08501613292565b90509250929050565b600060a0828403121561352e578081fd5b60405160a081018181106001600160401b0382111715613550576135506147f4565b806040525082358152602083013560208201526040830135604082015260608301356060820152608083013560808201528091505092915050565b60006020828403121561359c578081fd5b81356001600160401b038111156135b1578182fd5b82016102208185031215612b44578182fd5b6000610180828403121561328c578081fd5b6000604082840312156135e6578081fd5b604051604081018181106001600160401b0382111715613608576136086147f4565b604052823581526020928301359281019290925250919050565b600060208284031215613633578081fd5b81356001600160401b03811115613648578182fd5b82016101e08185031215612b44578182fd5b60006020828403121561366b578081fd5b5035919050565b600060208284031215613683578081fd5b5051919050565b60008060008060008060008060008060006101e08c8e0312156136ab578485fd5b8b359a506001600160401b038060208e013511156136c7578586fd5b6136d78e60208f01358f016131fb565b909b50995060408d0135985060608d01358110156136f3578586fd5b6137038e60608f01358f016131fb565b909850965060808d0135955060a08d013581101561371f578485fd5b506137308d60a08e01358e016131fb565b909450925060c08c013591506134b68d60e08e01613173565b6000806040838503121561375b578182fd5b50508035926020909101359150565b6000806000806101608587031215613780578182fd5b84359350602085013592506040850135915061379f8660608701613173565b905092959194509250565b60008060008061016085870312156137c0578182fd5b84359350602085013592506040850135915061379f8660608701613185565b600080600080600061018086880312156137f7578283fd5b853594506020860135935060408601359250606086013591506133898760808801613173565b6000806040838503121561382f578182fd5b613838836132a4565b946020939093013593505050565b6000806000806080858703121561385b578182fd5b613864856132a4565b966020860135965060408601359560600135945092505050565b8060005b60028110156138ac576138968483516138b2565b6040939093019260209190910190600101613882565b50505050565b8060005b60028110156138ac5781518452602093840193909101906001016138b6565b61010080828437600081840152505050565b81835260006001600160fb1b038311156138ff578081fd5b6020830280836020870137939093016020019283525090919050565b6bffffffffffffffffffffffff19606093841b811682529190921b16601482015260280190565b7f19457468657265756d205369676e6564204d6573736167653a0a3332000000008152601c810191909152603c0190565b90565b60408101818360005b600281101561399e57815183526020928301929091019060010161397f565b50505092915050565b61010081016139b682866138b2565b6139c3604083018561387e565b6114fb60c08301846138b2565b60006101208083016139e284896138b2565b6139ef604085018861387e565b6139fc60c08501876138b2565b610100840191909152835190819052610140830190602090818601845b82811015613a3557815185529383019390830190600101613a19565b50929998505050505050505050565b60a08101818360005b600581101561399e578151835260209283019290910190600101613a4d565b6101008181019080848437506000815292915050565b901515815260200190565b93845260ff9290921660208401526040830152606082015260800190565b60208082526018908201527f45434453413a20696e76616c6964207369676e61747572650000000000000000604082015260600190565b60208082526026908201527f556e697265703a2061747465737465722068617320616c72656164792073696760408201526506e65642075760d41b606082015260800190565b6020808252601f908201527f45434453413a20696e76616c6964207369676e6174757265206c656e67746800604082015260600190565b60208082526024908201527f556e697265703a20696e76616c6964206174746573746174696f6e20677261666040820152636669746960e01b606082015260800190565b60208082526034908201527f556e697265703a207375626d697420616e2061697264726f702070726f6f66206040820152730eed2e8d040d2dcc6dee4e4cac6e840cae0dec6d60631b606082015260800190565b6020808252602d908201527f556e697265703a20696e76616c6964206e756d626572206f6620626c696e646560408201526c6420757365722073746174657360981b606082015260800190565b60208082526030908201527f556e697265703a207375626d697420616e2065706f6368206b6579207769746860408201526f040d2dcc6dee4e4cac6e840cae0dec6d60831b606082015260800190565b6020808252602a908201527f556e697265703a20696e76616c6964206174746573746572207369676e207570604082015269207369676e617475726560b01b606082015260800190565b60208082526026908201527f556e697265703a20617474657374657220686173206e6f74207369676e6564206040820152651d5c081e595d60d21b606082015260800190565b6020808252601b908201527f556e697265703a2065706f6368206e6f742079657420656e6465640000000000604082015260600190565b60208082526032908201527f436f6d70757465526f6f743a205f747265654c6576656c73206d757374206265604082015271103132ba3bb2b2b710181030b73210191a9b60711b606082015260800190565b6020808252602c908201527f556e697265703a206e6f20617474657374696e6720666565206f7220696e636f60408201526b1c9c9958dd08185b5bdd5b9d60a21b606082015260800190565b6020808252600a9082015269115c1bd8da115b99195960b21b604082015260600190565b60208082526036908201527f556e697265703a207375626d697420612072657075746174696f6e2070726f6f6040820152750cc40eed2e8d040d2dcc6dee4e4cac6e840cae0dec6d60531b606082015260800190565b6020808252603a908201527f416464726573733a20756e61626c6520746f2073656e642076616c75652c207260408201527f6563697069656e74206d61792068617665207265766572746564000000000000606082015260800190565b60208082526022908201527f45434453413a20696e76616c6964207369676e6174757265202773272076616c604082015261756560f01b606082015260800190565b6020808252601d908201527f416464726573733a20696e73756666696369656e742062616c616e6365000000604082015260600190565b60208082526012908201527113995dd1d4d513195859925b9cd95c9d195960721b604082015260600190565b6020808252602f908201527f556e697265703a20696e76616c6964206e756d626572206f662072657075746160408201526e74696f6e206e756c6c69666965727360881b606082015260800190565b60208082526046908201527f43616e206e6f74207472616e736974696f6e2066726f6d2065706f636820746860408201527f617427732067726561746572206f7220657175616c20746f2063757272656e74606082015265040cae0dec6d60d31b608082015260a00190565b60208082526032908201527f556e697265703a206d6178696d756d206e756d626572206f6620617474657374604082015271195c881cda59db9d5c1cc81c995858da195960721b606082015260800190565b6020808252602d908201527f556e697265703a20696e76616c6964206e756d626572206f6620626c696e646560408201526c64206861736820636861696e7360981b606082015260800190565b60208082526022908201527f556e697265703a20696e76616c6964206174746573746174696f6e20706f7352604082015261065760f41b606082015260800190565b60208082526022908201527f45434453413a20696e76616c6964207369676e6174757265202776272076616c604082015261756560f01b606082015260800190565b60208082526026908201527f556e697265703a2074686520757365722068617320616c72656164792073696760408201526506e65642075760d41b606082015260800190565b6020808252602e908201527f556e697265703a206d6178696d756d206e756d626572206f662075736572207360408201526d1a59db9d5c1cc81c995858da195960921b606082015260800190565b602080825260149082015273105d1d195cdd185d1a5bdb94dd589b5a5d1d195960621b604082015260600190565b60208082526022908201527f556e697265703a20696e76616c6964206174746573746174696f6e206e656752604082015261065760f41b606082015260800190565b6020808252601d908201527f556e697265703a206d69736d6174636865642061747465737465724964000000604082015260600190565b6020808252603c908201527f556e697265703a2065616368207075626c6963207369676e616c206d7573742060408201527f6265206c742074686520736e61726b207363616c6172206669656c6400000000606082015260800190565b60208082526028908201527f556e697265703a20696e76616c6964206e756d626572206f662065706b206e756040820152676c6c69666965727360c01b606082015260800190565b60208082526035908201527f556e697265703a20696e636f727265637420617474657374657220494420696e604082015274103a3432903932b83aba30ba34b7b710383937b7b360591b606082015260800190565b60208082526022908201527f556e697265703a20696e76616c6964206174746573746174696f6e207369676e604082015261055760f41b606082015260800190565b825181526020808401519082015260408084015190820152606080840151908201526080928301519281019290925260a082015260c00190565b6000610160820190508235825260208301356020830152604083013560408301526101006060840160608401376000815292915050565b60006020825261444b8384614682565b6102206020850152614462610240850182846138e7565b915050602084013560408401526040840135606084015260608401356080840152608084013560a084015260a084013560c084015260c084013560e084015261010060e08501358185015261012081860135818601526144c861014086018288016138d5565b5090949350505050565b600061018082019050823582526020830135602083015260408301356040830152606083013560608301526101006080840160808401376000815292915050565b6000602082528235602083015261452d6020840184614682565b6101e06040850152614544610200850182846138e7565b9150506040840135606084015261455e6060850185614682565b601f19808685030160808701526145768483856138e7565b9350608087013560a087015261458f60a0880188614682565b93509150808685030160c0870152506145a98383836138e7565b9250505060c084013560e0840152612b44610100840160e086016138d5565b90815260200190565b8281526101208101610100836020840137600081529392505050565b918252602082015260400190565b9283526020830191909152604082015260600190565b60ff91909116815260200190565b60ff93841681529183166020830152909116604082015260600190565b6000808335601e19843603018112614652578283fd5b8301803591506001600160401b0382111561466b578283fd5b6020908101925081023603821315612e4757600080fd5b6000808335601e19843603018112614698578283fd5b83016020810192503590506001600160401b038111156146b757600080fd5b602081023603831315612e4757600080fd5b600082198211156146dc576146dc6147c8565b500190565b600060ff821660ff84168060ff038211156146fe576146fe6147c8565b019392505050565b600082614715576147156147de565b500490565b6000816000190483118215151615614734576147346147c8565b500290565b600060ff821660ff84168160ff048111821515161561475a5761475a6147c8565b029392505050565b600082821015614774576147746147c8565b500390565b600060001982141561478d5761478d6147c8565b5060010190565b600060ff821660ff8114156147ab576147ab6147c8565b60010192915050565b6000826147c3576147c36147de565b500690565b634e487b7160e01b600052601160045260246000fd5b634e487b7160e01b600052601260045260246000fd5b634e487b7160e01b600052604160045260246000fdfe30644e72e131a029b85045b68181585d2833e84879b9709143e1f593f0000001d520dc8edfe278d8221eb9bc1010dbafcff0b692cd5b1a0f7333dc9f228ca660a26469706673582212202686168264fbf9b6b5c2d53350c21e60d328219ac3d05f857fe6a162e3ab8f1264736f6c63430008000033",
  "linkReferences": {
    "contracts/Poseidon.sol": {
      "PoseidonT3": [
        {
          "length": 20,
          "start": 1287
        },
        {
          "length": 20,
          "start": 9087
        }
      ],
      "PoseidonT6": [
        {
          "length": 20,
          "start": 966
        },
        {
          "length": 20,
          "start": 10927
        }
      ]
    }
  },
  "deployedLinkReferences": {
    "contracts/Poseidon.sol": {
      "PoseidonT3": [
        {
          "length": 20,
          "start": 6086
        }
      ],
      "PoseidonT6": [
        {
          "length": 20,
          "start": 7926
        }
      ]
    }
  }
}