{
    "_format": "hh-sol-artifact-1",
    "contractName": "Unirep",
    "sourceName": "contracts/Unirep.sol",
    "abi": [
        {
            "inputs": [
                {
                    "components": [
                        {
                            "internalType": "uint8",
                            "name": "globalStateTreeDepth",
                            "type": "uint8"
                        },
                        {
                            "internalType": "uint8",
                            "name": "userStateTreeDepth",
                            "type": "uint8"
                        },
                        {
                            "internalType": "uint8",
                            "name": "epochTreeDepth",
                            "type": "uint8"
                        }
                    ],
                    "internalType": "struct UnirepParameters.TreeDepths",
                    "name": "_treeDepths",
                    "type": "tuple"
                },
                {
                    "components": [
                        {
                            "internalType": "uint256",
                            "name": "maxUsers",
                            "type": "uint256"
                        },
                        {
                            "internalType": "uint256",
                            "name": "maxAttesters",
                            "type": "uint256"
                        }
                    ],
                    "internalType": "struct UnirepParameters.MaxValues",
                    "name": "_maxValues",
                    "type": "tuple"
                },
                {
                    "internalType": "contract EpochKeyValidityVerifier",
                    "name": "_epkValidityVerifier",
                    "type": "address"
                },
                {
                    "internalType": "contract StartTransitionVerifier",
                    "name": "_startTransitionVerifier",
                    "type": "address"
                },
                {
                    "internalType": "contract ProcessAttestationsVerifier",
                    "name": "_processAttestationsVerifier",
                    "type": "address"
                },
                {
                    "internalType": "contract UserStateTransitionVerifier",
                    "name": "_userStateTransitionVerifier",
                    "type": "address"
                },
                {
                    "internalType": "contract ReputationVerifier",
                    "name": "_reputationVerifier",
                    "type": "address"
                },
                {
                    "internalType": "contract UserSignUpVerifier",
                    "name": "_userSignUpVerifier",
                    "type": "address"
                },
                {
                    "internalType": "uint8",
                    "name": "_numEpochKeyNoncePerEpoch",
                    "type": "uint8"
                },
                {
                    "internalType": "uint8",
                    "name": "_maxReputationBudget",
                    "type": "uint8"
                },
                {
                    "internalType": "uint256",
                    "name": "_epochLength",
                    "type": "uint256"
                },
                {
                    "internalType": "uint256",
                    "name": "_attestingFee",
                    "type": "uint256"
                }
            ],
            "stateMutability": "nonpayable",
            "type": "constructor"
        },
        {
            "anonymous": false,
            "inputs": [
                {
                    "indexed": true,
                    "internalType": "uint256",
                    "name": "_epoch",
                    "type": "uint256"
                },
                {
                    "indexed": true,
                    "internalType": "uint256",
                    "name": "_epochKey",
                    "type": "uint256"
                },
                {
                    "indexed": true,
                    "internalType": "address",
                    "name": "_attester",
                    "type": "address"
                },
                {
                    "components": [
                        {
                            "internalType": "uint256",
                            "name": "attesterId",
                            "type": "uint256"
                        },
                        {
                            "internalType": "uint256",
                            "name": "posRep",
                            "type": "uint256"
                        },
                        {
                            "internalType": "uint256",
                            "name": "negRep",
                            "type": "uint256"
                        },
                        {
                            "internalType": "uint256",
                            "name": "graffiti",
                            "type": "uint256"
                        },
                        {
                            "internalType": "uint256",
                            "name": "signUp",
                            "type": "uint256"
                        }
                    ],
                    "indexed": false,
                    "internalType": "struct DomainObjs.Attestation",
                    "name": "attestation",
                    "type": "tuple"
                },
                {
                    "indexed": false,
                    "internalType": "uint256",
                    "name": "_proofIndex",
                    "type": "uint256"
                }
            ],
            "name": "AttestationSubmitted",
            "type": "event"
        },
        {
            "anonymous": false,
            "inputs": [
                {
                    "indexed": true,
                    "internalType": "uint256",
                    "name": "_epoch",
                    "type": "uint256"
                }
            ],
            "name": "EpochEnded",
            "type": "event"
        },
        {
            "anonymous": false,
            "inputs": [
                {
                    "indexed": true,
                    "internalType": "uint256",
                    "name": "_proofIndex",
                    "type": "uint256"
                },
                {
                    "components": [
                        {
                            "internalType": "uint256",
                            "name": "fromGlobalStateTree",
                            "type": "uint256"
                        },
                        {
                            "internalType": "uint256",
                            "name": "epoch",
                            "type": "uint256"
                        },
                        {
                            "internalType": "uint256",
                            "name": "epochKey",
                            "type": "uint256"
                        },
                        {
                            "internalType": "uint256[8]",
                            "name": "proof",
                            "type": "uint256[8]"
                        }
                    ],
                    "indexed": false,
                    "internalType": "struct UnirepParameters.EpochKeyProofRelated",
                    "name": "epochKeyProofData",
                    "type": "tuple"
                }
            ],
            "name": "EpochKeyProof",
            "type": "event"
        },
        {
            "anonymous": false,
            "inputs": [
                {
                    "indexed": true,
                    "internalType": "uint256",
                    "name": "_epoch",
                    "type": "uint256"
                },
                {
                    "indexed": false,
                    "internalType": "uint256",
                    "name": "_hashedLeaf",
                    "type": "uint256"
                },
                {
                    "indexed": false,
                    "internalType": "uint256",
                    "name": "_proofIndex",
                    "type": "uint256"
                }
            ],
            "name": "NewGSTLeafInserted",
            "type": "event"
        },
        {
            "anonymous": false,
            "inputs": [
                {
                    "indexed": true,
                    "internalType": "uint256",
                    "name": "_outputBlindedUserState",
                    "type": "uint256"
                },
                {
                    "indexed": true,
                    "internalType": "uint256",
                    "name": "_outputBlindedHashChain",
                    "type": "uint256"
                },
                {
                    "indexed": true,
                    "internalType": "uint256",
                    "name": "_inputBlindedUserState",
                    "type": "uint256"
                },
                {
                    "indexed": false,
                    "internalType": "uint256[8]",
                    "name": "_proof",
                    "type": "uint256[8]"
                }
            ],
            "name": "ProcessedAttestationsProof",
            "type": "event"
        },
        {
            "anonymous": false,
            "inputs": [
                {
                    "indexed": true,
                    "internalType": "uint256",
                    "name": "_proofIndex",
                    "type": "uint256"
                },
                {
                    "components": [
                        {
                            "internalType": "uint256[]",
                            "name": "repNullifiers",
                            "type": "uint256[]"
                        },
                        {
                            "internalType": "uint256",
                            "name": "epoch",
                            "type": "uint256"
                        },
                        {
                            "internalType": "uint256",
                            "name": "epochKey",
                            "type": "uint256"
                        },
                        {
                            "internalType": "uint256",
                            "name": "globalStateTree",
                            "type": "uint256"
                        },
                        {
                            "internalType": "uint256",
                            "name": "attesterId",
                            "type": "uint256"
                        },
                        {
                            "internalType": "uint256",
                            "name": "proveReputationAmount",
                            "type": "uint256"
                        },
                        {
                            "internalType": "uint256",
                            "name": "minRep",
                            "type": "uint256"
                        },
                        {
                            "internalType": "uint256",
                            "name": "proveGraffiti",
                            "type": "uint256"
                        },
                        {
                            "internalType": "uint256",
                            "name": "graffitiPreImage",
                            "type": "uint256"
                        },
                        {
                            "internalType": "uint256[8]",
                            "name": "proof",
                            "type": "uint256[8]"
                        }
                    ],
                    "indexed": false,
                    "internalType": "struct UnirepParameters.ReputationProofRelated",
                    "name": "reputationProofData",
                    "type": "tuple"
                }
            ],
            "name": "ReputationNullifierProof",
            "type": "event"
        },
        {
            "anonymous": false,
            "inputs": [
                {
                    "indexed": true,
                    "internalType": "uint256",
                    "name": "_epoch",
                    "type": "uint256"
                },
                {
                    "indexed": false,
                    "internalType": "string",
                    "name": "_event",
                    "type": "string"
                }
            ],
            "name": "Sequencer",
            "type": "event"
        },
        {
            "anonymous": false,
            "inputs": [
                {
                    "indexed": true,
                    "internalType": "uint256",
                    "name": "_blindedUserState",
                    "type": "uint256"
                },
                {
                    "indexed": true,
                    "internalType": "uint256",
                    "name": "_blindedHashChain",
                    "type": "uint256"
                },
                {
                    "indexed": true,
                    "internalType": "uint256",
                    "name": "_GSTRoot",
                    "type": "uint256"
                },
                {
                    "indexed": false,
                    "internalType": "uint256[8]",
                    "name": "_proof",
                    "type": "uint256[8]"
                }
            ],
            "name": "StartedTransitionProof",
            "type": "event"
        },
        {
            "anonymous": false,
            "inputs": [
                {
                    "indexed": true,
                    "internalType": "uint256",
                    "name": "_proofIndex",
                    "type": "uint256"
                },
                {
                    "indexed": false,
                    "internalType": "uint256",
                    "name": "_hashedLeaf",
                    "type": "uint256"
                },
                {
                    "indexed": false,
                    "internalType": "uint256",
                    "name": "_attesterId",
                    "type": "uint256"
                },
                {
                    "indexed": false,
                    "internalType": "uint256",
                    "name": "_airdropAmount",
                    "type": "uint256"
                }
            ],
            "name": "UserSignUp",
            "type": "event"
        },
        {
            "anonymous": false,
            "inputs": [
                {
                    "indexed": true,
                    "internalType": "uint256",
                    "name": "_proofIndex",
                    "type": "uint256"
                },
                {
                    "components": [
                        {
                            "internalType": "uint256",
                            "name": "epoch",
                            "type": "uint256"
                        },
                        {
                            "internalType": "uint256",
                            "name": "epochKey",
                            "type": "uint256"
                        },
                        {
                            "internalType": "uint256",
                            "name": "globalStateTree",
                            "type": "uint256"
                        },
                        {
                            "internalType": "uint256",
                            "name": "attesterId",
                            "type": "uint256"
                        },
                        {
                            "internalType": "uint256[8]",
                            "name": "proof",
                            "type": "uint256[8]"
                        }
                    ],
                    "indexed": false,
                    "internalType": "struct UnirepParameters.SignUpProofRelated",
                    "name": "signUpProofData",
                    "type": "tuple"
                }
            ],
            "name": "UserSignedUpProof",
            "type": "event"
        },
        {
            "anonymous": false,
            "inputs": [
                {
                    "indexed": true,
                    "internalType": "uint256",
                    "name": "_proofIndex",
                    "type": "uint256"
                },
                {
                    "components": [
                        {
                            "internalType": "uint256",
                            "name": "newGlobalStateTreeLeaf",
                            "type": "uint256"
                        },
                        {
                            "internalType": "uint256[]",
                            "name": "epkNullifiers",
                            "type": "uint256[]"
                        },
                        {
                            "internalType": "uint256",
                            "name": "transitionFromEpoch",
                            "type": "uint256"
                        },
                        {
                            "internalType": "uint256[]",
                            "name": "blindedUserStates",
                            "type": "uint256[]"
                        },
                        {
                            "internalType": "uint256",
                            "name": "fromGlobalStateTree",
                            "type": "uint256"
                        },
                        {
                            "internalType": "uint256[]",
                            "name": "blindedHashChains",
                            "type": "uint256[]"
                        },
                        {
                            "internalType": "uint256",
                            "name": "fromEpochTree",
                            "type": "uint256"
                        },
                        {
                            "internalType": "uint256[8]",
                            "name": "proof",
                            "type": "uint256[8]"
                        }
                    ],
                    "indexed": false,
                    "internalType": "struct UnirepParameters.UserTransitionedRelated",
                    "name": "userTransitionedData",
                    "type": "tuple"
                }
            ],
            "name": "UserStateTransitionProof",
            "type": "event"
        },
        {
            "inputs": [
                {
                    "internalType": "address",
                    "name": "",
                    "type": "address"
                }
            ],
            "name": "airdropAmount",
            "outputs": [
                {
                    "internalType": "uint256",
                    "name": "",
                    "type": "uint256"
                }
            ],
            "stateMutability": "view",
            "type": "function"
        },
        {
            "inputs": [
                {
                    "components": [
                        {
                            "internalType": "uint256",
                            "name": "epoch",
                            "type": "uint256"
                        },
                        {
                            "internalType": "uint256",
                            "name": "epochKey",
                            "type": "uint256"
                        },
                        {
                            "internalType": "uint256",
                            "name": "globalStateTree",
                            "type": "uint256"
                        },
                        {
                            "internalType": "uint256",
                            "name": "attesterId",
                            "type": "uint256"
                        },
                        {
                            "internalType": "uint256[8]",
                            "name": "proof",
                            "type": "uint256[8]"
                        }
                    ],
                    "internalType": "struct UnirepParameters.SignUpProofRelated",
                    "name": "signUpProofData",
                    "type": "tuple"
                }
            ],
            "name": "airdropEpochKey",
            "outputs": [],
            "stateMutability": "payable",
            "type": "function"
        },
        {
            "inputs": [],
            "name": "attesterSignUp",
            "outputs": [],
            "stateMutability": "nonpayable",
            "type": "function"
        },
        {
            "inputs": [
                {
                    "internalType": "address",
                    "name": "attester",
                    "type": "address"
                },
                {
                    "internalType": "bytes",
                    "name": "signature",
                    "type": "bytes"
                }
            ],
            "name": "attesterSignUpViaRelayer",
            "outputs": [],
            "stateMutability": "nonpayable",
            "type": "function"
        },
        {
            "inputs": [
                {
                    "internalType": "address",
                    "name": "",
                    "type": "address"
                }
            ],
            "name": "attesters",
            "outputs": [
                {
                    "internalType": "uint256",
                    "name": "",
                    "type": "uint256"
                }
            ],
            "stateMutability": "view",
            "type": "function"
        },
        {
            "inputs": [],
            "name": "attestingFee",
            "outputs": [
                {
                    "internalType": "uint256",
                    "name": "",
                    "type": "uint256"
                }
            ],
            "stateMutability": "view",
            "type": "function"
        },
        {
            "inputs": [],
            "name": "beginEpochTransition",
            "outputs": [],
            "stateMutability": "nonpayable",
            "type": "function"
        },
        {
            "inputs": [],
            "name": "burnAttestingFee",
            "outputs": [],
            "stateMutability": "nonpayable",
            "type": "function"
        },
        {
            "inputs": [
                {
                    "internalType": "uint256",
                    "name": "_leafIndex",
                    "type": "uint256"
                },
                {
                    "internalType": "uint256",
                    "name": "_leafValue",
                    "type": "uint256"
                }
            ],
            "name": "calcAirdropUSTRoot",
            "outputs": [
                {
                    "internalType": "uint256",
                    "name": "",
                    "type": "uint256"
                }
            ],
            "stateMutability": "view",
            "type": "function"
        },
        {
            "inputs": [],
            "name": "collectEpochTransitionCompensation",
            "outputs": [],
            "stateMutability": "nonpayable",
            "type": "function"
        },
        {
            "inputs": [],
            "name": "collectedAttestingFee",
            "outputs": [
                {
                    "internalType": "uint256",
                    "name": "",
                    "type": "uint256"
                }
            ],
            "stateMutability": "view",
            "type": "function"
        },
        {
            "inputs": [
                {
                    "internalType": "uint8",
                    "name": "_treeLevels",
                    "type": "uint8"
                },
                {
                    "internalType": "uint256",
                    "name": "_zeroValue",
                    "type": "uint256"
                }
            ],
            "name": "computeEmptyRoot",
            "outputs": [
                {
                    "internalType": "uint256",
                    "name": "",
                    "type": "uint256"
                }
            ],
            "stateMutability": "pure",
            "type": "function"
        },
        {
            "inputs": [
                {
                    "internalType": "uint8",
                    "name": "_treeLevels",
                    "type": "uint8"
                },
                {
                    "internalType": "uint256",
                    "name": "_leafIndex",
                    "type": "uint256"
                },
                {
                    "internalType": "uint256",
                    "name": "_leafValue",
                    "type": "uint256"
                },
                {
                    "internalType": "uint256",
                    "name": "_zeroValue",
                    "type": "uint256"
                }
            ],
            "name": "computeOneNonZeroLeafRoot",
            "outputs": [
                {
                    "internalType": "uint256",
                    "name": "",
                    "type": "uint256"
                }
            ],
            "stateMutability": "pure",
            "type": "function"
        },
        {
            "inputs": [],
            "name": "currentEpoch",
            "outputs": [
                {
                    "internalType": "uint256",
                    "name": "",
                    "type": "uint256"
                }
            ],
            "stateMutability": "view",
            "type": "function"
        },
        {
            "inputs": [],
            "name": "emptyGlobalStateTreeRoot",
            "outputs": [
                {
                    "internalType": "uint256",
                    "name": "",
                    "type": "uint256"
                }
            ],
            "stateMutability": "view",
            "type": "function"
        },
        {
            "inputs": [],
            "name": "emptyUserStateRoot",
            "outputs": [
                {
                    "internalType": "uint256",
                    "name": "",
                    "type": "uint256"
                }
            ],
            "stateMutability": "view",
            "type": "function"
        },
        {
            "inputs": [],
            "name": "epochLength",
            "outputs": [
                {
                    "internalType": "uint256",
                    "name": "",
                    "type": "uint256"
                }
            ],
            "stateMutability": "view",
            "type": "function"
        },
        {
            "inputs": [
                {
                    "internalType": "address",
                    "name": "",
                    "type": "address"
                }
            ],
            "name": "epochTransitionCompensation",
            "outputs": [
                {
                    "internalType": "uint256",
                    "name": "",
                    "type": "uint256"
                }
            ],
            "stateMutability": "view",
            "type": "function"
        },
        {
            "inputs": [
                {
                    "internalType": "uint256",
                    "name": "",
                    "type": "uint256"
                }
            ],
            "name": "hasUserSignedUp",
            "outputs": [
                {
                    "internalType": "bool",
                    "name": "",
                    "type": "bool"
                }
            ],
            "stateMutability": "view",
            "type": "function"
        },
        {
            "inputs": [
                {
                    "internalType": "uint256[5]",
                    "name": "array",
                    "type": "uint256[5]"
                }
            ],
            "name": "hash5",
            "outputs": [
                {
                    "internalType": "uint256",
                    "name": "",
                    "type": "uint256"
                }
            ],
            "stateMutability": "pure",
            "type": "function"
        },
        {
            "inputs": [
                {
                    "internalType": "uint256",
                    "name": "airdropPosRep",
                    "type": "uint256"
                }
            ],
            "name": "hashAirdroppedLeaf",
            "outputs": [
                {
                    "internalType": "uint256",
                    "name": "",
                    "type": "uint256"
                }
            ],
            "stateMutability": "pure",
            "type": "function"
        },
        {
            "inputs": [
                {
                    "internalType": "uint256",
                    "name": "_left",
                    "type": "uint256"
                },
                {
                    "internalType": "uint256",
                    "name": "_right",
                    "type": "uint256"
                }
            ],
            "name": "hashLeftRight",
            "outputs": [
                {
                    "internalType": "uint256",
                    "name": "",
                    "type": "uint256"
                }
            ],
            "stateMutability": "pure",
            "type": "function"
        },
        {
            "inputs": [
                {
                    "components": [
                        {
                            "internalType": "uint256",
                            "name": "identityCommitment",
                            "type": "uint256"
                        },
                        {
                            "internalType": "uint256",
                            "name": "userStateRoot",
                            "type": "uint256"
                        }
                    ],
                    "internalType": "struct DomainObjs.StateLeaf",
                    "name": "_stateLeaf",
                    "type": "tuple"
                }
            ],
            "name": "hashStateLeaf",
            "outputs": [
                {
                    "internalType": "uint256",
                    "name": "",
                    "type": "uint256"
                }
            ],
            "stateMutability": "pure",
            "type": "function"
        },
        {
            "inputs": [],
            "name": "hashedBlankStateLeaf",
            "outputs": [
                {
                    "internalType": "uint256",
                    "name": "",
                    "type": "uint256"
                }
            ],
            "stateMutability": "view",
            "type": "function"
        },
        {
            "inputs": [],
            "name": "latestEpochTransitionTime",
            "outputs": [
                {
                    "internalType": "uint256",
                    "name": "",
                    "type": "uint256"
                }
            ],
            "stateMutability": "view",
            "type": "function"
        },
        {
            "inputs": [],
            "name": "maxAttesters",
            "outputs": [
                {
                    "internalType": "uint256",
                    "name": "",
                    "type": "uint256"
                }
            ],
            "stateMutability": "view",
            "type": "function"
        },
        {
            "inputs": [],
            "name": "maxReputationBudget",
            "outputs": [
                {
                    "internalType": "uint8",
                    "name": "",
                    "type": "uint8"
                }
            ],
            "stateMutability": "view",
            "type": "function"
        },
        {
            "inputs": [],
            "name": "maxUsers",
            "outputs": [
                {
                    "internalType": "uint256",
                    "name": "",
                    "type": "uint256"
                }
            ],
            "stateMutability": "view",
            "type": "function"
        },
        {
            "inputs": [],
            "name": "nextAttesterId",
            "outputs": [
                {
                    "internalType": "uint256",
                    "name": "",
                    "type": "uint256"
                }
            ],
            "stateMutability": "view",
            "type": "function"
        },
        {
            "inputs": [],
            "name": "numEpochKeyNoncePerEpoch",
            "outputs": [
                {
                    "internalType": "uint8",
                    "name": "",
                    "type": "uint8"
                }
            ],
            "stateMutability": "view",
            "type": "function"
        },
        {
            "inputs": [],
            "name": "numUserSignUps",
            "outputs": [
                {
                    "internalType": "uint256",
                    "name": "",
                    "type": "uint256"
                }
            ],
            "stateMutability": "view",
            "type": "function"
        },
        {
            "inputs": [
                {
                    "internalType": "uint256",
                    "name": "_outputBlindedUserState",
                    "type": "uint256"
                },
                {
                    "internalType": "uint256",
                    "name": "_outputBlindedHashChain",
                    "type": "uint256"
                },
                {
                    "internalType": "uint256",
                    "name": "_inputBlindedUserState",
                    "type": "uint256"
                },
                {
                    "internalType": "uint256[8]",
                    "name": "_proof",
                    "type": "uint256[8]"
                }
            ],
            "name": "processAttestations",
            "outputs": [],
            "stateMutability": "nonpayable",
            "type": "function"
        },
        {
            "inputs": [
                {
                    "internalType": "uint256",
                    "name": "_airdropAmount",
                    "type": "uint256"
                }
            ],
            "name": "setAirdropAmount",
            "outputs": [],
            "stateMutability": "nonpayable",
            "type": "function"
        },
        {
            "inputs": [
                {
                    "components": [
                        {
                            "internalType": "uint256[]",
                            "name": "repNullifiers",
                            "type": "uint256[]"
                        },
                        {
                            "internalType": "uint256",
                            "name": "epoch",
                            "type": "uint256"
                        },
                        {
                            "internalType": "uint256",
                            "name": "epochKey",
                            "type": "uint256"
                        },
                        {
                            "internalType": "uint256",
                            "name": "globalStateTree",
                            "type": "uint256"
                        },
                        {
                            "internalType": "uint256",
                            "name": "attesterId",
                            "type": "uint256"
                        },
                        {
                            "internalType": "uint256",
                            "name": "proveReputationAmount",
                            "type": "uint256"
                        },
                        {
                            "internalType": "uint256",
                            "name": "minRep",
                            "type": "uint256"
                        },
                        {
                            "internalType": "uint256",
                            "name": "proveGraffiti",
                            "type": "uint256"
                        },
                        {
                            "internalType": "uint256",
                            "name": "graffitiPreImage",
                            "type": "uint256"
                        },
                        {
                            "internalType": "uint256[8]",
                            "name": "proof",
                            "type": "uint256[8]"
                        }
                    ],
                    "internalType": "struct UnirepParameters.ReputationProofRelated",
                    "name": "reputationProofData",
                    "type": "tuple"
                }
            ],
            "name": "spendReputation",
            "outputs": [],
            "stateMutability": "payable",
            "type": "function"
        },
        {
            "inputs": [
                {
                    "internalType": "uint256",
                    "name": "_blindedUserState",
                    "type": "uint256"
                },
                {
                    "internalType": "uint256",
                    "name": "_blindedHashChain",
                    "type": "uint256"
                },
                {
                    "internalType": "uint256",
                    "name": "_GSTRoot",
                    "type": "uint256"
                },
                {
                    "internalType": "uint256[8]",
                    "name": "_proof",
                    "type": "uint256[8]"
                }
            ],
            "name": "startUserStateTransition",
            "outputs": [],
            "stateMutability": "nonpayable",
            "type": "function"
        },
        {
            "inputs": [
                {
                    "components": [
                        {
                            "internalType": "uint256",
                            "name": "attesterId",
                            "type": "uint256"
                        },
                        {
                            "internalType": "uint256",
                            "name": "posRep",
                            "type": "uint256"
                        },
                        {
                            "internalType": "uint256",
                            "name": "negRep",
                            "type": "uint256"
                        },
                        {
                            "internalType": "uint256",
                            "name": "graffiti",
                            "type": "uint256"
                        },
                        {
                            "internalType": "uint256",
                            "name": "signUp",
                            "type": "uint256"
                        }
                    ],
                    "internalType": "struct DomainObjs.Attestation",
                    "name": "attestation",
                    "type": "tuple"
                },
                {
                    "components": [
                        {
                            "internalType": "uint256",
                            "name": "fromGlobalStateTree",
                            "type": "uint256"
                        },
                        {
                            "internalType": "uint256",
                            "name": "epoch",
                            "type": "uint256"
                        },
                        {
                            "internalType": "uint256",
                            "name": "epochKey",
                            "type": "uint256"
                        },
                        {
                            "internalType": "uint256[8]",
                            "name": "proof",
                            "type": "uint256[8]"
                        }
                    ],
                    "internalType": "struct UnirepParameters.EpochKeyProofRelated",
                    "name": "epochKeyProofData",
                    "type": "tuple"
                }
            ],
            "name": "submitAttestation",
            "outputs": [],
            "stateMutability": "payable",
            "type": "function"
        },
        {
            "inputs": [
                {
                    "internalType": "address",
                    "name": "attester",
                    "type": "address"
                },
                {
                    "internalType": "bytes",
                    "name": "signature",
                    "type": "bytes"
                },
                {
                    "components": [
                        {
                            "internalType": "uint256",
                            "name": "attesterId",
                            "type": "uint256"
                        },
                        {
                            "internalType": "uint256",
                            "name": "posRep",
                            "type": "uint256"
                        },
                        {
                            "internalType": "uint256",
                            "name": "negRep",
                            "type": "uint256"
                        },
                        {
                            "internalType": "uint256",
                            "name": "graffiti",
                            "type": "uint256"
                        },
                        {
                            "internalType": "uint256",
                            "name": "signUp",
                            "type": "uint256"
                        }
                    ],
                    "internalType": "struct DomainObjs.Attestation",
                    "name": "attestation",
                    "type": "tuple"
                },
                {
                    "components": [
                        {
                            "internalType": "uint256",
                            "name": "fromGlobalStateTree",
                            "type": "uint256"
                        },
                        {
                            "internalType": "uint256",
                            "name": "epoch",
                            "type": "uint256"
                        },
                        {
                            "internalType": "uint256",
                            "name": "epochKey",
                            "type": "uint256"
                        },
                        {
                            "internalType": "uint256[8]",
                            "name": "proof",
                            "type": "uint256[8]"
                        }
                    ],
                    "internalType": "struct UnirepParameters.EpochKeyProofRelated",
                    "name": "epochKeyProofData",
                    "type": "tuple"
                }
            ],
            "name": "submitAttestationViaRelayer",
            "outputs": [],
            "stateMutability": "payable",
            "type": "function"
        },
        {
            "inputs": [],
            "name": "treeDepths",
            "outputs": [
                {
                    "internalType": "uint8",
                    "name": "globalStateTreeDepth",
                    "type": "uint8"
                },
                {
                    "internalType": "uint8",
                    "name": "userStateTreeDepth",
                    "type": "uint8"
                },
                {
                    "internalType": "uint8",
                    "name": "epochTreeDepth",
                    "type": "uint8"
                }
            ],
            "stateMutability": "view",
            "type": "function"
        },
        {
            "inputs": [
                {
                    "internalType": "uint256[8]",
                    "name": "_proof",
                    "type": "uint256[8]"
                }
            ],
            "name": "unpackProof",
            "outputs": [
                {
                    "internalType": "uint256[2]",
                    "name": "",
                    "type": "uint256[2]"
                },
                {
                    "internalType": "uint256[2][2]",
                    "name": "",
                    "type": "uint256[2][2]"
                },
                {
                    "internalType": "uint256[2]",
                    "name": "",
                    "type": "uint256[2]"
                }
            ],
            "stateMutability": "pure",
            "type": "function"
        },
        {
            "inputs": [
                {
                    "components": [
                        {
                            "internalType": "uint256",
                            "name": "newGlobalStateTreeLeaf",
                            "type": "uint256"
                        },
                        {
                            "internalType": "uint256[]",
                            "name": "epkNullifiers",
                            "type": "uint256[]"
                        },
                        {
                            "internalType": "uint256",
                            "name": "transitionFromEpoch",
                            "type": "uint256"
                        },
                        {
                            "internalType": "uint256[]",
                            "name": "blindedUserStates",
                            "type": "uint256[]"
                        },
                        {
                            "internalType": "uint256",
                            "name": "fromGlobalStateTree",
                            "type": "uint256"
                        },
                        {
                            "internalType": "uint256[]",
                            "name": "blindedHashChains",
                            "type": "uint256[]"
                        },
                        {
                            "internalType": "uint256",
                            "name": "fromEpochTree",
                            "type": "uint256"
                        },
                        {
                            "internalType": "uint256[8]",
                            "name": "proof",
                            "type": "uint256[8]"
                        }
                    ],
                    "internalType": "struct UnirepParameters.UserTransitionedRelated",
                    "name": "userTransitionedData",
                    "type": "tuple"
                }
            ],
            "name": "updateUserStateRoot",
            "outputs": [],
            "stateMutability": "nonpayable",
            "type": "function"
        },
        {
            "inputs": [
                {
                    "internalType": "uint256",
                    "name": "_identityCommitment",
                    "type": "uint256"
                }
            ],
            "name": "userSignUp",
            "outputs": [],
            "stateMutability": "nonpayable",
            "type": "function"
        },
        {
            "inputs": [
                {
                    "internalType": "uint256",
                    "name": "_globalStateTree",
                    "type": "uint256"
                },
                {
                    "internalType": "uint256",
                    "name": "_epoch",
                    "type": "uint256"
                },
                {
                    "internalType": "uint256",
                    "name": "_epochKey",
                    "type": "uint256"
                },
                {
                    "internalType": "uint256[8]",
                    "name": "_proof",
                    "type": "uint256[8]"
                }
            ],
            "name": "verifyEpochKeyValidity",
            "outputs": [
                {
                    "internalType": "bool",
                    "name": "",
                    "type": "bool"
                }
            ],
            "stateMutability": "view",
            "type": "function"
        },
        {
            "inputs": [
                {
                    "internalType": "uint256",
                    "name": "_outputBlindedUserState",
                    "type": "uint256"
                },
                {
                    "internalType": "uint256",
                    "name": "_outputBlindedHashChain",
                    "type": "uint256"
                },
                {
                    "internalType": "uint256",
                    "name": "_inputBlindedUserState",
                    "type": "uint256"
                },
                {
                    "internalType": "uint256[8]",
                    "name": "_proof",
                    "type": "uint256[8]"
                }
            ],
            "name": "verifyProcessAttestationProof",
            "outputs": [
                {
                    "internalType": "bool",
                    "name": "",
                    "type": "bool"
                }
            ],
            "stateMutability": "view",
            "type": "function"
        },
        {
            "inputs": [
                {
                    "internalType": "uint256[]",
                    "name": "_repNullifiers",
                    "type": "uint256[]"
                },
                {
                    "internalType": "uint256",
                    "name": "_epoch",
                    "type": "uint256"
                },
                {
                    "internalType": "uint256",
                    "name": "_epochKey",
                    "type": "uint256"
                },
                {
                    "internalType": "uint256",
                    "name": "_globalStateTree",
                    "type": "uint256"
                },
                {
                    "internalType": "uint256",
                    "name": "_attesterId",
                    "type": "uint256"
                },
                {
                    "internalType": "uint256",
                    "name": "_proveReputationAmount",
                    "type": "uint256"
                },
                {
                    "internalType": "uint256",
                    "name": "_minRep",
                    "type": "uint256"
                },
                {
                    "internalType": "uint256",
                    "name": "_proveGraffiti",
                    "type": "uint256"
                },
                {
                    "internalType": "uint256",
                    "name": "_graffitiPreImage",
                    "type": "uint256"
                },
                {
                    "internalType": "uint256[8]",
                    "name": "_proof",
                    "type": "uint256[8]"
                }
            ],
            "name": "verifyReputation",
            "outputs": [
                {
                    "internalType": "bool",
                    "name": "",
                    "type": "bool"
                }
            ],
            "stateMutability": "view",
            "type": "function"
        },
        {
            "inputs": [
                {
                    "internalType": "uint256",
                    "name": "_blindedUserState",
                    "type": "uint256"
                },
                {
                    "internalType": "uint256",
                    "name": "_blindedHashChain",
                    "type": "uint256"
                },
                {
                    "internalType": "uint256",
                    "name": "_GSTRoot",
                    "type": "uint256"
                },
                {
                    "internalType": "uint256[8]",
                    "name": "_proof",
                    "type": "uint256[8]"
                }
            ],
            "name": "verifyStartTransitionProof",
            "outputs": [
                {
                    "internalType": "bool",
                    "name": "",
                    "type": "bool"
                }
            ],
            "stateMutability": "view",
            "type": "function"
        },
        {
            "inputs": [
                {
                    "internalType": "uint256",
                    "name": "_epoch",
                    "type": "uint256"
                },
                {
                    "internalType": "uint256",
                    "name": "_epochKey",
                    "type": "uint256"
                },
                {
                    "internalType": "uint256",
                    "name": "_globalStateTree",
                    "type": "uint256"
                },
                {
                    "internalType": "uint256",
                    "name": "_attesterId",
                    "type": "uint256"
                },
                {
                    "internalType": "uint256[8]",
                    "name": "_proof",
                    "type": "uint256[8]"
                }
            ],
            "name": "verifyUserSignUp",
            "outputs": [
                {
                    "internalType": "bool",
                    "name": "",
                    "type": "bool"
                }
            ],
            "stateMutability": "view",
            "type": "function"
        },
        {
            "inputs": [
                {
                    "internalType": "uint256",
                    "name": "_newGlobalStateTreeLeaf",
                    "type": "uint256"
                },
                {
                    "internalType": "uint256[]",
                    "name": "_epkNullifiers",
                    "type": "uint256[]"
                },
                {
                    "internalType": "uint256",
                    "name": "_transitionFromEpoch",
                    "type": "uint256"
                },
                {
                    "internalType": "uint256[]",
                    "name": "_blindedUserStates",
                    "type": "uint256[]"
                },
                {
                    "internalType": "uint256",
                    "name": "_fromGlobalStateTree",
                    "type": "uint256"
                },
                {
                    "internalType": "uint256[]",
                    "name": "_blindedHashChains",
                    "type": "uint256[]"
                },
                {
                    "internalType": "uint256",
                    "name": "_fromEpochTree",
                    "type": "uint256"
                },
                {
                    "internalType": "uint256[8]",
                    "name": "_proof",
                    "type": "uint256[8]"
                }
            ],
            "name": "verifyUserStateTransition",
            "outputs": [
                {
                    "internalType": "bool",
                    "name": "",
                    "type": "bool"
                }
            ],
            "stateMutability": "view",
            "type": "function"
        }
    ],
    "bytecode": "0x6101606040527f30644e72e131a029b85045b68181585d2833e84879b9709143e1f593f00000016200003361018062000762565b6040516020818303038152906040528051906020012060001c62000058919062000a56565b60005560016007556000600a556000600b5560016010553480156200007c57600080fd5b506040516200540e3803806200540e8339810160408190526200009f916200061f565b8b601260008201518160000160006101000a81548160ff021916908360ff16021790555060208201518160000160016101000a81548160ff021916908360ff16021790555060408201518160000160026101000a81548160ff021916908360ff16021790555090505089600160006101000a8154816001600160a01b0302191690836001600160a01b0316021790555088600260006101000a8154816001600160a01b0302191690836001600160a01b0316021790555087600360006101000a8154816001600160a01b0302191690836001600160a01b0316021790555086600460006101000a8154816001600160a01b0302191690836001600160a01b0316021790555085600560006101000a8154816001600160a01b0302191690836001600160a01b0316021790555084600660006101000a8154816001600160a01b0302191690836001600160a01b031602179055508360ff1660c08160ff1660f81b815250508260ff1660e08160ff1660f81b81525050816080818152505042600881905550600060018d6000015160026200023a919062000921565b62000246919062000a19565b9050808c600001511115620002785760405162461bcd60e51b81526004016200026f9062000823565b60405180910390fd5b8b516101005260208d01516000906001906200029690600262000921565b620002a2919062000a19565b9050808d602001511115620002cb5760405162461bcd60e51b81526004016200026f906200085a565b6020808e0151610120528e0151620002e3906200030e565b6009558d51620002f39062000390565b60a0525050610140525062000a8d9950505050505050505050565b60006200031a62000585565b60005b60058160ff1610156200036a576000828260ff16600581106200035057634e487b7160e01b600052603260045260246000fd5b602002015280620003618162000a33565b9150506200031d565b5060006200037882620003b4565b90506200038684826200044a565b925050505b919050565b604080518082019091526000808252600954602083015290816200037882620004d2565b604051630926f44b60e31b815260009073__$223301b175b06473d424a7afc957d4e96c$__90634937a25890620003f0908590600401620007a7565b60206040518083038186803b1580156200040957600080fd5b505af41580156200041e573d6000803e3d6000fd5b505050506040513d601f19601f8201168201806040525081019062000444919062000749565b92915050565b6000808360ff161180156200046457506101008360ff1611155b620004835760405162461bcd60e51b81526004016200026f90620007d1565b8160015b8460ff168160ff161015620004bd576000620004a48380620004e2565b9250819050620004b48162000a33565b91505062000487565b50620004ca8180620004e2565b949350505050565b8051602082015160009162000444915b6000620004ee620005a3565b838152602081018390526040516314d2f97b60e11b815273__$86e0c54df1042e28bf2dd20ccf184dc428$__906329a5f2f6906200053190849060040162000774565b60206040518083038186803b1580156200054a57600080fd5b505af41580156200055f573d6000803e3d6000fd5b505050506040513d601f19601f82011682018060405250810190620004ca919062000749565b6040518060a001604052806005906020820280368337509192915050565b60405180604001604052806002906020820280368337509192915050565b80516001600160a01b03811681146200038b57600080fd5b600060408284031215620005eb578081fd5b620005f760406200089c565b9050815181526020820151602082015292915050565b805160ff811681146200038b57600080fd5b6000806000806000806000806000806000808c8e036101e081121562000643578889fd5b606081121562000651578889fd5b506200065e60606200089c565b620006698e6200060d565b81526200067960208f016200060d565b60208201526200068c60408f016200060d565b60408201529b50620006a28e60608f01620005d9565b9a50620006b260a08e01620005c1565b9950620006c260c08e01620005c1565b9850620006d260e08e01620005c1565b9750620006e36101008e01620005c1565b9650620006f46101208e01620005c1565b9550620007056101408e01620005c1565b9450620007166101608e016200060d565b9350620007276101808e016200060d565b92506101a08d015191506101c08d015190509295989b509295989b509295989b565b6000602082840312156200075b578081fd5b5051919050565b650556e697265760d41b815260060190565b60408101818360005b60028110156200079e5781518352602092830192909101906001016200077d565b50505092915050565b60a08101818360005b60058110156200079e578151835260209283019290910190600101620007b0565b60208082526032908201527f436f6d70757465526f6f743a205f747265654c6576656c73206d757374206265604082015271103132ba3bb2b2b710181030b73210191a9b60711b606082015260800190565b6020808252601e908201527f556e697265703a20696e76616c6964206d617855736572732076616c75650000604082015260600190565b60208082526022908201527f556e697265703a20696e76616c6964206d61784174746573746572732076616c604082015261756560f01b606082015260800190565b6040518181016001600160401b0381118282101715620008cc57634e487b7160e01b600052604160045260246000fd5b604052919050565b80825b6001808611620008e8575062000918565b818704821115620008fd57620008fd62000a77565b808616156200090b57918102915b9490941c938002620008d7565b94509492505050565b60006200093560001960ff8516846200093c565b9392505050565b6000826200094d5750600162000935565b816200095c5750600062000935565b81600181146200097557600281146200098057620009b4565b600191505062000935565b60ff84111562000994576200099462000a77565b6001841b915084821115620009ad57620009ad62000a77565b5062000935565b5060208310610133831016604e8410600b8410161715620009ec575081810a83811115620009e657620009e662000a77565b62000935565b620009fb8484846001620008d4565b80860482111562000a105762000a1062000a77565b02949350505050565b60008282101562000a2e5762000a2e62000a77565b500390565b600060ff821660ff81141562000a4d5762000a4d62000a77565b60010192915050565b60008262000a7257634e487b7160e01b81526012600452602481fd5b500690565b634e487b7160e01b600052601160045260246000fd5b60805160a05160c05160f81c60e05160f81c61010051610120516101405161485562000bb9600039600081816108770152818161139e0152818161189b015281816119bb0152611d0b01526000818161153201528181611e300152612987015260008181610f1b015261235a0152600081816109ac01528181610a4701528181610a9901528181610af201528181610b4b01528181610ba401528181610bfd01528181610c5601528181610caf015281816119fc015261221b015260008181611b8701528181611c05015281816121740152818161238a01528181612442015281816124ec0152818161256a015281816125ed0152818161264b015281816126a3015281816126fd015261277801526000611f9201526000818161159c015261225c01526148556000f3fe6080604052600436106102885760003560e01c80639109d1eb1161015a578063b876ed71116100c1578063e87101b11161007a578063e87101b1146106ff578063f20ca7ff14610714578063f5ab0dd614610734578063f73c8ebb14610763578063fadd942d14610783578063fc14478a1461079857610288565b8063b876ed711461066b578063c26396731461068b578063c6e01232146106a0578063d3aa645b146106b5578063de723886146106d5578063e1b0e802146106ea57610288565b8063a5500c3011610113578063a5500c30146105b0578063a710d60f146105d0578063a7c264ca146105f0578063a7ebaa7514610612578063ac98e5df14610627578063b530dc8c1461064b57610288565b80639109d1eb1461051c578063918f0c161461053157806398588c1f146105465780639cfced9714610566578063a27e572a14610586578063a3836b201461059b57610288565b806356df4634116101fe578063705edd39116101b7578063705edd391461047d5780637341ead91461049257806376671808146104b257806381f2ab76146104c7578063839beeb8146104e757806383e168ad146104fc57610288565b806356df4634146103ed57806357d775f8146104025780635b3745b5146104175780635bb93995146104375780635e2f8d1914610457578063606736fb1461046a57610288565b80633334dc5b116102505780633334dc5b1461033a5780633acce9851461035a578063417b16e31461037a578063436b32d81461039a57806348b90f0b146103ba5780634edc9ace146103cd57610288565b806307d833081461028d578063131a91ad146102b85780631c89e8e8146102d85780632b95f97e146103055780632c6eb17f14610325575b600080fd5b34801561029957600080fd5b506102a26107b8565b6040516102af91906145b9565b60405180910390f35b3480156102c457600080fd5b506102a26102d33660046132a6565b6107be565b3480156102e457600080fd5b506102f86102f336600461364b565b6107d0565b6040516102af9190613a73565b34801561031157600080fd5b506102a261032036600461364b565b6107e5565b6103386103333660046135b4565b61080e565b005b34801561034657600080fd5b506102f8610355366004613418565b61097f565b34801561036657600080fd5b506102a261037536600461373a565b610e64565b34801561038657600080fd5b5061033861039536600461364b565b610eea565b3480156103a657600080fd5b506102f86103b53660046137d0565b6110b5565b6103386103c8366004613310565b6112ef565b3480156103d957600080fd5b506102a26103e836600461380e565b611487565b3480156103f957600080fd5b50610338611503565b34801561040e57600080fd5b506102a261159a565b34801561042357600080fd5b506102f861043236600461379b565b6115be565b34801561044357600080fd5b506102a261045236600461373a565b6117a3565b6103386104653660046134d9565b61183e565b61033861047836600461357c565b61195b565b34801561048957600080fd5b506102a2611b1d565b34801561049e57600080fd5b506102a26104ad3660046135c6565b611b44565b3480156104be57600080fd5b506102a2611b58565b3480156104d357600080fd5b506103386104e2366004613613565b611b5e565b3480156104f357600080fd5b506102a2611d09565b34801561050857600080fd5b506102a2610517366004613837565b611d2d565b34801561052857600080fd5b506102a2611dec565b34801561053d57600080fd5b506102a2611df2565b34801561055257600080fd5b506103386105613660046132c0565b611df8565b34801561057257600080fd5b506102a2610581366004613386565b611ee4565b34801561059257600080fd5b50610338611f6e565b3480156105a757600080fd5b506102a2611f90565b3480156105bc57600080fd5b506103386105cb36600461364b565b611fb4565b3480156105dc57600080fd5b506102f86105eb36600461379b565b611ff2565b3480156105fc57600080fd5b50610605612172565b6040516102af91906145e6565b34801561061e57600080fd5b50610338612196565b34801561063357600080fd5b5061063c6121ab565b6040516102af939291906145f4565b34801561065757600080fd5b506102a26106663660046132a6565b6121c7565b34801561067757600080fd5b5061033861068636600461375b565b6121d9565b34801561069757600080fd5b50610605612219565b3480156106ac57600080fd5b506102a261223d565b3480156106c157600080fd5b506102a26106d03660046132a6565b612243565b3480156106e157600080fd5b50610338612255565b3480156106f657600080fd5b506102a2612358565b34801561070b57600080fd5b506102a261237c565b34801561072057600080fd5b506102f861072f36600461367b565b612382565b34801561074057600080fd5b5061075461074f3660046133fc565b6128ca565b6040516102af93929190613998565b34801561076f57600080fd5b5061033861077e36600461375b565b612953565b34801561078f57600080fd5b506102a2612985565b3480156107a457600080fd5b506102f86107b336600461379b565b6129a9565b600d5481565b600f6020526000908152604090205481565b600c6020526000908152604090205460ff1681565b60006107ef61307b565b82815260016060820181905261080482611ee4565b925050505b919050565b336000908152600f60205260409020546108435760405162461bcd60e51b815260040161083a90613ccf565b60405180910390fd5b336000908152600f60205260409020546060820135146108755760405162461bcd60e51b815260040161083a90614248565b7f000000000000000000000000000000000000000000000000000000000000000034146108b45760405162461bcd60e51b815260040161083a90613d9e565b6007548135146108d65760405162461bcd60e51b815260040161083a90613b94565b600d546108e39034612b29565b600d556108ee613099565b336000818152600f602090815260408083205485529282526011815290829020549083015260016080830152600b5490517fb71278964a7bd2df69f6e08b0080e7d1fb1ecd8264eb401956a12ee68adb56469061094c9085906144c3565b60405180910390a261096633828460200135600b54612b3c565b600b80549060006109768361474e565b91905055505050565b6040805160128082526102608201909252600091829190602082016102408036833701905050905060005b7f000000000000000000000000000000000000000000000000000000000000000060ff168160ff161015610a42578d8d8260ff168181106109fb57634e487b7160e01b600052603260045260246000fd5b90506020020135828260ff1681518110610a2557634e487b7160e01b600052603260045260246000fd5b602090810291909101015280610a3a81614769565b9150506109aa565b508a817f000000000000000000000000000000000000000000000000000000000000000060ff1681518110610a8757634e487b7160e01b600052603260045260246000fd5b60209081029190910101528981610abf7f000000000000000000000000000000000000000000000000000000000000000060016146b6565b60ff1681518110610ae057634e487b7160e01b600052603260045260246000fd5b60209081029190910101528881610b187f000000000000000000000000000000000000000000000000000000000000000060026146b6565b60ff1681518110610b3957634e487b7160e01b600052603260045260246000fd5b60209081029190910101528781610b717f000000000000000000000000000000000000000000000000000000000000000060036146b6565b60ff1681518110610b9257634e487b7160e01b600052603260045260246000fd5b60209081029190910101528681610bca7f000000000000000000000000000000000000000000000000000000000000000060046146b6565b60ff1681518110610beb57634e487b7160e01b600052603260045260246000fd5b60209081029190910101528581610c237f000000000000000000000000000000000000000000000000000000000000000060056146b6565b60ff1681518110610c4457634e487b7160e01b600052603260045260246000fd5b60209081029190910101528481610c7c7f000000000000000000000000000000000000000000000000000000000000000060066146b6565b60ff1681518110610c9d57634e487b7160e01b600052603260045260246000fd5b60209081029190910101528381610cd57f000000000000000000000000000000000000000000000000000000000000000060076146b6565b60ff1681518110610cf657634e487b7160e01b600052603260045260246000fd5b60200260200101818152505060005b81518160ff161015610d7a576000805160206147e0833981519152828260ff1681518110610d4357634e487b7160e01b600052603260045260246000fd5b602002602001015110610d685760405162461bcd60e51b815260040161083a9061427f565b80610d7281614769565b915050610d05565b50610d836130c8565b60408051610100818101909252610db291869060089083908390808284376000920191909152506128ca915050565b60408085018290526020850183905283855260055490516361971b8760e11b81526001600160a01b039091169363c32e370e93610df893919290919088906004016139c1565b60206040518083038186803b158015610e1057600080fd5b505afa158015610e24573d6000803e3d6000fd5b505050506040513d601f19601f82011682018060405250810190610e4891906134b9565b151560609091018190529150509b9a5050505050505050505050565b6000610e6e61307b565b60005b60058160ff161015610eb9576000828260ff1660058110610ea257634e487b7160e01b600052603260045260246000fd5b602002015280610eb181614769565b915050610e71565b506000610ec582611ee4565b601254909150610edf90610100900460ff16868684611d2d565b925050505b92915050565b6000818152600c602052604090205460ff1615610f195760405162461bcd60e51b815260040161083a90614144565b7f0000000000000000000000000000000000000000000000000000000000000000600a5410610f5a5760405162461bcd60e51b815260040161083a9061418a565b600954336000908152600f60209081526040808320546011909252909120548115801590610f885750600081115b15610fa8576000610f98826107e5565b9050610fa48382610e64565b9350505b60408051808201909152848152602081018490526000610fc782611b44565b6000878152600c60205260408120805460ff19166001179055600a805492935090610ff18361474e565b919050555060075460008051602061480083398151915260405161101490613f3a565b60405180910390a2600b547fbdcb306569af4b00571f0633c2439c458084e1beac220a28ea9678a2f01ca1e2878686604051611052939291906145d0565b60405180910390a26007547f9d6db97120dc5c5f0a16903f507cbe1b12cb72d2c8d70511a607e36c407f357082600b546040516110909291906145c2565b60405180910390a2600b80549060006110a88361474e565b9190505550505050505050565b60408051600480825260a082019092526000918291906020820160808036833701905050905086816000815181106110fd57634e487b7160e01b600052603260045260246000fd5b602002602001018181525050858160018151811061112b57634e487b7160e01b600052603260045260246000fd5b602002602001018181525050848160028151811061115957634e487b7160e01b600052603260045260246000fd5b602002602001018181525050838160038151811061118757634e487b7160e01b600052603260045260246000fd5b60200260200101818152505060005b81518160ff16101561120b576000805160206147e0833981519152828260ff16815181106111d457634e487b7160e01b600052603260045260246000fd5b6020026020010151106111f95760405162461bcd60e51b815260040161083a9061427f565b8061120381614769565b915050611196565b506112146130c8565b6040805161010081810190925261124391869060089083908390808284376000920191909152506128ca915050565b60408085018290526020850183905283855260065490516361971b8760e11b81526001600160a01b039091169363c32e370e9361128993919290919088906004016139c1565b60206040518083038186803b1580156112a157600080fd5b505afa1580156112b5573d6000803e3d6000fd5b505050506040513d601f19601f820116820180604052508101906112d991906134b9565b1515606090910181905291505095945050505050565b61132f8585858080601f016020809104026020016040519081016040528093929190818152602001838380828437600092019190915250612c6592505050565b6001600160a01b0385166000908152600f60205260409020546113645760405162461bcd60e51b815260040161083a90613ccf565b6001600160a01b0385166000908152600f602052604090205482351461139c5760405162461bcd60e51b815260040161083a90614248565b7f000000000000000000000000000000000000000000000000000000000000000034146113db5760405162461bcd60e51b815260040161083a90613d9e565b6007548160200135146114005760405162461bcd60e51b815260040161083a90613c35565b600d5461140d9034612b29565b600d55600b546040517f6bbb38e702dc19391dcbc5ba8d341c2b508170654cffac0c5e308136238c7354906114439084906143f5565b60405180910390a261146b8561145e3685900385018561350e565b8360400135600b54612b3c565b600b805490600061147b8361474e565b91905055505050505050565b6000808360ff161180156114a057506101008360ff1611155b6114bc5760405162461bcd60e51b815260040161083a90613d4c565b8160015b8460ff168160ff1610156114f05760006114da83846117a3565b92508190506114e881614769565b9150506114c0565b506114fb81826117a3565b949350505050565b336000908152600f6020526040902054156115305760405162461bcd60e51b815260040161083a90613ad3565b7f0000000000000000000000000000000000000000000000000000000000000000601054106115715760405162461bcd60e51b815260040161083a90614021565b60108054336000908152600f602052604081208290559091906115938361474e565b9190505550565b7f000000000000000000000000000000000000000000000000000000000000000081565b60408051600480825260a0820190925260009182919060208201608080368337019050509050858160008151811061160657634e487b7160e01b600052603260045260246000fd5b602002602001018181525050848160018151811061163457634e487b7160e01b600052603260045260246000fd5b602002602001018181525050838160028151811061166257634e487b7160e01b600052603260045260246000fd5b60200260200101818152505060005b81518160ff1610156116e6576000805160206147e0833981519152828260ff16815181106116af57634e487b7160e01b600052603260045260246000fd5b6020026020010151106116d45760405162461bcd60e51b815260040161083a9061427f565b806116de81614769565b915050611671565b506116ef6130c8565b6116f8846128ca565b60408085018290526020850183905283855260025490516361971b8760e11b81526001600160a01b039091169363c32e370e9361173e93919290919088906004016139c1565b60206040518083038186803b15801561175657600080fd5b505afa15801561176a573d6000803e3d6000fd5b505050506040513d601f19601f8201168201806040525081019061178e91906134b9565b15156060909101819052915050949350505050565b60006117ad613102565b838152602081018390526040516314d2f97b60e11b815273__$86e0c54df1042e28bf2dd20ccf184dc428$__906329a5f2f6906117ee908490600401613967565b60206040518083038186803b15801561180657600080fd5b505af415801561181a573d6000803e3d6000fd5b505050506040513d601f19601f820116820180604052508101906114fb9190613663565b336000908152600f602052604090205461186a5760405162461bcd60e51b815260040161083a90613ccf565b336000908152600f60205260409020548235146118995760405162461bcd60e51b815260040161083a90614248565b7f000000000000000000000000000000000000000000000000000000000000000034146118d85760405162461bcd60e51b815260040161083a90613d9e565b6007548160200135146118fd5760405162461bcd60e51b815260040161083a90613c35565b600d5461190a9034612b29565b600d55600b546040517f6bbb38e702dc19391dcbc5ba8d341c2b508170654cffac0c5e308136238c7354906119409084906143f5565b60405180910390a26109663361145e3685900385018561350e565b336000908152600f60205260409020546119875760405162461bcd60e51b815260040161083a90613ccf565b336000908152600f60205260409020546080820135146119b95760405162461bcd60e51b815260040161083a90614248565b7f000000000000000000000000000000000000000000000000000000000000000034146119f85760405162461bcd60e51b815260040161083a90613d9e565b60ff7f000000000000000000000000000000000000000000000000000000000000000016611a268280614611565b905014611a455760405162461bcd60e51b815260040161083a90613f66565b600754816020013514611a6a5760405162461bcd60e51b815260040161083a90613e0e565b336000908152600f6020526040902054608082013514611a9c5760405162461bcd60e51b815260040161083a90614324565b600d54611aa99034612b29565b600d55611ab4613099565b336000908152600f60205260409081902054825260a083013582820152600b5490517f4e4847661de054ecb3b675d85b52c1efe6a9097020ad433f51256dc0eb4b224e90611b0390859061442c565b60405180910390a261096633828460400135600b54612b3c565b604080518082019091526000808252600954602083015290611b3e81611b44565b91505090565b6000610ee4826000015183602001516117a3565b60075481565b600754816040013510611b835760405162461bcd60e51b815260040161083a90613fb5565b60ff7f000000000000000000000000000000000000000000000000000000000000000016611bb46020830183614611565b905014611bd35760405162461bcd60e51b815260040161083a906142dc565b611be06060820182614611565b9050600214611c015760405162461bcd60e51b815260040161083a90613be8565b60ff7f000000000000000000000000000000000000000000000000000000000000000016611c3260a0830183614611565b905014611c515760405162461bcd60e51b815260040161083a90614073565b600754600080516020614800833981519152604051611c6f90613f3a565b60405180910390a2600b547f835353653994da5dad164ee81aa8f0bcefcdcef41d3133115abf89a62adaa02f82604051611ca99190614504565b60405180910390a2600754600b546040517f9d6db97120dc5c5f0a16903f507cbe1b12cb72d2c8d70511a607e36c407f357091611ce991853591906145c2565b60405180910390a2600b8054906000611d018361474e565b919050555050565b7f000000000000000000000000000000000000000000000000000000000000000081565b6000808560ff16118015611d4657506101008560ff1611155b611d625760405162461bcd60e51b815260040161083a90613d4c565b82828560015b611d738960016146b6565b60ff168160ff161015611ddf576000611d8c84856117a3565b9050611d99600284614789565b611dae57611da785856117a3565b9450611dbb565b611db884866117a3565b94505b925082611dc96002846146db565b9250508080611dd790614769565b915050611d68565b5091979650505050505050565b60105481565b600a5481565b6001600160a01b0383166000908152600f602052604090205415611e2e5760405162461bcd60e51b815260040161083a90613ad3565b7f000000000000000000000000000000000000000000000000000000000000000060105410611e6f5760405162461bcd60e51b815260040161083a90614021565b611eaf8383838080601f016020809104026020016040519081016040528093929190818152602001838380828437600092019190915250612c6592505050565b601080546001600160a01b0385166000908152600f60205260408120829055909190611eda8361474e565b9190505550505050565b604051630926f44b60e31b815260009073__$223301b175b06473d424a7afc957d4e96c$__90634937a25890611f1e908590600401613a35565b60206040518083038186803b158015611f3657600080fd5b505af4158015611f4a573d6000803e3d6000fd5b505050506040513d601f19601f82011682018060405250810190610ee49190613663565b336000818152600e60205260408120805491905590611f8d9082612cf7565b50565b7f000000000000000000000000000000000000000000000000000000000000000081565b336000908152600f6020526040902054611fe05760405162461bcd60e51b815260040161083a90613ccf565b33600090815260116020526040902055565b60408051600480825260a0820190925260009182919060208201608080368337019050509050858160008151811061203a57634e487b7160e01b600052603260045260246000fd5b602002602001018181525050848160018151811061206857634e487b7160e01b600052603260045260246000fd5b602002602001018181525050838160028151811061209657634e487b7160e01b600052603260045260246000fd5b60200260200101818152505060005b81518160ff16101561211a576000805160206147e0833981519152828260ff16815181106120e357634e487b7160e01b600052603260045260246000fd5b6020026020010151106121085760405162461bcd60e51b815260040161083a9061427f565b8061211281614769565b9150506120a5565b506121236130c8565b61212c846128ca565b60408085018290526020850183905283855260035490516361971b8760e11b81526001600160a01b039091169363c32e370e9361173e93919290919088906004016139c1565b7f000000000000000000000000000000000000000000000000000000000000000081565b600d805460009182905590611f8d9082612cf7565b60125460ff808216916101008104821691620100009091041683565b60116020526000908152604090205481565b8183857f8d55c695efbdbee802c50677f36018d0cf99c01a559c28900b7b3a766ff68e4f8460405161220b9190613a5d565b60405180910390a450505050565b7f000000000000000000000000000000000000000000000000000000000000000081565b60095481565b600e6020526000908152604090205481565b60005a90507f0000000000000000000000000000000000000000000000000000000000000000600854426122899190614737565b10156122a75760405162461bcd60e51b815260040161083a90613d15565b6007546000805160206148008339815191526040516122c590613dea565b60405180910390a26007546040517f751bb1ba7b27b3979a32844d4d05aa16a46a771b751593704834a80311e3a9b990600090a2426008556007805490600061230d8361474e565b9190505550600061231f5a8390612d93565b905061234461232e823a612d9f565b336000908152600e602052604090205490612b29565b336000908152600e60205260409020555050565b7f000000000000000000000000000000000000000000000000000000000000000081565b60085481565b6000806123b07f0000000000000000000000000000000000000000000000000000000000000000600261470e565b6123bb9060066146b6565b60ff166001600160401b038111156123e357634e487b7160e01b600052604160045260246000fd5b60405190808252806020026020018201604052801561240c578160200160208202803683370190505b5090508c8160008151811061243157634e487b7160e01b600052603260045260246000fd5b60200260200101818152505060005b7f000000000000000000000000000000000000000000000000000000000000000060ff168160ff1610156124e4578c8c8260ff1681811061249157634e487b7160e01b600052603260045260246000fd5b90506020020135828260016124a691906146b6565b60ff16815181106124c757634e487b7160e01b600052603260045260246000fd5b6020908102919091010152806124dc81614769565b915050612440565b5089816125127f000000000000000000000000000000000000000000000000000000000000000060016146b6565b60ff168151811061253357634e487b7160e01b600052603260045260246000fd5b6020026020010181815250508888600081811061256057634e487b7160e01b600052603260045260246000fd5b90506020020135817f0000000000000000000000000000000000000000000000000000000000000000600261259591906146b6565b60ff16815181106125b657634e487b7160e01b600052603260045260246000fd5b602002602001018181525050888860018181106125e357634e487b7160e01b600052603260045260246000fd5b90506020020135817f0000000000000000000000000000000000000000000000000000000000000000600361261891906146b6565b60ff168151811061263957634e487b7160e01b600052603260045260246000fd5b602090810291909101015286816126717f000000000000000000000000000000000000000000000000000000000000000060046146b6565b60ff168151811061269257634e487b7160e01b600052603260045260246000fd5b60200260200101818152505060005b7f000000000000000000000000000000000000000000000000000000000000000060ff168160ff1610156127705786868260ff168181106126f257634e487b7160e01b600052603260045260246000fd5b9050602002013582827f0000000000000000000000000000000000000000000000000000000000000000600561272891906146b6565b61273291906146b6565b60ff168151811061275357634e487b7160e01b600052603260045260246000fd5b60209081029190910101528061276881614769565b9150506126a1565b50838161279e7f0000000000000000000000000000000000000000000000000000000000000000600261470e565b6127a99060056146b6565b60ff16815181106127ca57634e487b7160e01b600052603260045260246000fd5b60200260200101818152505060005b81518160ff16101561284e576000805160206147e0833981519152828260ff168151811061281757634e487b7160e01b600052603260045260246000fd5b60200260200101511061283c5760405162461bcd60e51b815260040161083a9061427f565b8061284681614769565b9150506127d9565b506128576130c8565b6040805161010081810190925261288691869060089083908390808284376000920191909152506128ca915050565b6040808501829052602085018390528385526004805491516361971b8760e11b81526001600160a01b039092169463c32e370e94610df894919390928991016139c1565b6128d2613102565b6128da613120565b6128e2613102565b50506040805180820182528351815260208085015181830152825160808082018552868501518286019081526060808901519084015282528451808601865290870151815260a08701518184015281830152835180850190945260c0860151845260e0909501519083015293909150565b8183857fb9b5938bf90c04e72fb17dd0efd5f260e8fc50bbc1c458912d5228b91bc45df38460405161220b9190613a5d565b7f000000000000000000000000000000000000000000000000000000000000000081565b604080516003808252608082019092526000918291906020820160608036833701905050905085816000815181106129f157634e487b7160e01b600052603260045260246000fd5b6020026020010181815250508481600181518110612a1f57634e487b7160e01b600052603260045260246000fd5b6020026020010181815250508381600281518110612a4d57634e487b7160e01b600052603260045260246000fd5b60200260200101818152505060005b81518160ff161015612ad1576000805160206147e0833981519152828260ff1681518110612a9a57634e487b7160e01b600052603260045260246000fd5b602002602001015110612abf5760405162461bcd60e51b815260040161083a9061427f565b80612ac981614769565b915050612a5c565b50612ada6130c8565b612ae3846128ca565b60408085018290526020850183905283855260015490516361971b8760e11b81526001600160a01b039091169363c32e370e9361173e93919290919088906004016139c1565b6000612b35828461469e565b9392505050565b6000805160206147e0833981519152836020015110612b6d5760405162461bcd60e51b815260040161083a906140c0565b6000805160206147e0833981519152836040015110612b9e5760405162461bcd60e51b815260040161083a90614206565b6000805160206147e0833981519152836060015110612bcf5760405162461bcd60e51b815260040161083a90613b50565b826080015160011480612be457506080830151155b612c005760405162461bcd60e51b815260040161083a90614379565b600754600080516020614800833981519152604051612c1e906141d8565b60405180910390a2836001600160a01b0316826007547f6f842da370f6ba302f71b743e4e98494d7a025f1ceceeb9d604ea3e63d42e170868560405161220b9291906143bb565b60008230604051602001612c7a92919061390c565b60405160208183030381529060405280519060200120604051602001612ca09190613933565b604051602081830303815290604052805190602001209050826001600160a01b0316612ccc8284612dab565b6001600160a01b031614612cf25760405162461bcd60e51b815260040161083a90613c85565b505050565b80471015612d175760405162461bcd60e51b815260040161083a90613f03565b6000826001600160a01b031682604051612d3090613964565b60006040518083038185875af1925050503d8060008114612d6d576040519150601f19603f3d011682016040523d82523d6000602084013e612d72565b606091505b5050905080612cf25760405162461bcd60e51b815260040161083a90613e64565b6000612b358284614737565b6000612b3582846146ef565b6000806000612dba8585612dcf565b91509150612dc781612e3f565b509392505050565b600080825160411415612e065760208301516040840151606085015160001a612dfa87828585612f6c565b94509450505050612e38565b825160401415612e305760208301516040840151612e2586838361304c565b935093505050612e38565b506000905060025b9250929050565b6000816004811115612e6157634e487b7160e01b600052602160045260246000fd5b1415612e6c57611f8d565b6001816004811115612e8e57634e487b7160e01b600052602160045260246000fd5b1415612eac5760405162461bcd60e51b815260040161083a90613a9c565b6002816004811115612ece57634e487b7160e01b600052602160045260246000fd5b1415612eec5760405162461bcd60e51b815260040161083a90613b19565b6003816004811115612f0e57634e487b7160e01b600052602160045260246000fd5b1415612f2c5760405162461bcd60e51b815260040161083a90613ec1565b6004816004811115612f4e57634e487b7160e01b600052602160045260246000fd5b1415611f8d5760405162461bcd60e51b815260040161083a90614102565b6000807f7fffffffffffffffffffffffffffffff5d576e7357a4501ddfe92f46681b20a0831115612fa35750600090506003613043565b8460ff16601b14158015612fbb57508460ff16601c14155b15612fcc5750600090506004613043565b600060018787878760405160008152602001604052604051612ff19493929190613a7e565b6020604051602081039080840390855afa158015613013573d6000803e3d6000fd5b5050604051601f1901519150506001600160a01b03811661303c57600060019250925050613043565b9150600090505b94509492505050565b6000806001600160ff1b03831660ff84901c601b0161306d87828885612f6c565b935093505050935093915050565b6040518060a001604052806005906020820280368337509192915050565b6040518060a0016040528060008152602001600081526020016000815260200160008152602001600081525090565b60405180608001604052806130db613102565b81526020016130e8613120565b81526020016130f5613102565b8152600060209091015290565b60405180604001604052806002906020820280368337509192915050565b60405180604001604052806002905b613137613102565b81526020019060019003908161312f5790505090565b80356001600160a01b038116811461080957600080fd5b806101008101831015610ee457600080fd5b600082601f830112613186578081fd5b6040516101008082018281106001600160401b03821117156131aa576131aa6147c9565b60405281848281018710156131bd578485fd5b8492505b60088310156131e1578035825260019290920191602091820191016131c1565b509195945050505050565b60008083601f8401126131fd578182fd5b5081356001600160401b03811115613213578182fd5b6020830191508360208083028501011115612e3857600080fd5b60008083601f84011261323e578182fd5b5081356001600160401b03811115613254578182fd5b602083019150836020828501011115612e3857600080fd5b600060a0828403121561327d578081fd5b50919050565b6000610160828403121561327d578081fd5b803560ff8116811461080957600080fd5b6000602082840312156132b7578081fd5b612b358261314d565b6000806000604084860312156132d4578182fd5b6132dd8461314d565b925060208401356001600160401b038111156132f7578283fd5b6133038682870161322d565b9497909650939450505050565b60008060008060006102408688031215613328578081fd5b6133318661314d565b945060208601356001600160401b0381111561334b578182fd5b6133578882890161322d565b909550935061336b9050876040880161326c565b915061337a8760e08801613283565b90509295509295909350565b600060a08284031215613397578081fd5b82601f8301126133a5578081fd5b60405160a081018181106001600160401b03821117156133c7576133c76147c9565b604052808360a081018610156133db578384fd5b835b60058110156131e15781358352602092830192909101906001016133dd565b6000610100828403121561340e578081fd5b612b358383613176565b60008060008060008060008060008060006102208c8e031215613439578586fd5b8b356001600160401b0381111561344e578687fd5b61345a8e828f016131ec565b909c509a505060208c0135985060408c0135975060608c0135965060808c0135955060a08c0135945060c08c0135935060e08c013592506101008c013591506134a78d6101208e01613164565b90509295989b509295989b9093969950565b6000602082840312156134ca578081fd5b81518015158114612b35578182fd5b60008061020083850312156134ec578182fd5b6134f6848461326c565b91506135058460a08501613283565b90509250929050565b600060a0828403121561351f578081fd5b60405160a081018181106001600160401b0382111715613541576135416147c9565b806040525082358152602083013560208201526040830135604082015260608301356060820152608083013560808201528091505092915050565b60006020828403121561358d578081fd5b81356001600160401b038111156135a2578182fd5b82016102208185031215612b35578182fd5b6000610180828403121561327d578081fd5b6000604082840312156135d7578081fd5b604051604081018181106001600160401b03821117156135f9576135f96147c9565b604052823581526020928301359281019290925250919050565b600060208284031215613624578081fd5b81356001600160401b03811115613639578182fd5b82016101e08185031215612b35578182fd5b60006020828403121561365c578081fd5b5035919050565b600060208284031215613674578081fd5b5051919050565b60008060008060008060008060008060006101e08c8e03121561369c578485fd5b8b359a506001600160401b038060208e013511156136b8578586fd5b6136c88e60208f01358f016131ec565b909b50995060408d0135985060608d01358110156136e4578586fd5b6136f48e60608f01358f016131ec565b909850965060808d0135955060a08d0135811015613710578485fd5b506137218d60a08e01358e016131ec565b909450925060c08c013591506134a78d60e08e01613164565b6000806040838503121561374c578182fd5b50508035926020909101359150565b6000806000806101608587031215613771578182fd5b8435935060208501359250604085013591506137908660608701613164565b905092959194509250565b60008060008061016085870312156137b1578182fd5b8435935060208501359250604085013591506137908660608701613176565b600080600080600061018086880312156137e8578283fd5b8535945060208601359350604086013592506060860135915061337a8760808801613164565b60008060408385031215613820578182fd5b61382983613295565b946020939093013593505050565b6000806000806080858703121561384c578182fd5b61385585613295565b966020860135965060408601359560600135945092505050565b8060005b600281101561389d576138878483516138a3565b6040939093019260209190910190600101613873565b50505050565b8060005b600281101561389d5781518452602093840193909101906001016138a7565b61010080828437600081840152505050565b81835260006001600160fb1b038311156138f0578081fd5b6020830280836020870137939093016020019283525090919050565b6bffffffffffffffffffffffff19606093841b811682529190921b16601482015260280190565b7f19457468657265756d205369676e6564204d6573736167653a0a3332000000008152601c810191909152603c0190565b90565b60408101818360005b600281101561398f578151835260209283019290910190600101613970565b50505092915050565b61010081016139a782866138a3565b6139b4604083018561386f565b6114fb60c08301846138a3565b60006101208083016139d384896138a3565b6139e0604085018861386f565b6139ed60c08501876138a3565b610100840191909152835190819052610140830190602090818601845b82811015613a2657815185529383019390830190600101613a0a565b50929998505050505050505050565b60a08101818360005b600581101561398f578151835260209283019290910190600101613a3e565b6101008181019080848437506000815292915050565b901515815260200190565b93845260ff9290921660208401526040830152606082015260800190565b60208082526018908201527f45434453413a20696e76616c6964207369676e61747572650000000000000000604082015260600190565b60208082526026908201527f556e697265703a2061747465737465722068617320616c72656164792073696760408201526506e65642075760d41b606082015260800190565b6020808252601f908201527f45434453413a20696e76616c6964207369676e6174757265206c656e67746800604082015260600190565b60208082526024908201527f556e697265703a20696e76616c6964206174746573746174696f6e20677261666040820152636669746960e01b606082015260800190565b60208082526034908201527f556e697265703a207375626d697420616e2061697264726f702070726f6f66206040820152730eed2e8d040d2dcc6dee4e4cac6e840cae0dec6d60631b606082015260800190565b6020808252602d908201527f556e697265703a20696e76616c6964206e756d626572206f6620626c696e646560408201526c6420757365722073746174657360981b606082015260800190565b60208082526030908201527f556e697265703a207375626d697420616e2065706f6368206b6579207769746860408201526f040d2dcc6dee4e4cac6e840cae0dec6d60831b606082015260800190565b6020808252602a908201527f556e697265703a20696e76616c6964206174746573746572207369676e207570604082015269207369676e617475726560b01b606082015260800190565b60208082526026908201527f556e697265703a20617474657374657220686173206e6f74207369676e6564206040820152651d5c081e595d60d21b606082015260800190565b6020808252601b908201527f556e697265703a2065706f6368206e6f742079657420656e6465640000000000604082015260600190565b60208082526032908201527f436f6d70757465526f6f743a205f747265654c6576656c73206d757374206265604082015271103132ba3bb2b2b710181030b73210191a9b60711b606082015260800190565b6020808252602c908201527f556e697265703a206e6f20617474657374696e6720666565206f7220696e636f60408201526b1c9c9958dd08185b5bdd5b9d60a21b606082015260800190565b6020808252600a9082015269115c1bd8da115b99195960b21b604082015260600190565b60208082526036908201527f556e697265703a207375626d697420612072657075746174696f6e2070726f6f6040820152750cc40eed2e8d040d2dcc6dee4e4cac6e840cae0dec6d60531b606082015260800190565b6020808252603a908201527f416464726573733a20756e61626c6520746f2073656e642076616c75652c207260408201527f6563697069656e74206d61792068617665207265766572746564000000000000606082015260800190565b60208082526022908201527f45434453413a20696e76616c6964207369676e6174757265202773272076616c604082015261756560f01b606082015260800190565b6020808252601d908201527f416464726573733a20696e73756666696369656e742062616c616e6365000000604082015260600190565b60208082526012908201527113995dd1d4d513195859925b9cd95c9d195960721b604082015260600190565b6020808252602f908201527f556e697265703a20696e76616c6964206e756d626572206f662072657075746160408201526e74696f6e206e756c6c69666965727360881b606082015260800190565b60208082526046908201527f43616e206e6f74207472616e736974696f6e2066726f6d2065706f636820746860408201527f617427732067726561746572206f7220657175616c20746f2063757272656e74606082015265040cae0dec6d60d31b608082015260a00190565b60208082526032908201527f556e697265703a206d6178696d756d206e756d626572206f6620617474657374604082015271195c881cda59db9d5c1cc81c995858da195960721b606082015260800190565b6020808252602d908201527f556e697265703a20696e76616c6964206e756d626572206f6620626c696e646560408201526c64206861736820636861696e7360981b606082015260800190565b60208082526022908201527f556e697265703a20696e76616c6964206174746573746174696f6e20706f7352604082015261065760f41b606082015260800190565b60208082526022908201527f45434453413a20696e76616c6964207369676e6174757265202776272076616c604082015261756560f01b606082015260800190565b60208082526026908201527f556e697265703a2074686520757365722068617320616c72656164792073696760408201526506e65642075760d41b606082015260800190565b6020808252602e908201527f556e697265703a206d6178696d756d206e756d626572206f662075736572207360408201526d1a59db9d5c1cc81c995858da195960921b606082015260800190565b602080825260149082015273105d1d195cdd185d1a5bdb94dd589b5a5d1d195960621b604082015260600190565b60208082526022908201527f556e697265703a20696e76616c6964206174746573746174696f6e206e656752604082015261065760f41b606082015260800190565b6020808252601d908201527f556e697265703a206d69736d6174636865642061747465737465724964000000604082015260600190565b6020808252603c908201527f556e697265703a2065616368207075626c6963207369676e616c206d7573742060408201527f6265206c742074686520736e61726b207363616c6172206669656c6400000000606082015260800190565b60208082526028908201527f556e697265703a20696e76616c6964206e756d626572206f662065706b206e756040820152676c6c69666965727360c01b606082015260800190565b60208082526035908201527f556e697265703a20696e636f727265637420617474657374657220494420696e604082015274103a3432903932b83aba30ba34b7b710383937b7b360591b606082015260800190565b60208082526022908201527f556e697265703a20696e76616c6964206174746573746174696f6e207369676e604082015261055760f41b606082015260800190565b825181526020808401519082015260408084015190820152606080840151908201526080928301519281019290925260a082015260c00190565b6000610160820190508235825260208301356020830152604083013560408301526101006060840160608401376000815292915050565b60006020825261443c8384614657565b6102206020850152614453610240850182846138d8565b915050602084013560408401526040840135606084015260608401356080840152608084013560a084015260a084013560c084015260c084013560e084015261010060e08501358185015261012081860135818601526144b961014086018288016138c6565b5090949350505050565b600061018082019050823582526020830135602083015260408301356040830152606083013560608301526101006080840160808401376000815292915050565b6000602082528235602083015261451e6020840184614657565b6101e06040850152614535610200850182846138d8565b9150506040840135606084015261454f6060850185614657565b601f19808685030160808701526145678483856138d8565b9350608087013560a087015261458060a0880188614657565b93509150808685030160c08701525061459a8383836138d8565b9250505060c084013560e0840152612b35610100840160e086016138c6565b90815260200190565b918252602082015260400190565b9283526020830191909152604082015260600190565b60ff91909116815260200190565b60ff93841681529183166020830152909116604082015260600190565b6000808335601e19843603018112614627578283fd5b8301803591506001600160401b03821115614640578283fd5b6020908101925081023603821315612e3857600080fd5b6000808335601e1984360301811261466d578283fd5b83016020810192503590506001600160401b0381111561468c57600080fd5b602081023603831315612e3857600080fd5b600082198211156146b1576146b161479d565b500190565b600060ff821660ff84168060ff038211156146d3576146d361479d565b019392505050565b6000826146ea576146ea6147b3565b500490565b60008160001904831182151516156147095761470961479d565b500290565b600060ff821660ff84168160ff048111821515161561472f5761472f61479d565b029392505050565b6000828210156147495761474961479d565b500390565b60006000198214156147625761476261479d565b5060010190565b600060ff821660ff8114156147805761478061479d565b60010192915050565b600082614798576147986147b3565b500690565b634e487b7160e01b600052601160045260246000fd5b634e487b7160e01b600052601260045260246000fd5b634e487b7160e01b600052604160045260246000fdfe30644e72e131a029b85045b68181585d2833e84879b9709143e1f593f0000001d520dc8edfe278d8221eb9bc1010dbafcff0b692cd5b1a0f7333dc9f228ca660a26469706673582212204177c6ac9da1e297e299c963cb245607e453da0c4cd571a359697d6491b7a5a364736f6c63430008000033",
    "linkReferences": {
        "contracts/Poseidon.sol": {
            "PoseidonT3": [
                {
                    "length": 20,
                    "start": 1287
                },
                {
                    "length": 20,
                    "start": 9087
                }
            ],
            "PoseidonT6": [
                {
                    "length": 20,
                    "start": 966
                },
                {
                    "length": 20,
                    "start": 10927
                }
            ]
        }
    },
    "deployedLinkReferences": {
        "contracts/Poseidon.sol": {
            "PoseidonT3": [
                {
                    "length": 20,
                    "start": 6086
                }
            ],
            "PoseidonT6": [
                {
                    "length": 20,
                    "start": 7926
                }
            ]
        }
    }
}