{
    "_format": "hh-sol-artifact-1",
    "contractName": "Unirep",
    "sourceName": "contracts/Unirep.sol",
    "abi": [
        {
            "inputs": [
                {
                    "components": [
                        {
                            "internalType": "uint8",
                            "name": "globalStateTreeDepth",
                            "type": "uint8"
                        },
                        {
                            "internalType": "uint8",
                            "name": "userStateTreeDepth",
                            "type": "uint8"
                        },
                        {
                            "internalType": "uint8",
                            "name": "epochTreeDepth",
                            "type": "uint8"
                        }
                    ],
                    "internalType": "struct UnirepParameters.TreeDepths",
                    "name": "_treeDepths",
                    "type": "tuple"
                },
                {
                    "components": [
                        {
                            "internalType": "uint256",
                            "name": "maxUsers",
                            "type": "uint256"
                        },
                        {
                            "internalType": "uint256",
                            "name": "maxAttesters",
                            "type": "uint256"
                        }
                    ],
                    "internalType": "struct UnirepParameters.MaxValues",
                    "name": "_maxValues",
                    "type": "tuple"
                },
                {
                    "internalType": "contract EpochKeyValidityVerifier",
                    "name": "_epkValidityVerifier",
                    "type": "address"
                },
                {
                    "internalType": "contract StartTransitionVerifier",
                    "name": "_startTransitionVerifier",
                    "type": "address"
                },
                {
                    "internalType": "contract ProcessAttestationsVerifier",
                    "name": "_processAttestationsVerifier",
                    "type": "address"
                },
                {
                    "internalType": "contract UserStateTransitionVerifier",
                    "name": "_userStateTransitionVerifier",
                    "type": "address"
                },
                {
                    "internalType": "contract ReputationVerifier",
                    "name": "_reputationVerifier",
                    "type": "address"
                },
                {
                    "internalType": "contract UserSignUpVerifier",
                    "name": "_userSignUpVerifier",
                    "type": "address"
                },
                {
                    "internalType": "uint8",
                    "name": "_numEpochKeyNoncePerEpoch",
                    "type": "uint8"
                },
                {
                    "internalType": "uint8",
                    "name": "_maxReputationBudget",
                    "type": "uint8"
                },
                {
                    "internalType": "uint256",
                    "name": "_epochLength",
                    "type": "uint256"
                },
                {
                    "internalType": "uint256",
                    "name": "_attestingFee",
                    "type": "uint256"
                }
            ],
            "stateMutability": "nonpayable",
            "type": "constructor"
        },
        {
            "anonymous": false,
            "inputs": [
                {
                    "indexed": true,
                    "internalType": "uint256",
                    "name": "_epoch",
                    "type": "uint256"
                },
                {
                    "indexed": true,
                    "internalType": "uint256",
                    "name": "_epochKey",
                    "type": "uint256"
                },
                {
                    "indexed": true,
                    "internalType": "address",
                    "name": "_attester",
                    "type": "address"
                },
                {
                    "indexed": false,
                    "internalType": "uint256",
                    "name": "_attestationIndex",
                    "type": "uint256"
                },
                {
                    "components": [
                        {
                            "internalType": "uint256",
                            "name": "attesterId",
                            "type": "uint256"
                        },
                        {
                            "internalType": "uint256",
                            "name": "posRep",
                            "type": "uint256"
                        },
                        {
                            "internalType": "uint256",
                            "name": "negRep",
                            "type": "uint256"
                        },
                        {
                            "internalType": "uint256",
                            "name": "graffiti",
                            "type": "uint256"
                        },
                        {
                            "internalType": "uint256",
                            "name": "signUp",
                            "type": "uint256"
                        }
                    ],
                    "indexed": false,
                    "internalType": "struct DomainObjs.Attestation",
                    "name": "attestation",
                    "type": "tuple"
                },
                {
                    "components": [
                        {
                            "internalType": "uint256",
                            "name": "fromGlobalStateTree",
                            "type": "uint256"
                        },
                        {
                            "internalType": "uint256[8]",
                            "name": "proof",
                            "type": "uint256[8]"
                        }
                    ],
                    "indexed": false,
                    "internalType": "struct UnirepParameters.EpochKeyProofRelated",
                    "name": "epkProofData",
                    "type": "tuple"
                }
            ],
            "name": "AttestationSubmitted",
            "type": "event"
        },
        {
            "anonymous": false,
            "inputs": [
                {
                    "indexed": true,
                    "internalType": "uint256",
                    "name": "_epoch",
                    "type": "uint256"
                }
            ],
            "name": "EpochEnded",
            "type": "event"
        },
        {
            "anonymous": false,
            "inputs": [
                {
                    "indexed": true,
                    "internalType": "uint256",
                    "name": "_epoch",
                    "type": "uint256"
                },
                {
                    "indexed": false,
                    "internalType": "uint256",
                    "name": "_leafIndex",
                    "type": "uint256"
                },
                {
                    "indexed": false,
                    "internalType": "uint256",
                    "name": "_hashedLeaf",
                    "type": "uint256"
                },
                {
                    "indexed": false,
                    "internalType": "uint256",
                    "name": "_attesterId",
                    "type": "uint256"
                },
                {
                    "indexed": false,
                    "internalType": "uint256",
                    "name": "_airdropAmount",
                    "type": "uint256"
                }
            ],
            "name": "NewGSTLeafInserted",
            "type": "event"
        },
        {
            "anonymous": false,
            "inputs": [
                {
                    "indexed": true,
                    "internalType": "uint256",
                    "name": "_outputBlindedUserState",
                    "type": "uint256"
                },
                {
                    "indexed": true,
                    "internalType": "uint256",
                    "name": "_outputBlindedHashChain",
                    "type": "uint256"
                },
                {
                    "indexed": false,
                    "internalType": "uint256",
                    "name": "_inputBlindedUserState",
                    "type": "uint256"
                },
                {
                    "indexed": false,
                    "internalType": "uint256[8]",
                    "name": "_proof",
                    "type": "uint256[8]"
                }
            ],
            "name": "ProcessedAttestations",
            "type": "event"
        },
        {
            "anonymous": false,
            "inputs": [
                {
                    "indexed": true,
                    "internalType": "uint256",
                    "name": "_epoch",
                    "type": "uint256"
                },
                {
                    "indexed": true,
                    "internalType": "uint256",
                    "name": "_epochKey",
                    "type": "uint256"
                },
                {
                    "indexed": true,
                    "internalType": "address",
                    "name": "_attester",
                    "type": "address"
                },
                {
                    "indexed": false,
                    "internalType": "uint256",
                    "name": "_attestationIndex",
                    "type": "uint256"
                },
                {
                    "components": [
                        {
                            "internalType": "uint256",
                            "name": "globalStateTree",
                            "type": "uint256"
                        },
                        {
                            "internalType": "uint256",
                            "name": "minRep",
                            "type": "uint256"
                        },
                        {
                            "internalType": "uint256",
                            "name": "proveGraffiti",
                            "type": "uint256"
                        },
                        {
                            "internalType": "uint256",
                            "name": "graffitiPreImage",
                            "type": "uint256"
                        },
                        {
                            "internalType": "uint256[8]",
                            "name": "proof",
                            "type": "uint256[8]"
                        }
                    ],
                    "indexed": false,
                    "internalType": "struct UnirepParameters.ReputationProofRelated",
                    "name": "reputationProofData",
                    "type": "tuple"
                },
                {
                    "indexed": false,
                    "internalType": "uint256[]",
                    "name": "reputationNullifiers",
                    "type": "uint256[]"
                }
            ],
            "name": "ReputationNullifierSubmitted",
            "type": "event"
        },
        {
            "anonymous": false,
            "inputs": [
                {
                    "indexed": false,
                    "internalType": "string",
                    "name": "_event",
                    "type": "string"
                }
            ],
            "name": "Sequencer",
            "type": "event"
        },
        {
            "anonymous": false,
            "inputs": [
                {
                    "indexed": true,
                    "internalType": "uint256",
                    "name": "_blindedUserState",
                    "type": "uint256"
                },
                {
                    "indexed": true,
                    "internalType": "uint256",
                    "name": "_blindedHashChain",
                    "type": "uint256"
                },
                {
                    "indexed": true,
                    "internalType": "uint256",
                    "name": "_GSTRoot",
                    "type": "uint256"
                },
                {
                    "indexed": false,
                    "internalType": "uint256[8]",
                    "name": "_proof",
                    "type": "uint256[8]"
                }
            ],
            "name": "StartedTransition",
            "type": "event"
        },
        {
            "anonymous": false,
            "inputs": [
                {
                    "indexed": true,
                    "internalType": "uint256",
                    "name": "_toEpoch",
                    "type": "uint256"
                },
                {
                    "indexed": false,
                    "internalType": "uint256",
                    "name": "_leafIndex",
                    "type": "uint256"
                },
                {
                    "components": [
                        {
                            "internalType": "uint256",
                            "name": "fromEpoch",
                            "type": "uint256"
                        },
                        {
                            "internalType": "uint256",
                            "name": "fromGlobalStateTree",
                            "type": "uint256"
                        },
                        {
                            "internalType": "uint256",
                            "name": "fromEpochTree",
                            "type": "uint256"
                        },
                        {
                            "internalType": "uint256",
                            "name": "newGlobalStateTreeLeaf",
                            "type": "uint256"
                        },
                        {
                            "internalType": "uint256[]",
                            "name": "blindedUserStates",
                            "type": "uint256[]"
                        },
                        {
                            "internalType": "uint256[]",
                            "name": "blindedHashChains",
                            "type": "uint256[]"
                        },
                        {
                            "internalType": "uint256[]",
                            "name": "epkNullifiers",
                            "type": "uint256[]"
                        },
                        {
                            "internalType": "uint256[8]",
                            "name": "proof",
                            "type": "uint256[8]"
                        }
                    ],
                    "indexed": false,
                    "internalType": "struct UnirepParameters.UserTransitionedRelated",
                    "name": "userTransitionedData",
                    "type": "tuple"
                }
            ],
            "name": "UserStateTransitioned",
            "type": "event"
        },
        {
            "inputs": [
                {
                    "internalType": "address",
                    "name": "",
                    "type": "address"
                }
            ],
            "name": "airdropAmount",
            "outputs": [
                {
                    "internalType": "uint256",
                    "name": "",
                    "type": "uint256"
                }
            ],
            "stateMutability": "view",
            "type": "function"
        },
        {
            "inputs": [],
            "name": "attesterSignUp",
            "outputs": [],
            "stateMutability": "nonpayable",
            "type": "function"
        },
        {
            "inputs": [
                {
                    "internalType": "address",
                    "name": "attester",
                    "type": "address"
                },
                {
                    "internalType": "bytes",
                    "name": "signature",
                    "type": "bytes"
                }
            ],
            "name": "attesterSignUpViaRelayer",
            "outputs": [],
            "stateMutability": "nonpayable",
            "type": "function"
        },
        {
            "inputs": [
                {
                    "internalType": "address",
                    "name": "",
                    "type": "address"
                }
            ],
            "name": "attesters",
            "outputs": [
                {
                    "internalType": "uint256",
                    "name": "",
                    "type": "uint256"
                }
            ],
            "stateMutability": "view",
            "type": "function"
        },
        {
            "inputs": [],
            "name": "attestingFee",
            "outputs": [
                {
                    "internalType": "uint256",
                    "name": "",
                    "type": "uint256"
                }
            ],
            "stateMutability": "view",
            "type": "function"
        },
        {
            "inputs": [],
            "name": "beginEpochTransition",
            "outputs": [],
            "stateMutability": "nonpayable",
            "type": "function"
        },
        {
            "inputs": [],
            "name": "burnAttestingFee",
            "outputs": [],
            "stateMutability": "nonpayable",
            "type": "function"
        },
        {
            "inputs": [
                {
                    "internalType": "uint256",
                    "name": "_leafIndex",
                    "type": "uint256"
                },
                {
                    "internalType": "uint256",
                    "name": "_leafValue",
                    "type": "uint256"
                }
            ],
            "name": "calcAirdropUSTRoot",
            "outputs": [
                {
                    "internalType": "uint256",
                    "name": "",
                    "type": "uint256"
                }
            ],
            "stateMutability": "view",
            "type": "function"
        },
        {
            "inputs": [],
            "name": "collectEpochTransitionCompensation",
            "outputs": [],
            "stateMutability": "nonpayable",
            "type": "function"
        },
        {
            "inputs": [],
            "name": "collectedAttestingFee",
            "outputs": [
                {
                    "internalType": "uint256",
                    "name": "",
                    "type": "uint256"
                }
            ],
            "stateMutability": "view",
            "type": "function"
        },
        {
            "inputs": [
                {
                    "internalType": "uint8",
                    "name": "_treeLevels",
                    "type": "uint8"
                },
                {
                    "internalType": "uint256",
                    "name": "_zeroValue",
                    "type": "uint256"
                }
            ],
            "name": "computeEmptyRoot",
            "outputs": [
                {
                    "internalType": "uint256",
                    "name": "",
                    "type": "uint256"
                }
            ],
            "stateMutability": "pure",
            "type": "function"
        },
        {
            "inputs": [
                {
                    "internalType": "uint8",
                    "name": "_treeLevels",
                    "type": "uint8"
                },
                {
                    "internalType": "uint256",
                    "name": "_leafIndex",
                    "type": "uint256"
                },
                {
                    "internalType": "uint256",
                    "name": "_leafValue",
                    "type": "uint256"
                },
                {
                    "internalType": "uint256",
                    "name": "_zeroValue",
                    "type": "uint256"
                }
            ],
            "name": "computeOneNonZeroLeafRoot",
            "outputs": [
                {
                    "internalType": "uint256",
                    "name": "",
                    "type": "uint256"
                }
            ],
            "stateMutability": "pure",
            "type": "function"
        },
        {
            "inputs": [],
            "name": "currentEpoch",
            "outputs": [
                {
                    "internalType": "uint256",
                    "name": "",
                    "type": "uint256"
                }
            ],
            "stateMutability": "view",
            "type": "function"
        },
        {
            "inputs": [],
            "name": "emptyGlobalStateTreeRoot",
            "outputs": [
                {
                    "internalType": "uint256",
                    "name": "",
                    "type": "uint256"
                }
            ],
            "stateMutability": "view",
            "type": "function"
        },
        {
            "inputs": [],
            "name": "emptyUserStateRoot",
            "outputs": [
                {
                    "internalType": "uint256",
                    "name": "",
                    "type": "uint256"
                }
            ],
            "stateMutability": "view",
            "type": "function"
        },
        {
            "inputs": [],
            "name": "epochLength",
            "outputs": [
                {
                    "internalType": "uint256",
                    "name": "",
                    "type": "uint256"
                }
            ],
            "stateMutability": "view",
            "type": "function"
        },
        {
            "inputs": [
                {
                    "internalType": "address",
                    "name": "",
                    "type": "address"
                }
            ],
            "name": "epochTransitionCompensation",
            "outputs": [
                {
                    "internalType": "uint256",
                    "name": "",
                    "type": "uint256"
                }
            ],
            "stateMutability": "view",
            "type": "function"
        },
        {
            "inputs": [
                {
                    "internalType": "uint256",
                    "name": "",
                    "type": "uint256"
                }
            ],
            "name": "hasUserSignedUp",
            "outputs": [
                {
                    "internalType": "bool",
                    "name": "",
                    "type": "bool"
                }
            ],
            "stateMutability": "view",
            "type": "function"
        },
        {
            "inputs": [
                {
                    "internalType": "uint256[5]",
                    "name": "array",
                    "type": "uint256[5]"
                }
            ],
            "name": "hash5",
            "outputs": [
                {
                    "internalType": "uint256",
                    "name": "",
                    "type": "uint256"
                }
            ],
            "stateMutability": "pure",
            "type": "function"
        },
        {
            "inputs": [
                {
                    "internalType": "uint256",
                    "name": "airdropPosRep",
                    "type": "uint256"
                }
            ],
            "name": "hashAirdroppedLeaf",
            "outputs": [
                {
                    "internalType": "uint256",
                    "name": "",
                    "type": "uint256"
                }
            ],
            "stateMutability": "pure",
            "type": "function"
        },
        {
            "inputs": [
                {
                    "internalType": "uint256",
                    "name": "_left",
                    "type": "uint256"
                },
                {
                    "internalType": "uint256",
                    "name": "_right",
                    "type": "uint256"
                }
            ],
            "name": "hashLeftRight",
            "outputs": [
                {
                    "internalType": "uint256",
                    "name": "",
                    "type": "uint256"
                }
            ],
            "stateMutability": "pure",
            "type": "function"
        },
        {
            "inputs": [
                {
                    "components": [
                        {
                            "internalType": "uint256",
                            "name": "identityCommitment",
                            "type": "uint256"
                        },
                        {
                            "internalType": "uint256",
                            "name": "userStateRoot",
                            "type": "uint256"
                        }
                    ],
                    "internalType": "struct DomainObjs.StateLeaf",
                    "name": "_stateLeaf",
                    "type": "tuple"
                }
            ],
            "name": "hashStateLeaf",
            "outputs": [
                {
                    "internalType": "uint256",
                    "name": "",
                    "type": "uint256"
                }
            ],
            "stateMutability": "pure",
            "type": "function"
        },
        {
            "inputs": [],
            "name": "hashedBlankStateLeaf",
            "outputs": [
                {
                    "internalType": "uint256",
                    "name": "",
                    "type": "uint256"
                }
            ],
            "stateMutability": "view",
            "type": "function"
        },
        {
            "inputs": [],
            "name": "latestEpochTransitionTime",
            "outputs": [
                {
                    "internalType": "uint256",
                    "name": "",
                    "type": "uint256"
                }
            ],
            "stateMutability": "view",
            "type": "function"
        },
        {
            "inputs": [],
            "name": "maxAttesters",
            "outputs": [
                {
                    "internalType": "uint256",
                    "name": "",
                    "type": "uint256"
                }
            ],
            "stateMutability": "view",
            "type": "function"
        },
        {
            "inputs": [],
            "name": "maxReputationBudget",
            "outputs": [
                {
                    "internalType": "uint8",
                    "name": "",
                    "type": "uint8"
                }
            ],
            "stateMutability": "view",
            "type": "function"
        },
        {
            "inputs": [],
            "name": "maxUsers",
            "outputs": [
                {
                    "internalType": "uint256",
                    "name": "",
                    "type": "uint256"
                }
            ],
            "stateMutability": "view",
            "type": "function"
        },
        {
            "inputs": [],
            "name": "nextAttesterId",
            "outputs": [
                {
                    "internalType": "uint256",
                    "name": "",
                    "type": "uint256"
                }
            ],
            "stateMutability": "view",
            "type": "function"
        },
        {
            "inputs": [],
            "name": "numEpochKeyNoncePerEpoch",
            "outputs": [
                {
                    "internalType": "uint8",
                    "name": "",
                    "type": "uint8"
                }
            ],
            "stateMutability": "view",
            "type": "function"
        },
        {
            "inputs": [],
            "name": "numUserSignUps",
            "outputs": [
                {
                    "internalType": "uint256",
                    "name": "",
                    "type": "uint256"
                }
            ],
            "stateMutability": "view",
            "type": "function"
        },
        {
            "inputs": [
                {
                    "internalType": "uint256",
                    "name": "_outputBlindedUserState",
                    "type": "uint256"
                },
                {
                    "internalType": "uint256",
                    "name": "_outputBlindedHashChain",
                    "type": "uint256"
                },
                {
                    "internalType": "uint256",
                    "name": "_inputBlindedUserState",
                    "type": "uint256"
                },
                {
                    "internalType": "uint256[8]",
                    "name": "_proof",
                    "type": "uint256[8]"
                }
            ],
            "name": "processAttestations",
            "outputs": [],
            "stateMutability": "nonpayable",
            "type": "function"
        },
        {
            "inputs": [
                {
                    "internalType": "uint256",
                    "name": "_airdropAmount",
                    "type": "uint256"
                }
            ],
            "name": "setAirdropAmount",
            "outputs": [],
            "stateMutability": "nonpayable",
            "type": "function"
        },
        {
            "inputs": [
                {
                    "internalType": "uint256[]",
                    "name": "_repNullifiers",
                    "type": "uint256[]"
                },
                {
                    "internalType": "uint256",
                    "name": "_epochKey",
                    "type": "uint256"
                },
                {
                    "internalType": "uint256",
                    "name": "_globalStateTree",
                    "type": "uint256"
                },
                {
                    "internalType": "uint256",
                    "name": "_minRep",
                    "type": "uint256"
                },
                {
                    "internalType": "uint256",
                    "name": "_proveGraffiti",
                    "type": "uint256"
                },
                {
                    "internalType": "uint256",
                    "name": "_graffitiPreImage",
                    "type": "uint256"
                },
                {
                    "internalType": "uint256[8]",
                    "name": "_proof",
                    "type": "uint256[8]"
                }
            ],
            "name": "spendReputation",
            "outputs": [],
            "stateMutability": "payable",
            "type": "function"
        },
        {
            "inputs": [
                {
                    "internalType": "uint256",
                    "name": "_blindedUserState",
                    "type": "uint256"
                },
                {
                    "internalType": "uint256",
                    "name": "_blindedHashChain",
                    "type": "uint256"
                },
                {
                    "internalType": "uint256",
                    "name": "_GSTRoot",
                    "type": "uint256"
                },
                {
                    "internalType": "uint256[8]",
                    "name": "_proof",
                    "type": "uint256[8]"
                }
            ],
            "name": "startUserStateTransition",
            "outputs": [],
            "stateMutability": "nonpayable",
            "type": "function"
        },
        {
            "inputs": [
                {
                    "components": [
                        {
                            "internalType": "uint256",
                            "name": "attesterId",
                            "type": "uint256"
                        },
                        {
                            "internalType": "uint256",
                            "name": "posRep",
                            "type": "uint256"
                        },
                        {
                            "internalType": "uint256",
                            "name": "negRep",
                            "type": "uint256"
                        },
                        {
                            "internalType": "uint256",
                            "name": "graffiti",
                            "type": "uint256"
                        },
                        {
                            "internalType": "uint256",
                            "name": "signUp",
                            "type": "uint256"
                        }
                    ],
                    "internalType": "struct DomainObjs.Attestation",
                    "name": "attestation",
                    "type": "tuple"
                },
                {
                    "internalType": "uint256",
                    "name": "epochKey",
                    "type": "uint256"
                },
                {
                    "components": [
                        {
                            "internalType": "uint256",
                            "name": "fromGlobalStateTree",
                            "type": "uint256"
                        },
                        {
                            "internalType": "uint256[8]",
                            "name": "proof",
                            "type": "uint256[8]"
                        }
                    ],
                    "internalType": "struct UnirepParameters.EpochKeyProofRelated",
                    "name": "epochKeyProofData",
                    "type": "tuple"
                }
            ],
            "name": "submitAttestation",
            "outputs": [],
            "stateMutability": "payable",
            "type": "function"
        },
        {
            "inputs": [
                {
                    "internalType": "address",
                    "name": "attester",
                    "type": "address"
                },
                {
                    "internalType": "bytes",
                    "name": "signature",
                    "type": "bytes"
                },
                {
                    "components": [
                        {
                            "internalType": "uint256",
                            "name": "attesterId",
                            "type": "uint256"
                        },
                        {
                            "internalType": "uint256",
                            "name": "posRep",
                            "type": "uint256"
                        },
                        {
                            "internalType": "uint256",
                            "name": "negRep",
                            "type": "uint256"
                        },
                        {
                            "internalType": "uint256",
                            "name": "graffiti",
                            "type": "uint256"
                        },
                        {
                            "internalType": "uint256",
                            "name": "signUp",
                            "type": "uint256"
                        }
                    ],
                    "internalType": "struct DomainObjs.Attestation",
                    "name": "attestation",
                    "type": "tuple"
                },
                {
                    "internalType": "uint256",
                    "name": "epochKey",
                    "type": "uint256"
                },
                {
                    "components": [
                        {
                            "internalType": "uint256",
                            "name": "fromGlobalStateTree",
                            "type": "uint256"
                        },
                        {
                            "internalType": "uint256[8]",
                            "name": "proof",
                            "type": "uint256[8]"
                        }
                    ],
                    "internalType": "struct UnirepParameters.EpochKeyProofRelated",
                    "name": "epochKeyProofData",
                    "type": "tuple"
                }
            ],
            "name": "submitAttestationViaRelayer",
            "outputs": [],
            "stateMutability": "payable",
            "type": "function"
        },
        {
            "inputs": [],
            "name": "treeDepths",
            "outputs": [
                {
                    "internalType": "uint8",
                    "name": "globalStateTreeDepth",
                    "type": "uint8"
                },
                {
                    "internalType": "uint8",
                    "name": "userStateTreeDepth",
                    "type": "uint8"
                },
                {
                    "internalType": "uint8",
                    "name": "epochTreeDepth",
                    "type": "uint8"
                }
            ],
            "stateMutability": "view",
            "type": "function"
        },
        {
            "inputs": [
                {
                    "internalType": "uint256[8]",
                    "name": "_proof",
                    "type": "uint256[8]"
                }
            ],
            "name": "unpackProof",
            "outputs": [
                {
                    "internalType": "uint256[2]",
                    "name": "",
                    "type": "uint256[2]"
                },
                {
                    "internalType": "uint256[2][2]",
                    "name": "",
                    "type": "uint256[2][2]"
                },
                {
                    "internalType": "uint256[2]",
                    "name": "",
                    "type": "uint256[2]"
                }
            ],
            "stateMutability": "pure",
            "type": "function"
        },
        {
            "inputs": [
                {
                    "internalType": "uint256",
                    "name": "_newGlobalStateTreeLeaf",
                    "type": "uint256"
                },
                {
                    "internalType": "uint256[]",
                    "name": "_epkNullifiers",
                    "type": "uint256[]"
                },
                {
                    "internalType": "uint256[]",
                    "name": "_blindedUserStates",
                    "type": "uint256[]"
                },
                {
                    "internalType": "uint256[]",
                    "name": "_blindedHashChains",
                    "type": "uint256[]"
                },
                {
                    "internalType": "uint256",
                    "name": "_transitionFromEpoch",
                    "type": "uint256"
                },
                {
                    "internalType": "uint256",
                    "name": "_fromGlobalStateTree",
                    "type": "uint256"
                },
                {
                    "internalType": "uint256",
                    "name": "_fromEpochTree",
                    "type": "uint256"
                },
                {
                    "internalType": "uint256[8]",
                    "name": "_proof",
                    "type": "uint256[8]"
                }
            ],
            "name": "updateUserStateRoot",
            "outputs": [],
            "stateMutability": "nonpayable",
            "type": "function"
        },
        {
            "inputs": [
                {
                    "internalType": "uint256",
                    "name": "_identityCommitment",
                    "type": "uint256"
                }
            ],
            "name": "userSignUp",
            "outputs": [],
            "stateMutability": "nonpayable",
            "type": "function"
        },
        {
            "inputs": [
                {
                    "internalType": "uint256",
                    "name": "_globalStateTree",
                    "type": "uint256"
                },
                {
                    "internalType": "uint256",
                    "name": "_epoch",
                    "type": "uint256"
                },
                {
                    "internalType": "uint256",
                    "name": "_epochKey",
                    "type": "uint256"
                },
                {
                    "internalType": "uint256[8]",
                    "name": "_proof",
                    "type": "uint256[8]"
                }
            ],
            "name": "verifyEpochKeyValidity",
            "outputs": [
                {
                    "internalType": "bool",
                    "name": "",
                    "type": "bool"
                }
            ],
            "stateMutability": "view",
            "type": "function"
        },
        {
            "inputs": [
                {
                    "internalType": "uint256",
                    "name": "_outputBlindedUserState",
                    "type": "uint256"
                },
                {
                    "internalType": "uint256",
                    "name": "_outputBlindedHashChain",
                    "type": "uint256"
                },
                {
                    "internalType": "uint256",
                    "name": "_inputBlindedUserState",
                    "type": "uint256"
                },
                {
                    "internalType": "uint256[8]",
                    "name": "_proof",
                    "type": "uint256[8]"
                }
            ],
            "name": "verifyProcessAttestationProof",
            "outputs": [
                {
                    "internalType": "bool",
                    "name": "",
                    "type": "bool"
                }
            ],
            "stateMutability": "view",
            "type": "function"
        },
        {
            "inputs": [
                {
                    "internalType": "uint256[]",
                    "name": "_repNullifiers",
                    "type": "uint256[]"
                },
                {
                    "internalType": "uint256",
                    "name": "_epoch",
                    "type": "uint256"
                },
                {
                    "internalType": "uint256",
                    "name": "_epochKey",
                    "type": "uint256"
                },
                {
                    "internalType": "uint256",
                    "name": "_globalStateTree",
                    "type": "uint256"
                },
                {
                    "internalType": "uint256",
                    "name": "_attesterId",
                    "type": "uint256"
                },
                {
                    "internalType": "uint256",
                    "name": "_proveReputationAmount",
                    "type": "uint256"
                },
                {
                    "internalType": "uint256",
                    "name": "_minRep",
                    "type": "uint256"
                },
                {
                    "internalType": "uint256",
                    "name": "_proveGraffiti",
                    "type": "uint256"
                },
                {
                    "internalType": "uint256",
                    "name": "_graffitiPreImage",
                    "type": "uint256"
                },
                {
                    "internalType": "uint256[8]",
                    "name": "_proof",
                    "type": "uint256[8]"
                }
            ],
            "name": "verifyReputation",
            "outputs": [
                {
                    "internalType": "bool",
                    "name": "",
                    "type": "bool"
                }
            ],
            "stateMutability": "view",
            "type": "function"
        },
        {
            "inputs": [
                {
                    "internalType": "uint256",
                    "name": "_blindedUserState",
                    "type": "uint256"
                },
                {
                    "internalType": "uint256",
                    "name": "_blindedHashChain",
                    "type": "uint256"
                },
                {
                    "internalType": "uint256",
                    "name": "_GSTRoot",
                    "type": "uint256"
                },
                {
                    "internalType": "uint256[8]",
                    "name": "_proof",
                    "type": "uint256[8]"
                }
            ],
            "name": "verifyStartTransitionProof",
            "outputs": [
                {
                    "internalType": "bool",
                    "name": "",
                    "type": "bool"
                }
            ],
            "stateMutability": "view",
            "type": "function"
        },
        {
            "inputs": [
                {
                    "internalType": "uint256",
                    "name": "_epoch",
                    "type": "uint256"
                },
                {
                    "internalType": "uint256",
                    "name": "_epochKey",
                    "type": "uint256"
                },
                {
                    "internalType": "uint256",
                    "name": "_globalStateTree",
                    "type": "uint256"
                },
                {
                    "internalType": "uint256",
                    "name": "_attesterId",
                    "type": "uint256"
                },
                {
                    "internalType": "uint256[8]",
                    "name": "_proof",
                    "type": "uint256[8]"
                }
            ],
            "name": "verifyUserSignUp",
            "outputs": [
                {
                    "internalType": "bool",
                    "name": "",
                    "type": "bool"
                }
            ],
            "stateMutability": "view",
            "type": "function"
        },
        {
            "inputs": [
                {
                    "internalType": "uint256",
                    "name": "_newGlobalStateTreeLeaf",
                    "type": "uint256"
                },
                {
                    "internalType": "uint256[]",
                    "name": "_epkNullifiers",
                    "type": "uint256[]"
                },
                {
                    "internalType": "uint256",
                    "name": "_transitionFromEpoch",
                    "type": "uint256"
                },
                {
                    "internalType": "uint256[]",
                    "name": "_blindedUserStates",
                    "type": "uint256[]"
                },
                {
                    "internalType": "uint256",
                    "name": "_fromGlobalStateTree",
                    "type": "uint256"
                },
                {
                    "internalType": "uint256[]",
                    "name": "_blindedHashChains",
                    "type": "uint256[]"
                },
                {
                    "internalType": "uint256",
                    "name": "_fromEpochTree",
                    "type": "uint256"
                },
                {
                    "internalType": "uint256[8]",
                    "name": "_proof",
                    "type": "uint256[8]"
                }
            ],
            "name": "verifyUserStateTransition",
            "outputs": [
                {
                    "internalType": "bool",
                    "name": "",
                    "type": "bool"
                }
            ],
            "stateMutability": "view",
            "type": "function"
        }
    ],
    "bytecode": "0x6101606040527f30644e72e131a029b85045b68181585d2833e84879b9709143e1f593f00000016200003361018062000767565b6040516020818303038152906040528051906020012060001c62000058919062000a5b565b60005560016007556000600a556000600b556000600c5560016011553480156200008157600080fd5b506040516200507838038062005078833981016040819052620000a49162000624565b8b601360008201518160000160006101000a81548160ff021916908360ff16021790555060208201518160000160016101000a81548160ff021916908360ff16021790555060408201518160000160026101000a81548160ff021916908360ff16021790555090505089600160006101000a8154816001600160a01b0302191690836001600160a01b0316021790555088600260006101000a8154816001600160a01b0302191690836001600160a01b0316021790555087600360006101000a8154816001600160a01b0302191690836001600160a01b0316021790555086600460006101000a8154816001600160a01b0302191690836001600160a01b0316021790555085600560006101000a8154816001600160a01b0302191690836001600160a01b0316021790555084600660006101000a8154816001600160a01b0302191690836001600160a01b031602179055508360ff1660c08160ff1660f81b815250508260ff1660e08160ff1660f81b81525050816080818152505042600881905550600060018d6000015160026200023f919062000926565b6200024b919062000a1e565b9050808c6000015111156200027d5760405162461bcd60e51b8152600401620002749062000828565b60405180910390fd5b8b516101005260208d01516000906001906200029b90600262000926565b620002a7919062000a1e565b9050808d602001511115620002d05760405162461bcd60e51b815260040162000274906200085f565b6020808e0151610120528e0151620002e89062000313565b6009558d51620002f89062000395565b60a0525050610140525062000a929950505050505050505050565b60006200031f6200058a565b60005b60058160ff1610156200036f576000828260ff16600581106200035557634e487b7160e01b600052603260045260246000fd5b602002015280620003668162000a38565b91505062000322565b5060006200037d82620003b9565b90506200038b84826200044f565b925050505b919050565b604080518082019091526000808252600954602083015290816200037d82620004d7565b604051630926f44b60e31b815260009073__$223301b175b06473d424a7afc957d4e96c$__90634937a25890620003f5908590600401620007ac565b60206040518083038186803b1580156200040e57600080fd5b505af415801562000423573d6000803e3d6000fd5b505050506040513d601f19601f820116820180604052508101906200044991906200074e565b92915050565b6000808360ff161180156200046957506101008360ff1611155b620004885760405162461bcd60e51b81526004016200027490620007d6565b8160015b8460ff168160ff161015620004c2576000620004a98380620004e7565b9250819050620004b98162000a38565b9150506200048c565b50620004cf8180620004e7565b949350505050565b8051602082015160009162000449915b6000620004f3620005a8565b838152602081018390526040516314d2f97b60e11b815273__$86e0c54df1042e28bf2dd20ccf184dc428$__906329a5f2f6906200053690849060040162000779565b60206040518083038186803b1580156200054f57600080fd5b505af415801562000564573d6000803e3d6000fd5b505050506040513d601f19601f82011682018060405250810190620004cf91906200074e565b6040518060a001604052806005906020820280368337509192915050565b60405180604001604052806002906020820280368337509192915050565b80516001600160a01b03811681146200039057600080fd5b600060408284031215620005f0578081fd5b620005fc6040620008a1565b9050815181526020820151602082015292915050565b805160ff811681146200039057600080fd5b6000806000806000806000806000806000808c8e036101e081121562000648578889fd5b606081121562000656578889fd5b50620006636060620008a1565b6200066e8e62000612565b81526200067e60208f0162000612565b60208201526200069160408f0162000612565b60408201529b50620006a78e60608f01620005de565b9a50620006b760a08e01620005c6565b9950620006c760c08e01620005c6565b9850620006d760e08e01620005c6565b9750620006e86101008e01620005c6565b9650620006f96101208e01620005c6565b95506200070a6101408e01620005c6565b94506200071b6101608e0162000612565b93506200072c6101808e0162000612565b92506101a08d015191506101c08d015190509295989b509295989b509295989b565b60006020828403121562000760578081fd5b5051919050565b650556e697265760d41b815260060190565b60408101818360005b6002811015620007a357815183526020928301929091019060010162000782565b50505092915050565b60a08101818360005b6005811015620007a3578151835260209283019290910190600101620007b5565b60208082526032908201527f436f6d70757465526f6f743a205f747265654c6576656c73206d757374206265604082015271103132ba3bb2b2b710181030b73210191a9b60711b606082015260800190565b6020808252601e908201527f556e697265703a20696e76616c6964206d617855736572732076616c75650000604082015260600190565b60208082526022908201527f556e697265703a20696e76616c6964206d61784174746573746572732076616c604082015261756560f01b606082015260800190565b6040518181016001600160401b0381118282101715620008d157634e487b7160e01b600052604160045260246000fd5b604052919050565b80825b6001808611620008ed57506200091d565b81870482111562000902576200090262000a7c565b808616156200091057918102915b9490941c938002620008dc565b94509492505050565b60006200093a60001960ff85168462000941565b9392505050565b60008262000952575060016200093a565b8162000961575060006200093a565b81600181146200097a57600281146200098557620009b9565b60019150506200093a565b60ff84111562000999576200099962000a7c565b6001841b915084821115620009b257620009b262000a7c565b506200093a565b5060208310610133831016604e8410600b8410161715620009f1575081810a83811115620009eb57620009eb62000a7c565b6200093a565b62000a008484846001620008d9565b80860482111562000a155762000a1562000a7c565b02949350505050565b60008282101562000a335762000a3362000a7c565b500390565b600060ff821660ff81141562000a525762000a5262000a7c565b60010192915050565b60008262000a7757634e487b7160e01b81526012600452602481fd5b500690565b634e487b7160e01b600052601160045260246000fd5b60805160a05160c05160f81c60e05160f81c6101005161012051610140516144c862000bb06000396000818161087f0152818161180a015281816119190152611c620152600081816114bb01528181611ac70152612736015260008181610ea501526120d6015260008181610936015281816109d101528181610a2301528181610a7c01528181610ad501528181610b2e01528181610b8701528181610be001528181610c390152818161195a0152611f9001526000818161126101528181611ec601528181612106015281816121bf01528181612269015281816122e70152818161236a015281816123c8015281816124200152818161247a01526124f501526000611ce40152600081816115250152611fd101526144c86000f3fe60806040526004361061027d5760003560e01c806398588c1f1161014f578063b876ed71116100c1578063e87101b11161007a578063e87101b1146106e1578063f20ca7ff146106f6578063f5ab0dd614610716578063f73c8ebb14610745578063fadd942d14610765578063fc14478a1461077a5761027d565b8063b876ed711461064d578063c26396731461066d578063c6e0123214610682578063d3aa645b14610697578063de723886146106b7578063e1b0e802146106cc5761027d565b8063a5500c3011610113578063a5500c3014610592578063a710d60f146105b2578063a7c264ca146105d2578063a7ebaa75146105f4578063ac98e5df14610609578063b530dc8c1461062d5761027d565b806398588c1f146105155780639cfced9714610535578063a20e2afe14610555578063a27e572a14610568578063a3836b201461057d5761027d565b806356df4634116101f357806376671808116101ac578063766718081461048e578063839beeb8146104a357806383e168ad146104b857806387d7ed23146104d85780639109d1eb146104eb578063918f0c16146105005761027d565b806356df4634146103ef57806357d775f8146104045780635b3745b5146104195780635bb9399514610439578063705edd39146104595780637341ead91461046e5761027d565b80633334dc5b116102455780633334dc5b1461032f5780633acce9851461034f578063417b16e31461036f578063436b32d81461038f5780634cce1a9a146103af5780634edc9ace146103cf5761027d565b806307d8330814610282578063131a91ad146102ad5780631c89e8e8146102cd5780632a26788f146102fa5780632b95f97e1461030f575b600080fd5b34801561028e57600080fd5b5061029761079a565b6040516102a49190614125565b60405180910390f35b3480156102b957600080fd5b506102976102c83660046130e0565b6107a0565b3480156102d957600080fd5b506102ed6102e836600461342f565b6107b2565b6040516102a4919061390e565b61030d61030836600461314b565b6107c7565b005b34801561031b57600080fd5b5061029761032a36600461342f565b6108e0565b34801561033b57600080fd5b506102ed61034a3660046132e1565b610909565b34801561035b57600080fd5b5061029761036a3660046135df565b610dee565b34801561037b57600080fd5b5061030d61038a36600461342f565b610e74565b34801561039b57600080fd5b506102ed6103aa366004613675565b611002565b3480156103bb57600080fd5b5061030d6103ca36600461345f565b61123c565b3480156103db57600080fd5b506102976103ea3660046136bf565b611410565b3480156103fb57600080fd5b5061030d61148c565b34801561041057600080fd5b50610297611523565b34801561042557600080fd5b506102ed610434366004613640565b611547565b34801561044557600080fd5b506102976104543660046135df565b61172c565b34801561046557600080fd5b506102976117c7565b34801561047a57600080fd5b506102976104893660046133e1565b6117ee565b34801561049a57600080fd5b50610297611802565b3480156104af57600080fd5b50610297611808565b3480156104c457600080fd5b506102976104d33660046136e8565b61182c565b61030d6104e636600461325e565b6118eb565b3480156104f757600080fd5b50610297611a83565b34801561050c57600080fd5b50610297611a89565b34801561052157600080fd5b5061030d6105303660046130fa565b611a8f565b34801561054157600080fd5b506102976105503660046131cb565b611b7b565b61030d6105633660046133a3565b611c05565b34801561057457600080fd5b5061030d611cc0565b34801561058957600080fd5b50610297611ce2565b34801561059e57600080fd5b5061030d6105ad36600461342f565b611d06565b3480156105be57600080fd5b506102ed6105cd366004613640565b611d44565b3480156105de57600080fd5b506105e7611ec4565b6040516102a491906142e6565b34801561060057600080fd5b5061030d611ee8565b34801561061557600080fd5b5061061e611efd565b6040516102a4939291906142f4565b34801561063957600080fd5b506102976106483660046130e0565b611f19565b34801561065957600080fd5b5061030d610668366004613600565b611f2b565b34801561067957600080fd5b506105e7611f8e565b34801561068e57600080fd5b50610297611fb2565b3480156106a357600080fd5b506102976106b23660046130e0565b611fb8565b3480156106c357600080fd5b5061030d611fca565b3480156106d857600080fd5b506102976120d4565b3480156106ed57600080fd5b506102976120f8565b34801561070257600080fd5b506102ed61071136600461351f565b6120fe565b34801561072257600080fd5b50610736610731366004613242565b612647565b6040516102a493929190613860565b34801561075157600080fd5b5061030d610760366004613600565b6126d0565b34801561077157600080fd5b50610297612734565b34801561078657600080fd5b506102ed610795366004613640565b612758565b600e5481565b60106020526000908152604090205481565b600d6020526000908152604090205460ff1681565b6108078686868080601f0160208091040260200160405190810160405280939291908181526020018383808284376000920191909152506128d892505050565b6001600160a01b0386166000908152601060205260409020546108455760405162461bcd60e51b815260040161083c90613ab0565b60405180910390fd5b6001600160a01b03861660009081526010602052604090205483351461087d5760405162461bcd60e51b815260040161083c90613fe3565b7f000000000000000000000000000000000000000000000000000000000000000034146108bc5760405162461bcd60e51b815260040161083c90613b7f565b600e546108c99034612965565b600e556108d886848484612978565b505050505050565b60006108ea612e49565b8281526001606082018190526108ff82611b7b565b925050505b919050565b6040805160128082526102608201909252600091829190602082016102408036833701905050905060005b7f000000000000000000000000000000000000000000000000000000000000000060ff168160ff1610156109cc578d8d8260ff1681811061098557634e487b7160e01b600052603260045260246000fd5b90506020020135828260ff16815181106109af57634e487b7160e01b600052603260045260246000fd5b6020908102919091010152806109c4816143dc565b915050610934565b508a817f000000000000000000000000000000000000000000000000000000000000000060ff1681518110610a1157634e487b7160e01b600052603260045260246000fd5b60209081029190910101528981610a497f00000000000000000000000000000000000000000000000000000000000000006001614329565b60ff1681518110610a6a57634e487b7160e01b600052603260045260246000fd5b60209081029190910101528881610aa27f00000000000000000000000000000000000000000000000000000000000000006002614329565b60ff1681518110610ac357634e487b7160e01b600052603260045260246000fd5b60209081029190910101528781610afb7f00000000000000000000000000000000000000000000000000000000000000006003614329565b60ff1681518110610b1c57634e487b7160e01b600052603260045260246000fd5b60209081029190910101528681610b547f00000000000000000000000000000000000000000000000000000000000000006004614329565b60ff1681518110610b7557634e487b7160e01b600052603260045260246000fd5b60209081029190910101528581610bad7f00000000000000000000000000000000000000000000000000000000000000006005614329565b60ff1681518110610bce57634e487b7160e01b600052603260045260246000fd5b60209081029190910101528481610c067f00000000000000000000000000000000000000000000000000000000000000006006614329565b60ff1681518110610c2757634e487b7160e01b600052603260045260246000fd5b60209081029190910101528381610c5f7f00000000000000000000000000000000000000000000000000000000000000006007614329565b60ff1681518110610c8057634e487b7160e01b600052603260045260246000fd5b60200260200101818152505060005b81518160ff161015610d0457600080516020614453833981519152828260ff1681518110610ccd57634e487b7160e01b600052603260045260246000fd5b602002602001015110610cf25760405162461bcd60e51b815260040161083c9061401a565b80610cfc816143dc565b915050610c8f565b50610d0d612e67565b60408051610100818101909252610d3c9186906008908390839080828437600092019190915250612647915050565b60408085018290526020850183905283855260055490516361971b8760e11b81526001600160a01b039091169363c32e370e93610d829391929091908890600401613889565b60206040518083038186803b158015610d9a57600080fd5b505afa158015610dae573d6000803e3d6000fd5b505050506040513d601f19601f82011682018060405250810190610dd29190613383565b151560609091018190529150509b9a5050505050505050505050565b6000610df8612e49565b60005b60058160ff161015610e43576000828260ff1660058110610e2c57634e487b7160e01b600052603260045260246000fd5b602002015280610e3b816143dc565b915050610dfb565b506000610e4f82611b7b565b601354909150610e6990610100900460ff1686868461182c565b925050505b92915050565b6000818152600d602052604090205460ff1615610ea35760405162461bcd60e51b815260040161083c90613e56565b7f0000000000000000000000000000000000000000000000000000000000000000600a5410610ee45760405162461bcd60e51b815260040161083c90613f25565b600954336000908152601060209081526040808320546012909252909120548115801590610f125750600081115b15610f32576000610f22826108e0565b9050610f2e8382610dee565b9350505b60408051808201909152848152602081018490526000610f51826117ee565b6000878152600d60205260408120805460ff19166001179055600a805492935090610f7b836143c1565b9190505550600080516020614473833981519152604051610f9b906140bf565b60405180910390a16007547f9a965b974adcc5af3e5c811827630ad09160710bebb1621ec72cb1cbf0050cb7600b54838787604051610fdd94939291906142cb565b60405180910390a2600b8054906000610ff5836143c1565b9190505550505050505050565b60408051600480825260a0820190925260009182919060208201608080368337019050509050868160008151811061104a57634e487b7160e01b600052603260045260246000fd5b602002602001018181525050858160018151811061107857634e487b7160e01b600052603260045260246000fd5b60200260200101818152505084816002815181106110a657634e487b7160e01b600052603260045260246000fd5b60200260200101818152505083816003815181106110d457634e487b7160e01b600052603260045260246000fd5b60200260200101818152505060005b81518160ff16101561115857600080516020614453833981519152828260ff168151811061112157634e487b7160e01b600052603260045260246000fd5b6020026020010151106111465760405162461bcd60e51b815260040161083c9061401a565b80611150816143dc565b9150506110e3565b50611161612e67565b604080516101008181019092526111909186906008908390839080828437600092019190915250612647915050565b60408085018290526020850183905283855260065490516361971b8760e11b81526001600160a01b039091169363c32e370e936111d69391929091908890600401613889565b60206040518083038186803b1580156111ee57600080fd5b505afa158015611202573d6000803e3d6000fd5b505050506040513d601f19601f820116820180604052508101906112269190613383565b1515606090910181905291505095945050505050565b600754841061125d5760405162461bcd60e51b815260040161083c90613d14565b60ff7f000000000000000000000000000000000000000000000000000000000000000016891461129f5760405162461bcd60e51b815260040161083c90614077565b6112a7612ea1565b848152602081018490526040808201849052606082018d905280516101008181019092529083906008908390839080828437600092019190915250505060e0820152604080516020808b0282810182019093528a825290918b918b91829185019084908082843760009201919091525050505060808201526040805160208089028281018201909352888252909189918991829185019084908082843760009201919091525050505060a0820152604080516020808d0282810182019093528c825290918d918d91829185019084908082843760009201919091525050505060c0820152604051600080516020614473833981519152906113a790613e9c565b60405180910390a16007547f0e095ddb10125ae9ab50981eb67aa4717a224cb1ae6f6db7afc965e1c029c52e600b54836040516113e5929190614223565b60405180910390a2600b80549060006113fd836143c1565b9190505550505050505050505050505050565b6000808360ff1611801561142957506101008360ff1611155b6114455760405162461bcd60e51b815260040161083c90613b2d565b8160015b8460ff168160ff161015611479576000611463838461172c565b9250819050611471816143dc565b915050611449565b50611484818261172c565b949350505050565b33600090815260106020526040902054156114b95760405162461bcd60e51b815260040161083c906139a5565b7f0000000000000000000000000000000000000000000000000000000000000000601154106114fa5760405162461bcd60e51b815260040161083c90613d80565b6011805433600090815260106020526040812082905590919061151c836143c1565b9190505550565b7f000000000000000000000000000000000000000000000000000000000000000081565b60408051600480825260a0820190925260009182919060208201608080368337019050509050858160008151811061158f57634e487b7160e01b600052603260045260246000fd5b60200260200101818152505084816001815181106115bd57634e487b7160e01b600052603260045260246000fd5b60200260200101818152505083816002815181106115eb57634e487b7160e01b600052603260045260246000fd5b60200260200101818152505060005b81518160ff16101561166f57600080516020614453833981519152828260ff168151811061163857634e487b7160e01b600052603260045260246000fd5b60200260200101511061165d5760405162461bcd60e51b815260040161083c9061401a565b80611667816143dc565b9150506115fa565b50611678612e67565b61168184612647565b60408085018290526020850183905283855260025490516361971b8760e11b81526001600160a01b039091169363c32e370e936116c79391929091908890600401613889565b60206040518083038186803b1580156116df57600080fd5b505afa1580156116f3573d6000803e3d6000fd5b505050506040513d601f19601f820116820180604052508101906117179190613383565b15156060909101819052915050949350505050565b6000611736612eeb565b838152602081018390526040516314d2f97b60e11b815273__$86e0c54df1042e28bf2dd20ccf184dc428$__906329a5f2f69061177790849060040161382f565b60206040518083038186803b15801561178f57600080fd5b505af41580156117a3573d6000803e3d6000fd5b505050506040513d601f19601f820116820180604052508101906114849190613447565b6040805180820190915260008082526009546020830152906117e8816117ee565b91505090565b6000610e6e8260000151836020015161172c565b60075481565b7f000000000000000000000000000000000000000000000000000000000000000081565b6000808560ff1611801561184557506101008560ff1611155b6118615760405162461bcd60e51b815260040161083c90613b2d565b82828560015b611872896001614329565b60ff168160ff1610156118de57600061188b848561172c565b90506118986002846143fc565b6118ad576118a6858561172c565b94506118ba565b6118b7848661172c565b94505b9250826118c860028461434e565b92505080806118d6906143dc565b915050611867565b5091979650505050505050565b336000908152601060205260409020546119175760405162461bcd60e51b815260040161083c90613ab0565b7f000000000000000000000000000000000000000000000000000000000000000034146119565760405162461bcd60e51b815260040161083c90613b7f565b60ff7f00000000000000000000000000000000000000000000000000000000000000001687146119985760405162461bcd60e51b815260040161083c90613cc5565b6119a0612f09565b858152602081018590526040808201859052606082018490528051610100818101909252908390600890839083908082843760009201919091525050506080820152600e546119ef9034612965565b600e5560405160008051602061447383398151915290611a0e9061396e565b60405180910390a1336001600160a01b0316876007547f2071b741c1d86def3b3d317def42ab7dc689dea05dbd68ebcbd12fb7f8ab0c8a600c54858e8e604051611a5b94939291906141a4565b60405180910390a4600c8054906000611a73836143c1565b9190505550505050505050505050565b60115481565b600a5481565b6001600160a01b03831660009081526010602052604090205415611ac55760405162461bcd60e51b815260040161083c906139a5565b7f000000000000000000000000000000000000000000000000000000000000000060115410611b065760405162461bcd60e51b815260040161083c90613d80565b611b468383838080601f0160208091040260200160405190810160405280939291908181526020018383808284376000920191909152506128d892505050565b601180546001600160a01b0385166000908152601060205260408120829055909190611b71836143c1565b9190505550505050565b604051630926f44b60e31b815260009073__$223301b175b06473d424a7afc957d4e96c$__90634937a25890611bb59085906004016138d0565b60206040518083038186803b158015611bcd57600080fd5b505af4158015611be1573d6000803e3d6000fd5b505050506040513d601f19601f82011682018060405250810190610e6e9190613447565b33600090815260106020526040902054611c315760405162461bcd60e51b815260040161083c90613ab0565b33600090815260106020526040902054833514611c605760405162461bcd60e51b815260040161083c90613fe3565b7f00000000000000000000000000000000000000000000000000000000000000003414611c9f5760405162461bcd60e51b815260040161083c90613b7f565b600e54611cac9034612965565b600e55611cbb33848484612978565b505050565b336000818152600f60205260408120805491905590611cdf9082612ac5565b50565b7f000000000000000000000000000000000000000000000000000000000000000081565b33600090815260106020526040902054611d325760405162461bcd60e51b815260040161083c90613ab0565b33600090815260126020526040902055565b60408051600480825260a08201909252600091829190602082016080803683370190505090508581600081518110611d8c57634e487b7160e01b600052603260045260246000fd5b6020026020010181815250508481600181518110611dba57634e487b7160e01b600052603260045260246000fd5b6020026020010181815250508381600281518110611de857634e487b7160e01b600052603260045260246000fd5b60200260200101818152505060005b81518160ff161015611e6c57600080516020614453833981519152828260ff1681518110611e3557634e487b7160e01b600052603260045260246000fd5b602002602001015110611e5a5760405162461bcd60e51b815260040161083c9061401a565b80611e64816143dc565b915050611df7565b50611e75612e67565b611e7e84612647565b60408085018290526020850183905283855260035490516361971b8760e11b81526001600160a01b039091169363c32e370e936116c79391929091908890600401613889565b7f000000000000000000000000000000000000000000000000000000000000000081565b600e805460009182905590611cdf9082612ac5565b60135460ff808216916101008104821691620100009091041683565b60126020526000908152604090205481565b600080516020614473833981519152604051611f4690613efa565b60405180910390a18183857f8c931646c751bc03b19a78d2726e212e11ed65ed0815b00e9d4407eb9e579f9684604051611f8091906138f8565b60405180910390a450505050565b7f000000000000000000000000000000000000000000000000000000000000000081565b60095481565b600f6020526000908152604090205481565b60005a90507f000000000000000000000000000000000000000000000000000000000000000060085442611ffe91906143aa565b101561201c5760405162461bcd60e51b815260040161083c90613af6565b60008051602061447383398151915260405161203790613bcb565b60405180910390a16007546040517f751bb1ba7b27b3979a32844d4d05aa16a46a771b751593704834a80311e3a9b990600090a2426008556007805490600061207f836143c1565b90915550506000600b819055600c81905561209b5a8390612b61565b90506120c06120aa823a612b6d565b336000908152600f602052604090205490612965565b336000908152600f60205260409020555050565b7f000000000000000000000000000000000000000000000000000000000000000081565b60085481565b60008061212c7f00000000000000000000000000000000000000000000000000000000000000006002614381565b612137906006614329565b60ff1667ffffffffffffffff81111561216057634e487b7160e01b600052604160045260246000fd5b604051908082528060200260200182016040528015612189578160200160208202803683370190505b5090508c816000815181106121ae57634e487b7160e01b600052603260045260246000fd5b60200260200101818152505060005b7f000000000000000000000000000000000000000000000000000000000000000060ff168160ff161015612261578c8c8260ff1681811061220e57634e487b7160e01b600052603260045260246000fd5b90506020020135828260016122239190614329565b60ff168151811061224457634e487b7160e01b600052603260045260246000fd5b602090810291909101015280612259816143dc565b9150506121bd565b50898161228f7f00000000000000000000000000000000000000000000000000000000000000006001614329565b60ff16815181106122b057634e487b7160e01b600052603260045260246000fd5b602002602001018181525050888860008181106122dd57634e487b7160e01b600052603260045260246000fd5b90506020020135817f000000000000000000000000000000000000000000000000000000000000000060026123129190614329565b60ff168151811061233357634e487b7160e01b600052603260045260246000fd5b6020026020010181815250508888600181811061236057634e487b7160e01b600052603260045260246000fd5b90506020020135817f000000000000000000000000000000000000000000000000000000000000000060036123959190614329565b60ff16815181106123b657634e487b7160e01b600052603260045260246000fd5b602090810291909101015286816123ee7f00000000000000000000000000000000000000000000000000000000000000006004614329565b60ff168151811061240f57634e487b7160e01b600052603260045260246000fd5b60200260200101818152505060005b7f000000000000000000000000000000000000000000000000000000000000000060ff168160ff1610156124ed5786868260ff1681811061246f57634e487b7160e01b600052603260045260246000fd5b9050602002013582827f000000000000000000000000000000000000000000000000000000000000000060056124a59190614329565b6124af9190614329565b60ff16815181106124d057634e487b7160e01b600052603260045260246000fd5b6020908102919091010152806124e5816143dc565b91505061241e565b50838161251b7f00000000000000000000000000000000000000000000000000000000000000006002614381565b612526906005614329565b60ff168151811061254757634e487b7160e01b600052603260045260246000fd5b60200260200101818152505060005b81518160ff1610156125cb57600080516020614453833981519152828260ff168151811061259457634e487b7160e01b600052603260045260246000fd5b6020026020010151106125b95760405162461bcd60e51b815260040161083c9061401a565b806125c3816143dc565b915050612556565b506125d4612e67565b604080516101008181019092526126039186906008908390839080828437600092019190915250612647915050565b6040808501829052602085018390528385526004805491516361971b8760e11b81526001600160a01b039092169463c32e370e94610d829491939092899101613889565b61264f612eeb565b612657612f38565b61265f612eeb565b50506040805180820182528351815260208085015181830152825160808082018552868501518286019081526060808901519084015282528451808601865290870151815260a08701518184015281830152835180850190945260c0860151845260e0909501519083015293909150565b6000805160206144738339815191526040516126eb90613ecb565b60405180910390a182847fb91edc6d40651acb63b84259617d123737d66e253044b4f6f60bcfd6972661ea848460405161272692919061412e565b60405180910390a350505050565b7f000000000000000000000000000000000000000000000000000000000000000081565b604080516003808252608082019092526000918291906020820160608036833701905050905085816000815181106127a057634e487b7160e01b600052603260045260246000fd5b60200260200101818152505084816001815181106127ce57634e487b7160e01b600052603260045260246000fd5b60200260200101818152505083816002815181106127fc57634e487b7160e01b600052603260045260246000fd5b60200260200101818152505060005b81518160ff16101561288057600080516020614453833981519152828260ff168151811061284957634e487b7160e01b600052603260045260246000fd5b60200260200101511061286e5760405162461bcd60e51b815260040161083c9061401a565b80612878816143dc565b91505061280b565b50612889612e67565b61289284612647565b60408085018290526020850183905283855260015490516361971b8760e11b81526001600160a01b039091169363c32e370e936116c79391929091908890600401613889565b600082306040516020016128ed9291906137d4565b6040516020818303038152906040528051906020012060405160200161291391906137fb565b604051602081830303815290604052805190602001209050826001600160a01b031661293f8284612b79565b6001600160a01b031614611cbb5760405162461bcd60e51b815260040161083c90613a66565b60006129718284614311565b9392505050565b6000805160206144538339815191528360200135106129a95760405162461bcd60e51b815260040161083c90613dd2565b6000805160206144538339815191528360400135106129da5760405162461bcd60e51b815260040161083c90613fa1565b600080516020614453833981519152836060013510612a0b5760405162461bcd60e51b815260040161083c90613a22565b826080013560011480612a2057506080830135155b612a3c5760405162461bcd60e51b815260040161083c906140e3565b600080516020614473833981519152604051612a5790613f73565b60405180910390a1836001600160a01b0316826007547f2c245c10666fcca4594c4e7f50f24367a832c4e1772390e4880b101f050a3f8b600c548786604051612aa29392919061414a565b60405180910390a4600c8054906000612aba836143c1565b919050555050505050565b80471015612ae55760405162461bcd60e51b815260040161083c90613c8e565b6000826001600160a01b031682604051612afe9061382c565b60006040518083038185875af1925050503d8060008114612b3b576040519150601f19603f3d011682016040523d82523d6000602084013e612b40565b606091505b5050905080611cbb5760405162461bcd60e51b815260040161083c90613bef565b600061297182846143aa565b60006129718284614362565b6000806000612b888585612b9d565b91509150612b9581612c0d565b509392505050565b600080825160411415612bd45760208301516040840151606085015160001a612bc887828585612d3a565b94509450505050612c06565b825160401415612bfe5760208301516040840151612bf3868383612e1a565b935093505050612c06565b506000905060025b9250929050565b6000816004811115612c2f57634e487b7160e01b600052602160045260246000fd5b1415612c3a57611cdf565b6001816004811115612c5c57634e487b7160e01b600052602160045260246000fd5b1415612c7a5760405162461bcd60e51b815260040161083c90613937565b6002816004811115612c9c57634e487b7160e01b600052602160045260246000fd5b1415612cba5760405162461bcd60e51b815260040161083c906139eb565b6003816004811115612cdc57634e487b7160e01b600052602160045260246000fd5b1415612cfa5760405162461bcd60e51b815260040161083c90613c4c565b6004816004811115612d1c57634e487b7160e01b600052602160045260246000fd5b1415611cdf5760405162461bcd60e51b815260040161083c90613e14565b6000807f7fffffffffffffffffffffffffffffff5d576e7357a4501ddfe92f46681b20a0831115612d715750600090506003612e11565b8460ff16601b14158015612d8957508460ff16601c14155b15612d9a5750600090506004612e11565b600060018787878760405160008152602001604052604051612dbf9493929190613919565b6020604051602081039080840390855afa158015612de1573d6000803e3d6000fd5b5050604051601f1901519150506001600160a01b038116612e0a57600060019250925050612e11565b9150600090505b94509492505050565b6000806001600160ff1b03831660ff84901c601b01612e3b87828885612d3a565b935093505050935093915050565b6040518060a001604052806005906020820280368337509192915050565b6040518060800160405280612e7a612eeb565b8152602001612e87612f38565b8152602001612e94612eeb565b8152600060209091015290565b60405180610100016040528060008152602001600081526020016000815260200160008152602001606081526020016060815260200160608152602001612ee6612f65565b905290565b60405180604001604052806002906020820280368337509192915050565b6040518060a0016040528060008152602001600081526020016000815260200160008152602001612ee6612f65565b60405180604001604052806002905b612f4f612eeb565b815260200190600190039081612f475790505090565b6040518061010001604052806008906020820280368337509192915050565b80356001600160a01b038116811461090457600080fd5b806101008101831015610e6e57600080fd5b600082601f830112612fbd578081fd5b60405161010080820182811067ffffffffffffffff82111715612fe257612fe261443c565b6040528184828101871015612ff5578485fd5b8492505b600883101561301957803582526001929092019160209182019101612ff9565b509195945050505050565b60008083601f840112613035578182fd5b50813567ffffffffffffffff81111561304c578182fd5b6020830191508360208083028501011115612c0657600080fd5b60008083601f840112613077578182fd5b50813567ffffffffffffffff81111561308e578182fd5b602083019150836020828501011115612c0657600080fd5b600060a082840312156130b7578081fd5b50919050565b600061012082840312156130b7578081fd5b803560ff8116811461090457600080fd5b6000602082840312156130f1578081fd5b61297182612f84565b60008060006040848603121561310e578182fd5b61311784612f84565b9250602084013567ffffffffffffffff811115613132578283fd5b61313e86828701613066565b9497909650939450505050565b6000806000806000806102208789031215613164578182fd5b61316d87612f84565b9550602087013567ffffffffffffffff811115613188578283fd5b61319489828a01613066565b90965094506131a8905088604089016130a6565b925060e087013591506131bf8861010089016130bd565b90509295509295509295565b600060a082840312156131dc578081fd5b82601f8301126131ea578081fd5b60405160a0810181811067ffffffffffffffff8211171561320d5761320d61443c565b604052808360a08101861015613221578384fd5b835b6005811015613019578135835260209283019290910190600101613223565b60006101008284031215613254578081fd5b6129718383612fad565b6000806000806000806000806101c0898b03121561327a578182fd5b883567ffffffffffffffff811115613290578283fd5b61329c8b828c01613024565b9099509750506020890135955060408901359450606089013593506080890135925060a089013591506132d28a60c08b01612f9b565b90509295985092959890939650565b60008060008060008060008060008060006102208c8e031215613302578283fd5b8b3567ffffffffffffffff811115613318578384fd5b6133248e828f01613024565b909c509a505060208c0135985060408c0135975060608c0135965060808c0135955060a08c0135945060c08c0135935060e08c013592506101008c013591506133718d6101208e01612f9b565b90509295989b509295989b9093969950565b600060208284031215613394578081fd5b81518015158114612971578182fd5b60008060006101e084860312156133b8578081fd5b6133c285856130a6565b925060a084013591506133d88560c086016130bd565b90509250925092565b6000604082840312156133f2578081fd5b6040516040810181811067ffffffffffffffff821117156134155761341561443c565b604052823581526020928301359281019290925250919050565b600060208284031215613440578081fd5b5035919050565b600060208284031215613458578081fd5b5051919050565b60008060008060008060008060008060006101e08c8e031215613480578485fd5b8b359a5067ffffffffffffffff8060208e0135111561349d578586fd5b6134ad8e60208f01358f01613024565b909b50995060408d01358110156134c2578586fd5b6134d28e60408f01358f01613024565b909950975060608d01358110156134e7578586fd5b506134f88d60608e01358e01613024565b909650945060808c0135935060a08c0135925060c08c013591506133718d60e08e01612f9b565b60008060008060008060008060008060006101e08c8e031215613540578485fd5b8b359a5067ffffffffffffffff8060208e0135111561355d578586fd5b61356d8e60208f01358f01613024565b909b50995060408d0135985060608d0135811015613589578586fd5b6135998e60608f01358f01613024565b909850965060808d0135955060a08d01358110156135b5578485fd5b506135c68d60a08e01358e01613024565b909450925060c08c013591506133718d60e08e01612f9b565b600080604083850312156135f1578182fd5b50508035926020909101359150565b6000806000806101608587031215613616578182fd5b8435935060208501359250604085013591506136358660608701612f9b565b905092959194509250565b6000806000806101608587031215613656578182fd5b8435935060208501359250604085013591506136358660608701612fad565b6000806000806000610180868803121561368d578283fd5b853594506020860135935060408601359250606086013591506136b38760808801612f9b565b90509295509295909350565b600080604083850312156136d1578182fd5b6136da836130cf565b946020939093013593505050565b600080600080608085870312156136fd578182fd5b613706856130cf565b966020860135965060408601359560600135945092505050565b8060005b600281101561374e57613738848351613754565b6040939093019260209190910190600101613724565b50505050565b8060005b600281101561374e578151845260209384019390910190600101613758565b8060005b600881101561374e57815184526020938401939091019060010161377b565b6000815180845260208085019450808401835b838110156137c9578151875295820195908201906001016137ad565b509495945050505050565b6bffffffffffffffffffffffff19606093841b811682529190921b16601482015260280190565b7f19457468657265756d205369676e6564204d6573736167653a0a3332000000008152601c810191909152603c0190565b90565b60408101818360005b6002811015613857578151835260209283019290910190600101613838565b50505092915050565b610100810161386f8286613754565b61387c6040830185613720565b61148460c0830184613754565b60006101206138988388613754565b6138a56040840187613720565b6138b260c0840186613754565b806101008401526138c58184018561379a565b979650505050505050565b60a08101818360005b60058110156138575781518352602092830192909101906001016138d9565b6101008181019080848437506000815292915050565b901515815260200190565b93845260ff9290921660208401526040830152606082015260800190565b60208082526018908201527f45434453413a20696e76616c6964207369676e61747572650000000000000000604082015260600190565b6020808252601c908201527f52657075746174696f6e4e756c6c69666965725375626d697474656400000000604082015260600190565b60208082526026908201527f556e697265703a2061747465737465722068617320616c72656164792073696760408201526506e65642075760d41b606082015260800190565b6020808252601f908201527f45434453413a20696e76616c6964207369676e6174757265206c656e67746800604082015260600190565b60208082526024908201527f556e697265703a20696e76616c6964206174746573746174696f6e20677261666040820152636669746960e01b606082015260800190565b6020808252602a908201527f556e697265703a20696e76616c6964206174746573746572207369676e207570604082015269207369676e617475726560b01b606082015260800190565b60208082526026908201527f556e697265703a20617474657374657220686173206e6f74207369676e6564206040820152651d5c081e595d60d21b606082015260800190565b6020808252601b908201527f556e697265703a2065706f6368206e6f742079657420656e6465640000000000604082015260600190565b60208082526032908201527f436f6d70757465526f6f743a205f747265654c6576656c73206d757374206265604082015271103132ba3bb2b2b710181030b73210191a9b60711b606082015260800190565b6020808252602c908201527f556e697265703a206e6f20617474657374696e6720666565206f7220696e636f60408201526b1c9c9958dd08185b5bdd5b9d60a21b606082015260800190565b6020808252600a9082015269115c1bd8da115b99195960b21b604082015260600190565b6020808252603a908201527f416464726573733a20756e61626c6520746f2073656e642076616c75652c207260408201527f6563697069656e74206d61792068617665207265766572746564000000000000606082015260800190565b60208082526022908201527f45434453413a20696e76616c6964207369676e6174757265202773272076616c604082015261756560f01b606082015260800190565b6020808252601d908201527f416464726573733a20696e73756666696369656e742062616c616e6365000000604082015260600190565b6020808252602f908201527f556e697265703a20696e76616c6964206e756d626572206f662072657075746160408201526e74696f6e206e756c6c69666965727360881b606082015260800190565b60208082526046908201527f43616e206e6f74207472616e736974696f6e2066726f6d2065706f636820746860408201527f617427732067726561746572206f7220657175616c20746f2063757272656e74606082015265040cae0dec6d60d31b608082015260a00190565b60208082526032908201527f556e697265703a206d6178696d756d206e756d626572206f6620617474657374604082015271195c881cda59db9d5c1cc81c995858da195960721b606082015260800190565b60208082526022908201527f556e697265703a20696e76616c6964206174746573746174696f6e20706f7352604082015261065760f41b606082015260800190565b60208082526022908201527f45434453413a20696e76616c6964207369676e6174757265202776272076616c604082015261756560f01b606082015260800190565b60208082526026908201527f556e697265703a2074686520757365722068617320616c72656164792073696760408201526506e65642075760d41b606082015260800190565b602080825260159082015274155cd95c94dd185d19551c985b9cda5d1a5bdb9959605a1b604082015260600190565b60208082526015908201527450726f6365737365644174746573746174696f6e7360581b604082015260600190565b60208082526011908201527029ba30b93a32b22a3930b739b4ba34b7b760791b604082015260600190565b6020808252602e908201527f556e697265703a206d6178696d756d206e756d626572206f662075736572207360408201526d1a59db9d5c1cc81c995858da195960921b606082015260800190565b602080825260149082015273105d1d195cdd185d1a5bdb94dd589b5a5d1d195960621b604082015260600190565b60208082526022908201527f556e697265703a20696e76616c6964206174746573746174696f6e206e656752604082015261065760f41b606082015260800190565b6020808252601d908201527f556e697265703a206d69736d6174636865642061747465737465724964000000604082015260600190565b6020808252603c908201527f556e697265703a2065616368207075626c6963207369676e616c206d7573742060408201527f6265206c742074686520736e61726b207363616c6172206669656c6400000000606082015260800190565b60208082526028908201527f556e697265703a20696e76616c6964206e756d626572206f662065706b206e756040820152676c6c69666965727360c01b606082015260800190565b6020808252600a90820152690557365725369676e55760b41b604082015260600190565b60208082526022908201527f556e697265703a20696e76616c6964206174746573746174696f6e207369676e604082015261055760f41b606082015260800190565b90815260200190565b8281526101208101610100836020840137600081529392505050565b60006101e08201905084825283356020830152602084013560408301526040840135606083015260608401356080830152608084013560a0830152823560c08301526101006020840160e084013760008152949350505050565b60006101c08683528551602084015260208601516040840152604086015160608401526060860151608084015260808601516141e360a0850182613777565b506101a0830181905282018390526101e06001600160fb1b03841115614207578182fd5b6020840280868386013792909201909101908152949350505050565b600083825260406020830152825160408301526020830151606083015260408301516080830152606083015160a083015260808301516101e060c084015261426f61022084018261379a565b905060a0840151603f19808584030160e086015261428d838361379a565b925060c086015191508085840301610100860152506142ac828261379a565b91505060e08401516142c2610120850182613777565b50949350505050565b93845260208401929092526040830152606082015260800190565b60ff91909116815260200190565b60ff93841681529183166020830152909116604082015260600190565b6000821982111561432457614324614410565b500190565b600060ff821660ff84168060ff0382111561434657614346614410565b019392505050565b60008261435d5761435d614426565b500490565b600081600019048311821515161561437c5761437c614410565b500290565b600060ff821660ff84168160ff04811182151516156143a2576143a2614410565b029392505050565b6000828210156143bc576143bc614410565b500390565b60006000198214156143d5576143d5614410565b5060010190565b600060ff821660ff8114156143f3576143f3614410565b60010192915050565b60008261440b5761440b614426565b500690565b634e487b7160e01b600052601160045260246000fd5b634e487b7160e01b600052601260045260246000fd5b634e487b7160e01b600052604160045260246000fdfe30644e72e131a029b85045b68181585d2833e84879b9709143e1f593f00000010dcdd84eeab9fd262751c1bd37b2a03e271f2666bf2525092aab5f34fd72202ba2646970667358221220a3eaa4f6feca440e1a690e2e08a3a5a874b175ad45d1822997540ea283da6f7264736f6c63430008000033",
    "linkReferences": {
        "contracts/Poseidon.sol": {
            "PoseidonT3": [
                {
                    "length": 20,
                    "start": 1292
                },
                {
                    "length": 20,
                    "start": 8959
                }
            ],
            "PoseidonT6": [
                {
                    "length": 20,
                    "start": 971
                },
                {
                    "length": 20,
                    "start": 10045
                }
            ]
        }
    },
    "deployedLinkReferences": {
        "contracts/Poseidon.sol": {
            "PoseidonT3": [
                {
                    "length": 20,
                    "start": 5967
                }
            ],
            "PoseidonT6": [
                {
                    "length": 20,
                    "start": 7053
                }
            ]
        }
    }
}