{
    "_format": "hh-sol-artifact-1",
    "contractName": "Unirep",
    "sourceName": "contracts/Unirep.sol",
    "abi": [
        {
            "inputs": [
                {
                    "components": [
                        {
                            "internalType": "uint8",
                            "name": "globalStateTreeDepth",
                            "type": "uint8"
                        },
                        {
                            "internalType": "uint8",
                            "name": "userStateTreeDepth",
                            "type": "uint8"
                        },
                        {
                            "internalType": "uint8",
                            "name": "epochTreeDepth",
                            "type": "uint8"
                        }
                    ],
                    "internalType": "struct UnirepParameters.TreeDepths",
                    "name": "_treeDepths",
                    "type": "tuple"
                },
                {
                    "components": [
                        {
                            "internalType": "uint256",
                            "name": "maxUsers",
                            "type": "uint256"
                        },
                        {
                            "internalType": "uint256",
                            "name": "maxAttesters",
                            "type": "uint256"
                        }
                    ],
                    "internalType": "struct UnirepParameters.MaxValues",
                    "name": "_maxValues",
                    "type": "tuple"
                },
                {
                    "internalType": "contract EpochKeyValidityVerifier",
                    "name": "_epkValidityVerifier",
                    "type": "address"
                },
                {
                    "internalType": "contract StartTransitionVerifier",
                    "name": "_startTransitionVerifier",
                    "type": "address"
                },
                {
                    "internalType": "contract ProcessAttestationsVerifier",
                    "name": "_processAttestationsVerifier",
                    "type": "address"
                },
                {
                    "internalType": "contract UserStateTransitionVerifier",
                    "name": "_userStateTransitionVerifier",
                    "type": "address"
                },
                {
                    "internalType": "contract ReputationVerifier",
                    "name": "_reputationVerifier",
                    "type": "address"
                },
                {
                    "internalType": "contract UserSignUpVerifier",
                    "name": "_userSignUpVerifier",
                    "type": "address"
                },
                {
                    "internalType": "uint8",
                    "name": "_numEpochKeyNoncePerEpoch",
                    "type": "uint8"
                },
                {
                    "internalType": "uint8",
                    "name": "_maxReputationBudget",
                    "type": "uint8"
                },
                {
                    "internalType": "uint256",
                    "name": "_epochLength",
                    "type": "uint256"
                },
                {
                    "internalType": "uint256",
                    "name": "_attestingFee",
                    "type": "uint256"
                }
            ],
            "stateMutability": "nonpayable",
            "type": "constructor"
        },
        {
            "anonymous": false,
            "inputs": [
                {
                    "indexed": true,
                    "internalType": "uint256",
                    "name": "_epoch",
                    "type": "uint256"
                },
                {
                    "indexed": true,
                    "internalType": "uint256",
                    "name": "_epochKey",
                    "type": "uint256"
                },
                {
                    "indexed": true,
                    "internalType": "address",
                    "name": "_attester",
                    "type": "address"
                },
                {
                    "components": [
                        {
                            "internalType": "uint256",
                            "name": "attesterId",
                            "type": "uint256"
                        },
                        {
                            "internalType": "uint256",
                            "name": "posRep",
                            "type": "uint256"
                        },
                        {
                            "internalType": "uint256",
                            "name": "negRep",
                            "type": "uint256"
                        },
                        {
                            "internalType": "uint256",
                            "name": "graffiti",
                            "type": "uint256"
                        },
                        {
                            "internalType": "uint256",
                            "name": "signUp",
                            "type": "uint256"
                        }
                    ],
                    "indexed": false,
                    "internalType": "struct DomainObjs.Attestation",
                    "name": "attestation",
                    "type": "tuple"
                },
                {
                    "indexed": false,
                    "internalType": "uint256",
                    "name": "_proofIndex",
                    "type": "uint256"
                }
            ],
            "name": "AttestationSubmitted",
            "type": "event"
        },
        {
            "anonymous": false,
            "inputs": [
                {
                    "indexed": true,
                    "internalType": "uint256",
                    "name": "_epoch",
                    "type": "uint256"
                }
            ],
            "name": "EpochEnded",
            "type": "event"
        },
        {
            "anonymous": false,
            "inputs": [
                {
                    "indexed": true,
                    "internalType": "uint256",
                    "name": "_proofIndex",
                    "type": "uint256"
                },
                {
                    "components": [
                        {
                            "internalType": "uint256",
                            "name": "globalStateTree",
                            "type": "uint256"
                        },
                        {
                            "internalType": "uint256",
                            "name": "epoch",
                            "type": "uint256"
                        },
                        {
                            "internalType": "uint256",
                            "name": "epochKey",
                            "type": "uint256"
                        },
                        {
                            "internalType": "uint256[8]",
                            "name": "proof",
                            "type": "uint256[8]"
                        }
                    ],
                    "indexed": false,
                    "internalType": "struct UnirepParameters.EpochKeyProofRelated",
                    "name": "epochKeyProofData",
                    "type": "tuple"
                }
            ],
            "name": "EpochKeyProof",
            "type": "event"
        },
        {
            "anonymous": false,
            "inputs": [
                {
                    "indexed": true,
                    "internalType": "uint256",
                    "name": "_epoch",
                    "type": "uint256"
                },
                {
                    "indexed": false,
                    "internalType": "uint256",
                    "name": "_hashedLeaf",
                    "type": "uint256"
                },
                {
                    "indexed": false,
                    "internalType": "uint256",
                    "name": "_proofIndex",
                    "type": "uint256"
                }
            ],
            "name": "NewGSTLeafInserted",
            "type": "event"
        },
        {
            "anonymous": false,
            "inputs": [
                {
                    "indexed": true,
                    "internalType": "uint256",
                    "name": "_proofIndex",
                    "type": "uint256"
                },
                {
                    "indexed": true,
                    "internalType": "uint256",
                    "name": "_inputBlindedUserState",
                    "type": "uint256"
                },
                {
                    "indexed": false,
                    "internalType": "uint256",
                    "name": "_outputBlindedUserState",
                    "type": "uint256"
                },
                {
                    "indexed": false,
                    "internalType": "uint256",
                    "name": "_outputBlindedHashChain",
                    "type": "uint256"
                },
                {
                    "indexed": false,
                    "internalType": "uint256[8]",
                    "name": "_proof",
                    "type": "uint256[8]"
                }
            ],
            "name": "ProcessedAttestationsProof",
            "type": "event"
        },
        {
            "anonymous": false,
            "inputs": [
                {
                    "indexed": true,
                    "internalType": "uint256",
                    "name": "_proofIndex",
                    "type": "uint256"
                },
                {
                    "components": [
                        {
                            "internalType": "uint256[]",
                            "name": "repNullifiers",
                            "type": "uint256[]"
                        },
                        {
                            "internalType": "uint256",
                            "name": "epoch",
                            "type": "uint256"
                        },
                        {
                            "internalType": "uint256",
                            "name": "epochKey",
                            "type": "uint256"
                        },
                        {
                            "internalType": "uint256",
                            "name": "globalStateTree",
                            "type": "uint256"
                        },
                        {
                            "internalType": "uint256",
                            "name": "attesterId",
                            "type": "uint256"
                        },
                        {
                            "internalType": "uint256",
                            "name": "proveReputationAmount",
                            "type": "uint256"
                        },
                        {
                            "internalType": "uint256",
                            "name": "minRep",
                            "type": "uint256"
                        },
                        {
                            "internalType": "uint256",
                            "name": "proveGraffiti",
                            "type": "uint256"
                        },
                        {
                            "internalType": "uint256",
                            "name": "graffitiPreImage",
                            "type": "uint256"
                        },
                        {
                            "internalType": "uint256[8]",
                            "name": "proof",
                            "type": "uint256[8]"
                        }
                    ],
                    "indexed": false,
                    "internalType": "struct UnirepParameters.ReputationProofRelated",
                    "name": "reputationProofData",
                    "type": "tuple"
                }
            ],
            "name": "ReputationNullifierProof",
            "type": "event"
        },
        {
            "anonymous": false,
            "inputs": [
                {
                    "indexed": true,
                    "internalType": "uint256",
                    "name": "_epoch",
                    "type": "uint256"
                },
                {
                    "indexed": false,
                    "internalType": "string",
                    "name": "_event",
                    "type": "string"
                }
            ],
            "name": "Sequencer",
            "type": "event"
        },
        {
            "anonymous": false,
            "inputs": [
                {
                    "indexed": true,
                    "internalType": "uint256",
                    "name": "_proofIndex",
                    "type": "uint256"
                },
                {
                    "indexed": true,
                    "internalType": "uint256",
                    "name": "_blindedUserState",
                    "type": "uint256"
                },
                {
                    "indexed": true,
                    "internalType": "uint256",
                    "name": "_globalStateTree",
                    "type": "uint256"
                },
                {
                    "indexed": false,
                    "internalType": "uint256",
                    "name": "_blindedHashChain",
                    "type": "uint256"
                },
                {
                    "indexed": false,
                    "internalType": "uint256[8]",
                    "name": "_proof",
                    "type": "uint256[8]"
                }
            ],
            "name": "StartedTransitionProof",
            "type": "event"
        },
        {
            "anonymous": false,
            "inputs": [
                {
                    "indexed": true,
                    "internalType": "uint256",
                    "name": "_proofIndex",
                    "type": "uint256"
                },
                {
                    "indexed": false,
                    "internalType": "uint256",
                    "name": "_identityCommitment",
                    "type": "uint256"
                },
                {
                    "indexed": false,
                    "internalType": "uint256",
                    "name": "_attesterId",
                    "type": "uint256"
                },
                {
                    "indexed": false,
                    "internalType": "uint256",
                    "name": "_airdropAmount",
                    "type": "uint256"
                }
            ],
            "name": "UserSignUp",
            "type": "event"
        },
        {
            "anonymous": false,
            "inputs": [
                {
                    "indexed": true,
                    "internalType": "uint256",
                    "name": "_proofIndex",
                    "type": "uint256"
                },
                {
                    "components": [
                        {
                            "internalType": "uint256",
                            "name": "epoch",
                            "type": "uint256"
                        },
                        {
                            "internalType": "uint256",
                            "name": "epochKey",
                            "type": "uint256"
                        },
                        {
                            "internalType": "uint256",
                            "name": "globalStateTree",
                            "type": "uint256"
                        },
                        {
                            "internalType": "uint256",
                            "name": "attesterId",
                            "type": "uint256"
                        },
                        {
                            "internalType": "uint256[8]",
                            "name": "proof",
                            "type": "uint256[8]"
                        }
                    ],
                    "indexed": false,
                    "internalType": "struct UnirepParameters.SignUpProofRelated",
                    "name": "signUpProofData",
                    "type": "tuple"
                }
            ],
            "name": "UserSignedUpProof",
            "type": "event"
        },
        {
            "anonymous": false,
            "inputs": [
                {
                    "indexed": true,
                    "internalType": "uint256",
                    "name": "_proofIndex",
                    "type": "uint256"
                },
                {
                    "components": [
                        {
                            "internalType": "uint256",
                            "name": "newGlobalStateTreeLeaf",
                            "type": "uint256"
                        },
                        {
                            "internalType": "uint256[]",
                            "name": "epkNullifiers",
                            "type": "uint256[]"
                        },
                        {
                            "internalType": "uint256",
                            "name": "transitionFromEpoch",
                            "type": "uint256"
                        },
                        {
                            "internalType": "uint256[]",
                            "name": "blindedUserStates",
                            "type": "uint256[]"
                        },
                        {
                            "internalType": "uint256",
                            "name": "fromGlobalStateTree",
                            "type": "uint256"
                        },
                        {
                            "internalType": "uint256[]",
                            "name": "blindedHashChains",
                            "type": "uint256[]"
                        },
                        {
                            "internalType": "uint256",
                            "name": "fromEpochTree",
                            "type": "uint256"
                        },
                        {
                            "internalType": "uint256[8]",
                            "name": "proof",
                            "type": "uint256[8]"
                        }
                    ],
                    "indexed": false,
                    "internalType": "struct UnirepParameters.UserTransitionedRelated",
                    "name": "userTransitionedData",
                    "type": "tuple"
                },
                {
                    "indexed": false,
                    "internalType": "uint256[]",
                    "name": "_proofIndexRecords",
                    "type": "uint256[]"
                }
            ],
            "name": "UserStateTransitionProof",
            "type": "event"
        },
        {
            "inputs": [
                {
                    "internalType": "address",
                    "name": "",
                    "type": "address"
                }
            ],
            "name": "airdropAmount",
            "outputs": [
                {
                    "internalType": "uint256",
                    "name": "",
                    "type": "uint256"
                }
            ],
            "stateMutability": "view",
            "type": "function"
        },
        {
            "inputs": [
                {
                    "components": [
                        {
                            "internalType": "uint256",
                            "name": "epoch",
                            "type": "uint256"
                        },
                        {
                            "internalType": "uint256",
                            "name": "epochKey",
                            "type": "uint256"
                        },
                        {
                            "internalType": "uint256",
                            "name": "globalStateTree",
                            "type": "uint256"
                        },
                        {
                            "internalType": "uint256",
                            "name": "attesterId",
                            "type": "uint256"
                        },
                        {
                            "internalType": "uint256[8]",
                            "name": "proof",
                            "type": "uint256[8]"
                        }
                    ],
                    "internalType": "struct UnirepParameters.SignUpProofRelated",
                    "name": "signUpProofData",
                    "type": "tuple"
                }
            ],
            "name": "airdropEpochKey",
            "outputs": [],
            "stateMutability": "payable",
            "type": "function"
        },
        {
            "inputs": [],
            "name": "attesterSignUp",
            "outputs": [],
            "stateMutability": "nonpayable",
            "type": "function"
        },
        {
            "inputs": [
                {
                    "internalType": "address",
                    "name": "attester",
                    "type": "address"
                },
                {
                    "internalType": "bytes",
                    "name": "signature",
                    "type": "bytes"
                }
            ],
            "name": "attesterSignUpViaRelayer",
            "outputs": [],
            "stateMutability": "nonpayable",
            "type": "function"
        },
        {
            "inputs": [
                {
                    "internalType": "address",
                    "name": "",
                    "type": "address"
                }
            ],
            "name": "attesters",
            "outputs": [
                {
                    "internalType": "uint256",
                    "name": "",
                    "type": "uint256"
                }
            ],
            "stateMutability": "view",
            "type": "function"
        },
        {
            "inputs": [],
            "name": "attestingFee",
            "outputs": [
                {
                    "internalType": "uint256",
                    "name": "",
                    "type": "uint256"
                }
            ],
            "stateMutability": "view",
            "type": "function"
        },
        {
            "inputs": [],
            "name": "beginEpochTransition",
            "outputs": [],
            "stateMutability": "nonpayable",
            "type": "function"
        },
        {
            "inputs": [],
            "name": "burnAttestingFee",
            "outputs": [],
            "stateMutability": "nonpayable",
            "type": "function"
        },
        {
            "inputs": [
                {
                    "internalType": "uint256",
                    "name": "_leafIndex",
                    "type": "uint256"
                },
                {
                    "internalType": "uint256",
                    "name": "_leafValue",
                    "type": "uint256"
                }
            ],
            "name": "calcAirdropUSTRoot",
            "outputs": [
                {
                    "internalType": "uint256",
                    "name": "",
                    "type": "uint256"
                }
            ],
            "stateMutability": "view",
            "type": "function"
        },
        {
            "inputs": [],
            "name": "collectEpochTransitionCompensation",
            "outputs": [],
            "stateMutability": "nonpayable",
            "type": "function"
        },
        {
            "inputs": [],
            "name": "collectedAttestingFee",
            "outputs": [
                {
                    "internalType": "uint256",
                    "name": "",
                    "type": "uint256"
                }
            ],
            "stateMutability": "view",
            "type": "function"
        },
        {
            "inputs": [
                {
                    "internalType": "uint8",
                    "name": "_treeLevels",
                    "type": "uint8"
                },
                {
                    "internalType": "uint256",
                    "name": "_zeroValue",
                    "type": "uint256"
                }
            ],
            "name": "computeEmptyRoot",
            "outputs": [
                {
                    "internalType": "uint256",
                    "name": "",
                    "type": "uint256"
                }
            ],
            "stateMutability": "pure",
            "type": "function"
        },
        {
            "inputs": [
                {
                    "internalType": "uint8",
                    "name": "_treeLevels",
                    "type": "uint8"
                },
                {
                    "internalType": "uint256",
                    "name": "_leafIndex",
                    "type": "uint256"
                },
                {
                    "internalType": "uint256",
                    "name": "_leafValue",
                    "type": "uint256"
                },
                {
                    "internalType": "uint256",
                    "name": "_zeroValue",
                    "type": "uint256"
                }
            ],
            "name": "computeOneNonZeroLeafRoot",
            "outputs": [
                {
                    "internalType": "uint256",
                    "name": "",
                    "type": "uint256"
                }
            ],
            "stateMutability": "pure",
            "type": "function"
        },
        {
            "inputs": [],
            "name": "currentEpoch",
            "outputs": [
                {
                    "internalType": "uint256",
                    "name": "",
                    "type": "uint256"
                }
            ],
            "stateMutability": "view",
            "type": "function"
        },
        {
            "inputs": [],
            "name": "emptyGlobalStateTreeRoot",
            "outputs": [
                {
                    "internalType": "uint256",
                    "name": "",
                    "type": "uint256"
                }
            ],
            "stateMutability": "view",
            "type": "function"
        },
        {
            "inputs": [],
            "name": "emptyUserStateRoot",
            "outputs": [
                {
                    "internalType": "uint256",
                    "name": "",
                    "type": "uint256"
                }
            ],
            "stateMutability": "view",
            "type": "function"
        },
        {
            "inputs": [],
            "name": "epochLength",
            "outputs": [
                {
                    "internalType": "uint256",
                    "name": "",
                    "type": "uint256"
                }
            ],
            "stateMutability": "view",
            "type": "function"
        },
        {
            "inputs": [
                {
                    "internalType": "address",
                    "name": "",
                    "type": "address"
                }
            ],
            "name": "epochTransitionCompensation",
            "outputs": [
                {
                    "internalType": "uint256",
                    "name": "",
                    "type": "uint256"
                }
            ],
            "stateMutability": "view",
            "type": "function"
        },
        {
            "inputs": [
                {
                    "internalType": "bytes32",
                    "name": "",
                    "type": "bytes32"
                }
            ],
            "name": "getProofIndex",
            "outputs": [
                {
                    "internalType": "uint256",
                    "name": "",
                    "type": "uint256"
                }
            ],
            "stateMutability": "view",
            "type": "function"
        },
        {
            "inputs": [
                {
                    "internalType": "uint256",
                    "name": "",
                    "type": "uint256"
                }
            ],
            "name": "hasUserSignedUp",
            "outputs": [
                {
                    "internalType": "bool",
                    "name": "",
                    "type": "bool"
                }
            ],
            "stateMutability": "view",
            "type": "function"
        },
        {
            "inputs": [
                {
                    "internalType": "uint256[5]",
                    "name": "array",
                    "type": "uint256[5]"
                }
            ],
            "name": "hash5",
            "outputs": [
                {
                    "internalType": "uint256",
                    "name": "",
                    "type": "uint256"
                }
            ],
            "stateMutability": "pure",
            "type": "function"
        },
        {
            "inputs": [
                {
                    "internalType": "uint256",
                    "name": "airdropPosRep",
                    "type": "uint256"
                }
            ],
            "name": "hashAirdroppedLeaf",
            "outputs": [
                {
                    "internalType": "uint256",
                    "name": "",
                    "type": "uint256"
                }
            ],
            "stateMutability": "pure",
            "type": "function"
        },
        {
            "inputs": [
                {
                    "components": [
                        {
                            "internalType": "uint256",
                            "name": "globalStateTree",
                            "type": "uint256"
                        },
                        {
                            "internalType": "uint256",
                            "name": "epoch",
                            "type": "uint256"
                        },
                        {
                            "internalType": "uint256",
                            "name": "epochKey",
                            "type": "uint256"
                        },
                        {
                            "internalType": "uint256[8]",
                            "name": "proof",
                            "type": "uint256[8]"
                        }
                    ],
                    "internalType": "struct UnirepParameters.EpochKeyProofRelated",
                    "name": "epochKeyProofData",
                    "type": "tuple"
                }
            ],
            "name": "hashEpochKeyProof",
            "outputs": [
                {
                    "internalType": "bytes32",
                    "name": "",
                    "type": "bytes32"
                }
            ],
            "stateMutability": "pure",
            "type": "function"
        },
        {
            "inputs": [
                {
                    "internalType": "uint256",
                    "name": "_left",
                    "type": "uint256"
                },
                {
                    "internalType": "uint256",
                    "name": "_right",
                    "type": "uint256"
                }
            ],
            "name": "hashLeftRight",
            "outputs": [
                {
                    "internalType": "uint256",
                    "name": "",
                    "type": "uint256"
                }
            ],
            "stateMutability": "pure",
            "type": "function"
        },
        {
            "inputs": [
                {
                    "internalType": "uint256",
                    "name": "_outputBlindedUserState",
                    "type": "uint256"
                },
                {
                    "internalType": "uint256",
                    "name": "_outputBlindedHashChain",
                    "type": "uint256"
                },
                {
                    "internalType": "uint256",
                    "name": "_inputBlindedUserState",
                    "type": "uint256"
                },
                {
                    "internalType": "uint256[8]",
                    "name": "_proof",
                    "type": "uint256[8]"
                }
            ],
            "name": "hashProcessAttestationsProof",
            "outputs": [
                {
                    "internalType": "bytes32",
                    "name": "",
                    "type": "bytes32"
                }
            ],
            "stateMutability": "pure",
            "type": "function"
        },
        {
            "inputs": [
                {
                    "components": [
                        {
                            "internalType": "uint256[]",
                            "name": "repNullifiers",
                            "type": "uint256[]"
                        },
                        {
                            "internalType": "uint256",
                            "name": "epoch",
                            "type": "uint256"
                        },
                        {
                            "internalType": "uint256",
                            "name": "epochKey",
                            "type": "uint256"
                        },
                        {
                            "internalType": "uint256",
                            "name": "globalStateTree",
                            "type": "uint256"
                        },
                        {
                            "internalType": "uint256",
                            "name": "attesterId",
                            "type": "uint256"
                        },
                        {
                            "internalType": "uint256",
                            "name": "proveReputationAmount",
                            "type": "uint256"
                        },
                        {
                            "internalType": "uint256",
                            "name": "minRep",
                            "type": "uint256"
                        },
                        {
                            "internalType": "uint256",
                            "name": "proveGraffiti",
                            "type": "uint256"
                        },
                        {
                            "internalType": "uint256",
                            "name": "graffitiPreImage",
                            "type": "uint256"
                        },
                        {
                            "internalType": "uint256[8]",
                            "name": "proof",
                            "type": "uint256[8]"
                        }
                    ],
                    "internalType": "struct UnirepParameters.ReputationProofRelated",
                    "name": "reputationProofData",
                    "type": "tuple"
                }
            ],
            "name": "hashReputationProof",
            "outputs": [
                {
                    "internalType": "bytes32",
                    "name": "",
                    "type": "bytes32"
                }
            ],
            "stateMutability": "pure",
            "type": "function"
        },
        {
            "inputs": [
                {
                    "components": [
                        {
                            "internalType": "uint256",
                            "name": "epoch",
                            "type": "uint256"
                        },
                        {
                            "internalType": "uint256",
                            "name": "epochKey",
                            "type": "uint256"
                        },
                        {
                            "internalType": "uint256",
                            "name": "globalStateTree",
                            "type": "uint256"
                        },
                        {
                            "internalType": "uint256",
                            "name": "attesterId",
                            "type": "uint256"
                        },
                        {
                            "internalType": "uint256[8]",
                            "name": "proof",
                            "type": "uint256[8]"
                        }
                    ],
                    "internalType": "struct UnirepParameters.SignUpProofRelated",
                    "name": "signUpProofData",
                    "type": "tuple"
                }
            ],
            "name": "hashSignUpProof",
            "outputs": [
                {
                    "internalType": "bytes32",
                    "name": "",
                    "type": "bytes32"
                }
            ],
            "stateMutability": "pure",
            "type": "function"
        },
        {
            "inputs": [
                {
                    "internalType": "uint256",
                    "name": "_blindedUserState",
                    "type": "uint256"
                },
                {
                    "internalType": "uint256",
                    "name": "_blindedHashChain",
                    "type": "uint256"
                },
                {
                    "internalType": "uint256",
                    "name": "_globalStateTree",
                    "type": "uint256"
                },
                {
                    "internalType": "uint256[8]",
                    "name": "_proof",
                    "type": "uint256[8]"
                }
            ],
            "name": "hashStartTransitionProof",
            "outputs": [
                {
                    "internalType": "bytes32",
                    "name": "",
                    "type": "bytes32"
                }
            ],
            "stateMutability": "pure",
            "type": "function"
        },
        {
            "inputs": [
                {
                    "components": [
                        {
                            "internalType": "uint256",
                            "name": "identityCommitment",
                            "type": "uint256"
                        },
                        {
                            "internalType": "uint256",
                            "name": "userStateRoot",
                            "type": "uint256"
                        }
                    ],
                    "internalType": "struct DomainObjs.StateLeaf",
                    "name": "_stateLeaf",
                    "type": "tuple"
                }
            ],
            "name": "hashStateLeaf",
            "outputs": [
                {
                    "internalType": "uint256",
                    "name": "",
                    "type": "uint256"
                }
            ],
            "stateMutability": "pure",
            "type": "function"
        },
        {
            "inputs": [
                {
                    "components": [
                        {
                            "internalType": "uint256",
                            "name": "newGlobalStateTreeLeaf",
                            "type": "uint256"
                        },
                        {
                            "internalType": "uint256[]",
                            "name": "epkNullifiers",
                            "type": "uint256[]"
                        },
                        {
                            "internalType": "uint256",
                            "name": "transitionFromEpoch",
                            "type": "uint256"
                        },
                        {
                            "internalType": "uint256[]",
                            "name": "blindedUserStates",
                            "type": "uint256[]"
                        },
                        {
                            "internalType": "uint256",
                            "name": "fromGlobalStateTree",
                            "type": "uint256"
                        },
                        {
                            "internalType": "uint256[]",
                            "name": "blindedHashChains",
                            "type": "uint256[]"
                        },
                        {
                            "internalType": "uint256",
                            "name": "fromEpochTree",
                            "type": "uint256"
                        },
                        {
                            "internalType": "uint256[8]",
                            "name": "proof",
                            "type": "uint256[8]"
                        }
                    ],
                    "internalType": "struct UnirepParameters.UserTransitionedRelated",
                    "name": "userTransitionedData",
                    "type": "tuple"
                }
            ],
            "name": "hashUserStateTransitionProof",
            "outputs": [
                {
                    "internalType": "bytes32",
                    "name": "",
                    "type": "bytes32"
                }
            ],
            "stateMutability": "pure",
            "type": "function"
        },
        {
            "inputs": [],
            "name": "hashedBlankStateLeaf",
            "outputs": [
                {
                    "internalType": "uint256",
                    "name": "",
                    "type": "uint256"
                }
            ],
            "stateMutability": "view",
            "type": "function"
        },
        {
            "inputs": [],
            "name": "latestEpochTransitionTime",
            "outputs": [
                {
                    "internalType": "uint256",
                    "name": "",
                    "type": "uint256"
                }
            ],
            "stateMutability": "view",
            "type": "function"
        },
        {
            "inputs": [],
            "name": "maxAttesters",
            "outputs": [
                {
                    "internalType": "uint256",
                    "name": "",
                    "type": "uint256"
                }
            ],
            "stateMutability": "view",
            "type": "function"
        },
        {
            "inputs": [],
            "name": "maxReputationBudget",
            "outputs": [
                {
                    "internalType": "uint8",
                    "name": "",
                    "type": "uint8"
                }
            ],
            "stateMutability": "view",
            "type": "function"
        },
        {
            "inputs": [],
            "name": "maxUsers",
            "outputs": [
                {
                    "internalType": "uint256",
                    "name": "",
                    "type": "uint256"
                }
            ],
            "stateMutability": "view",
            "type": "function"
        },
        {
            "inputs": [],
            "name": "nextAttesterId",
            "outputs": [
                {
                    "internalType": "uint256",
                    "name": "",
                    "type": "uint256"
                }
            ],
            "stateMutability": "view",
            "type": "function"
        },
        {
            "inputs": [],
            "name": "numEpochKeyNoncePerEpoch",
            "outputs": [
                {
                    "internalType": "uint8",
                    "name": "",
                    "type": "uint8"
                }
            ],
            "stateMutability": "view",
            "type": "function"
        },
        {
            "inputs": [],
            "name": "numUserSignUps",
            "outputs": [
                {
                    "internalType": "uint256",
                    "name": "",
                    "type": "uint256"
                }
            ],
            "stateMutability": "view",
            "type": "function"
        },
        {
            "inputs": [
                {
                    "internalType": "uint256",
                    "name": "_outputBlindedUserState",
                    "type": "uint256"
                },
                {
                    "internalType": "uint256",
                    "name": "_outputBlindedHashChain",
                    "type": "uint256"
                },
                {
                    "internalType": "uint256",
                    "name": "_inputBlindedUserState",
                    "type": "uint256"
                },
                {
                    "internalType": "uint256[8]",
                    "name": "_proof",
                    "type": "uint256[8]"
                }
            ],
            "name": "processAttestations",
            "outputs": [],
            "stateMutability": "nonpayable",
            "type": "function"
        },
        {
            "inputs": [
                {
                    "internalType": "uint256",
                    "name": "_airdropAmount",
                    "type": "uint256"
                }
            ],
            "name": "setAirdropAmount",
            "outputs": [],
            "stateMutability": "nonpayable",
            "type": "function"
        },
        {
            "inputs": [
                {
                    "components": [
                        {
                            "internalType": "uint256[]",
                            "name": "repNullifiers",
                            "type": "uint256[]"
                        },
                        {
                            "internalType": "uint256",
                            "name": "epoch",
                            "type": "uint256"
                        },
                        {
                            "internalType": "uint256",
                            "name": "epochKey",
                            "type": "uint256"
                        },
                        {
                            "internalType": "uint256",
                            "name": "globalStateTree",
                            "type": "uint256"
                        },
                        {
                            "internalType": "uint256",
                            "name": "attesterId",
                            "type": "uint256"
                        },
                        {
                            "internalType": "uint256",
                            "name": "proveReputationAmount",
                            "type": "uint256"
                        },
                        {
                            "internalType": "uint256",
                            "name": "minRep",
                            "type": "uint256"
                        },
                        {
                            "internalType": "uint256",
                            "name": "proveGraffiti",
                            "type": "uint256"
                        },
                        {
                            "internalType": "uint256",
                            "name": "graffitiPreImage",
                            "type": "uint256"
                        },
                        {
                            "internalType": "uint256[8]",
                            "name": "proof",
                            "type": "uint256[8]"
                        }
                    ],
                    "internalType": "struct UnirepParameters.ReputationProofRelated",
                    "name": "reputationProofData",
                    "type": "tuple"
                }
            ],
            "name": "spendReputation",
            "outputs": [],
            "stateMutability": "payable",
            "type": "function"
        },
        {
            "inputs": [
                {
                    "internalType": "uint256",
                    "name": "_blindedUserState",
                    "type": "uint256"
                },
                {
                    "internalType": "uint256",
                    "name": "_blindedHashChain",
                    "type": "uint256"
                },
                {
                    "internalType": "uint256",
                    "name": "_globalStateTree",
                    "type": "uint256"
                },
                {
                    "internalType": "uint256[8]",
                    "name": "_proof",
                    "type": "uint256[8]"
                }
            ],
            "name": "startUserStateTransition",
            "outputs": [],
            "stateMutability": "nonpayable",
            "type": "function"
        },
        {
            "inputs": [
                {
                    "components": [
                        {
                            "internalType": "uint256",
                            "name": "attesterId",
                            "type": "uint256"
                        },
                        {
                            "internalType": "uint256",
                            "name": "posRep",
                            "type": "uint256"
                        },
                        {
                            "internalType": "uint256",
                            "name": "negRep",
                            "type": "uint256"
                        },
                        {
                            "internalType": "uint256",
                            "name": "graffiti",
                            "type": "uint256"
                        },
                        {
                            "internalType": "uint256",
                            "name": "signUp",
                            "type": "uint256"
                        }
                    ],
                    "internalType": "struct DomainObjs.Attestation",
                    "name": "attestation",
                    "type": "tuple"
                },
                {
                    "internalType": "uint256",
                    "name": "epochKey",
                    "type": "uint256"
                },
                {
                    "internalType": "uint256",
                    "name": "_proofIndex",
                    "type": "uint256"
                }
            ],
            "name": "submitAttestation",
            "outputs": [],
            "stateMutability": "payable",
            "type": "function"
        },
        {
            "inputs": [
                {
                    "internalType": "address",
                    "name": "attester",
                    "type": "address"
                },
                {
                    "internalType": "bytes",
                    "name": "signature",
                    "type": "bytes"
                },
                {
                    "components": [
                        {
                            "internalType": "uint256",
                            "name": "attesterId",
                            "type": "uint256"
                        },
                        {
                            "internalType": "uint256",
                            "name": "posRep",
                            "type": "uint256"
                        },
                        {
                            "internalType": "uint256",
                            "name": "negRep",
                            "type": "uint256"
                        },
                        {
                            "internalType": "uint256",
                            "name": "graffiti",
                            "type": "uint256"
                        },
                        {
                            "internalType": "uint256",
                            "name": "signUp",
                            "type": "uint256"
                        }
                    ],
                    "internalType": "struct DomainObjs.Attestation",
                    "name": "attestation",
                    "type": "tuple"
                },
                {
                    "internalType": "uint256",
                    "name": "epochKey",
                    "type": "uint256"
                },
                {
                    "internalType": "uint256",
                    "name": "_proofIndex",
                    "type": "uint256"
                }
            ],
            "name": "submitAttestationViaRelayer",
            "outputs": [],
            "stateMutability": "payable",
            "type": "function"
        },
        {
            "inputs": [
                {
                    "components": [
                        {
                            "internalType": "uint256",
                            "name": "globalStateTree",
                            "type": "uint256"
                        },
                        {
                            "internalType": "uint256",
                            "name": "epoch",
                            "type": "uint256"
                        },
                        {
                            "internalType": "uint256",
                            "name": "epochKey",
                            "type": "uint256"
                        },
                        {
                            "internalType": "uint256[8]",
                            "name": "proof",
                            "type": "uint256[8]"
                        }
                    ],
                    "internalType": "struct UnirepParameters.EpochKeyProofRelated",
                    "name": "epochKeyProofData",
                    "type": "tuple"
                }
            ],
            "name": "submitEpochKeyProof",
            "outputs": [],
            "stateMutability": "nonpayable",
            "type": "function"
        },
        {
            "inputs": [],
            "name": "treeDepths",
            "outputs": [
                {
                    "internalType": "uint8",
                    "name": "globalStateTreeDepth",
                    "type": "uint8"
                },
                {
                    "internalType": "uint8",
                    "name": "userStateTreeDepth",
                    "type": "uint8"
                },
                {
                    "internalType": "uint8",
                    "name": "epochTreeDepth",
                    "type": "uint8"
                }
            ],
            "stateMutability": "view",
            "type": "function"
        },
        {
            "inputs": [
                {
                    "internalType": "uint256[8]",
                    "name": "_proof",
                    "type": "uint256[8]"
                }
            ],
            "name": "unpackProof",
            "outputs": [
                {
                    "internalType": "uint256[2]",
                    "name": "",
                    "type": "uint256[2]"
                },
                {
                    "internalType": "uint256[2][2]",
                    "name": "",
                    "type": "uint256[2][2]"
                },
                {
                    "internalType": "uint256[2]",
                    "name": "",
                    "type": "uint256[2]"
                }
            ],
            "stateMutability": "pure",
            "type": "function"
        },
        {
            "inputs": [
                {
                    "components": [
                        {
                            "internalType": "uint256",
                            "name": "newGlobalStateTreeLeaf",
                            "type": "uint256"
                        },
                        {
                            "internalType": "uint256[]",
                            "name": "epkNullifiers",
                            "type": "uint256[]"
                        },
                        {
                            "internalType": "uint256",
                            "name": "transitionFromEpoch",
                            "type": "uint256"
                        },
                        {
                            "internalType": "uint256[]",
                            "name": "blindedUserStates",
                            "type": "uint256[]"
                        },
                        {
                            "internalType": "uint256",
                            "name": "fromGlobalStateTree",
                            "type": "uint256"
                        },
                        {
                            "internalType": "uint256[]",
                            "name": "blindedHashChains",
                            "type": "uint256[]"
                        },
                        {
                            "internalType": "uint256",
                            "name": "fromEpochTree",
                            "type": "uint256"
                        },
                        {
                            "internalType": "uint256[8]",
                            "name": "proof",
                            "type": "uint256[8]"
                        }
                    ],
                    "internalType": "struct UnirepParameters.UserTransitionedRelated",
                    "name": "userTransitionedData",
                    "type": "tuple"
                },
                {
                    "internalType": "uint256[]",
                    "name": "proofIndexRecords",
                    "type": "uint256[]"
                }
            ],
            "name": "updateUserStateRoot",
            "outputs": [],
            "stateMutability": "nonpayable",
            "type": "function"
        },
        {
            "inputs": [
                {
                    "internalType": "uint256",
                    "name": "_identityCommitment",
                    "type": "uint256"
                }
            ],
            "name": "userSignUp",
            "outputs": [],
            "stateMutability": "nonpayable",
            "type": "function"
        },
        {
            "inputs": [
                {
                    "internalType": "uint256",
                    "name": "_globalStateTree",
                    "type": "uint256"
                },
                {
                    "internalType": "uint256",
                    "name": "_epoch",
                    "type": "uint256"
                },
                {
                    "internalType": "uint256",
                    "name": "_epochKey",
                    "type": "uint256"
                },
                {
                    "internalType": "uint256[8]",
                    "name": "_proof",
                    "type": "uint256[8]"
                }
            ],
            "name": "verifyEpochKeyValidity",
            "outputs": [
                {
                    "internalType": "bool",
                    "name": "",
                    "type": "bool"
                }
            ],
            "stateMutability": "view",
            "type": "function"
        },
        {
            "inputs": [
                {
                    "internalType": "uint256",
                    "name": "_outputBlindedUserState",
                    "type": "uint256"
                },
                {
                    "internalType": "uint256",
                    "name": "_outputBlindedHashChain",
                    "type": "uint256"
                },
                {
                    "internalType": "uint256",
                    "name": "_inputBlindedUserState",
                    "type": "uint256"
                },
                {
                    "internalType": "uint256[8]",
                    "name": "_proof",
                    "type": "uint256[8]"
                }
            ],
            "name": "verifyProcessAttestationProof",
            "outputs": [
                {
                    "internalType": "bool",
                    "name": "",
                    "type": "bool"
                }
            ],
            "stateMutability": "view",
            "type": "function"
        },
        {
            "inputs": [
                {
                    "internalType": "uint256[]",
                    "name": "_repNullifiers",
                    "type": "uint256[]"
                },
                {
                    "internalType": "uint256",
                    "name": "_epoch",
                    "type": "uint256"
                },
                {
                    "internalType": "uint256",
                    "name": "_epochKey",
                    "type": "uint256"
                },
                {
                    "internalType": "uint256",
                    "name": "_globalStateTree",
                    "type": "uint256"
                },
                {
                    "internalType": "uint256",
                    "name": "_attesterId",
                    "type": "uint256"
                },
                {
                    "internalType": "uint256",
                    "name": "_proveReputationAmount",
                    "type": "uint256"
                },
                {
                    "internalType": "uint256",
                    "name": "_minRep",
                    "type": "uint256"
                },
                {
                    "internalType": "uint256",
                    "name": "_proveGraffiti",
                    "type": "uint256"
                },
                {
                    "internalType": "uint256",
                    "name": "_graffitiPreImage",
                    "type": "uint256"
                },
                {
                    "internalType": "uint256[8]",
                    "name": "_proof",
                    "type": "uint256[8]"
                }
            ],
            "name": "verifyReputation",
            "outputs": [
                {
                    "internalType": "bool",
                    "name": "",
                    "type": "bool"
                }
            ],
            "stateMutability": "view",
            "type": "function"
        },
        {
            "inputs": [
                {
                    "internalType": "uint256",
                    "name": "_blindedUserState",
                    "type": "uint256"
                },
                {
                    "internalType": "uint256",
                    "name": "_blindedHashChain",
                    "type": "uint256"
                },
                {
                    "internalType": "uint256",
                    "name": "_GSTRoot",
                    "type": "uint256"
                },
                {
                    "internalType": "uint256[8]",
                    "name": "_proof",
                    "type": "uint256[8]"
                }
            ],
            "name": "verifyStartTransitionProof",
            "outputs": [
                {
                    "internalType": "bool",
                    "name": "",
                    "type": "bool"
                }
            ],
            "stateMutability": "view",
            "type": "function"
        },
        {
            "inputs": [
                {
                    "internalType": "uint256",
                    "name": "_epoch",
                    "type": "uint256"
                },
                {
                    "internalType": "uint256",
                    "name": "_epochKey",
                    "type": "uint256"
                },
                {
                    "internalType": "uint256",
                    "name": "_globalStateTree",
                    "type": "uint256"
                },
                {
                    "internalType": "uint256",
                    "name": "_attesterId",
                    "type": "uint256"
                },
                {
                    "internalType": "uint256[8]",
                    "name": "_proof",
                    "type": "uint256[8]"
                }
            ],
            "name": "verifyUserSignUp",
            "outputs": [
                {
                    "internalType": "bool",
                    "name": "",
                    "type": "bool"
                }
            ],
            "stateMutability": "view",
            "type": "function"
        },
        {
            "inputs": [
                {
                    "internalType": "uint256",
                    "name": "_newGlobalStateTreeLeaf",
                    "type": "uint256"
                },
                {
                    "internalType": "uint256[]",
                    "name": "_epkNullifiers",
                    "type": "uint256[]"
                },
                {
                    "internalType": "uint256",
                    "name": "_transitionFromEpoch",
                    "type": "uint256"
                },
                {
                    "internalType": "uint256[]",
                    "name": "_blindedUserStates",
                    "type": "uint256[]"
                },
                {
                    "internalType": "uint256",
                    "name": "_fromGlobalStateTree",
                    "type": "uint256"
                },
                {
                    "internalType": "uint256[]",
                    "name": "_blindedHashChains",
                    "type": "uint256[]"
                },
                {
                    "internalType": "uint256",
                    "name": "_fromEpochTree",
                    "type": "uint256"
                },
                {
                    "internalType": "uint256[8]",
                    "name": "_proof",
                    "type": "uint256[8]"
                }
            ],
            "name": "verifyUserStateTransition",
            "outputs": [
                {
                    "internalType": "bool",
                    "name": "",
                    "type": "bool"
                }
            ],
            "stateMutability": "view",
            "type": "function"
        }
    ],
    "bytecode": "0x6101606040527f30644e72e131a029b85045b68181585d2833e84879b9709143e1f593f00000016200003361018062000762565b6040516020818303038152906040528051906020012060001c62000058919062000a56565b60005560016007556000600a556001600b5560016011553480156200007c57600080fd5b5060405162005df938038062005df98339810160408190526200009f916200061f565b8b601360008201518160000160006101000a81548160ff021916908360ff16021790555060208201518160000160016101000a81548160ff021916908360ff16021790555060408201518160000160026101000a81548160ff021916908360ff16021790555090505089600160006101000a8154816001600160a01b0302191690836001600160a01b0316021790555088600260006101000a8154816001600160a01b0302191690836001600160a01b0316021790555087600360006101000a8154816001600160a01b0302191690836001600160a01b0316021790555086600460006101000a8154816001600160a01b0302191690836001600160a01b0316021790555085600560006101000a8154816001600160a01b0302191690836001600160a01b0316021790555084600660006101000a8154816001600160a01b0302191690836001600160a01b031602179055508360ff1660c08160ff1660f81b815250508260ff1660e08160ff1660f81b81525050816080818152505042600881905550600060018d6000015160026200023a919062000921565b62000246919062000a19565b9050808c600001511115620002785760405162461bcd60e51b81526004016200026f9062000823565b60405180910390fd5b8b516101005260208d01516000906001906200029690600262000921565b620002a2919062000a19565b9050808d602001511115620002cb5760405162461bcd60e51b81526004016200026f906200085a565b6020808e0151610120528e0151620002e3906200030e565b6009558d51620002f39062000390565b60a0525050610140525062000a8d9950505050505050505050565b60006200031a62000585565b60005b60058160ff1610156200036a576000828260ff16600581106200035057634e487b7160e01b600052603260045260246000fd5b602002015280620003618162000a33565b9150506200031d565b5060006200037882620003b4565b90506200038684826200044a565b925050505b919050565b604080518082019091526000808252600954602083015290816200037882620004d2565b604051630926f44b60e31b815260009073__$223301b175b06473d424a7afc957d4e96c$__90634937a25890620003f0908590600401620007a7565b60206040518083038186803b1580156200040957600080fd5b505af41580156200041e573d6000803e3d6000fd5b505050506040513d601f19601f8201168201806040525081019062000444919062000749565b92915050565b6000808360ff161180156200046457506101008360ff1611155b620004835760405162461bcd60e51b81526004016200026f90620007d1565b8160015b8460ff168160ff161015620004bd576000620004a48380620004e2565b9250819050620004b48162000a33565b91505062000487565b50620004ca8180620004e2565b949350505050565b8051602082015160009162000444915b6000620004ee620005a3565b838152602081018390526040516314d2f97b60e11b815273__$86e0c54df1042e28bf2dd20ccf184dc428$__906329a5f2f6906200053190849060040162000774565b60206040518083038186803b1580156200054a57600080fd5b505af41580156200055f573d6000803e3d6000fd5b505050506040513d601f19601f82011682018060405250810190620004ca919062000749565b6040518060a001604052806005906020820280368337509192915050565b60405180604001604052806002906020820280368337509192915050565b80516001600160a01b03811681146200038b57600080fd5b600060408284031215620005eb578081fd5b620005f760406200089c565b9050815181526020820151602082015292915050565b805160ff811681146200038b57600080fd5b6000806000806000806000806000806000808c8e036101e081121562000643578889fd5b606081121562000651578889fd5b506200065e60606200089c565b620006698e6200060d565b81526200067960208f016200060d565b60208201526200068c60408f016200060d565b60408201529b50620006a28e60608f01620005d9565b9a50620006b260a08e01620005c1565b9950620006c260c08e01620005c1565b9850620006d260e08e01620005c1565b9750620006e36101008e01620005c1565b9650620006f46101208e01620005c1565b9550620007056101408e01620005c1565b9450620007166101608e016200060d565b9350620007276101808e016200060d565b92506101a08d015191506101c08d015190509295989b509295989b509295989b565b6000602082840312156200075b578081fd5b5051919050565b650556e697265760d41b815260060190565b60408101818360005b60028110156200079e5781518352602092830192909101906001016200077d565b50505092915050565b60a08101818360005b60058110156200079e578151835260209283019290910190600101620007b0565b60208082526032908201527f436f6d70757465526f6f743a205f747265654c6576656c73206d757374206265604082015271103132ba3bb2b2b710181030b73210191a9b60711b606082015260800190565b6020808252601e908201527f556e697265703a20696e76616c6964206d617855736572732076616c75650000604082015260600190565b60208082526022908201527f556e697265703a20696e76616c6964206d61784174746573746572732076616c604082015261756560f01b606082015260800190565b6040518181016001600160401b0381118282101715620008cc57634e487b7160e01b600052604160045260246000fd5b604052919050565b80825b6001808611620008e8575062000918565b818704821115620008fd57620008fd62000a77565b808616156200090b57918102915b9490941c938002620008d7565b94509492505050565b60006200093560001960ff8516846200093c565b9392505050565b6000826200094d5750600162000935565b816200095c5750600062000935565b81600181146200097557600281146200098057620009b4565b600191505062000935565b60ff84111562000994576200099462000a77565b6001841b915084821115620009ad57620009ad62000a77565b5062000935565b5060208310610133831016604e8410600b8410161715620009ec575081810a83811115620009e657620009e662000a77565b62000935565b620009fb8484846001620008d4565b80860482111562000a105762000a1062000a77565b02949350505050565b60008282101562000a2e5762000a2e62000a77565b500390565b600060ff821660ff81141562000a4d5762000a4d62000a77565b60010192915050565b60008262000a7257634e487b7160e01b81526012600452602481fd5b500690565b634e487b7160e01b600052601160045260246000fd5b60805160a05160c05160f81c60e05160f81c61010051610120516101405161524062000bb960003960008181610a3701528181610c0e01528181611d0301528181611f6401526120a20152600081816119370152818161216c0152612ea70152600081816112c301526127f3015260008181610d5401528181610def01528181610e4101528181610e9a01528181610ef301528181610f4c01528181610fa501528181610ffe0152818161105701528181611d4701526126b40152600081816117230152818161178f0152818161253f0152818161283c015281816128f40152818161299e01528181612a1c01528181612a9f01528181612afd01528181612b5501528181612baf0152612c2a015260006123370152600081816119a101526126f501526152406000f3fe60806040526004361061034f5760003560e01c80639109d1eb116101c6578063b530dc8c116100f7578063e79e23e911610095578063f5ab0dd61161006f578063f5ab0dd6146108fb578063f73c8ebb1461092a578063fadd942d1461094a578063fc14478a1461095f5761034f565b8063e79e23e9146108a6578063e87101b1146108c6578063f20ca7ff146108db5761034f565b8063c6e01232116100d1578063c6e0123214610847578063d3aa645b1461085c578063de7238861461087c578063e1b0e802146108915761034f565b8063b530dc8c146107f2578063b876ed7114610812578063c2639673146108325761034f565b8063a3836b2011610164578063a7c264ca1161013e578063a7c264ca14610777578063a7ebaa7514610799578063ac98e5df146107ae578063ad944e47146107d25761034f565b8063a3836b2014610722578063a5500c3014610737578063a710d60f146107575761034f565b80639cfced97116101a05780639cfced97146106ad5780639e2e79dc146106cd578063a14a9fe2146106ed578063a27e572a1461070d5761034f565b80639109d1eb14610663578063918f0c161461067857806398588c1f1461068d5761034f565b8063494e2171116102a057806366c0f31f1161023e57806376671808116102185780637667180814610606578063839beeb81461061b57806383e168ad1461063057806385c053ae146106505761034f565b806366c0f31f146105b1578063705edd39146105d15780637341ead9146105e65761034f565b806357d775f81161027a57806357d775f8146105495780635b3745b51461055e5780635bb939951461057e578063606736fb1461059e5761034f565b8063494e2171146104f45780634edc9ace1461051457806356df4634146105345761034f565b80632b95f97e1161030d5780633acce985116102e75780633acce98514610474578063417b16e31461049457806343193437146104b4578063436b32d8146104d45761034f565b80632b95f97e146104215780632c6eb17f146104415780633334dc5b146104545761034f565b806292ad661461035457806305d9ab821461036957806307d833081461039f578063131a91ad146103b4578063132331f2146103d45780631c89e8e8146103f4575b600080fd5b61036761036236600461399e565b61097f565b005b34801561037557600080fd5b50610389610384366004613c21565b610ac7565b6040516103969190614410565b60405180910390f35b3480156103ab57600080fd5b50610389610b0e565b3480156103c057600080fd5b506103896103cf366004613934565b610b14565b3480156103e057600080fd5b506103896103ef366004613b68565b610b26565b34801561040057600080fd5b5061041461040f366004613b68565b610b38565b6040516103969190614405565b34801561042d57600080fd5b5061038961043c366004613b68565b610b4d565b61036761044f366004613d61565b610b74565b34801561046057600080fd5b5061041461046f366004613aa7565b610d27565b34801561048057600080fd5b5061038961048f366004613f8b565b61120c565b3480156104a057600080fd5b506103676104af366004613b68565b611292565b3480156104c057600080fd5b506103896104cf366004613d61565b61145d565b3480156104e057600080fd5b506104146104ef366004614021565b611488565b34801561050057600080fd5b5061036761050f366004613e54565b6116c2565b34801561052057600080fd5b5061038961052f36600461406b565b611894565b34801561054057600080fd5b50610367611908565b34801561055557600080fd5b5061038961199f565b34801561056a57600080fd5b50610414610579366004613fac565b6119c3565b34801561058a57600080fd5b50610389610599366004613f8b565b611bce565b6103676105ac366004613c8b565b611c69565b3480156105bd57600080fd5b506103676105cc366004613c21565b611e5c565b3480156105dd57600080fd5b50610389611f21565b3480156105f257600080fd5b50610389610601366004613dd5565b611f48565b34801561061257600080fd5b50610389611f5c565b34801561062757600080fd5b50610389611f62565b34801561063c57600080fd5b5061038961064b366004614094565b611f86565b61036761065e366004613b80565b612045565b34801561066f57600080fd5b50610389612128565b34801561068457600080fd5b5061038961212e565b34801561069957600080fd5b506103676106a836600461394e565b612134565b3480156106b957600080fd5b506103896106c8366004613a15565b612216565b3480156106d957600080fd5b506103896106e8366004613fec565b6122a0565b3480156106f957600080fd5b50610389610708366004613e22565b6122d9565b34801561071957600080fd5b50610367612313565b34801561072e57600080fd5b50610389612335565b34801561074357600080fd5b50610367610752366004613b68565b612359565b34801561076357600080fd5b50610414610772366004613fac565b612397565b34801561078357600080fd5b5061078c61253d565b6040516103969190615035565b3480156107a557600080fd5b50610367612561565b3480156107ba57600080fd5b506107c3612576565b60405161039693929190615043565b3480156107de57600080fd5b506103896107ed366004613c8b565b612592565b3480156107fe57600080fd5b5061038961080d366004613934565b6125d8565b34801561081e57600080fd5b5061036761082d366004613fac565b6125ea565b34801561083e57600080fd5b5061078c6126b2565b34801561085357600080fd5b506103896126d6565b34801561086857600080fd5b50610389610877366004613934565b6126dc565b34801561088857600080fd5b506103676126ee565b34801561089d57600080fd5b506103896127f1565b3480156108b257600080fd5b506103896108c1366004613fac565b612815565b3480156108d257600080fd5b5061038961282e565b3480156108e757600080fd5b506104146108f6366004613ecc565b612834565b34801561090757600080fd5b5061091b610916366004613a8b565b612d7c565b6040516103969392919061436d565b34801561093657600080fd5b50610367610945366004613fac565b612e05565b34801561095657600080fd5b50610389612ea5565b34801561096b57600080fd5b5061041461097a366004613fac565b612ec9565b6109bf8686868080601f01602080910402602001604051908101604052809392919081815260200183838082843760009201919091525061306f92505050565b6001600160a01b0386166000908152601060205260409020546109fd5760405162461bcd60e51b81526004016109f490614665565b60405180910390fd5b6001600160a01b038616600090815260106020526040902054833514610a355760405162461bcd60e51b81526004016109f490614c6b565b7f00000000000000000000000000000000000000000000000000000000000000003414610a745760405162461bcd60e51b81526004016109f490614734565b600b548110610a955760405162461bcd60e51b81526004016109f490614bc4565b600e54610aa290346130fc565b600e55610abf86610ab836869003860186613bb3565b848461310f565b505050505050565b60008160000151826020015183604001518460600151604051602001610af094939291906142df565b6040516020818303038152906040528051906020012090505b919050565b600e5481565b60106020526000908152604090205481565b600c6020526000908152604090205481565b600d6020526000908152604090205460ff1681565b6000610b576135ca565b828152600160608201819052610b6c82612216565b949350505050565b6000610b7f8261145d565b6000818152600c602052604090205490915015610bae5760405162461bcd60e51b81526004016109f4906144b4565b33600090815260106020526040902054610bda5760405162461bcd60e51b81526004016109f490614665565b60608201513360009081526010602052604090205414610c0c5760405162461bcd60e51b81526004016109f490614c6b565b7f00000000000000000000000000000000000000000000000000000000000000003414610c4b5760405162461bcd60e51b81526004016109f490614734565b600754825114610c6d5760405162461bcd60e51b81526004016109f49061457a565b600e54610c7a90346130fc565b600e55610c856135e8565b3360008181526010602090815260408083205485529282526012815290829020549083015260016080830152600b54905181907fb71278964a7bd2df69f6e08b0080e7d1fb1ecd8264eb401956a12ee68adb564690610ce5908790614edf565b60405180910390a2610cfd338386602001518461310f565b6000838152600c60205260408120829055600b805491610d1c83615139565b919050555050505050565b6040805160128082526102608201909252600091829190602082016102408036833701905050905060005b7f000000000000000000000000000000000000000000000000000000000000000060ff168160ff161015610dea578d8d8260ff16818110610da357634e487b7160e01b600052603260045260246000fd5b90506020020135828260ff1681518110610dcd57634e487b7160e01b600052603260045260246000fd5b602090810291909101015280610de281615154565b915050610d52565b508a817f000000000000000000000000000000000000000000000000000000000000000060ff1681518110610e2f57634e487b7160e01b600052603260045260246000fd5b60209081029190910101528981610e677f000000000000000000000000000000000000000000000000000000000000000060016150a1565b60ff1681518110610e8857634e487b7160e01b600052603260045260246000fd5b60209081029190910101528881610ec07f000000000000000000000000000000000000000000000000000000000000000060026150a1565b60ff1681518110610ee157634e487b7160e01b600052603260045260246000fd5b60209081029190910101528781610f197f000000000000000000000000000000000000000000000000000000000000000060036150a1565b60ff1681518110610f3a57634e487b7160e01b600052603260045260246000fd5b60209081029190910101528681610f727f000000000000000000000000000000000000000000000000000000000000000060046150a1565b60ff1681518110610f9357634e487b7160e01b600052603260045260246000fd5b60209081029190910101528581610fcb7f000000000000000000000000000000000000000000000000000000000000000060056150a1565b60ff1681518110610fec57634e487b7160e01b600052603260045260246000fd5b602090810291909101015284816110247f000000000000000000000000000000000000000000000000000000000000000060066150a1565b60ff168151811061104557634e487b7160e01b600052603260045260246000fd5b6020908102919091010152838161107d7f000000000000000000000000000000000000000000000000000000000000000060076150a1565b60ff168151811061109e57634e487b7160e01b600052603260045260246000fd5b60200260200101818152505060005b81518160ff161015611122576000805160206151cb833981519152828260ff16815181106110eb57634e487b7160e01b600052603260045260246000fd5b6020026020010151106111105760405162461bcd60e51b81526004016109f490614ca2565b8061111a81615154565b9150506110ad565b5061112b613617565b6040805161010081810190925261115a9186906008908390839080828437600092019190915250612d7c915050565b60408085018290526020850183905283855260055490516361971b8760e11b81526001600160a01b039091169363c32e370e936111a09391929091908890600401614396565b60206040518083038186803b1580156111b857600080fd5b505afa1580156111cc573d6000803e3d6000fd5b505050506040513d601f19601f820116820180604052508101906111f09190613b48565b151560609091018190529150509b9a5050505050505050505050565b60006112166135ca565b60005b60058160ff161015611261576000828260ff166005811061124a57634e487b7160e01b600052603260045260246000fd5b60200201528061125981615154565b915050611219565b50600061126d82612216565b60135490915061128790610100900460ff16868684611f86565b925050505b92915050565b6000818152600d602052604090205460ff16156112c15760405162461bcd60e51b81526004016109f490614b30565b7f0000000000000000000000000000000000000000000000000000000000000000600a54106113025760405162461bcd60e51b81526004016109f490614b76565b6009543360009081526010602090815260408083205460129092529091205481158015906113305750600081115b1561135057600061134082610b4d565b905061134c838261120c565b9350505b6040805180820190915284815260208101849052600061136f82611f48565b6000878152600d60205260408120805460ff19166001179055600a80549293509061139983615139565b91905055506007546000805160206151eb8339815191526040516113bc906148d0565b60405180910390a2600b547fbdcb306569af4b00571f0633c2439c458084e1beac220a28ea9678a2f01ca1e28786866040516113fa9392919061501f565b60405180910390a26007547f9d6db97120dc5c5f0a16903f507cbe1b12cb72d2c8d70511a607e36c407f357082600b54604051611438929190614fed565b60405180910390a2600b805490600061145083615139565b9190505550505050505050565b8051602080830151604080850151606086015160808701519251600096610af096909594910161430a565b60408051600480825260a082019092526000918291906020820160808036833701905050905086816000815181106114d057634e487b7160e01b600052603260045260246000fd5b60200260200101818152505085816001815181106114fe57634e487b7160e01b600052603260045260246000fd5b602002602001018181525050848160028151811061152c57634e487b7160e01b600052603260045260246000fd5b602002602001018181525050838160038151811061155a57634e487b7160e01b600052603260045260246000fd5b60200260200101818152505060005b81518160ff1610156115de576000805160206151cb833981519152828260ff16815181106115a757634e487b7160e01b600052603260045260246000fd5b6020026020010151106115cc5760405162461bcd60e51b81526004016109f490614ca2565b806115d681615154565b915050611569565b506115e7613617565b604080516101008181019092526116169186906008908390839080828437600092019190915250612d7c915050565b60408085018290526020850183905283855260065490516361971b8760e11b81526001600160a01b039091169363c32e370e9361165c9391929091908890600401614396565b60206040518083038186803b15801561167457600080fd5b505afa158015611688573d6000803e3d6000fd5b505050506040513d601f19601f820116820180604052508101906116ac9190613b48565b1515606090910181905291505095945050505050565b60006116cd836122d9565b6000818152600c6020526040902054909150156116fc5760405162461bcd60e51b81526004016109f4906144b4565b6007548360400151106117215760405162461bcd60e51b81526004016109f4906149a1565b7f000000000000000000000000000000000000000000000000000000000000000060ff16836020015151146117685760405162461bcd60e51b81526004016109f490614cff565b82606001515160021461178d5760405162461bcd60e51b81526004016109f4906145ce565b7f000000000000000000000000000000000000000000000000000000000000000060ff168360a0015151146117d45760405162461bcd60e51b81526004016109f490614a5f565b600b546007546040516000805160206151eb833981519152906117f6906148d0565b60405180910390a2807fa3d7129bf8db65e6f71041b8077847055075a4ea01972b05cd7a2794b812fd598585604051611830929190614f1c565b60405180910390a260075484516040517f9d6db97120dc5c5f0a16903f507cbe1b12cb72d2c8d70511a607e36c407f35709161186d918590614fed565b60405180910390a26000828152600c60205260408120829055600b805491610d1c83615139565b6000808360ff161180156118ad57506101008360ff1611155b6118c95760405162461bcd60e51b81526004016109f4906146e2565b8160015b8460ff168160ff1610156118fd5760006118e78384611bce565b92508190506118f581615154565b9150506118cd565b50610b6c8182611bce565b33600090815260106020526040902054156119355760405162461bcd60e51b81526004016109f49061446e565b7f0000000000000000000000000000000000000000000000000000000000000000601154106119765760405162461bcd60e51b81526004016109f490614a0d565b6011805433600090815260106020526040812082905590919061199883615139565b9190505550565b7f000000000000000000000000000000000000000000000000000000000000000081565b60408051600480825260a08201909252600091829190602082016080803683370190505090508581600081518110611a0b57634e487b7160e01b600052603260045260246000fd5b6020026020010181815250508481600181518110611a3957634e487b7160e01b600052603260045260246000fd5b6020026020010181815250508381600281518110611a6757634e487b7160e01b600052603260045260246000fd5b60200260200101818152505060005b81518160ff161015611aeb576000805160206151cb833981519152828260ff1681518110611ab457634e487b7160e01b600052603260045260246000fd5b602002602001015110611ad95760405162461bcd60e51b81526004016109f490614ca2565b80611ae381615154565b915050611a76565b50611af4613617565b60408051610100818101909252611b239186906008908390839080828437600092019190915250612d7c915050565b60408085018290526020850183905283855260025490516361971b8760e11b81526001600160a01b039091169363c32e370e93611b699391929091908890600401614396565b60206040518083038186803b158015611b8157600080fd5b505afa158015611b95573d6000803e3d6000fd5b505050506040513d601f19601f82011682018060405250810190611bb99190613b48565b15156060909101819052915050949350505050565b6000611bd8613651565b838152602081018390526040516314d2f97b60e11b815273__$86e0c54df1042e28bf2dd20ccf184dc428$__906329a5f2f690611c1990849060040161433c565b60206040518083038186803b158015611c3157600080fd5b505af4158015611c45573d6000803e3d6000fd5b505050506040513d601f19601f82011682018060405250810190610b6c9190613eb4565b6000611c7482612592565b6000818152600c602052604090205490915015611ca35760405162461bcd60e51b81526004016109f4906144b4565b33600090815260106020526040902054611ccf5760405162461bcd60e51b81526004016109f490614665565b60808201513360009081526010602052604090205414611d015760405162461bcd60e51b81526004016109f490614c6b565b7f00000000000000000000000000000000000000000000000000000000000000003414611d405760405162461bcd60e51b81526004016109f490614734565b81515160ff7f00000000000000000000000000000000000000000000000000000000000000001614611d845760405162461bcd60e51b81526004016109f4906148fc565b600754826020015114611da95760405162461bcd60e51b81526004016109f4906147a4565b60808201513360009081526010602052604090205414611ddb5760405162461bcd60e51b81526004016109f490614d47565b600e54611de890346130fc565b600e55611df36135e8565b336000908152601060205260409081902054825260a084015182820152600b54905181907f4e4847661de054ecb3b675d85b52c1efe6a9097020ad433f51256dc0eb4b224e90611e44908790614e52565b60405180910390a2610cfd338386604001518461310f565b6000611e6782610ac7565b6000818152600c602052604090205490915015611e965760405162461bcd60e51b81526004016109f4906144b4565b600754826020015114611ebb5760405162461bcd60e51b81526004016109f49061494b565b600b5460405181907f6bbb38e702dc19391dcbc5ba8d341c2b508170654cffac0c5e308136238c735490611ef0908690614e18565b60405180910390a26000828152600c60205260408120829055600b805491611f1783615139565b9190505550505050565b604080518082019091526000808252600954602083015290611f4281611f48565b91505090565b600061128c82600001518360200151611bce565b60075481565b7f000000000000000000000000000000000000000000000000000000000000000081565b6000808560ff16118015611f9f57506101008560ff1611155b611fbb5760405162461bcd60e51b81526004016109f4906146e2565b82828560015b611fcc8960016150a1565b60ff168160ff161015612038576000611fe58485611bce565b9050611ff2600284615174565b612007576120008585611bce565b9450612014565b6120118486611bce565b94505b9250826120226002846150c6565b925050808061203090615154565b915050611fc1565b5091979650505050505050565b336000908152601060205260409020546120715760405162461bcd60e51b81526004016109f490614665565b336000908152601060205260409020548335146120a05760405162461bcd60e51b81526004016109f490614c6b565b7f000000000000000000000000000000000000000000000000000000000000000034146120df5760405162461bcd60e51b81526004016109f490614734565b600b5481106121005760405162461bcd60e51b81526004016109f490614bc4565b600e5461210d90346130fc565b600e5561212333610ab836869003860186613bb3565b505050565b60115481565b600a5481565b6001600160a01b0383166000908152601060205260409020541561216a5760405162461bcd60e51b81526004016109f49061446e565b7f0000000000000000000000000000000000000000000000000000000000000000601154106121ab5760405162461bcd60e51b81526004016109f490614a0d565b6121eb8383838080601f01602080910402602001604051908101604052809392919081815260200183838082843760009201919091525061306f92505050565b601180546001600160a01b0385166000908152601060205260408120829055909190611f1783615139565b604051630926f44b60e31b815260009073__$223301b175b06473d424a7afc957d4e96c$__90634937a258906122509085906004016143dd565b60206040518083038186803b15801561226857600080fd5b505af415801561227c573d6000803e3d6000fd5b505050506040513d601f19601f8201168201806040525081019061128c9190613eb4565b6000848484846040516020016122b994939291906142df565b604051602081830303815290604052805190602001209050949350505050565b80516020808301516040808501516060860151608087015160a088015160c089015160e08a01519551600099610af099909897910161425b565b336000818152600f602052604081208054919055906123329082613246565b50565b7f000000000000000000000000000000000000000000000000000000000000000081565b336000908152601060205260409020546123855760405162461bcd60e51b81526004016109f490614665565b33600090815260126020526040902055565b60408051600480825260a082019092526000918291906020820160808036833701905050905085816000815181106123df57634e487b7160e01b600052603260045260246000fd5b602002602001018181525050848160018151811061240d57634e487b7160e01b600052603260045260246000fd5b602002602001018181525050838160028151811061243b57634e487b7160e01b600052603260045260246000fd5b60200260200101818152505060005b81518160ff1610156124bf576000805160206151cb833981519152828260ff168151811061248857634e487b7160e01b600052603260045260246000fd5b6020026020010151106124ad5760405162461bcd60e51b81526004016109f490614ca2565b806124b781615154565b91505061244a565b506124c8613617565b604080516101008181019092526124f79186906008908390839080828437600092019190915250612d7c915050565b60408085018290526020850183905283855260035490516361971b8760e11b81526001600160a01b039091169363c32e370e93611b699391929091908890600401614396565b7f000000000000000000000000000000000000000000000000000000000000000081565b600e8054600091829055906123329082613246565b60135460ff808216916101008104821691620100009091041683565b80516020808301516040808501516060860151608087015160a088015160c089015160e08a01516101008b01516101208c0151975160009b610af09b909a9991016141cc565b60126020526000908152604090205481565b60006126218585858560088060200260405190810160405280929190826008602002808284376000920191909152506122a0915050565b6000818152600c6020526040902054909150156126505760405162461bcd60e51b81526004016109f4906144b4565b6000600b5490508386827f803e193545a0bbe98aa31b4b343e2d224f05453a10cef7f58c6d2408512a5e3b888760405161268b929190614fd1565b60405180910390a46000828152600c60205260408120829055600b80549161145083615139565b7f000000000000000000000000000000000000000000000000000000000000000081565b60095481565b600f6020526000908152604090205481565b60005a90507f0000000000000000000000000000000000000000000000000000000000000000600854426127229190615122565b10156127405760405162461bcd60e51b81526004016109f4906146ab565b6007546000805160206151eb83398151915260405161275e90614780565b60405180910390a26007546040517f751bb1ba7b27b3979a32844d4d05aa16a46a771b751593704834a80311e3a9b990600090a242600855600780549060006127a683615139565b919050555060006127b85a83906132e2565b90506127dd6127c7823a6132ee565b336000908152600f6020526040902054906130fc565b336000908152600f60205260409020555050565b7f000000000000000000000000000000000000000000000000000000000000000081565b6000848484846040516020016122b994939291906142b3565b60085481565b6000806128627f000000000000000000000000000000000000000000000000000000000000000060026150f9565b61286d9060066150a1565b60ff166001600160401b0381111561289557634e487b7160e01b600052604160045260246000fd5b6040519080825280602002602001820160405280156128be578160200160208202803683370190505b5090508c816000815181106128e357634e487b7160e01b600052603260045260246000fd5b60200260200101818152505060005b7f000000000000000000000000000000000000000000000000000000000000000060ff168160ff161015612996578c8c8260ff1681811061294357634e487b7160e01b600052603260045260246000fd5b905060200201358282600161295891906150a1565b60ff168151811061297957634e487b7160e01b600052603260045260246000fd5b60209081029190910101528061298e81615154565b9150506128f2565b5089816129c47f000000000000000000000000000000000000000000000000000000000000000060016150a1565b60ff16815181106129e557634e487b7160e01b600052603260045260246000fd5b60200260200101818152505088886000818110612a1257634e487b7160e01b600052603260045260246000fd5b90506020020135817f00000000000000000000000000000000000000000000000000000000000000006002612a4791906150a1565b60ff1681518110612a6857634e487b7160e01b600052603260045260246000fd5b60200260200101818152505088886001818110612a9557634e487b7160e01b600052603260045260246000fd5b90506020020135817f00000000000000000000000000000000000000000000000000000000000000006003612aca91906150a1565b60ff1681518110612aeb57634e487b7160e01b600052603260045260246000fd5b60209081029190910101528681612b237f000000000000000000000000000000000000000000000000000000000000000060046150a1565b60ff1681518110612b4457634e487b7160e01b600052603260045260246000fd5b60200260200101818152505060005b7f000000000000000000000000000000000000000000000000000000000000000060ff168160ff161015612c225786868260ff16818110612ba457634e487b7160e01b600052603260045260246000fd5b9050602002013582827f00000000000000000000000000000000000000000000000000000000000000006005612bda91906150a1565b612be491906150a1565b60ff1681518110612c0557634e487b7160e01b600052603260045260246000fd5b602090810291909101015280612c1a81615154565b915050612b53565b508381612c507f000000000000000000000000000000000000000000000000000000000000000060026150f9565b612c5b9060056150a1565b60ff1681518110612c7c57634e487b7160e01b600052603260045260246000fd5b60200260200101818152505060005b81518160ff161015612d00576000805160206151cb833981519152828260ff1681518110612cc957634e487b7160e01b600052603260045260246000fd5b602002602001015110612cee5760405162461bcd60e51b81526004016109f490614ca2565b80612cf881615154565b915050612c8b565b50612d09613617565b60408051610100818101909252612d389186906008908390839080828437600092019190915250612d7c915050565b6040808501829052602085018390528385526004805491516361971b8760e11b81526001600160a01b039092169463c32e370e946111a09491939092899101614396565b612d84613651565b612d8c61366f565b612d94613651565b50506040805180820182528351815260208085015181830152825160808082018552868501518286019081526060808901519084015282528451808601865290870151815260a08701518184015281830152835180850190945260c0860151845260e0909501519083015293909150565b6000612e1385858585612815565b6000818152600c602052604090205490915015612e425760405162461bcd60e51b81526004016109f4906144b4565b6000600b54905083817ffe2e4029d257513b42218bbe50c55666829722b6f10335bfb0ba2d7cc792fa8c888887604051612e7e93929190614ffb565b60405180910390a36000828152600c60205260408120829055600b80549161145083615139565b7f000000000000000000000000000000000000000000000000000000000000000081565b60408051600380825260808201909252600091829190602082016060803683370190505090508581600081518110612f1157634e487b7160e01b600052603260045260246000fd5b6020026020010181815250508481600181518110612f3f57634e487b7160e01b600052603260045260246000fd5b6020026020010181815250508381600281518110612f6d57634e487b7160e01b600052603260045260246000fd5b60200260200101818152505060005b81518160ff161015612ff1576000805160206151cb833981519152828260ff1681518110612fba57634e487b7160e01b600052603260045260246000fd5b602002602001015110612fdf5760405162461bcd60e51b81526004016109f490614ca2565b80612fe981615154565b915050612f7c565b50612ffa613617565b604080516101008181019092526130299186906008908390839080828437600092019190915250612d7c915050565b60408085018290526020850183905283855260015490516361971b8760e11b81526001600160a01b039091169363c32e370e93611b699391929091908890600401614396565b600082306040516020016130849291906141a5565b604051602081830303815290604052805190602001206040516020016130aa9190614227565b604051602081830303815290604052805190602001209050826001600160a01b03166130d682846132fa565b6001600160a01b0316146121235760405162461bcd60e51b81526004016109f49061461b565b60006131088284615089565b9392505050565b6000805160206151cb8339815191528360200151106131405760405162461bcd60e51b81526004016109f490614aac565b6000805160206151cb8339815191528360400151106131715760405162461bcd60e51b81526004016109f490614c29565b6000805160206151cb8339815191528360600151106131a25760405162461bcd60e51b81526004016109f490614536565b8260800151600114806131b757506080830151155b6131d35760405162461bcd60e51b81526004016109f490614d9c565b6007546000805160206151eb8339815191526040516131f190614bfb565b60405180910390a2836001600160a01b0316826007547f6f842da370f6ba302f71b743e4e98494d7a025f1ceceeb9d604ea3e63d42e1708685604051613238929190614dde565b60405180910390a450505050565b804710156132665760405162461bcd60e51b81526004016109f490614899565b6000826001600160a01b03168260405161327f90614258565b60006040518083038185875af1925050503d80600081146132bc576040519150601f19603f3d011682016040523d82523d6000602084013e6132c1565b606091505b50509050806121235760405162461bcd60e51b81526004016109f4906147fa565b60006131088284615122565b600061310882846150da565b6000806000613309858561331e565b915091506133168161338e565b509392505050565b6000808251604114156133555760208301516040840151606085015160001a613349878285856134bb565b94509450505050613387565b82516040141561337f576020830151604084015161337486838361359b565b935093505050613387565b506000905060025b9250929050565b60008160048111156133b057634e487b7160e01b600052602160045260246000fd5b14156133bb57612332565b60018160048111156133dd57634e487b7160e01b600052602160045260246000fd5b14156133fb5760405162461bcd60e51b81526004016109f490614437565b600281600481111561341d57634e487b7160e01b600052602160045260246000fd5b141561343b5760405162461bcd60e51b81526004016109f4906144ff565b600381600481111561345d57634e487b7160e01b600052602160045260246000fd5b141561347b5760405162461bcd60e51b81526004016109f490614857565b600481600481111561349d57634e487b7160e01b600052602160045260246000fd5b14156123325760405162461bcd60e51b81526004016109f490614aee565b6000807f7fffffffffffffffffffffffffffffff5d576e7357a4501ddfe92f46681b20a08311156134f25750600090506003613592565b8460ff16601b1415801561350a57508460ff16601c14155b1561351b5750600090506004613592565b6000600187878787604051600081526020016040526040516135409493929190614419565b6020604051602081039080840390855afa158015613562573d6000803e3d6000fd5b5050604051601f1901519150506001600160a01b03811661358b57600060019250925050613592565b9150600090505b94509492505050565b6000806001600160ff1b03831660ff84901c601b016135bc878288856134bb565b935093505050935093915050565b6040518060a001604052806005906020820280368337509192915050565b6040518060a0016040528060008152602001600081526020016000815260200160008152602001600081525090565b604051806080016040528061362a613651565b815260200161363761366f565b8152602001613644613651565b8152600060209091015290565b60405180604001604052806002906020820280368337509192915050565b60405180604001604052806002905b613686613651565b81526020019060019003908161367e5790505090565b80356001600160a01b0381168114610b0957600080fd5b80610100810183101561128c57600080fd5b600082601f8301126136d5578081fd5b6040516101008082018281106001600160401b03821117156136f9576136f96151b4565b604052818482810187101561370c578485fd5b8492505b600883101561373057803582526001929092019160209182019101613710565b509195945050505050565b60008083601f84011261374c578182fd5b5081356001600160401b03811115613762578182fd5b602083019150836020808302850101111561338757600080fd5b600082601f83011261378c578081fd5b813560206001600160401b038211156137a7576137a76151b4565b8082026137b5828201615060565b8381528281019086840183880185018910156137cf578687fd5b8693505b858410156137f15780358352600193909301929184019184016137d3565b50979650505050505050565b60008083601f84011261380e578182fd5b5081356001600160401b03811115613824578182fd5b60208301915083602082850101111561338757600080fd5b600060a0828403121561384d578081fd5b50919050565b60006101e08284031215613865578081fd5b613870610100615060565b90508135815260208201356001600160401b038082111561389057600080fd5b61389c8583860161377c565b60208401526040840135604084015260608401359150808211156138bf57600080fd5b6138cb8583860161377c565b60608401526080840135608084015260a08401359150808211156138ee57600080fd5b506138fb8482850161377c565b60a08301525060c082013560c08201526139188360e084016136c5565b60e082015292915050565b803560ff81168114610b0957600080fd5b600060208284031215613945578081fd5b6131088261369c565b600080600060408486031215613962578182fd5b61396b8461369c565b925060208401356001600160401b03811115613985578283fd5b613991868287016137fd565b9497909650939450505050565b60008060008060008061012087890312156139b7578384fd5b6139c08761369c565b955060208701356001600160401b038111156139da578485fd5b6139e689828a016137fd565b90965094506139fa9050886040890161383c565b925060e0870135915061010087013590509295509295509295565b600060a08284031215613a26578081fd5b82601f830112613a34578081fd5b60405160a081018181106001600160401b0382111715613a5657613a566151b4565b604052808360a08101861015613a6a578384fd5b835b6005811015613730578135835260209283019290910190600101613a6c565b60006101008284031215613a9d578081fd5b61310883836136c5565b60008060008060008060008060008060006102208c8e031215613ac8578889fd5b8b356001600160401b03811115613add57898afd5b613ae98e828f0161373b565b909c509a505060208c0135985060408c0135975060608c0135965060808c0135955060a08c0135945060c08c0135935060e08c013592506101008c01359150613b368d6101208e016136b3565b90509295989b509295989b9093969950565b600060208284031215613b59578081fd5b81518015158114613108578182fd5b600060208284031215613b79578081fd5b5035919050565b600080600060e08486031215613b94578081fd5b613b9e858561383c565b9560a0850135955060c0909401359392505050565b600060a08284031215613bc4578081fd5b60405160a081018181106001600160401b0382111715613be657613be66151b4565b806040525082358152602083013560208201526040830135604082015260608301356060820152608083013560808201528091505092915050565b60006101608284031215613c33578081fd5b604051608081018181106001600160401b0382111715613c5557613c556151b4565b8060405250823581526020830135602082015260408301356040820152613c7f84606085016136c5565b60608201529392505050565b600060208284031215613c9c578081fd5b81356001600160401b0380821115613cb2578283fd5b908301906102208286031215613cc6578283fd5b613cd1610140615060565b823582811115613cdf578485fd5b613ceb8782860161377c565b8252506020830135602082015260408301356040820152606083013560608201526080830135608082015260a083013560a082015260c083013560c082015260e083013560e0820152610100915081830135828201526101209150613d52868385016136c5565b91810191909152949350505050565b60006101808284031215613d73578081fd5b60405160a081018181106001600160401b0382111715613d9557613d956151b4565b806040525082358152602083013560208201526040830135604082015260608301356060820152613dc984608085016136c5565b60808201529392505050565b600060408284031215613de6578081fd5b604051604081018181106001600160401b0382111715613e0857613e086151b4565b604052823581526020928301359281019290925250919050565b600060208284031215613e33578081fd5b81356001600160401b03811115613e48578182fd5b610b6c84828501613853565b60008060408385031215613e66578182fd5b82356001600160401b0380821115613e7c578384fd5b613e8886838701613853565b93506020850135915080821115613e9d578283fd5b50613eaa8582860161377c565b9150509250929050565b600060208284031215613ec5578081fd5b5051919050565b60008060008060008060008060008060006101e08c8e031215613eed578485fd5b8b359a506001600160401b038060208e01351115613f09578586fd5b613f198e60208f01358f0161373b565b909b50995060408d0135985060608d0135811015613f35578586fd5b613f458e60608f01358f0161373b565b909850965060808d0135955060a08d0135811015613f61578485fd5b50613f728d60a08e01358e0161373b565b909450925060c08c01359150613b368d60e08e016136b3565b60008060408385031215613f9d578182fd5b50508035926020909101359150565b6000806000806101608587031215613fc2578182fd5b843593506020850135925060408501359150613fe186606087016136b3565b905092959194509250565b6000806000806101608587031215614002578182fd5b843593506020850135925060408501359150613fe186606087016136c5565b60008060008060006101808688031215614039578283fd5b8535945060208601359350604086013592506060860135915061405f87608088016136b3565b90509295509295909350565b6000806040838503121561407d578182fd5b61408683613923565b946020939093013593505050565b600080600080608085870312156140a9578182fd5b6140b285613923565b966020860135965060408601359560600135945092505050565b8060005b60028110156140fa576140e4848351614100565b60409390930192602091909101906001016140d0565b50505050565b8060005b60028110156140fa578151845260209384019390910190600101614104565b8060005b60088110156140fa578151845260209384019390910190600101614127565b6000815180845260208085019450808401835b8381101561417557815187529582019590820190600101614159565b509495945050505050565b8051600090602080840183831561417557815187529582019590820190600101614159565b6bffffffffffffffffffffffff19606093841b811682529190921b16601482015260280190565b60006141d8828d614180565b8b81528a60208201528960408201528860608201528760808201528660a08201528560c08201528460e0820152614213610100820185614123565b610200019c9b505050505050505050505050565b7f19457468657265756d205369676e6564204d6573736167653a0a3332000000008152601c810191909152603c0190565b90565b600089825261426d602083018a614180565b88815261427d6020820189614180565b905086815261428f6020820187614180565b90508481526142a16020820185614123565b610120019a9950505050505050505050565b600085825284602083015283604083015261010083606084013761016091909101908152949350505050565b60008582528460208301528360408301526142fd6060830184614123565b5061016001949350505050565b600086825285602083015284604083015283606083015261432e6080830184614123565b506101800195945050505050565b60408101818360005b6002811015614364578151835260209283019290910190600101614345565b50505092915050565b610100810161437c8286614100565b61438960408301856140cc565b610b6c60c0830184614100565b60006101206143a58388614100565b6143b260408401876140cc565b6143bf60c0840186614100565b806101008401526143d281840185614146565b979650505050505050565b60a08101818360005b60058110156143645781518352602092830192909101906001016143e6565b901515815260200190565b90815260200190565b93845260ff9290921660208401526040830152606082015260800190565b60208082526018908201527f45434453413a20696e76616c6964207369676e61747572650000000000000000604082015260600190565b60208082526026908201527f556e697265703a2061747465737465722068617320616c72656164792073696760408201526506e65642075760d41b606082015260800190565b6020808252602b908201527f556e697265703a207468652070726f6f6620686173206265656e207375626d6960408201526a74746564206265666f726560a81b606082015260800190565b6020808252601f908201527f45434453413a20696e76616c6964207369676e6174757265206c656e67746800604082015260600190565b60208082526024908201527f556e697265703a20696e76616c6964206174746573746174696f6e20677261666040820152636669746960e01b606082015260800190565b60208082526034908201527f556e697265703a207375626d697420616e2061697264726f702070726f6f66206040820152730eed2e8d040d2dcc6dee4e4cac6e840cae0dec6d60631b606082015260800190565b6020808252602d908201527f556e697265703a20696e76616c6964206e756d626572206f6620626c696e646560408201526c6420757365722073746174657360981b606082015260800190565b6020808252602a908201527f556e697265703a20696e76616c6964206174746573746572207369676e207570604082015269207369676e617475726560b01b606082015260800190565b60208082526026908201527f556e697265703a20617474657374657220686173206e6f74207369676e6564206040820152651d5c081e595d60d21b606082015260800190565b6020808252601b908201527f556e697265703a2065706f6368206e6f742079657420656e6465640000000000604082015260600190565b60208082526032908201527f436f6d70757465526f6f743a205f747265654c6576656c73206d757374206265604082015271103132ba3bb2b2b710181030b73210191a9b60711b606082015260800190565b6020808252602c908201527f556e697265703a206e6f20617474657374696e6720666565206f7220696e636f60408201526b1c9c9958dd08185b5bdd5b9d60a21b606082015260800190565b6020808252600a9082015269115c1bd8da115b99195960b21b604082015260600190565b60208082526036908201527f556e697265703a207375626d697420612072657075746174696f6e2070726f6f6040820152750cc40eed2e8d040d2dcc6dee4e4cac6e840cae0dec6d60531b606082015260800190565b6020808252603a908201527f416464726573733a20756e61626c6520746f2073656e642076616c75652c207260408201527f6563697069656e74206d61792068617665207265766572746564000000000000606082015260800190565b60208082526022908201527f45434453413a20696e76616c6964207369676e6174757265202773272076616c604082015261756560f01b606082015260800190565b6020808252601d908201527f416464726573733a20696e73756666696369656e742062616c616e6365000000604082015260600190565b60208082526012908201527113995dd1d4d513195859925b9cd95c9d195960721b604082015260600190565b6020808252602f908201527f556e697265703a20696e76616c6964206e756d626572206f662072657075746160408201526e74696f6e206e756c6c69666965727360881b606082015260800190565b60208082526036908201527f556e697265703a207375626d697420616e2065706f6368206b65792070726f6f6040820152750cc40eed2e8d040d2dcc6dee4e4cac6e840cae0dec6d60531b606082015260800190565b60208082526046908201527f43616e206e6f74207472616e736974696f6e2066726f6d2065706f636820746860408201527f617427732067726561746572206f7220657175616c20746f2063757272656e74606082015265040cae0dec6d60d31b608082015260a00190565b60208082526032908201527f556e697265703a206d6178696d756d206e756d626572206f6620617474657374604082015271195c881cda59db9d5c1cc81c995858da195960721b606082015260800190565b6020808252602d908201527f556e697265703a20696e76616c6964206e756d626572206f6620626c696e646560408201526c64206861736820636861696e7360981b606082015260800190565b60208082526022908201527f556e697265703a20696e76616c6964206174746573746174696f6e20706f7352604082015261065760f41b606082015260800190565b60208082526022908201527f45434453413a20696e76616c6964207369676e6174757265202776272076616c604082015261756560f01b606082015260800190565b60208082526026908201527f556e697265703a2074686520757365722068617320616c72656164792073696760408201526506e65642075760d41b606082015260800190565b6020808252602e908201527f556e697265703a206d6178696d756d206e756d626572206f662075736572207360408201526d1a59db9d5c1cc81c995858da195960921b606082015260800190565b6020808252601b908201527f556e697265703a20696e76616c69642070726f6f6620696e6465780000000000604082015260600190565b602080825260149082015273105d1d195cdd185d1a5bdb94dd589b5a5d1d195960621b604082015260600190565b60208082526022908201527f556e697265703a20696e76616c6964206174746573746174696f6e206e656752604082015261065760f41b606082015260800190565b6020808252601d908201527f556e697265703a206d69736d6174636865642061747465737465724964000000604082015260600190565b6020808252603c908201527f556e697265703a2065616368207075626c6963207369676e616c206d7573742060408201527f6265206c742074686520736e61726b207363616c6172206669656c6400000000606082015260800190565b60208082526028908201527f556e697265703a20696e76616c6964206e756d626572206f662065706b206e756040820152676c6c69666965727360c01b606082015260800190565b60208082526035908201527f556e697265703a20696e636f727265637420617474657374657220494420696e604082015274103a3432903932b83aba30ba34b7b710383937b7b360591b606082015260800190565b60208082526022908201527f556e697265703a20696e76616c6964206174746573746174696f6e207369676e604082015261055760f41b606082015260800190565b825181526020808401519082015260408084015190820152606080840151908201526080928301519281019290925260a082015260c00190565b6000610160820190508251825260208301516020830152604083015160408301526060830151614e4b6060840182614123565b5092915050565b60006020825282516102206020840152614e70610240840182614146565b9050602084015160408401526040840151606084015260608401516080840152608084015160a084015260a084015160c084015260c084015160e084015260e0840151610100818186015280860151915050610120818186015280860151915050613316610140850182614123565b600061018082019050825182526020830151602083015260408301516040830152606083015160608301526080830151614e4b6080840182614123565b6000604082528351604083015260208401516101e06060840152614f44610220840182614146565b9050604085015160808401526060850151603f19808584030160a0860152614f6c8383614146565b9250608087015160c086015260a08701519150808584030160e086015250614f948282614146565b91505060c085015161010084015260e0850151614fb5610120850182614123565b508281036020840152614fc88185614146565b95945050505050565b8281526101208101610100836020840137600081529392505050565b918252602082015260400190565b83815260208101839052610140810161010083604084013760008152949350505050565b9283526020830191909152604082015260600190565b60ff91909116815260200190565b60ff93841681529183166020830152909116604082015260600190565b6040518181016001600160401b0381118282101715615081576150816151b4565b604052919050565b6000821982111561509c5761509c615188565b500190565b600060ff821660ff84168060ff038211156150be576150be615188565b019392505050565b6000826150d5576150d561519e565b500490565b60008160001904831182151516156150f4576150f4615188565b500290565b600060ff821660ff84168160ff048111821515161561511a5761511a615188565b029392505050565b60008282101561513457615134615188565b500390565b600060001982141561514d5761514d615188565b5060010190565b600060ff821660ff81141561516b5761516b615188565b60010192915050565b6000826151835761518361519e565b500690565b634e487b7160e01b600052601160045260246000fd5b634e487b7160e01b600052601260045260246000fd5b634e487b7160e01b600052604160045260246000fdfe30644e72e131a029b85045b68181585d2833e84879b9709143e1f593f0000001d520dc8edfe278d8221eb9bc1010dbafcff0b692cd5b1a0f7333dc9f228ca660a2646970667358221220baa9ebd57bcbc794b913b7bd2bb100b661dd145c2143f3644d6164f2fe3d1d9064736f6c63430008000033",
    "linkReferences": {
        "contracts/Poseidon.sol": {
            "PoseidonT3": [
                {
                    "length": 20,
                    "start": 1287
                },
                {
                    "length": 20,
                    "start": 10154
                }
            ],
            "PoseidonT6": [
                {
                    "length": 20,
                    "start": 966
                },
                {
                    "length": 20,
                    "start": 11745
                }
            ]
        }
    },
    "deployedLinkReferences": {
        "contracts/Poseidon.sol": {
            "PoseidonT3": [
                {
                    "length": 20,
                    "start": 7153
                }
            ],
            "PoseidonT6": [
                {
                    "length": 20,
                    "start": 8744
                }
            ]
        }
    }
}