{
    "_format": "hh-sol-artifact-1",
    "contractName": "Unirep",
    "sourceName": "contracts/Unirep.sol",
    "abi": [
        {
            "inputs": [
                {
                    "components": [
                        {
                            "internalType": "uint8",
                            "name": "globalStateTreeDepth",
                            "type": "uint8"
                        },
                        {
                            "internalType": "uint8",
                            "name": "userStateTreeDepth",
                            "type": "uint8"
                        },
                        {
                            "internalType": "uint8",
                            "name": "epochTreeDepth",
                            "type": "uint8"
                        }
                    ],
                    "internalType": "struct UnirepObjs.TreeDepths",
                    "name": "_treeDepths",
                    "type": "tuple"
                },
                {
                    "components": [
                        {
                            "internalType": "uint256",
                            "name": "maxUsers",
                            "type": "uint256"
                        },
                        {
                            "internalType": "uint256",
                            "name": "maxAttesters",
                            "type": "uint256"
                        }
                    ],
                    "internalType": "struct UnirepObjs.MaxValues",
                    "name": "_maxValues",
                    "type": "tuple"
                },
                {
                    "internalType": "contract EpochKeyValidityVerifier",
                    "name": "_epkValidityVerifier",
                    "type": "address"
                },
                {
                    "internalType": "contract StartTransitionVerifier",
                    "name": "_startTransitionVerifier",
                    "type": "address"
                },
                {
                    "internalType": "contract ProcessAttestationsVerifier",
                    "name": "_processAttestationsVerifier",
                    "type": "address"
                },
                {
                    "internalType": "contract UserStateTransitionVerifier",
                    "name": "_userStateTransitionVerifier",
                    "type": "address"
                },
                {
                    "internalType": "contract ReputationVerifier",
                    "name": "_reputationVerifier",
                    "type": "address"
                },
                {
                    "internalType": "contract UserSignUpVerifier",
                    "name": "_userSignUpVerifier",
                    "type": "address"
                },
                {
                    "internalType": "uint8",
                    "name": "_numEpochKeyNoncePerEpoch",
                    "type": "uint8"
                },
                {
                    "internalType": "uint8",
                    "name": "_maxReputationBudget",
                    "type": "uint8"
                },
                {
                    "internalType": "uint256",
                    "name": "_epochLength",
                    "type": "uint256"
                },
                {
                    "internalType": "uint256",
                    "name": "_attestingFee",
                    "type": "uint256"
                }
            ],
            "stateMutability": "nonpayable",
            "type": "constructor"
        },
        {
            "anonymous": false,
            "inputs": [
                {
                    "indexed": true,
                    "internalType": "uint256",
                    "name": "_epoch",
                    "type": "uint256"
                },
                {
                    "indexed": true,
                    "internalType": "uint256",
                    "name": "_epochKey",
                    "type": "uint256"
                },
                {
                    "indexed": true,
                    "internalType": "address",
                    "name": "_attester",
                    "type": "address"
                },
                {
                    "indexed": false,
                    "internalType": "enum Unirep.AttestationEvent",
                    "name": "_event",
                    "type": "uint8"
                },
                {
                    "components": [
                        {
                            "internalType": "uint256",
                            "name": "attesterId",
                            "type": "uint256"
                        },
                        {
                            "internalType": "uint256",
                            "name": "posRep",
                            "type": "uint256"
                        },
                        {
                            "internalType": "uint256",
                            "name": "negRep",
                            "type": "uint256"
                        },
                        {
                            "internalType": "uint256",
                            "name": "graffiti",
                            "type": "uint256"
                        },
                        {
                            "internalType": "uint256",
                            "name": "signUp",
                            "type": "uint256"
                        }
                    ],
                    "indexed": false,
                    "internalType": "struct UnirepObjs.Attestation",
                    "name": "_attestation",
                    "type": "tuple"
                },
                {
                    "indexed": false,
                    "internalType": "uint256",
                    "name": "_proofIndex",
                    "type": "uint256"
                }
            ],
            "name": "AttestationSubmitted",
            "type": "event"
        },
        {
            "anonymous": false,
            "inputs": [
                {
                    "indexed": true,
                    "internalType": "uint256",
                    "name": "_epoch",
                    "type": "uint256"
                }
            ],
            "name": "EpochEnded",
            "type": "event"
        },
        {
            "anonymous": false,
            "inputs": [
                {
                    "indexed": true,
                    "internalType": "uint256",
                    "name": "_proofIndex",
                    "type": "uint256"
                },
                {
                    "indexed": true,
                    "internalType": "uint256",
                    "name": "_epoch",
                    "type": "uint256"
                },
                {
                    "indexed": true,
                    "internalType": "uint256",
                    "name": "_epochKey",
                    "type": "uint256"
                },
                {
                    "components": [
                        {
                            "internalType": "uint256",
                            "name": "globalStateTree",
                            "type": "uint256"
                        },
                        {
                            "internalType": "uint256",
                            "name": "epoch",
                            "type": "uint256"
                        },
                        {
                            "internalType": "uint256",
                            "name": "epochKey",
                            "type": "uint256"
                        },
                        {
                            "internalType": "uint256[8]",
                            "name": "proof",
                            "type": "uint256[8]"
                        }
                    ],
                    "indexed": false,
                    "internalType": "struct UnirepObjs.EpochKeyProof",
                    "name": "_proof",
                    "type": "tuple"
                }
            ],
            "name": "IndexedEpochKeyProof",
            "type": "event"
        },
        {
            "anonymous": false,
            "inputs": [
                {
                    "indexed": true,
                    "internalType": "uint256",
                    "name": "_proofIndex",
                    "type": "uint256"
                },
                {
                    "indexed": true,
                    "internalType": "uint256",
                    "name": "_inputBlindedUserState",
                    "type": "uint256"
                },
                {
                    "indexed": false,
                    "internalType": "uint256",
                    "name": "_outputBlindedUserState",
                    "type": "uint256"
                },
                {
                    "indexed": false,
                    "internalType": "uint256",
                    "name": "_outputBlindedHashChain",
                    "type": "uint256"
                },
                {
                    "indexed": false,
                    "internalType": "uint256[8]",
                    "name": "_proof",
                    "type": "uint256[8]"
                }
            ],
            "name": "IndexedProcessedAttestationsProof",
            "type": "event"
        },
        {
            "anonymous": false,
            "inputs": [
                {
                    "indexed": true,
                    "internalType": "uint256",
                    "name": "_proofIndex",
                    "type": "uint256"
                },
                {
                    "indexed": true,
                    "internalType": "uint256",
                    "name": "_epoch",
                    "type": "uint256"
                },
                {
                    "indexed": true,
                    "internalType": "uint256",
                    "name": "_epochKey",
                    "type": "uint256"
                },
                {
                    "components": [
                        {
                            "internalType": "uint256[]",
                            "name": "repNullifiers",
                            "type": "uint256[]"
                        },
                        {
                            "internalType": "uint256",
                            "name": "epoch",
                            "type": "uint256"
                        },
                        {
                            "internalType": "uint256",
                            "name": "epochKey",
                            "type": "uint256"
                        },
                        {
                            "internalType": "uint256",
                            "name": "globalStateTree",
                            "type": "uint256"
                        },
                        {
                            "internalType": "uint256",
                            "name": "attesterId",
                            "type": "uint256"
                        },
                        {
                            "internalType": "uint256",
                            "name": "proveReputationAmount",
                            "type": "uint256"
                        },
                        {
                            "internalType": "uint256",
                            "name": "minRep",
                            "type": "uint256"
                        },
                        {
                            "internalType": "uint256",
                            "name": "proveGraffiti",
                            "type": "uint256"
                        },
                        {
                            "internalType": "uint256",
                            "name": "graffitiPreImage",
                            "type": "uint256"
                        },
                        {
                            "internalType": "uint256[8]",
                            "name": "proof",
                            "type": "uint256[8]"
                        }
                    ],
                    "indexed": false,
                    "internalType": "struct UnirepObjs.ReputationProof",
                    "name": "_proof",
                    "type": "tuple"
                }
            ],
            "name": "IndexedReputationProof",
            "type": "event"
        },
        {
            "anonymous": false,
            "inputs": [
                {
                    "indexed": true,
                    "internalType": "uint256",
                    "name": "_proofIndex",
                    "type": "uint256"
                },
                {
                    "indexed": true,
                    "internalType": "uint256",
                    "name": "_blindedUserState",
                    "type": "uint256"
                },
                {
                    "indexed": true,
                    "internalType": "uint256",
                    "name": "_globalStateTree",
                    "type": "uint256"
                },
                {
                    "indexed": false,
                    "internalType": "uint256",
                    "name": "_blindedHashChain",
                    "type": "uint256"
                },
                {
                    "indexed": false,
                    "internalType": "uint256[8]",
                    "name": "_proof",
                    "type": "uint256[8]"
                }
            ],
            "name": "IndexedStartedTransitionProof",
            "type": "event"
        },
        {
            "anonymous": false,
            "inputs": [
                {
                    "indexed": true,
                    "internalType": "uint256",
                    "name": "_proofIndex",
                    "type": "uint256"
                },
                {
                    "indexed": true,
                    "internalType": "uint256",
                    "name": "_epoch",
                    "type": "uint256"
                },
                {
                    "indexed": true,
                    "internalType": "uint256",
                    "name": "_epochKey",
                    "type": "uint256"
                },
                {
                    "components": [
                        {
                            "internalType": "uint256",
                            "name": "epoch",
                            "type": "uint256"
                        },
                        {
                            "internalType": "uint256",
                            "name": "epochKey",
                            "type": "uint256"
                        },
                        {
                            "internalType": "uint256",
                            "name": "globalStateTree",
                            "type": "uint256"
                        },
                        {
                            "internalType": "uint256",
                            "name": "attesterId",
                            "type": "uint256"
                        },
                        {
                            "internalType": "uint256",
                            "name": "userHasSignedUp",
                            "type": "uint256"
                        },
                        {
                            "internalType": "uint256[8]",
                            "name": "proof",
                            "type": "uint256[8]"
                        }
                    ],
                    "indexed": false,
                    "internalType": "struct UnirepObjs.SignUpProof",
                    "name": "_proof",
                    "type": "tuple"
                }
            ],
            "name": "IndexedUserSignedUpProof",
            "type": "event"
        },
        {
            "anonymous": false,
            "inputs": [
                {
                    "indexed": true,
                    "internalType": "uint256",
                    "name": "_proofIndex",
                    "type": "uint256"
                },
                {
                    "components": [
                        {
                            "internalType": "uint256",
                            "name": "newGlobalStateTreeLeaf",
                            "type": "uint256"
                        },
                        {
                            "internalType": "uint256[]",
                            "name": "epkNullifiers",
                            "type": "uint256[]"
                        },
                        {
                            "internalType": "uint256",
                            "name": "transitionFromEpoch",
                            "type": "uint256"
                        },
                        {
                            "internalType": "uint256[]",
                            "name": "blindedUserStates",
                            "type": "uint256[]"
                        },
                        {
                            "internalType": "uint256",
                            "name": "fromGlobalStateTree",
                            "type": "uint256"
                        },
                        {
                            "internalType": "uint256[]",
                            "name": "blindedHashChains",
                            "type": "uint256[]"
                        },
                        {
                            "internalType": "uint256",
                            "name": "fromEpochTree",
                            "type": "uint256"
                        },
                        {
                            "internalType": "uint256[8]",
                            "name": "proof",
                            "type": "uint256[8]"
                        }
                    ],
                    "indexed": false,
                    "internalType": "struct UnirepObjs.UserTransitionProof",
                    "name": "_proof",
                    "type": "tuple"
                },
                {
                    "indexed": false,
                    "internalType": "uint256[]",
                    "name": "_proofIndexRecords",
                    "type": "uint256[]"
                }
            ],
            "name": "IndexedUserStateTransitionProof",
            "type": "event"
        },
        {
            "anonymous": false,
            "inputs": [
                {
                    "indexed": true,
                    "internalType": "uint256",
                    "name": "_epoch",
                    "type": "uint256"
                },
                {
                    "indexed": false,
                    "internalType": "enum Unirep.Event",
                    "name": "_event",
                    "type": "uint8"
                }
            ],
            "name": "Sequencer",
            "type": "event"
        },
        {
            "anonymous": false,
            "inputs": [
                {
                    "indexed": true,
                    "internalType": "uint256",
                    "name": "_epoch",
                    "type": "uint256"
                },
                {
                    "indexed": true,
                    "internalType": "uint256",
                    "name": "_identityCommitment",
                    "type": "uint256"
                },
                {
                    "indexed": false,
                    "internalType": "uint256",
                    "name": "_attesterId",
                    "type": "uint256"
                },
                {
                    "indexed": false,
                    "internalType": "uint256",
                    "name": "_airdropAmount",
                    "type": "uint256"
                }
            ],
            "name": "UserSignedUp",
            "type": "event"
        },
        {
            "anonymous": false,
            "inputs": [
                {
                    "indexed": true,
                    "internalType": "uint256",
                    "name": "_epoch",
                    "type": "uint256"
                },
                {
                    "indexed": true,
                    "internalType": "uint256",
                    "name": "_hashedLeaf",
                    "type": "uint256"
                },
                {
                    "indexed": false,
                    "internalType": "uint256",
                    "name": "_proofIndex",
                    "type": "uint256"
                }
            ],
            "name": "UserStateTransitioned",
            "type": "event"
        },
        {
            "inputs": [
                {
                    "internalType": "address",
                    "name": "",
                    "type": "address"
                }
            ],
            "name": "airdropAmount",
            "outputs": [
                {
                    "internalType": "uint256",
                    "name": "",
                    "type": "uint256"
                }
            ],
            "stateMutability": "view",
            "type": "function"
        },
        {
            "inputs": [
                {
                    "components": [
                        {
                            "internalType": "uint256",
                            "name": "epoch",
                            "type": "uint256"
                        },
                        {
                            "internalType": "uint256",
                            "name": "epochKey",
                            "type": "uint256"
                        },
                        {
                            "internalType": "uint256",
                            "name": "globalStateTree",
                            "type": "uint256"
                        },
                        {
                            "internalType": "uint256",
                            "name": "attesterId",
                            "type": "uint256"
                        },
                        {
                            "internalType": "uint256",
                            "name": "userHasSignedUp",
                            "type": "uint256"
                        },
                        {
                            "internalType": "uint256[8]",
                            "name": "proof",
                            "type": "uint256[8]"
                        }
                    ],
                    "internalType": "struct UnirepObjs.SignUpProof",
                    "name": "_input",
                    "type": "tuple"
                }
            ],
            "name": "airdropEpochKey",
            "outputs": [],
            "stateMutability": "payable",
            "type": "function"
        },
        {
            "inputs": [],
            "name": "attesterSignUp",
            "outputs": [],
            "stateMutability": "nonpayable",
            "type": "function"
        },
        {
            "inputs": [
                {
                    "internalType": "address",
                    "name": "attester",
                    "type": "address"
                },
                {
                    "internalType": "bytes",
                    "name": "signature",
                    "type": "bytes"
                }
            ],
            "name": "attesterSignUpViaRelayer",
            "outputs": [],
            "stateMutability": "nonpayable",
            "type": "function"
        },
        {
            "inputs": [
                {
                    "internalType": "address",
                    "name": "",
                    "type": "address"
                }
            ],
            "name": "attesters",
            "outputs": [
                {
                    "internalType": "uint256",
                    "name": "",
                    "type": "uint256"
                }
            ],
            "stateMutability": "view",
            "type": "function"
        },
        {
            "inputs": [],
            "name": "attestingFee",
            "outputs": [
                {
                    "internalType": "uint256",
                    "name": "",
                    "type": "uint256"
                }
            ],
            "stateMutability": "view",
            "type": "function"
        },
        {
            "inputs": [],
            "name": "beginEpochTransition",
            "outputs": [],
            "stateMutability": "nonpayable",
            "type": "function"
        },
        {
            "inputs": [],
            "name": "burnAttestingFee",
            "outputs": [],
            "stateMutability": "nonpayable",
            "type": "function"
        },
        {
            "inputs": [],
            "name": "collectEpochTransitionCompensation",
            "outputs": [],
            "stateMutability": "nonpayable",
            "type": "function"
        },
        {
            "inputs": [],
            "name": "collectedAttestingFee",
            "outputs": [
                {
                    "internalType": "uint256",
                    "name": "",
                    "type": "uint256"
                }
            ],
            "stateMutability": "view",
            "type": "function"
        },
        {
            "inputs": [],
            "name": "currentEpoch",
            "outputs": [
                {
                    "internalType": "uint256",
                    "name": "",
                    "type": "uint256"
                }
            ],
            "stateMutability": "view",
            "type": "function"
        },
        {
            "inputs": [],
            "name": "epochLength",
            "outputs": [
                {
                    "internalType": "uint256",
                    "name": "",
                    "type": "uint256"
                }
            ],
            "stateMutability": "view",
            "type": "function"
        },
        {
            "inputs": [
                {
                    "internalType": "address",
                    "name": "",
                    "type": "address"
                }
            ],
            "name": "epochTransitionCompensation",
            "outputs": [
                {
                    "internalType": "uint256",
                    "name": "",
                    "type": "uint256"
                }
            ],
            "stateMutability": "view",
            "type": "function"
        },
        {
            "inputs": [
                {
                    "internalType": "bytes32",
                    "name": "",
                    "type": "bytes32"
                }
            ],
            "name": "getProofIndex",
            "outputs": [
                {
                    "internalType": "uint256",
                    "name": "",
                    "type": "uint256"
                }
            ],
            "stateMutability": "view",
            "type": "function"
        },
        {
            "inputs": [
                {
                    "internalType": "uint256",
                    "name": "",
                    "type": "uint256"
                }
            ],
            "name": "hasUserSignedUp",
            "outputs": [
                {
                    "internalType": "bool",
                    "name": "",
                    "type": "bool"
                }
            ],
            "stateMutability": "view",
            "type": "function"
        },
        {
            "inputs": [
                {
                    "components": [
                        {
                            "internalType": "uint256",
                            "name": "globalStateTree",
                            "type": "uint256"
                        },
                        {
                            "internalType": "uint256",
                            "name": "epoch",
                            "type": "uint256"
                        },
                        {
                            "internalType": "uint256",
                            "name": "epochKey",
                            "type": "uint256"
                        },
                        {
                            "internalType": "uint256[8]",
                            "name": "proof",
                            "type": "uint256[8]"
                        }
                    ],
                    "internalType": "struct UnirepObjs.EpochKeyProof",
                    "name": "_input",
                    "type": "tuple"
                }
            ],
            "name": "hashEpochKeyProof",
            "outputs": [
                {
                    "internalType": "bytes32",
                    "name": "",
                    "type": "bytes32"
                }
            ],
            "stateMutability": "pure",
            "type": "function"
        },
        {
            "inputs": [
                {
                    "internalType": "uint256",
                    "name": "_outputBlindedUserState",
                    "type": "uint256"
                },
                {
                    "internalType": "uint256",
                    "name": "_outputBlindedHashChain",
                    "type": "uint256"
                },
                {
                    "internalType": "uint256",
                    "name": "_inputBlindedUserState",
                    "type": "uint256"
                },
                {
                    "internalType": "uint256[8]",
                    "name": "_proof",
                    "type": "uint256[8]"
                }
            ],
            "name": "hashProcessAttestationsProof",
            "outputs": [
                {
                    "internalType": "bytes32",
                    "name": "",
                    "type": "bytes32"
                }
            ],
            "stateMutability": "pure",
            "type": "function"
        },
        {
            "inputs": [
                {
                    "components": [
                        {
                            "internalType": "uint256[]",
                            "name": "repNullifiers",
                            "type": "uint256[]"
                        },
                        {
                            "internalType": "uint256",
                            "name": "epoch",
                            "type": "uint256"
                        },
                        {
                            "internalType": "uint256",
                            "name": "epochKey",
                            "type": "uint256"
                        },
                        {
                            "internalType": "uint256",
                            "name": "globalStateTree",
                            "type": "uint256"
                        },
                        {
                            "internalType": "uint256",
                            "name": "attesterId",
                            "type": "uint256"
                        },
                        {
                            "internalType": "uint256",
                            "name": "proveReputationAmount",
                            "type": "uint256"
                        },
                        {
                            "internalType": "uint256",
                            "name": "minRep",
                            "type": "uint256"
                        },
                        {
                            "internalType": "uint256",
                            "name": "proveGraffiti",
                            "type": "uint256"
                        },
                        {
                            "internalType": "uint256",
                            "name": "graffitiPreImage",
                            "type": "uint256"
                        },
                        {
                            "internalType": "uint256[8]",
                            "name": "proof",
                            "type": "uint256[8]"
                        }
                    ],
                    "internalType": "struct UnirepObjs.ReputationProof",
                    "name": "_input",
                    "type": "tuple"
                }
            ],
            "name": "hashReputationProof",
            "outputs": [
                {
                    "internalType": "bytes32",
                    "name": "",
                    "type": "bytes32"
                }
            ],
            "stateMutability": "pure",
            "type": "function"
        },
        {
            "inputs": [
                {
                    "components": [
                        {
                            "internalType": "uint256",
                            "name": "epoch",
                            "type": "uint256"
                        },
                        {
                            "internalType": "uint256",
                            "name": "epochKey",
                            "type": "uint256"
                        },
                        {
                            "internalType": "uint256",
                            "name": "globalStateTree",
                            "type": "uint256"
                        },
                        {
                            "internalType": "uint256",
                            "name": "attesterId",
                            "type": "uint256"
                        },
                        {
                            "internalType": "uint256",
                            "name": "userHasSignedUp",
                            "type": "uint256"
                        },
                        {
                            "internalType": "uint256[8]",
                            "name": "proof",
                            "type": "uint256[8]"
                        }
                    ],
                    "internalType": "struct UnirepObjs.SignUpProof",
                    "name": "_input",
                    "type": "tuple"
                }
            ],
            "name": "hashSignUpProof",
            "outputs": [
                {
                    "internalType": "bytes32",
                    "name": "",
                    "type": "bytes32"
                }
            ],
            "stateMutability": "pure",
            "type": "function"
        },
        {
            "inputs": [
                {
                    "internalType": "uint256",
                    "name": "_blindedUserState",
                    "type": "uint256"
                },
                {
                    "internalType": "uint256",
                    "name": "_blindedHashChain",
                    "type": "uint256"
                },
                {
                    "internalType": "uint256",
                    "name": "_globalStateTree",
                    "type": "uint256"
                },
                {
                    "internalType": "uint256[8]",
                    "name": "_proof",
                    "type": "uint256[8]"
                }
            ],
            "name": "hashStartTransitionProof",
            "outputs": [
                {
                    "internalType": "bytes32",
                    "name": "",
                    "type": "bytes32"
                }
            ],
            "stateMutability": "pure",
            "type": "function"
        },
        {
            "inputs": [
                {
                    "components": [
                        {
                            "internalType": "uint256",
                            "name": "newGlobalStateTreeLeaf",
                            "type": "uint256"
                        },
                        {
                            "internalType": "uint256[]",
                            "name": "epkNullifiers",
                            "type": "uint256[]"
                        },
                        {
                            "internalType": "uint256",
                            "name": "transitionFromEpoch",
                            "type": "uint256"
                        },
                        {
                            "internalType": "uint256[]",
                            "name": "blindedUserStates",
                            "type": "uint256[]"
                        },
                        {
                            "internalType": "uint256",
                            "name": "fromGlobalStateTree",
                            "type": "uint256"
                        },
                        {
                            "internalType": "uint256[]",
                            "name": "blindedHashChains",
                            "type": "uint256[]"
                        },
                        {
                            "internalType": "uint256",
                            "name": "fromEpochTree",
                            "type": "uint256"
                        },
                        {
                            "internalType": "uint256[8]",
                            "name": "proof",
                            "type": "uint256[8]"
                        }
                    ],
                    "internalType": "struct UnirepObjs.UserTransitionProof",
                    "name": "_input",
                    "type": "tuple"
                }
            ],
            "name": "hashUserStateTransitionProof",
            "outputs": [
                {
                    "internalType": "bytes32",
                    "name": "",
                    "type": "bytes32"
                }
            ],
            "stateMutability": "pure",
            "type": "function"
        },
        {
            "inputs": [],
            "name": "latestEpochTransitionTime",
            "outputs": [
                {
                    "internalType": "uint256",
                    "name": "",
                    "type": "uint256"
                }
            ],
            "stateMutability": "view",
            "type": "function"
        },
        {
            "inputs": [],
            "name": "maxAttesters",
            "outputs": [
                {
                    "internalType": "uint256",
                    "name": "",
                    "type": "uint256"
                }
            ],
            "stateMutability": "view",
            "type": "function"
        },
        {
            "inputs": [],
            "name": "maxReputationBudget",
            "outputs": [
                {
                    "internalType": "uint8",
                    "name": "",
                    "type": "uint8"
                }
            ],
            "stateMutability": "view",
            "type": "function"
        },
        {
            "inputs": [],
            "name": "maxUsers",
            "outputs": [
                {
                    "internalType": "uint256",
                    "name": "",
                    "type": "uint256"
                }
            ],
            "stateMutability": "view",
            "type": "function"
        },
        {
            "inputs": [],
            "name": "nextAttesterId",
            "outputs": [
                {
                    "internalType": "uint256",
                    "name": "",
                    "type": "uint256"
                }
            ],
            "stateMutability": "view",
            "type": "function"
        },
        {
            "inputs": [],
            "name": "numEpochKeyNoncePerEpoch",
            "outputs": [
                {
                    "internalType": "uint8",
                    "name": "",
                    "type": "uint8"
                }
            ],
            "stateMutability": "view",
            "type": "function"
        },
        {
            "inputs": [],
            "name": "numUserSignUps",
            "outputs": [
                {
                    "internalType": "uint256",
                    "name": "",
                    "type": "uint256"
                }
            ],
            "stateMutability": "view",
            "type": "function"
        },
        {
            "inputs": [
                {
                    "internalType": "uint256",
                    "name": "_outputBlindedUserState",
                    "type": "uint256"
                },
                {
                    "internalType": "uint256",
                    "name": "_outputBlindedHashChain",
                    "type": "uint256"
                },
                {
                    "internalType": "uint256",
                    "name": "_inputBlindedUserState",
                    "type": "uint256"
                },
                {
                    "internalType": "uint256[8]",
                    "name": "_proof",
                    "type": "uint256[8]"
                }
            ],
            "name": "processAttestations",
            "outputs": [],
            "stateMutability": "nonpayable",
            "type": "function"
        },
        {
            "inputs": [
                {
                    "internalType": "uint256",
                    "name": "_airdropAmount",
                    "type": "uint256"
                }
            ],
            "name": "setAirdropAmount",
            "outputs": [],
            "stateMutability": "nonpayable",
            "type": "function"
        },
        {
            "inputs": [
                {
                    "components": [
                        {
                            "internalType": "uint256[]",
                            "name": "repNullifiers",
                            "type": "uint256[]"
                        },
                        {
                            "internalType": "uint256",
                            "name": "epoch",
                            "type": "uint256"
                        },
                        {
                            "internalType": "uint256",
                            "name": "epochKey",
                            "type": "uint256"
                        },
                        {
                            "internalType": "uint256",
                            "name": "globalStateTree",
                            "type": "uint256"
                        },
                        {
                            "internalType": "uint256",
                            "name": "attesterId",
                            "type": "uint256"
                        },
                        {
                            "internalType": "uint256",
                            "name": "proveReputationAmount",
                            "type": "uint256"
                        },
                        {
                            "internalType": "uint256",
                            "name": "minRep",
                            "type": "uint256"
                        },
                        {
                            "internalType": "uint256",
                            "name": "proveGraffiti",
                            "type": "uint256"
                        },
                        {
                            "internalType": "uint256",
                            "name": "graffitiPreImage",
                            "type": "uint256"
                        },
                        {
                            "internalType": "uint256[8]",
                            "name": "proof",
                            "type": "uint256[8]"
                        }
                    ],
                    "internalType": "struct UnirepObjs.ReputationProof",
                    "name": "_input",
                    "type": "tuple"
                }
            ],
            "name": "spendReputation",
            "outputs": [],
            "stateMutability": "payable",
            "type": "function"
        },
        {
            "inputs": [
                {
                    "internalType": "uint256",
                    "name": "_blindedUserState",
                    "type": "uint256"
                },
                {
                    "internalType": "uint256",
                    "name": "_blindedHashChain",
                    "type": "uint256"
                },
                {
                    "internalType": "uint256",
                    "name": "_globalStateTree",
                    "type": "uint256"
                },
                {
                    "internalType": "uint256[8]",
                    "name": "_proof",
                    "type": "uint256[8]"
                }
            ],
            "name": "startUserStateTransition",
            "outputs": [],
            "stateMutability": "nonpayable",
            "type": "function"
        },
        {
            "inputs": [
                {
                    "components": [
                        {
                            "internalType": "uint256",
                            "name": "attesterId",
                            "type": "uint256"
                        },
                        {
                            "internalType": "uint256",
                            "name": "posRep",
                            "type": "uint256"
                        },
                        {
                            "internalType": "uint256",
                            "name": "negRep",
                            "type": "uint256"
                        },
                        {
                            "internalType": "uint256",
                            "name": "graffiti",
                            "type": "uint256"
                        },
                        {
                            "internalType": "uint256",
                            "name": "signUp",
                            "type": "uint256"
                        }
                    ],
                    "internalType": "struct UnirepObjs.Attestation",
                    "name": "attestation",
                    "type": "tuple"
                },
                {
                    "internalType": "uint256",
                    "name": "epochKey",
                    "type": "uint256"
                },
                {
                    "internalType": "uint256",
                    "name": "_proofIndex",
                    "type": "uint256"
                }
            ],
            "name": "submitAttestation",
            "outputs": [],
            "stateMutability": "payable",
            "type": "function"
        },
        {
            "inputs": [
                {
                    "internalType": "address",
                    "name": "attester",
                    "type": "address"
                },
                {
                    "internalType": "bytes",
                    "name": "signature",
                    "type": "bytes"
                },
                {
                    "components": [
                        {
                            "internalType": "uint256",
                            "name": "attesterId",
                            "type": "uint256"
                        },
                        {
                            "internalType": "uint256",
                            "name": "posRep",
                            "type": "uint256"
                        },
                        {
                            "internalType": "uint256",
                            "name": "negRep",
                            "type": "uint256"
                        },
                        {
                            "internalType": "uint256",
                            "name": "graffiti",
                            "type": "uint256"
                        },
                        {
                            "internalType": "uint256",
                            "name": "signUp",
                            "type": "uint256"
                        }
                    ],
                    "internalType": "struct UnirepObjs.Attestation",
                    "name": "attestation",
                    "type": "tuple"
                },
                {
                    "internalType": "uint256",
                    "name": "epochKey",
                    "type": "uint256"
                },
                {
                    "internalType": "uint256",
                    "name": "_proofIndex",
                    "type": "uint256"
                }
            ],
            "name": "submitAttestationViaRelayer",
            "outputs": [],
            "stateMutability": "payable",
            "type": "function"
        },
        {
            "inputs": [
                {
                    "components": [
                        {
                            "internalType": "uint256",
                            "name": "globalStateTree",
                            "type": "uint256"
                        },
                        {
                            "internalType": "uint256",
                            "name": "epoch",
                            "type": "uint256"
                        },
                        {
                            "internalType": "uint256",
                            "name": "epochKey",
                            "type": "uint256"
                        },
                        {
                            "internalType": "uint256[8]",
                            "name": "proof",
                            "type": "uint256[8]"
                        }
                    ],
                    "internalType": "struct UnirepObjs.EpochKeyProof",
                    "name": "_input",
                    "type": "tuple"
                }
            ],
            "name": "submitEpochKeyProof",
            "outputs": [],
            "stateMutability": "nonpayable",
            "type": "function"
        },
        {
            "inputs": [],
            "name": "treeDepths",
            "outputs": [
                {
                    "internalType": "uint8",
                    "name": "globalStateTreeDepth",
                    "type": "uint8"
                },
                {
                    "internalType": "uint8",
                    "name": "userStateTreeDepth",
                    "type": "uint8"
                },
                {
                    "internalType": "uint8",
                    "name": "epochTreeDepth",
                    "type": "uint8"
                }
            ],
            "stateMutability": "view",
            "type": "function"
        },
        {
            "inputs": [
                {
                    "internalType": "uint256[8]",
                    "name": "_proof",
                    "type": "uint256[8]"
                }
            ],
            "name": "unpackProof",
            "outputs": [
                {
                    "internalType": "uint256[2]",
                    "name": "",
                    "type": "uint256[2]"
                },
                {
                    "internalType": "uint256[2][2]",
                    "name": "",
                    "type": "uint256[2][2]"
                },
                {
                    "internalType": "uint256[2]",
                    "name": "",
                    "type": "uint256[2]"
                }
            ],
            "stateMutability": "pure",
            "type": "function"
        },
        {
            "inputs": [
                {
                    "components": [
                        {
                            "internalType": "uint256",
                            "name": "newGlobalStateTreeLeaf",
                            "type": "uint256"
                        },
                        {
                            "internalType": "uint256[]",
                            "name": "epkNullifiers",
                            "type": "uint256[]"
                        },
                        {
                            "internalType": "uint256",
                            "name": "transitionFromEpoch",
                            "type": "uint256"
                        },
                        {
                            "internalType": "uint256[]",
                            "name": "blindedUserStates",
                            "type": "uint256[]"
                        },
                        {
                            "internalType": "uint256",
                            "name": "fromGlobalStateTree",
                            "type": "uint256"
                        },
                        {
                            "internalType": "uint256[]",
                            "name": "blindedHashChains",
                            "type": "uint256[]"
                        },
                        {
                            "internalType": "uint256",
                            "name": "fromEpochTree",
                            "type": "uint256"
                        },
                        {
                            "internalType": "uint256[8]",
                            "name": "proof",
                            "type": "uint256[8]"
                        }
                    ],
                    "internalType": "struct UnirepObjs.UserTransitionProof",
                    "name": "_proof",
                    "type": "tuple"
                },
                {
                    "internalType": "uint256[]",
                    "name": "proofIndexRecords",
                    "type": "uint256[]"
                }
            ],
            "name": "updateUserStateRoot",
            "outputs": [],
            "stateMutability": "nonpayable",
            "type": "function"
        },
        {
            "inputs": [
                {
                    "internalType": "uint256",
                    "name": "_identityCommitment",
                    "type": "uint256"
                }
            ],
            "name": "userSignUp",
            "outputs": [],
            "stateMutability": "nonpayable",
            "type": "function"
        },
        {
            "inputs": [
                {
                    "components": [
                        {
                            "internalType": "uint256",
                            "name": "globalStateTree",
                            "type": "uint256"
                        },
                        {
                            "internalType": "uint256",
                            "name": "epoch",
                            "type": "uint256"
                        },
                        {
                            "internalType": "uint256",
                            "name": "epochKey",
                            "type": "uint256"
                        },
                        {
                            "internalType": "uint256[8]",
                            "name": "proof",
                            "type": "uint256[8]"
                        }
                    ],
                    "internalType": "struct UnirepObjs.EpochKeyProof",
                    "name": "_input",
                    "type": "tuple"
                }
            ],
            "name": "verifyEpochKeyValidity",
            "outputs": [
                {
                    "internalType": "bool",
                    "name": "",
                    "type": "bool"
                }
            ],
            "stateMutability": "view",
            "type": "function"
        },
        {
            "inputs": [
                {
                    "internalType": "uint256",
                    "name": "_outputBlindedUserState",
                    "type": "uint256"
                },
                {
                    "internalType": "uint256",
                    "name": "_outputBlindedHashChain",
                    "type": "uint256"
                },
                {
                    "internalType": "uint256",
                    "name": "_inputBlindedUserState",
                    "type": "uint256"
                },
                {
                    "internalType": "uint256[8]",
                    "name": "_proof",
                    "type": "uint256[8]"
                }
            ],
            "name": "verifyProcessAttestationProof",
            "outputs": [
                {
                    "internalType": "bool",
                    "name": "",
                    "type": "bool"
                }
            ],
            "stateMutability": "view",
            "type": "function"
        },
        {
            "inputs": [
                {
                    "components": [
                        {
                            "internalType": "uint256[]",
                            "name": "repNullifiers",
                            "type": "uint256[]"
                        },
                        {
                            "internalType": "uint256",
                            "name": "epoch",
                            "type": "uint256"
                        },
                        {
                            "internalType": "uint256",
                            "name": "epochKey",
                            "type": "uint256"
                        },
                        {
                            "internalType": "uint256",
                            "name": "globalStateTree",
                            "type": "uint256"
                        },
                        {
                            "internalType": "uint256",
                            "name": "attesterId",
                            "type": "uint256"
                        },
                        {
                            "internalType": "uint256",
                            "name": "proveReputationAmount",
                            "type": "uint256"
                        },
                        {
                            "internalType": "uint256",
                            "name": "minRep",
                            "type": "uint256"
                        },
                        {
                            "internalType": "uint256",
                            "name": "proveGraffiti",
                            "type": "uint256"
                        },
                        {
                            "internalType": "uint256",
                            "name": "graffitiPreImage",
                            "type": "uint256"
                        },
                        {
                            "internalType": "uint256[8]",
                            "name": "proof",
                            "type": "uint256[8]"
                        }
                    ],
                    "internalType": "struct UnirepObjs.ReputationProof",
                    "name": "_input",
                    "type": "tuple"
                }
            ],
            "name": "verifyReputation",
            "outputs": [
                {
                    "internalType": "bool",
                    "name": "",
                    "type": "bool"
                }
            ],
            "stateMutability": "view",
            "type": "function"
        },
        {
            "inputs": [
                {
                    "internalType": "uint256",
                    "name": "_blindedUserState",
                    "type": "uint256"
                },
                {
                    "internalType": "uint256",
                    "name": "_blindedHashChain",
                    "type": "uint256"
                },
                {
                    "internalType": "uint256",
                    "name": "_GSTRoot",
                    "type": "uint256"
                },
                {
                    "internalType": "uint256[8]",
                    "name": "_proof",
                    "type": "uint256[8]"
                }
            ],
            "name": "verifyStartTransitionProof",
            "outputs": [
                {
                    "internalType": "bool",
                    "name": "",
                    "type": "bool"
                }
            ],
            "stateMutability": "view",
            "type": "function"
        },
        {
            "inputs": [
                {
                    "components": [
                        {
                            "internalType": "uint256",
                            "name": "epoch",
                            "type": "uint256"
                        },
                        {
                            "internalType": "uint256",
                            "name": "epochKey",
                            "type": "uint256"
                        },
                        {
                            "internalType": "uint256",
                            "name": "globalStateTree",
                            "type": "uint256"
                        },
                        {
                            "internalType": "uint256",
                            "name": "attesterId",
                            "type": "uint256"
                        },
                        {
                            "internalType": "uint256",
                            "name": "userHasSignedUp",
                            "type": "uint256"
                        },
                        {
                            "internalType": "uint256[8]",
                            "name": "proof",
                            "type": "uint256[8]"
                        }
                    ],
                    "internalType": "struct UnirepObjs.SignUpProof",
                    "name": "_input",
                    "type": "tuple"
                }
            ],
            "name": "verifyUserSignUp",
            "outputs": [
                {
                    "internalType": "bool",
                    "name": "",
                    "type": "bool"
                }
            ],
            "stateMutability": "view",
            "type": "function"
        },
        {
            "inputs": [
                {
                    "components": [
                        {
                            "internalType": "uint256",
                            "name": "newGlobalStateTreeLeaf",
                            "type": "uint256"
                        },
                        {
                            "internalType": "uint256[]",
                            "name": "epkNullifiers",
                            "type": "uint256[]"
                        },
                        {
                            "internalType": "uint256",
                            "name": "transitionFromEpoch",
                            "type": "uint256"
                        },
                        {
                            "internalType": "uint256[]",
                            "name": "blindedUserStates",
                            "type": "uint256[]"
                        },
                        {
                            "internalType": "uint256",
                            "name": "fromGlobalStateTree",
                            "type": "uint256"
                        },
                        {
                            "internalType": "uint256[]",
                            "name": "blindedHashChains",
                            "type": "uint256[]"
                        },
                        {
                            "internalType": "uint256",
                            "name": "fromEpochTree",
                            "type": "uint256"
                        },
                        {
                            "internalType": "uint256[8]",
                            "name": "proof",
                            "type": "uint256[8]"
                        }
                    ],
                    "internalType": "struct UnirepObjs.UserTransitionProof",
                    "name": "_input",
                    "type": "tuple"
                }
            ],
            "name": "verifyUserStateTransition",
            "outputs": [
                {
                    "internalType": "bool",
                    "name": "",
                    "type": "bool"
                }
            ],
            "stateMutability": "view",
            "type": "function"
        }
    ],
    "bytecode": "0x6101406040527f30644e72e131a029b85045b68181585d2833e84879b9709143e1f593f0000001620000336101606200047b565b6040516020818303038152906040528051906020012060001c6200005891906200069d565b600055600160075560006009556001600a5560016010553480156200007c57600080fd5b506040516200504c3803806200504c8339810160408190526200009f9162000351565b8b601260008201518160000160006101000a81548160ff021916908360ff16021790555060208201518160000160016101000a81548160ff021916908360ff16021790555060408201518160000160026101000a81548160ff021916908360ff16021790555090505089600160006101000a8154816001600160a01b0302191690836001600160a01b0316021790555088600260006101000a8154816001600160a01b0302191690836001600160a01b0316021790555087600360006101000a8154816001600160a01b0302191690836001600160a01b0316021790555086600460006101000a8154816001600160a01b0302191690836001600160a01b0316021790555085600560006101000a8154816001600160a01b0302191690836001600160a01b0316021790555084600660006101000a8154816001600160a01b0302191690836001600160a01b031602179055508360ff1660a08160ff1660f81b815250508260ff1660c08160ff1660f81b81525050816080818152505042600881905550600060018d6000015160026200023a91906200058b565b62000246919062000683565b9050808c600001511115620002785760405162461bcd60e51b81526004016200026f906200048d565b60405180910390fd5b8b5160e05260208d0151600090600190620002959060026200058b565b620002a1919062000683565b9050808d602001511115620002ca5760405162461bcd60e51b81526004016200026f90620004c4565b50506020909a0151610100525050506101209690965250620006d495505050505050565b80516001600160a01b03811681146200030657600080fd5b919050565b6000604082840312156200031d578081fd5b62000329604062000506565b9050815181526020820151602082015292915050565b805160ff811681146200030657600080fd5b6000806000806000806000806000806000808c8e036101e081121562000375578889fd5b606081121562000383578889fd5b5062000390606062000506565b6200039b8e6200033f565b8152620003ab60208f016200033f565b6020820152620003be60408f016200033f565b60408201529b50620003d48e60608f016200030b565b9a50620003e460a08e01620002ee565b9950620003f460c08e01620002ee565b98506200040460e08e01620002ee565b9750620004156101008e01620002ee565b9650620004266101208e01620002ee565b9550620004376101408e01620002ee565b9450620004486101608e016200033f565b9350620004596101808e016200033f565b92506101a08d015191506101c08d015190509295989b509295989b509295989b565b650556e697265760d41b815260060190565b6020808252601e908201527f556e697265703a20696e76616c6964206d617855736572732076616c75650000604082015260600190565b60208082526022908201527f556e697265703a20696e76616c6964206d61784174746573746572732076616c604082015261756560f01b606082015260800190565b6040518181016001600160401b03811182821017156200053657634e487b7160e01b600052604160045260246000fd5b604052919050565b80825b600180861162000552575062000582565b818704821115620005675762000567620006be565b808616156200057557918102915b9490941c93800262000541565b94509492505050565b60006200059f60001960ff851684620005a6565b9392505050565b600082620005b7575060016200059f565b81620005c6575060006200059f565b8160018114620005df5760028114620005ea576200061e565b60019150506200059f565b60ff841115620005fe57620005fe620006be565b6001841b915084821115620006175762000617620006be565b506200059f565b5060208310610133831016604e8410600b841016171562000656575081810a83811115620006505762000650620006be565b6200059f565b6200066584848460016200053e565b8086048211156200067a576200067a620006be565b02949350505050565b600082821015620006985762000698620006be565b500390565b600082620006b957634e487b7160e01b81526012600452602481fd5b500690565b634e487b7160e01b600052601160045260246000fd5b60805160a05160f81c60c05160f81c60e0516101005161012051614857620007f56000396000818161083a0152818161148501528181611b5301528181611bd20152612761015260008181611153015281816122220152612b32015260008181610bb101526129c60152600081816114c9015281816116fc0152818161179e015281816117f401528181611851015281816118ae0152818161190b01528181611968015281816119c501528181611a23015261285f015260008181610f0a01528181610f7601528181611c9c01528181611d5801528181611e0b01528181611e8e01528181611f1601528181611f7801528181611fd00152818161202f015281816120ae01526125470152600081816111bd01526128c501526148576000f3fe6080604052600436106102715760003560e01c806398588c1f1161014f578063b876ed71116100c1578063e1b0e8021161007a578063e1b0e802146106d4578063e79e23e9146106e9578063e87101b114610709578063f5ab0dd61461071e578063f73c8ebb1461074d578063fadd942d1461076d57610271565b8063b876ed7114610637578063bff3df4114610657578063c26396731461066a578063cd5032e21461067f578063d3aa645b1461069f578063de723886146106bf57610271565b8063a710d60f11610113578063a710d60f1461057c578063a7c264ca1461059c578063a7ebaa75146105be578063ac98e5df146105d3578063ad944e47146105f7578063b530dc8c1461061757610271565b806398588c1f146104e75780639e2e79dc14610507578063a14a9fe214610527578063a27e572a14610547578063a5500c301461055c57610271565b806357d775f8116101e857806376671808116101ac5780637667180814610460578063839beeb81461047557806385c053ae1461048a57806386826c4d1461049d5780639109d1eb146104bd578063918f0c16146104d257610271565b806357d775f8146103d85780635b3745b5146103ed578063606736fb1461040d57806366c0f31f146104205780636e85e8141461044057610271565b80631c89e8e81161023a5780631c89e8e814610316578063410a140414610343578063417b16e314610363578063456bfc7114610383578063494e2171146103a357806356df4634146103c357610271565b806292ad661461027657806305d9ab821461028b57806307d83308146102c1578063131a91ad146102d6578063132331f2146102f6575b600080fd5b6102896102843660046133d6565b610782565b005b34801561029757600080fd5b506102ab6102a6366004613542565b610908565b6040516102b89190613b02565b60405180910390f35b3480156102cd57600080fd5b506102ab61094f565b3480156102e257600080fd5b506102ab6102f136600461336c565b610955565b34801561030257600080fd5b506102ab610311366004613489565b610967565b34801561032257600080fd5b50610336610331366004613489565b610979565b6040516102b89190613af7565b34801561034f57600080fd5b5061033661035e366004613542565b61098e565b34801561036f57600080fd5b5061028961037e366004613489565b610b80565b34801561038f57600080fd5b5061033661039e366004613682565b610cb5565b3480156103af57600080fd5b506102896103be366004613732565b610ea9565b3480156103cf57600080fd5b50610289611124565b3480156103e457600080fd5b506102ab6111bb565b3480156103f957600080fd5b50610336610408366004613792565b6111df565b61028961041b3660046135ac565b6113eb565b34801561042c57600080fd5b5061028961043b366004613542565b61160a565b34801561044c57600080fd5b5061033661045b3660046135ac565b6116cf565b34801561046c57600080fd5b506102ab611b4b565b34801561048157600080fd5b506102ab611b51565b6102896104983660046134a1565b611b75565b3480156104a957600080fd5b506103366104b8366004613700565b611c94565b3480156104c957600080fd5b506102ab6121de565b3480156104de57600080fd5b506102ab6121e4565b3480156104f357600080fd5b50610289610502366004613386565b6121ea565b34801561051357600080fd5b506102ab6105223660046137d7565b6122cc565b34801561053357600080fd5b506102ab610542366004613700565b612305565b34801561055357600080fd5b5061028961233f565b34801561056857600080fd5b50610289610577366004613489565b612361565b34801561058857600080fd5b50610336610597366004613792565b61239f565b3480156105a857600080fd5b506105b1612545565b6040516102b89190614674565b3480156105ca57600080fd5b50610289612569565b3480156105df57600080fd5b506105e861257e565b6040516102b893929190614682565b34801561060357600080fd5b506102ab6106123660046135ac565b61259a565b34801561062357600080fd5b506102ab61063236600461336c565b6125e0565b34801561064357600080fd5b50610289610652366004613792565b6125f2565b610289610665366004613682565b6126c7565b34801561067657600080fd5b506105b161285d565b34801561068b57600080fd5b506102ab61069a366004613682565b612881565b3480156106ab57600080fd5b506102ab6106ba36600461336c565b6128ac565b3480156106cb57600080fd5b506102896128be565b3480156106e057600080fd5b506102ab6129c4565b3480156106f557600080fd5b506102ab610704366004613792565b6129e8565b34801561071557600080fd5b506102ab612a01565b34801561072a57600080fd5b5061073e61073936600461344d565b612a07565b6040516102b893929190613a87565b34801561075957600080fd5b50610289610768366004613792565b612a90565b34801561077957600080fd5b506102ab612b30565b6107c28686868080601f016020809104026020016040519081016040528093929190818152602001838380828437600092019190915250612b5492505050565b6001600160a01b0386166000908152600f60205260409020546108005760405162461bcd60e51b81526004016107f790613dc5565b60405180910390fd5b6001600160a01b0386166000908152600f60205260409020548335146108385760405162461bcd60e51b81526004016107f790614332565b7f000000000000000000000000000000000000000000000000000000000000000034146108775760405162461bcd60e51b81526004016107f790613e79565b80158015906108875750600a5481105b6108a35760405162461bcd60e51b81526004016107f7906142b9565b608083013515806108b8575082608001356001145b6108d45760405162461bcd60e51b81526004016107f790613e42565b600d546108e19034612be1565b600d55610900866108f7368690038601866134d4565b84846000612bf4565b505050505050565b600081600001518260200151836040015184606001516040516020016109319493929190613a2a565b6040516020818303038152906040528051906020012090505b919050565b600d5481565b600f6020526000908152604090205481565b600b6020526000908152604090205481565b600c6020526000908152604090205460ff1681565b60408051600380825260808201909252600091829190602082016060803683370190505090508260000151816000815181106109da57634e487b7160e01b600052603260045260246000fd5b602002602001018181525050826020015181600181518110610a0c57634e487b7160e01b600052603260045260246000fd5b602002602001018181525050826040015181600281518110610a3e57634e487b7160e01b600052603260045260246000fd5b60200260200101818152505060005b81518160ff161015610ac257600080516020614802833981519152828260ff1681518110610a8b57634e487b7160e01b600052603260045260246000fd5b602002602001015110610ab05760405162461bcd60e51b81526004016107f790614369565b80610aba8161477f565b915050610a4d565b50610acb613084565b610ad88460600151612a07565b60408085018290526020850183905283855260015490516361971b8760e11b81526001600160a01b039091169363c32e370e93610b1e9391929091908890600401613ab0565b60206040518083038186803b158015610b3657600080fd5b505afa158015610b4a573d6000803e3d6000fd5b505050506040513d601f19601f82011682018060405250810190610b6e9190613469565b15156060909101819052915050919050565b6000818152600c602052604090205460ff1615610baf5760405162461bcd60e51b81526004016107f790614225565b7f000000000000000000000000000000000000000000000000000000000000000060095410610bf05760405162461bcd60e51b81526004016107f79061426b565b336000908152600f60209081526040808320546011835281842054858552600c909352908320805460ff19166001179055600980549193610c3083614764565b91905055506007546000805160206147e28339815191526000604051610c569190613b7d565b60405180910390a2826007547faf92f92b28945d280b51131bc986d2da66b560950f1a5126f12b7f847dae8f7d8484604051610c93929190614642565b60405180910390a3600a8054906000610cab83614764565b9190505550505050565b60408051600580825260c082019092526000918291906020820160a080368337019050509050826000015181600081518110610d0157634e487b7160e01b600052603260045260246000fd5b602002602001018181525050826020015181600181518110610d3357634e487b7160e01b600052603260045260246000fd5b602002602001018181525050826040015181600281518110610d6557634e487b7160e01b600052603260045260246000fd5b602002602001018181525050826060015181600381518110610d9757634e487b7160e01b600052603260045260246000fd5b602002602001018181525050826080015181600481518110610dc957634e487b7160e01b600052603260045260246000fd5b60200260200101818152505060005b81518160ff161015610e4d57600080516020614802833981519152828260ff1681518110610e1657634e487b7160e01b600052603260045260246000fd5b602002602001015110610e3b5760405162461bcd60e51b81526004016107f790614369565b80610e458161477f565b915050610dd8565b50610e56613084565b610e638460a00151612a07565b60408085018290526020850183905283855260065490516361971b8760e11b81526001600160a01b039091169363c32e370e93610b1e9391929091908890600401613ab0565b6000610eb483612305565b6000818152600b602052604090205490915015610ee35760405162461bcd60e51b81526004016107f790613c14565b600754836040015110610f085760405162461bcd60e51b81526004016107f790614096565b7f000000000000000000000000000000000000000000000000000000000000000060ff1683602001515114610f4f5760405162461bcd60e51b81526004016107f7906143c6565b826060015151600214610f745760405162461bcd60e51b81526004016107f790613d2e565b7f000000000000000000000000000000000000000000000000000000000000000060ff168360a001515114610fbb5760405162461bcd60e51b81526004016107f790614154565b60005b825181101561105557828181518110610fe757634e487b7160e01b600052603260045260246000fd5b60200260200101516000141580156110275750600a5483828151811061101d57634e487b7160e01b600052603260045260246000fd5b6020026020010151105b6110435760405162461bcd60e51b81526004016107f7906142b9565b8061104d81614764565b915050610fbe565b50600a546007546040516000805160206147e28339815191529061107b90600190613b7d565b60405180910390a2807f5b552a9df44a1ab5bbe960f96fe04b35454baded1ca53c89d13903661cf9fee185856040516110b5929190614571565b60405180910390a283516007546040517f5e4945fc83b420d245560b51ac02c824732652e0552b5d8537800db0c690a663906110f2908590613b02565b60405180910390a36000828152600b60205260408120829055600a80549161111983614764565b919050555050505050565b336000908152600f6020526040902054156111515760405162461bcd60e51b81526004016107f790613bce565b7f0000000000000000000000000000000000000000000000000000000000000000601054106111925760405162461bcd60e51b81526004016107f790614102565b60108054336000908152600f602052604081208290559091906111b483614764565b9190505550565b7f000000000000000000000000000000000000000000000000000000000000000081565b6040805160038082526080820190925260009182919060208201606080368337019050509050858160008151811061122757634e487b7160e01b600052603260045260246000fd5b602002602001018181525050848160018151811061125557634e487b7160e01b600052603260045260246000fd5b602002602001018181525050838160028151811061128357634e487b7160e01b600052603260045260246000fd5b60200260200101818152505060005b81518160ff16101561130757600080516020614802833981519152828260ff16815181106112d057634e487b7160e01b600052603260045260246000fd5b6020026020010151106112f55760405162461bcd60e51b81526004016107f790614369565b806112ff8161477f565b915050611292565b50611310613084565b6040805161010081810190925261133f9186906008908390839080828437600092019190915250612a07915050565b60408085018290526020850183905283855260025490516361971b8760e11b81526001600160a01b039091169363c32e370e936113859391929091908890600401613ab0565b60206040518083038186803b15801561139d57600080fd5b505afa1580156113b1573d6000803e3d6000fd5b505050506040513d601f19601f820116820180604052508101906113d59190613469565b151560609091018190529150505b949350505050565b60006113f68261259a565b6000818152600b6020526040902054909150156114255760405162461bcd60e51b81526004016107f790613c14565b336000908152600f60205260409020546114515760405162461bcd60e51b81526004016107f790613dc5565b6080820151336000908152600f6020526040902054146114835760405162461bcd60e51b81526004016107f790614332565b7f000000000000000000000000000000000000000000000000000000000000000034146114c25760405162461bcd60e51b81526004016107f790613e79565b81515160ff7f000000000000000000000000000000000000000000000000000000000000000016146115065760405162461bcd60e51b81526004016107f790613ff1565b60075482602001511461152b5760405162461bcd60e51b81526004016107f790613ec5565b6080820151336000908152600f60205260409020541461155d5760405162461bcd60e51b81526004016107f79061440e565b600d5461156a9034612be1565b600d556115756130be565b336000908152600f60205260409081902054825260a084015182820152600a548482015160075492519192909183907fb2bf4a676a6a5ef7e686a52ccf9f83f83acb1cac5d2eef1e090206a688c7777e906115d190899061449d565b60405180910390a46115eb33838660400151846002612bf4565b6000838152600b60205260408120829055600a80549161111983614764565b600061161582610908565b6000818152600b6020526040902054909150156116445760405162461bcd60e51b81526004016107f790613c14565b6007548260200151146116695760405162461bcd60e51b81526004016107f790614040565b6000600a5490508260400151600754827ff897f63ef79d1e56ab9f314e1e74d030bcd34a4f0d09ed2834f1efeebf9a4ed9866040516116a89190614463565b60405180910390a46000828152600b60205260408120829055600a805491610cab83614764565b6040805160128082526102608201909252600091829190602082016102408036833701905050905060005b7f000000000000000000000000000000000000000000000000000000000000000060ff168160ff161015611795578351805160ff831690811061174d57634e487b7160e01b600052603260045260246000fd5b6020026020010151828260ff168151811061177857634e487b7160e01b600052603260045260246000fd5b60209081029190910101528061178d8161477f565b9150506116fa565b508260200151817f000000000000000000000000000000000000000000000000000000000000000060ff16815181106117de57634e487b7160e01b600052603260045260246000fd5b602090810291909101015260408301518161181a7f000000000000000000000000000000000000000000000000000000000000000060016146e0565b60ff168151811061183b57634e487b7160e01b600052603260045260246000fd5b60209081029190910101526060830151816118777f000000000000000000000000000000000000000000000000000000000000000060026146e0565b60ff168151811061189857634e487b7160e01b600052603260045260246000fd5b60209081029190910101526080830151816118d47f000000000000000000000000000000000000000000000000000000000000000060036146e0565b60ff16815181106118f557634e487b7160e01b600052603260045260246000fd5b602090810291909101015260a0830151816119317f000000000000000000000000000000000000000000000000000000000000000060046146e0565b60ff168151811061195257634e487b7160e01b600052603260045260246000fd5b602090810291909101015260c08301518161198e7f000000000000000000000000000000000000000000000000000000000000000060056146e0565b60ff16815181106119af57634e487b7160e01b600052603260045260246000fd5b602090810291909101015260e0830151816119eb7f000000000000000000000000000000000000000000000000000000000000000060066146e0565b60ff1681518110611a0c57634e487b7160e01b600052603260045260246000fd5b602090810291909101015261010083015181611a497f000000000000000000000000000000000000000000000000000000000000000060076146e0565b60ff1681518110611a6a57634e487b7160e01b600052603260045260246000fd5b60200260200101818152505060005b81518160ff161015611aee57600080516020614802833981519152828260ff1681518110611ab757634e487b7160e01b600052603260045260246000fd5b602002602001015110611adc5760405162461bcd60e51b81526004016107f790614369565b80611ae68161477f565b915050611a79565b50611af7613084565b611b05846101200151612a07565b60408085018290526020850183905283855260055490516361971b8760e11b81526001600160a01b039091169363c32e370e93610b1e9391929091908890600401613ab0565b60075481565b7f000000000000000000000000000000000000000000000000000000000000000081565b336000908152600f6020526040902054611ba15760405162461bcd60e51b81526004016107f790613dc5565b336000908152600f6020526040902054833514611bd05760405162461bcd60e51b81526004016107f790614332565b7f00000000000000000000000000000000000000000000000000000000000000003414611c0f5760405162461bcd60e51b81526004016107f790613e79565b8015801590611c1f5750600a5481105b611c3b5760405162461bcd60e51b81526004016107f7906142b9565b60808301351580611c50575082608001356001145b611c6c5760405162461bcd60e51b81526004016107f790613e42565b600d54611c799034612be1565b600d55611c8f336108f7368690038601866134d4565b505050565b600080611cc27f00000000000000000000000000000000000000000000000000000000000000006002614724565b611ccd9060066146e0565b60ff166001600160401b03811115611cf557634e487b7160e01b600052604160045260246000fd5b604051908082528060200260200182016040528015611d1e578160200160208202803683370190505b509050826000015181600081518110611d4757634e487b7160e01b600052603260045260246000fd5b60200260200101818152505060005b7f000000000000000000000000000000000000000000000000000000000000000060ff168160ff161015611dff5783602001518160ff1681518110611dab57634e487b7160e01b600052603260045260246000fd5b602002602001015182826001611dc191906146e0565b60ff1681518110611de257634e487b7160e01b600052603260045260246000fd5b602090810291909101015280611df78161477f565b915050611d56565b50604083015181611e317f000000000000000000000000000000000000000000000000000000000000000060016146e0565b60ff1681518110611e5257634e487b7160e01b600052603260045260246000fd5b6020026020010181815250508260600151600081518110611e8357634e487b7160e01b600052603260045260246000fd5b6020026020010151817f00000000000000000000000000000000000000000000000000000000000000006002611eb991906146e0565b60ff1681518110611eda57634e487b7160e01b600052603260045260246000fd5b6020026020010181815250508260600151600181518110611f0b57634e487b7160e01b600052603260045260246000fd5b6020026020010151817f00000000000000000000000000000000000000000000000000000000000000006003611f4191906146e0565b60ff1681518110611f6257634e487b7160e01b600052603260045260246000fd5b6020908102919091010152608083015181611f9e7f000000000000000000000000000000000000000000000000000000000000000060046146e0565b60ff1681518110611fbf57634e487b7160e01b600052603260045260246000fd5b60200260200101818152505060005b7f000000000000000000000000000000000000000000000000000000000000000060ff168160ff1610156120a2578360a001518160ff168151811061202357634e487b7160e01b600052603260045260246000fd5b602002602001015182827f0000000000000000000000000000000000000000000000000000000000000000600561205a91906146e0565b61206491906146e0565b60ff168151811061208557634e487b7160e01b600052603260045260246000fd5b60209081029190910101528061209a8161477f565b915050611fce565b5060c0830151816120d47f00000000000000000000000000000000000000000000000000000000000000006002614724565b6120df9060056146e0565b60ff168151811061210057634e487b7160e01b600052603260045260246000fd5b60200260200101818152505060005b81518160ff16101561218457600080516020614802833981519152828260ff168151811061214d57634e487b7160e01b600052603260045260246000fd5b6020026020010151106121725760405162461bcd60e51b81526004016107f790614369565b8061217c8161477f565b91505061210f565b5061218d613084565b61219a8460e00151612a07565b6040808501829052602085018390528385526004805491516361971b8760e11b81526001600160a01b039092169463c32e370e94610b1e9491939092899101613ab0565b60105481565b60095481565b6001600160a01b0383166000908152600f6020526040902054156122205760405162461bcd60e51b81526004016107f790613bce565b7f0000000000000000000000000000000000000000000000000000000000000000601054106122615760405162461bcd60e51b81526004016107f790614102565b6122a18383838080601f016020809104026020016040519081016040528093929190818152602001838380828437600092019190915250612b5492505050565b601080546001600160a01b0385166000908152600f60205260408120829055909190610cab83614764565b6000848484846040516020016122e59493929190613a2a565b604051602081830303815290604052805190602001209050949350505050565b80516020808301516040808501516060860151608087015160a088015160c089015160e08a015195516000996109319990989791016139a6565b336000818152600e6020526040812080549190559061235e9082612d00565b50565b336000908152600f602052604090205461238d5760405162461bcd60e51b81526004016107f790613dc5565b33600090815260116020526040902055565b604080516003808252608082019092526000918291906020820160608036833701905050905085816000815181106123e757634e487b7160e01b600052603260045260246000fd5b602002602001018181525050848160018151811061241557634e487b7160e01b600052603260045260246000fd5b602002602001018181525050838160028151811061244357634e487b7160e01b600052603260045260246000fd5b60200260200101818152505060005b81518160ff1610156124c757600080516020614802833981519152828260ff168151811061249057634e487b7160e01b600052603260045260246000fd5b6020026020010151106124b55760405162461bcd60e51b81526004016107f790614369565b806124bf8161477f565b915050612452565b506124d0613084565b604080516101008181019092526124ff9186906008908390839080828437600092019190915250612a07915050565b60408085018290526020850183905283855260035490516361971b8760e11b81526001600160a01b039091169363c32e370e936113859391929091908890600401613ab0565b7f000000000000000000000000000000000000000000000000000000000000000081565b600d80546000918290559061235e9082612d00565b60125460ff808216916101008104821691620100009091041683565b80516020808301516040808501516060860151608087015160a088015160c089015160e08a01516101008b01516101208c0151975160009b6109319b909a999101613917565b60116020526000908152604090205481565b60006126298585858560088060200260405190810160405280929190826008602002808284376000920191909152506122cc915050565b6000818152600b6020526040902054909150156126585760405162461bcd60e51b81526004016107f790613c14565b6000600a5490508386827fc70a0250765c7e3a778b8771883540e979ac92fa4002835744533497db8706468887604051612693929190614626565b60405180910390a46000828152600b60205260408120829055600a8054916126ba83614764565b9190505550505050505050565b60006126d282612881565b6000818152600b6020526040902054909150156127015760405162461bcd60e51b81526004016107f790613c14565b336000908152600f602052604090205461272d5760405162461bcd60e51b81526004016107f790613dc5565b6060820151336000908152600f60205260409020541461275f5760405162461bcd60e51b81526004016107f790614332565b7f0000000000000000000000000000000000000000000000000000000000000000341461279e5760405162461bcd60e51b81526004016107f790613e79565b6007548251146127c05760405162461bcd60e51b81526004016107f790613cda565b600d546127cd9034612be1565b600d556127d86130be565b336000818152600f602090815260408083205485529282526011815290829020548382015260016080840152600a549085015160075492519192909183907f58b1080086db5bb58e2e8e2f28dc2a26b705277257655e9296c7ebfcfb8171369061284390899061452a565b60405180910390a46115eb33838660200151846001612bf4565b7f000000000000000000000000000000000000000000000000000000000000000081565b8051602080830151604080850151606086015160a08701519251600096610931969095949101613a55565b600e6020526000908152604090205481565b60005a90507f0000000000000000000000000000000000000000000000000000000000000000600854426128f2919061474d565b10156129105760405162461bcd60e51b81526004016107f790613e0b565b6007546000805160206147e283398151915260036040516129319190613b7d565b60405180910390a26007546040517f751bb1ba7b27b3979a32844d4d05aa16a46a771b751593704834a80311e3a9b990600090a2426008556007805490600061297983614764565b9190505550600061298b5a8390612d9c565b90506129b061299a823a612da8565b336000908152600e602052604090205490612be1565b336000908152600e60205260409020555050565b7f000000000000000000000000000000000000000000000000000000000000000081565b6000848484846040516020016122e594939291906139fe565b60085481565b612a0f6130ed565b612a1761310b565b612a1f6130ed565b50506040805180820182528351815260208085015181830152825160808082018552868501518286019081526060808901519084015282528451808601865290870151815260a08701518184015281830152835180850190945260c0860151845260e0909501519083015293909150565b6000612a9e858585856129e8565b6000818152600b602052604090205490915015612acd5760405162461bcd60e51b81526004016107f790613c14565b6000600a54905083817ff32686467e2fc0ec47df070bcf076510ff790a7ec36e2c65de53ce0d17906b69888887604051612b0993929190614650565b60405180910390a36000828152600b60205260408120829055600a8054916126ba83614764565b7f000000000000000000000000000000000000000000000000000000000000000081565b60008230604051602001612b699291906138f0565b60405160208183030381529060405280519060200120604051602001612b8f9190613972565b604051602081830303815290604052805190602001209050826001600160a01b0316612bbb8284612db4565b6001600160a01b031614611c8f5760405162461bcd60e51b81526004016107f790613d7b565b6000612bed82846146c8565b9392505050565b600080516020614802833981519152846020015110612c255760405162461bcd60e51b81526004016107f7906141a1565b600080516020614802833981519152846040015110612c565760405162461bcd60e51b81526004016107f7906142f0565b600080516020614802833981519152846060015110612c875760405162461bcd60e51b81526004016107f790613c96565b6007546000805160206147e28339815191526002604051612ca89190613b7d565b60405180910390a2846001600160a01b0316836007547f3a0dabdc1ebfc4192cad296a31d4a97f1707db33942ac6f9dc78229a858f139d848887604051612cf193929190613b29565b60405180910390a45050505050565b80471015612d205760405162461bcd60e51b81526004016107f790613fba565b6000826001600160a01b031682604051612d39906139a3565b60006040518083038185875af1925050503d8060008114612d76576040519150601f19603f3d011682016040523d82523d6000602084013e612d7b565b606091505b5050905080611c8f5760405162461bcd60e51b81526004016107f790613f1b565b6000612bed828461474d565b6000612bed8284614705565b6000806000612dc38585612dd8565b91509150612dd081612e48565b509392505050565b600080825160411415612e0f5760208301516040840151606085015160001a612e0387828585612f75565b94509450505050612e41565b825160401415612e395760208301516040840151612e2e868383613055565b935093505050612e41565b506000905060025b9250929050565b6000816004811115612e6a57634e487b7160e01b600052602160045260246000fd5b1415612e755761235e565b6001816004811115612e9757634e487b7160e01b600052602160045260246000fd5b1415612eb55760405162461bcd60e51b81526004016107f790613b97565b6002816004811115612ed757634e487b7160e01b600052602160045260246000fd5b1415612ef55760405162461bcd60e51b81526004016107f790613c5f565b6003816004811115612f1757634e487b7160e01b600052602160045260246000fd5b1415612f355760405162461bcd60e51b81526004016107f790613f78565b6004816004811115612f5757634e487b7160e01b600052602160045260246000fd5b141561235e5760405162461bcd60e51b81526004016107f7906141e3565b6000807f7fffffffffffffffffffffffffffffff5d576e7357a4501ddfe92f46681b20a0831115612fac575060009050600361304c565b8460ff16601b14158015612fc457508460ff16601c14155b15612fd5575060009050600461304c565b600060018787878760405160008152602001604052604051612ffa9493929190613b0b565b6020604051602081039080840390855afa15801561301c573d6000803e3d6000fd5b5050604051601f1901519150506001600160a01b0381166130455760006001925092505061304c565b9150600090505b94509492505050565b6000806001600160ff1b03831660ff84901c601b0161307687828885612f75565b935093505050935093915050565b60405180608001604052806130976130ed565b81526020016130a461310b565b81526020016130b16130ed565b8152600060209091015290565b6040518060a0016040528060008152602001600081526020016000815260200160008152602001600081525090565b60405180604001604052806002906020820280368337509192915050565b60405180604001604052806002905b6131226130ed565b81526020019060019003908161311a5790505090565b80356001600160a01b038116811461094a57600080fd5b600082601f83011261315f578081fd5b6040516101008082018281106001600160401b0382111715613183576131836147cb565b6040528184828101871015613196578485fd5b8492505b60088310156131ba5780358252600192909201916020918201910161319a565b509195945050505050565b600082601f8301126131d5578081fd5b813560206001600160401b038211156131f0576131f06147cb565b8082026131fe82820161469f565b838152828101908684018388018501891015613218578687fd5b8693505b8584101561323a57803583526001939093019291840191840161321c565b50979650505050505050565b60008083601f840112613257578182fd5b5081356001600160401b0381111561326d578182fd5b602083019150836020828501011115612e4157600080fd5b600060a08284031215613296578081fd5b50919050565b60006101e082840312156132ae578081fd5b6132b961010061469f565b90508135815260208201356001600160401b03808211156132d957600080fd5b6132e5858386016131c5565b602084015260408401356040840152606084013591508082111561330857600080fd5b613314858386016131c5565b60608401526080840135608084015260a084013591508082111561333757600080fd5b50613344848285016131c5565b60a08301525060c082013560c08201526133618360e0840161314f565b60e082015292915050565b60006020828403121561337d578081fd5b612bed82613138565b60008060006040848603121561339a578182fd5b6133a384613138565b925060208401356001600160401b038111156133bd578283fd5b6133c986828701613246565b9497909650939450505050565b60008060008060008061012087890312156133ef578182fd5b6133f887613138565b955060208701356001600160401b03811115613412578283fd5b61341e89828a01613246565b909650945061343290508860408901613285565b925060e0870135915061010087013590509295509295509295565b6000610100828403121561345f578081fd5b612bed838361314f565b60006020828403121561347a578081fd5b81518015158114612bed578182fd5b60006020828403121561349a578081fd5b5035919050565b600080600060e084860312156134b5578081fd5b6134bf8585613285565b9560a0850135955060c0909401359392505050565b600060a082840312156134e5578081fd5b60405160a081018181106001600160401b0382111715613507576135076147cb565b806040525082358152602083013560208201526040830135604082015260608301356060820152608083013560808201528091505092915050565b60006101608284031215613554578081fd5b604051608081018181106001600160401b0382111715613576576135766147cb565b80604052508235815260208301356020820152604083013560408201526135a0846060850161314f565b60608201529392505050565b6000602082840312156135bd578081fd5b81356001600160401b03808211156135d3578283fd5b9083019061022082860312156135e7578283fd5b6135f261014061469f565b823582811115613600578485fd5b61360c878286016131c5565b8252506020830135602082015260408301356040820152606083013560608201526080830135608082015260a083013560a082015260c083013560c082015260e083013560e08201526101009150818301358282015261012091506136738683850161314f565b91810191909152949350505050565b60006101a08284031215613694578081fd5b60405160c081018181106001600160401b03821117156136b6576136b66147cb565b806040525082358152602083013560208201526040830135604082015260608301356060820152608083013560808201526136f48460a0850161314f565b60a08201529392505050565b600060208284031215613711578081fd5b81356001600160401b03811115613726578182fd5b6113e38482850161329c565b60008060408385031215613744578182fd5b82356001600160401b038082111561375a578384fd5b6137668683870161329c565b9350602085013591508082111561377b578283fd5b50613788858286016131c5565b9150509250929050565b6000806000806101608086880312156137a9578283fd5b8535945060208601359350604086013592508681870111156137c9578182fd5b509295919450926060019150565b60008060008061016085870312156137ed578182fd5b84359350602085013592506040850135915061380c866060870161314f565b905092959194509250565b8060005b60028110156138455761382f84835161384b565b604093909301926020919091019060010161381b565b50505050565b8060005b600281101561384557815184526020938401939091019060010161384f565b8060005b6008811015613845578151845260209384019390910190600101613872565b6000815180845260208085019450808401835b838110156138c0578151875295820195908201906001016138a4565b509495945050505050565b805160009060208084018383156138c0578151875295820195908201906001016138a4565b6bffffffffffffffffffffffff19606093841b811682529190921b16601482015260280190565b6000613923828d6138cb565b8b81528a60208201528960408201528860608201528760808201528660a08201528560c08201528460e082015261395e61010082018561386e565b610200019c9b505050505050505050505050565b7f19457468657265756d205369676e6564204d6573736167653a0a3332000000008152601c810191909152603c0190565b90565b60008982526139b8602083018a6138cb565b8881526139c860208201896138cb565b90508681526139da60208201876138cb565b90508481526139ec602082018561386e565b610120019a9950505050505050505050565b600085825284602083015283604083015261010083606084013761016091909101908152949350505050565b6000858252846020830152836040830152613a48606083018461386e565b5061016001949350505050565b6000868252856020830152846040830152836060830152613a79608083018461386e565b506101800195945050505050565b6101008101613a96828661384b565b613aa36040830185613817565b6113e360c083018461384b565b6000610120613abf838861384b565b613acc6040840187613817565b613ad960c084018661384b565b80610100840152613aec81840185613891565b979650505050505050565b901515815260200190565b90815260200190565b93845260ff9290921660208401526040830152606082015260800190565b60e0810160038510613b3d57613b3d6147b5565b84825283516020830152602084015160408301526040840151606083015260608401516080830152608084015160a08301528260c0830152949350505050565b6020810160048310613b9157613b916147b5565b91905290565b60208082526018908201527f45434453413a20696e76616c6964207369676e61747572650000000000000000604082015260600190565b60208082526026908201527f556e697265703a2061747465737465722068617320616c72656164792073696760408201526506e65642075760d41b606082015260800190565b6020808252602b908201527f556e697265703a207468652070726f6f6620686173206265656e207375626d6960408201526a74746564206265666f726560a81b606082015260800190565b6020808252601f908201527f45434453413a20696e76616c6964207369676e6174757265206c656e67746800604082015260600190565b60208082526024908201527f556e697265703a20696e76616c6964206174746573746174696f6e20677261666040820152636669746960e01b606082015260800190565b60208082526034908201527f556e697265703a207375626d697420616e2061697264726f702070726f6f66206040820152730eed2e8d040d2dcc6dee4e4cac6e840cae0dec6d60631b606082015260800190565b6020808252602d908201527f556e697265703a20696e76616c6964206e756d626572206f6620626c696e646560408201526c6420757365722073746174657360981b606082015260800190565b6020808252602a908201527f556e697265703a20696e76616c6964206174746573746572207369676e207570604082015269207369676e617475726560b01b606082015260800190565b60208082526026908201527f556e697265703a20617474657374657220686173206e6f74207369676e6564206040820152651d5c081e595d60d21b606082015260800190565b6020808252601b908201527f556e697265703a2065706f6368206e6f742079657420656e6465640000000000604082015260600190565b6020808252601c908201527f556e697265703a20696e76616c6964207369676e20757020666c616700000000604082015260600190565b6020808252602c908201527f556e697265703a206e6f20617474657374696e6720666565206f7220696e636f60408201526b1c9c9958dd08185b5bdd5b9d60a21b606082015260800190565b60208082526036908201527f556e697265703a207375626d697420612072657075746174696f6e2070726f6f6040820152750cc40eed2e8d040d2dcc6dee4e4cac6e840cae0dec6d60531b606082015260800190565b6020808252603a908201527f416464726573733a20756e61626c6520746f2073656e642076616c75652c207260408201527f6563697069656e74206d61792068617665207265766572746564000000000000606082015260800190565b60208082526022908201527f45434453413a20696e76616c6964207369676e6174757265202773272076616c604082015261756560f01b606082015260800190565b6020808252601d908201527f416464726573733a20696e73756666696369656e742062616c616e6365000000604082015260600190565b6020808252602f908201527f556e697265703a20696e76616c6964206e756d626572206f662072657075746160408201526e74696f6e206e756c6c69666965727360881b606082015260800190565b60208082526036908201527f556e697265703a207375626d697420616e2065706f6368206b65792070726f6f6040820152750cc40eed2e8d040d2dcc6dee4e4cac6e840cae0dec6d60531b606082015260800190565b60208082526046908201527f43616e206e6f74207472616e736974696f6e2066726f6d2065706f636820746860408201527f617427732067726561746572206f7220657175616c20746f2063757272656e74606082015265040cae0dec6d60d31b608082015260a00190565b60208082526032908201527f556e697265703a206d6178696d756d206e756d626572206f6620617474657374604082015271195c881cda59db9d5c1cc81c995858da195960721b606082015260800190565b6020808252602d908201527f556e697265703a20696e76616c6964206e756d626572206f6620626c696e646560408201526c64206861736820636861696e7360981b606082015260800190565b60208082526022908201527f556e697265703a20696e76616c6964206174746573746174696f6e20706f7352604082015261065760f41b606082015260800190565b60208082526022908201527f45434453413a20696e76616c6964207369676e6174757265202776272076616c604082015261756560f01b606082015260800190565b60208082526026908201527f556e697265703a2074686520757365722068617320616c72656164792073696760408201526506e65642075760d41b606082015260800190565b6020808252602e908201527f556e697265703a206d6178696d756d206e756d626572206f662075736572207360408201526d1a59db9d5c1cc81c995858da195960921b606082015260800190565b6020808252601b908201527f556e697265703a20696e76616c69642070726f6f6620696e6465780000000000604082015260600190565b60208082526022908201527f556e697265703a20696e76616c6964206174746573746174696f6e206e656752604082015261065760f41b606082015260800190565b6020808252601d908201527f556e697265703a206d69736d6174636865642061747465737465724964000000604082015260600190565b6020808252603c908201527f556e697265703a2065616368207075626c6963207369676e616c206d7573742060408201527f6265206c742074686520736e61726b207363616c6172206669656c6400000000606082015260800190565b60208082526028908201527f556e697265703a20696e76616c6964206e756d626572206f662065706b206e756040820152676c6c69666965727360c01b606082015260800190565b60208082526035908201527f556e697265703a20696e636f727265637420617474657374657220494420696e604082015274103a3432903932b83aba30ba34b7b710383937b7b360591b606082015260800190565b6000610160820190508251825260208301516020830152604083015160408301526060830151614496606084018261386e565b5092915050565b600060208252825161022060208401526144bb610240840182613891565b9050602084015160408401526040840151606084015260608401516080840152608084015160a084015260a084015160c084015260c084015160e084015260e0840151610100818186015280860151915050610120818186015280860151915050612dd061014085018261386e565b60006101a082019050825182526020830151602083015260408301516040830152606083015160608301526080830151608083015260a083015161449660a084018261386e565b6000604082528351604083015260208401516101e06060840152614599610220840182613891565b9050604085015160808401526060850151603f19808584030160a08601526145c18383613891565b9250608087015160c086015260a08701519150808584030160e0860152506145e98282613891565b91505060c085015161010084015260e085015161460a61012085018261386e565b50828103602084015261461d8185613891565b95945050505050565b8281526101208101610100836020840137600081529392505050565b918252602082015260400190565b83815260208101839052610140810161010083604084013760008152949350505050565b60ff91909116815260200190565b60ff93841681529183166020830152909116604082015260600190565b6040518181016001600160401b03811182821017156146c0576146c06147cb565b604052919050565b600082198211156146db576146db61479f565b500190565b600060ff821660ff84168060ff038211156146fd576146fd61479f565b019392505050565b600081600019048311821515161561471f5761471f61479f565b500290565b600060ff821660ff84168160ff04811182151516156147455761474561479f565b029392505050565b60008282101561475f5761475f61479f565b500390565b60006000198214156147785761477861479f565b5060010190565b600060ff821660ff8114156147965761479661479f565b60010192915050565b634e487b7160e01b600052601160045260246000fd5b634e487b7160e01b600052602160045260246000fd5b634e487b7160e01b600052604160045260246000fdfea3019980c7e9844ee00c3f7584f329ac6dae8bcc2e08a756cf9651c8d2e96a6d30644e72e131a029b85045b68181585d2833e84879b9709143e1f593f0000001a264697066735822122079a54237feb07441fdeeb8920da1c10e28a7b4c494aebbef4ca9b76a2b21cd3c64736f6c63430008000033",
    "linkReferences": {},
    "deployedLinkReferences": {}
}