{
    "_format": "hh-sol-artifact-1",
    "contractName": "Unirep",
    "sourceName": "contracts/Unirep.sol",
    "abi": [
        {
            "inputs": [
                {
                    "components": [
                        {
                            "internalType": "uint8",
                            "name": "globalStateTreeDepth",
                            "type": "uint8"
                        },
                        {
                            "internalType": "uint8",
                            "name": "userStateTreeDepth",
                            "type": "uint8"
                        },
                        {
                            "internalType": "uint8",
                            "name": "nullifierTreeDepth",
                            "type": "uint8"
                        },
                        {
                            "internalType": "uint8",
                            "name": "epochTreeDepth",
                            "type": "uint8"
                        }
                    ],
                    "internalType": "struct UnirepParameters.TreeDepths",
                    "name": "_treeDepths",
                    "type": "tuple"
                },
                {
                    "components": [
                        {
                            "internalType": "uint256",
                            "name": "maxUsers",
                            "type": "uint256"
                        }
                    ],
                    "internalType": "struct UnirepParameters.MaxValues",
                    "name": "_maxValues",
                    "type": "tuple"
                },
                {
                    "internalType": "contract EpochKeyValidityVerifier",
                    "name": "_epkValidityVerifier",
                    "type": "address"
                },
                {
                    "internalType": "contract StartTransitionVerifier",
                    "name": "_startTransitionVerifier",
                    "type": "address"
                },
                {
                    "internalType": "contract ProcessAttestationsVerifier",
                    "name": "_processAttestationsVerifier",
                    "type": "address"
                },
                {
                    "internalType": "contract UserStateTransitionVerifier",
                    "name": "_userStateTransitionVerifier",
                    "type": "address"
                },
                {
                    "internalType": "contract ReputationVerifier",
                    "name": "_reputationVerifier",
                    "type": "address"
                },
                {
                    "internalType": "uint8",
                    "name": "_numEpochKeyNoncePerEpoch",
                    "type": "uint8"
                },
                {
                    "internalType": "uint256",
                    "name": "_epochLength",
                    "type": "uint256"
                },
                {
                    "internalType": "uint256",
                    "name": "_attestingFee",
                    "type": "uint256"
                }
            ],
            "stateMutability": "nonpayable",
            "type": "constructor"
        },
        {
            "anonymous": false,
            "inputs": [
                {
                    "indexed": true,
                    "internalType": "uint256",
                    "name": "_epoch",
                    "type": "uint256"
                },
                {
                    "indexed": true,
                    "internalType": "uint256",
                    "name": "_epochKey",
                    "type": "uint256"
                },
                {
                    "indexed": true,
                    "internalType": "address",
                    "name": "_attester",
                    "type": "address"
                },
                {
                    "components": [
                        {
                            "internalType": "uint256",
                            "name": "attesterId",
                            "type": "uint256"
                        },
                        {
                            "internalType": "uint256",
                            "name": "posRep",
                            "type": "uint256"
                        },
                        {
                            "internalType": "uint256",
                            "name": "negRep",
                            "type": "uint256"
                        },
                        {
                            "internalType": "uint256",
                            "name": "graffiti",
                            "type": "uint256"
                        }
                    ],
                    "indexed": false,
                    "internalType": "struct DomainObjs.Attestation",
                    "name": "attestation",
                    "type": "tuple"
                }
            ],
            "name": "AttestationSubmitted",
            "type": "event"
        },
        {
            "anonymous": false,
            "inputs": [
                {
                    "indexed": true,
                    "internalType": "uint256",
                    "name": "_epoch",
                    "type": "uint256"
                }
            ],
            "name": "EpochEnded",
            "type": "event"
        },
        {
            "anonymous": false,
            "inputs": [
                {
                    "indexed": true,
                    "internalType": "uint256",
                    "name": "_epoch",
                    "type": "uint256"
                },
                {
                    "indexed": false,
                    "internalType": "uint256",
                    "name": "_leafIndex",
                    "type": "uint256"
                },
                {
                    "indexed": false,
                    "internalType": "uint256",
                    "name": "_hashedLeaf",
                    "type": "uint256"
                },
                {
                    "indexed": false,
                    "internalType": "uint256",
                    "name": "_attesterId",
                    "type": "uint256"
                },
                {
                    "indexed": false,
                    "internalType": "uint256",
                    "name": "_airdropAmount",
                    "type": "uint256"
                }
            ],
            "name": "NewGSTLeafInserted",
            "type": "event"
        },
        {
            "anonymous": false,
            "inputs": [
                {
                    "indexed": false,
                    "internalType": "string",
                    "name": "_event",
                    "type": "string"
                }
            ],
            "name": "Sequencer",
            "type": "event"
        },
        {
            "anonymous": false,
            "inputs": [
                {
                    "indexed": true,
                    "internalType": "uint256",
                    "name": "_toEpoch",
                    "type": "uint256"
                },
                {
                    "indexed": false,
                    "internalType": "uint256",
                    "name": "_leafIndex",
                    "type": "uint256"
                },
                {
                    "components": [
                        {
                            "internalType": "uint256",
                            "name": "fromEpoch",
                            "type": "uint256"
                        },
                        {
                            "internalType": "uint256",
                            "name": "fromGlobalStateTree",
                            "type": "uint256"
                        },
                        {
                            "internalType": "uint256",
                            "name": "fromEpochTree",
                            "type": "uint256"
                        },
                        {
                            "internalType": "uint256",
                            "name": "newGlobalStateTreeLeaf",
                            "type": "uint256"
                        },
                        {
                            "internalType": "uint256[8]",
                            "name": "proof",
                            "type": "uint256[8]"
                        },
                        {
                            "internalType": "uint256[]",
                            "name": "blindedUserStates",
                            "type": "uint256[]"
                        },
                        {
                            "internalType": "uint256[]",
                            "name": "blindedHashChains",
                            "type": "uint256[]"
                        },
                        {
                            "internalType": "uint256[]",
                            "name": "epkNullifiers",
                            "type": "uint256[]"
                        }
                    ],
                    "indexed": false,
                    "internalType": "struct UnirepParameters.UserTransitionedRelated",
                    "name": "userTransitionedData",
                    "type": "tuple"
                }
            ],
            "name": "UserStateTransitioned",
            "type": "event"
        },
        {
            "inputs": [
                {
                    "internalType": "address",
                    "name": "",
                    "type": "address"
                }
            ],
            "name": "airdropAmount",
            "outputs": [
                {
                    "internalType": "uint256",
                    "name": "",
                    "type": "uint256"
                }
            ],
            "stateMutability": "view",
            "type": "function"
        },
        {
            "inputs": [],
            "name": "attesterSignUp",
            "outputs": [],
            "stateMutability": "nonpayable",
            "type": "function"
        },
        {
            "inputs": [
                {
                    "internalType": "address",
                    "name": "attester",
                    "type": "address"
                },
                {
                    "internalType": "bytes",
                    "name": "signature",
                    "type": "bytes"
                }
            ],
            "name": "attesterSignUpViaRelayer",
            "outputs": [],
            "stateMutability": "nonpayable",
            "type": "function"
        },
        {
            "inputs": [
                {
                    "internalType": "address",
                    "name": "",
                    "type": "address"
                }
            ],
            "name": "attesters",
            "outputs": [
                {
                    "internalType": "uint256",
                    "name": "",
                    "type": "uint256"
                }
            ],
            "stateMutability": "view",
            "type": "function"
        },
        {
            "inputs": [],
            "name": "attestingFee",
            "outputs": [
                {
                    "internalType": "uint256",
                    "name": "",
                    "type": "uint256"
                }
            ],
            "stateMutability": "view",
            "type": "function"
        },
        {
            "inputs": [
                {
                    "internalType": "uint256",
                    "name": "numEpochKeysToSeal",
                    "type": "uint256"
                }
            ],
            "name": "beginEpochTransition",
            "outputs": [],
            "stateMutability": "nonpayable",
            "type": "function"
        },
        {
            "inputs": [],
            "name": "burnAttestingFee",
            "outputs": [],
            "stateMutability": "nonpayable",
            "type": "function"
        },
        {
            "inputs": [
                {
                    "internalType": "uint256",
                    "name": "_leafIndex",
                    "type": "uint256"
                },
                {
                    "internalType": "uint256",
                    "name": "_leafValue",
                    "type": "uint256"
                }
            ],
            "name": "calcAirdropUSTRoot",
            "outputs": [
                {
                    "internalType": "uint256",
                    "name": "",
                    "type": "uint256"
                }
            ],
            "stateMutability": "view",
            "type": "function"
        },
        {
            "inputs": [],
            "name": "collectEpochTransitionCompensation",
            "outputs": [],
            "stateMutability": "nonpayable",
            "type": "function"
        },
        {
            "inputs": [],
            "name": "collectedAttestingFee",
            "outputs": [
                {
                    "internalType": "uint256",
                    "name": "",
                    "type": "uint256"
                }
            ],
            "stateMutability": "view",
            "type": "function"
        },
        {
            "inputs": [
                {
                    "internalType": "uint8",
                    "name": "_treeLevels",
                    "type": "uint8"
                },
                {
                    "internalType": "uint256",
                    "name": "_zeroValue",
                    "type": "uint256"
                }
            ],
            "name": "computeEmptyRoot",
            "outputs": [
                {
                    "internalType": "uint256",
                    "name": "",
                    "type": "uint256"
                }
            ],
            "stateMutability": "pure",
            "type": "function"
        },
        {
            "inputs": [
                {
                    "internalType": "uint8",
                    "name": "_treeLevels",
                    "type": "uint8"
                },
                {
                    "internalType": "uint256",
                    "name": "_leafIndex",
                    "type": "uint256"
                },
                {
                    "internalType": "uint256",
                    "name": "_leafValue",
                    "type": "uint256"
                },
                {
                    "internalType": "uint256",
                    "name": "_zeroValue",
                    "type": "uint256"
                }
            ],
            "name": "computeOneNonZeroLeafRoot",
            "outputs": [
                {
                    "internalType": "uint256",
                    "name": "",
                    "type": "uint256"
                }
            ],
            "stateMutability": "pure",
            "type": "function"
        },
        {
            "inputs": [],
            "name": "currentEpoch",
            "outputs": [
                {
                    "internalType": "uint256",
                    "name": "",
                    "type": "uint256"
                }
            ],
            "stateMutability": "view",
            "type": "function"
        },
        {
            "inputs": [],
            "name": "emptyGlobalStateTreeRoot",
            "outputs": [
                {
                    "internalType": "uint256",
                    "name": "",
                    "type": "uint256"
                }
            ],
            "stateMutability": "view",
            "type": "function"
        },
        {
            "inputs": [],
            "name": "emptyUserStateRoot",
            "outputs": [
                {
                    "internalType": "uint256",
                    "name": "",
                    "type": "uint256"
                }
            ],
            "stateMutability": "view",
            "type": "function"
        },
        {
            "inputs": [
                {
                    "internalType": "uint256",
                    "name": "",
                    "type": "uint256"
                }
            ],
            "name": "epochKeyHashchain",
            "outputs": [
                {
                    "internalType": "uint256",
                    "name": "",
                    "type": "uint256"
                }
            ],
            "stateMutability": "view",
            "type": "function"
        },
        {
            "inputs": [],
            "name": "epochLength",
            "outputs": [
                {
                    "internalType": "uint256",
                    "name": "",
                    "type": "uint256"
                }
            ],
            "stateMutability": "view",
            "type": "function"
        },
        {
            "inputs": [
                {
                    "internalType": "address",
                    "name": "",
                    "type": "address"
                }
            ],
            "name": "epochTransitionCompensation",
            "outputs": [
                {
                    "internalType": "uint256",
                    "name": "",
                    "type": "uint256"
                }
            ],
            "stateMutability": "view",
            "type": "function"
        },
        {
            "inputs": [
                {
                    "internalType": "uint256",
                    "name": "epoch",
                    "type": "uint256"
                },
                {
                    "internalType": "uint256",
                    "name": "index",
                    "type": "uint256"
                }
            ],
            "name": "getEpochKey",
            "outputs": [
                {
                    "internalType": "uint256",
                    "name": "",
                    "type": "uint256"
                }
            ],
            "stateMutability": "view",
            "type": "function"
        },
        {
            "inputs": [
                {
                    "internalType": "uint256",
                    "name": "epoch",
                    "type": "uint256"
                }
            ],
            "name": "getEpochTreeLeaves",
            "outputs": [
                {
                    "internalType": "uint256[]",
                    "name": "epochKeyList",
                    "type": "uint256[]"
                },
                {
                    "internalType": "uint256[]",
                    "name": "epochKeyHashChainList",
                    "type": "uint256[]"
                }
            ],
            "stateMutability": "view",
            "type": "function"
        },
        {
            "inputs": [
                {
                    "internalType": "uint256",
                    "name": "epoch",
                    "type": "uint256"
                }
            ],
            "name": "getNumEpochKey",
            "outputs": [
                {
                    "internalType": "uint256",
                    "name": "",
                    "type": "uint256"
                }
            ],
            "stateMutability": "view",
            "type": "function"
        },
        {
            "inputs": [
                {
                    "internalType": "uint256",
                    "name": "epoch",
                    "type": "uint256"
                }
            ],
            "name": "getNumSealedEpochKey",
            "outputs": [
                {
                    "internalType": "uint256",
                    "name": "",
                    "type": "uint256"
                }
            ],
            "stateMutability": "view",
            "type": "function"
        },
        {
            "inputs": [
                {
                    "internalType": "uint256",
                    "name": "",
                    "type": "uint256"
                }
            ],
            "name": "hasUserSignedUp",
            "outputs": [
                {
                    "internalType": "bool",
                    "name": "",
                    "type": "bool"
                }
            ],
            "stateMutability": "view",
            "type": "function"
        },
        {
            "inputs": [
                {
                    "internalType": "uint256[5]",
                    "name": "array",
                    "type": "uint256[5]"
                }
            ],
            "name": "hash5",
            "outputs": [
                {
                    "internalType": "uint256",
                    "name": "",
                    "type": "uint256"
                }
            ],
            "stateMutability": "pure",
            "type": "function"
        },
        {
            "inputs": [
                {
                    "internalType": "uint256",
                    "name": "airdropPosRep",
                    "type": "uint256"
                }
            ],
            "name": "hashAirdroppedLeaf",
            "outputs": [
                {
                    "internalType": "uint256",
                    "name": "",
                    "type": "uint256"
                }
            ],
            "stateMutability": "pure",
            "type": "function"
        },
        {
            "inputs": [
                {
                    "internalType": "uint256",
                    "name": "_left",
                    "type": "uint256"
                },
                {
                    "internalType": "uint256",
                    "name": "_right",
                    "type": "uint256"
                }
            ],
            "name": "hashLeftRight",
            "outputs": [
                {
                    "internalType": "uint256",
                    "name": "",
                    "type": "uint256"
                }
            ],
            "stateMutability": "pure",
            "type": "function"
        },
        {
            "inputs": [
                {
                    "components": [
                        {
                            "internalType": "uint256",
                            "name": "identityCommitment",
                            "type": "uint256"
                        },
                        {
                            "internalType": "uint256",
                            "name": "userStateRoot",
                            "type": "uint256"
                        }
                    ],
                    "internalType": "struct DomainObjs.StateLeaf",
                    "name": "_stateLeaf",
                    "type": "tuple"
                }
            ],
            "name": "hashStateLeaf",
            "outputs": [
                {
                    "internalType": "uint256",
                    "name": "",
                    "type": "uint256"
                }
            ],
            "stateMutability": "pure",
            "type": "function"
        },
        {
            "inputs": [],
            "name": "hashedBlankStateLeaf",
            "outputs": [
                {
                    "internalType": "uint256",
                    "name": "",
                    "type": "uint256"
                }
            ],
            "stateMutability": "view",
            "type": "function"
        },
        {
            "inputs": [
                {
                    "internalType": "uint256",
                    "name": "",
                    "type": "uint256"
                }
            ],
            "name": "isEpochKeyHashChainSealed",
            "outputs": [
                {
                    "internalType": "bool",
                    "name": "",
                    "type": "bool"
                }
            ],
            "stateMutability": "view",
            "type": "function"
        },
        {
            "inputs": [],
            "name": "latestEpochTransitionTime",
            "outputs": [
                {
                    "internalType": "uint256",
                    "name": "",
                    "type": "uint256"
                }
            ],
            "stateMutability": "view",
            "type": "function"
        },
        {
            "inputs": [],
            "name": "maxUsers",
            "outputs": [
                {
                    "internalType": "uint256",
                    "name": "",
                    "type": "uint256"
                }
            ],
            "stateMutability": "view",
            "type": "function"
        },
        {
            "inputs": [],
            "name": "nextAttesterId",
            "outputs": [
                {
                    "internalType": "uint256",
                    "name": "",
                    "type": "uint256"
                }
            ],
            "stateMutability": "view",
            "type": "function"
        },
        {
            "inputs": [
                {
                    "internalType": "uint256",
                    "name": "",
                    "type": "uint256"
                }
            ],
            "name": "numAttestationsToEpochKey",
            "outputs": [
                {
                    "internalType": "uint8",
                    "name": "",
                    "type": "uint8"
                }
            ],
            "stateMutability": "view",
            "type": "function"
        },
        {
            "inputs": [],
            "name": "numEpochKeyNoncePerEpoch",
            "outputs": [
                {
                    "internalType": "uint8",
                    "name": "",
                    "type": "uint8"
                }
            ],
            "stateMutability": "view",
            "type": "function"
        },
        {
            "inputs": [],
            "name": "numUserSignUps",
            "outputs": [
                {
                    "internalType": "uint256",
                    "name": "",
                    "type": "uint256"
                }
            ],
            "stateMutability": "view",
            "type": "function"
        },
        {
            "inputs": [
                {
                    "internalType": "uint256",
                    "name": "_outputBlindedUserState",
                    "type": "uint256"
                },
                {
                    "internalType": "uint256",
                    "name": "_outputBlindedHashChain",
                    "type": "uint256"
                },
                {
                    "internalType": "uint256",
                    "name": "_inputBlindedUserState",
                    "type": "uint256"
                },
                {
                    "internalType": "uint256[8]",
                    "name": "_proof",
                    "type": "uint256[8]"
                }
            ],
            "name": "processAttestations",
            "outputs": [],
            "stateMutability": "nonpayable",
            "type": "function"
        },
        {
            "inputs": [
                {
                    "internalType": "uint256",
                    "name": "_airdropAmount",
                    "type": "uint256"
                }
            ],
            "name": "setAirdropAmount",
            "outputs": [],
            "stateMutability": "nonpayable",
            "type": "function"
        },
        {
            "inputs": [
                {
                    "internalType": "uint256",
                    "name": "_blindedUserState",
                    "type": "uint256"
                },
                {
                    "internalType": "uint256",
                    "name": "_blindedHashChain",
                    "type": "uint256"
                },
                {
                    "internalType": "uint256",
                    "name": "_GSTRoot",
                    "type": "uint256"
                },
                {
                    "internalType": "uint256[8]",
                    "name": "_proof",
                    "type": "uint256[8]"
                }
            ],
            "name": "startUserStateTransition",
            "outputs": [],
            "stateMutability": "nonpayable",
            "type": "function"
        },
        {
            "inputs": [
                {
                    "components": [
                        {
                            "internalType": "uint256",
                            "name": "attesterId",
                            "type": "uint256"
                        },
                        {
                            "internalType": "uint256",
                            "name": "posRep",
                            "type": "uint256"
                        },
                        {
                            "internalType": "uint256",
                            "name": "negRep",
                            "type": "uint256"
                        },
                        {
                            "internalType": "uint256",
                            "name": "graffiti",
                            "type": "uint256"
                        }
                    ],
                    "internalType": "struct DomainObjs.Attestation",
                    "name": "attestation",
                    "type": "tuple"
                },
                {
                    "internalType": "uint256",
                    "name": "epochKey",
                    "type": "uint256"
                }
            ],
            "name": "submitAttestation",
            "outputs": [],
            "stateMutability": "payable",
            "type": "function"
        },
        {
            "inputs": [
                {
                    "internalType": "address",
                    "name": "attester",
                    "type": "address"
                },
                {
                    "internalType": "bytes",
                    "name": "signature",
                    "type": "bytes"
                },
                {
                    "components": [
                        {
                            "internalType": "uint256",
                            "name": "attesterId",
                            "type": "uint256"
                        },
                        {
                            "internalType": "uint256",
                            "name": "posRep",
                            "type": "uint256"
                        },
                        {
                            "internalType": "uint256",
                            "name": "negRep",
                            "type": "uint256"
                        },
                        {
                            "internalType": "uint256",
                            "name": "graffiti",
                            "type": "uint256"
                        }
                    ],
                    "internalType": "struct DomainObjs.Attestation",
                    "name": "attestation",
                    "type": "tuple"
                },
                {
                    "internalType": "uint256",
                    "name": "epochKey",
                    "type": "uint256"
                }
            ],
            "name": "submitAttestationViaRelayer",
            "outputs": [],
            "stateMutability": "payable",
            "type": "function"
        },
        {
            "inputs": [],
            "name": "treeDepths",
            "outputs": [
                {
                    "internalType": "uint8",
                    "name": "globalStateTreeDepth",
                    "type": "uint8"
                },
                {
                    "internalType": "uint8",
                    "name": "userStateTreeDepth",
                    "type": "uint8"
                },
                {
                    "internalType": "uint8",
                    "name": "nullifierTreeDepth",
                    "type": "uint8"
                },
                {
                    "internalType": "uint8",
                    "name": "epochTreeDepth",
                    "type": "uint8"
                }
            ],
            "stateMutability": "view",
            "type": "function"
        },
        {
            "inputs": [
                {
                    "internalType": "uint256[8]",
                    "name": "_proof",
                    "type": "uint256[8]"
                }
            ],
            "name": "unpackProof",
            "outputs": [
                {
                    "internalType": "uint256[2]",
                    "name": "",
                    "type": "uint256[2]"
                },
                {
                    "internalType": "uint256[2][2]",
                    "name": "",
                    "type": "uint256[2][2]"
                },
                {
                    "internalType": "uint256[2]",
                    "name": "",
                    "type": "uint256[2]"
                }
            ],
            "stateMutability": "pure",
            "type": "function"
        },
        {
            "inputs": [
                {
                    "internalType": "uint256",
                    "name": "_newGlobalStateTreeLeaf",
                    "type": "uint256"
                },
                {
                    "internalType": "uint256[]",
                    "name": "_epkNullifiers",
                    "type": "uint256[]"
                },
                {
                    "internalType": "uint256[]",
                    "name": "_blindedUserStates",
                    "type": "uint256[]"
                },
                {
                    "internalType": "uint256[]",
                    "name": "_blindedHashChains",
                    "type": "uint256[]"
                },
                {
                    "internalType": "uint256",
                    "name": "_transitionFromEpoch",
                    "type": "uint256"
                },
                {
                    "internalType": "uint256",
                    "name": "_fromGlobalStateTree",
                    "type": "uint256"
                },
                {
                    "internalType": "uint256",
                    "name": "_fromEpochTree",
                    "type": "uint256"
                },
                {
                    "internalType": "uint256[8]",
                    "name": "_proof",
                    "type": "uint256[8]"
                }
            ],
            "name": "updateUserStateRoot",
            "outputs": [],
            "stateMutability": "nonpayable",
            "type": "function"
        },
        {
            "inputs": [
                {
                    "internalType": "uint256",
                    "name": "_identityCommitment",
                    "type": "uint256"
                }
            ],
            "name": "userSignUp",
            "outputs": [],
            "stateMutability": "nonpayable",
            "type": "function"
        },
        {
            "inputs": [
                {
                    "internalType": "uint256",
                    "name": "_globalStateTree",
                    "type": "uint256"
                },
                {
                    "internalType": "uint256",
                    "name": "_epoch",
                    "type": "uint256"
                },
                {
                    "internalType": "uint256",
                    "name": "_epochKey",
                    "type": "uint256"
                },
                {
                    "internalType": "uint256[8]",
                    "name": "_proof",
                    "type": "uint256[8]"
                }
            ],
            "name": "verifyEpochKeyValidity",
            "outputs": [
                {
                    "internalType": "bool",
                    "name": "",
                    "type": "bool"
                }
            ],
            "stateMutability": "view",
            "type": "function"
        },
        {
            "inputs": [
                {
                    "internalType": "uint256",
                    "name": "_outputBlindedUserState",
                    "type": "uint256"
                },
                {
                    "internalType": "uint256",
                    "name": "_outputBlindedHashChain",
                    "type": "uint256"
                },
                {
                    "internalType": "uint256",
                    "name": "_inputBlindedUserState",
                    "type": "uint256"
                },
                {
                    "internalType": "uint256[8]",
                    "name": "_proof",
                    "type": "uint256[8]"
                }
            ],
            "name": "verifyProcessAttestationProof",
            "outputs": [
                {
                    "internalType": "bool",
                    "name": "",
                    "type": "bool"
                }
            ],
            "stateMutability": "view",
            "type": "function"
        },
        {
            "inputs": [
                {
                    "internalType": "uint256",
                    "name": "_epoch",
                    "type": "uint256"
                },
                {
                    "internalType": "uint256",
                    "name": "_globalStateTree",
                    "type": "uint256"
                },
                {
                    "internalType": "uint256",
                    "name": "_nullifierTree",
                    "type": "uint256"
                },
                {
                    "internalType": "uint256",
                    "name": "_attesterId",
                    "type": "uint256"
                },
                {
                    "components": [
                        {
                            "internalType": "uint256",
                            "name": "provePosRep",
                            "type": "uint256"
                        },
                        {
                            "internalType": "uint256",
                            "name": "proveNegRep",
                            "type": "uint256"
                        },
                        {
                            "internalType": "uint256",
                            "name": "proveRepDiff",
                            "type": "uint256"
                        },
                        {
                            "internalType": "uint256",
                            "name": "proveGraffiti",
                            "type": "uint256"
                        },
                        {
                            "internalType": "uint256",
                            "name": "minRepDiff",
                            "type": "uint256"
                        },
                        {
                            "internalType": "uint256",
                            "name": "minPosRep",
                            "type": "uint256"
                        },
                        {
                            "internalType": "uint256",
                            "name": "maxNegRep",
                            "type": "uint256"
                        },
                        {
                            "internalType": "uint256",
                            "name": "graffitiPreImage",
                            "type": "uint256"
                        }
                    ],
                    "internalType": "struct UnirepParameters.ReputationProofSignals",
                    "name": "_proofSignals",
                    "type": "tuple"
                },
                {
                    "internalType": "uint256[8]",
                    "name": "_proof",
                    "type": "uint256[8]"
                }
            ],
            "name": "verifyReputation",
            "outputs": [
                {
                    "internalType": "bool",
                    "name": "",
                    "type": "bool"
                }
            ],
            "stateMutability": "view",
            "type": "function"
        },
        {
            "inputs": [
                {
                    "internalType": "uint256",
                    "name": "_blindedUserState",
                    "type": "uint256"
                },
                {
                    "internalType": "uint256",
                    "name": "_blindedHashChain",
                    "type": "uint256"
                },
                {
                    "internalType": "uint256",
                    "name": "_GSTRoot",
                    "type": "uint256"
                },
                {
                    "internalType": "uint256[8]",
                    "name": "_proof",
                    "type": "uint256[8]"
                }
            ],
            "name": "verifyStartTransitionProof",
            "outputs": [
                {
                    "internalType": "bool",
                    "name": "",
                    "type": "bool"
                }
            ],
            "stateMutability": "view",
            "type": "function"
        },
        {
            "inputs": [
                {
                    "internalType": "uint256",
                    "name": "_newGlobalStateTreeLeaf",
                    "type": "uint256"
                },
                {
                    "internalType": "uint256[]",
                    "name": "_epkNullifiers",
                    "type": "uint256[]"
                },
                {
                    "internalType": "uint256",
                    "name": "_transitionFromEpoch",
                    "type": "uint256"
                },
                {
                    "internalType": "uint256[]",
                    "name": "_blindedUserStates",
                    "type": "uint256[]"
                },
                {
                    "internalType": "uint256",
                    "name": "_fromGlobalStateTree",
                    "type": "uint256"
                },
                {
                    "internalType": "uint256[]",
                    "name": "_blindedHashChains",
                    "type": "uint256[]"
                },
                {
                    "internalType": "uint256",
                    "name": "_fromEpochTree",
                    "type": "uint256"
                },
                {
                    "internalType": "uint256[8]",
                    "name": "_proof",
                    "type": "uint256[8]"
                }
            ],
            "name": "verifyUserStateTransition",
            "outputs": [
                {
                    "internalType": "bool",
                    "name": "",
                    "type": "bool"
                }
            ],
            "stateMutability": "view",
            "type": "function"
        }
    ],
    "bytecode": "0x6101206040527f30644e72e131a029b85045b68181585d2833e84879b9709143e1f593f0000001620000336101406200064a565b6040516020818303038152906040528051906020012060001c620000589190620008fc565b600055600160065560006009556000600a556001600f553480156200007c57600080fd5b5060405162004f2638038062004f268339810160408190526200009f916200051a565b89516017805460208d015160408e015160608f015160ff1990931660ff9586161761ff001916610100928616929092029190911762ff0000191662010000918516919091021763ff000000191663010000009390911692909202919091179055600180546001600160a01b03199081166001600160a01b038b81169190911783556002805483168b83161781556003805484168b84161790556004805484168a8416179055600580549093169188169190911790915560f885901b7fff000000000000000000000000000000000000000000000000000000000000001660c0526080849052426007558b51600092916200019a9190620007c7565b620001a69190620008bf565b9050808a600001511115620001d85760405162461bcd60e51b8152600401620001cf906200070b565b60405180910390fd5b895160e05260208b0151620001ed9062000215565b6008558a51620001fd9062000297565b60a05250610100525062000933975050505050505050565b6000620002216200048c565b60005b60058160ff16101562000271576000828260ff16600581106200025757634e487b7160e01b600052603260045260246000fd5b6020020152806200026881620008d9565b91505062000224565b5060006200027f82620002bb565b90506200028d848262000351565b925050505b919050565b604080518082019091526000808252600854602083015290816200027f82620003d9565b604051630926f44b60e31b815260009073__$223301b175b06473d424a7afc957d4e96c$__90634937a25890620002f79085906004016200068f565b60206040518083038186803b1580156200031057600080fd5b505af415801562000325573d6000803e3d6000fd5b505050506040513d601f19601f820116820180604052508101906200034b919062000631565b92915050565b6000808360ff161180156200036b57506101008360ff1611155b6200038a5760405162461bcd60e51b8152600401620001cf90620006b9565b8160015b8460ff168160ff161015620003c4576000620003ab8380620003e9565b9250819050620003bb81620008d9565b9150506200038e565b50620003d18180620003e9565b949350505050565b805160208201516000916200034b915b6000620003f5620004aa565b838152602081018390526040516314d2f97b60e11b815273__$86e0c54df1042e28bf2dd20ccf184dc428$__906329a5f2f690620004389084906004016200065c565b60206040518083038186803b1580156200045157600080fd5b505af415801562000466573d6000803e3d6000fd5b505050506040513d601f19601f82011682018060405250810190620003d1919062000631565b6040518060a001604052806005906020820280368337509192915050565b60405180604001604052806002906020820280368337509192915050565b80516001600160a01b03811681146200029257600080fd5b600060208284031215620004f2578081fd5b620004fe602062000742565b9151825250919050565b805160ff811681146200029257600080fd5b6000806000806000806000806000808a8c036101a08112156200053b578687fd5b608081121562000549578687fd5b5062000556608062000742565b620005618c62000508565b81526200057160208d0162000508565b60208201526200058460408d0162000508565b60408201526200059760608d0162000508565b60608201529950620005ad8c60808d01620004e0565b9850620005bd60a08c01620004c8565b9750620005cd60c08c01620004c8565b9650620005dd60e08c01620004c8565b9550620005ee6101008c01620004c8565b9450620005ff6101208c01620004c8565b9350620006106101408c0162000508565b92506101608b015191506101808b015190509295989b9194979a5092959850565b60006020828403121562000643578081fd5b5051919050565b650556e697265760d41b815260060190565b60408101818360005b60028110156200068657815183526020928301929091019060010162000665565b50505092915050565b60a08101818360005b60058110156200068657815183526020928301929091019060010162000698565b60208082526032908201527f436f6d70757465526f6f743a205f747265654c6576656c73206d757374206265604082015271103132ba3bb2b2b710181030b73210191a9b60711b606082015260800190565b6020808252601e908201527f556e697265703a20696e76616c6964206d617855736572732076616c75650000604082015260600190565b6040518181016001600160401b03811182821017156200077257634e487b7160e01b600052604160045260246000fd5b604052919050565b80825b60018086116200078e5750620007be565b818704821115620007a357620007a36200091d565b80861615620007b157918102915b9490941c9380026200077d565b94509492505050565b6000620007db60001960ff851684620007e2565b9392505050565b600082620007f357506001620007db565b816200080257506000620007db565b81600181146200081b576002811462000826576200085a565b6001915050620007db565b60ff8411156200083a576200083a6200091d565b6001841b9150848211156200085357620008536200091d565b50620007db565b5060208310610133831016604e8410600b841016171562000892575081810a838111156200088c576200088c6200091d565b620007db565b620008a184848460016200077a565b808604821115620008b657620008b66200091d565b02949350505050565b600082821015620008d457620008d46200091d565b500390565b600060ff821660ff811415620008f357620008f36200091d565b60010192915050565b6000826200091857634e487b7160e01b81526012600452602481fd5b500690565b634e487b7160e01b600052601160045260246000fd5b60805160a05160c05160f81c60e05161010051614542620009e46000396000818161195601528181611cef0152611f93015260008181610bd801526120ff0152600081816111010152818161114401528181611ed00152818161212f015281816121e701528181612291015281816122e901528181612343015281816123be015281816124210152818161247b015261250101526000611b9c01526000818161088d015261149b01526145426000f3fe6080604052600436106102ae5760003560e01c806383e168ad11610175578063a7ebaa75116100dc578063d3aa645b11610095578063f20ca7ff1161006f578063f20ca7ff146107d9578063f5ab0dd6146107f9578063f73c8ebb14610828578063fc14478a14610848576102ae565b8063d3aa645b1461078f578063e1b0e802146107af578063e87101b1146107c4576102ae565b8063a7ebaa75146106ed578063aa69e1a214610702578063ac98e5df14610715578063b530dc8c1461073a578063b876ed711461075a578063c6e012321461077a576102ae565b8063a3836b201161012e578063a3836b2014610650578063a4ecf46914610665578063a5500c3014610685578063a56d45db146106a5578063a710d60f146106b8578063a7c264ca146106d8576102ae565b806383e168ad146105b15780639109d1eb146105d1578063918f0c16146105e657806398588c1f146105fb5780639cfced971461061b578063a27e572a1461063b576102ae565b80634d6f77a711610219578063705edd39116101d2578063705edd39146105045780637341ead9146105195780637667180814610539578063777a296e1461054e5780637aeb103f1461056e578063839beeb81461059c576102ae565b80634d6f77a71461045a5780634edc9ace1461047a57806356df46341461049a57806357d775f8146104af5780635b3745b5146104c45780635bb93995146104e4576102ae565b80632b95f97e1161026b5780632b95f97e1461039a5780632fa6773b146103ba5780633acce985146103da578063417b16e3146103fa578063458cddb31461041a5780634cce1a9a1461043a576102ae565b806307d83308146102b3578063083789d3146102de57806309663b29146102fe5780631135f0cf14610320578063131a91ad1461034d5780631c89e8e81461036d575b600080fd5b3480156102bf57600080fd5b506102c8610868565b6040516102d5919061428c565b60405180910390f35b3480156102ea57600080fd5b506102c86102f936600461342b565b61086e565b34801561030a57600080fd5b5061031e61031936600461342b565b610886565b005b34801561032c57600080fd5b5061034061033b36600461342b565b610a6a565b6040516102d59190614358565b34801561035957600080fd5b506102c86103683660046131c9565b610a7f565b34801561037957600080fd5b5061038d61038836600461342b565b610a91565b6040516102d591906139c4565b3480156103a657600080fd5b506102c86103b536600461342b565b610aa6565b3480156103c657600080fd5b506102c86103d536600461342b565b610b0f565b3480156103e657600080fd5b506102c86103f53660046135eb565b610b21565b34801561040657600080fd5b5061031e61041536600461342b565b610ba7565b34801561042657600080fd5b5061038d610435366004613681565b610d35565b34801561044657600080fd5b5061031e61045536600461345b565b6110dc565b34801561046657600080fd5b506102c861047536600461342b565b6113b5565b34801561048657600080fd5b506102c861049536600461375d565b6113c7565b3480156104a657600080fd5b5061031e611443565b3480156104bb57600080fd5b506102c8611499565b3480156104d057600080fd5b5061038d6104df36600461364c565b6114bd565b3480156104f057600080fd5b506102c86104ff3660046135eb565b6116a2565b34801561051057600080fd5b506102c861173d565b34801561052557600080fd5b506102c86105343660046133de565b611764565b34801561054557600080fd5b506102c8611778565b34801561055a57600080fd5b506102c86105693660046135eb565b61177e565b34801561057a57600080fd5b5061058e61058936600461342b565b6117cd565b6040516102d5929190613996565b3480156105a857600080fd5b506102c8611954565b3480156105bd57600080fd5b506102c86105cc366004613786565b611978565b3480156105dd57600080fd5b506102c8611a37565b3480156105f257600080fd5b506102c8611a3d565b34801561060757600080fd5b5061031e6106163660046131e3565b611a43565b34801561062757600080fd5b506102c861063636600461329e565b611aee565b34801561064757600080fd5b5061031e611b78565b34801561065c57600080fd5b506102c8611b9a565b34801561067157600080fd5b5061038d61068036600461342b565b611bbe565b34801561069157600080fd5b5061031e6106a036600461342b565b611bd3565b61031e6106b3366004613233565b611c11565b3480156106c457600080fd5b5061038d6106d336600461364c565b611d4e565b3480156106e457600080fd5b50610340611ece565b3480156106f957600080fd5b5061031e611ef2565b61031e610710366004613350565b611f07565b34801561072157600080fd5b5061072a611fef565b6040516102d59493929190614366565b34801561074657600080fd5b506102c86107553660046131c9565b612014565b34801561076657600080fd5b5061031e61077536600461360c565b612026565b34801561078657600080fd5b506102c86120e5565b34801561079b57600080fd5b506102c86107aa3660046131c9565b6120eb565b3480156107bb57600080fd5b506102c86120fd565b3480156107d057600080fd5b506102c8612121565b3480156107e557600080fd5b5061038d6107f436600461352c565b612127565b34801561080557600080fd5b50610819610814366004613314565b6126bf565b6040516102d5939291906138fe565b34801561083457600080fd5b5061031e61084336600461360c565b612748565b34801561085457600080fd5b5061038d61086336600461364c565b6127b2565b600c5481565b6000818152601360205260409020600201545b919050565b60005a90507f0000000000000000000000000000000000000000000000000000000000000000600754426108ba9190614424565b10156108e15760405162461bcd60e51b81526004016108d890613be3565b60405180910390fd5b600654600090815260136020526040812060028101549054829061090e906109098488612932565b61293e565b9050815b8181101561098b5760065460009081526013602090815260408083208484526001908101835281842054808552601190935292205490955061095491906116a2565b6000858152601160209081526040808320939093556010905220805460ff19166001179055806109838161443b565b915050610912565b5060068054600090815260136020526040808220600201849055915481522054811415610a20576000805160206144ed8339815191526040516109cd90613cb8565b60405180910390a16006546040517f751bb1ba7b27b3979a32844d4d05aa16a46a771b751593704834a80311e3a9b990600090a24260075560068054906000610a158361443b565b90915550506000600a555b6000610a2d5a8690612956565b9050610a52610a3c823a612962565b336000908152600d602052604090205490612932565b336000908152600d6020526040902055505050505050565b60126020526000908152604090205460ff1681565b600e6020526000908152604090205481565b600b6020526000908152604090205460ff1681565b6000610ab0612f75565b82815260015b60058160ff161015610afe576000828260ff1660058110610ae757634e487b7160e01b600052603260045260246000fd5b602002015280610af681614456565b915050610ab6565b50610b0881611aee565b9392505050565b60116020526000908152604090205481565b6000610b2b612f75565b60005b60058160ff161015610b76576000828260ff1660058110610b5f57634e487b7160e01b600052603260045260246000fd5b602002015280610b6e81614456565b915050610b2e565b506000610b8282611aee565b601754909150610b9c90610100900460ff16868684611978565b925050505b92915050565b6000818152600b602052604090205460ff1615610bd65760405162461bcd60e51b81526004016108d890613fdd565b7f000000000000000000000000000000000000000000000000000000000000000060095410610c175760405162461bcd60e51b81526004016108d890613dfc565b600854336000908152600e60209081526040808320546016909252909120548115801590610c455750600081115b15610c65576000610c5582610aa6565b9050610c618382610b21565b9350505b60408051808201909152848152602081018490526000610c8482611764565b6000878152600b60205260408120805460ff191660011790556009805492935090610cae8361443b565b91905055506000805160206144ed833981519152604051610cce906141d5565b60405180910390a16006547f9a965b974adcc5af3e5c811827630ad09160710bebb1621ec72cb1cbf0050cb7600a54838787604051610d10949392919061433d565b60405180910390a2600a8054906000610d288361443b565b9190505550505050505050565b60408051600c8082526101a0820190925260009182919060208201610180803683370190505090508781600081518110610d7f57634e487b7160e01b600052603260045260246000fd5b6020026020010181815250508681600181518110610dad57634e487b7160e01b600052603260045260246000fd5b6020026020010181815250508581600281518110610ddb57634e487b7160e01b600052603260045260246000fd5b6020026020010181815250508481600381518110610e0957634e487b7160e01b600052603260045260246000fd5b602002602001018181525050836000015181600481518110610e3b57634e487b7160e01b600052603260045260246000fd5b602002602001018181525050836020015181600581518110610e6d57634e487b7160e01b600052603260045260246000fd5b602002602001018181525050836040015181600681518110610e9f57634e487b7160e01b600052603260045260246000fd5b602002602001018181525050836060015181600781518110610ed157634e487b7160e01b600052603260045260246000fd5b602002602001018181525050836080015181600881518110610f0357634e487b7160e01b600052603260045260246000fd5b6020026020010181815250508360a0015181600981518110610f3557634e487b7160e01b600052603260045260246000fd5b6020026020010181815250508360c0015181600a81518110610f6757634e487b7160e01b600052603260045260246000fd5b6020026020010181815250508360e0015181600b81518110610f9957634e487b7160e01b600052603260045260246000fd5b60200260200101818152505060005b81518160ff16101561101d576000805160206144cd833981519152828260ff1681518110610fe657634e487b7160e01b600052603260045260246000fd5b60200260200101511061100b5760405162461bcd60e51b81526004016108d890614130565b8061101581614456565b915050610fa8565b50611026612f93565b61102f846126bf565b60408085018290526020850183905283855260055490516361971b8760e11b81526001600160a01b039091169363c32e370e936110759391929091908890600401613927565b60206040518083038186803b15801561108d57600080fd5b505afa1580156110a1573d6000803e3d6000fd5b505050506040513d601f19601f820116820180604052508101906110c59190613330565b151560609091018190529150509695505050505050565b60065484106110fd5760405162461bcd60e51b81526004016108d890613eed565b60ff7f000000000000000000000000000000000000000000000000000000000000000016891461113f5760405162461bcd60e51b81526004016108d89061418d565b60005b7f000000000000000000000000000000000000000000000000000000000000000060ff1681101561124357601460008a8a8481811061119157634e487b7160e01b600052603260045260246000fd5b602090810292909201358352508101919091526040016000205460ff1615156001146111cf5760405162461bcd60e51b81526004016108d890613b1c565b601560008888848181106111f357634e487b7160e01b600052603260045260246000fd5b602090810292909201358352508101919091526040016000205460ff1615156001146112315760405162461bcd60e51b81526004016108d890614052565b8061123b8161443b565b915050611142565b5061124c612fcd565b848152602081018490526040808201849052606082018d90528051610100818101909252908390600890839083908082843760009201919091525050506080820152604080516020808b0282810182019093528a825290918b918b91829185019084908082843760009201919091525050505060a08201526040805160208089028281018201909352888252909189918991829185019084908082843760009201919091525050505060c0820152604080516020808d0282810182019093528c825290918d918d91829185019084908082843760009201919091525050505060e08201526040516000805160206144ed8339815191529061134c90614023565b60405180910390a16006547fe4d3d9968cbe83e3f78ff28e3ec13aed2d63400dbdd05b7f5fcb01a9459a74a2600a548360405161138a929190614295565b60405180910390a2600a80549060006113a28361443b565b9190505550505050505050505050505050565b60009081526013602052604090205490565b6000808360ff161180156113e057506101008360ff1611155b6113fc5760405162461bcd60e51b81526004016108d890613c1a565b8160015b8460ff168160ff16101561143057600061141a83846116a2565b925081905061142881614456565b915050611400565b5061143b81826116a2565b949350505050565b336000908152600e6020526040902054156114705760405162461bcd60e51b81526004016108d890613a24565b600f8054336000908152600e602052604081208290559091906114928361443b565b9190505550565b7f000000000000000000000000000000000000000000000000000000000000000081565b60408051600480825260a0820190925260009182919060208201608080368337019050509050858160008151811061150557634e487b7160e01b600052603260045260246000fd5b602002602001018181525050848160018151811061153357634e487b7160e01b600052603260045260246000fd5b602002602001018181525050838160028151811061156157634e487b7160e01b600052603260045260246000fd5b60200260200101818152505060005b81518160ff1610156115e5576000805160206144cd833981519152828260ff16815181106115ae57634e487b7160e01b600052603260045260246000fd5b6020026020010151106115d35760405162461bcd60e51b81526004016108d890614130565b806115dd81614456565b915050611570565b506115ee612f93565b6115f7846126bf565b60408085018290526020850183905283855260025490516361971b8760e11b81526001600160a01b039091169363c32e370e9361163d9391929091908890600401613927565b60206040518083038186803b15801561165557600080fd5b505afa158015611669573d6000803e3d6000fd5b505050506040513d601f19601f8201168201806040525081019061168d9190613330565b15156060909101819052915050949350505050565b60006116ac613018565b838152602081018390526040516314d2f97b60e11b815273__$86e0c54df1042e28bf2dd20ccf184dc428$__906329a5f2f6906116ed9084906004016138cd565b60206040518083038186803b15801561170557600080fd5b505af4158015611719573d6000803e3d6000fd5b505050506040513d601f19601f8201168201806040525081019061143b9190613443565b60408051808201909152600080825260085460208301529061175e81611764565b91505090565b6000610ba1826000015183602001516116a2565b60065481565b60008281526013602052604081205482106117ab5760405162461bcd60e51b81526004016108d890613cdc565b5060009182526013602090815260408084209284526001909201905290205490565b60008181526013602052604081205460609182916001600160401b0381111561180657634e487b7160e01b600052604160045260246000fd5b60405190808252806020026020018201604052801561182f578160200160208202803683370190505b506000858152601360205260409020549093506001600160401b0381111561186757634e487b7160e01b600052604160045260246000fd5b604051908082528060200260200182016040528015611890578160200160208202803683370190505b50915060005b60008581526013602052604090205481101561194d576000858152601360209081526040808320848452600101909152902054845190925082908590839081106118f057634e487b7160e01b600052603260045260246000fd5b602002602001018181525050601160008381526020019081526020016000205483828151811061193057634e487b7160e01b600052603260045260246000fd5b6020908102919091010152806119458161443b565b915050611896565b5050915091565b7f000000000000000000000000000000000000000000000000000000000000000081565b6000808560ff1611801561199157506101008560ff1611155b6119ad5760405162461bcd60e51b81526004016108d890613c1a565b82828560015b6119be8960016143a3565b60ff168160ff161015611a2a5760006119d784856116a2565b90506119e4600284614476565b6119f9576119f285856116a2565b9450611a06565b611a0384866116a2565b94505b925082611a146002846143c8565b9250508080611a2290614456565b9150506119b3565b5091979650505050505050565b600f5481565b60095481565b6001600160a01b0383166000908152600e602052604090205415611a795760405162461bcd60e51b81526004016108d890613a24565b611ab98383838080601f01602080910402602001604051908101604052809392919081815260200183838082843760009201919091525061296e92505050565b600f80546001600160a01b0385166000908152600e60205260408120829055909190611ae48361443b565b9190505550505050565b604051630926f44b60e31b815260009073__$223301b175b06473d424a7afc957d4e96c$__90634937a25890611b2890859060040161396e565b60206040518083038186803b158015611b4057600080fd5b505af4158015611b54573d6000803e3d6000fd5b505050506040513d601f19601f82011682018060405250810190610ba19190613443565b336000818152600d60205260408120805491905590611b979082612a00565b50565b7f000000000000000000000000000000000000000000000000000000000000000081565b60106020526000908152604090205460ff1681565b336000908152600e6020526040902054611bff5760405162461bcd60e51b81526004016108d890613b9d565b33600090815260166020526040902055565b611c518585858080601f01602080910402602001604051908101604052809392919081815260200183838082843760009201919091525061296e92505050565b6001600160a01b0385166000908152600e6020526040902054611c865760405162461bcd60e51b81526004016108d890613b9d565b6001600160a01b0385166000908152600e6020526040902054823514611cbe5760405162461bcd60e51b81526004016108d8906140f9565b60008181526010602052604090205460ff1615611ced5760405162461bcd60e51b81526004016108d890613e45565b7f00000000000000000000000000000000000000000000000000000000000000003414611d2c5760405162461bcd60e51b81526004016108d890613c6c565b600c54611d399034612932565b600c55611d47858383612a9c565b5050505050565b60408051600480825260a08201909252600091829190602082016080803683370190505090508581600081518110611d9657634e487b7160e01b600052603260045260246000fd5b6020026020010181815250508481600181518110611dc457634e487b7160e01b600052603260045260246000fd5b6020026020010181815250508381600281518110611df257634e487b7160e01b600052603260045260246000fd5b60200260200101818152505060005b81518160ff161015611e76576000805160206144cd833981519152828260ff1681518110611e3f57634e487b7160e01b600052603260045260246000fd5b602002602001015110611e645760405162461bcd60e51b81526004016108d890614130565b80611e6e81614456565b915050611e01565b50611e7f612f93565b611e88846126bf565b60408085018290526020850183905283855260035490516361971b8760e11b81526001600160a01b039091169363c32e370e9361163d9391929091908890600401613927565b7f000000000000000000000000000000000000000000000000000000000000000081565b600c805460009182905590611b979082612a00565b336000908152600e6020526040902054611f335760405162461bcd60e51b81526004016108d890613b9d565b336000908152600e6020526040902054823514611f625760405162461bcd60e51b81526004016108d8906140f9565b60008181526010602052604090205460ff1615611f915760405162461bcd60e51b81526004016108d890613e45565b7f00000000000000000000000000000000000000000000000000000000000000003414611fd05760405162461bcd60e51b81526004016108d890613c6c565b600c54611fdd9034612932565b600c55611feb338383612a9c565b5050565b60175460ff808216916101008104821691620100008204811691630100000090041684565b60166020526000908152604090205481565b60008481526014602052604090205460ff16156120555760405162461bcd60e51b81526004016108d890613e99565b600061208c8585858560088060200260405190810160405280929190826008602002808284376000920191909152506114bd915050565b9050806120ab5760405162461bcd60e51b81526004016108d890613a6a565b50505060009182526014602090815260408084208054600160ff199182168117909255938552601590925290922080549091169091179055565b60085481565b600d6020526000908152604090205481565b7f000000000000000000000000000000000000000000000000000000000000000081565b60075481565b6000806121557f000000000000000000000000000000000000000000000000000000000000000060036143fb565b6121609060046143a3565b60ff166001600160401b0381111561218857634e487b7160e01b600052604160045260246000fd5b6040519080825280602002602001820160405280156121b1578160200160208202803683370190505b5090508c816000815181106121d657634e487b7160e01b600052603260045260246000fd5b60200260200101818152505060005b7f000000000000000000000000000000000000000000000000000000000000000060ff168160ff161015612289578c8c8260ff1681811061223657634e487b7160e01b600052603260045260246000fd5b905060200201358282600161224b91906143a3565b60ff168151811061226c57634e487b7160e01b600052603260045260246000fd5b60209081029190910101528061228181614456565b9150506121e5565b5089816122b77f000000000000000000000000000000000000000000000000000000000000000060016143a3565b60ff16815181106122d857634e487b7160e01b600052603260045260246000fd5b60200260200101818152505060005b7f000000000000000000000000000000000000000000000000000000000000000060ff168160ff1610156123b65789898260ff1681811061233857634e487b7160e01b600052603260045260246000fd5b9050602002013582827f0000000000000000000000000000000000000000000000000000000000000000600261236e91906143a3565b61237891906143a3565b60ff168151811061239957634e487b7160e01b600052603260045260246000fd5b6020908102919091010152806123ae81614456565b9150506122e7565b5086816123e47f000000000000000000000000000000000000000000000000000000000000000060026143fb565b6123ef9060026143a3565b60ff168151811061241057634e487b7160e01b600052603260045260246000fd5b60200260200101818152505060005b7f000000000000000000000000000000000000000000000000000000000000000060ff168160ff1610156124f95786868260ff1681811061247057634e487b7160e01b600052603260045260246000fd5b9050602002013582827f000000000000000000000000000000000000000000000000000000000000000060026124a691906143fb565b6124b19060036143a3565b6124bb91906143a3565b60ff16815181106124dc57634e487b7160e01b600052603260045260246000fd5b6020908102919091010152806124f181614456565b91505061241f565b5083816125277f000000000000000000000000000000000000000000000000000000000000000060036143fb565b6125329060036143a3565b60ff168151811061255357634e487b7160e01b600052603260045260246000fd5b60200260200101818152505060005b81518160ff1610156125d7576000805160206144cd833981519152828260ff16815181106125a057634e487b7160e01b600052603260045260246000fd5b6020026020010151106125c55760405162461bcd60e51b81526004016108d890614130565b806125cf81614456565b915050612562565b506125e0612f93565b6040805161010081810190925261260f91869060089083908390808284376000920191909152506126bf915050565b6040808501829052602085018390528385526004805491516361971b8760e11b81526001600160a01b039092169463c32e370e946126539491939092899101613927565b60206040518083038186803b15801561266b57600080fd5b505afa15801561267f573d6000803e3d6000fd5b505050506040513d601f19601f820116820180604052508101906126a39190613330565b151560609091018190529150509b9a5050505050505050505050565b6126c7613018565b6126cf613036565b6126d7613018565b50506040805180820182528351815260208085015181830152825160808082018552868501518286019081526060808901519084015282528451808601865290870151815260a08701518184015281830152835180850190945260c0860151845260e0909501519083015293909150565b60008281526014602052604090205460ff16151560011461277b5760405162461bcd60e51b81526004016108d8906141f9565b600061208c858585856008806020026040519081016040528092919082600860200280828437600092019190915250611d4e915050565b604080516003808252608082019092526000918291906020820160608036833701905050905085816000815181106127fa57634e487b7160e01b600052603260045260246000fd5b602002602001018181525050848160018151811061282857634e487b7160e01b600052603260045260246000fd5b602002602001018181525050838160028151811061285657634e487b7160e01b600052603260045260246000fd5b60200260200101818152505060005b81518160ff1610156128da576000805160206144cd833981519152828260ff16815181106128a357634e487b7160e01b600052603260045260246000fd5b6020026020010151106128c85760405162461bcd60e51b81526004016108d890614130565b806128d281614456565b915050612865565b506128e3612f93565b6128ec846126bf565b60408085018290526020850183905283855260015490516361971b8760e11b81526001600160a01b039091169363c32e370e9361163d9391929091908890600401613927565b6000610b08828461438b565b60008183111561294f575080610ba1565b5081610ba1565b6000610b088284614424565b6000610b0882846143dc565b60008230604051602001612983929190613872565b604051602081830303815290604052805190602001206040516020016129a99190613899565b604051602081830303815290604052805190602001209050826001600160a01b03166129d58284612c69565b6001600160a01b0316146129fb5760405162461bcd60e51b81526004016108d890613b53565b505050565b80471015612a205760405162461bcd60e51b81526004016108d890613dc5565b6000826001600160a01b031682604051612a39906138ca565b60006040518083038185875af1925050503d8060008114612a76576040519150601f19603f3d011682016040523d82523d6000602084013e612a7b565b606091505b50509050806129fb5760405162461bcd60e51b81526004016108d890613d26565b600081815260116020526040812054612af25750600680546000908152601360208181526040808420805480865260019091018352818520879055945484529190528120805491612aec8361443b565b91905055505b6000805160206144cd833981519152836020013510612b235760405162461bcd60e51b81526004016108d890613f59565b6000805160206144cd833981519152836040013510612b545760405162461bcd60e51b81526004016108d8906140b7565b6000805160206144cd833981519152836060013510612b855760405162461bcd60e51b81526004016108d890613ad8565b612bb3612b9f612b9a3686900386018661337a565b612c8d565b6000848152601160205260409020546116a2565b60008381526011602090815260408083209390935560129052908120805460019290612be390849060ff166143a3565b92506101000a81548160ff021916908360ff1602179055506000805160206144ed833981519152604051612c1690614089565b60405180910390a1836001600160a01b0316826006547fab3fdaa04cc1c0dcb6a1b27f267f206613cd138333959cd73d15a647b734241886604051612c5b9190614261565b60405180910390a450505050565b6000806000612c788585612cc9565b91509150612c8581612d39565b509392505050565b6000612c97612f75565b8251815260208084015190820152604080840151908201526060808401519082015260006080820152610b0881611aee565b600080825160411415612d005760208301516040840151606085015160001a612cf487828585612e66565b94509450505050612d32565b825160401415612d2a5760208301516040840151612d1f868383612f46565b935093505050612d32565b506000905060025b9250929050565b6000816004811115612d5b57634e487b7160e01b600052602160045260246000fd5b1415612d6657611b97565b6001816004811115612d8857634e487b7160e01b600052602160045260246000fd5b1415612da65760405162461bcd60e51b81526004016108d8906139ed565b6002816004811115612dc857634e487b7160e01b600052602160045260246000fd5b1415612de65760405162461bcd60e51b81526004016108d890613aa1565b6003816004811115612e0857634e487b7160e01b600052602160045260246000fd5b1415612e265760405162461bcd60e51b81526004016108d890613d83565b6004816004811115612e4857634e487b7160e01b600052602160045260246000fd5b1415611b975760405162461bcd60e51b81526004016108d890613f9b565b6000807f7fffffffffffffffffffffffffffffff5d576e7357a4501ddfe92f46681b20a0831115612e9d5750600090506003612f3d565b8460ff16601b14158015612eb557508460ff16601c14155b15612ec65750600090506004612f3d565b600060018787878760405160008152602001604052604051612eeb94939291906139cf565b6020604051602081039080840390855afa158015612f0d573d6000803e3d6000fd5b5050604051601f1901519150506001600160a01b038116612f3657600060019250925050612f3d565b9150600090505b94509492505050565b6000806001600160ff1b03831660ff84901c601b01612f6787828885612e66565b935093505050935093915050565b6040518060a001604052806005906020820280368337509192915050565b6040518060800160405280612fa6613018565b8152602001612fb3613036565b8152602001612fc0613018565b8152600060209091015290565b60405180610100016040528060008152602001600081526020016000815260200160008152602001612ffd613063565b81526020016060815260200160608152602001606081525090565b60405180604001604052806002906020820280368337509192915050565b60405180604001604052806002905b61304d613018565b8152602001906001900390816130455790505090565b6040518061010001604052806008906020820280368337509192915050565b80356001600160a01b038116811461088157600080fd5b806101008101831015610ba157600080fd5b600082601f8301126130bb578081fd5b6040516101008082018281106001600160401b03821117156130df576130df6144b6565b60405281848281018710156130f2578485fd5b8492505b6008831015613116578035825260019290920191602091820191016130f6565b509195945050505050565b60008083601f840112613132578182fd5b5081356001600160401b03811115613148578182fd5b6020830191508360208083028501011115612d3257600080fd5b60008083601f840112613173578182fd5b5081356001600160401b03811115613189578182fd5b602083019150836020828501011115612d3257600080fd5b6000608082840312156131b2578081fd5b50919050565b803560ff8116811461088157600080fd5b6000602082840312156131da578081fd5b610b0882613082565b6000806000604084860312156131f7578182fd5b61320084613082565b925060208401356001600160401b0381111561321a578283fd5b61322686828701613162565b9497909650939450505050565b600080600080600060e0868803121561324a578081fd5b61325386613082565b945060208601356001600160401b0381111561326d578182fd5b61327988828901613162565b909550935061328d905087604088016131a1565b9497939650919460c0013592915050565b600060a082840312156132af578081fd5b82601f8301126132bd578081fd5b60405160a081018181106001600160401b03821117156132df576132df6144b6565b604052808360a081018610156132f3578384fd5b835b60058110156131165781358352602092830192909101906001016132f5565b60006101008284031215613326578081fd5b610b0883836130ab565b600060208284031215613341578081fd5b81518015158114610b08578182fd5b60008060a08385031215613362578182fd5b61336c84846131a1565b946080939093013593505050565b60006080828403121561338b578081fd5b604051608081018181106001600160401b03821117156133ad576133ad6144b6565b8060405250823581526020830135602082015260408301356040820152606083013560608201528091505092915050565b6000604082840312156133ef578081fd5b604051604081018181106001600160401b0382111715613411576134116144b6565b604052823581526020928301359281019290925250919050565b60006020828403121561343c578081fd5b5035919050565b600060208284031215613454578081fd5b5051919050565b60008060008060008060008060008060006101e08c8e03121561347c578889fd5b8b359a506001600160401b038060208e0135111561349857898afd5b6134a88e60208f01358f01613121565b909b50995060408d01358110156134bd578687fd5b6134cd8e60408f01358f01613121565b909950975060608d01358110156134e2578687fd5b506134f38d60608e01358e01613121565b909650945060808c0135935060a08c0135925060c08c0135915061351a8d60e08e01613099565b90509295989b509295989b9093969950565b60008060008060008060008060008060006101e08c8e03121561354d578485fd5b8b359a506001600160401b038060208e01351115613569578586fd5b6135798e60208f01358f01613121565b909b50995060408d0135985060608d0135811015613595578586fd5b6135a58e60608f01358f01613121565b909850965060808d0135955060a08d01358110156135c1578485fd5b506135d28d60a08e01358e01613121565b909450925060c08c0135915061351a8d60e08e01613099565b600080604083850312156135fd578182fd5b50508035926020909101359150565b6000806000806101608587031215613622578182fd5b8435935060208501359250604085013591506136418660608701613099565b905092959194509250565b6000806000806101608587031215613662578182fd5b84359350602085013592506040850135915061364186606087016130ab565b60008060008060008086880361028081121561369b578485fd5b8735965060208801359550604088013594506060880135935061010080607f19830112156136c7578384fd5b60405191508082018281106001600160401b03821117156136ea576136ea6144b6565b80604052506080890135825260a0890135602083015260c0890135604083015260e089013560608301528089013560808301525061012088013560a082015261014088013560c082015261016088013560e0820152809250506137518861018089016130ab565b90509295509295509295565b6000806040838503121561376f578182fd5b613778836131b8565b946020939093013593505050565b6000806000806080858703121561379b578182fd5b6137a4856131b8565b966020860135965060408601359560600135945092505050565b8060005b60028110156137ec576137d68483516137f2565b60409390930192602091909101906001016137c2565b50505050565b8060005b60028110156137ec5781518452602093840193909101906001016137f6565b8060005b60088110156137ec578151845260209384019390910190600101613819565b6000815180845260208085019450808401835b838110156138675781518752958201959082019060010161384b565b509495945050505050565b6bffffffffffffffffffffffff19606093841b811682529190921b16601482015260280190565b7f19457468657265756d205369676e6564204d6573736167653a0a3332000000008152601c810191909152603c0190565b90565b60408101818360005b60028110156138f55781518352602092830192909101906001016138d6565b50505092915050565b610100810161390d82866137f2565b61391a60408301856137be565b61143b60c08301846137f2565b600061012061393683886137f2565b61394360408401876137be565b61395060c08401866137f2565b8061010084015261396381840185613838565b979650505050505050565b60a08101818360005b60058110156138f5578151835260209283019290910190600101613977565b6000604082526139a96040830185613838565b82810360208401526139bb8185613838565b95945050505050565b901515815260200190565b93845260ff9290921660208401526040830152606082015260800190565b60208082526018908201527f45434453413a20696e76616c6964207369676e61747572650000000000000000604082015260600190565b60208082526026908201527f556e697265703a2061747465737465722068617320616c72656164792073696760408201526506e65642075760d41b606082015260800190565b6020808252601e908201527f556e697265703a207468652070726f6f66206973206e6f742076616c69640000604082015260600190565b6020808252601f908201527f45434453413a20696e76616c6964207369676e6174757265206c656e67746800604082015260600190565b60208082526024908201527f556e697265703a20696e76616c6964206174746573746174696f6e20677261666040820152636669746960e01b606082015260800190565b6020808252601e908201527f556e697265703a20756e70726f63657373656420757365722073746174650000604082015260600190565b6020808252602a908201527f556e697265703a20696e76616c6964206174746573746572207369676e207570604082015269207369676e617475726560b01b606082015260800190565b60208082526026908201527f556e697265703a20617474657374657220686173206e6f74207369676e6564206040820152651d5c081e595d60d21b606082015260800190565b6020808252601b908201527f556e697265703a2065706f6368206e6f742079657420656e6465640000000000604082015260600190565b60208082526032908201527f436f6d70757465526f6f743a205f747265654c6576656c73206d757374206265604082015271103132ba3bb2b2b710181030b73210191a9b60711b606082015260800190565b6020808252602c908201527f556e697265703a206e6f20617474657374696e6720666565206f7220696e636f60408201526b1c9c9958dd08185b5bdd5b9d60a21b606082015260800190565b6020808252600a9082015269115c1bd8da115b99195960b21b604082015260600190565b6020808252602a908201527f556e697265703a2065706f6368206b6579206c69737420616363657373206f756040820152691d081bd988189bdd5b9960b21b606082015260800190565b6020808252603a908201527f416464726573733a20756e61626c6520746f2073656e642076616c75652c207260408201527f6563697069656e74206d61792068617665207265766572746564000000000000606082015260800190565b60208082526022908201527f45434453413a20696e76616c6964207369676e6174757265202773272076616c604082015261756560f01b606082015260800190565b6020808252601d908201527f416464726573733a20696e73756666696369656e742062616c616e6365000000604082015260600190565b60208082526029908201527f556e697265703a206d6178696d756d206e756d626572206f66207369676e75706040820152681cc81c995858da195960ba1b606082015260800190565b60208082526034908201527f556e697265703a206861736820636861696e206f6620746869732065706f6368604082015273081ad95e481a185cc81899595b881cd9585b195960621b606082015260800190565b60208082526034908201527f556e697265703a20626c696e646564207573657220737461746520686173206260408201527365656e207375626d6974746564206265666f726560601b606082015260800190565b60208082526046908201527f43616e206e6f74207472616e736974696f6e2066726f6d2065706f636820746860408201527f617427732067726561746572206f7220657175616c20746f2063757272656e74606082015265040cae0dec6d60d31b608082015260a00190565b60208082526022908201527f556e697265703a20696e76616c6964206174746573746174696f6e20706f7352604082015261065760f41b606082015260800190565b60208082526022908201527f45434453413a20696e76616c6964207369676e6174757265202776272076616c604082015261756560f01b606082015260800190565b60208082526026908201527f556e697265703a2074686520757365722068617320616c72656164792073696760408201526506e65642075760d41b606082015260800190565b602080825260159082015274155cd95c94dd185d19551c985b9cda5d1a5bdb9959605a1b604082015260600190565b6020808252601e908201527f556e697265703a20756e70726f636573736564206861736820636861696e0000604082015260600190565b602080825260149082015273105d1d195cdd185d1a5bdb94dd589b5a5d1d195960621b604082015260600190565b60208082526022908201527f556e697265703a20696e76616c6964206174746573746174696f6e206e656752604082015261065760f41b606082015260800190565b6020808252601d908201527f556e697265703a206d69736d6174636865642061747465737465724964000000604082015260600190565b6020808252603c908201527f556e697265703a2065616368207075626c6963207369676e616c206d7573742060408201527f6265206c742074686520736e61726b207363616c6172206669656c6400000000606082015260800190565b60208082526028908201527f556e697265703a20696e76616c6964206e756d626572206f662065706b206e756040820152676c6c69666965727360c01b606082015260800190565b6020808252600a90820152690557365725369676e55760b41b604082015260600190565b60208082526042908201527f556e697265703a2070726f63657373696e67206174746573746174696f6e732060408201527f7769746820616e20696e76616c696420626c696e646564207573657220737461606082015261746560f01b608082015260a00190565b8135815260208083013590820152604080830135908201526060918201359181019190915260800190565b90815260200190565b600083825260406020830152825160408301526020830151606083015260408301516080830152606083015160a083015260808301516142d860c0840182613815565b5060a08301516101e0806101c08501526142f6610220850183613838565b915060c0850151603f198086850301838701526143138483613838565b935060e08701519250808685030161020087015250506143338282613838565b9695505050505050565b93845260208401929092526040830152606082015260800190565b60ff91909116815260200190565b60ff948516815292841660208401529083166040830152909116606082015260800190565b6000821982111561439e5761439e61448a565b500190565b600060ff821660ff84168060ff038211156143c0576143c061448a565b019392505050565b6000826143d7576143d76144a0565b500490565b60008160001904831182151516156143f6576143f661448a565b500290565b600060ff821660ff84168160ff048111821515161561441c5761441c61448a565b029392505050565b6000828210156144365761443661448a565b500390565b600060001982141561444f5761444f61448a565b5060010190565b600060ff821660ff81141561446d5761446d61448a565b60010192915050565b600082614485576144856144a0565b500690565b634e487b7160e01b600052601160045260246000fd5b634e487b7160e01b600052601260045260246000fd5b634e487b7160e01b600052604160045260246000fdfe30644e72e131a029b85045b68181585d2833e84879b9709143e1f593f00000010dcdd84eeab9fd262751c1bd37b2a03e271f2666bf2525092aab5f34fd72202ba264697066735822122036238bf642712c57dd598cfd7210a829232e729a106060c9ff1adc043c17777064736f6c63430008000033",
    "linkReferences": {
        "contracts/Poseidon.sol": {
            "PoseidonT3": [
                {
                    "length": 20,
                    "start": 1038
                },
                {
                    "length": 20,
                    "start": 8361
                }
            ],
            "PoseidonT6": [
                {
                    "length": 20,
                    "start": 717
                },
                {
                    "length": 20,
                    "start": 9444
                }
            ]
        }
    },
    "deployedLinkReferences": {
        "contracts/Poseidon.sol": {
            "PoseidonT3": [
                {
                    "length": 20,
                    "start": 5829
                }
            ],
            "PoseidonT6": [
                {
                    "length": 20,
                    "start": 6912
                }
            ]
        }
    }
}