{
  "_format": "hh-sol-artifact-1",
  "contractName": "DomainObjs",
  "sourceName": "contracts/DomainObjs.sol",
  "abi": [
    {
      "inputs": [
        {
          "internalType": "uint256[5]",
          "name": "array",
          "type": "uint256[5]"
        }
      ],
      "name": "hash5",
      "outputs": [
        {
          "internalType": "uint256",
          "name": "",
          "type": "uint256"
        }
      ],
      "stateMutability": "pure",
      "type": "function"
    },
    {
      "inputs": [
        {
          "internalType": "uint256",
          "name": "airdropPosRep",
          "type": "uint256"
        }
      ],
      "name": "hashAirdroppedLeaf",
      "outputs": [
        {
          "internalType": "uint256",
          "name": "",
          "type": "uint256"
        }
      ],
      "stateMutability": "pure",
      "type": "function"
    },
    {
      "inputs": [
        {
          "internalType": "uint256",
          "name": "_left",
          "type": "uint256"
        },
        {
          "internalType": "uint256",
          "name": "_right",
          "type": "uint256"
        }
      ],
      "name": "hashLeftRight",
      "outputs": [
        {
          "internalType": "uint256",
          "name": "",
          "type": "uint256"
        }
      ],
      "stateMutability": "pure",
      "type": "function"
    },
    {
      "inputs": [
        {
          "components": [
            {
              "internalType": "uint256",
              "name": "identityCommitment",
              "type": "uint256"
            },
            {
              "internalType": "uint256",
              "name": "userStateRoot",
              "type": "uint256"
            }
          ],
          "internalType": "struct DomainObjs.StateLeaf",
          "name": "_stateLeaf",
          "type": "tuple"
        }
      ],
      "name": "hashStateLeaf",
      "outputs": [
        {
          "internalType": "uint256",
          "name": "",
          "type": "uint256"
        }
      ],
      "stateMutability": "pure",
      "type": "function"
    }
  ],
  "bytecode": "0x608060405234801561001057600080fd5b50610424806100206000396000f3fe608060405234801561001057600080fd5b506004361061004c5760003560e01c80632b95f97e146100515780635bb939951461007a5780637341ead91461008d5780639cfced97146100a0575b600080fd5b61006461005f366004610325565b6100b3565b60405161007191906103cf565b60405180910390f35b610064610088366004610355565b6100da565b61006461009b3660046102d7565b610175565b6100646100ae366004610255565b61018f565b60006100bd610219565b8281526001606082018190526100d28261018f565b949350505050565b60006100e4610237565b838152602081018390526040516314d2f97b60e11b815273__$86e0c54df1042e28bf2dd20ccf184dc428$__906329a5f2f690610125908490600401610376565b60206040518083038186803b15801561013d57600080fd5b505af4158015610151573d6000803e3d6000fd5b505050506040513d601f19601f820116820180604052508101906100d2919061033d565b6000610189826000015183602001516100da565b92915050565b604051630926f44b60e31b815260009073__$223301b175b06473d424a7afc957d4e96c$__90634937a258906101c99085906004016103a7565b60206040518083038186803b1580156101e157600080fd5b505af41580156101f5573d6000803e3d6000fd5b505050506040513d601f19601f82011682018060405250810190610189919061033d565b6040518060a001604052806005906020820280368337509192915050565b60405180604001604052806002906020820280368337509192915050565b600060a08284031215610266578081fd5b82601f830112610274578081fd5b60405160a0810181811067ffffffffffffffff82111715610297576102976103d8565b604052808360a081018610156102ab578384fd5b835b60058110156102cc5781358352602092830192909101906001016102ad565b509195945050505050565b6000604082840312156102e8578081fd5b6040516040810181811067ffffffffffffffff8211171561030b5761030b6103d8565b604052823581526020928301359281019290925250919050565b600060208284031215610336578081fd5b5035919050565b60006020828403121561034e578081fd5b5051919050565b60008060408385031215610367578081fd5b50508035926020909101359150565b60408101818360005b600281101561039e57815183526020928301929091019060010161037f565b50505092915050565b60a08101818360005b600581101561039e5781518352602092830192909101906001016103b0565b90815260200190565b634e487b7160e01b600052604160045260246000fdfea2646970667358221220435ca3baf365677c5fc37ce4a17293aec3afb5d97c592f8d1395334014de4e0564736f6c63430008000033",
  "linkReferences": {
    "contracts/Poseidon.sol": {
      "PoseidonT3": [
        {
          "length": 20,
          "start": 285
        }
      ],
      "PoseidonT6": [
        {
          "length": 20,
          "start": 449
        }
      ]
    }
  },
  "deployedLinkReferences": {
    "contracts/Poseidon.sol": {
      "PoseidonT3": [
        {
          "length": 20,
          "start": 253
        }
      ],
      "PoseidonT6": [
        {
          "length": 20,
          "start": 417
        }
      ]
    }
  }
}