{
  "_format": "hh-sol-artifact-1",
  "contractName": "DomainObjs",
  "sourceName": "contracts/DomainObjs.sol",
  "abi": [
    {
      "inputs": [
        {
          "internalType": "uint256[5]",
          "name": "array",
          "type": "uint256[5]"
        }
      ],
      "name": "hash5",
      "outputs": [
        {
          "internalType": "uint256",
          "name": "",
          "type": "uint256"
        }
      ],
      "stateMutability": "pure",
      "type": "function"
    },
    {
      "inputs": [
        {
          "internalType": "uint256",
          "name": "airdropPosRep",
          "type": "uint256"
        }
      ],
      "name": "hashAirdroppedLeaf",
      "outputs": [
        {
          "internalType": "uint256",
          "name": "",
          "type": "uint256"
        }
      ],
      "stateMutability": "pure",
      "type": "function"
    },
    {
      "inputs": [
        {
          "internalType": "uint256",
          "name": "_left",
          "type": "uint256"
        },
        {
          "internalType": "uint256",
          "name": "_right",
          "type": "uint256"
        }
      ],
      "name": "hashLeftRight",
      "outputs": [
        {
          "internalType": "uint256",
          "name": "",
          "type": "uint256"
        }
      ],
      "stateMutability": "pure",
      "type": "function"
    },
    {
      "inputs": [
        {
          "components": [
            {
              "internalType": "uint256",
              "name": "identityCommitment",
              "type": "uint256"
            },
            {
              "internalType": "uint256",
              "name": "userStateRoot",
              "type": "uint256"
            }
          ],
          "internalType": "struct DomainObjs.StateLeaf",
          "name": "_stateLeaf",
          "type": "tuple"
        }
      ],
      "name": "hashStateLeaf",
      "outputs": [
        {
          "internalType": "uint256",
          "name": "",
          "type": "uint256"
        }
      ],
      "stateMutability": "pure",
      "type": "function"
    }
  ],
  "bytecode": "0x608060405234801561001057600080fd5b5061049a806100206000396000f3fe608060405234801561001057600080fd5b506004361061004c5760003560e01c80632b95f97e146100515780635bb939951461007a5780637341ead91461008d5780639cfced97146100a0575b600080fd5b61006461005f36600461036f565b6100b3565b6040516100719190610419565b60405180910390f35b61006461008836600461039f565b61011c565b61006461009b366004610321565b6101bf565b6100646100ae36600461029f565b6101d9565b60006100bd610263565b82815260015b60058160ff16101561010b576000828260ff16600581106100f457634e487b7160e01b600052603260045260246000fd5b60200201528061010381610422565b9150506100c3565b50610115816101d9565b9392505050565b6000610126610281565b838152602081018390526040516314d2f97b60e11b815273__$86e0c54df1042e28bf2dd20ccf184dc428$__906329a5f2f6906101679084906004016103c0565b60206040518083038186803b15801561017f57600080fd5b505af4158015610193573d6000803e3d6000fd5b505050506040513d601f19601f820116820180604052508101906101b79190610387565b949350505050565b60006101d38260000151836020015161011c565b92915050565b604051630926f44b60e31b815260009073__$223301b175b06473d424a7afc957d4e96c$__90634937a258906102139085906004016103f1565b60206040518083038186803b15801561022b57600080fd5b505af415801561023f573d6000803e3d6000fd5b505050506040513d601f19601f820116820180604052508101906101d39190610387565b6040518060a001604052806005906020820280368337509192915050565b60405180604001604052806002906020820280368337509192915050565b600060a082840312156102b0578081fd5b82601f8301126102be578081fd5b60405160a0810181811067ffffffffffffffff821117156102e1576102e161044e565b604052808360a081018610156102f5578384fd5b835b60058110156103165781358352602092830192909101906001016102f7565b509195945050505050565b600060408284031215610332578081fd5b6040516040810181811067ffffffffffffffff821117156103555761035561044e565b604052823581526020928301359281019290925250919050565b600060208284031215610380578081fd5b5035919050565b600060208284031215610398578081fd5b5051919050565b600080604083850312156103b1578081fd5b50508035926020909101359150565b60408101818360005b60028110156103e85781518352602092830192909101906001016103c9565b50505092915050565b60a08101818360005b60058110156103e85781518352602092830192909101906001016103fa565b90815260200190565b600060ff821660ff81141561044557634e487b7160e01b82526011600452602482fd5b60010192915050565b634e487b7160e01b600052604160045260246000fdfea2646970667358221220fbd46ab4dca67546baa64cdc5c80afb8c29c176528746bcb27b8476f344b777064736f6c63430008000033",
  "linkReferences": {
    "contracts/Poseidon.sol": {
      "PoseidonT3": [
        {
          "length": 20,
          "start": 351
        }
      ],
      "PoseidonT6": [
        {
          "length": 20,
          "start": 523
        }
      ]
    }
  },
  "deployedLinkReferences": {
    "contracts/Poseidon.sol": {
      "PoseidonT3": [
        {
          "length": 20,
          "start": 319
        }
      ],
      "PoseidonT6": [
        {
          "length": 20,
          "start": 491
        }
      ]
    }
  }
}