{
  "_format": "hh-sol-artifact-1",
  "contractName": "ReputationVerifier",
  "sourceName": "contracts/ReputationVerifier.sol",
  "abi": [
    {
      "inputs": [
        {
          "internalType": "uint256[2]",
          "name": "a",
          "type": "uint256[2]"
        },
        {
          "internalType": "uint256[2][2]",
          "name": "b",
          "type": "uint256[2][2]"
        },
        {
          "internalType": "uint256[2]",
          "name": "c",
          "type": "uint256[2]"
        },
        {
          "internalType": "uint256[]",
          "name": "input",
          "type": "uint256[]"
        }
      ],
      "name": "verifyProof",
      "outputs": [
        {
          "internalType": "bool",
          "name": "",
          "type": "bool"
        }
      ],
      "stateMutability": "view",
      "type": "function"
    }
  ],
  "bytecode": "0x608060405234801561001057600080fd5b506117b3806100206000396000f3fe608060405234801561001057600080fd5b506004361061002b5760003560e01c8063c32e370e14610030575b600080fd5b61004361003e366004611313565b610059565b60405161005091906113dc565b60405180910390f35b60006100636110c3565b6040805180820182528751815260208089015181830152908352815160808101835287515181840190815288518301516060830152815282518084018452888301805151825251830151818401528183015283820152815180830183528651815286820151918101919091529082015260006100dd6103e2565b60408051808201909152600080825260208201528351519192509060008051602061175e8339815191521161012d5760405162461bcd60e51b81526004016101249061141e565b60405180910390fd5b82516020015160008051602061175e8339815191521161015f5760405162461bcd60e51b815260040161012490611594565b6020830151515160008051602061175e833981519152116101925760405162461bcd60e51b8152600401610124906113e7565b60208381015101515160008051602061175e833981519152116101c75760405162461bcd60e51b81526004016101249061155d565b60208381015151015160008051602061175e833981519152116101fc5760405162461bcd60e51b81526004016101249061148c565b602083810151810151015160008051602061175e833981519152116102335760405162461bcd60e51b815260040161012490611455565b60408301515160008051602061175e833981519152116102655760405162461bcd60e51b8152600401610124906115f7565b60008051602061175e8339815191528360400151602001511061029a5760405162461bcd60e51b8152600401610124906114ef565b60005b601181101561038e577f30644e72e131a029b85045b68181585d2833e84879b9709143e1f593f00000018682815181106102e757634e487b7160e01b600052603260045260246000fd5b60200260200101511061030c5760405162461bcd60e51b815260040161012490611526565b61037a82610375856080015184600161032591906116a8565b6012811061034357634e487b7160e01b600052603260045260246000fd5b602002015189858151811061036857634e487b7160e01b600052603260045260246000fd5b6020026020010151610bf2565b610c5d565b915080610386816116f6565b91505061029d565b506080820151516103a0908290610c5d565b90506103d66103b28460000151610cc4565b84602001518460000151856020015185876040015189604001518960600151610d51565b98975050505050505050565b6103ea6110f5565b6040805180820182527f2d4d9aa7e302d9df41749d5507949d05dbea33fbb16c643b22f599a2be6df2e281527f14bedd503c37ceb061d8ec60209fe345ce89830a19230301f076caff004d19266020808301919091529083528151608080820184527f0967032fcbf776d1afc985f88877f182d38480a653f2decaa9794cbc3bf3060c8285019081527f0e187847ad4c798374d0d6732bf501847dd68bc0e071241e0213bc7fc13db7ab606080850191909152908352845180860186527f304cfbd1e08a704a99f5e847d93f8c3caafddec46b7a0d379da69a4d112346a781527f1739c1b1a457a8c7313123d24d2f9192f896b7c63eea05a9d57f06547ad0cec8818601528385015285840192909252835180820185527f198e9393920d483a7260bfb731fb5d25f1aa493335a9e71297e485b7aef312c28186018181527f1800deef121f1e76426a00665e5c4479674322d4f75edadd46debd5cd992f6ed838601819052908352865180880188527f090689d0585ff075ec9e99ad690c3395bc4b313370b38ef355acdadcd122975b8082527f12c85ea5db8c6deb4aab71808dcb408fe3d1e7690c43d37b4ce6cc0166fa7daa8289018190528589019290925289890194909452875180860189528089019384528087019290925291815286518088018852928352828601919091528085019190915282860152835180850185527f07060c49d7e23463baa5d25a69dbdf4754f31d0246022eedcae6ffb4fe9fd7f781527f1191f3ae517bc7b16d2e575f0eadf89763134ee05ca4612c5b4ce20167255be181850152818601805191909152845180860186527f16f52f0e383f609fad26ebe3830d62a6f78a4ad96e30cd12fe36c9c4311fc6b281527f0f309727b38d865224c08746cbbb61e6b0aba7fd6242509bed65d3ac4e0e3a23818601528151850152845180860186527f1d512d35caa6e517d993a5ae6f17b6a873589e0caf96b8c3e3c7c793c28f331281527f055bd748a5f273ff99d915335cc2ffacb4c8d3ebd48fa08417813b153324ed1a818601528151860152845180860186527f1fe1d98c70acbf960dd42f0a4440f13ffe79c77f26f6b97799bf23f3e091661481527f1c6323d289ec19d5d00c064ea5782f2b62d386ca5279eeda3a3596e20357e20c81860152815190930192909252835180850185527f0bd15b2a5207130e27aef896e25bacf780e63e029d321aba2f138a55afab2c2d81527f0e3022a0f970e028655df601f48a6757c3156413239c7f3c7da369db67e3aa2281850152825190910152825180840184527f156ad1ee5bba02314fb919e91580a1bfb97e0b9b99605bc1f92a20b3a2c946fd81527f089880b8597fcbbaf066740a86c7862dc21ad53f2cf73a22434b90c0fe026ebe81840152815160a00152825180840184527f11ff4381804d22e7cfe49e83b394d0a0c5b277d55e6d001a6b13f06842ba9fb481527f11173db8e79fd61cc122dba716aa5c9fdce18598a67d1b840a2a5a54f604a1ed81840152815160c00152825180840184527f28fb14c9263f9cd3b8ad6fc48d70baea7e085c41c9b62d8ed943187a248600bb81527edfc79e1681d94fb053db902950360c1bcc8f5337b0483f66c53be7e519acf481840152815160e00152825180840184527f17322ed7e49e0ab08fd54a3ef4dbca5b18bd31a81df048c7449fad468239c41881527f2dc9280d29a2802e1f76ca3dfd3fc0f30b88ad85e22e50203e3bbc93913d86f38184015281516101000152825180840184527f1c66a8ebe79c483f1854193429c330de04205fff8eb9820cbd63485baadda24281527f2a49a1358ed7a3865827fea12ec11a6f07a8c2c59e38ab3bad81b5480057ff818184015281516101200152825180840184527f2a4ef81e6221e6f5f02cd30a28d817d9af1fa3e02704947e3b349b3fb1ac098f81527f036e57cab05c2a994ee65a4db9974e4aa0d91ddf90ecdfded1530141b1d858968184015281516101400152825180840184527f1df2c737c8b8676f08817b3390311e7a4cec3fbdf5655003fa0f1055a5689a5881527f292b26291462f65f2fb3ada8bdd3114db31cf01ab82e8f9332dc7b587474f51b8184015281516101600152825180840184527f1084cc3a873d94cb1f9c6771a64a3cc5e3eff2df3bae141b6d50058da488d3b281527f1ea9ebf08d27ab92ae8ef9dd948873a47ca5b36fc16338cd0ec99b002c4b3ef38184015281516101800152825180840184527f1f6966876b6ad50a21c49accabdedbafad4a1adaa8f876db88d94777d9cf75ca81527f245e015967dda9520dc22c90aa1b66d04b00f248c08e9fee6d6b0b84cba873d88184015281516101a00152825180840184527f128e2111eb1e84c1190b4a9c8c2687f3eb252888034137b0a485975515b4783a81527f2ee9fe72dfd2bcac972cd75d32806986b100064e7c9048fc5aad70a0ada0ad898184015281516101c00152825180840184527f304875745229f64dd6eb563847e4b7143bf9c97b3a056a7791a52bec247bf60e81527f14e694f51469f1cb13b5f081e02498a1b73d1c360e22137ac3547733ce92e2b28184015281516101e00152825180840184527f2a60625148f4fd5fa7f5827142708cc12a9e6084095fd05dbc58082cc8c0675781527f0c7141e8085259035f429d1d49d36595d8630987ae7c0e7d670cb5da7a79bda5818401528151610200015282518084019093527f289394a9c638fd957532212c569772b652516bfc6a03105699f2ddfabd82ff4c83527f24887c6d06f6866a4c61ed5b3faa634203a8424f28e83c04be1b7a9b72e66ea49183019190915251610220015290565b610bfa61113c565b610c02611156565b835181526020808501519082015260408101839052600060608360808460076107d05a03fa9050808015610c3557610c37565bfe5b5080610c555760405162461bcd60e51b8152600401610124906114c3565b505092915050565b610c6561113c565b610c6d611174565b8351815260208085015181830152835160408301528301516060808301919091526000908360c08460066107d05a03fa9050808015610c35575080610c555760405162461bcd60e51b8152600401610124906115cb565b610ccc61113c565b8151158015610cdd57506020820151155b15610cfc57506040805180820190915260008082526020820152610d4c565b60405180604001604052808360000151815260200160008051602061175e8339815191528460200151610d2f9190611711565b610d479060008051602061175e8339815191526116df565b905290505b919050565b60408051608080820183528a825260208083018a90528284018890526060808401879052845192830185528b83528282018a9052828501889052820185905283516018808252610320820190955260009491859190839082016103008036833701905050905060005b6004811015611069576000610dd08260066116c0565b9050858260048110610df257634e487b7160e01b600052603260045260246000fd5b60200201515183610e048360006116a8565b81518110610e2257634e487b7160e01b600052603260045260246000fd5b602002602001018181525050858260048110610e4e57634e487b7160e01b600052603260045260246000fd5b60200201516020015183826001610e6591906116a8565b81518110610e8357634e487b7160e01b600052603260045260246000fd5b602002602001018181525050848260048110610eaf57634e487b7160e01b600052603260045260246000fd5b6020020151515183610ec28360026116a8565b81518110610ee057634e487b7160e01b600052603260045260246000fd5b602002602001018181525050848260048110610f0c57634e487b7160e01b600052603260045260246000fd5b6020020151516001602002015183610f258360036116a8565b81518110610f4357634e487b7160e01b600052603260045260246000fd5b602002602001018181525050848260048110610f6f57634e487b7160e01b600052603260045260246000fd5b602002015160200151600060028110610f9857634e487b7160e01b600052603260045260246000fd5b602002015183610fa98360046116a8565b81518110610fc757634e487b7160e01b600052603260045260246000fd5b602002602001018181525050848260048110610ff357634e487b7160e01b600052603260045260246000fd5b60200201516020015160016002811061101c57634e487b7160e01b600052603260045260246000fd5b60200201518361102d8360056116a8565b8151811061104b57634e487b7160e01b600052603260045260246000fd5b60209081029190910101525080611061816116f6565b915050610dba565b50611072611192565b6000602082602086026020860160086107d05a03fa9050808015610c355750806110ae5760405162461bcd60e51b81526004016101249061162e565b505115159d9c50505050505050505050505050565b60405180606001604052806110d661113c565b81526020016110e36111b0565b81526020016110f061113c565b905290565b6040518060a0016040528061110861113c565b81526020016111156111b0565b81526020016111226111b0565b815260200161112f6111b0565b81526020016110f06111d0565b604051806040016040528060008152602001600081525090565b60405180606001604052806003906020820280368337509192915050565b60405180608001604052806004906020820280368337509192915050565b60405180602001604052806001906020820280368337509192915050565b60405180604001604052806111c36111fe565b81526020016110f06111fe565b6040518061024001604052806012905b6111e861113c565b8152602001906001900390816111e05790505090565b60405180604001604052806002906020820280368337509192915050565b600082601f83011261122c578081fd5b6040516040810181811067ffffffffffffffff8211171561124f5761124f611747565b8060405250808385604086011115611265578384fd5b835b6002811015611286578135835260209283019290910190600101611267565b509195945050505050565b600082601f8301126112a1578081fd5b8135602067ffffffffffffffff8211156112bd576112bd611747565b8082026112cb82820161165d565b8381528281019086840183880185018910156112e5578687fd5b8693505b858410156113075780358352600193909301929184019184016112e9565b50979650505050505050565b6000806000806101208587031215611329578384fd5b611333868661121c565b9350604086605f870112611345578384fd5b600261135861135382611687565b61165d565b8083890160c08a018b81111561136c578889fd5b885b85811015611394576113808d8461121c565b85526020909401939186019160010161136e565b508298506113a28c8261121c565b975050505050505061010085013567ffffffffffffffff8111156113c4578182fd5b6113d087828801611291565b91505092959194509250565b901515815260200190565b60208082526018908201527f76657269666965722d6258302d6774652d7072696d652d710000000000000000604082015260600190565b60208082526017908201527f76657269666965722d61582d6774652d7072696d652d71000000000000000000604082015260600190565b60208082526018908201527f76657269666965722d6259312d6774652d7072696d652d710000000000000000604082015260600190565b60208082526018908201527f76657269666965722d6258312d6774652d7072696d652d710000000000000000604082015260600190565b6020808252601290820152711c185a5c9a5b99cb5b5d5b0b59985a5b195960721b604082015260600190565b60208082526017908201527f76657269666965722d63592d6774652d7072696d652d71000000000000000000604082015260600190565b6020808252601f908201527f76657269666965722d6774652d736e61726b2d7363616c61722d6669656c6400604082015260600190565b60208082526018908201527f76657269666965722d6259302d6774652d7072696d652d710000000000000000604082015260600190565b60208082526017908201527f76657269666965722d61592d6774652d7072696d652d71000000000000000000604082015260600190565b6020808252601290820152711c185a5c9a5b99cb5859190b59985a5b195960721b604082015260600190565b60208082526017908201527f76657269666965722d63582d6774652d7072696d652d71000000000000000000604082015260600190565b6020808252601590820152741c185a5c9a5b99cb5bdc18dbd9194b59985a5b1959605a1b604082015260600190565b60405181810167ffffffffffffffff8111828210171561167f5761167f611747565b604052919050565b600067ffffffffffffffff8211156116a1576116a1611747565b5060200290565b600082198211156116bb576116bb611731565b500190565b60008160001904831182151516156116da576116da611731565b500290565b6000828210156116f1576116f1611731565b500390565b600060001982141561170a5761170a611731565b5060010190565b60008261172c57634e487b7160e01b81526012600452602481fd5b500690565b634e487b7160e01b600052601160045260246000fd5b634e487b7160e01b600052604160045260246000fdfe30644e72e131a029b85045b68181585d97816a916871ca8d3c208c16d87cfd47a264697066735822122048d1be3c5132d688ee4f87cab776a908a3cf69ef1b8083c4788aaf65de36dfd464736f6c63430008000033",
  "linkReferences": {},
  "deployedLinkReferences": {}
}